:020000040000fa
:080000000002040000000000f2
:020000040000fa
:100400008fe1210000ff27000001880000000000ac
:100410000c000700605e2400110020000f000700a0
:10042000000020000000e000020032000000020096
:1004300000000000ba460200000000000040da00a0
:100440000000fe00609b23000000e000020032007c
:10045000002020009001880000000600a102880012
:10046000800078000000eb001a003700e2804000b6
:1004700054a0b4009101ba00e280400054a0b4003e
:100480009102ba00e280400054a0b4000002eb00e8
:10049000472bde00f507b200a6018800602ce100c2
:1004a00008003a000049eb000201e80002003900b0
:1004b0003420ec0002f0a0008301e900f9ff3e00c7
:1004c000040037006128e100010032000082eb00e7
:1004d000040007001101ba000200e000e3ff3a0047
:1004e0000000060004d0a300e20f49001c00390000
:1004f000810278003549ba000201e80002003900a3
:100500003420ec0002f0a0008301e9000f0032006b
:100510002549ba000201e800020039003420ec004d
:1005200002f0a0008301e900080032000400e000ae
:100530000600320015c9ba000201e80002003900c5
:100540003420ec0002f0a0008301e9008180e80083
:1005500054a0b4000300e000e2ff3a0000000600ef
:100560009102ba00055978008301e900f7ff3200d3
:10057000c82ade00055978008301e900f3ff320044
:100580000400e000f1ff320011d9ba00eeff37009d
:10059000020ab900001bb9000200b8008100420045
:1005a0008100430000000600889fbe00e304400075
:1005b0000900a100808f54004a003600e38f5400e8
:1005c00001003e0049002000f29180000200e0009e
:1005d00002003200820078000c0037000124210064
:1005e00003003700908f5400230036008080e8001d
:1005f000110078000000e000faff3a000f00370019
:10060000908f54001c0036008080e80011007800b4
:100610000000e000faff3a001201780001242100f6
:1006200003003700908f5400130036008080e800ec
:1006300011007800820f5000faff3a00e891800024
:10064000890f540001003100090478000800780087
:100650005b0007000000e00004003a00890f54002e
:10066000200032000804d100f5ff37000818780098
:100670001f000700d4ff37001101780092017800b5
:1006800064805100890f5000030031001200900077
:1006900080087800070037000900410080087800d2
:1006a0009201900013009800110078001288140045
:1006b00009097800910078000100e000050032008f
:1006c000110090000000e000020032000180e8000c
:1006d000010037000000eb00f09188000280e80084
:1006e000010037000000eb004f04be0000000600d0
:1006f0000000e000310032008080e90091027800c3
:10070000e38f52002d0036000508a3002b003a00ad
:10071000029280000200e00002003200828f50004e
:1007200004003100020878000192880016003700aa
:1007300003017800920190000300e0000200320003
:10074000818f5100faff3900120278000400410045
:10075000808f500019003900810f500003003a00cb
:100760000509420082007800070037000300e0001e
:100770000300320005804000808f51000f003900d7
:100780009300980011019800110190000200e00010
:100790000a00320011804000820f500007003a002a
:1007a000e02321000008eb00110090001101780007
:1007b0009008410010009000900098000000060092
:1007c0000000e0000300340004000700e10f4000d7
:1007d00001003a000000eb0000000600889fbe0008
:1007e00080047800f09280000000e00003003a00ee
:1007f000100007000000e0000a003500f0928000c1
:100800000900e00002003a0000047800060037000a
:100810000004780009004000060007000000e00026
:1008200001003d000084eb00080078004f04be008a
:1008300000000600800078000000e00004003a009c
:1008400000262100f09288000101780006003700a0
:100850000081eb0080e12100808f500002003e000b
:10086000f19288000001eb00020078000000060011
:10087000020007000400be00000006006022b8006d
:10088000060220000000d0008180d2000482d20045
:100890008582d2000000a0000202520083825a002a
:1008a000030031000202420083824a000000a100de
:1008b0000603e900f3ff3a0000000600889fbe002f
:1008c0008a9fbe00010578000100e00004003500a9
:1008d00008003c000000e000200032000500370066
:1008e00060001000e080180002003b0001f02c00c6
:1008f0001a0037000004be006011b8006b09200028
:100900000982cf00020039000882cf000441b00004
:10091000694252000e00320008003b0082817100e3
:10092000610164008904d1000884d3008b05e800cc
:100930000442e800f9ff3a000500370008044400cb
:1009400089844c008b05e9000442e900fbff3a0072
:10095000e40007000af0a70001f0a0004f05be0068
:100960004f04be0000000600889fbe008a9fbe00a4
:100970008c1f7800010107000801330003866c001a
:100980006450e100240032006420e10027003200be
:100990006150e100220032006120e10021003200bc
:1009a0008b854200eb07b1000134b800003ab80073
:1009b0000804420089844a00013ab8000030b800b7
:1009c0008880400009014a00040033000000400014
:1009d00081804800020149008b05e900c909dd005a
:1009e000830170000100320013002000c814de00f3
:1009f0004814dd004709de001200b200c808de001e
:100a000008847000b700070001f0a1000cf0a700f7
:100a100001f0a000ea0037006120e100ec003200a4
:100a20000801be000200be00f7ff37006150e10080
:100a3000fcff3a00e60037000081eb00e7003700da
:100a40000001be004e0107000470a70003f0a100e2
:100a50006509b100160032000d0035006828e1007c
:100a600006003500f0ff2f00f1ff27000300e00033
:100a700013003b00010028000000050000004000ba
:100a8000818048008502e900fcff3a000800370039
:100a9000f88f420002003c008000eb0000000500df
:100aa0008100d1000080d3008502e800fcff3a00fd
:100ab0000300e00002003b0060001000e08018002e
:100ac000000006000001eb00c4003700889fbe0054
:100ad0008a9fbe008c1f7800a8000700af0033007b
:100ae00003866c006450e1002e0032006420e100b7
:100af000330032006150e1002f0032006120e1003c
:100b00003100320085855500eb07b0000900200058
:100b100008042000050037000804440089844c00c4
:100b20000a0031000603430087834b000001530095
:100b300081815b00f8ff33000203be000800a000c3
:100b40000804440089844c00f6ff3900c639dd00f2
:100b50008301730001003200130020008904d100da
:100b60000884d3000998a300050032000800a700fc
:100b70000300a0008904d1000884d3008b05e8009d
:100b80008904d1000884d3000001eb000281d20067
:100b90005400070001f0a1000cf0a70001f0a00034
:100ba000870037006420e100890032000801be00a0
:100bb0000200be00f7ff37006120e1008400320030
:100bc0006000b800f3ff37000000200001f82700a4
:100bd000f0ff3700889fbe008a9fbe008c1f780000
:100be0000004be00e60007000478a30026003a00d7
:100bf0006120e1002500320009f8a30025003a0039
:100c00006420e10021003200f507b1000508a300cf
:100c10000200320000004000818048006044b800bb
:100c200003102000020020000000400081804800e6
:100c30000805440089854c000a0541008b85490060
:100c40000a0550008b855800030033000a00be00df
:100c500002047400838474008301d1000281d300f4
:100c6000830f7100f0ff3a008904d1000884d3009b
:100c70006001490082017800c1adde00fb07b000d1
:100c8000180007004e0037000960a0000800be00f1
:100c90004b0037001202200002408800f0ff2f00b6
:100ca000f1ff270046003700839f68000100e00045
:100cb00002003d0060001000e08018000300e0002a
:100cc00002003d0060011100e0811900ebfe070009
:100cd0004f00e00002003b0060001000e0801800c0
:100ce0000000060081002000618055000b003d00df
:100cf0000b00200061fe2f000100e1001d00340008
:100d000082817100610164008904d1000884d300ec
:100d10000000e800faff3a00710020006100640062
:100d2000030070000200600009003200610444000a
:100d3000e0844c000988a500050032008b05e8001e
:100d40006808e10002003a008904d1000884d30059
:100d5000f20f20000258e10005003d00c75ddd00f4
:100d6000f907b200898075000800780000000600cd
:100d70000bf827008b007800000005000004be007f
:100d80007f0007000003be000405be000200be0095
:100d90007b000700844f7500000006000200be00c3
:100da0006450e100050036006420e10002003600d6
:100db0000968a30001003a000800be000160a0001d
:100dc0004f0678004f05be004f04be00000006002d
:100dd000f0ff2f00f1ff2700f9ff3700889fbe00ca
:100de0008a9fbe008c9fbe00820578000004be0072
:100df000630007000800be006420e100070039001e
:100e000002003a00f1ff2700f0ff2f000160a00070
:100e10001202200002408800550037006120e100e6
:100e200003003a000b00a70001f823005000370030
:100e300001f0a10002002100936424006500070076
:100e40000800be0004003500b2fd2000930c240011
:100e5000620007000004be000005eb000b00a600c6
:100e60004f0dde0001f0a1000004be0032982f00fb
:100e700023ea2300bcfe07000001eb0003f023007f
:100e80000b00a70003f8230057000700ecfe070043
:100e90000000a7000a00a20088fe07000b00e00087
:100ea000030032000200200003f023004d00070081
:100eb00001f0a2000006be000200200093042400fe
:100ec000a9fe07000801be0047000700809fbe0082
:100ed0000c00be0022a22a00d3a72300a2fe070016
:100ee0004f01be00400007000004be0001f0a10059
:100ef0000200200003982300360007000800be000f
:100f0000190035000001be0097fe07000006be0074
:100f1000b2c52900e362230093fe070022222b00c2
:100f2000f3942b00300007000c01be008efe07007a
:100f3000e273280083c023002b0007000c01be00d1
:100f400089fe070042aa2a00a3e22b002600070020
:100f50000c01be0084fe07000801be0082fe0700ef
:100f60000801be00200007000a00a70001f0a2004f
:100f70004f06be004f05be004f04be000000060035
:100f8000c70ade00f107b200f50fb2000800320018
:100f9000e1cf4200020032000170a00024000500f1
:100fa000810f7000010032000408050044000500b4
:100fb000810f700002003a00140005008502e9006c
:100fc0000000400081c04800fcff3b000170a00011
:100fd00024000500140020006000370004002000f9
:100fe0007900370003f0a200889fbe008a9fbe00f0
:100ff0008c1f780061ff070068ff33006450e10038
:101000004f0032006420e1005200320003826c0085
:1010100007003b000905d0000306d000820f5400f2
:101020000c065d00020039000200320089017800e0
:10103000030678008582550004003d000003fd0092
:101040008103fd008502ea008b854200840f720057
:1010500002003b0060001000e08018006011b80042
:101060000005eb007a28e1000a003900060078004c
:10107000c75ddd00f707b200878075002d003700df
:10108000828171000a017800610560008180d100d1
:101090000080d3008502e900f9ff3b000604400010
:1010a0008784480002003b0060041400e0841c00b8
:1010b0000988a300070032008a81710082817100d3
:1010c000610164008904d1000884d3008b05e80025
:1010d000170037000978a30013003a000b00e00066
:1010e000130034008b05e9000804440089844c0097
:1010f0000a4474000978a3000d003a000b00e000d8
:10110000070034008b05e9000804440089844c0082
:1011100001003a000b0020000978a300f7ff32001d
:101120000001eb0002003700828171000a017800a3
:10113000ecfe07000cf0a70001f0a00020ff370034
:101140006420e10002003a00838f6c0020ff33002e
:101150000801be000200be0019ff3700889fbe00d4
:101160008a9fbe00841f780004ff07004f007800ac
:1011700011003300f0ff2f00838f6c0006003b004e
:10118000040565000a00a7000800370009f0a60062
:101190001000200008003700820f5400838f5c008d
:1011a000030039001000200001003e000000200074
:1011b00009f0a7000000ea004f05be004f04be0082
:1011c0000000e00000000600889fbe008a9fbe006d
:1011d0008c1f78004f26dd00e8fe0700effe33008d
:1011e0006120e100430032006250e10041003e0016
:1011f0003e0039006420e1003c00320005825500c9
:101200000f003b000402e80038003a00800f530052
:10121000818f5b00350034000800be0003f0a100a0
:1012200001f0a60003f0a0000cf0a7006eff07007d
:10123000e3fe37000603430087834b000c4646005d
:101240000005530081855b00020033000a03be00e5
:101250000c00a0000402e900f6ff3b0085057800c1
:101260000602430087824b0004003a006000b80089
:1012700009f0a70001f0a000d1fe370000025200e3
:1012800081825a000704e000040033000603430093
:1012900087834b008b05e900faff370009057800ca
:1012a0000604be000203be006011b8008dfe0700f8
:1012b000e00f5200e08f5a000700350002003c00aa
:1012c0000c08a300040032000601be0003f0a000d9
:1012d0000cf0a70044ff07000a85680001f0a10098
:1012e0000af0a70001f0a000b5fe37000800be001c
:1012f000b3fe3700100220000cf0a600004088006a
:04130000b3fe370001
:020000040000fa
:020000040005f5
:0457f400fffb0000b7
:020000040000fa
:020000040005f5
:0457f800ae1b0000e4
:020000040000fa
:020000040005f5
:0457fc007f3e0000ec
:020000040000fa
:10000800805201008052010080520100805201009c
:10001800805201008052010080520100805201008c
:10002800805201008052010080520100805201007c
:10003800805201008052010080520100805201006c
:10004800805201008052010080520100805201005c
:10005800805201008052010080520100805201004c
:10006800805201008052010080520100805201003c
:10007800805201008052010080520100805201002c
:10008800805201008052010080520100f06f000090
:10009800805201008052010080520100805201000c
:1000a80080520100805201008052010080520100fc
:1000b80080520100805201008052010080520100ec
:1000c80080520100805201008052010080520100dc
:1000d80080520100805201008052010080520100cc
:1000e80080520100805201008052010080520100bc
:1000f80080520100805201008052010080520100ac
:10010800805201008052010080520100805201009b
:10011800805201008052010080520100805201008b
:10012800805201008052010080520100805201007b
:10013800805201008052010080520100805201006b
:10014800805201008052010080520100805201005b
:10015800805201008052010080520100805201004b
:10016800805201008052010080520100805201003b
:10017800805201008052010080520100805201002b
:10018800805201008052010080520100805201001b
:10019800805201008052010080520100805201000b
:1001a80080520100805201008052010080520100fb
:1001b80080520100805201008052010080520100eb
:1001c80080520100805201008052010080520100db
:1001d80080520100805201008052010080520100cb
:1001e80080520100805201008052010080520100bb
:0801f800805201008052010059
:020000040000fa
:10020800805201008052010080520100805201009a
:10021800805201008052010080520100805201008a
:10022800805201008052010080520100805201007a
:10023800805201008052010080520100805201006a
:10024800805201008052010080520100805201005a
:10025800805201008052010080520100805201004a
:10026800805201008052010080520100805201003a
:10027800805201008052010080520100805201002a
:10028800805201008052010080520100f06f00008e
:10029800805201008052010080520100805201000a
:1002a80080520100805201008052010080520100fa
:1002b80080520100805201008052010080520100ea
:1002c80080520100805201008052010080520100da
:1002d80080520100805201008052010080520100ca
:1002e80080520100805201008052010080520100ba
:1002f80080520100805201008052010080520100aa
:100308008052010080520100805201008052010099
:100318008052010080520100805201008052010089
:100328008052010080520100805201008052010079
:100338008052010080520100805201008052010069
:100348008052010080520100805201008052010059
:100358008052010080520100805201008052010049
:100368008052010080520100805201008052010039
:100378008052010080520100805201008052010029
:100388008052010080520100805201008052010019
:100398008052010080520100805201008052010009
:1003a80080520100805201008052010080520100f9
:1003b80080520100805201008052010080520100e9
:1003c80080520100805201008052010080520100d9
:1003d80080520100805201008052010080520100c9
:1003e80080520100805201008052010080520100b9
:0803f800805201008052010057
:020000040000fa
:101304000000000020000000509f00000f000000bb
:1013140004740000020000000483000002000000c6
:10132400069200000200000007a100000200000075
:1013340007b000000200000007bf00000200000028
:1013440007ce00000200000004dd000002000000df
:1013540006ec00000200000006fb00000200000092
:10136400070a000003000000071900000300000042
:1013740004280000030000000437000003000000fc
:1013840004460000030000000755000003000000ad
:10139400076400000300000007730000030000005e
:1013a4000782000003000000079100000300000012
:1013b40007a000000300000007af000003000000c6
:1013c40007be00000300000007cd0000030000007a
:1013d40007dc00000300000007eb0000030000002e
:1013e40004fa0000030000000409000004000000e7
:1013f4000718000004000000072700000400000094
:101404000736000004000000074500000400000047
:1014140007540000040000000763000004000000fb
:1014240007720000040000000781000004000000af
:101434000790000004000000079f00000400000063
:1014440007ae00000400000007bd00000400000017
:1014540007cc00000400000004db000004000000ce
:1014640007ea00000400000007f90000040000007f
:101474000708000005000000071700000500000031
:1014840007260000050000000735000005000000e5
:101494000744000005000000075300000500000099
:1014a400076200000500000007710000050000004d
:1014b4000780000005000000078f00000500000001
:1014c400079e00000500000007ad000005000000b5
:1014d40007bc00000500000007cb00000500000069
:1014e40007da00000500000004e900000500000020
:1014f40007f80000050000000407000006000000d3
:101504000716000006000000072500000600000082
:101514000734000006000000074300000600000036
:1015240007520000060000000761000006000000ea
:101534000770000006000000077f0000060000009e
:10154400078e000006000000079d00000600000052
:1015540007ac00000600000004bb00000600000009
:1015640005ca00000600000007d9000006000000bc
:1015740004e800000600000007f700000600000071
:101584000706000007000000071500000700000020
:1015940007240000070000000733000007000000d4
:1015a4000742000007000000075100000700000088
:1015b4000760000007000000076f0000070000003c
:1015c400077e000007000000078d000007000000f0
:1015d400079c00000700000007ab000007000000a4
:1015e40007ba0000070000000ec900000700000051
:1015f4000ee70000070000000e05000008000000d0
:101604000e230000080000000e4100000800000046
:101614000e5f0000080000000e7d000008000000be
:101624000e9b0000080000000eb900000800000036
:101634000ed70000080000000ef5000008000000ae
:101644000e130000090000000e3100000900000024
:101654000e4f0000090000000e6d0000090000009c
:101664000e8b0000090000000ea900000900000014
:101674000ec70000090000000ee50000090000008c
:101684000e0300000a0000000e2100000a00000002
:101694000e3f00000a0000000e5d00000a0000007a
:1016a4000e7b00000a0000000e9900000a000000f2
:1016b4000eb700000a0000000ed500000a0000006a
:1016c4000ef300000a0000000e1100000b000000e1
:1016d4000e2f00000b0000000e4d00000b00000058
:1016e4000e6b00000b0000000e8900000b000000d0
:1016f4000ea700000b0000000ec500000b00000048
:101704000ee300000b0000000e0100000c000000be
:101714000e1f00000c0000000e3d00000c00000035
:101724000e5b00000c0000000e7900000c000000ad
:101734000e9700000c0000000eb500000c00000025
:101744000ed300000c0000000ef100000c0000009d
:101754000e0f00000d0000000e2d00000d00000013
:101764000e4b00000d0000000e6900000d0000008b
:101774000e8700000d0000000ea500000d00000003
:101784000ec300000d0000000ee100000d0000007b
:101794000eff00000d0000000e1d00000e000000f2
:1017a4000e3b00000e0000000e5900000e00000069
:1017b4000e7700000e0000000e9500000e000000e1
:1017c4000eb300000e0000000ed100000e00000059
:1017d4000eef00000e0000000e0d00000f000000d0
:1017e4000e2b00000f0000000000000000000000ad
:1017f40000000000000000000000000000000000e5
:1018040000000000000000000202000002020000cc
:1018140002020000020200000000000002020000b8
:10182400000000001b12000009000000000000007e
:1018340000000000000000000000000000000000a4
:101844000000000012120000123f000012120000fb
:10185400123f000009090000090000000000000018
:10186400000400001e250000050500000e14000001
:1018740024250000251e00000400000000000000d4
:1018840022250000151500000d0a0000142c00008c
:101894002a2a0000291100000000000000000000b6
:1018a4000c120000120a00000406000029110000b6
:1018b400112e0000000000000006000004020000d9
:1018c4000000000000000000000000000000000014
:1018d40000000000000000000010000008040000e8
:1018e40004020000020200000202000004040000de
:1018f40008100000000000000204000008080000b6
:10190400101000001010000010080000080400006f
:101914000200000000000000000800002a1c000073
:10192400081c00002a08000000000000000000005d
:10193400000000000000000008080000083e00004d
:10194400080800000800000000000000000000007b
:101954000000000000000000000000000000000083
:101964000006000006040000020000000000000061
:10197400000000000000000000070000000000005c
:101984000000000000000000000000000000000053
:101994000000000000000000000000000000000043
:1019a40006060000000000000000000020200000e7
:1019b40010100000080800000404000002020000e7
:1019c4000101000000000000000000000c120000f3
:1019d400212100002121000021210000120c00001f
:1019e4000000000000000000000800000c0a0000d5
:1019f4000808000008080000080800003e00000075
:101a040000000000000000001e2100002120000052
:101a14001008000004020000213f00000000000044
:101a240000000000001e000021210000100c000036
:101a340010200000212100001e0000000000000012
:101a4400000000001018000014140000121200001e
:101a5400113f0000103800000000000000000000ea
:101a6400003e0000020200001a26000020200000b0
:101a7400222200001c000000000000000000000002
:101a84001c220000010100001d2300002121000090
:101a9400221c00000000000000000000003f0000c5
:101aa40021200000101000000808000008080000b1
:101ab4000800000000000000000000001e210000db
:101ac400211200000c12000021210000211e000040
:101ad4000000000000000000000e000011210000c2
:101ae400213100002e200000211100000e00000012
:101af40000000000000000000000000006060000d6
:101b040000000000000600000600000000000000c5
:101b140000000000000000000006000006000000b5
:101b2400000000000606000004020000000000009f
:101b34000000000020100000080400000201000062
:101b44000204000008100000200000000000000053
:101b540000000000000000003f000000003f000003
:101b64000000000000000000000000000000000071
:101b7400010200000408000010200000100800000a
:101b84000402000001000000000000001e2100000b
:101b940021210000100800000804000004000000d7
:101ba4000404000000000000001c0000225a000091
:101bb4005553000053530000532b0000152200001e
:101bc4001c00000000000000000c00000c0c0000d1
:101bd40012120000123f0000212100003300000017
:101be40000000000000000001f220000222200006c
:101bf4001e22000022220000221f0000000000001c
:101c040000000000002c000032210000010100004f
:101c140001010000212200001c000000000000005f
:101c2400000000000f120000222200002222000007
:101c340022220000120f000000000000000000003b
:101c4400003f000022020000121e000012020000e9
:101c5400022200003f00000000000000000000001d
:101c64003f220000021200001e12000002020000c7
:101c7400020700000000000000000000002c00002b
:101c84003221000001010000312100002132000056
:101c94002c0000000000000000000000772200007b
:101ca400222200003e2200002222000022770000af
:101cb4000000000000000000000700000202000015
:101cc40002020000020200000202000007000000fd
:101cd40000000000000000003c1000001010000094
:101ce4001010000010110000110e00000000000090
:101cf4000000000000370000121200000a0e00006d
:101d04000a12000012220000770000000000000008
:101d140000000000070200000202000002020000ae
:101d240002220000223f000000000000000000002a
:101d34000022000022220000363600002a2a000079
:101d44002a220000730000000000000000000000d0
:101d5400312300002325000025290000293100003b
:101d6400312300000000000000000000001e0000fd
:101d74002121000021210000212100002121000057
:101d84001e00000000000000000000001f220000f0
:101d9400222200001e0200000202000002070000ce
:101da4000000000000000000001e000021210000cf
:101db40021210000212100002f3100001e200000fd
:101dc40000000000000000001f220000222200008a
:101dd4001e0a00001212000022270000000000006a
:101de40000000000001e0000212100000106000088
:101df40018200000212100001e0000000000000047
:101e0400000000007f4900000808000008080000e6
:101e140008080000081c000000000000000000008a
:101e2400007700002222000022220000222200006b
:101e3400222200001c00000000000000000000003e
:101e44006322000022220000141400001408000081
:101e5400080800000000000000000000006300000b
:101e6400414900004955000055220000222200008b
:101e740022000000000000000000000063220000b7
:101e84001414000008080000141400002263000069
:101e94000000000000000000006300002222000097
:101ea4001414000008080000080800001c000000ca
:101eb40000000000000000003f210000201000008e
:101ec4000804000002210000213f0000000000007f
:101ed40000000000070100000101000001010000f2
:101ee40001010000010100000107000000000000e2
:101ef40000000000020200000404000008080000c2
:101f0400101000002020000000000000000000006d
:101f1400070400000404000004040000040400009a
:101f2400040400000407000000000000081400007e
:101f3400220000000000000000000000000000007b
:101f4400000000000000000000000000000000008d
:101f5400000000000000000000000000000000007d
:101f6400000000003f000000000000000c0800001a
:101f7400100000000000000000000000000000004d
:101f8400000000000000000000000000000000004d
:101f94000e110000101e0000111100002e000000a0
:101fa400000000000001000001010000010d00001c
:101fb4001321000021210000130d00000000000087
:101fc4000000000000000000000000001c220000cf
:101fd40001010000012200001c00000000000000bc
:101fe4000020000020200000202c000032210000ee
:101ff40021210000322c000000000000000000003d
:1020040000000000000000001e210000213f00002d
:10201400012100001e000000000000000018000064
:1020240024040000041f0000040400000404000051
:10203400040e00000000000000000000000000008a
:10204400000000006c120000120c0000021e0000d0
:10205400212100001e000000000300000202000015
:10206400021a00002622000022220000227700002b
:10207400000000000000000000020000000000005a
:102084000302000002020000020200000700000038
:10209400000000000000000008080000000c000020
:1020a40008080000080800000809000009060000ec
:1020b40000000000030200000202000032120000cf
:1020c4000a0600000a1200003700000000000000a9
:1020d40000000000030200000202000002020000ef
:1020e40002020000020700000000000000000000df
:1020f4000000000000000000152a00002a2a000049
:102104002a2a00002a00000000000000000000004d
:1021140000000000001b0000262200002222000014
:102124002277000000000000000000000000000012
:10213400000000000c120000212100002112000008
:102144000c0000000000000000000000000000007f
:10215400001b00002622000022220000261a000094
:102164000207000000000000000000000000000062
:10217400361900001111000011190000161000009a
:10218400380000000000000000000000001b0000f8
:102194002602000002020000020700000000000006
:1021a4000000000000000000000000001c220000ed
:1021b400021c0000202200001c000000000000009f
:1021c4000000000000040000041f000004040000dc
:1021d40004040000241800000000000000000000b7
:1021e4000000000000000000332200002222000052
:1021f400223200006c00000000000000000000001b
:1022040000000000007700002222000014140000e7
:1022140008080000000000000000000000000000aa
:10222400000000006b2a00002a2a00001414000099
:102234001400000000000000000000000000000086
:102244000077000022140000081400002277000028
:10225400000000000000000000000000000000007a
:1022640033220000221400001408000008040000b7
:10227400030000000000000000000000003f000018
:102284002110000008040000223f000000000000ac
:10229400000000000000000000000000000000003a
:1022a400000000000000000000c6000018c6000086
:1022b4001800000000000000000000000000000002
:1022c40000000000000000000000000000200000ea
:1022d4000044000004c40000048800000408000056
:1022e40002100000021000000120000001c00000e4
:1022f40000c00000002000000118000006060000d5
:102304001800000000000000000800000088000021
:1023140008280000092400000924000008460000e1
:10232400044500000484000002040000018400004d
:1023340002440000042400000814000010000000ff
:1023440000000000008800000008000001080000f0
:1023540001e400000f040000002600000445000012
:10236400044400000484000002840000020400000d
:102374000104000009f400001f0000000000000038
:10238400000800000108000009f800001f04000014
:1023940001e400000f26000009e500000f240000fe
:1023a400094400000184000000840000016400006e
:1023b400061c0000180000000000000000080000d7
:1023c400021000000210000001fe00000f40000097
:1023d4000040000008ff00001f40000000c0000093
:1023e4000020000001100000020c00001c0300008b
:1023f40008000000000000000040000010ff000082
:10240400100800001248000012f8000012440000f6
:1024140012460000122900001228000012100000c9
:1024240010080000120400001c0300000800000053
:10243400000000000010000010120000107e0000d8
:10244400121100001210000012ff00001210000010
:1024540012fe00001292000012920000129200007c
:1024640010d200001c100000080000000000000052
:1024740000100000023e0000020000000200000004
:1024840002a000001f7f00001208000012040000d8
:102494001224000012720000114f0000118200008b
:1024a4001c6000000800000000000000000800009c
:1024b4000190000000fc00000744000004fc000040
:1024c4000744000004fc000007440000044000002e
:1024d40000ff00001f40000000400000004000001a
:1024e40000000000000000000040000000c00000e8
:1024f4000020000001100000020c00001cf300008a
:102504000b0000000008000004f800000f080000a1
:102514000408000004f8000007080000040000009c
:1025240000000000002000000020000002f0000075
:10253400071000000228000001c40000004200004f
:1025440000f000000f1c0000081300000810000039
:1025540008f000000f100000080000000000000058
:102564000020000000700000001e00001f1000008a
:1025740011ff00001110000011300000115800007c
:102584001194000011120000111100001f1000002e
:102594001110000000000000000000000002000014
:1025a40008fe00001f0200000802000008f20000fc
:1025b400091200000912000009f2000009120000cb
:1025c400090200000802000008fe00000f020000db
:1025d400080000000000000000fe00001f020000d0
:1025e4001022000012e200001332000011ca0000a1
:1025f40010220000115a000016820000116200002f
:10260400108200001102000010fe00001f000000f4
:10261400000000000004000004fc00000f0400009f
:1026240000fa00000709000004f800000708000091
:1026340004f800000710000000f80000071600006e
:1026440002e00000011f00001e0000000000000066
:10265400004000000040000004e000000f300000d3
:10266400044c00000380000000f00000088c00000f
:102674001f60000008580000048000000280000071
:10268400017c0000000000000000000000c0000009
:102694000082000010fe00001f0200001001000074
:1026a40008fc00000f800000008800000088000083
:1026b4000f8800000094000000a2000000c1000088
:1026c4001f000000000000000000000004100000d3
:1026d400043f000004d000001f100000041200009a
:1026e400045400000488000004980000042400003e
:1026f40004a2000004010000070000000200000022
:1027040000000000004c00000c50000002fe00001d
:102714001f02000010f900000b08000002f800007e
:102724000340000000fc00000f44000008440000c7
:10273400084400000e4400000400000000000000f3
:1027440000c000000084000008fc00001f240000fa
:1027540002fc00000f24000002e400000304000057
:1027640000f400000724000002c20000013200004f
:10277400060d00001800000000000000000000002a
:1027840002fc00000710000001100000011000000e
:102794000110000001ff00001f10000001100000e4
:1027a400010800000108000001040000010300000a
:1027b400010000000000000000000000050000000f
:1027c4000900000009ff00001f00000001200000b4
:1027d400017e0000010800000108000001680000fb
:1027e4001218000014070000180200001000000076
:1027f400000000000008000000c800001f080000de
:10280400103f0000100800001028000010d800003d
:102814001f0f0000100a000010080000100900003b
:1028240010ce00001f040000100000000000000093
:102834000008000004e800000f48000004bf000086
:1028440002480000052800001818000001ef0000ed
:102854000f0a000001f800001f090000010e00002b
:102864000104000001000000000000000008000056
:102874000308000002e800001f3f000010080000e9
:102884000928000001f800001f8f0000048a0000de
:1028940004c800000409000003ce00000434000052
:1028a40018000000000000000008000003080000f9
:1028b40002e800001f3f0000108800000498000098
:1028c400084c0000102b000010c800000f08000086
:1028d40002090000020e000002e400001f000000d4
:1028e40000000000008800000888000008c80000fc
:1028f4001fbf00000808000000d800001f4c0000a3
:10290400124b000012c800001f48000012490000ca
:1029140012ce00001f440000100000000000000060
:1029240000490000012a000001080000097f00009e
:102934001f1a000009a9000009480000097f0000cf
:10294400092400000a2600000a180000042c0000d4
:102954001ac3000011000000000000000004000081
:1029640004fc00000f040000040400000404000040
:102974000404000004fc0000070400000404000038
:10298400040400000404000004fc00000704000028
:102994000400000000000000000000000409000022
:1029a400041f000004e900001f090000040f0000d8
:1029b400044900000489000004890000040f000099
:1029c4000489000004000000070000000200000069
:1029d400000000000000000008ff00001f4000008d
:1029e40000fc00000744000004fc00000744000051
:1029f40004fc000007440000045000000020000014
:102a040000d80000010700001e00000000000000c4
:102a1400002200001f22000011ff0000112200000c
:102a2400113e00001f220000113e00001122000090
:102a34001fff0000110000001124000011c200005b
:102a44001c4100000800000000000000001000000d
:102a540002f000000718000001e60000003000004a
:102a6400030f00001c40000000ff00001f40000096
:102a740000480000024400000c720000182100000d
:102a840010000000000000000024000008e4000022
:102a94001f24000000ff00001f2400000224000087
:102aa40002ac00000f3600000225000002e4000022
:102ab4001f2400000024000008e400001f000000a0
:102ac400000000000084000004e400001f840000f3
:102ad40004df00000f44000008cc00000f54000085
:102ae40008c600000f05000001f400001f84000068
:102af400024400001c340000080000000000000034
:102b04000000000004fe00000f80000000800000b0
:102b14000080000000880000008800000f8800008a
:102b24000088000000880000008800000088000081
:102b340008ff00001f0000000000000000820000e9
:102b44000104000001e000001f490000042a000005
:102b54000998000014c400000b0400000187000061
:102b6400116400000a5c000004c400000964000051
:102b74001000000000000000000800000108000030
:102b8400010800000108000009f800001f08000007
:102b94000008000000f8000003080000020800001c
:102ba4000204000002020000020100000200000012
:102bb400000000000004000008fc00001f440000a6
:102bc4000844000008fc00000f4400000844000012
:102bd40008fc00000f440000084400000844000002
:102be400094200000e410000040000000000000043
:102bf400002000000021000002ff00000721000067
:102c04000221000002ff0000032100000221000055
:102c140002ff0000032100000a2000000820000039
:102c240018c000000f000000000000000040000079
:102c340000f80000074800000488000004ff0000ba
:102c44001f48000004840000040200000701000083
:102c540002fc00000f2400000924000009ff00000a
:102c64001f0000000000000000040000017c0000c0
:102c74001f8a00000451000008b00000010c00008d
:102c84000603000018f800000120000004440000be
:102c9400044800000208000001ff00001f000000bb
:102ca400000000000044000008c400001f420000af
:102cb400085a000008c900000f470000084400003b
:102cc400085a000008c700000f5000000848000020
:102cd4000847000008f200001f0000000000000088
:102ce400000400000104000001820000025a0000f8
:102cf4000429000008d700001704000000fa0000af
:102d04001f070000011000000188000008e7000010
:102d14001742000010000000000000000004000042
:102d24000324000002e200001f3a000010e9000042
:102d34001f27000000e400001f7a00001567000050
:102d440015f000001f68000015570000154a000028
:102d5400180000000000000000fe00000f12000038
:102d640009fe00000f40000000ff00001f400000ab
:102d740000f800000708000004f80000070800003d
:102d840004f800000708000004ff00001f00000012
:102d940000000000006000000024000004fc0000ab
:102da4000f0400000404000004fc000007040000f9
:102db4000404000004fc00000704000004040000f4
:102dc40004fc0000070400000400000000000000f0
:102dd400004000000040000004fe00000f4000001e
:102de40000f800000740000000ff00001fa00000e2
:102df40008900000041c000003930000025000002f
:102e04000438000018000000000000000002000068
:102e1400020c0000020800000200000002ef0000a3
:102e24001f08000002080000020800000208000059
:102e34000228000002180000020c0000020000003a
:102e4400020000000000000000820000078c000067
:102e54000488000004800000044700001c240000d3
:102e640000c400000f840000048400000414000067
:102e7400030e000003c400001c3000000800000022
:102e8400000000000001000001c600000f04000063
:102e940001f000001f470000108400000a24000015
:102ea4000244000002e400001f140000020e0000af
:102eb40005c40000183000001000000000000000ed
:102ec4000010000001f0000003080000018400006d
:102ed40000fe000007050000044400000444000054
:102ee40004440000044400000444000004300000d2
:102ef400030f00001c000000000000000008000098
:102f0400048800000f3f00000404000004020000d5
:102f1400060a000009bf00001008000000c80000f5
:102f24000f380000020f0000020a000002e800004f
:102f34001f0000000000000000100000011000004d
:102f440005fe00000910000001ff00001f0800003a
:102f5400017e000009140000097e00000510000035
:102f6400127800001617000019d2000010000000ab
:102f740000000000000800000308000002ff000039
:102f84001f84000004820000084a0000103f000073
:102f9400048800000408000005380000020f000047
:102fa400038a00001c480000080000000000000024
:102fb400008800000f88000008bf0000088400009b
:102fc4000f02000000ca00001fbf000008880000b4
:102fd4000f88000008b800000f8f000018ca000016
:102fe4000f080000080000000000000000010000bd
:102ff4000ce60000032400000020000000e00000b4
:103004000faf000008a800000828000005280000f1
:103014000228000005cc00001813000000e10000a5
:103024001f00000000000000008100000486000072
:103034000484000004e000001f800000048f0000ee
:1030440004e800001f880000048800000448000011
:10305400042c00000413000000e100001f00000025
:1030640000000000004100000146000001c400000f
:103074000f2000000100000001ff00001f88000075
:10308400028800000288000012480000122c000090
:103094001c13000000e100001f00000000000000fd
:1030a4000000000007fc00000040000000ff0000da
:1030b4001f44000004fc00000744000004fc00005e
:1030c400074400000440000000fc0000074000002a
:1030d40000ff00001f0000000000000000020000cc
:1030e40008c200001f1e000009010000091e0000a4
:1030f4000904000009c400000f9f000008840000b8
:103104000884000008940000088e000008e4000011
:103114001f0000000000000000e200001f04000087
:103124001001000010f9000011090000110900004d
:1031340011f90000110900001109000011f9000043
:1031440011090000130100001c0100000800000028
:1031540000000000006000000040000008ff0000c4
:103164001f0800000210000001e000000018000029
:10317400030700001c1000000210000002100000f1
:10318400020c000002030000020000000000000026
:103194000000000000000000828900000000000020
:1031a400200000001fff0000110000000444000084
:1031b400030000000555000003000000076600003e
:1031c40003000000087700000300000008880000e6
:1031d40003000000089900000300000008aa000092
:1031e4000300000004bb00000300000007cc000043
:1031f4000300000007dd00000300000008ee0000eb
:103204000300000008ff0000030000000410000099
:103214000400000005210000040000000432000046
:1032240004000000084300000400000008540000eb
:103234000400000008650000040000000876000097
:103244000400000008870000040000000898000043
:103254000400000008a900000400000008ba0000ef
:103264000400000008cb00000400000008dc00009b
:103274000400000008ed00000400000004fe00004b
:1032840004000000040f00000500000008200000f6
:10329400050000000831000005000000084200009d
:1032a4000500000008530000050000000864000049
:1032b40005000000087500000500000008860000f5
:1032c40005000000089700000500000008a80000a1
:1032d4000500000008b900000500000008ca00004d
:1032e4000500000008db00000500000008ec0000f9
:1032f4000500000005fd000005000000080e0000a8
:1033040006000000081f000006000000083000004e
:1033140006000000084100000600000008520000fa
:1033240006000000086300000600000008740000a6
:103334000600000008850000060000000896000052
:103344000600000008a700000600000008b80000fe
:103354000600000008c900000600000008da0000aa
:103364000600000008eb00000600000008fc000056
:1033740006000000080d000007000000081e000001
:1033840007000000052f00000700000008400000af
:10339400070000000551000007000000086200005b
:1033a4000700000008730000070000000884000004
:1033b40007000000089500000700000008a60000b0
:1033c4000700000008b700000700000008c800005c
:1033d4000700000008d900000700000008ea000008
:1033e4000700000008fb000007000000080c0000b4
:1033f40008000000051d000008000000062e000063
:1034040008000000083f000008000000055000000c
:1034140008000000086100000800000008720000b5
:103424000800000008830000080000000894000061
:103434000800000008a500000800000008b600000d
:103444000800000008c700000800000008d80000b9
:103454000800000008e900000800000008fa000065
:1034640008000000080b000009000000081c000010
:1034740009000000082d000009000000083e0000bb
:1034840009000000104f0000090000001071000046
:1034940009000000109300000900000010b50000ae
:1034a4000900000010d700000900000010f9000016
:1034b40009000000101b00000a000000103d00007d
:1034c4000a000000105f00000a00000010810000e4
:1034d4000a00000010a300000a00000010c500004c
:1034e4000a00000010e700000a00000010090000b4
:1034f4000b000000102b00000b000000104d00001a
:103504000b000000106f00000b0000001091000081
:103514000b00000010b300000b00000010d50000e9
:103524000b00000010f700000b0000001019000051
:103534000c000000103b00000c000000105d0000b7
:103544000c000000107f00000c00000010a100001f
:103554000c00000010c300000c00000010e5000087
:103564000c000000100700000d00000010290000ee
:103574000d000000104b00000d000000106d000055
:103584000d000000108f00000d00000010b10000bd
:103594000d00000010d300000d00000010f5000025
:1035a4000d000000101700000e000000103900008c
:1035b4000e000000105b00000e000000107d0000f3
:1035c4000e000000109f00000e00000010c100005b
:1035d4000e00000010e300000e00000010050000c3
:1035e4000f000000102700000f0000001049000029
:1035f4000f000000106b00000f000000108d000091
:103604000f00000010af00000f00000010d10000f8
:103614000f00000010f300000f0000001015000060
:1036240010000000103700001000000010590000c6
:1036340010000000107b000010000000109d00002e
:103644001000000010bf00001000000010e1000096
:1036540010000000100300001100000010250000fd
:103664001100000010470000110000001069000064
:1036740011000000108b00001100000010ad0000cc
:103684001100000010cf00001100000010f1000034
:10369400110000001013000012000000103500009b
:1036a4001200000010570000120000001079000002
:1036b40012000000109b00001200000010bd00006a
:1036c4001200000010df00001200000010010000d2
:1036d4001300000010230000130000001045000038
:1036e40013000000106700001300000010890000a0
:1036f4001300000010ab00001300000010cd000008
:103704001300000010ef000013000000101100006f
:1037140014000000103300001400000010550000d5
:10372400140000001077000014000000109900003d
:103734001400000010bb00001400000010dd0000a5
:103744001400000010ff000014000000102100000d
:103754001500000010430000150000001065000073
:1037640015000000108700001500000010a90000db
:103774001500000010cb00001500000010ed000043
:1037840015000000100f00001600000010310000aa
:103794001600000010530000160000001075000011
:1037a40016000000109700001600000010b9000079
:1037b4001600000010db00001600000010fd0000e1
:1037c40016000000101f0000170000001041000048
:1037d40017000000106300001700000010850000af
:1037e4001700000010a700001700000010c9000017
:1037f4001700000010eb000017000000100d00007f
:1038040018000000102f00001800000010510000e4
:10381400180000001073000018000000109500004c
:10382400180000000000000000000000000000007c
:103834000000000000000000000000000000000084
:103844000000000000000000040400000404000064
:10385400040400000404000004040000000000004c
:1038640004040000000000000036000024120000e0
:103874000000000000000000000000000000000044
:1038840000000000000000000000000048480000a4
:1038940048fe00002424000024240000247f0000ab
:1038a40012120000120000000000000000080000d6
:1038b4003e490000494900000a1c00002848000055
:1038c40049490000493e00000800000000000000d3
:1038d40046490000292900001916000008080000c4
:1038e400344c00004a4a0000493100000000000046
:1038f400000c000012120000120a00000474000000
:103904002a2a000029110000314e000000000000a6
:103914000000000006040000020000000000000097
:103924000000000000000000000000000000000093
:103934000000000020100000080400000402000041
:103944000202000002020000020400000408000059
:103954001020000000020000040800001010000005
:103964002020000020200000202000001010000073
:10397400080400000200000000000000000800002d
:10398400084900002a1c00002a4900000808000019
:103994000000000000000000000000000000000023
:1039a40008080000080800007f080000080800005c
:1039b40008080000000000000000000000000000f3
:1039c40000000000000000000000000000000000f3
:1039d40000060000060400000200000000000000d1
:1039e4000000000000000000000000000f000000c4
:1039f40000000000000000000000000000000000c3
:103a040000000000000000000000000000000000b2
:103a14000000000000000000060600000000000096
:103a240000000000004000004020000020100000c2
:103a34001008000008040000040200000200000056
:103a44000000000000180000244200004242000070
:103a5400424200004242000042420000241800009a
:103a64000000000000000000080c00000a0800002c
:103a74000808000008080000080800000808000002
:103a84003e00000000000000001c00002241000075
:103a940041400000402000001008000004420000e3
:103aa400417f000000000000000000001c22000014
:103ab40041410000201c0000204000004041000063
:103ac400412200001c000000000000000020000053
:103ad40030300000282800002424000022210000a7
:103ae4007f200000207000000000000000000000a3
:103af4003f01000001010000011d000023400000ff
:103b040040400000412200001c00000000000000b2
:103b1400003c000042010000010100001d230000e0
:103b24004141000041410000221c0000000000004f
:103b3400000000007f410000412000002020000020
:103b44001010000010080000080800000800000021
:103b540000000000001c0000224100004141000060
:103b6400221c00002241000041410000221c0000f0
:103b740000000000000000001c2200004141000081
:103b840041410000625c000040400000412200000e
:103b94001c00000000000000000000000000000005
:103ba40006060000000000000000000006060000f9
:103bb4000000000000000000000000000000000001
:103bc40000060000060000000000000000000000e5
:103bd40006060000040200000000000000000000cf
:103be4004020000010080000040200000102000050
:103bf4000408000010200000400000000000000045
:103c04000000000000000000007f00000000000031
:103c14007f00000000000000000000000000000021
:103c24000000000001020000040800001020000051
:103c34004020000010080000040200000100000001
:103c4400000000003c42000042420000402000000e
:103c54001008000008000000001800001800000010
:103c640000000000001c0000224100005965000013
:103c7400656500006555000069010000423c0000d4
:103c840000000000000000000808000014140000f8
:103c940014220000222200003e41000041410000a5
:103ca4006300000000000000001f0000224200002a
:103cb40042420000221e0000224200004242000054
:103cc400221f000000000000000000005c620000f1
:103cd4004201000001010000010100000141000057
:103ce400422200001c00000000000000001f000031
:103cf40022220000424200004242000042420000f0
:103d040042220000221f000000000000000000000a
:103d14007f42000002020000022200003e22000056
:103d240002020000424200007f0000000000000088
:103d3400007f00004242000002020000223e000018
:103d4400220200000202000002070000000000003e
:103d5400000000005864000042020000010100005d
:103d6400017100004141000042660000580000005b
:103d74000000000000e70000424200004242000050
:103d8400427e0000424200004242000042e700003e
:103d940000000000000000000e0400000404000005
:103da40004040000040400000404000004040000ef
:103db4000e00000000000000007800002020000039
:103dc40020200000202000002020000020220000ed
:103dd400221c000000000000000000006722000018
:103de400121200000a0600000a0a00001212000063
:103df400222200006700000000000000000700000d
:103e0400020200000202000002020000020200009e
:103e140002420000427f0000000000000000000099
:103e24004141000063550000555500004949000018
:103e3400494100004141000063000000000000000f
:103e44000061000041430000434500004549000073
:103e5400495100005161000061430000000000006e
:103e6400000000001c22000041410000414100000c
:103e74004141000041410000412200001c000000bb
:103e840000000000001f0000224200004242000027
:103e9400422200001e02000002020000020700008d
:103ea40000000000000000001c220000224100006d
:103eb40041410000414100005d220000221c00003d
:103ec4001060000000000000001f000022420000fb
:103ed40042420000221e00001212000022220000b2
:103ee40042c7000000000000000000002c32000067
:103ef40021010000010600001820000040410000dc
:103f0400412300001d00000000000000007f0000ad
:103f140049490000080800000808000008080000db
:103f240008080000083e0000000000000000000037
:103f3400e7420000424200004242000042420000c8
:103f440042420000424200003c0000000000000029
:103f540000630000414100004141000022220000b2
:103f640022140000141400000808000000000000df
:103f7400000000006341000041490000494900007d
:103f8400495500005555000022220000220000007f
:103f9400000000000077000022220000141400003a
:103fa40014080000141400001422000022730000fe
:103fb40000000000000000006341000041220000f6
:103fc400221400001408000008080000080800007b
:103fd4001c00000000000000007f00002121000000
:103fe4001010000008080000040400000242000051
:103ff400417f000000000000000000000e020000ed
:10400400020200000202000002020000020200009c
:1040140002020000020e0000000000000001000087
:10402400010200000204000004080000081000005f
:1040340010200000204000004000000000000000ac
:104044000e08000008080000080800000808000026
:104054000808000008080000080e00000000000026
:1040640008140000224100000000000000000000cd
:10407400000000000000000000000000000000003c
:10408400000000000000000000000000000000002c
:10409400000000000000000000000000000000001c
:1040a4007f000000000000000c0800001020000049
:1040b40000000000000000000000000000000000fc
:1040c40000000000000000000000000000000000ec
:1040d4003c420000407c000042410000416100007d
:1040e400de000000000000000003000002020000e7
:1040f400021e000022420000424200004242000030
:10410400261a00000000000000000000000000006b
:10411400000000005c620000410100000101000099
:10412400014200003c0000000000000000300000dc
:1041340020200000203c000022210000212100005a
:1041440021210000326c000000000000000000008b
:1041540000000000000000001c220000414100009b
:104164007f010000014200003c000000000000004c
:104174000038000044040000043f00000404000070
:104184000404000004040000040e00000000000009
:10419400000000000000000000000000dc2200001d
:1041a400222200001c0200001e21000041410000e8
:1041b4003e0000000003000002020000023a00007a
:1041c40046420000424200004242000042e7000032
:1041d40000000000000000000404000000000000d3
:1041e40006040000040400000404000004040000a9
:1041f4000e0000000000000000180000180000007d
:104204000018000010100000101000001010000032
:1042140010110000110e0000000000000302000055
:104224000202000072220000120a00000e120000b6
:1042340022420000e7000000000000000006000029
:10424400040400000404000004040000040400004a
:1042540004040000040e0000000000000000000040
:104264000000000000000000354b00004949000038
:1042740049490000494900004900000000000000cd
:104284000000000000000000001b000026220000c7
:1042940022220000222200002277000000000000f9
:1042a4000000000000000000000000001c220000cc
:1042b4004141000041410000412200001c00000077
:1042c400000000000000000000000000001f0000cb
:1042d4002242000042420000422200001e0200006e
:1042e40002070000000000000000000000000000c1
:1042f4007c2200002121000021210000223c00003a
:1043040020200000700000000000000000000000f9
:10431400003600004c4400000404000004040000c3
:10432400040e000000000000000000000000000077
:10433400000000003c420000020c0000304000007d
:10434400424200003c0000000000000000000000a9
:1043540000040000043f0000040400000404000002
:104364000444000044380000000000000000000085
:104374000000000000000000634200004242000010
:1043840042420000426200005c00000000000000a5
:104394000000000000000000006300004141000034
:1043a400222200001414000008080000000000008d
:1043b4000000000000000000000000004949000067
:1043c400495500005555000022220000220000003b
:1043d4000000000000000000000000000077000062
:1043e40022140000140800001414000022770000b6
:1043f40000000000000000000000000000000000b9
:104404006742000044440000282800001010000007
:104414001009000006000000000000000000000079
:10442400007f00004120000010080000040200008a
:10443400417f0000000000000000000000000000b8
:104444000000000000000000000000000000000068
:1044540000000000008c0000618c0000610000007e
:104464000000000000000000000000000000000048
:104474000000000000000000000000000000000038
:104484000080000000c0000001e0000003f0000014
:104494000780000000800000008000000080000011
:1044a4000080000000800000008000000080000008
:1044b4000080000000800000008000000000000078
:1044c40000800000008000000080000000800000e8
:1044d40000800000008000000080000000800000d8
:1044e40000800000008000000080000000f0000058
:1044f40007e0000003c0000001800000000000008d
:1045040000000000000000000000000000000000a7
:104514000000000000000000000000000080000017
:104524000140000002400000028000000100000081
:104534000000000000000000000000000000000077
:104544000000000000000000000000000000000067
:1045540048000000280000002400000014000000af
:10456400120000000a000000090000000900000019
:104574000a000000120000002400000024000000d3
:10458400480000004000000000000000000000009f
:10459400000a0000001200000014000000240000c3
:1045a40000280000004800000090000000500000b7
:1045b400004800000028000000240000001400004f
:1045c40000120000000a00000000000000000000cb
:1045d40000800000008000000080000000800000d7
:1045e4000080000000800000108000003f80000078
:1045f40000800000008000000080000000800000b7
:10460400008000000080000020fe00007f00000009
:1046140000000000004000000240000002400000d2
:104624000240000002400000024400006244000016
:104634002248000012480000125000000a500000f6
:104644000a400000064000000240000002fe000094
:104654007f00000000000000000000000080000057
:10466400008000000140000002200000041000004f
:1046740018880000308400002080000000800000c2
:104684000080000000800000008000000080000026
:104694000080000000000000000000000080000016
:1046a40001800000008000000080000020fe000067
:1046b4007f820000208200002082000020fe000093
:1046c4003f82000020800000008000000080000085
:1046d40000800000008000000000000000000000d6
:1046e4000020000000400000008000000080000066
:1046f40010fc00003f8000000080000000800000eb
:104704000080000008f800001f8000000080000006
:10471400008000000080000020fe00007f000000f8
:104724000000000000200000184800000888000075
:10473400089000000910000005100000042000008b
:10474400022000000240000001400000018000003f
:104754000080000001600000061800001806000038
:1047640060000000000000000000000010080000cd
:104774003048000010880000108800001108000074
:104784001108000010080000100800001088000044
:104794000848000008380000140e000022840000bd
:1047a40061600000400000000000000000100000f4
:1047b4000010000001100000124800001248000020
:1047c40010480000104c0000108a00000889000006
:1047d40008080000050800000208000006080000a0
:1047e400098800001068000060000000000000005c
:1047f400001000001010000038d00000070800006e
:104804000408000004080000040c000024ea00006e
:104814007f090000040800000408000004080000e8
:10482400040800000408000024c800007f00000001
:10483400000000000010000002100000041000003e
:104844000408000020e800007f0c0000004a00007b
:104854001089000010880000080800000908000002
:1048640009080000050800000408000004e800002e
:104874007f00000000000000001000002050000035
:1048840070d000000f48000004480000044c0000f1
:1048940024ca00007f4900000448000004480000c6
:1048a40004480000444800004a48000051c8000081
:1048b40066480000440000000000000000100000f2
:1048c4000410000024f000007f08000004480000e9
:1048d40024cc00007f4a00002449000024c80000c2
:1048e4003f4800002488000004080000030800007a
:1048f40005c8000018380000600000000000000037
:104904000050000010d000003f500000104800008c
:104914001048000010cc00001f4a000012090000db
:1049240022f800007f080000038800000648000009
:104934000a280000321800002208000002000000cb
:1049440000000000001000000210000024f000002d
:104954007f0800000008000010cc00003f0a00009f
:104964000009000010c800003f08000000c8000053
:104974003f4800002048000020c800003f480000d5
:104984002000000000000000001000000c200000c7
:10499400044000000240000012fc00003f800000c0
:1049a400008000000080000020fe00007f800000e6
:1049b4000040000001200000021000000408000074
:1049c4001806000060000000000000000000000065
:1049d400080100002826000048e400007f300000a1
:1049e40008a800000b28000048a400004ba4000005
:1049f4002aa300002aa2000012a2000053a2000071
:104a04005a12000064080000430000000000000087
:104a1400008000000080000000840000108400007a
:104a2400108400001084000010fc00001f840000ab
:104a3400108000000082000020820000208200001c
:104a44002082000020fe00003f0200002000000041
:104a5400000000000080000040fe00004110000043
:104a6400441000004490000044f000004588000019
:104a7400448c000044920000445000004420000094
:104a840044200000401000004808000070060000a8
:104a9400200000000000000000200000202400008e
:104aa4002024000028fc0000292200002820000007
:104ab40029fe00002b2000002824000029fc00000f
:104ac4002b2400002924000021a400002524000038
:104ad4003920000010000000000000000008000061
:104ae4000008000000080000224800007eff0000cb
:104af400224800002248000022480000224800000a
:104b0400224800002244000022440000224a0000ff
:104b14003e7200002221000022000000000000007c
:104b24000000000004200000047e000004000000d7
:104b3400440000007f40000044ff000044080000df
:104b440044080000444800004444000042f40000cb
:104b5400428f0000498200007040000020000000e5
:104b640000000000008800000088000000880000a9
:104b740000880000188400000884000004840000f9
:104b8400028600000185000000c4000000b400009b
:104b940000840000208400002084000060040000e1
:104ba4003f000000000000000002000020fe0000a2
:104bb4007f2200000022000008e200001f12000013
:104bc400010a00000102000011fa00003f02000087
:104bd40001820000024200000c32000008020000c2
:104be40020fe00007f000000000000000010000014
:104bf400042000000244000012fc00003f84000076
:104c04001084000010fc00001f84000010fc000051
:104c14001f8400001080000020fe00007f80000040
:104c24000080000000800000000000000000000080
:104c34000000000004fc00000f40000004400000dd
:104c440004400000144000003e40000010a000009a
:104c540010a0000008100000091000000508000062
:104c64000208000005c400001832000060000000c3
:104c740000000000008000000080000000800000b0
:104c84000080000020fe00007f4000000040000083
:104c94000020000010f000003f2800001024000055
:104ca400102200001020000010e000001f2000006f
:104cb40010000000000000000010000008f00000d8
:104cc4001f1000000810000008f000000f10000082
:104cd4000800000020fe00007f20000000f000001b
:104ce4001f00000008000000080000000880000009
:104cf4000700000002000000000000000080000027
:104d04000140000002200000041800001806000002
:104d14006000000004f000000f000000001000001c
:104d240008f000001f100000081000000810000028
:104d340008f000000f100000080000000000000050
:104d4400004000000040000008e000001f100000c8
:104d54000828000004460000024000000180000012
:104d64000040000010e000003f3800001026000062
:104d74001020000010e000001f20000010000000c0
:104d8400000000000040000000e00000003e0000c1
:104d9400222000007e20000022fe000023300000bc
:104da400222000002268000022a8000022a40000a3
:104db400222400003f2200002322000022200000c1
:104dc40000000000000000000004000020fc0000bf
:104dd4007f8400002084000024f400002f8400005d
:104de40020e400002f84000020f400002f84000041
:104df400288400002e8400002484000020fc00008d
:104e04003f0400002000000000000000000000003b
:104e140020fc00007f4400002044000024c4000063
:104e24002f64000024940000228400002364000006
:104e34003c9c00002104000026c400002004000063
:104e440023fc00003f0400002000000000000000dc
:104e5400002000000020000008f000001f280000cf
:104e64000444000002800000017000000e0e0000e7
:104e740070fc00001f84000010fc00001f84000070
:104e84001084000010fc00001f040000100000004b
:104e9400000000000010000020f000007f1000005f
:104ea40000f800001f14000010f200001f100000a2
:104eb40010f000001f90000010c000000f60000000
:104ec40008900000040c000003e000000e1c000029
:104ed40070000000000000000000000001800000dd
:104ee40010c000003f200000105c0000088000009b
:104ef4000600000001c00000023c00002180000008
:104f04007f7c000020800000100000000d000000e5
:104f140003fc00000000000000000000008000000e
:104f24000004000021fc00007f04000020020000b7
:104f34001000000000fc00003f0000000110000011
:104f440001100000111000003f10000001280000b3
:104f540001460000618200003f00000000000000e4
:104f6400008000000004000021fc00007f04000019
:104f74002002000010f800000f40000018a00000fc
:104f8400081c00000540000002300000058c0000f1
:104f94000a40000032300000228c000001000000b2
:104fa40000000000000000000100000001000000fb
:104fb4000100000001300000091000003108000069
:104fc4006104000041020000190000000900000013
:104fd400040000000280000001600000001c0000ca
:104fe400000000000000000000fc00003f0400007e
:104ff4002004000020fc00003f440000288400003e
:105004000484000014f400003f84000004840000c1
:1050140024fc00007f44000004420000042200003d
:105024000411000004000000000000000000000063
:105034000000000010fc00003f8000000080000021
:10504400008000000080000000800000008000005c
:10505400008000000080000000800000008000004c
:1050640020fe00007f00000000000000000000009f
:1050740000400000004000000040000020fe00004e
:105084007f400000004000000020000000200000dd
:1050940010d000003f1000000208000002040000cd
:1050a400020200000200000022f800007f0000005d
:1050b400000000000040000024fe00007f400000cb
:1050c40004f000001f10000010f000001f1000008a
:1050d40010f000001f40000020fe00007f100000c0
:1050e40011fe00007f100000111000001d000000e0
:1050f4000100000000000000008000000004000027
:1051040021fc00007f0400000084000010f4000073
:105114003f8400000044000012e400003f0400004b
:105124000204000022f400007f04000002020000d8
:1051340002010000020000000000000000800000e6
:105144000004000021fc00007f04000000040000b3
:10515400000400000084000030040000111400006a
:10516400112400000a4400000a440000084400001e
:105174000402000024f900007f0000000000000089
:10518400008000000004000021fc00007f040000f7
:105194001024000038e4000007240000022400006a
:1051a40022e400007f240000022400000424000004
:1051b40049a4000050720000632100004200000076
:1051c40000000000008000000004000021fc00003a
:1051d4007f4400000444000024fc00007f440000dd
:1051e40004c400000704000000e400001f440000a1
:1051f400088400000404000003c200000c3900000d
:1052040070000000000000000080000000040000a6
:1052140021fc00007f040000107c000038440000e2
:10522400072400000414000014f400003f440000ac
:10523400044c000024b400007f240000005200004d
:10524400008900007f000000000000000000000052
:1052540010fc00003f200000042000000420000097
:10526400042000000420000024fe00007f20000031
:1052740004200000042000000410000004080000c2
:105284000404000004020000040000000000000008
:105294000080000030ff00001124000008240000fa
:1052a4000424000002a4000030ff000011240000c8
:1052b40008240000042400006224000020240000cc
:1052c4001024000008220000042100000300000054
:1052d40000000000000800000208000002080000ae
:1052e40012c800003f1a0000122a0000122a00000f
:1052f4001209000012e800007f0800000208000004
:10530400060800000988000010480000602800001a
:105314004000000000000000008000000080000049
:105324000080000020fe00007f800000014000009b
:10533400022000000450000008880000300400002f
:105344000020000001240000222400004a22000062
:1053540048c000001f0000000000000000c0000062
:105364000080000008fc00001f20000004fe000074
:105374007f00000000f000000f10000008f00000a3
:105384000f10000008f000000fa00000002400002f
:10539400252400004cc2000047000000000000006b
:1053a40000080000048800001488000024bf0000e6
:1053b4002488000004c800007f28000002180000b0
:1053c4007e0f0000218a00002248000014280000fb
:1053d4000c090000120e000061c40000400000002f
:1053e400000000000008000002080000128800000d
:1053f4003f3f00000208000022c800007f28000090
:105404000018000028cf00007f0a000008480000b0
:105414000888000008890000080e00000e0400003f
:105424000400000000000000000800000208000062
:105434000488000024bf00007f48000020480000ca
:105444001228000002d800007f0f0000110a00009b
:1054540011880000080800000b0900000c0e000071
:1054640013e40000600000000000000000080000d9
:10547400020800000488000044bf00007f480000c8
:105484002008000011a8000020580000402f000050
:10549400108a00003f08000004080000040900000e
:1054a400040e000024e400007f000000000000005f
:1054b400000800000908000029c800007f3f000020
:1054c400098800003f88000020a800003f980000e1
:1054d400208f00003f8a00002408000004e8000038
:1054e4007f0900000a8e00001164000060000000c3
:1054f4000000000000800000000000000100000027
:1055040021fe00007f1000000410000004100000c1
:1055140004200000022000000240000002400000bd
:105524000180000001600000061800001806000059
:1055340060000000000000000008000008f80000ff
:105544001f08000008080000080800000808000000
:105554000808000008f800000f0800000808000010
:1055640008080000080800000808000008f8000007
:105574000f08000008000000000000000000000008
:1055840008120000083e00000812000028d20000a3
:105594007f120000081e000008920000081200009c
:1055a4000912000009120000081e00000812000081
:1055b400080000000f0000000400000000000000cc
:1055c4000010000008f000001f10000008f00000a8
:1055d4000f10000008f000000f1000000800000089
:1055e40020fe00007f1000000110000009100000e0
:1055f4001f28000001460000018200007f00000017
:10560400000000000000000020fe00007f000000f9
:105614000108000021f800007f08000021f80000c4
:105624003f08000021f800003f080000211000009e
:1056340001a0000000c0000000300000030e0000c4
:105644007c0000000000000000f000001f100000bb
:1056540010f000001f10000010f000001f000000f8
:1056640000fe00007f88000000f800003f88000072
:1056740012f800001288000013f800000c8e0000dd
:1056840074840000230000000000000000440000b7
:10569400224400007eff0000234400002244000056
:1056a400227c00003e440000227c000022440000d2
:1056b400224400003eff00002308000022240000d2
:1056c40022420000398100001000000000000000a8
:1056d40000000000010000000100000021fe0000a5
:1056e4007f00000001800000014000000320000052
:1056f40005100000090800001104000061e2000028
:105704004f00000001000000010000000100000043
:105714000000000000c000000040000008e000009d
:105724001f500000048800000204000001e0000093
:105734000e1c00007100000021fe00007f0000002c
:10574400013000000910000011c80000618600004b
:1057540040000000000000000008000020c8000015
:105764007f48000000480000107f00003f48000010
:1057740004580000046c00001f4a0000044a0000a2
:1057840004490000144900003f480000004800009c
:1057940020c800007f00000000000000000000009e
:1057a40001000000010000000100000001000000f1
:1057b40001100000111000003f1000000110000053
:1057c4000110000001100000011000000110000091
:1057d4000110000021fe00007f0000000000000016
:1057e4000084000000880000208800007fa00000e2
:1057f40000620000109400003f14000000e8000064
:105804001f08000008060000080400000804000047
:10581400480600005006000060040000400000003c
:10582400000000000002000040e4000043240000e7
:105834004a2000004aa100004aaa00004aaa000027
:105844004aa400004aa400004aa300004aa200009f
:105854004a82000040430000412300007a12000005
:10586400220000000000000000020000010400000b
:1058740022e400007f10000011910000204a000083
:105884004a0a000011c400002f0400004203000073
:105894002182000014c2000008b3000012c30000fb
:1058a40061820000400000000000000000080000c9
:1058b40002080000020800000208000002080000bc
:1058c40022f800007f0800000008000004f800002f
:1058d4000f08000004080000040800000408000089
:1058e40004040000040200000400000000000000a2
:1058f4000008000020f800007f08000021080000d4
:105904002108000021f800003f08000021080000e1
:105914002108000021f800003f08000021040000d5
:1059240021040000250200003901000011000000dc
:1059340000000000008000000080000000840000df
:1059440010fc00003f8400001084000010fc0000e4
:105954001f840000108400001084000010fc00006c
:105964001f84000010800000408000004000000000
:105974007f000000000000000000000020fe000086
:105984007f0000000000000000f000001f14000071
:105994005114000051f400005f1400005114000081
:1059a40051f400005f1400005004000040fc0000ab
:1059b4007f040000400000000000000000800000a0
:1059c4000008000021f800007f090000000a000020
:1059d40010ea00003f08000008080000060c000060
:1059e400020b00000209000002040000024400004f
:1059f400028200000301000001000000000000001a
:105a04000000000002180000020800000204000068
:105a1400427e00007e42000041c20000404200007d
:105a2400407e000042420000444200004442000024
:105a340040420000447e0000384200001000000094
:105a4400000000000080000000a0000008e000004a
:105a54001fa000000820000009fe00007fa0000035
:105a640008100000090800000e04000004f80000fb
:105a74001f480000124800001248000012fe0000f7
