:020000040000FA
:0600000085EF13F0120071
:0600080004EF08F01200F5
:060018000CEF08F01200DD
:0610000085EF13F0120061
:0610080079EF10F0120068
:06101800C4EF10F012000D
:06102A0001003627000062
:08103000A10000000200000015
:08103800D9CFE6FFE1CFD9FF9B
:10104000E6526A6A686A160E6F6E9F0E6B6E7B0EB2
:10105000696E6D8C6D9C6E6A000EE66EE66AE66ADD
:10106000710EE66E0F0EE66E6BEC13F00B6E050E56
:10107000E15E0B50DF6ADF500B6E0C6A080E0B5CF2
:10108000000E0C5810E2DF50040DF3CFE9FFF4CF4F
:10109000EAFF000EE926040EEA22EE6AEE6AEE6A24
:1010A000EE6ADF2AE8D7160E706E68A60CD0030E23
:1010B000E66E680EE66E0F0EE66E3FEC10F0E5523F
:1010C000E552E552F2D70001736B786B796B7A6B5E
:1010D0006D98080E6B6F040E6C6F616B606BE55260
:1010E000E552E7CFD9FF1200D9CFE6FFE1CFD9FF14
:1010F000E6520001600507E16DBA05D0686A6980B3
:101100006988020E606F6850040B0FE06950040B91
:101110000CE0020EE66E680EE66E0F0EE66E3FEC19
:1011200010F0E552E552E552E9D86DA202D0A19A3D
:10113000A1D06850010B1BE06950010B18E07CDF67
:101140000001040E606F0401200E026F040E036F95
:10115000080E016F006B8C0E0013E66A680EE66ED7
:101160000F0EE66E3FEC10F0E552E552E552685086
:10117000100B0FE06950100B0CE0A4D8040EE66EC3
:10118000680EE66E0F0EE66E3FEC10F0E552E5528B
:10119000E5526850400B1DE06950400B1AE0010E0B
:1011A000E66EE66A000EE66EE66A020EE66EE66A35
:1011B000E5EC11F00B6E060EE15E0B50060EE66ECE
:1011C000680EE66E0F0EE66E3FEC10F0E552E5524B
:1011D000E5526850200B04E06950200B01E04FD825
:1011E0006850020B12E06950020B0FE0010EE66E30
:1011F000E66A000EE66EE66AE668E668E5EC11F07F
:101200000B6E060EE15E0B506A6A040E0001605D13
:1012100002E2A19A2FD069A62CD0DF6A040EDF5C0F
:1012200028E268A625D06CCF80F0030EE66E680E2B
:10123000E66E0F0EE66E3FEC10F0E552E552E55219
:10124000780E0001801502E178D810D0000EE66E0D
:10125000E66A800EE66E000EE66E010EE66EE66A47
:10126000E5EC11F00B6E060EE15E0B50DF2AD6D7CF
:1012700000D0A19AE552E552E7CFD9FF120070A045
:1012800015D063C0E9FF64C0EAFFEF5080080DE1AC
:101290006BC0E9FF6CC0EAFFEF50840806E163C051
:1012A000E9FF64C0EAFF8C0EEF6E7090050EE66EEB
:1012B000680EE66E0F0EE66E3FEC10F0E552E5525A
:1012C000E55212006984040EE66E680EE66E0F0E9B
:1012D000E66E3FEC10F0E552E552E5526D82000EED
:1012E000E66EE66AE66EE66A040EE66EE66AE5EC2F
:1012F00011F00B6E060EE15E0B501200000EE66E52
:10130000E66AE66EE66A030EE66EE66AE5EC11F062
:101310000B6E060EE15E0B506D92699468A40CD0C2
:10132000020EE66E680EE66E0F0EE66E3FEC10F0F3
:10133000E552E552E552F2D71200D9CFE6FFE1CFF0
:10134000D9FFE652FD0E000180155AE17E0E801590
:10135000E8407F0B040DF3CF63F0F4CF64F0000E90
:101360006327040E642363C065F064C066F065758E
:1013700063C0E9FF64C0EAFFEF503C0BE842E8427B
:101380000D083CE163C0E9FF64C0EAFF020EE926F4
:10139000000EEA22EECF0BF0EFCF0CF0280E0B1868
:1013A00002E1040E0C1828E163C0E9FF64C0EAFF03
:1013B000020EE926000EEA22200EEE6E040EED6EFD
:1013C000DF6ADF500B6E0C6A080E0B5C000E0C58C7
:1013D00013E2DF50EA6A280FE96E040EEA22EF50AA
:1013E000E66EDF50EA6A200FE96E040EEA22E5524B
:1013F000E750EF6EDF2AE5D70DD801D02ED805D003
:10140000FD0E8015040801E14ED8E552E552E7CF04
:10141000D9FF12006BC0E9FF6CC0EAFFEF50800BF0
:1014200005E06BC0E9FF6CC0EAFFEF6A00016F6B7B
:10143000706B746B756B736BB6D8000EE66EE66AF4
:10144000E66EE66A170EE66EE66AE5EC11F00B6EE4
:10145000060EE15E0B507FEF0CF0020E0001705D96
:1014600002E1ADDB1FD06CD8000181511AE165C0EB
:10147000E9FF66C0EAFFEE52080EEF6E65C0E9FFB5
:1014800066C0EAFF020EE926000EEA22200EEE6E8A
:10149000040EED6E65C0E9FF66C0EAFF8C0EEF6ECC
:1014A00001D0816B1200D9CFE6FFE1CFD9FFE65220
:1014B0006BC0E9FF6CC0EAFFEF50400B01E0010E8A
:1014C000DF6E00016B75080E605D0AE122C46EFFDD
:1014D0006E50000803E2100E606F02D0040E606FC1
:1014E000700528E16BC0E9FF6CC0EAFF020EE92637
:1014F000000EEA22280EEE6E040EED6ED5DA020E14
:1015000000016F5D07E16BC0E9FF6CC0EAFF840E6C
:10151000EF6E0FD0DF5007E16BC0E9FF6CC0EAFF50
:10152000C80EEF6E06D06BC0E9FF6CC0EAFF880EF4
:10153000EF6E01D005D8E552E552E7CFD9FF120092
:10154000D9CFE6FFE1CFD9FF020EE1260001706B93
:101550006BC0E9FF6CC0EAFFEF6A040E6B190B6EFB
:101560006CC00CF00BC0DEFF0CC0DDFFDECFE9FF6E
:10157000DDCFEAFFEF6A78AF0CD07B517C1107E03A
:1015800005D07CC0FAFF00017B51F96EFADF000143
:10159000789F020EE15C02E2E16AE552E16EE552FB
:1015A000E7CFD9FF120004012051600BE842E84266
:1015B000E842E842E842000901E058D021510C0A13
:1015C00054E00B0A43E00C0A35E0010A26E00B0A5E
:1015D00022E0020A20E0030A1CE0080A10E0010AE7
:1015E0000CE00F0A08E0030A01E03FD00001738F0E
:1015F000080E606F3BD0C8D839D07FDB37D00001F0
:10160000610E716F000E726F7381010E746F738FB4
:101610002DD014D92BD02BD829D024510001716F93
:10162000726B620E7127000E72237381010E746F4C
:10163000738F1CD00001738F04012451EA6A620F7A
:10164000E96E000EEA2222C4EFFF10D0000EE66E13
:10165000E66AE66EE66A160EE66EE66AE5EC11F0FC
:101660000B6E060EE15E0B5001D000D01200D9CFF8
:10167000E6FFE1CFD9FF040EE1260401220510E1C7
:1016800020511F0B00090CE10001738F030E0401B0
:10169000215D04E10001010E7F6F02D000017F6B2C
:1016A0000401225167E120511F0B020863E124511C
:1016B0000F0B00095FE00001738F040124BF10D0FD
:1016C00024510F0BE96EEA6AD890E936EA36670EC4
:1016D000E926000EEA22EECFDEFFEDCFDDFF0FD0D0
:1016E00024510F0BE96EEA6AD890E936EA366B0EA0
:1016F000E926000EEA22EECFDEFFEDCFDDFF030E7E
:10170000215D07E1DECFE9FFDDCFEAFF840EEF6E5A
:1017100031D024510F0B0C6A700F0B6E0F0E0C2280
:10172000020E0BC0DBFF030E0CC0DBFF020EDBCF93
:10173000E9FF030EDBCFEAFFEE90ED5224AF0DD0B0
:10174000DECFE9FFDDCFEAFFEF6ADF74DECFE9FF2E
:10175000DDCFEAFF400EEF6E0DD0DECFE9FFDDCF2B
:10176000EAFF880EEF6EDF74DECFE9FFDDCFEAFF20
:10177000C80EEF6E040EE15C02E2E16AE552E16E32
:10178000E552E7CFD9FF1200800E0401205D55E13C
:101790000001C00E736F04012351030A2EE0010AF9
:1017A0000EE0030A03E00001736B47D00001600EF6
:1017B000716F240E726F120E746F756B3ED02251D2
:1017C000F66EF76AD890F636F736010EF626250E35
:1017D000F7220900F5CF71F00A00F5CF72F0020E82
:1017E0000001F76A7125F66E7251F7220900F5CFF4
:1017F00074F00A00F5CF75F020D0030E225D1AE2D6
:101800002251F66EF76AD890F636F736030EF626B2
:10181000250EF7220900F5CF71F00A00F5CF72F01E
:1018200071C0F6FF72C0F7FF0800F5500001746F39
:10183000756B02D00001736B00D01200D9CFE6FFA8
:10184000E1CFD9FF020EE1260401286B296B20515C
:101850001F0B020A12E0030A0DE0010A01E03BD06F
:101860000001738F0401288100017F0502E104015A
:10187000288331D00001738F2ED00001738F0401B3
:1018800024BF10D024510F0BE96EEA6AD890E936D4
:10189000EA36670EE926000EEA22EECFDEFFEDCF34
:1018A000DDFF0FD024510F0BE96EEA6AD890E936BC
:1018B000EA366B0EE926000EEA22EECFDEFFEDCF10
:1018C000DDFFDECFE9FFDDCFEAFFEF50040B02E0E2
:1018D000010E286F00D0000173AF07D0280E716F82
:1018E000040E726F7381020E746F020EE15C02E2ED
:1018F000E16AE552E16EE552E7CFD9FF12006D983B
:10190000000173BF4AD078AF28D0020E706F6BC051
:10191000E9FF6CC0EAFFEE52EF6A6BC0E9FF6CC0F2
:10192000EAFFC80EEF6E65C0E9FF66C0EAFFEE523F
:10193000080EEF6E65C0E9FF66C0EAFF020EE926F9
:10194000000EEA22280EEE6E040EED6E65C0E9FF71
:1019500066C0EAFFC80EEF6E1FD065C0E9FF66C023
:10196000EAFFEE52080EEF6E65C0E9FF66C0EAFFBF
:10197000020EE926000EEA22200EEE6E040EED6E37
:1019800065C0E9FF66C0EAFF8C0EEF6E6BC0E9FF31
:101990006CC0EAFF840EEF6E86D078BF84D004015D
:1019A00020AF59D0000174510401265D000175512A
:1019B0000401275904E226C474F027C475F074D8D2
:1019C0000001010E706F65C0E9FF66C0EAFFEE52CC
:1019D000080EEF6E65C0E9FF66C0EAFF020EE92659
:1019E000000EEA22200EEE6E040EED6E65C0E9FFD9
:1019F00066C0EAFF800EEF6E816B63C0E9FF64C0D2
:101A0000EAFFEE52080EEF6E63C0E9FF64C0EAFF22
:101A1000020EE926000EEA22200EEE6E040EED6E96
:101A200063C0E9FF64C0EAFF840EEF6E010E816FB0
:101A30006BC0E9FF6CC0EAFF020EE926000EEA2245
:101A4000280EEE6E040EED6E6BC0E9FF6CC0EAFF6F
:101A5000C80EEF6E28D00001020E706F6BC0E9FF58
:101A60006CC0EAFFEE52EF6A6BC0E9FF6CC0EAFFA0
:101A7000C80EEF6E65C0E9FF66C0EAFFEE52080EC1
:101A8000EF6E65C0E9FF66C0EAFF020EE926000EB0
:101A9000EA22280EEE6E040EED6E65C0E9FF66C008
:101AA000EAFFC80EEF6E1200D9CFE6FFE1CFD9FFF3
:101AB000020EE1260001080E745D000E75590EE25B
:101AC00074C0DEFF75C0DDFF6F5103E1010E6F6F63
:101AD00004D06F0502E1020E6F6F03D0080EDE6EB8
:101AE000DD6A6BC0E9FF6CC0EAFFEF926BC0E9FFF3
:101AF0006CC0EAFFEF906BC0E9FF6CC0EAFF010E1B
:101B0000DB50EF126BC0E9FF6CC0EAFFEE52DFCF93
:101B1000EFFF000EDB50745F010EDB50755B280E8B
:101B20007D6F040E7E6F73B121D0D9CFE9FFDACF7C
:101B3000EAFFEE50ED1019E071C0F6FF72C0F7FF3A
:101B4000712B000E72230800F550E66E7DC0E9FF90
:101B50007EC0EAFF7D2B000E7E23E552E750EF6E3C
:101B6000DF06010E01E2DB06E0D71FD0D9CFE9FF87
:101B7000DACFEAFFEE50ED1018E071C0E9FF72C055
:101B8000EAFF712B000E7223EF50E66E7DC0E9FF75
:101B90007EC0EAFF7D2B000E7E23E552E750EF6EFC
:101BA000DF06010E01E2DB06E1D7020EE15C02E294
:101BB000E16AE552E16EE552E7CFD9FF1200D9CFD5
:101BC000E6FFE1CFD9FF020EE12663C0E9FF64C062
:101BD000EAFFEE52EFCFDFFFDFCF0BF00B5000013B
:101BE000795D000E7A5903E279C0DFFF09D0DF503A
:101BF0000B6E0C6A0B50795D796F0C507A597A6FC5
:101C0000010EDB6ADF50F36E010EDBCFF4FFF35001
:101C1000F45C16E2010EDB50EA6A280FE96E040E4E
:101C2000EA22EF50E66E76C0E9FF77C0EAFF762B36
:101C3000000E7723E552E750EF6E010EDB2AE2D764
:101C4000000ED8807955000E7A5528E265C0E9FF6C
:101C500066C0EAFFEE52080EEF6E65C0E9FF66C08F
:101C6000EAFF020EE926000EEA22280EEE6E040EAE
:101C7000ED6E63C0E9FF64C0EAFFEF50400B07E17F
:101C800065C0E9FF66C0EAFFC80EEF6E06D065C00A
:101C9000E9FF66C0EAFF880EEF6E25D065C0E9FF58
:101CA00066C0EAFFEE52080EEF6E65C0E9FF66C03F
:101CB000EAFF020EE926000EEA22200EEE6E040E66
:101CC000ED6E65C0E9FF66C0EAFF840EEF6E7B51E2
:101CD0007C1107E005D07CC0FAFF00017B51F96E52
:101CE000FADF0001789F020EE15C02E2E16AE55250
:101CF000E16EE552E7CFD9FF12000001738F000EAD
:101D0000E66EE66AE66A710EE66E0F0EE66E6BEC44
:101D100013F00B6E050EE15E0B50010EE66EE66AE7
:101D2000E66A620EE66E000EE66E6BEC13F00B6E6A
:101D3000050EE15E0B5022C461F00401225104E162
:101D40000001100E606F11D00001200E606F000EB8
:101D5000E66EE66AE66EE66A150EE66EE66AE5ECA3
:101D600011F00B6E060EE15E0B501200D9CFE6FFAC
:101D7000E1CFD9FF020EE126000EDE6E040EDD6E0D
:101D8000FD0EDB50E8240D6EFE0EDB50040DF3500B
:101D90000D24040DF3500B6E0C6A020E0F0B05E0C0
:101DA000D8900C320B32E806FBE1D8900B360C369B
:101DB000D8900B360C36D9CFE9FFDACFEAFF0B50BB
:101DC000EE260C50ED22DECFE9FFDDCFEAFFEF9EDD
:101DD000FD0EDB500FE1FE0EEA6ADB34FE0BEA3645
:101DE000E96E670EE926000EEA22DECFEEFFDDCFB8
:101DF000EDFF0ED0FE0EEA6ADB34FE0BEA36E96E2A
:101E00006B0EE926000EEA22DECFEEFFDDCFEDFFFE
:101E1000DECFE9FFDDCFEAFFEF9CDECFE9FFDDCFCC
:101E2000EAFF040EE926000EEA22EF8C020EE15CC6
:101E300002E2E16AE552E16EE552E7CFD9FF120016
:101E4000D9CFE6FFE1CFD9FF020EE126FE0EDB502F
:101E50000C6A700F0B6E0F0E0C220BC0DEFF0CC055
:101E6000DDFFDECFE9FFDDCFEAFFFD0EDBCFEFFFC9
:101E7000DBA407D0E66AFE0EDBCFE6FF77DFE55294
:101E8000E552FD0EDBA208D0010EE66EFE0EDBCFA2
:101E9000E6FF6CDFE552E552020EE15C02E2E16A28
:101EA000E552E16EE552E7CFD9FF1200D9CFE6FF48
:101EB000E1CFD9FF020EE126FE0EDB5020E165C026
:101EC000E9FF66C0EAFFEE52080EEF6E65C0E9FF5B
:101ED00066C0EAFF020EE926000EEA22200EEE6E30
:101EE000040EED6E65C0E9FF66C0EAFF8C0EEF6E72
:101EF0006BC0E9FF6CC0EAFF840EEF6E3DD0FD0EB3
:101F0000DB50E8240D6EFE0EDB50040DF3500D2463
:101F1000040DF3CF0BF0F4CF0CF0000E0B26040EE3
:101F20000C220BC0DEFF0CC0DDFF840E0B6EDECF7B
:101F3000E9FFDDCFEAFF0B50EF12FD0EDB50E82486
:101F40000D6EFE0EDB50040DF3500D24010F040D39
:101F5000F3CF0BF0F4CF0CF0000E0B26040E0C2286
:101F60000BC0DEFF0CC0DDFF840E0B6EDECFE9FF81
:101F7000DDCFEAFF0B50EF12020EE15C02E2E16AF4
:101F8000E552E16EE552E7CFD9FF1200D9CFE6FF67
:101F9000E1CFD9FF020EE126FD0EDB500FE0FE0E71
:101FA000EA6ADB34FE0BEA36E96E6B0EE926000EB8
:101FB000EA22EECFDEFFEDCFDDFF0ED0FE0EEA6AA5
:101FC000DB34FE0BEA36E96E670EE926000EEA22E4
:101FD000EECFDEFFEDCFDDFFDECFE9FFDDCFEAFFA5
:101FE000020EE926000EEA22FB0EDBCFEEFFFC0E0E
:101FF000DBCFEDFFDECFE9FFDDCFEAFFEE52FA0ED9
:10200000DBCFEFFF400E0B6EDECFE9FFDDCFEAFF47
:102010000B50EF16880E0B6EDECFE9FFDDCFEAFF27
:102020000B50EF12FD0EDB500CE0FE0EEA6ADB34C3
:10203000FE0BEA36E96E6B0EE926000EEA22EF741B
:102040000BD0FE0EEA6ADB34FE0BEA36E96E670E51
:10205000E926000EEA22EF74DECF0BF0DDCF0CF0A4
:102060000BC0F3FF0CC0F4FF020EE15C03E200D0F2
:10207000E16AE552E16EE552E7CFD9FF1200D9CF10
:10208000E6FFE1CFD9FF010EF36EFC0EDB5004E05A
:10209000D890F336E806FCE1F350E81C0B6EFD0E19
:1020A000DBCFE9FFFE0EDBCFEAFF0B50EF16E55268
:1020B000E7CFD9FF120005D06D6A696A0001606B35
:1020C00000D012000001605113E16D6A696A160EBA
:1020D0006F6E9F0E6B6E7B0E696ED08EA28AA08A89
:1020E000F28E6DB602D06D86FCD70001010E606FD6
:0220F0001200DC
:0E20F200DACFE4FFE2CFDAFFE9CFE4FFEACF76
:10210000E4FFF6CFE4FFF7CFE4FFF5CFE4FFF3CF32
:10211000E4FFF4CFE4FFFACFE4FF00EE00F00B0E93
:10212000E80403E3EECFE4FFFBD700EE0BF0030E71
:10213000E80403E3EECFE4FFFBD7E65274EC08F0CB
:10214000E55200EE0DF0030EE80403E3E5CFEDFFEA
:10215000FBD700EE0AF00B0EE80403E3E5CFEDFF3A
:10216000FBD7E5CFFAFFE5CFF4FFE5CFF3FFE5CFEF
:10217000F5FFE5CFF7FFE5CFF6FFE5CFEAFFE5CFC7
:10218000E9FFE5CFDAFF1100D8CFE4FFE0CFE4FFAD
:10219000E46EDACFE4FFE2CFDAFFE652E552E5CFB4
:1021A000DAFFE550E5CFE0FFE5CFD8FF100005D816
:1021B00062EC10F01AD8FED712000F0EC11202D82E
:1021C0001CEF08F0F00E8C1695169388938A8150B8
:1021D000100B01E0010E0001866F8150200B01E021
:1021E000010E876F906B916B120089D8200E000151
:1021F000605D03E36D50020B01E001D001D81200D5
:1022000000019051911102E1000E08D090C0E9FF49
:1022100091C0EAFFEF50800B01E0010E000947E199
:1022200081B828D00501008300910095009700999E
:10223000009B009D009F01910193019501970199D9
:102240000291028302950297036B046B070EE66E00
:10225000000EE66E050EE66E010EE66EE66EC6EC4C
:102260000FF00B6E050EE15E0B50F3CF90F0F4CF44
:1022700091F01DD00501006B016B080E026F800EFE
:10228000036F046F056F066F070EE66E000EE66EB5
:10229000050EE66E010EE66EE66EC6EC0FF00B6EF6
:1022A000050EE15E0B50F3CF90F0F4CF91F000D02B
:1022B00012008150100B01E0010E0001865D09E063
:1022C0008150100B01E0010E866F81B802D0010E23
:1022D00002D0000E00D012008150200B01E0010E50
:1022E0000001875D09E08150200B01E0010E876F3E
:1022F00081BA02D0010E02D0000E00D012000001FF
:10230000A151A21104E1100EA16F270EA26FA10727
:10231000000EA25B6DA20BD0A151A21107E18C703F
:102320008C50010B02E08C8201D08C922FD00001E6
:10233000605103E18C908C9229D0600503E18C8080
:102340008C8224D0020E605D03E18C808C921ED0C2
:10235000040E605D03E18C908C8218D0100E605DDD
:1023600007E10001A151A21102E18C708C920ED004
:10237000200E605D0BE10001A151A21107E18C70FC
:102380008C50010B02E08C9201D08C821200120062
:10239000120012001200AAEF12F012001E0EE66EDA
:1023A000010EE66E20EC0FF0E552E55212006D844E
:1023B0000001080E936F070E946F9307000E945B55
:1023C00093519411FAE16D941200D9CFE6FFE1CF59
:1023D000D9FFFD0EDBCF06F0FE0EDBCF07F0010EBE
:1023E000061801E1075033E0E868061802E1E868E2
:1023F00007182BE0030E061801E1075024E0040E35
:10240000061801E107501DE0020E061801E1075011
:1024100016E0170E061801E107500FE0160E061819
:1024200001E1075008E0150E061801E1075001E030
:1024300010D0B4DF0FD0B1DF0DD0ADDF0BD0A9DFEE
:1024400009D0A5DF07D0A4DF05D0A4DF03D00000AA
:1024500001D000D0010E00D0E552E7CFD9FF120025
:102460001201000200000008D8045E000100010211
:10247000000109022900010100C032090400000224
:1024800003000000092111010001224A0007058113
:10249000034000010705010340000104030904345F
:1024A000034D006900630072006F006300680069FB
:1024B000007000200054006500630068006E006F2B
:1024C000006C006F0067007900200049006E006317
:1024D000002E002E034A006F00790073007400691B
:1024E0000063006B002000440065006D006F000079
:1024F00000000000000000000000000000000000DC
:102500000072249B249F24D32405010905A10115F1
:10251000002501350045017501950D0509190129B1
:102520000D81029503810105012507463B017504D4
:10253000950165140939814265009501810126FFE5
:102540000046FF0009300931093209357508950444
:032550008102C045
:0C255400040120511F0B010801E06BD0B6
:10256000245101E068D0060E215D28E12351230AA1
:1025700021E0010A11E0030A01E020D00001610519
:102580000AE10001840E716F240E726F090E746FE0
:10259000756BC00E736F12D0000161050AE1000176
:1025A000090E716F250E726F4A0E746F756BC00E37
:1025B000736F04D00001800E736F00D004012051AE
:1025C000600BE842E842E842E842E842010801E0E4
:1025D00032D021510B0A29E0080A1CE0090A14E054
:1025E000080A07E00B0A04E0080A01E024D023D01F
:1025F00022D000019F0E716F000E726F010E746F7A
:10260000756BC10E736F17D00001800E736F23C4FA
:102610009FF011D00001A00E716F000E726F010EBD
:10262000746F756B810E736F06D00001800E736F2F
:0826300022C4A0F000D012004A
:082638002A0EF66E100EF76E7B
:10264000000EF86E00010900F5509A6F0900F55070
:102650009B6F03E19A6701D03DD00900F550956F5B
:102660000900F550966F0900F550976F09000900B1
:10267000F550E96E0900F550EA6E090009000900FD
:10268000F550986F0900F550996F09000900F6CFD1
:102690009CF0F7CF9DF0F8CF9EF095C0F6FF96C066
:1026A000F7FF97C0F8FF0001985302E1995307E044
:1026B0000900F550EE6E9807F8E29907F9D79CC02B
:1026C000F6FF9DC0F7FF9EC0F8FF00019A07000EBD
:0626D0009B5BBFD7120066
:0A26D600FE0EE3CFE9FFFF0EE3CF95
:1026E000EAFFE9CFF3FFEACFF4FFFB0EE35003E18B
:1026F000FC0EE35009E0FB0EE30602E2FC0EE306EB
:0A270000FD0EE350EE6EF1D712005B
:06270A0013EE00F023EEC7
:1027100000F0F86A0A9C1CEC13F09AEC13F0D7EC6A
:0627200010F0FBD71200CF
:0A27260000EE00F00F0EEE6AEA620A
:04273000FDD71200BF
:02273400120091
:022736000000A1
:020000040030CA
:0100000024DB
:010001000EF0
:010002003FBE
:010003001EDE
:010005008179
:010006008178
:010008000FE8
:01000900C036
:01000A000FE6
:01000B00E014
:01000C000FE4
:01000D0040B2
:00000001FF
