:020000040000FA
:06000000EAEF0FF0120010
:0600080004EF08F01200F5
:060018000CEF08F01200DD
:06100000EAEF0FF0120000
:021006001200D6
:0610080086EF0DF012005E
:02100E000400DC
:0110100000DF
:0610180088EF0DF012004C
:02101E000100CF
:0C1020000E100000A10000000300000002
:04102C00F0EC0CF0E8
:10103000636A626A0F019F0E376FFB0E366F658C15
:10104000659C386BD4EC0CF0DF6A01EC0DF010E21B
:10105000DF50040DF3CFE9FFF4CFEAFF000EE926DD
:10106000040EEA22EE6AEE6AEE6AEE6ADF2AEDD735
:101070000F01160E266F62A604D0030E96EC0CF03C
:10108000FAD70001736B786B796B7A6B6598080EF1
:101090006B6F040E6C6F616B606BF3EF0CF0F0EC38
:1010A0000CF0000160510DE1656A0F01366B65B609
:1010B00002D06586FCD70001010E606F0F01160E8D
:1010C000396F000160050AE165BA08D0626A0F0154
:1010D000366B368136890001020E606F6250040B58
:1010E00005E00F013651040B01E06DD865B24FD019
:1010F0006250010B12E00F013651010B0EE096DF3A
:101100000001040E606F0401200E026F040E036FD5
:10111000080E016F006B8C0E00136250100B05E07F
:101120000F013651100B01E047D86250400B09E027
:101130000F013651400B05E066EC0EF0060E96EC02
:101140000CF06250200B05E00F013651200B01E03E
:1011500020D86250020B07E00F013651020B03E06A
:1011600067EC0EF0636A040E0001605D10E30F018E
:1011700036A70DD0DF6A040EDF5C09E262A607D055
:1011800064CF80F0030ED2DB29D8DF2AF4D7F3EF47
:101190000CF00F0126A10DD0BDEC0CF0EF50800833
:1011A00007E1CEDBEF50840803E1E7DB8C0EEF6E46
:1011B0002691050E96EF0CF00F013685040EB6DB76
:1011C000658264EF0EF0659265EC0EF00F013695C6
:1011D00062A403D0020EAADBFBD71200FD0E0001B1
:1011E000801519E17E0E8015E8407F0B040DF3CFCA
:1011F00063F0F4CF64F0000E6327040E642363C031
:1012000065F064C066F0657560EC0DF002E111EF09
:1012100009F022EF09F0FD0E8015040801E11AD84B
:1012200012008EDBEF50800B02E08ADBEF6A0001D8
:101230006F6B706B746B756B736B93D868EC0EF09F
:10124000DCEF0AF0020E0001705D02E166EF0BF0C8
:1012500059EF09F0C5DB74DBEF50400B01E0010EE4
:10126000DF6E00016B75080E605D0CE122C438FF73
:101270000F013851000803E20001100E02D00001F6
:10128000040E606F700513E152EC0DF0CDD9020E23
:1012900000016F5D03E154DB840E07D0DF5003E1F2
:1012A0004FDBC80E02D04CDB880EEF6E01D001D8A8
:1012B0009AD34DEC0DF0030EE126020E0001705D95
:1012C00026E16550100B23E058DBEE52EF50006E24
:1012D000016A080E00181BE1015019E160EC0DF0E5
:1012E00016E1BCDBEF50800B12E1B8DBCADBDF6A32
:1012F00088DB22E2DF508DDBDF50EA6A200FE96EE7
:10130000040EEA22E552E750EF6EDF2AF1D7706B48
:10131000BEDBEF6A040E6B19006E6CC001F0010EAB
:1013200000C0DBFF020E6CC0DBFF010EDBCFE9FF6C
:10133000020EDBCFEAFFEF6A000178AF0CD07B51E1
:101340007C1107E005D07CC0FAFF00017B51F96EEB
:10135000FADF0001789F030EE15C02E2E16AE552E8
:10136000FDD204012051600BE842E842E842E84225
:10137000E842000901E0120021510C0A43E00B0A87
:101380003FE00C0A31E0010A22E00B0A1EE0020AEB
:101390001CE0030A18E0080A10E0010A0CE00F0A3A
:1013A00008E0030A01E012000001738F080E606F6D
:1013B000120063EF0AF0BFEF0BF00001610E716FD6
:1013C000000E726F0CD09EEF0AF003EF0AF024516A
:1013D0000001716F726B620E7127000E72237381B0
:1013E000010E746F738F12000001738F040124517A
:1013F000EA6A620FE96E000EEA2222C4EFFF1200D1
:101400006AEF0EF0120049DB040EE126040122050A
:1014100010E120511F0B00090CE10001738F030E36
:101420000401215D04E10001010E7F6F02D0000183
:101430007F6B0401225141E120511F0B02083DE165
:1014400024510F0B000939E00001738F040124BF00
:1014500005D098DA670EE926000E04D093DA6B0EF9
:10146000E926000EC2DA030E215D03E16EDA840E76
:1014700023D024510F0B016A260F006E0F0E01229C
:10148000020E00C0DBFF030E01C0DBFF020EDBCF4C
:10149000E9FF030EDBCFEAFFEE90ED5224AF06D05A
:1014A00054DAEF6ADF7451DA400E06D04EDA880E55
:1014B000EF6EDF744ADAC80EEF6E040EE15C02E2F2
:1014C000E16AE5524BD2800E0401205D36E1000155
:1014D000C00E736F04012351030A1EE0010A09E0E4
:1014E000030A29E10001440E716F1D0E726F120E86
:1014F0001FD0A6DA1D0EF6261E0E93DA020E00018C
:10150000F76A7125F66E7251F7220900F5CF74F073
:101510000A00F5CF75F0120093DA1F0EF6261E0EA4
:1015200080DA71C0F6FF72C0F7FF0800F5500001C5
:10153000746F756B12000001736B12000BDA0401FB
:10154000286B296B20511F0B020A11E0030A0CE0E3
:10155000010A22E10001738F0401288100017F0547
:101560001BE10401288318D00001738F15D00001FE
:10157000738F040124BF05D005DA670EE926000E3B
:1015800004D000DA6B0EE926000E2FDADED9EF5018
:10159000040B02E0010E286F000173AF07D0280E84
:1015A000716F040E726F7381020E746F020EE15C34
:1015B00002E2E16AE552D2D16598000173BF07D01B
:1015C00078AF02D093DA28D062DA840E26D078BFC2
:1015D0002AD0040120AF23D0000174510401265DFC
:1015E000000175510401275904E226C474F027C490
:1015F00075F01AD80001010E706F91D9B8D9800E1C
:10160000EF6EBBD9EE52080EEF6EB7D93ADAB5D904
:10161000800EEF6E47DA94D9C80EEF6E120000010B
:1016200065DAC80EEF6E120095D90001080E745DE0
:10163000000E75590DE274C0DEFF75C0DDFF6F51FD
:1016400002E1010E03D06F0506E1020E6F6F03D0B9
:10165000080EDE6EDD6A74D9EF9272D9EF9070D900
:10166000010EDB50EF126CD9EE52DFCFEFFF000E10
:10167000DB50745F010EDB50755B280E7D6F040E2E
:101680007E6F73B10FD0E3D91BE071C0F6FF72C05B
:10169000F7FF712B000E72230800F5508ED9F3E28C
:1016A000DB06F1D7D4D90CE071C0E9FF72C0EAFFC4
:1016B000712B000E7223EF5080D9F4E2DB06F2D7D3
:1016C000020EE15C02E2E16AE55248D143D955D904
:1016D000EE52EFCFDFFFDFCF00F000500001795D69
:1016E000000E7A5903E279C0DFFF09D0DF50006EA7
:1016F000016AE850795D796F01507A597A6F010E6D
:10170000DB6ADF50F36E010EDBCFF4FFF350F45CC5
:1017100010E2010EDB507DD976C0E9FF77C0EAFF09
:10172000762B000E7723E552E750EF6E010EDB2A91
:10173000E8D7000ED8807955000E7A550CE2CFD943
:101740001CD9EF50400B03E189D9C80E02D086D9CD
:10175000880EEF6E0ED082D994D97B517C1107E0B0
:1017600005D07CC0FAFF00017B51F96EFADF000161
:10177000789F020EE15C02E2E16AE552EFD00001DF
:10178000738F12D9010EE66EE66AE66A620EE66EA5
:10179000000E9DD922C461F00401225104E1000130
:1017A000100E606F12000001200E606F6BEF0EF0E4
:1017B000D1D8000EDE6E040EDD6EECD8040DF350B1
:1017C000006E016A020E0F0B05E0D8900132003264
:1017D000E806FBE1D89000360136D8900036013695
:1017E000D9CFE9FFDACFEAFF0050EE260150ED2213
:1017F000ACD8EF9EFD0EDB5002E158D901D05BD989
:10180000EA22DECFEEFFDDCFEDFF9FD8EF9C9DD823
:10181000040EE926000EEA22EF8C020EE15C02E2E1
:10182000E16AE5529BD096D8FE0EDB50016A260F86
:10183000006E0F0EE0D8FD0EDB50E66E86D8E55246
:10184000E750EE6EED6AFD0EDBA402D0E66AF1D839
:10185000FD0EDBA203D0010EE66EEBD8020EE15CBA
:1018600002E2E16AE5527AD075D8FE0EDB5004E15F
:101870000ED9840EEF6E05D08DD8F5D88BD8010F18
:10188000F2D8020EE15C02E2E16AE55267D062D86A
:10189000FD0EDB5002E00FD901D008D9A6D855D8EB
:1018A00030D9FB0EDBCFEEFFFC0EDBCFEDFF4DD8CA
:1018B000EE52FA0EDBCFEFFF400E47D8E850EF169E
:1018C000880E43D8E850EF12FD0EDB5002E0F3D84B
:1018D00001D0ECD8EA22EF74DECF00F0DDCF01F0CA
:1018E00000C0F3FF01C0F4FF020EE15C02E2E16A16
:1018F000E55234D0D2D8010EF36EFC0EDB5004E07A
:10190000D890F336E806FCE1F31C006EFD0EDBCF49
:10191000E9FFFE0EDBCFEAFF0050EF16E3D09ED8C2
:10192000EE52080EEF6E9AD881EF0DF0E66E620E61
:10193000E66E0F0EE66EDEDFE552E552E55212006E
:101940006BC0E9FF6CC0EAFF1200DECFE9FFDDCF1C
:10195000EAFF1200A2D8020EE1261200E16EC2D008
:10196000FE0EEA6ADB34FE0BEA36E96E1200200E48
:10197000EE6E040EED6E2EEF0DF063C0E9FF64C055
:10198000EAFF120024510F0BE96EEA6AD890E9369B
:10199000EA361200FD0EDB50E824026EFE0EDB502C
:1019A000040DF35002241200000EE66EE66AE66AA9
:1019B000270EE66E0F0E67EF0DF0E66E7DC0E9FFB5
:1019C0007EC0EAFF7D2B000E7E23E552E750EF6ECE
:1019D000DF06010E1200280EEE6E040EED6E1200F0
:1019E0005CD8E6521200E5527DD0EA22EECFDEFF4F
:1019F000EDCFDDFF1200012200C0DEFF01C0DDFFE0
:101A00001200DF50006E016A080E005C000E0158E3
:101A10001200EA6A280FE96E040EEA22EF50E66E21
:101A20001200F7220900F5CF71F00A00F5CF72F02D
:101A30001200FE0EDBCFE6FFBBDEE552E5521200E0
:101A40002251F66EF76AD890F636F7361200D9CFE3
:101A5000E9FFDACFEAFFEE50ED10120065C0E9FFB2
:101A600066C0EAFF1200040DF3CF00F0F4CF01F0DE
:101A7000000E0026040EBFDF840E67DFE850EF1271
:101A800012003FD8200EEE6E040EED6E120047DFFE
:101A90006EDF8C0EEF6EA0EF0CF0D9CFE6FFE1CF3A
:101AA000D9FF12004DDF2DD8EBEF0CF059DF670E98
:101AB000E926000E120054DF6B0EE926000E12001C
:101AC0005CDFEF503C0BE842E8420D081200E66E86
:101AD000D0EC0FF0006E050EE15E005012001FDF2B
:101AE000EBEF0CF0E552E7CFD9FF1200020E706F5A
:101AF00027DFEE52EF6A24DFC80EEF6EF0DF2EEF25
:0C1B00000DF0020EE926000EEA22120091
:041B0C0014D91100D7
:101B1000D8CFE4FFE0CFE4FFE46E0DD9E550E5CF88
:101B2000E0FFE5CFD8FF100004D84FEC08F03BD819
:101B3000FCD7D9CFE6FFE1CFD9FF020EE1260F0E89
:101B4000C112580EDE6E020EDD6E9B8CDFCF00F0F0
:101B5000DF06010EDBCF01F001E2DB0600500110D1
:101B6000F5E10F014869496916EC08F00AD8020E40
:101B7000E15C02E2E16AE552E16EE552E7CFD9FFAE
:101B80001200FC0E8D16961693848150040B01E012
:101B9000010E0001856F8150040B01E0010E866F7C
:101BA0008F6B906B120051D8200E0001605D05E331
:101BB0006550020B01E0120001D8120000018F51A4
:101BC000901102E1000E08D08FC0E9FF90C0EAFF3B
:101BD000EF50800B01E0010E000918E118D8000950
:101BE00010E00401336B346B0001A151A12B0401FF
:101BF000356F88D8280E0001A15D08E1040EA16FA1
:101C000012000401336B346B356B7CD812008150A9
:101C1000040B01E0010E0001855D07E08150040B1B
:101C200001E0010E856F81A4010C000C8150040BB2
:101C300001E0010E0001865D07E08150040B01E028
:101C4000010E866F81A4010C000C0001A251A311AA
:101C500004E1100EA26F270EA36FA207000EA35B74
:101C600065A207D0A251A3112EE18D708DB013D0C3
:101C700027D00001605102E18D9022D0600502E181
:101C80008D8009D0020E605D02E18D8019D0040EB6
:101C9000605D03E18D908D821200100E605D06E1A3
:101CA0000001A251A3110FE18D700AD0200E605DDA
:101CB0000AE10001A251A31106E18D708DA002D0AE
:101CC0008D9212008D82120012001200120012007A
:101CD00013EF0FF012001A0EE66E010EE66E13EC13
:101CE0000CF0E552E552120065840001080E926F77
:101CF000070E936F9207000E935B92519311FAE1D6
:101D000065941200366B376B386B396B3A6B080E83
:101D1000E66E330EE66E040EE66E010EE66EE66EBD
:101D200047EC0CF0006E050EE15E0050F3CF8FF033
:101D3000F4CF90F01200DACFE4FFE652E552E5CF9F
:041D4000DAFF1200B4
:0C1D44001201000200000008D804550045
:101D500001000102000109022200010100C0320954
:101D60000400000103010100092111010001223FCB
:101D700000070581030800010403090434034D0032
:101D80006900630072006F00630068006900700002
:101D9000200054006500630068006E006F006C0056
:101DA0006F0067007900200049006E0063002E007C
:101DB0002E034B006500790062006F006100720025
:101DC00064002000440065006D006F00000000000A
:101DD00000000000000000000000000000000501FD
:101DE0000906A101050719E029E71500250175017C
:101DF000950881029501750881039505750105080F
:101E0000190129059102950175039103950675083D
:101E1000150025650507190029658100C0561D7844
:051E20001D7C1DB01D3A
:0A1E2600040120511F0B010801E028
:101E30001200245101E01200060E215D21E1235120
:101E4000230A1BE0010A0CE0030A1AE10001610504
:101E500017E10001680E716F1D0E726F090E09D037
:101E6000000161050DE10001DE0E716F1D0E726F44
:101E70003F0E746F756BC00E02D00001800E736F41
:101E800004012051600BE842E842E842E842E8429F
:101E9000010801E0120021510B0A2AE0080A1DE0A6
:101EA000090A15E0080A09E00B0A05E0080A01E042
:101EB00012007EEF0FF07FEF0FF000019E0E716FAA
:101EC000000E726F010E746F756BC10E0FD00001A2
:101ED000800E736F23C49EF0120000019F0E716F7D
:101EE000000E726F010E746F756B810E736F1200AE
:101EF0000001800E736F22C49FF0120012001200C6
:021F00001200CD
:0E1F02001E0EF66E100EF76E000EF86E000149
:101F10000900F550996F0900F5509A6F03E1996730
:101F200001D03DD00900F550946F0900F550956F30
:101F30000900F550966F09000900F550E96E090097
:101F4000F550EA6E090009000900F550976F090085
:101F5000F550986F09000900F6CF9BF0F7CF9CF081
:101F6000F8CF9DF094C0F6FF95C0F7FF96C0F8FF3C
:101F70000001975302E1985307E00900F550EE6E17
:101F80009707F8E29807F9D79BC0F6FF9CC0F7FFC8
:101F90009DC0F8FF00019907000E9A5BBFD71200A1
:101FA000FE0EE3CFE9FFFF0EE3CFEAFFE9CFF3FF39
:101FB000EACFF4FFFB0EE35003E1FC0EE35009E02F
:101FC000FB0EE30602E2FC0EE306FD0EE350EE6EAE
:041FD000F1D7120033
:0C1FD4001DEE00F02DEE00F0F86A049CF9
:101FE00081EC0FF003EC08F094EC0DF0FBD712003D
:0E1FF00000EE00F00E0EEE6AEA62FDD712005F
:01FFF800AA5E
:01FFF9000700
:01FFFA000DF9
:01FFFB00FF06
:01FFFC0063A1
:01FFFD00F80B
:01FFFE008181
:01FFFF00F110
:00000001FF
