:020000040000fa
:080000000002040000000000f2
:020000040000fa
:100400006f472100007f24000001880000000000e9
:100410000c00070060dd250001002000110007002e
:10042000000020000000e000020032000000020096
:10043000000000008e580200000000000040da00ba
:100440000000fe004440a900406821000000e000d8
:100450000300320000002000a00188004440a800f2
:100460000000060091018800800078000000eb0089
:1004700015003700e280400032a0b4009101ba00bc
:10048000e280400032a0b4009102ba00e280400055
:1004900032a0b4000002eb00472bde00f507b200eb
:1004a000602ce10004003a000059eb008301e900f0
:1004b000fdff3e00040037006128e100010032002a
:1004c0000082eb00040007001101ba000200e00006
:1004d000e8ff3a00000006003159ba008301e90044
:1004e0000c0032002159ba008301e90008003200f3
:1004f0000400e00003003a00e280400032a0b400b3
:10050000f5ff370011d9ba008301e900faff3a007c
:100510008100e800e180400032a0b4000000060045
:10052000020ab900001bb9000200b80081004200b5
:100530008100430000000600889fbe00e3044000e5
:100540000900a100808f54004a003600e38f540058
:1005500001003e0049002000724580000200e000da
:1005600002003200820078000c003700018b20006e
:1005700003003700908f5400230036008080e8008d
:10058000110078000000e000faff3a000f00370089
:10059000908f54001c0036008080e8001100780025
:1005a0000000e000faff3a0012017800018b200001
:1005b00003003700908f5400130036008080e8005d
:1005c00011007800820f5000faff3a006845800061
:1005d000890f5400010031000904780008007800f8
:1005e0005b0007000000e00004003a00890f54009f
:1005f000200032000804d100f5ff37000818780009
:100600001f000700d4ff3700110178009201780025
:1006100064805100890f50000300310012009000e7
:100620008008780007003700090041008008780042
:1006300092019000130098001100780012881400b5
:1006400009097800910078000100e00005003200ff
:10065000110090000000e000020032000180e8007c
:10066000010037000000eb00704588000280e800c0
:10067000010037000000eb004f04be000000060040
:100680000000e000310032008080e9009102780033
:10069000e38f52002d0036000508a3002b003a001e
:1006a000824580000200e00002003200828f50008c
:1006b00004003100020878008145880016003700e8
:1006c00003017800920190000300e0000200320074
:1006d000818f5100faff39001202780004004100b6
:1006e000808f500019003900810f500003003a003c
:1006f0000509420082007800070037000300e0008f
:100700000300320005804000808f51000f00390047
:100710009300980011019800110190000200e00080
:100720000a00320011804000820f500007003a009a
:10073000e08a20000008eb00110090001101780011
:100740009008410010009000900098000000060002
:100750000000e0000300340004000700e10f400047
:1007600001003a000000eb0000000600889fbe0078
:1007700080047800e04580000000e00003003a00bb
:10078000100007000000e0000a003500e04580008e
:100790000900e00002003a0000047800060037007b
:1007a0000004780009004000060007000000e00097
:1007b00001003d000084eb00080078004f04be00fb
:1007c00000000600800078000000e00004003a000d
:1007d000e08b2000e045880001017800060037002a
:1007e0000081eb0060472100808f500002003e0036
:1007f000e14588000001eb000200780000000600df
:100800006022b800060220000000d0008180d200e3
:100810000482d2008582d2000000a00002025200b1
:1008200083825a00030031000202420083824a00a0
:100830000000a1000603e900f3ff3a0000000600f3
:10084000839f68000100e00002003d00600010008e
:10085000e08018000300e00002003d00600111008c
:10086000e0811900e6ff07004f00e00002003b00b6
:0c08700060001000e0801800000006008e
:020000040000fa
:0200000401f009
:04000c00faff0000f7
:020000040000fa
:0200000401f009
:040010007dff000070
:020000040000fa
:0200000401f009
:040014007fff00006a
:020000040000fa
:10000800ae5e0000ae5e0000ae5e0000ae5e0000b8
:10001800ae5e0000ae5e0000ae5e0000ae5e0000a8
:10002800ae5e0000ae5e0000ae5e0000ae5e000098
:10003800ae5e0000ae5e0000ae5e0000485e0000ee
:1000480086440000ae5e0000ae5e0000ae5e0000ba
:10005800ae5e0000ae5e0000ae5e0000ae5e000068
:10006800ae5e0000ae5e0000ae5e0000ae5e000058
:10007800ae5e0000ae5e0000ae5e0000ae5e000048
:10008800ae5e0000ae5e0000ae5e0000ae5e000038
:10009800ae5e0000ae5e0000ae5e0000ae5e000028
:1000a800ae5e0000ae5e0000ae5e0000ae5e000018
:1000b800ae5e0000ae5e0000ae5e0000ae5e000008
:1000c800ae5e0000ae5e0000ae5e0000ae5e0000f8
:1000d800ae5e0000ae5e0000ae5e0000ae5e0000e8
:1000e800ae5e0000ae5e0000ae5e0000ae5e0000d8
:1000f800ae5e0000ae5e0000ae5e0000ae5e0000c8
:10010800ae5e0000ae5e0000ae5e0000ae5e0000b7
:10011800ae5e0000ae5e0000ae5e0000ae5e0000a7
:10012800ae5e0000ae5e0000ae5e0000ae5e000097
:10013800ae5e0000ae5e0000ae5e0000ae5e000087
:10014800ae5e0000ae5e0000ae5e0000ae5e000077
:10015800ae5e0000ae5e0000ae5e0000ae5e000067
:10016800ae5e0000ae5e0000ae5e0000ae5e000057
:10017800ae5e0000ae5e0000ae5e0000ae5e000047
:10018800ae5e0000ae5e0000ae5e0000ae5e000037
:10019800ae5e0000ae5e0000ae5e0000ae5e000027
:1001a800ae5e0000ae5e0000ae5e0000ae5e000017
:1001b800ae5e0000ae5e0000ae5e0000ae5e000007
:1001c800ae5e0000ae5e0000ae5e0000ae5e0000f7
:1001d800ae5e0000ae5e0000ae5e0000ae5e0000e7
:1001e800ae5e0000ae5e0000ae5e0000ae5e0000d7
:0801f800ae5e0000ae5e0000e7
:020000040000fa
:10020800ae5e0000ae5e0000ae5e0000ae5e0000b6
:10021800ae5e0000ae5e0000ae5e0000ae5e0000a6
:10022800ae5e0000ae5e0000ae5e0000ae5e000096
:10023800ae5e0000ae5e0000ae5e0000485e0000ec
:1002480086440000ae5e0000ae5e0000ae5e0000b8
:10025800ae5e0000ae5e0000ae5e0000ae5e000066
:10026800ae5e0000ae5e0000ae5e0000ae5e000056
:10027800ae5e0000ae5e0000ae5e0000ae5e000046
:10028800ae5e0000ae5e0000ae5e0000ae5e000036
:10029800ae5e0000ae5e0000ae5e0000ae5e000026
:1002a800ae5e0000ae5e0000ae5e0000ae5e000016
:1002b800ae5e0000ae5e0000ae5e0000ae5e000006
:1002c800ae5e0000ae5e0000ae5e0000ae5e0000f6
:1002d800ae5e0000ae5e0000ae5e0000ae5e0000e6
:1002e800ae5e0000ae5e0000ae5e0000ae5e0000d6
:1002f800ae5e0000ae5e0000ae5e0000ae5e0000c6
:10030800ae5e0000ae5e0000ae5e0000ae5e0000b5
:10031800ae5e0000ae5e0000ae5e0000ae5e0000a5
:10032800ae5e0000ae5e0000ae5e0000ae5e000095
:10033800ae5e0000ae5e0000ae5e0000ae5e000085
:10034800ae5e0000ae5e0000ae5e0000ae5e000075
:10035800ae5e0000ae5e0000ae5e0000ae5e000065
:10036800ae5e0000ae5e0000ae5e0000ae5e000055
:10037800ae5e0000ae5e0000ae5e0000ae5e000045
:10038800ae5e0000ae5e0000ae5e0000ae5e000035
:10039800ae5e0000ae5e0000ae5e0000ae5e000025
:1003a800ae5e0000ae5e0000ae5e0000ae5e000015
:1003b800ae5e0000ae5e0000ae5e0000ae5e000005
:1003c800ae5e0000ae5e0000ae5e0000ae5e0000f5
:1003d800ae5e0000ae5e0000ae5e0000ae5e0000e5
:1003e800ae5e0000ae5e0000ae5e0000ae5e0000d5
:0803f800ae5e0000ae5e0000e5
:020000040000fa
:10087c00000000001c0000007f0000001c000000b5
:10088c000f980000010000000fd0000001000000d4
:10089c000f080000020000000f40000002000000e2
:1008ac000578000002000000079400000200000020
:1008bc000ab00000020000000be80000020000007b
:1008cc000b20000003000000115800000300000082
:1008dc0010ac00000300000006e400000300000060
:1008ec000800000004000000081c000004000000c8
:1008fc000b380000040000000a7000000400000027
:10090c0006a800000400000008c400000400000059
:10091c0006e00000040000000bfc000004000000d6
:10092c000b340000050000000b6c000005000000fb
:10093c000ca40000050000000bdc0000050000000a
:10094c000c140000060000000b4c00000600000018
:10095c000b840000060000000bbc00000600000029
:10096c000cf40000060000000b2c00000700000037
:10097c00066400000700000006800000070000006d
:10098c000b9c0000070000000bd4000007000000c7
:10099c000b0c0000080000000a44000008000000d6
:1009ac00147c0000080000000ed0000008000000bd
:1009bc000d080000090000000d40000009000000b7
:1009cc000e780000090000000cb0000009000000c7
:1009dc000be80000090000000e2000000a000000d7
:1009ec00105800000a000000079000000a000000e8
:1009fc0007ac00000a0000000ec800000a0000004e
:100a0c000b0000000b000000133800000b0000006e
:100a1c00108c00000b0000000ec400000b00000046
:100a2c000dfc00000b0000000e3400000c00000058
:100a3c000d6c00000c0000000ba400000c0000006a
:100a4c000ddc00000c000000101400000d00000074
:100a5c00104c00000d000000148400000d0000007c
:100a6c000fd800000d0000000e1000000e0000005a
:100a7c000d4800000e000000078000000e00000072
:100a8c000b9c00000e00000008d400000e000000bb
:100a9c000cf000000e0000000b2800000f000000fe
:100aac00086000000f0000000b7c00000f0000002d
:100abc000cb400000f0000000aec00000f00000056
:100acc000c240000100000000b5c00001000000063
:100adc0007940000100000000cb000001000000093
:100aec000de80000100000000720000011000000bd
:100afc00063c0000110000000c5800001100000022
:100b0c00079000001100000014ac00001100000060
:100b1c000d000000120000000c3800001200000054
:100b2c000d700000120000000ca800001200000064
:100b3c000ae0000012000000091800001300000079
:100b4c0008500000130000000d6c000013000000a2
:100b5c000ca400001300000011dc000013000000c6
:100b6c000c300000140000000c68000014000000a1
:100b7c000ba000001400000008d8000014000000b6
:100b8c0006f400001400000008100000150000001e
:100b9c000c2c00001500000005640000150000007e
:100bac000000000000000000000000000000000039
:100bbc00000000000000000000080000000c000015
:100bcc00000e0000000f0000800f0000c00f00009e
:100bdc00e00f0000f00f0000f80f0000f00f000015
:100bec00e00f0000c00f0000800f0000000f00009d
:100bfc00000e0000000c00000008000000000000c7
:100c0c0000000000000000000000000000000000d8
:100c1c0000000000000000000000000000000000c8
:100c2c000000000000000000080000001800000098
:100c3c003800000078000000f8000000f801000007
:100c4c00f8030000f8070000f80f0000f807000098
:100c5c00f8030000f8010000f80000007800000024
:100c6c003800000018000000080000000000000020
:100c7c000000000000000000000000000000000068
:100c8c000000000000000000000000000000000058
:100c9c000000000000000000000000000000000048
:100cac00800000008000000080000000c0010000f7
:100cbc00c0010000c0010000e0030000e0030000e0
:100ccc00e0030000f0070000f0070000f007000050
:100cdc00f80f0000f80f0000f80f000000000000f3
:100cec0000000000000000000000000000000000f8
:100cfc0000000000000000000000000000000000e8
:100d0c0000000000000000000000000000000000d7
:100d1c00f80f0000f80f0000f80f0000f0070000bb
:100d2c00f0070000f0070000e0030000e003000003
:100d3c00e0030000c0010000c0010000c001000081
:100d4c008000000080000000800000000000000017
:100d5c000000000000000000000000000000000087
:100d6c000000000000000000000000000000000077
:100d7c000000000000000000000000000000000067
:100d8c000000000000000000000000000000000057
:100d9c000000000000000000000000000000000047
:100dac00080c00000c0c00000c0c00000c0c0000db
:100dbc000c0c00000c080000080000000c0c0000db
:100dcc000c0000000000000000000000000000000b
:100ddc000000000000000000000000000000000007
:100dec00cc000000cc000000cc000000cc000000c7
:100dfc00cc0000008c0000008c0000000000000003
:100e0c0000000000000000000000000000000000d6
:100e1c0000000000000000000000000000000000c6
:100e2c0000000000000000000000000000000000b6
:100e3c0000000000000000000000000000000000a6
:100e4c000000000000000000000000000000000096
:100e5c0000000000000000004002000060020000e2
:100e6c002002000020030000fc070000100100001d
:100e7c009001000090000000fe030000c80000007c
:100e8c00480000004c00000044000000640000001a
:100e9c000000000000000000000000000000000046
:100eac000000000000000000000000000000000036
:100ebc000000000000000000000000000000000026
:100ecc00000000006000000060000000f80300005b
:100edc006c03000066020000660000006e0000005b
:100eec007c000000f8010000e0010000600300003d
:100efc006003000062030000620300006601000052
:100f0c00fc00000060000000600000000000000019
:100f1c0000000000000000000000000000000000c5
:100f2c0000000000000000000000000000000000b5
:100f3c0000000000000000000000000000000000a5
:100f4c00000000000030000000380000100000001d
:100f5c006418000000c600000c000000c60400006d
:100f6c0000c60000060000004c03000000b80000a2
:100f7c0039000000806c000000c00000c6000000ba
:100f8c0060c6000000200000c600000030c6000053
:100f9c00001800004c0000000c380000000000009d
:100fac000000000000000000000000000000000035
:100fbc000000000000000000000000000000000025
:100fcc000000000000000000000000000000000015
:100fdc000000000000000000e001000030030000f1
:100fec00180300001803000018030000980100000b
:100ffc00f80000007000000078fe00006c1c00007f
:10100c00ce18000086190000061b0000060b00001d
:10101c00060e00000c1a0000f87100000000000021
:10102c0000000000000000000000000000000000b4
:10103c0000000000000000000000000000000000a4
:10104c000c0c00000c0c00000c0c00000c00000040
:10105c000000000000000000000000000000000084
:10106c000000000000000000000000000000000074
:10107c000000000040300000101800000c0c0000b4
:10108c000c0600000606000006060000060600001e
:10109c00060600000c0c00000c18000018300000b4
:1010ac0060000000000000000000000003060000cb
:1010bc000c0c000018180000183000003030000034
:1010cc0030300000303000003030000018180000c4
:1010dc00080c0000040600000100000000000000e5
:1010ec0000000000000000000000000020000000d4
:1010fc002000000022010000ae0300007800000078
:10110c0070000000ae030000260300002000000069
:10111c0020000000000000000000000000000000a3
:10112c0000000000000000000000000000000000b3
:10113c0000000000000000000000000000000000a3
:10114c000000000000000000000000000000000093
:10115c000000000000000000000000000000000083
:10116c000000000000000000000000000000000073
:10117c000000000000000000300000003000000003
:10118c003000000030000000fe03000031000000c1
:10119c0030000000300000003000000000000000b3
:1011ac000000000000000000000000000000000033
:1011bc000000000000000000000000000000000023
:1011cc000000000000000000000000000000000013
:1011dc000000000000000000000000000000000003
:1011ec0000000000001c00001a1800000808000095
:1011fc0004000000000000000000000000000000df
:10120c0000000000000000000000000000000000d2
:10121c0000000000007e0000000000000000000044
:10122c0000000000000000000000000000000000b2
:10123c0000000000000000000000000000000000a2
:10124c000000000000000000000000000000000092
:10125c00000000000c0c00000c000000000000005e
:10126c000000000000000000000000000000000072
:10127c000006000000030000000300000001000055
:10128c00800100008001000080000000c000000010
:10129c00c0000000600000006000000020000000a2
:1012ac0030000000300000001000000018000000aa
:1012bc0018000000080000000c0000000c000000ea
:1012cc000600000006000000020000000000000004
:1012dc000000000000000000000000000000000002
:1012ec0000000000000000000000000000000000f2
:1012fc0000000000f0000000c80100008c0100009c
:10130c00840300000603000006030000060300002f
:10131c00060300000603000006030000060100009f
:10132c000c0100008c0000007000000000000000a8
:10133c0000000000000000000000000000000000a1
:10134c000000000000000000000000000000000091
:10135c000000000000000000000000000000000081
:10136c0060000000780000006600000060000000d3
:10137c0060000000600000006000000060000000e1
:10138c0060000000600000006000000060000000d1
:10139c006000000060000000fc0300000000000082
:1013ac000000000000000000000000000000000031
:1013bc000000000000000000000000000000000021
:1013cc000000000000000000000000000000000011
:1013dc0000000000f0000000880300000c03000077
:1013ec0004030000000300008001000080010000e5
:1013fc00c000000060000000200000003000000071
:10140c00180200000c020000fe03000000000000a7
:10141c0000000000000000000000000000000000c0
:10142c0000000000000000000000000000000000b0
:10143c0000000000000000000000000000000000a0
:10144c0000000000f8000000c4010000860100004c
:10145c00800100008000000040000000f00000004f
:10146c0080010000000300000003000000030000e6
:10147c0000030000820100007c000000000000005e
:10148c000000000000000000000000000000000050
:10149c000000000000000000000000000000000040
:1014ac000000000000000000000000000000000030
:1014bc0080010000c0010000c0010000a00100007c
:1014cc00b0010000900100009801000088010000ac
:1014dc008401000086010000fe070000800100006e
:1014ec008001000080010000e00700000000000007
:1014fc0000000000000000000000000000000000e0
:10150c0000000000000000000000000000000000cf
:10151c0000000000000000000000000000000000bf
:10152c0000000000f80300000c0000000c0000009c
:10153c000400000004000000fc0000008401000016
:10154c000003000000030000000300000003000083
:10155c0000010000860100007c000000000000007b
:10156c00000000000000000000000000000000006f
:10157c00000000000000000000000000000000005f
:10158c00000000000000000000000000000000004f
:10159c008001000060000000300000001800000016
:1015ac000c00000004000000f60000008e0100009a
:1015bc0006030000060300000603000006030000fb
:1015cc000c0100008c010000f00000000000000085
:1015dc0000000000000000000000000000000000ff
:1015ec0000000000000000000000000000000000ef
:1015fc0000000000000000000000000000000000df
:10160c0000000000fc0300000203000002010000c7
:10161c00000100008001000080000000c0000000fc
:10162c0040000000600000002000000030000000be
:10163c00300000001800000008000000000000004e
:10164c00000000000000000000000000000000008e
:10165c00000000000000000000000000000000007e
:10166c00000000000000000000000000000000006e
:10167c0000000000f80000008c03000006030000ce
:10168c00060300000e0100009c000000f0010000a9
:10169c008803000004070000060600000606000090
:1016ac00060600000c030000f8000000000000001b
:1016bc00000000000000000000000000000000001e
:1016cc00000000000000000000000000000000000e
:1016dc0000000000000000000000000000000000fe
:1016ec0000000000f00000008c01000084010000ec
:1016fc0006030000060300000603000006030000ba
:10170c008c03000078030000000100008001000041
:10171c00c000000060000000300000000c00000061
:10172c0000000000000000000000000000000000ad
:10173c00000000000000000000000000000000009d
:10174c000000000000000000000c00000c0c000069
:10175c000000000000000000000000000c0c000065
:10176c000c00000000000000000000000000000061
:10177c00000000000000000000000000000000005d
:10178c00000c00000c0c0000000000000000000029
:10179c0000000000001c00001a18000008080000df
:1017ac000400000000000000000000000000000029
:1017bc00000000000000000000000000000000001d
:1017cc00000000000000000000000000000000000d
:1017dc0000030000c0030000780000001e000000a1
:1017ec000e00000038000000e001000000030000c3
:1017fc0000000000000000000000000000000000dd
:10180c0000000000000000000000000000000000cc
:10181c0000000000000000000000000000000000bc
:10182c0000000000000000000000000000000000ac
:10183c00000000000000000000000000000000009c
:10184c000000000000000000fe030000000000008b
:10185c000000000000000000fe030000000000007b
:10186c00000000000000000000000000000000006c
:10187c00000000000000000000000000000000005c
:10188c00000000000000000000000000000000004c
:10189c00000000000000000000000000000000003c
:1018ac00000000000000000000000000000000002c
:1018bc00060000001e000000f00000008003000085
:1018cc00c0030000700000001e00000002000000b9
:1018dc0000000000000000000000000000000000fc
:1018ec0000000000000000000000000000000000ec
:1018fc0000000000000000000000000000000000dc
:10190c000000000000000000f8000000cc01000006
:10191c0086010000860100008001000080010000ab
:10192c00c0000000c000000060000000700000005b
:10193c00300000003000000030000000000000000b
:10194c0030000000300000003000000000000000fb
:10195c00000000000000000000000000000000007b
:10196c00000000000000000000000000000000006b
:10197c00000000000000000000000000000000005b
:10198c00000000000000000000000000003f00000c
:10199c0000c00000e00000003080000001180000d2
:1019ac0080030000082f0000038c000038070000a3
:1019bc00c43000000646000030060000663000000f
:1019cc000666000030060000663000000666000067
:1019dc0030020000ce30000003cc00003c010000bf
:1019ec009ce3000000180000000000003000000024
:1019fc0001e00000c0000000803f0000000000007b
:101a0c0000000000000000000000000000000000ca
:101a1c0000000000000000000000000000000000ba
:101a2c00000000000000000080000000c00000006a
:101a3c00c0000000e0010000a00100002003000035
:101a4c00300300001003000010060000f80700002f
:101a5c0008060000080c00000c0c0000040c000030
:101a6c001f3e00000000000000000000000000000d
:101a7c00000000000000000000000000000000005a
:101a8c00000000000000000000000000000000004a
:101a9c000000000000000000fe0100000d07000027
:101aac000c0600000c0600000c0600000c010000e7
:101abc00fc0300000c0700000c0e00000c0c0000d6
:101acc000c0c00000c0c00000c0c00000c060000b0
:101adc00ff010000000000000000000000000000fa
:101aec0000000000000000000000000000000000ea
:101afc0000000000000000000000000000000000da
:101b0c000000000000000000c0070000300c0000c6
:101b1c00080000000c00000004000000060000009b
:101b2c000600000006000000060000000600000091
:101b3c00060000000c0000001c0800003804000027
:101b4c00e0030000000000000000000000000000a6
:101b5c000000000000000000000000000000000079
:101b6c000000000000000000000000000000000069
:101b7c000000000000000000fe0100000d07000046
:101b8c000c0e00000c0c00000c1800000c180000cf
:101b9c000c1800000c1800000c1800000c180000a9
:101bac000c0800000c0c00000c0600000c030000dc
:101bbc00ff01000000000000000000000000000019
:101bcc000000000000000000000000000000000009
:101bdc0000000000000000000000000000000000f9
:101bec000000000000000000ff0300000c020000d9
:101bfc000c0200000c0000000c0000000c000000a7
:101c0c00fc0100008c0000000c0000000c00000027
:101c1c000c0000000c0000000c0400000c04000080
:101c2c00ff070000000000000000000000000000a2
:101c3c000000000000000000000000000000000098
:101c4c000000000000000000000000000000000088
:101c5c000000000000000000ff0300000c02000068
:101c6c000c0200000c0000000c0000000c00000036
:101c7c00fc0100008c0000000c0000000c000000b7
:101c8c000c0000000c0000000c0000000c00000018
:101c9c003f000000000000000000000000000000f9
:101cac000000000000000000000000000000000028
:101cbc000000000000000000000000000000000018
:101ccc000000000000000000c0070000300c000005
:101cdc00080000000c0000000400000006000000da
:101cec000600000006000000061f0000060c0000a5
:101cfc00060c00000c0c00000c0c0000180c000072
:101d0c00e0030000000000000000000000000000e4
:101d1c0000000000000000000000000000000000b7
:101d2c0000000000000000000000000000000000a7
:101d3c0000000000000000003f7e00000c180000b6
:101d4c000c1800000c1800000c1800000c180000f7
:101d5c000c180000fc1f00000c1800000c180000f0
:101d6c000c1800000c1800000c1800000c180000d7
:101d7c003f7e00000000000000000000000000009a
:101d8c000000000000000000000000000000000047
:101d9c000000000000000000000000003f0c0000ec
:101dac000c0c00000c0c00000c0c00000c0c0000c7
:101dbc000c0c00000c0c00003f00000000000000a8
:101dcc000000000000000000000000000000000007
:101ddc00000000007e180000181800001818000001
:101dec001818000018180000181800001818000027
:101dfc001818000008040000030000000000000098
:101e0c0000000000000000000000000000000000c6
:101e1c0000000000000000003f1f00000c06000046
:101e2c000c0300008c010000cc0000004c000000f2
:101e3c002c0000003c0000006c000000cc000000f6
:101e4c008c0100000c0300000c0700000c0e0000bd
:101e5c003f3c0000000000000000000000000000fb
:101e6c000000000000000000000000000000000066
:101e7c000000000000000000000000000000000056
:101e8c0000000000000000003f0000000c000000fb
:101e9c000c0000000c0000000c0000000c00000006
:101eac000c0000000c0000000c0000000c000000f6
:101ebc000c0000000c0000000c0400000c040000de
:101ecc00ff07000000000000000000000000000000
:101edc0000000000000000000000000000000000f6
:101eec0000000000000000000000000000000000e6
:101efc0000000000000000000000000000000000d6
:101f0c00000000001ec0000003180000c00100000b
:101f1c0038e00000013c0000a00100002ca00000f3
:101f2c00016c0000b00100006c90000001cc0000be
:101f3c0098010000cc880000018c00008901000091
:101f4c008c8d0000010c0000850100000c87000046
:101f5c00010c0000830100001ee2000003000000e1
:101f6c000000000000000000000000000000000065
:101f7c000000000000000000000000000000000055
:101f8c000000000000000000000000000000000045
:101f9c000000000000000000000000000000000035
:101fac000ffc00000c3000001c3000003c30000026
:101fbc006c3000004c300000cc3000008c31000044
:101fcc000c3300000c3600000c3600000c3c0000fa
:101fdc000c3800000c3800003f30000000000000fe
:101fec0000000000000000000000000000000000e5
:101ffc0000000000000000000000000000000000d5
:10200c0000000000000000000000000000000000c4
:10201c00e003000010060000080c00000c0c00008f
:10202c00041800000618000006180000061800002e
:10203c000618000006180000060800000c0c000032
:10204c000c04000018020000f00100000000000069
:10205c000000000000000000000000000000000074
:10206c000000000000000000000000000000000064
:10207c000000000000000000000000000000000054
:10208c00fe0100000d0700000c0e00000c0c0000ff
:10209c000c0c00000c0c00000c0600000c070000df
:1020ac00fc0100000c0000000c0000000c00000003
:1020bc000c0000000c0000003f00000000000000bd
:1020cc000000000000000000000000000000000004
:1020dc0000000000000000000000000000000000f4
:1020ec0000000000000000000000000000000000e4
:1020fc00e003000010060000080c00000c0c0000af
:10210c00041800000618000006180000061800004d
:10211c000618000006180000060800000c0c000051
:10212c000c04000018060000e00100000003000091
:10213c000006000000380000000000000000000055
:10214c000000000000000000000000000000000083
:10215c000000000000000000000000000000000073
:10216c00fe0100000d0300000c0600000c06000030
:10217c000c0600000c0600008c030000fc000000a4
:10218c00cc000000cc0000008c0100000c0300000f
:10219c000c0300000c0600003f1c000000000000b7
:1021ac000000000000000000000000000000000023
:1021bc000000000000000000000000000000000013
:1021cc000000000000000000000000000000000003
:1021dc00f80000008c010000060000000600000062
:1021ec000e0000003e000000fc000000f0010000aa
:1021fc00c003000080030000000300000203000085
:10220c0002010000860100007c00000000000000bc
:10221c0000000000000000000000000000000000b2
:10222c0000000000000000000000000000000000a2
:10223c000000000000000000000000000000000092
:10224c00ff0f000061080000610800006000000042
:10225c0060000000600000006000000060000000f2
:10226c0060000000600000006000000060000000e2
:10227c006000000060000000f80100000000000099
:10228c000000000000000000000000000000000042
:10229c000000000000000000000000000000000032
:1022ac000000000000000000000000000000000022
:1022bc003ffc00000c3000000c3000000c30000023
:1022cc000c3000000c3000000c3000000c30000012
:1022dc000c3000000c3000000c3000000c30000002
:1022ec0018180000300c0000e0070000000000008f
:1022fc0000000000000000000000000000000000d2
:10230c0000000000000000000000000000000000c1
:10231c0000000000000000000000000000000000b1
:10232c001f7c00000c1000000c1800001818000096
:10233c0018080000180c00003004000030040000e5
:10234c00600600006002000060020000c003000094
:10235c00c0010000c001000080000000000000006f
:10236c000000000000000000000000000000000061
:10237c000000000000000000000000000000000051
:10238c000000000000000000000000000000000041
:10239c000000000000000000000000001f8400008e
:1023ac000f0c0000060200000c060000020c0000de
:1023bc000e0300000c0f00000118000009010000c2
:1023cc0018190000019800001901000098900000f5
:1023dc0001900000b0000000f0b0000000700000a0
:1023ec00e000000070e0000000600000e000000071
:1023fc002040000000000000000000000000000071
:10240c0000000000000000000000000000000000c0
:10241c0000000000000000000000000000000000b0
:10242c0000000000000000000000000000000000a0
:10243c0000000000000000003f3e00000c0c0000fb
:10244c001804000038060000300300006001000092
:10245c00c0010000c0010000e001000020030000ea
:10246c003007000010060000180c00000c180000cb
:10247c003f3e0000000000000000000000000000d3
:10248c000000000000000000000000000000000040
:10249c000000000000000000000000000000000030
:1024ac000000000000000000073e00000c0c0000c3
:1024bc001804000018060000300200003003000071
:1024cc00e0010000e0010000c0000000c0000000be
:1024dc00c0000000c0000000c0000000c0000000f0
:1024ec00f0030000000000000000000000000000ed
:1024fc0000000000000000000000000000000000d0
:10250c0000000000000000000000000000000000bf
:10251c000000000000000000fc070000040e00009a
:10252c00020300008003000080010000c0000000d6
:10253c00c0000000600000007000000030000000cf
:10254c0018000000180000000c0800000e0c000021
:10255c00fe0700000000000000000000000000006a
:10256c00000000000000000000000000000000005f
:10257c00000000007e0600000606000006060000b3
:10258c00060600000606000006060000060600000f
:10259c0006060000060600000606000006060000ff
:1025ac007e000000000000000000000000000000a1
:1025bc0002000000060000000600000004000000fd
:1025cc000c000000080000001800000018000000bb
:1025dc00100000003000000030000000200000005f
:1025ec006000000040000000c0000000c0000000bf
:1025fc00800000008001000080010000000100004c
:10260c0000030000000200000006000000000000b3
:10261c000000000000000000000000003f3000003f
:10262c00303000003030000030300000303000001e
:10263c00303000003030000030300000303000000e
:10264c0030300000303000003f000000000000007f
:10265c00000000000000000000000000400000002e
:10266c0060000000f0000000d0000000d00000006e
:10267c0098010000880100000c0300000403000016
:10268c00040300000206000000000000000000002f
:10269c00000000000000000000000000000000002e
:1026ac00000000000000000000000000000000001e
:1026bc00000000000000000000000000000000000e
:1026cc0000000000000000000000000000000000fe
:1026dc0000000000000000000000000000000000ee
:1026ec0000000000000000000000000000000000de
:1026fc0000000000000000000000000000000000ce
:10270c0000000000000000000000000000000000bd
:10271c00000000000000000000000000fe070000a8
:10272c00000000000000000000000000000000009d
:10273c000000000000000000070600000c0800006c
:10274c00100000000000000000000000000000006d
:10275c00000000000000000000000000000000006d
:10276c00000000000000000000000000000000005d
:10277c00000000000000000000000000000000004d
:10278c00000000000000000000000000000000003d
:10279c00f00000008c0100008601000080010000a8
:1027ac00c0010000f80100008c010000860100004f
:1027bc0086010000c6010000bc07000000000000fc
:1027cc0000000000000000000000000000000000fd
:1027dc0000000000000000000000000000000000ed
:1027ec00000000000c0000000f0000000c000000b6
:1027fc000c0000000c0000000c0000000c0000009d
:10280c00cc0100002c0300001c0700000c0600008b
:10281c000c0600000c0600000c0600000c06000064
:10282c000c0200001c010000f00000000000000081
:10283c00000000000000000000000000000000008c
:10284c00000000000000000000000000000000007c
:10285c00000000000000000000000000000000006c
:10286c00000000000000000000000000000000005c
:10287c00e0030000180300000c000000040000003e
:10288c000600000006000000060000000600000024
:10289c000c0000001c020000f00100000000000011
:1028ac00000000000000000000000000000000001c
:1028bc00000000000000000000000000000000000c
:1028cc000000000000030000c00300000003000033
:1028dc0000030000000300000003000000030000e0
:1028ec00f0030000880300000c0300000603000046
:1028fc0006030000060300000603000006030000a8
:10290c000c030000cc0b0000380700000000000096
:10291c0000000000000000000000000000000000ab
:10292c00000000000000000000000000000000009b
:10293c00000000000000000000000000000000008b
:10294c00000000000000000000000000000000007b
:10295c00e001000018030000040300000403000061
:10296c00fe03000006000000060000000600000048
:10297c000c0000001c020000f00100000000000030
:10298c00000000000000000000000000000000003b
:10299c0000000000000000000000000000600000cb
:1029ac00301800000c0c00000c0c00007f0c000018
:1029bc000c0c00000c0c00000c0c00000c0c0000ab
:1029cc003f000000000000000000000000000000bc
:1029dc0000000000000000000000000000000000eb
:1029ec0000000000000000000000000000000000db
:1029fc000000000000000000f80c00008c07000034
:102a0c000603000006030000060300008c01000012
:102a1c00f8000000180000000c000000fc00000092
:102a2c00f8070000cc0f0000060c0000030c00009f
:102a3c000304000006020000fc010000000000007e
:102a4c000000000000000000000000000c0000006e
:102a5c000f0000000c0000000c0000000c00000037
:102a6c000c0000000c0000008c0300006c06000041
:102a7c001c0600000c0600000c0600000c060000f2
:102a8c000c0600000c0600000c0600000c060000f2
:102a9c00bf1f00000000000000000000000000004c
:102aac00000000000000000000000000000000001a
:102abc000000000000000000000c00000c0c0000e6
:102acc00000000000c0f00000c0c00000c0c0000af
:102adc000c0c00000c0c00003f000000000000007b
:102aec0000000000000000000000000000000000da
:102afc00000c00000c0c0000000000000c0f00008b
:102b0c000c0c00000c0c00000c0c00000c0c000059
:102b1c000c0c00000c04000004020000010000007a
:102b2c000000000000000000000000000c0000008d
:102b3c000f0000000c0000000c0000000c00000056
:102b4c000c0000000c0000008c0f00000c010000b9
:102b5c008c0000006c0000003c0000006c000000c9
:102b6c006c000000cc0000008c0100000c03000085
:102b7c001f0e00000000000000000000000000001c
:102b8c000000000000000000000000000000000039
:102b9c0000000000000c00000f0c00000c0c0000ea
:102bac000c0c00000c0c00000c0c00000c0c0000b9
:102bbc000c0c00000c0c00003f000000000000009a
:102bcc0000000000000000000000000000000000f9
:102bdc0000000000000000000000000000000000e9
:102bec0000000000000000000000000000000000d9
:102bfc0000000000000000000000000000000000c9
:102c0c00000000008ec30000016d000036030000c0
:102c1c001c0e0000030c0000060300000c06000054
:102c2c00030c0000060300000c060000030c00005f
:102c3c00060300000c060000030c00000603000055
:102c4c00bfdf00000f0000000000000000000000cb
:102c5c000000000000000000000000000000000068
:102c6c000000000000000000000000000000000058
:102c7c000000000000000000000000000000000048
:102c8c000000000000000000000000000000000038
:102c9c0000000000000000008e0300006d06000024
:102cac001c0600000c0600000c0600000c060000c0
:102cbc000c0600000c0600000c0600000c060000c0
:102ccc00bf1f00000000000000000000000000001a
:102cdc0000000000000000000000000000000000e8
:102cec0000000000000000000000000000000000d8
:102cfc0000000000000000000000000000000000c8
:102d0c000000000000000000f0000000880300003c
:102d1c00040300000606000006060000060600007c
:102d2c0006060000060600000c0200001c01000054
:102d3c00f000000000000000000000000000000097
:102d4c000000000000000000000000000000000077
:102d5c000000000000000000000000000000000067
:102d6c000000000000000000000000000000000057
:102d7c0000000000000000008e0300006d06000043
:102d8c001c0e00000c0c00000c0c00000c0c0000c5
:102d9c000c0c00000c0400000c0400001c020000d1
:102dac00ec0100000c0000000c0000000c00000006
:102dbc000c0000000c0000003f00000000000000b0
:102dcc0000000000000000000000000000000000f7
:102ddc0000000000000000000000000000000000e7
:102dec000000000000000000f0020000880300005a
:102dfc000c0300000603000006030000060300009d
:102e0c0006030000060300000c0300008c03000006
:102e1c007803000000030000000300000003000022
:102e2c000003000000030000c00f000000000000c1
:102e3c000000000000000000000000000000000086
:102e4c000000000000000000000000000000000076
:102e5c000000000000000000cc010000ef010000a9
:102e6c001c0100001c0000000c0000000c00000005
:102e7c000c0000000c0000000c0000000c00000016
:102e8c003f000000000000000000000000000000f7
:102e9c000000000000000000000000000000000026
:102eac000000000000000000000000000000000016
:102ebc000000000000000000000000000000000006
:102ecc0000000000000000007c0000006600000014
:102edc00060000000e0000003c000000780000001e
:102eec00e0000000c0000000c20000004200000032
:102efc003e00000000000000000000000000000088
:102f0c0000000000000000000000000000000000b5
:102f1c00000000000000000000000000080c000091
:102f2c000c0c0000fe0d00000c0c00000c0c000042
:102f3c000c0c00000c8c000078000000000000005d
:102f4c000000000000000000000000000000000075
:102f5c000000000000000000000000000000000065
:102f6c000000000000000000000000000000000055
:102f7c000c0600008f0700000c0600000c06000079
:102f8c000c0600000c0600000c0600000c060000ed
:102f9c000c0600008c170000780e000000000000ea
:102fac000000000000000000000000000000000015
:102fbc000000000000000000000000000000000005
:102fcc0000000000000000000000000000000000f5
:102fdc0000000000000000000000000000000000e5
:102fec001f0f00000c0200000c0200000c0100007e
:102ffc00180100009801000090000000b0000000d3
:10300c00f000000060000000600000000000000004
:10301c0000000000000000000000000000000000a4
:10302c000000000000000000000000000000000094
:10303c000000000000000000000000000000000084
:10304c000000000000000000000000000000000074
:10305c000000000000000000000000000000000064
:10306c00000000001fe1000001040000430000000c
:10307c000c430000008c0000420000008866000039
:10308c000088000026000000582c000000580000aa
:10309c002c000000501c0000003000001800000044
:1030ac0030180000000000000000000000000000cc
:1030bc000000000000000000000000000000000004
:1030cc0000000000000000000000000000000000f4
:1030dc0000000000000000000000000000000000e4
:1030ec0000000000000000000000000000000000d4
:1030fc0000000000000000009f0f00000c03000007
:10310c0018010000b000000070000000600000001a
:10311c00f000000098010000080300000407000004
:10312c009f0f0000000000000000000000000000e5
:10313c000000000000000000000000000000000083
:10314c000000000000000000000000000000000073
:10315c000000000000000000000000000000000063
:10316c0000000000000000001f0f00000c02000017
:10317c000c0200000c0100001801000018010000f6
:10318c0090000000b0000000f000000060000000a3
:10319c006000000060000000200000003000000013
:1031ac00100000000f0000000700000000000000ed
:1031bc000000000000000000000000000000000003
:1031cc0000000000000000000000000000000000f3
:1031dc000000000000000000fc0300008201000061
:1031ec00c2000000c00000006000000030000000c1
:1031fc0030000000180000000c0200000c0200005f
:10320c00fe030000000000000000000000000000b1
:10321c0000000000000000000000000000000000a2
:10322c000000000080400000203000003030000022
:10323c003030000030300000180c00003a30000034
:10324c0030300000303000003030000030600000c2
:10325c008000000000000000000c00000c0c0000be
:10326c000c0c00000c0c00000c0c00000c0c0000f2
:10327c000c0c00000c0c00000c0c00000c0c0000e2
:10328c000c0c00000c0c00000c0c000000000000ea
:10329c0000000000010600000c0c00000c0c0000eb
:1032ac000c0c00000c0c00001c780000180c00002a
:1032bc000c0c00000c0c00000c0c000004020000b4
:1032cc0001000000000000000000000000000000f1
:1032dc0000000000000000000000000000000000e2
:1032ec0000000000000000000000000000000000d2
:1032fc0000000000380400007c040000e203000021
:10330c00c2010000000000000000000000000000ee
:10331c0000000000000000000000000000000000a1
:10332c000000000000000000000000000000000091
:10333c000000000000000000000000000000000081
:10334c00001e000002020000020200000202000047
:10335c000202000002020000020200000202000051
:10336c001e00000000000000000000000000000033
:10337c00000000003e840000434100004c49000066
:10338c004252000041540000494f00004e00000022
:10339c0033200000746f0000756300006865000046
:1033ac00732000006c650000667400000070000063
:1033bc00726f0000636500006475000072650000a8
:1033cc002e00000052450000504500004154000002
:1033dc00207400006865000020630000616c000030
:1033ec006962000072610000746900006f6e000079
:1033fc00007000007265000073730000204d000027
:10340c00434c000052200000726500007365000000
:10341c00742800005331000029200000746f000054
:10342c00004800006f6c0000642000005333000063
:10343c002062000075740000746f00006e200000a4
:10344c00616e000064000000636f00006e74000089
:10345c00696e0000756500002e000000546f0000be
:10346c007563000068200000736300007265000043
:10347c00656e0000207400006f000000627900008f
:10348c0020610000727200006f770000732e000044
:10349c0000610000742000007468000065200000ca
:1034ac00706f000073690000746900006f6e00009b
:1034bc0073200000736800006f7700006e0000003e
:1034cc00546f000075630000687000006f690000a5
:1034dc006e7400007320000045580000414300004a
:1034ec00544c00005900000073630000726500002a
:1034fc00656e000020630000616c000069620000d2
:10350c0072610000746900006f6e00002e000000f4
:10351c0050650000726600006f7200006d6900005b
:10352c006e670000207400006f7500006368000077
:10353c00004900004d5000004f5200005441000063
:10354c004e5400002e0000004c4500004654000074
:10355c0000520000494700004854000000000000e1
:10356c0000000000fc25000000000000000000002e
:08357c00c21a0000000000006b
:020000040000fa
:10358400000400002d0000007e0000002010000058
:103594008228000082300000615000000098000082
:1035a40000c00000e749000000e8000000f8000047
:1035b4007194000079ce00005def0000def700009a
:1035c400bfff0000feff0000ffff0000ffff000040
:1035d400ffff0000ffff0000ffff0000ffff0000ef
:1035e400ffff0000ffff0000ffff0000ffff0000df
:1035f400ffff0000ffff0000ffff0000ffff0000cf
:10360400ffff0000ffff0000ffff0000ffff0000be
:10399400ffff0000ffff0000ffff0000bccb0000a2
:1039a400fcff0000ffff0000ffff0000ffff00001e
:1039b400ffff0000ffff0000ffff0000ffff00000b
:1039c400ffff0000ffff0000ffff0000ffff0000fb
:1039d400ffff0000ffff0000ffff0000ffff0000eb
:1039e400ffff0000ffff0000ffff0000ffff0000db
:1039f400ffff0000ffff0000ffff0000ffff0000cb
:103a0400ffff0000ffff0000ffff0000ffff0000ba
:103a1400ffff0000ffff0000ffcf0000fcff0000dd
:103a2400ffff0000ffff0000ffff0000ffff00009a
:103a3400ffff0000ffff0000ffff0000ffff00008a
:103a4400ffff0000ffff0000ffff0000ffff00007a
:103a5400ffff0000ffff0000ffff0000ffff00006a
:103a6400ffff0000ffff0000ffff0000ffff00005a
:103a7400ffff0000ffff0000ffff0000ffff00004a
:103a8400ffff0000ffff0000ffff0000ffff00003a
:103a9400ffff0000ffff0000ffff0000ffff00002a
:103aa400ffff0000ffff0000ffff0000ffff00001a
:103ab400ffff0000ffff0000ffff0000ffff00000a
:103ac400ffff0000ffff0000ffff0000ffff0000fa
:103ad400ffff0000ffff0000ffff0000ffff0000ea
:103ae400ffff0000ffff0000ffff0000ffff0000da
:103af400ffff0000ffff0000ffff0000ffff0000ca
:103b0400ffff0000ffaa0000ffff0000ffff00000e
:103b1400ffff0000ffff0000faff0000ffff0000ae
:103b2400ffff0000ffff0000ffff0000ffff000099
:103b3400ffff0000ffff0000ffff0000ffff000089
:103b4400ffff0000ffff0000ffff0000ffff000079
:103b5400ffff0000ffff0000ffff0000ffff000069
:103b6400ffff0000ffff0000ffff0000ffff000059
:103b7400ffff0000ffff0000ffff0000ffff000049
:103b8400ffff000006910000f9ff0000ffff0000a6
:103b9400ffff0000ff160000f9ff0000ffff000018
:103ba400ffff0000ffff0000ffff0000ffff000019
:103bb400ffff0000ffff0000ffff0000ffff000009
:103bc400ffff0000ffff0000ffff0000ffff0000f9
:103bd400ffff0000ffff0000ffff0000ffff0000e9
:103be400ffff0000ffff0000ffff0000ffff0000d9
:103bf400ffff0000ffff0000ffff0000ffff0000c9
:103c0400ff6c00004403000096fa0000ffff000070
:103c1400ffff00000a630000faff0000ffff00003e
:103c2400ffff0000ffff0000ffff0000ffff000098
:103c3400ffff0000ffff0000ffff0000ffff000088
:103c4400ffff0000ffff0000ffff0000ffff000078
:103c5400ffff0000ffff0000ffff0000ffff000068
:103c6400ffff0000ffff0000ffff0000ffff000058
:103c7400ffff0000ffff0000ffff0000ffff000048
:103c8400af7200007834000010990000ffff0000bc
:103c9400ff6f000054610000fbff0000ffff000005
:103ca400ffff0000ffff0000ffff0000ffff000018
:103cb400ffff0000ffff0000ffff0000ffff000008
:103cc400ffff0000ffff0000ffff0000ffff0000f8
:103cd400ffff0000ffff0000ffff0000ffff0000e8
:103ce400ffff0000ffff0000ffff0000ffff0000d8
:103cf400ffff0000ffff0000ffff0000ffff0000c8
:103d0400398800008878000034600000a9ff0000b2
:103d1400af82000048900000ffff0000ffff00009a
:103d2400ffff0000ffff0000ffff0000ffff000097
:103d3400ffff0000ffff0000ffff0000ffff000087
:103d4400ffff0000ffff0000ffff0000ffff000077
:103d5400ffff0000ffff0000ffff0000ffff000067
:103d6400ffff0000ffff0000ffff0000ffff000057
:103d7400ffff0000ffff0000ffff0000ff6f0000d7
:103d840084880000888800004703000091f900003f
:103d94004688000037910000ffff0000ffff00008d
:103da400ffff0000ffff0000ffff0000ffff000017
:103db400ffff0000ffff0000ffff0000ffff000007
:103dc400ffff0000ffff0000ffff0000ffff0000f7
:103dd400ffff0000ffff0000ffff0000ffff0000e7
:103de400ffff0000ffff0000ffff0000ffff0000d7
:103df400ffff0000ffff0000ffff0000cf76000080
:103e04008888000088880000884700000326000096
:103e14008888000037a60000ffff0000ffff0000b5
:103e2400ffff0000ffff0000ffff0000ffff000096
:103e3400ffff0000ffff0000ffff0000ffff000086
:103e4400ffff0000ffff0000ffff0000ffff000076
:103e5400ffff0000ffff0000ffff0000ffff000066
:103e6400ffff0000ffff0000ffff0000ffff000056
:103e7400ffff0000ffff0000ffff00002a87000093
:103e84008888000088880000887800004487000043
:103e94008888000015b60000ffff0000ffff000047
:103ea400ffff0000ffff0000ffff0000ffff000016
:103eb400ffff0000ffff0000ffff0000ffff000006
:103ec400ffff0000ffff0000ffff0000ffff0000f6
:103ed400ffff0000ffff0000ffff0000ffff0000e6
:103ee400ffff0000ffff0000ffff0000ffff0000d6
:103ef400ffff0000ffff0000ff9f00008388000019
:103f0400888800008888000088880000888800006d
:103f14008888000004f90000ffff0000ffff000094
:103f2400ffff0000ffff0000ffff0000ffff000095
:103f3400ffff0000ffff0000ffff0000ffff000085
:103f4400ffff0000ffff0000ffff0000ffff000075
:103f5400ffff0000ffff0000ffff0000ffff000065
:103f6400ffff0000ffff0000ffff0000ffff000055
:103f7400ffff0000ffff0000ff46000088880000ec
:103f840088880000888800008888000088880000ed
:103f94008878000013f90000ffff0000ffff000015
:103fa400ffff0000ffff0000ffff0000ffff000015
:103fb400ffff0000ffff0000ffff0000ffff000005
:103fc400ffff0000ffff0000ffff0000ffff0000f5
:103fd400ffff0000ffff0000ffff0000ffff0000e5
:103fe400ffff0000ffff0000ffff0000ffff0000d5
:103ff400ffff0000ffff00006c87000088880000be
:10400400888800008888000088880000888800006c
:104014008878000063fa0000ffff0000ffff000043
:10402400ffff0000ffff0000ffff0000ffff000094
:10403400ffff0000ffff0000ffff0000ffff000084
:10404400ffff0000ffff0000ffff0000ffff000074
:10405400ffff0000ffff0000ffff0000ffff000064
:10406400ffff0000ffff0000ffff0000ffff000054
:10407400ffff0000ffaf0000728800008888000086
:1040840088880000888800008888000088880000ec
:104094008858000061fb0000ffff0000ffff0000e4
:1040a400ffff0000ffff0000ffff0000ffff000014
:1040b400ffff0000ffff0000ffff0000ffff000004
:1040c400ffff0000ffff0000ffff0000ffff0000f4
:1040d400ffff0000ffff0000ffff0000ffff0000e4
:1040e400ffff0000ffff0000ffff0000ffff0000d4
:1040f400ffff0000ff390000888800008888000066
:10410400888800008888000088880000888800006b
:104114008848000090ff0000ffff0000ffff000040
:10412400ffff0000ffff0000ffff0000ffff000093
:10413400ffff0000ffff0000ffff0000ffff000083
:10414400ffff0000ffff0000ffff0000ffff000073
:10415400ffff0000ffff0000ffff0000ffff000063
:10416400ffff0000ffff0000ffff0000ffff000053
:10417400ffff00003a87000088880000888800005c
:1041840088880000888800008888000088880000eb
:1041940058630000fcff0000ffff0000ffff000069
:1041a400ffff0000ffff0000ffff0000ffff000013
:1041b400ffff0000ffff0000ffff0000ffff000003
:1041c400ffff0000ffff0000ffff0000ffff0000f3
:1041d400ffff0000ffff0000ffff0000ffff0000e3
:1041e400ffff0000ffff0000ffff0000ffff0000d3
:1041f400bf7200008888000088880000888800005a
:10420400888800008888000088880000786300009f
:10421400faff0000ffff0000ffff0000ffff0000a7
:10422400ffff0000ffff0000ffff0000ffff000092
:10423400ffff0000ffff0000ffff0000ffff000082
:10424400ffff0000ffff0000ffff0000ffff000072
:10425400ffff0000ffff0000ffff0000ffff000062
:10426400ffff0000ffff0000ffff0000ff6f0000e2
:1042740084880000888800008888000088880000fe
:10428400888800008888000078140000f9ff000086
:10429400ffff0000ffff0000ffff0000ffff000022
:1042a400ffff0000ffff0000ffff0000ffff000012
:1042b400ffff0000ffff0000ffff0000ffff000002
:1042c400ffff0000ffff0000ffff0000ffff0000f2
:1042d400ffff0000ffff0000ffff0000ffff0000e2
:1042e400ffff0000ffff0000ffff0000398800000f
:1042f400888800008888000088880000888800007a
:104304008888000088140000b9ff0000ffff000047
:10431400ffff0000ffff0000ffff0000ffff0000a1
:10432400ffff0000ffff0000ffff0000ffff000091
:10433400ffff0000ffff0000ffff0000ffff000081
:10434400ffff0000ffff0000ffff0000ffff000071
:10435400ffff0000ffff0000ffff0000ffff000061
:10436400ffff0000ffff0000af730000888800001b
:1043740088880000888800008888000088880000f9
:1043840088350000a6ff0000ffff0000ffff0000cb
:10439400ffff0000ffff0000ffff0000ffff000021
:1043a400ffff0000ffff0000ffff0000ffff000011
:1043b400ffff0000ffff0000ffff0000ffff000001
:1043c400ffff0000ffff0000ffff0000ffff0000f1
:1043d400ffff0000ffff0000ffff0000ffff0000e1
:1043e400ffff0000ff2b0000878800008888000082
:1043f40088880000885700008888000088370000fb
:10440400a6ff0000ffff0000ffff0000ffff000009
:10441400ffff0000ffff0000ffff0000ffff0000a0
:10442400ffff0000ffff0000ffff0000ffff000090
:10443400ffff0000ffff0000ffff0000ffff000080
:10444400ffff0000ffff0000ffff0000ffff000070
:10445400ffff0000ffff0000ffff0000ffff000060
:10446400ffff00004688000088880000888800005c
:1044740058340000008700008847000091ff0000c6
:10448400ffff0000ffff0000ffff0000ffff000030
:10449400ffff0000ffff0000ffff0000ffff000020
:1044a400ffff0000ffff0000ffff0000ffff000010
:1044b400ffff0000ffff0000ffff0000ffff000000
:1044c400ffff0000ffff0000ffff0000ffff0000f0
:1044d400ffff0000ffff0000ffff0000ffff0000e0
:1044e4009f83000088880000887800003460000002
:1044f400a94600008848000091fb0000ffff00006f
:10450400ffff0000ffff0000ffff0000ffff0000af
:10451400ffff0000ffff0000ffff0000ffff00009f
:10452400ffff0000ffff0000ffff0000ffff00008f
:10453400ffff0000ffff0000ffff0000ffff00007f
:10454400ffff0000ffff0000ffff0000ffff00006f
:10455400ffff0000ffff0000ffff0000ff3a000024
:10456400878800008845000003960000fbbf000018
:104574007058000063fa0000ffff0000ffff000016
:10458400ffff0000ffff0000ffff0000ffff00002f
:10459400ffff0000ffff0000ffff0000ffff00001f
:1045a400ffff0000ffff0000ffff0000ffff00000f
:1045b400ffff0000ffff0000ffff0000ffff0000ff
:1045c400ffff0000ffff0000ffff0000ffff0000ef
:1045d400ffff0000ffff0000ffbf00007288000023
:1045e4004703000096fa0000ffff00006f7400000c
:1045f40063fa0000ffff0000ffff0000ffff000060
:10460400ffff0000ffff0000ffff0000ffff0000ae
:10461400ffff0000ffff0000ffff0000ffff00009e
:10462400ffff0000ffff0000ffff0000ffff00008e
:10463400ffff0000ffff0000ffff0000ffff00007e
:10464400ffff0000ffff0000ffff0000ffff00006e
:10465400ffff0000ffff00006f5400003460000003
:10466400b9ff0000ffff0000ff0b000014f9000079
:10467400ffff0000ffff0000ffff0000ffff00003e
:10468400ffff0000ffff0000ffff0000ffff00002e
:10469400ffff0000ffff0000ffff0000ffff00001e
:1046a400ffff0000ffff0000ffff0000ffff00000e
:1046b400ffff0000ffff0000ffff0000ffff0000fe
:1046c400ffff0000ffff0000ffff0000ffff0000ee
:1046d400ffff0000ff09000060a90000ffff0000c9
:1046e400ffff0000ffff000006b90000ffff00000d
:1046f400ffff0000ffff0000ffff0000ffff0000be
:10470400ffff0000ffff0000ffff0000ffff0000ad
:10471400ffff0000ffff0000ffff0000ffff00009d
:10472400ffff0000ffff0000ffff0000ffff00008d
:10473400ffff0000ffff0000ffff0000ffff00007d
:10474400ffff0000ffff0000ffff0000ffff00006d
:10475400ffff000099fb0000ffff0000ffff0000c7
:10476400ffff0000ffa90000ffff0000ffff0000a3
:10477400ffff0000ffff0000ffff0000ffff00003d
:10478400ffff0000ffff0000ffff0000ffff00002d
:10479400ffff0000ffff0000ffff0000ffff00001d
:1047a400ffff0000ffff0000ffff0000ffff00000d
:1047b400ffff0000ffff0000ffff0000ffff0000fd
:1047c400ffff0000ffff0000ffff0000ffff0000ed
:1047d400ffff0000ffff0000ffff0000ffff0000dd
:1047e400ffff0000ffff0000ffff0000ffff0000cd
:1047f400ffff0000ffff0000ffff0000ffff0000bd
:10480400ffff0000ffff0000ffff0000ffff0000ac
:10481400ffff0000ffff0000ffff0000ffff00009c
:10482400ffff0000ffff0000ffff0000ffff00008c
:10483400ffff0000ffff0000ffff0000ffff00007c
:10484400ffff0000ffff0000ffff0000ffff00006c
:10485400ffff0000ffff0000ffff0000ffff00005c
:10486400ffff0000ffff0000ffff0000ffff00004c
:10487400ffff0000ffff0000ffff0000ffff00003c
:10488400ffff0000ffff0000ffff0000ffff00002c
:10489400ffff0000ffff0000ffff0000ffff00001c
:1048a400ffff0000ffff0000ffff0000ffff00000c
:1048b400ffff0000ffff0000ffff0000ffff0000fc
:1048c400ffff0000ffff0000ffff0000ffff0000ec
:1048d400ffff0000ffff0000ffff0000ffff0000dc
:1048e400ffff0000ffff0000ffff0000ffff0000cc
:1048f400ffff0000ffff0000ffff0000ffff0000bc
:10490400ffff0000ffff0000ffff0000ffff0000ab
:10491400ffff0000ffff0000ffff0000ffff00009b
:10492400ffff0000ffff0000ffff0000ffff00008b
:10493400ffff0000ffff0000ffff0000ffff00007b
:10494400ffff0000ffff0000ffff0000ffff00006b
:10495400ffff0000cccc0000dfff0000fcff0000e4
:10496400ffff0000ffff0000ffff0000ffff00004b
:10497400ffff0000ffff0000ffff0000ffff00003b
:10498400ffff0000ffff0000ffff0000ffff00002b
:10499400ffff0000ffff0000ffff0000ffff00001b
:1049a400ffff0000ffff0000ffff0000ffff00000b
:1049b400ffff0000ffff0000ffff0000ffff0000fb
:1049c400ffff0000ffff0000ffff0000ffff0000eb
:1049d400ffff0000dffc0000ceff0000fdff000031
:1049e400ffff0000ffff0000ffff0000ffff0000cb
:1049f400ffff0000ffff0000ffff0000ffff0000bb
:104a0400ffff0000ffff0000ffff0000ffff0000aa
:104a1400ffff0000ffff0000ffff0000ffff00009a
:104a2400ffff0000ffff0000ffff0000ffff00008a
:104a3400ffff0000ffff0000ffff0000ffff00007a
:104a4400ffff0000ffff0000ffff0000ffff00006a
:104a5400ffff0000ffff0000ffff0000ffff00005a
:104a6400ffff0000ffff0000ffff0000ffff00004a
:104a7400ffff0000ffff0000ffff0000ffff00003a
:104a8400ffff0000ffff0000ffff0000ffff00002a
:104a9400ffff0000ffff0000ffff0000ffff00001a
:104aa400ffff0000ffff0000ffff0000ffff00000a
:104ab400ffff0000ffff0000ffff0000ffff0000fa
:104ac400ffff0000ffff0000ffff0000ffff0000ea
:104ad400ffff0000ffff0000ffff0000ffff0000da
:104ae400ffff0000ffff0000ffff0000ffff0000ca
:104af400ffff0000ffff0000ffff0000ffff0000ba
:104b0400ffff0000ffff0000ffff0000ffff0000a9
:104b1400ffff0000ffff0000ffff0000ffff000099
:104b2400ffff0000ffff0000ffff0000ffff000089
:104b3400ffff0000ffff0000ffff0000ffff000079
:104b4400ffff0000ffff0000ffff0000ffff000069
:104b5400ffff0000ffff0000ffff0000ffff000059
:104b6400ffff0000ffff0000ffff0000ffff000049
:104b7400ffff0000ffff0000ffff0000ffff000039
:104b8400ffff0000ffff0000ffff0000ffff000029
:104b9400ffff0000ffff0000ffff0000ffff000019
:104ba400ffff0000ffff0000ffff0000ffff000009
:104bb400ffff0000ffff0000ffff0000ffff0000f9
:104bc400ffff0000ffff0000ffff0000ffff0000e9
:104bd400ffff0000ffff0000cfdf0000ceec00006d
:104be400edfe0000ccff0000eccd0000ecff000067
:044bf400ff000000be
:020000040000fa
:104bf800000400002d0000007e00000041180000a5
:104c0800a2300000615000000088000065390000f3
:104c180000b8000000e0000000f80000cb620000cf
:104c2800b29c000079ce00003ce70000def70000ef
:104c3800bfff0000feff0000ffff0000ffff0000b5
:104c4800efcc0000edfc0000cffc0000eeed000012
:104c5800ccde0000cfff0000ffff0000ffff0000d8
:104c6800ffff0000ffff0000ffff0000ffff000044
:104c7800ffff0000ffff0000ffff0000ffff000034
:104c8800ffff0000ffff0000ffff0000ffff000024
:104c9800ffff0000ffff0000ffff0000ffff000014
:104ca800ffff0000ffff0000ffff0000ffff000004
:104cb800ffff0000ffff0000ffff0000ffff0000f4
:104cc800ffff0000ffff0000ffff0000ffff0000e4
:104cd800ffff0000ffff0000ffff0000ffff0000d4
:104ce800ffff0000ffff0000ffff0000ffff0000c4
:104cf800ffff0000ffff0000ffff0000ffff0000b4
:104d0800ffff0000ffff0000ffff0000ffff0000a3
:104d1800ffff0000ffff0000ffff0000ffff000093
:104d2800ffff0000ffff0000ffff0000ffff000083
:104d3800ffff0000ffff0000ffff0000ffff000073
:104d4800ffff0000ffff0000ffff0000ffff000063
:104d5800ffff0000ffff0000ffff0000ffff000053
:104d6800ffff0000ffff0000ffff0000ffff000043
:104d7800ffff0000ffff0000ffff0000ffff000033
:104d8800ffff0000ffff0000ffff0000ffff000023
:104d9800ffff0000ffff0000ffff0000ffff000013
:104da800ffff0000ffff0000ffff0000ffff000003
:104db800ffff0000fffc0000ffff0000ffff0000f6
:104dc800ffff0000ffff0000ffff0000ffff0000e3
:104dd800ffff0000ffff0000ffff0000ffff0000d3
:104de800ffff0000ffff0000ffff0000ffff0000c3
:104df800ffff0000ffff0000ffff0000ffff0000b3
:104e0800ffff0000ffff0000ffff0000ffff0000a2
:104e1800ffff0000ffff0000ffff0000ffff000092
:104e2800ffff0000ffff0000ffff0000ffff000082
:104e3800ffff0000feff0000ffff0000ffff000073
:104e4800ffff0000ffff0000ffff0000ffff000062
:104e5800fffd0000cffe0000dcff0000ffff0000a8
:104e6800ffff0000ffff0000ffff0000ffff000042
:104e7800ffff0000ffff0000ffff0000ffff000032
:104e8800ffff0000ffff0000ffff0000ffff000022
:104e9800ffff0000ffff0000ffff0000ffff000012
:104ea800ffff0000ffff0000ffff0000ffff000002
:104eb800ffff0000ffff0000ffff0000ffff0000f2
:104ec800ffff0000ffff0000ffff0000ffff0000e2
:104ed800fffc0000dfcf0000ccfc0000ffff00005b
:104ee800ffff0000ffff0000ffff0000ffff0000c2
:104ef800ffff0000ffff0000ffff0000ffff0000b2
:104f0800ffff0000ffff0000ffff0000ffff0000a1
:104f1800ffff0000ffff0000ffff0000ffff000091
:104f2800ffff0000ffff0000ffff0000ffff000081
:104f3800fdff0000ffff0000ffff0000ffff000073
:104f4800ffff0000ffff0000ffff0000ffff000061
:104f5800ffff0000ffff0000ffff0000ffff000051
:104f6800ffff0000ffff0000ffff0000ffff000041
:104f7800ffff0000ffff0000ffff0000ffff000031
:104f8800ffff0000ffff0000ffff0000ffff000021
:104f9800ffff0000ffff0000ffff0000ffff000011
:104fa800ffff0000ffff0000ffff0000ffff000001
:104fb800ffff0000ffff0000ffff0000ffff0000f1
:104fc800ffff0000ffff0000ffff0000ffff0000e1
:104fd800ffff0000ffff0000ffff0000ffff0000d1
:104fe800ffff0000ffff0000ffff0000ffff0000c1
:104ff800ffff0000ffff0000ffff0000ffff0000b1
:10500800ffff0000ffff0000ffff0000ffff0000a0
:10501800ffff0000ffff0000ffff0000ffff000090
:10502800ffff0000ffff0000ffff0000ffff000080
:10503800ffff0000ffff0000ffff0000ffff000070
:10504800ffff0000ffff0000ffff0000ffff000060
:10505800ffff0000ffff0000ffff0000ffff000050
:10506800ffff0000ffff0000ffff0000ffff000040
:10507800ffff0000ffff0000ffff0000ffff000030
:10508800ffff0000ffff0000ffff0000ffff000020
:10509800ffff0000ffff0000ffff0000ffff000010
:1050a800ffff0000ffff0000ffff0000ffff000000
:1050b800ffff0000ffff0000ffff0000ffff0000f0
:1050c800ffff0000ffff0000ffff0000ffff0000e0
:1050d800ffff0000ffff0000ffff0000ffff0000d0
:1050e800ffff0000ffff0000ffff0000ffff0000c0
:1050f800ffff0000ffff0000ffff0000ffff0000b0
:10510800ffff0000ffff0000ffff0000ffff00009f
:10511800ffff0000ffff0000ffff0000ffff00008f
:10512800ffff0000ffff0000ffff0000ffff00007f
:10513800ffff0000ffff0000ffff0000ffff00006f
:10514800ffff0000fffa0000ffff0000ffff000064
:10515800ffff0000ffbf0000faff0000ffff000094
:10516800ffff0000ffff0000ffff0000ffff00003f
:10517800ffff0000ffff0000ffff0000ffff00002f
:10518800ffff0000ffff0000ffff0000ffff00001f
:10519800ffff0000ffff0000ffff0000ffff00000f
:1051a800ffff0000ffff0000ffff0000ffff0000ff
:1051b800ffff0000ffff0000ffff0000ffff0000ef
:1051c800ff4a0000f4ff0000ffff0000ffff00009f
:1051d800ff9a000001f40000ffff0000ffff00003d
:1051e800ffff0000ffff0000ffff0000ffff0000bf
:1051f800ffff0000ffff0000ffff0000ffff0000af
:10520800ffff0000ffff0000ffff0000ffff00009e
:10521800ffff0000ffff0000ffff0000ffff00008e
:10522800ffff0000ffff0000ffff0000ffff00007e
:10523800ffff0000ffff0000ffff0000ff8b0000e2
:1052480002f90000ffff0000ffff00009b080000bc
:1052580032150000fbff0000ffff0000ffff000009
:10526800ffff0000ffff0000ffff0000ffff00003e
:10527800ffff0000ffff0000ffff0000ffff00002e
:10528800ffff0000ffff0000ffff0000ffff00001e
:10529800ffff0000ffff0000ffff0000ffff00000e
:1052a800ffff0000ffff0000ffff0000ffff0000fe
:1052b800ffff0000ffff0000ff9c00003016000009
:1052c800ffff0000ffaf0000192000006377000017
:1052d80092ff0000ffff0000ffff0000ffff00003b
:1052e800ffff0000ffff0000ffff0000ffff0000be
:1052f800ffff0000ffff0000ffff0000ffff0000ae
:10530800ffff0000ffff0000ffff0000ffff00009d
:10531800ffff0000ffff0000ffff0000ffff00008d
:10532800fdff0000ffff0000ffff0000ffff00007f
:10533800ffff0000ff9f00003076000092ff000092
:10534800bf890000206300007777000037f800006d
:10535800ffff0000ffff0000ffff0000ffff00004d
:10536800ffff0000ffff0000ffff0000ffff00003d
:10537800ffff0000ffff0000ffff0000ffff00002d
:10538800ffff0000ffff0000ffff0000ffff00001d
:10539800ffff0000ffff0000ffff0000ffff00000d
:1053a800ffff0000ffff0000ffff0000ffff0000fd
:1053b800ffaf00002476000067f100009a010000aa
:1053c800327600007777000077450000ffff000085
:1053d800ffff0000ffff0000ffff0000ffff0000cd
:1053e800ffff0000ffff0000ffff0000ffff0000bd
:1053f800ffff0000ffff0000ffff0000ffff0000ad
:10540800ffff0000ffff0000ffff0000ffff00009c
:10541800ffff0000ffff0000ffff0000ffff00008c
:10542800ffff0000ffff0000ffff0000ffbf0000bc
:10543800287500007727000000320000767700000a
:105448007777000077670000b1ff0000ffff0000da
:10545800ffff0000ffff0000ffff0000ffff00004c
:10546800ffff0000ffff0000ffff0000ffff00003c
:10547800ffff0000ffff0000ffff0000ffff00002c
:10548800ffff0000ffff0000ffff0000ffff00001c
:10549800ffff0000ffff0000ffff0000ffff00000c
:1054a800ffff0000ffff0000ffcf000009730000ae
:1054b8007777000037630000777700007777000080
:1054c8007777000027f90000ffff0000ffff0000ca
:1054d800ffff0000ffff0000ffff0000ffff0000cc
:1054e800ffff0000ffff0000ffff0000ffff0000bc
:1054f800ffff0000ffff0000ffff0000ffff0000ac
:10550800ffff0000ffff0000ffff0000ffff00009b
:10551800ffff0000ffff0000ffff0000ffff00008b
:10552800ffff0000ffff000009630000777700001d
:1055380077770000777700007777000077770000ab
:1055480077830000ffff0000ffff0000ffff00005f
:10555800ffff0000ffff0000ffff0000ffff00004b
:10556800ffff0000ffff0000ffff0000ffff00003b
:10557800ffff0000ffff0000ffff0000ffff00002b
:10558800ffff0000ffff0000ffff0000ffff00001b
:10559800ffff0000ffff0000ffff0000ffff00000b
:1055a800ffff00004a62000077770000777700006d
:1055b800777700007777000077770000775700004b
:1055c800f4ff0000ffff0000ffff0000ffff0000e6
:1055d800ffff0000ffff0000ffff0000ffff0000cb
:1055e800ffff0000ffff0000ffff0000ffff0000bb
:1055f800ffff0000ffff0000ffff0000ffff0000ab
:10560800ffff0000ffff0000ffff0000ffff00009a
:10561800ffff0000ffff0000ffff0000ffff00008a
:105628008b520000777700007777000077770000cb
:1056380077770000777700007777000016fb000087
:10564800ffff0000ffff0000ffff0000ffff00005a
:10565800ffff0000ffff0000ffff0000ffff00004a
:10566800ffff0000ffff0000ffff0000ffff00003a
:10567800ffff0000ffff0000ffff0000ffff00002a
:10568800ffff0000ffff0000ffff0000ffff00001a
:10569800ffff0000ffff0000ffff00009c3000003c
:1056a800777700007777000077770000777700003a
:1056b800777700007777000077920000ffff0000ff
:1056c800ffff0000ffff0000ffff0000ffff0000da
:1056d800ffff0000ffff0000ffff0000ffff0000ca
:1056e800ffff0000ffff0000ffff0000ffff0000ba
:1056f800ffff0000ffff0000ffff0000ffff0000aa
:10570800ffff0000ffff0000ffff0000ffff000099
:10571800ffff0000ffff00009f30000076770000c9
:1057280077770000777700007777000077770000b9
:105738007777000077370000f8ff0000ffff0000d0
:10574800ffff0000ffff0000ffff0000ffff000059
:10575800ffff0000ffff0000ffff0000ffff000049
:10576800ffff0000ffff0000ffff0000ffff000039
:10577800ffff0000ffff0000ffff0000ffff000029
:10578800ffff0000ffff0000ffff0000ffff000019
:10579800ffff0000ff8f00005177000077770000bf
:1057a8007777000077770000777700007777000039
:1057b8007777000027f90000ffff0000ffff0000d7
:1057c800ffff0000ffff0000ffff0000ffff0000d9
:1057d800ffff0000ffff0000ffff0000ffff0000c9
:1057e800ffff0000ffff0000ffff0000ffff0000b9
:1057f800ffff0000ffff0000ffff0000ffff0000a9
:10580800ffff0000ffff0000ffff0000ffff000098
:10581800ffff0000ff4a0000627700007777000072
:1058280077770000777700007777000077770000b8
:1058380077670000a1ff0000ffff0000ffff0000e6
:10584800ffff0000ffff0000ffff0000ffff000058
:10585800ffff0000ffff0000ffff0000ffff000048
:10586800ffff0000ffff0000ffff0000ffff000038
:10587800ffff0000ffff0000ffff0000ffff000028
:10588800ffff0000ffff0000ffff0000ffff000018
:10589800ffff0000ff090000627700007777000033
:1058a8007777000077770000777700007777000038
:1058b80077450000fcff0000ffff0000ffff00002d
:1058c800ffff0000ffff0000ffff0000ffff0000d8
:1058d800ffff0000ffff0000ffff0000ffff0000c8
:1058e800ffff0000ffff0000ffff0000ffff0000b8
:1058f800ffff0000ffff0000ffff0000ffff0000a8
:10590800ffff0000ffff0000ffff0000ffff000097
:10591800ffff0000cf0900007377000077770000d1
:1059280077770000777700007777000077770000b7
:1059380037f80000ffff0000ffff0000ffff000036
:10594800ffff0000ffff0000ffff0000ffff000057
:10595800ffff0000ffff0000ffff0000ffff000047
:10596800ffff0000ffff0000ffff0000ffff000037
:10597800ffff0000ffff0000ffff0000ffff000027
:10598800ffff0000ffff0000ffff0000ffff000017
:10599800ffff0000bf180000757700007777000050
:1059a8007777000077770000777700007777000037
:1059b80092ff0000ffff0000ffff0000ffff000054
:1059c800ffff0000ffff0000ffff0000ffff0000d7
:1059d800ffff0000ffff0000ffff0000ffff0000c7
:1059e800ffff0000ffff0000ffff0000ffff0000b7
:1059f800ffff0000ffff0000ffff0000ffff0000a7
:105a0800ffff0000ffff0000ffff0000ffff000096
:105a1800ffff0000af2400007677000077670000e2
:105a28007677000077770000777700007716000018
:105a3800faff0000ffff0000ffff0000ffff00006b
:105a4800ffff0000ffff0000ffff0000ffff000056
:105a5800ffff0000ffff0000ffff0000ffff000046
:105a6800ffff0000ffff0000ffff0000ffff000036
:105a7800ffff0000ffff0000ffff0000ffff000026
:105a8800ffff0000ffff0000ffff0000ffff000016
:105a9800ffff00009f20000076770000171000002d
:105aa80052770000777700007777000057c400002e
:105ab800ffff0000ffff0000ffff0000ffff0000e6
:105ac800ffff0000ffff0000ffff0000ffff0000d6
:105ad800ffff0000ffff0000ffff0000ffff0000c6
:105ae800ffff0000ffff0000ffff0000ffff0000b6
:105af800ffff0000ffff0000ffff0000ffff0000a6
:105b0800ffff0000ffff0000ffff0000ffff000095
:105b1800ffff00009c30000077570000a4490000f8
:105b280020630000777700007777000083ff00008c
:105b3800ffff0000ffff0000ffff0000ffff000065
:105b4800ffff0000ffff0000ffff0000ffff000055
:105b5800ffff0000ffff0000ffff0000ffff000045
:105b6800ffff0000ffff0000ffff0000ffff000035
:105b7800ffff0000ffff0000ffff0000fffe000026
:105b8800ffff0000ffff0000ffff0000ffff000015
:105b9800ffff00008b51000077a10000ff9b000071
:105ba800082100007577000077270000f9ff000042
:105bb800ffff0000ffff0000ffff0000ffff0000e5
:105bc800ffff0000ffff0000ffff0000ffff0000d5
:105bd800ffff0000ffff0000ffff0000ffff0000c5
:105be800ffff0000ffff0000ffff0000ffff0000b5
:105bf800ffff0000ffff0000ffff0000ffff0000a5
:105c0800ffff0000ffff0000ffff0000ffff000094
:105c1800ffff00004a62000045ff0000ffff000090
:105c28009a0400003276000067a10000ffff000020
:105c3800ffff0000ffff0000ffff0000ffff000064
:105c4800ffff0000ffff0000ffff0000ffff000054
:105c5800ffff0000ffff0000ffff0000ffff000044
:105c6800ffff0000ffff0000ffff0000ffff000034
:105c7800ffff0000ffff0000fffd0000ffff000026
:105c8800ffff0000ffff0000ffff0000ffff000014
:105c9800ffff000009020000faff0000ffff0000fc
:105ca800bf8900001052000045fc0000ffff000003
:105cb800ffff0000ffff0000ffff0000ffff0000e4
:105cc800ffff0000ffff0000ffff0000ffff0000d4
:105cd800ffff0000ffff0000ffff0000ffff0000c4
:105ce800ffff0000ffff0000ffff0000ffff0000b4
:105cf800ffff0000ffff0000ffff0000ffff0000a4
:105d0800ffff0000ffff0000ffff0000ffff000093
:105d1800ffcf000009f40000ffff0000ffff0000b4
:105d2800ffaf000049000000f8ff0000ffff00007f
:105d3800ffff0000ffff0000ffff0000ffff000063
:105d4800ffff0000ffff0000ffff0000ffff000053
:105d5800ffff0000ffff0000ffff0000ffff000043
:105d6800ffff0000ffff0000ffff0000ffff000033
:105d7800ffff0000ffff0000ffff0000ffff000023
:105d8800ffff0000ffff0000ffff0000ffff000013
:105d9800ffbf0000f9ff0000ffff0000ffff000049
:105da800ffff00009bf90000ffff0000ffff00005d
:105db800ffff0000ffff0000ffff0000ffff0000e3
:105dc800ffff0000ffff0000ffff0000ffff0000d3
:105dd800ffff0000ffff0000ffff0000ffff0000c3
:105de800ffff0000ffff0000ffff0000ffff0000b3
