:020000040000fa
:080000000002040000000000f2
:020000040000fa
:100400000f162100007f240000018800000000007a
:100410000c000700c0252c0001002000110007007f
:10042000000020000000e000020032000000020096
:100430000000000070b70200000000000040da0079
:100440000000fe004440a900004f21000000e00031
:100450000300320000002000a00188004440a800f2
:100460000000060091018800800078000000eb0089
:1004700015003700e280400032a0b4009101ba00bc
:10048000e280400032a0b4009102ba00e280400055
:1004900032a0b4000002eb00472bde00f507b200eb
:1004a000602ce10004003a000059eb008301e900f0
:1004b000fdff3e00040037006128e100010032002a
:1004c0000082eb00040007001101ba000200e00006
:1004d000e8ff3a00000006003159ba008301e90044
:1004e0000c0032002159ba008301e90008003200f3
:1004f0000400e00003003a00e280400032a0b400b3
:10050000f5ff370011d9ba008301e900faff3a007c
:100510008100e800e180400032a0b4000000060045
:10052000020ab900001bb9000200b80081004200b5
:100530008100430000000600881f7800c08a800008
:100540000000e0000100320000000100908a8000fd
:100550000000e00001003200000001003084800053
:100560000000e00001003200000001000084800073
:100570000000e0000100320000000100a015210091
:100580001004e00026003a00a08a8000b18a8000b2
:100590000004eb00d260260093012000e0ff07007a
:1005a000f2352f00e3c6230000004100818049009e
:1005b0000804e800e80f5400f6ff3a00a08a88001b
:1005c000b18a880088082100d260260093012000ab
:1005d000a08a8000b18a8000d1ff0700f2352f0089
:1005e000e3c623000000410081804900a08a880002
:1005f000b18a8800009cbe0080102100800f54004a
:10060000f1ff3a0020888000318880001084880043
:100610002184880011c0b300a01521000148780092
:10062000d260260093012000a08a8000b18a800059
:10063000bbff0700f2352f00e3c623000000410096
:1006400081804900a08a8800b18a880022082100a0
:10065000120178007f0161004211dd008308210052
:10066000030141001202be00148488002584880022
:100670000089be0010848000218480004008de00d4
:1006800000f0a1004f047800000006008001eb009c
:100690000200370061f079008301e800828f510089
:1006a000fcff3a00000006008001eb00020037006a
:1006b000817178008301e800828f5100fcff3a00cd
:1006c0000000060080007800010037000000e8000c
:1006d0001004e000fdff3a00010050000000060099
:1006e0008001eb0008003700e342780063c2780025
:1006f0008301e80084cf5200030032000080eb0049
:100700000400390010000500828f5100f6ff3a0006
:100710000000eb0000000600040037000204e000c7
:100720000a0032000000e8008100e8001041780073
:10073000914f5100f9ff32000081eb00104078002a
:10074000914f500004003900020037000001eb0017
:1007500001003700120020000200780000000600af
:10076000800178000001780031407800005978005d
:100770000004e000fcff3a000300780000000600df
:10078000ec874700889fbe008a9fbe008c9fbe00fa
:100790008e1f7800f0b79f0081bf9f008204780011
:1007a00000047800010037000804e80018477800ca
:1007b0000e00fb00d50007000000e000faff3a0041
:1007c000d0c2b300804f57000500320000c0e900de
:1007d000804f5700020032000047780001003700c8
:1007e0000804e8000900e00045003500e18f5400ee
:1007f0004300320040022000808f540040003c0043
:100800000900e0000e003400f08f54001a003a0096
:1008100000c3b300984f100016003a0098409000b3
:1008200080c7b30080cf50000300320080c5b30002
:1008300080cf50000f003a000884e8000e00370017
:10084000a900200000c3b300984f10000a003a002e
:100850009840900080c7b30080cf50000400320061
:100860008900200080c5b30080cf500002003a000c
:100870000884e800090120000805780000c3b300df
:10088000010037000a05e8009a4f1000fdff320012
:100890008a0578006066b8000e003700d01221008b
:1008a00000425200c4ef9f006149b9000c00be0035
:1008b0001bff07004fea97000401fb00cf91de0009
:1008c0008b05e800ccb79f00ddb79f000006410014
:1008d000818649001b00fb0094000700800078001f
:1008e00009017800d012210097000700000278006b
:1008f0000000e000e9ff3a008b0f540006003a00c8
:100900000fb897000000e00029003200ffb0970008
:1009100001087800260037008a80550080102100e9
:1009200060c07c000000fb00008050001600330017
:100930004240a9000f003c004fe997000200fb0075
:10094000cf80de000000560081805e00800f5600e0
:10095000818f5e00070039006149b900c6010700b8
:100960004fb19700dfb19700820f5000838f58007e
:100970000500320020022000f08a88000086eb008b
:100980008086eb0005003700d0c2b300804f5700cf
:1009900002003a0060061600e0861e008fb997003c
:1009a0000300e000030032008b09780001003700eb
:1009b0006066b8000c00be004f0778004f06be000e
:1009c0004f05be004f04be00cf00b100000006007e
:1009d000000278000000eb000b0037009441780023
:1009e00091cf5100030032000080eb000900390074
:1009f000100005000000e8000304e00004003200dd
:100a00000402e8008100e800820f5000f3ff3a0082
:100a10000000eb0000000600881f7800000478004a
:100a2000c08a80000000e0000100320000000100e8
:100a3000a01521000048eb00908a80000000e00033
:100a400001003200000001006140b800a08a880067
:100a5000b18a88004f047800000006008001780009
:100a600000017800010037000201e8001204e000f4
:100a7000fdff3a00020037000201e8008100e800b3
:100a800011407800004978000004e000faff3a00c5
:100a90000300780000000600040037000204e000b4
:100aa00001003a00000005000000e8001041780055
:100ab000814f5100f9ff3a0000000600889fbe00f8
:100ac00081047800114478000804e00009003a002d
:100ad0000c0037008001780009017800d2407800ce
:100ae0000104e00007003200d3cf1000fbff32000a
:100af0000000e8008800fb00e7ff07000000e000be
:100b0000f4ff3a004f04be00000006006900e10057
:100b1000040035006d00e100030034000002b10064
:100b20000100320000000500100005008000780080
:100b30001104b100030035009101b10001003c0037
:100b40000050a000000006008001eb000400370008
:100b50008301e80090cf1000040032000000e8009c
:100b6000828f5100faff3a000000eb0000000600ff
:100b7000e08a80000000e000010032000000010077
:100b8000e0152100000006003b0107000400be0044
:100b900000000600889fbe008a9fbe008c1f780060
:100ba0000205be000004be000006eb00e00f50008e
:100bb000e08f5800e00f5900e08f590007003d001a
:100bc0006000b8006011b800080450008984580023
:100bd0000a0559008b8559001c002000e00f5200c7
:100be000e08f5a00e00f5b00e08f5b0002003d00e9
:100bf0000f0007000c00a2000800be000a01be00a2
:100c00002d0107000203be000002be000c00e00040
:100c100001003200060007000400be000601be000d
:100c20004f0678004f05be004f04be0000000600ce
:100c30006000b8006011b8000402500085825800be
:100c4000060359008783590000000600881f7800ba
:100c5000000478005001be004000be0004004000c7
:100c6000858048000601490087814900009cbe003c
:100c70000294be000400e1000588e1000690e10056
:100c80000798e10002003100680044001008e80005
:100c90004f04780000000600f4874700889fbe00dc
:100ca0008a9fbe008c9fbe008e1f78000205be008a
:100cb0000004be00d4b79f00e5b79f00f6b79f00c1
:100cc00087bf9f000000eb00c0b79f00b0b79f0038
:100cd000a0b79f0090b79f0080b79f000d04200031
:100ce000bfb097004fb09700000140000000e00047
:100cf0000f003d004f08de0000007100c0b79f00ec
:100d00009e00070001003d0012002000a100070026
:100d100001003d0012002000a6000700b1000700fe
:100d2000b60007000f004000c8ff07002200370090
:100d30004f08de0000067100ccb79f008f0007004f
:100d400001003d00120020009200070001003d005c
:100d50001200200097000700a20007000fb29700c2
:100d60009fb297002fb39700bfb39700a900070069
:100d70000000520081805a0002015b0083815b0009
:100d800080b79f0091b79f00a2b79f00b3b79f00a5
:100d90000007eb009f0007000020e10001a8e10030
:100da00002b0e10003b8e100010031001e002000a4
:100db0000e005600c0b79f004fb297000400e0003d
:100dc0000700350010002000010020006011b8006d
:100dd00008047000898470000a0571008b85710019
:100de0008d06e900beff3a000400e00003003d006c
:100df000820007000f00400094ff07004fa89700f3
:100e00000000e00004003a000fb497009fb4970080
:100e10002fb59700bfb59700940007004f077800e3
:100e20004f06be004f05be004f04be004f01b1008b
:100e300000000600881f780018002000881f780036
:100e400095ff07008f87e9004f0478000000060037
:100e5000801feb0090ff07008f87e900000006006d
:100e6000889fbe008a9fbe008c1f78006e0007001e
:100e700007003d0073000700e00f5b00e08f5b00a0
:100e800007003d00320007000006eb0004003700b9
:100e90003400070002003d002a0007001c0020006b
:100ea00072000700e3ff07000203be000002be005d
:100eb0000c00e00001003200220007000400be0028
:100ec0000601be004f0678004f05be004f04be006d
:100ed00000000600889fbe008a9fbe008c1f78001d
:100ee0005100070005003d0056000700e00f5b00c1
:100ef000e08f5b0006003d0004003700190007008a
:100f000003003d006000b8006011b8001000070049
:100f100056000700ceff07000203be000002be001d
:100f20000c00e00001003200060007000400be00d3
:100f30000601be004f0678004f05be004f04be00fc
:100f4000000006006000b8006011b8000000370023
:100f50000402500085825800060359008783590017
:100f6000000006000006eb00e00f5200e08f5a0080
:100f7000e00f5b00e08f5b00000006000180400096
:100f800090b79f000001eb008fb097000100e000d8
:100f9000000006000200700090b79f000180400032
:100fa00080b79f000001eb00ffa897000100e00060
:100fb000000006000200700080b79f000180400022
:100fc0006faa9700cf20de0001007000f0af9f00f5
:100fd00004024200250007004f18de0000027200e4
:100fe00000000600e4af9f000804440089844c0020
:100ff0000a054d008b854d00000006003fb29700aa
:10100000cfb297005fb39700efb3970000fe2f00b9
:10101000000006003fb09700cfb097005fb1970087
:10102000efb19700000006000205be000004be00fc
:10103000e00f5000e08f5800e00f5900e08f59009a
:10104000000006006000b8006011b80008045000fd
:10105000898458000a0559008b8559001c0020001e
:10106000e00f5200e08f5a00000006000800be00aa
:101070000a01be00000006006022b800060220003f
:101080000000d0008180d2000482d2008582d2008c
:101090000000a0000202520083825a0003003100c7
:1010a0000202420083824a000000a1000603e90018
:1010b000f3ff3a0000000600889fbe008a9fbe0032
:1010c0008c9fbe000404b8000506b80089044600e1
:1010d00060854e000606b8000a054600e0854e0011
:1010e0000706b8008b054600040eb80089044600c8
:1010f0000a854e00e0854d00050eb8000a05460041
:101100008b854e00060eb8008b0546000416b8000d
:101110000a0546008b854e000516b8008b05460073
:10112000041eb8008b0546000800be000a01be0080
:101130004f06be004f05be004f04be000000060073
:020000040000fa
:020000040005f5
:0457f800ed9300002d
:020000040000fa
:020000040005f5
:0457fc007f3e0000ec
:020000040000fa
:1000080088df000088df0000ceb60000d4b600000c
:1000180088df000088df000088df000088df00003c
:1000280088df000088df000088df000038dd00007e
:1000380088df000088df000088df000088df00001c
:1000480088df000088df000088df000088df00000c
:1000580088df000088df000088df000088df0000fc
:1000680088df000088df000088df000088df0000ec
:1000780088df000088df000088df000088df0000dc
:1000880088df000088df000088df000088df0000cc
:1000980088df000088df000006d400003ad40000a2
:1000a80088df000088df000088df000088df0000ac
:1000b80088df000088df000088df000088df00009c
:1000c80088df000088df000088df000088df00008c
:1000d80088df000088df000088df000088df00007c
:1000e80088df000088df000088df000088df00006c
:1000f80088df000088df000088df000088df00005c
:1001080088df000088df000088df000088df00004b
:1001180088df000088df000088df000088df00003b
:1001280088df000088df000088df000088df00002b
:1001380088df000088df000088df000088df00001b
:1001480088df000088df000088df000088df00000b
:1001580088df000088df000088df000088df0000fb
:1001680088df000088df000088df000088df0000eb
:1001780088df000088df000088df000088df0000db
:1001880088df000088df000088df000088df0000cb
:1001980088df000088df000088df000088df0000bb
:1001a80088df000088df000088df000088df0000ab
:1001b80088df000088df000088df000088df00009b
:1001c80088df000088df000088df000088df00008b
:1001d80088df000088df000088df000088df00007b
:1001e80088df000088df000088df000088df00006b
:0801f80088df000088df000031
:020000040000fa
:1002080088df000088df0000ceb60000d4b600000a
:1002180088df000088df000088df000088df00003a
:1002280088df000088df000088df000038dd00007c
:1002380088df000088df000088df000088df00001a
:1002480088df000088df000088df000088df00000a
:1002580088df000088df000088df000088df0000fa
:1002680088df000088df000088df000088df0000ea
:1002780088df000088df000088df000088df0000da
:1002880088df000088df000088df000088df0000ca
:1002980088df000088df000006d400003ad40000a0
:1002a80088df000088df000088df000088df0000aa
:1002b80088df000088df000088df000088df00009a
:1002c80088df000088df000088df000088df00008a
:1002d80088df000088df000088df000088df00007a
:1002e80088df000088df000088df000088df00006a
:1002f80088df000088df000088df000088df00005a
:1003080088df000088df000088df000088df000049
:1003180088df000088df000088df000088df000039
:1003280088df000088df000088df000088df000029
:1003380088df000088df000088df000088df000019
:1003480088df000088df000088df000088df000009
:1003580088df000088df000088df000088df0000f9
:1003680088df000088df000088df000088df0000e9
:1003780088df000088df000088df000088df0000d9
:1003880088df000088df000088df000088df0000c9
:1003980088df000088df000088df000088df0000b9
:1003a80088df000088df000088df000088df0000a9
:1003b80088df000088df000088df000088df000099
:1003c80088df000088df000088df000088df000089
:1003d80088df000088df000088df000088df000079
:1003e80088df000088df000088df000088df000069
:0803f80088df000088df00002f
:020000040000fa
:1011400074650000787400002f7000006c6100006e
:10115000696e00000074000065780000742f0000c4
:10116000687400006d6c0000007400006578000079
:10117000742f0000786d00006c00000074650000a2
:10118000787400002f630000737300000069000092
:101190006d610000676500002f6700006966000050
:1011a000006900006d610000676500002f7000009d
:1011b0006e670000006900006d6100006765000057
:1011c0002f6a000070650000670000006170000079
:1011d000706c00006963000061740000696f0000ba
:1011e0006e2f00006a610000766100002d7600001d
:1011f0006d00000061750000646900006f2f000041
:10120000782d000077610000766500000000000086
:10121000a0880000ab880000ab880000ab8800000d
:10122000b5880000be880000c7880000d188000093
:10123000db880000e6880000fa88000007890000cb
:101240000d0a00000048000054540000502f000018
:10125000312e00003120000032300000302000002c
:101260004f4b00000d0a0000436f00006e6e00003f
:1012700065630000746900006f6e00003a20000092
:10128000636c00006f730000650d00000a00000031
:1012900048540000545000002f3100002e3100004f
:1012a0002034000030300000204200006164000063
:1012b0002052000065710000756500007374000025
:1012c0000d0a0000436f00006e6e000065630000b1
:1012d000746900006f6e00003a200000636c00002b
:1012e0006f730000650d00000a0d00000a34000055
:1012f00030300000204200006164000020520000f5
:101300006571000075650000737400003a200000ec
:10131000636100006e270000742000006861000017
:101320006e6400006c650000204300006f6e0000da
:10133000746500006e7400002d4c0000656e0000a6
:1013400067740000680d00000a00000048540000a7
:10135000545000002f3100002e31000020340000d6
:1013600030310000205500006e61000075740000ef
:10137000686f0000726900007a650000640d00006b
:101380000a570000575700002d41000075740000f7
:10139000686500006e7400006963000061740000fd
:1013a000653a00002042000061730000696300009c
:1013b00020720000656100006c6d00003d2200009d
:1013c000507200006f7400006563000074650000d7
:1013d000642200000d0a0000436f00006e6e0000e2
:1013e00065630000746900006f6e00003a20000021
:1013f000636c00006f730000650d00000a0d0000b3
:101400000a34000030310000205500006e610000f9
:1014100075740000686f0000726900007a65000052
:10142000643a0000205000006173000073770000f0
:101430006f7200006420000072650000717500008a
:1014400069720000656400000d0a00000048000099
:1014500054540000502f0000312e000031200000b5
:1014600034300000342000004e6f00007420000073
:10147000666f0000756e0000640d00000a430000f6
:101480006f6e00006e65000063740000696f0000fd
:101490006e3a0000206300006c6f0000736500006e
:1014a0000d0a0000436f00006e740000656e0000be
:1014b000742d000054790000706500003a2000008f
:1014c00074650000787400002f680000746d0000df
:1014d0006c0d00000a0d00000a34000030340000da
:1014e0003a200000466900006c650000206e000094
:1014f0006f740000206600006f7500006e640000cd
:101500003c620000723e0000557300006520000040
:101510003c6100002068000072650000663d00002c
:10152000222f00006d7000006673000075700000cf
:101530006c6f000061640000223e00004d5000000e
:101540004653000020550000706c00006f610000e1
:10155000643c00002f6100003e200000746f00001a
:1015600020700000726f000067720000616d000063
:1015700020770000656200002070000061670000b5
:10158000657300000d0a000000480000545400007c
:10159000502f0000312e00003120000034310000b7
:1015a0003420000052650000717500006573000072
:1015b000742d00005552000049200000546f0000b7
:1015c0006f2000004c6f00006e6700000d0a0000e5
:1015d000436f00006e6e00006563000074690000d8
:1015e0006f6e00003a200000636c00006f73000013
:1015f000650d00000a0d00000a34000031340000bf
:1016000020520000657100007565000073740000d1
:101610002d55000052490000205400006f6f00005b
:10162000204c00006f6e0000673a0000204200006e
:101630007566000066650000722000006f7600008d
:1016400065720000666c00006f7700002064000087
:10165000657400006563000074650000640d00009f
:101660000a00000048540000545000002f310000d0
:101670002e310000203500003030000020490000ed
:101680006e740000657200006e6100006c20000046
:10169000536500007276000065720000204500006e
:1016a000727200006f7200000d0a0000436f0000ac
:1016b0006e6e000065630000746900006f6e0000cc
:1016c0003a200000636c00006f730000650d00009d
:1016d0000a0d00000a3500003030000020490000eb
:1016e0006e740000657200006e6100006c200000e6
:1016f000536500007276000065720000204500000e
:10170000727200006f7200003a20000045780000fd
:1017100070650000637400006564000020640000d0
:1017200061740000612000006e6f000074200000f2
:101730007072000065730000656e0000740d00009b
:101740000a00000048540000545000002f310000ef
:101750002e3100002035000030310000204e000006
:101760006f740000204900006d7000006c6500007f
:101770006d6500006e740000656400000d0a0000d5
:10178000436f00006e6e0000656300007469000026
:101790006f6e00003a200000636c00006f73000061
:1017a000650d00000a0d00000a3500003031000010
:1017b000204e00006f740000204900006d70000092
:1017c0006c6500006d6500006e74000065640000cb
:1017d0003a2000004f6e00006c79000020470000a6
:1017e00045540000206100006e640000205000009d
:1017f0004f5300005420000073750000707000000b
:101800006f72000074650000640d00000a000000a3
:1018100048540000545000002f3100002e310000c9
:101820002032000030300000204f00004b0d00003f
:101830000a4300006f6e00006e65000063740000d4
:10184000696f00006e3a0000206300006c6f0000ba
:10185000736500000d0a0000436f00006e74000005
:10186000656e0000742d0000547900007065000062
:101870003a20000074650000787400002f680000b2
:10188000746d00006c0d00000a0d00000a3c0000a1
:10189000687400006d6c00003e3c0000626f000048
:1018a0006479000020730000747900006c6500000a
:1018b0003d2200006d61000072670000696e00004b
:1018c0003a3100003030000070780000223e000005
:1018d0003c6600006f7200006d2000006d65000026
:1018e000746800006f6400003d7000006f730000ba
:1018f0007420000061630000746900006f6e0000d6
:101900003d2200002f6d000070660000737500001e
:10191000706c00006f610000642200002065000010
:101920006e63000074790000706500003d220000c5
:101930006d7500006c740000697000006172000039
:10194000742f0000666f0000726d00002d640000af
:1019500061740000612200003e3c0000623e000015
:101960004d50000046530000204900006d6100000a
:101970006765000020550000706c00006f6100007a
:10198000643c00002f6200003e3c0000703e0000fe
:101990003c6900006e700000757400002074000047
:1019a00079700000653d0000666900006c6500000c
:1019b000206e0000616d0000653d000069200000a0
:1019c000736900007a6500003d340000303e00007d
:1019d000202600006e620000737000003b200000b3
:1019e0003c6900006e7000007574000020740000f7
:1019f00079700000653d000073750000626d0000a5
:101a00006974000020760000616c000075650000bc
:101a10003d220000557000006c6f00006164000002
:101a2000223e00003c2f0000666f0000726d000037
:101a30003e3c00002f6200006f640000793e000011
:101a40003c2f0000687400006d6c00003e00000038
:101a500048540000545000002f3100002e31000087
:101a60002032000030300000204f00004b0d0000fd
:101a70000a4300006f6e00006e6500006374000092
:101a8000696f00006e3a0000206300006c6f000078
:101a9000736500000d0a0000436f00006e740000c3
:101aa000656e0000742d0000547900007065000020
:101ab0003a20000074650000787400002f68000070
:101ac000746d00006c0d00000a0d00000a3c00005f
:101ad000687400006d6c00003e3c0000626f000006
:101ae0006479000020730000747900006c650000c8
:101af0003d2200006d61000072670000696e000009
:101b00003a3100003030000070780000223e0000c2
:101b10003c6200003e4d0000504600005320000093
:101b200055700000646100007465000020530000df
:101b30007563000063650000737300006675000044
:101b40006c3c00002f6200003e3c0000703e000034
:101b50003c6100002068000072650000663d0000e6
:101b6000222f0000223e000053690000746500002f
:101b7000206d0000616900006e20000070610000af
:101b8000676500003c2f0000613e00003c2f000014
:101b9000626f0000647900003e3c00002f68000086
:101ba000746d00006c3e00000048000054540000ba
:101bb000502f0000312e0000312000003530000091
:101bc00030200000496e000074650000726e000055
:101bd000616c000020530000657200007665000013
:101be0007220000045720000726f0000720d00004c
:101bf0000a4300006f6e00006e6500006374000011
:101c0000696f00006e3a0000206300006c6f0000f6
:101c1000736500000d0a0000436f00006e74000041
:101c2000656e0000742d000054790000706500009e
:101c30003a20000074650000787400002f680000ee
:101c4000746d00006c0d00000a0d00000a3c0000dd
:101c5000687400006d6c00003e3c0000626f000084
:101c60006479000020730000747900006c65000046
:101c70003d2200006d61000072670000696e000087
:101c80003a3100003030000070780000223e000041
:101c90003c6200003e4d0000504600005320000012
:101ca000496d00006167000065200000436f00007f
:101cb0007272000075700000742000006f720000e6
:101cc00020570000726f00006e6700002056000071
:101cd00065720000736900006f6e00003c2f000009
:101ce000623e00003c7000003e3c000061200000ad
:101cf00068720000656600003d2200002f6d000044
:101d00007066000073750000706c00006f61000069
:101d1000642200003e54000072790000206100003f
:101d200067610000696e00003f3c00002f61000009
:101d30003e3c00002f6200006f640000793e00000e
:101d40003c2f0000687400006d6c00003e00000035
:101d500048540000545000002f3100002e31000084
:101d60002033000030320000204600006f75000074
:101d70006e6400000d0a0000436f00006e6e0000ec
:101d800065630000746900006f6e00003a20000077
:101d9000636c00006f730000650d00000a4c0000ca
:101da0006f63000061740000696f00006e3a00000c
:101db0002000000048540000545000002f31000063
:101dc0002e31000020340000303300002046000097
:101dd0006f7200006269000064640000656e0000bc
:101de0000d0a0000436f00006e6e00006563000086
:101df000746900006f6e00003a200000636c000000
:101e00006f730000650d00000a0d00000a34000029
:101e100030330000204600006f720000626900004d
:101e200064640000656e00003a2000005353000017
:101e30004c200000526500007175000069720000be
:101e400065640000202d000020750000736500000f
:101e50002048000054540000505300000d0a0000b8
:101e60000000000023890000238900004889000049
:101e7000a6890000278a0000c58a0000328b000076
:101e8000a28b0000088c000007890000288d00004c
:101e9000d58d0000a88e0000da8e0000436f000090
:101ea0006f6b0000696500003a000000417500009a
:101eb000746800006f720000697a000061740000ad
:101ec000696f00006e3a0000004300006f6e000072
:101ed000746500006e7400002d4c0000656e0000fb
:101ee00067740000683a0000000000004e8f000098
:101ef000568f0000658f00007478000074000000a9
:101f0000687400006d000000687400006d6c0000d3
:101f10000063000067690000007800006d6c00003d
:101f20000063000073730000006700006966000032
:101f3000007000006e670000006a0000706700001b
:101f4000006300006c610000007700006176000013
:101f50000000000000000000000000007c8f000076
:101f6000808f0000848f0000898f00008d8f00001b
:101f7000918f0000958f0000998f00009d8f0000c9
:101f8000a18f0000a58f0000a98f0000666f0000e0
:101f90006f740000657200002e6900006e6300001f
:101fa000006800006561000064650000722e00009a
:101fb000696e0000630000002144000045460000f7
:101fc0000047000045540000005000004f5300003f
:101fd000540000006d700000667300007570000012
:101fe0006c6f000061640000006900006e64000016
:101ff000657800002e680000746d0000000d000080
:102000000a0d00000a0000000d0a00000d0a000081
:102010004d5000004653000002010000000d00007a
:102020000a0d00000a330000303400002052000086
:10203000656400006972000065630000743a000086
:1020400020000000436f00006e740000656e000009
:10205000742d000054790000706500003a200000e3
:10206000004300006f6e0000746500006e74000095
:102070002d4500006e6300006f640000696e000073
:10208000673a0000206700007a690000700d0000c8
:102090000a0000004361000063680000652d000035
:1020a000436f00006e740000726f00006c3a000015
:1020b000200000006e6f00002d63000061630000cf
:1020c00068650000006d0000617800002d6100006f
:1020d000676500003d000000363000003000000061
:1020e00053650000742d0000436f00006f6b00000b
:1020f000696500003a20000000000000646e0000e6
:102100000075000070000000707200006f74000025
:102110006563000074000000736e00006d700000c5
:1021200000610000646d0000696e0000006d000039
:1021300069630000726f000063680000697000004e
:10214000006600006f7200006d7300002e680000d2
:10215000746d0000006c0000656400003400000035
:102160006c65000064330000006c000065640000d2
:10217000320000006c650000643100000063000064
:102180006f6f00006b690000657300002e6800002f
:10219000746d0000006c000065640000732e000088
:1021a00063670000690000006c65000064000000c7
:1021b0006c630000640000002f6600006f72000076
:1021c0006d7300002e680000746d00000075000043
:1021d000706c00006f610000642e000068740000e5
:1021e0006d0000000d0a0000000d00000a0d000047
:1021f0000a000000707200006f7400006563000048
:10220000742f0000636f00006e66000069670000b5
:102210002e680000746d000000690000700000006e
:102220006777000000730000756200000064000022
:102230006e73000031000000646e00007332000015
:10224000006d000061630000006800006f73000013
:10225000740000006468000063700000002f00003c
:10226000707200006f74000065630000742f00003e
:1022700072650000626f00006f7400002e6800003d
:10228000746d00003f0000002f700000726f0000ae
:1022900074650000637400002f6300006f6e00001f
:1022a00066690000672e0000687400006d00000081
:1022b000736e00006d7000002f7300006e6d0000e3
:1022c000706300006f6e000066690000672e0000fa
:1022d000687400006d000000726300006d00000073
:1022e000776300006d000000656d0000616900000b
:1022f0006c2f0000696e000064650000782e0000fd
:10230000687400006d0000004d69000063720000f9
:102310006f630000686900007020000054430000f3
:10232000502f00004950000020530000746100004d
:10233000636b00002053000074610000747500009e
:102340007320000055700000646100007465000097
:1023500000220000534d00005450000020530000a4
:1023600065720000766900006365000022200000ad
:102370003c6d000063680000706200006f61000047
:102380007264000040700000696300007361000027
:1023900072650000676f00006f6400002e6300002c
:1023a0006f6d00003e0000004d4900004d450000eb
:1023b0002d76000065720000736900006f6e0000ea
:1023c0003a200000312e0000300d00000a430000ca
:1023d0006f6e0000746500006e7400002d740000c4
:1023e00079700000653a0000206d0000756c0000f7
:1023f0007469000070610000727400002f6d0000ad
:1024000069780000656400003b200000626f0000f6
:10241000756e000064610000727900003d220000ca
:10242000667200006f6e0000746900006572000043
:10243000220d00000a0000007365000072760000a3
:1024400065720000007000006f72000074000000f0
:102450007573000065720000007000006173000079
:1024600073000000746f0000006d000073670000cf
:1024700000540000686900007320000069730000c8
:1024800020610000206d0000756c00007469000080
:102490002d70000061720000742000006d65000066
:1024a000737300006167000065200000696e000022
:1024b000204d0000494d000045200000666f0000df
:1024c000726d0000617400002e0d00000a00000013
:1024d0002d2d0000667200006f6e00007469000010
:1024e000657200000d0a0000436f00006e7400006a
:1024f000656e0000742d00007479000070650000a6
:102500003a20000074650000787400002f7000000d
:102510006c610000696e00000d0a00000d0a0000e9
:10252000000d00000a2d00002d660000726f0000f3
:102530006e74000069650000720d00000a4300001f
:102540006f6e0000746500006e7400002d74000052
:1025500079700000653a0000207400006578000082
:10256000742f000063730000760d00000a43000022
:102570006f6e0000746500006e7400002d44000052
:1025800069730000706f00007369000074690000d7
:102590006f6e00003a20000061740000746100005a
:1025a000636800006d6500006e7400003b20000051
:1025b000666900006c6500006e6100006d650000da
:1025c0003d22000073740000617400007573000008
:1025d0002e63000073760000220d00000a0d00003b
:1025e0000a0000005359000053540000454d0000fc
:1025f000205300005441000054550000530d0000ca
:102600000a00000042750000747400006f6e000044
:10261000733a00002c0000004c4500004473000099
:102620003a2c0000005000006f7400003a2c0000ab
:10263000002d00002d660000726f00006e74000017
:1026400069650000722d00002d0d00000a000000d9
:102650002f6500006d610000696c00002f690000ab
:102660006e640000657800002e680000746d000044
:10267000004d00006179000020200000342000009f
:10268000323000003130000020310000373a0000c5
:10269000303900003a310000360000007635000085
:1026a0002e32000035000000534500004c4500006c
:1026b0004354000045440000003c000062720000ea
:1026c000202f00003e000000266e00006273000014
:1026d000703b0000006e0000616d000065000000ae
:1026e000486500006c6c00006f2c000020000000aa
:1026f0006e6f00007420000073650000740000001d
:102700003c6200003e550000706c00006f610000ec
:102710006420000061200000466900006c65000034
:102720003c2f0000623e0000003c0000623e0000c2
:10273000557000006c6f000061640000656400006b
:1027400020460000696c000065270000732000002f
:102750004d4400003520000077610000733a00000e
:102760003c2f0000623e00003c620000722000002e
:102770002f3e00000063000068650000636b0000ee
:102780006564000000660000616900006c000000e4
:102790005468000065200000447900006e6100006c
:1027a0006d69000063200000444e000053200000cb
:1027b000436c0000696500006e7400002069000031
:1027c000732000006e6f000074200000656e000032
:1027d000616200006c650000642e0000006e000065
:1027e0006f6e000065000000626c00006f63000007
:1027f0006b0000000d0a00000d0a00000d4d0000e6
:1028000069630000726f0000636800006970000077
:1028100020540000435000002f49000050200000c9
:10282000436f00006e6600006967000020410000f1
:10283000707000006c690000636100007469000042
:102840006f6e000020280000763500002e32000058
:10285000352c0000204d0000617900002020000090
:10286000342000003230000031300000290d00001b
:102870000a0d00000a000000093100003a200000a3
:1028800043680000616e000067650000207300006f
:1028900065720000696100006c2000006e75000028
:1028a0006d620000657200003a0900000900000036
:1028b0000d0a0000093200003a20000043680000c1
:1028c000616e000067650000206800006f73000003
:1028d000742000006e6100006d6500003a09000080
:1028e00009090000000d00000a090000333a000049
:1028f00020430000686100006e6700006520000052
:1029000073740000617400006963000020490000d6
:1029100050200000616400006472000065730000d4
:10292000733a000009090000000d00000a090000c8
:10293000343a000020430000686100006e67000028
:10294000652000007374000061740000696300007a
:102950002067000061740000657700006179000065
:102960002061000064640000726500007373000061
:102970003a090000000d00000a090000353a000085
:1029800020430000686100006e67000065200000c1
:10299000737400006174000069630000207300001c
:1029a000756200006e650000742000006d6100001b
:1029b000736b00003a090000090000000d0a0000d6
:1029c000093600003a20000043680000616e0000f4
:1029d00067650000207300007461000074690000e6
:1029e0006320000070720000696d000061720000d9
:1029f00079200000444e0000532000007365000061
:102a000072760000657200003a090000000d0000b7
:102a10000a090000373a0000204300006861000006
:102a20006e67000065200000737400006174000090
:102a30006963000020730000656300006f6e000092
:102a40006461000072790000204400004e530000d1
:102a5000207300006572000076650000723a000085
:102a6000090000000d0a0000093800003a200000ab
:102a70000044000069730000004500006e00000083
:102a8000616200006c6500002044000048430000c3
:102a90005020000026200000495000002047000080
:102aa0006c650000616e0000696e0000673a00000e
:102ab000090900004448000043500000206900005c
:102ac000732000006375000072720000656e0000e4
:102ad000746c000079200000006500006e61000049
:102ae000626c00006564000000640000697300000f
:102af000616200006c650000640000000d0a0000c7
:102b0000093900003a200000446f0000776e000091
:102b10006c6f000061640000204d00005046000012
:102b200053200000696d000061670000652e000001
:102b3000000d00000a090000303a00002053000098
:102b4000617600006520000026200000517500001d
:102b5000697400002e0000000d0a0000456e0000a0
:102b60007465000072200000612000006d650000a7
:102b70006e75000020630000686f0000696300004c
:102b8000653a0000200000000d0a0000004e000021
:102b90006577000020730000657400007469000010
:102ba0006e6700003a200000004900006e760000c9
:102bb000616c000069640000206900006e70000014
:102bc000757400002e0d00000a000000536500001f
:102bd00074740000696e00006773000020730000c9
:102be00061760000656400002e0d00000a00000000
:102bf0000d0a00000d0a0000476f00006f6400001e
:102c000062790000652100000d0a0000002000002c
:102c100020200000202000002020000020200000b4
:102c2000200000000d0a0000534e00005450000028
:102c300020540000696d0000653a0000202000006b
:102c40002020000028640000697300006162000019
:102c50006c650000642900000d0a0000416e000050
:102c6000616c00006f6700003a2000002020000027
:102c70002020000020200000202000002020000054
:102c80002020000031300000323300000d0a000027
:102c900042750000747400006f6e0000733a00000b
:102ca0002020000020200000202000002020000024
:102cb00020330000203200002031000020300000ce
:102cc0000d0a00004c450000447300003a2000004b
:102cd00020200000203700002036000020350000b2
:102ce000203400002033000020320000203100009a
:102cf00020300000000d00000a4c00006f6700004b
:102d00006765000064200000696e00002073000009
:102d10007563000063650000737300006675000052
:102d20006c6c0000790d00000a0d00000a0d000017
:102d30000a50000072650000737300002027000035
:102d400071270000207400006f20000071750000e2
:102d5000697400000d0a0000000d00000a41000027
:102d60006363000065730000732000006465000069
:102d70006e690000656400000d0a00000d0a000085
:102d80000050000061730000737700006f72000054
:102d9000643a000020ff0000fd2d0000001b000031
:102da0005b3200004a1b00005b330000316d000005
:102db0001b5b0000316d00004d6900006372000074
:102dc0006f63000068690000702000005465000017
:102dd0006c6e0000657400002053000065720000f6
:102de0007665000072200000312e0000311b0000cb
:102df0005b3000006d0d00000a280000666f0000c7
:102e000072200000746800006973000020640000f4
:102e1000656d00006f2c00002074000079700000c8
:102e20006520000027610000646d0000696e0000ed
:102e300027200000666f0000722000007468000008
:102e4000652000006c6f0000676900006e200000c4
:102e5000616e000064200000276d000069630000bf
:102e6000726f000063680000697000002720000096
:102e7000666f00007220000074680000652000008a
:102e80007061000073730000776f000072640000cf
:102e90002e2900000d0a00004c6f00006769000039
:102ea0006e3a0000200000000d0a0000546f000080
:102eb0006f2000006d750000636800002064000052
:102ec00061740000612e00000d0a00000061000026
:102ed000646d0000696e0000005400006f6f000018
:102ee000206d000075630000682000006461000030
:102ef000746100002e0d00000a0000006d690000e2
:102f0000637200006f6300006869000070000000d9
:102f10001b5b0000316d0000001b00005b310000f6
:102f2000303b000031350000660000001b5b0000f4
:102f3000313100003b32000031660000001b000010
:102f40005b310000323b00003138000066000000b9
:102f50001b5b0000313300003b3100003066000095
:102f6000001b00005b310000343b000031660000b4
:102f700000000000070c000011160000070c000004
:102f800011160000070c000011160000070c0000cd
:102f900011160000050900000e14000005090000cc
:102fa0000e140000050900000e14000005090000c1
:102fb0000e140000040b000010170000040b0000aa
:102fc00010170000040b000010170000040b000095
:102fd00010170000060a00000f150000060a000086
:102fe0000f150000060a00000f150000060a000079
:102ff0000f15000078a400006ad7000056b7000043
:10300000c7e80000db70000020240000eece0000c6
:10301000bdc10000af0f00007cf500002ac6000013
:10302000874700001346000030a80000019500000b
:1030300046fd0000d898000080690000aff700004e
:10304000448b0000b15b0000ffff0000bed7000012
:103050005c89000022110000906b00009371000059
:1030600098fd00008e43000079a6000021080000b2
:10307000b4490000622500001ef6000040b30000c5
:1030800040c00000515a00005e260000aac70000a0
:10309000b6e900005d1000002fd6000053140000b8
:1030a0004402000081e60000a1d80000c8fb000037
:1030b000d3e70000e6cd0000e1210000d6070000c4
:1030c00037c30000870d0000d5f40000ed140000a8
:1030d0005a45000005e90000e3a90000f8a300003c
:1030e000effc0000d90200006f6700008a4c00006e
:1030f0002a8d000042390000faff000081f600002e
:1031000071870000226100009d6d00000c380000f6
:10311000e5fd000044ea0000bea40000a9cf0000c5
:10312000de4b0000604b0000bbf6000070bc0000ee
:10313000bfbe0000c67e00009b280000fa270000ea
:10314000a1ea000085300000efd40000051d00005a
:103150008804000039d00000d4d90000e5990000af
:10316000dbe60000f87c0000a21f000065560000ae
:10317000acc400004422000029f4000097ff0000c6
:103180002a430000a723000094ab000039a00000f0
:1031900093fc0000c35900005b65000092cc000066
:1031a0000c8f00007df40000efff0000d15d0000f7
:1031b000848500004f7e0000a86f0000e0e600005c
:1031c0002cfe00001443000001a30000a111000028
:1031d000084e0000827e000053f7000035f2000028
:1031e0003abd0000bbd20000d72a000091d30000f6
:1031f00086eb000077770000772e0000676f0000f5
:103200006f6700006c6500002e6300006f6d0000aa
:10321000004300006f7500006c640000206e000029
:103220006f74000020720000657300006f6c000076
:10323000766500002053000065720000766500008e
:10324000724e0000616d0000655b00005d200000b3
:10325000746f0000204900005020000061640000ed
:103260006472000065730000732e00000d0a0000f8
:10327000000d00000a0d00000a4300006f6e000000
:103280006e65000063740000696e00006720000036
:1032900075730000696e0000672000004265000041
:1032a000726b0000656c000065790000205300001f
:1032b0006f6300006b650000747300002054000011
:1032c0004350000020410000504900002e2e000015
:1032d0002e0d00000a00000020200000204e0000fb
:1032e0006f740000653a00002074000068690000f7
:1032f00073200000646500006d6f000020770000ff
:10330000696c00006c200000646f0000206e0000fb
:103310006f740000686900006e670000206900009b
:1033200066200000616e0000207500006e640000e1
:10333000657200006c790000696e00006720000073
:1033400054430000505f00005055000052500000f0
:103350004f530000455f000042450000524b000003
:10336000454c0000455900005f4300004c490000f7
:10337000454e000054200000747900007065000084
:10338000200d00000a20000020200000736f0000c4
:10339000636b00006574000020690000732000006a
:1033a000756e000061760000616900006c610000cc
:1033b000626c0000652c000020610000732000009a
:1033c00064650000636c00006172000065640000c9
:1033d0002062000079200000746800006520000071
:1033e00054430000505300006f6300006b65000001
:1033f000744900006e69000074690000616c00008f
:10340000697a0000657200005b5d000020610000c9
:103410007272000061790000206900006e200000d7
:103420000d0a00002020000020540000435000003e
:1034300049500000436f00006e660000696700009d
:103440002e6800002e0d00000a0d00000a0000008a
:1034500000040000a30000000000000070720000e3
:10346000697600006174000065000000777200005a
:10347000697400006500000070750000626c000057
:1034800069630000000000002e9a0000369a0000d8
:103490003c9a0000726500006164000000000000ba
:1034a0003c9a00004a9a00004f9a000054430000e2
:1034b0005053000074610000636b00002076000030
:1034c000352e0000323500002020000020200000b2
:1034d00020200000202000002020000020200000ec
:1034e000202000002020000020200000004d0000cf
:1034f00043480000504200004f4100005244000089
:10350000000d00000a0d00000a42000055540000a2
:10351000544f00004e30000020680000656c000031
:1035200064200000666f0000722000006d6f0000d4
:103530007265000020740000686100006e200000c9
:103540003420000073650000636f00006e640000ab
:10355000732e00002020000044650000666100001a
:10356000756c000074200000736500007474000026
:10357000696e000067730000207200006573000030
:10358000746f000072650000642e00000d0a0000d8
:103590000d0a0000000d00000a4e000065770000d3
:1035a00020490000502000004164000064720000c7
:1035b00065730000733a0000200000000d0a00004f
:1035c000000000002f7300006561000072630000be
:1035d000683f0000617300005f7100003d4d000016
:1035e00069630000726f000063680000697000008a
:1035f00026610000735f00007369000074650000bd
:103600007365000061720000636800003d6d00009a
:1036100069630000726f0000636800006970000059
:103620002e6300006f6d0000000d00000a0d000009
:103630000a4300006f6e00006e65000063740000b6
:10364000696e00006720000075730000696e00005d
:10365000672000004d690000637200006f63000086
:1036600068690000702000005443000050200000f2
:1036700041500000492e00002e2e00000d0a0000cf
:1036800000470000455400002000000020480000d2
:1036900054540000502f0000312e0000300d000067
:1036a0000a4800006f730000743a00002000000018
:1036b0000d0a0000436f00006e6e0000656300009d
:1036c000746900006f6e00003a200000636c000017
:1036d0006f730000650d00000a0d00000a00000075
:1036e000484500004c4f0000204d000043480000ba
:1036f000504200004f410000524400000d0a0000fb
:1037000000450000484c00004f2000004d430000e1
:1037100048500000424f000041520000440d00009c
:103720000a0000004155000054480000204c0000f1
:103730004f470000494e00000d0a0000000d000038
:103740000a0000004d410000494c000020460000e6
:10375000524f00004d3a00003c0000003e0d0000ba
:103760000a000000524300005054000020540000a2
:103770004f3a00003c00000044410000544100006a
:103780000d0a000000460000726f00006d3a000054
:10379000200000000d0a0000546f00003a200000d5
:1037a000000d00000a430000433a00002000000022
:1037b0000d0a000053750000626a00006563000096
:1037c000743a0000200000000d0a00002e0d0000d9
:1037d0000a0000000d0a00002e00000051550000f4
:1037e000495400000d0a0000000000003a200000cb
:1037f0005765000020610000726500002063000032
:1038000075720000726500006e7400006c79000033
:1038100020610000636800006965000076690000af
:103820006e67000020000000202000002020000023
:103830002020000020000000303000002062000046
:1038400079740000657300002f7300006563000049
:103850006f6e0000642000005458000020740000c7
:10386000687200006f7500006768000070750000e6
:10387000742e00000d0a0000002000006279000094
:1038800074650000732f000073650000636f000013
:103890006e6400000d0a0000000000006d61000071
:1038a000696c000000220000534d000054500000dd
:1038b0002053000065720000766900006365000017
:1038c000222000003c6d0000636800007062000070
:1038d0006f610000726400004070000069630000c6
:1038e0007361000072650000676f00006f64000084
:1038f0002e6300006f6d00003e0000004865000070
:103900006c6c00006f200000776f0000726c00008c
:103910006421000020200000534d0000545000009e
:103920002054000065730000742e000000000000a9
:1039300077770000312e00006d690000637200008f
:103940006f63000068690000702e0000636f000064
:103950006d000000506900006e67000020740000d8
:10396000696d000065640000206f00007574000040
:1039700000430000616e0000277400002072000008
:10398000657300006f6c0000766500002049000040
:103990005000000052650000706c0000793a000091
:1039a000200000006d730000000000000000000017
:1039b0007d00000064000000010000001400000011
:1039c0001400000002000000c80000009600000083
:1039d00005000000c8000000010000000700000012
:1039e000000100000001000008000000c800000005
:1039f000c800000008000000c8000000c800000067
:103a000009000000c8000000c80000000a00000013
:103a10001900000014000000020100000202000072
:103a20000204000004ff000004ff00004004000046
:103a300041040000430400004204000006ff0000af
:103a40002b0600000102000001010000032b000012
:103a5000060100000603000001010000040100004f
:103a6000736e00006d7000002e620000696200003d
:103a7000002b000006010000040000000d0a0000f9
:103a800044480000435000002f5000006f770000b2
:103a90006572000020650000766500006e7400000d
:103aa000206f000063630000757200007265000003
:103ab00064000000426f00006f7400006c6f000033
:103ac0006164000065720000205200006573000010
:103ad0006574000000000000706f00006f6c000053
:103ae0002e6e0000747000002e6f000072670000e0
:103af00000000000706f00006f6c00002e6e000070
:103b0000747000002e6f000072670000000000005b
:103b10004d5000004653000002010000000000006c
:020000040000fa
:103b2000ec6def00f20f20008000eb00100a200087
:103b30008aaf020000000000deefb70000000600c0
:103b4000889fbe008a9fbe008c9fbe0080067800c2
:103b50000245780083457800044678000604be00dc
:103b6000a0dd2000b0030200000000000a00780081
:103b7000e2edb7000b007800e3edb7000c00780031
:103b8000e4edb700386f8800496f88000d007800b9
:103b900084bb0200000000004f06be004f05be00bf
:103ba0004f04be00000006000a00fa00881f7800db
:103bb00000047800e88057005eba020000000000b0
:103bc0000000e0000d0032001800be00a0bf9f0002
:103bd000b1bf9f00220a2000ec805700e0ff2f00b9
:103be0008aaf020000000000e5edb70000c0ea0067
:103bf0000080fb000000ea004f00de004f04780068
:103c00000080fa00000006000041780090c0b30078
:103c100080487800e24f51001100320006003e005b
:103c200010c0b3000204e0000e003200e14f51006a
:103c300008003a0008003700e44f51000c00320041
:103c400040c0b30007003900f0fd2000e64f5100ee
:103c50000a0032000000050020c0b3000100370058
:103c600030c0b300f0efb70080fe20000000060077
:103c700050c0b300f0efb70080fe20000000060047
:103c800001017800e90f5000040036000040eb000d
:103c90008048780090409800000005000000400037
:103ca000c1d0290061497800d1d02900e1407800d5
:103cb00011419800100005000200fa00889fbe0024
:103cc0000004780030009000f000600007003a0027
:103cd000690060003a00320018099000a8099000bd
:103ce000ebcdbf003899020000000000ebcdbf0013
:103cf000089b0200000000000001be008800780060
:103d00008298be00ebcdbf00469602000000000086
:103d1000e6044400ebcdbf0089007800469602001f
:103d200000000000190078000078a30004003200b1
:103d3000ea004400ebcdbf00469602000000000000
:103d400099007800698060000c003200ebcdbf0064
:103d5000e68057004696020000000000ebcdbf0051
:103d6000e580570046960200000000005fb897000b
:103d700001002000100c9800210c98009904780094
:103d8000f0846400d9ff3a0049049800e800440038
:103d9000ebcdbf004696020000000000ebcdbf0057
:103da000089b02000000000070049800010c9800bd
:103db00010c0b300305c9800295c9800100020000f
:103dc0004f04be000080fa0000000600e8874700ac
:103dd000889fbe008a9fbe008c9fbe008e1f780009
:103de0000007780092f79f000305780010c0b30029
:103df000eaedb7009e4e90006e469000ec0dab00d1
:103e0000bf00320002447800810578000040eb00da
:103e100080f79f006011b800ebcdbf008000eb0081
:103e20003899020000000000ebcdbf00089b0200a3
:103e300000000000008dbe00ebcdbf00f4805700f5
:103e40004696020000000000e6044500ebcdbf00ee
:103e500089007800469602000000000019007800f2
:103e60000078a30004003200ebcdbf00ea0045005b
:103e7000469602000000000099007800688060000b
:103e80000c003200ebcdbf00f280570046960200d6
:103e900000000000ebcdbf00f18057004696020005
:103ea000000000007fb0970001002000100d980076
:103eb000210d98004fe897009b4f500013003200ef
:103ec0009ff09700814f5400510032001900780094
:103ed0000038a300760032007fb197000300200075
:103ee000ebcdbf008000eb0038990200000000001d
:103ef000ebcdbf00089b0200000000000001be00e7
:103f000010c0b30080f79f00c3ff37000844e900ea
:103f10008b05e80019007800f00460002e003a00dc
:103f20000008a3000c003200ebcdbf00f280570068
:103f30004696020000000000ebcdbf00f180570064
:103f400046960200000000007fb0970001002000ac
:103f5000100d9800210d980049059800ebcdbf0089
:103f6000e80045004696020000000000ebcdbf00cf
:103f7000089b02000000000070059800010d9800e9
:103f800001cab300814f560009003a000804e0005e
:103f900042003200e14f54001c003a001b04e000d4
:103fa0001b003a0009007800eaedb700180037005e
:103fb00010cab300804f560015003a000804e00014
:103fc00013003a0010c0b300eaedb7006147980053
:103fd000014678000e003700e14f540004003a001b
:103fe0001b04e00004003a00ea6def0030003700e7
:103ff0000804e0002c003200ebcdbf00089b02005b
:10400000000000000001be0083ff37000ccab300af
:10401000cfe89700215d98001b407800c0ef9f001b
:1040200010c0b300305d9800804f540003003a0088
:104030009b4578002b5d9800030037000804e000e2
:1040400003003a00285d980010002000330037007c
:10405000e14f540004003e0010002000cfe897001c
:104060000104e0002d003d0000c0eb00305d980031
:1040700000cab300804f560021003a000d04e00052
:1040800021003200e1cf56001d003a001ff09700da
:10409000804f54001e0032001f00370009007800d6
:1040a000eaedb7000500370008007800eaedb70038
:1040b00000cab300804f560008003a000d04e0002b
:1040c00011003200e1cf56000d003a009ff097003a
:1040d000814f54000e0032000f00370010cab300a9
:1040e000804f56000300320064404000804f56006d
:1040f00003003a0020082000e1cf560007003200fc
:104100000000eb000500370020002000030037000e
:104110001008200001003700000820004f07780039
:104120004f06be004f05be004f04be008f00b10019
:1041300000000600881f78000044780008407800de
:104140000cb00200000000000000e000fbff3200a5
:10415000ee2def00f02def004f0478000000060078
:10416000881f780000447800806f8000eaaf02006a
:10417000000000000840780036b002000000000097
:10418000f02dec004f047800000006000a00fa0051
:10419000889fbe008a9fbe000004780081057800d9
:1041a0006000b800a0bf9f00b1bf9f003800900022
:1041b000f004600060003a000028a30003003a0009
:1041c000285890000004e0005b003a006f8557001b
:1041d000480090000080fb008a007800a8fe0700dd
:1041e0000000e000540032000b00e000020032004a
:1041f00009057800050037001a407800d8ff07004d
:104200008a6f80002ff09700d5ff070038009000dc
:104210006201600016003200780190008809900069
:10422000ebcdbf008000eb003899020000000000d9
:10423000ebcdbf00f2805700469602000000000060
:104240006fec970006003700ebcdbf00f180570000
:1042500046960200000000007fe89700c0ff0700bc
:104260000844e900e14f4400f7ff3a002500370019
:1042700082f79f006000b800a0bf9f00b1bf9f0001
:10428000e2ef9f00a858900028489000ec8157006a
:10429000708157009e870200000000000000e000cf
:1042a000250032002ff09700e14f40000d00320052
:1042b000e0ef9f00070037000040e900a0f79f00f3
:1042c0000080fb00f2805700010040006040900039
:1042d000a3ff07002ff097000004e000f6ff3a006c
:1042e000080037006fe897000040e800e0ef9f000b
:1042f0004ff097009aff07000ff09700e14f400042
:10430000e0ff3a000b00e00008003a00886f8000f0
:104310008a6f88006fe8970091ff0700886f880018
:10432000efe8970081c0e800e1ef9f00efe8970019
:104330000180fb00010037000000eb004f05be00cc
:104340004f04be000080fa0000000600889fbe00f7
:104350008a1f780081047800034478008a6f800007
:10436000806f8800024078007dff0700896f880019
:10437000084078007aff07008a6f88004f057800b0
:104380004f04be00000006000200fa00706f8000bb
:104390008000e800716f8800fcaf020000000000a0
:1043a0000f80e90086b1020000000000eff89700de
:1043b0000180fb000080fa00000006000200fa0005
:1043c000889fbe008a9fbe00800578000000eb0039
:1043d000b0bf9f00ecff0700e0f79f001ac0b300da
:1043e0000004e0000f003d00804478000974a10043
:1043f0000000eb00e2cf54000d003e000945e8004c
:104400000944780004003700dfff07008880fb00c4
:10441000ea80500080f07f000844e900e14f44004a
:10442000f9ff3a003fb89700800d78000a80fb0042
:104430004f05be004f04be000080fa0000000600d9
:104440000400fa00881f780000047800ceff0700ff
:1044500001c3b300814f500009003a006680570045
:10446000d6ff07000004e00005003200dfb8970027
:10447000010c78000040e8000080fb0001003700dc
:104480000000eb004f0478000080fa0000000600f6
:104490000800fa00889fbe008a1f78000005780097
:1044a0006044b80098bf9f00a9bf9f00b6ff0700f7
:1044b000e24f50001d003a006e805700bfff07001a
:1044c0000004e0001900320040002000010020003c
:1044d0001fb99700afb99700800f5100818f590025
:1044e00012003e00b8bf9f00c9bf9f000500370003
:1044f000a5ff07008880fb00ee8157008380400005
:10450000c04098002ff097000044e900a8f79f00f2
:10451000e14f4400f6ff3a003fb99700cfb997004a
:10452000028dbe0010002000010037000000eb00eb
:104530004f0578004f04be000080fa00000006001e
:104540000400fa00889fbe000004be008eff070032
:10455000e64f500014003a006880570097ff0700ac
:104560000004e000100032004fb89700ef0f500039
:104570000d003e008ff89700814c78000200370054
:1045800081ff0700005c78008ff897000140e90088
:1045900080ff9f00e14f4000f9ff3a00004c780097
:1045a00010002000010037000000eb004f04be00a7
:1045b0000080fa000000060073ff07008000eb0097
:1045c000e54f500004003a006fff07000080fb0039
:1045d0000000e900cf00de000100780000000600c6
:1045e0000200fa00889fbe008a1f78000004be0007
:1045f00002057800ebcdbf008000eb000801be0093
:1046000038990200000000008a0078008898be00f7
:10461000ebcdbf0046960200000000006604450096
:10462000ebcdbf0088007800469602000000000035
:10463000180478000878a30004003200ea0045005e
:10464000ebcdbf0046960200000000000838a30032
:104650000c003200ebcdbf00e88057004696020008
:1046600000000000ebcdbf00e78057004696020037
:10467000000000004fb8970001002000100d9800c6
:10468000210d9800f004640006003200ebcdbf005d
:10469000089b020000000000300d9800410d9800ba
:1046a000180037000808a3000c003200ebcdbf0053
:1046b000e88057004696020000000000ebcdbf00e6
:1046c000e780570046960200000000004fb89700b0
:1046d00001002000100d9800210d98004905980058
:1046e000e8004500ebcdbf00469602000000000048
:1046f000ebcdbf00089b0200000000007005980091
:10470000010d98004f0578004f04be000080fa00ac
:1047100000000600fe874700889fbe008a9fbe00fb
:104720008c9fbe008e1f78008106780002077800fb
:104730001005be006044b8000046eb0001003700e1
:104740000004be0062fd2f000f0141000800be0002
:10475000a3ff07000c80fb00afd8970001f07e009c
:10476000880f5500898f5d0003003a000c4fe80068
:1047700010002000170037006fa897000038a30032
:104780000c003200ebcdbf008000eb004fb1970072
:10479000dfb197003899020000000000ebcdbf00a8
:1047a000089b020000000000800f5500818f5d0013
:1047b000e3ff31006fa897000048a3000400320017
:1047c0000c46e8006fb49700ffb49700ddff370098
:1047d0000000eb004f0778004f06be004f05be00fb
:1047e0004f04be00ef01b10000000600889fbe002c
:1047f0008a9fbe0000457800010478008205780099
:10480000830478006000b8000801780074ff070096
:10481000b80090000148a30012003a000178a300fc
:1048200008003200284890008a4f500005003a00e6
:10483000090178008b00780008007800b5ff0700b8
:104840000d003700698060000a00320018099000ee
:10485000a8099000ebcdbf008000eb003899020062
:1048600000000000ebcdbf00089b0200000000002c
:10487000e5ff37000000eb004f05be004f04be000f
:10488000000006004400fa00889fbe008a9fbe0018
:104890008c1f78008045780092bf9f00a3bf9f00c7
:1048a0000146780021fb2f008f8040006c80400083
:1048b00072d2290008000900325878009000b10037
:1048c0006580400001d229000600090031587800b7
:1048d0007000b10000d32900bc9702000000000066
:1048e000ebedb700e14f400005003a00e5cdbf0019
:1048f0006eaf0200000000000000eb00b2013700c4
:10490000be0de200ce003a00bc0de200cc003a0041
:10491000e5cdbf0007fe0700826f8000b26d880002
:10492000e2cdbf00a0779f0000c3b3000cfe0700dc
:10493000816f8000f16d88000040eb0008fe0700e9
:1049400020c0b30006fe070010c0b30004fe07003d
:1049500010c0b30002fe070040c0b30000fe070015
:104960002f709700fefd0700a8dd20000200370031
:1049700038407800fafd07002f7197000240e900e7
:10498000a0779f00e14f4000f9ff3a0070cab300e2
:10499000f3fd0700806f8000e06d88000040eb00b1
:1049a000effd070020c0b300edfd070040c0b300dd
:1049b000ebfd07000040eb00e9fd07000040eb00c5
:1049c000e7fd07000040eb00e5fd070010c0b30065
:1049d000e3fd070020c0b300e1fd070010c0b300f5
:1049e000dffd07000040eb00ddfd070020c0b30045
:1049f000dbfd070010c0b300d9fd07000040eb004d
:104a0000d7fd070000c3b300d5fd0700816f80000c
:104a1000d16d88000040eb00d1fd070000c3b3005a
:104a2000cffd0700826f8000c26d88000040eb0060
:104a3000cbfd070060c0b300c9fd070070c0b30024
:104a4000b0779f0080c0b300c5fd070070fb2f004a
:104a50000f0440000200370038407800c0fd070016
:104a60003f7097000040e900b0779f00e14f4000a1
:104a7000f9ff3a000040eb00b9fd070030c4b30075
:104a8000b7fd070040c0b300b5fd0700e9cdbf008a
:104a9000b3fd0700e8cdbf00b1fd0700e7cdbf00c3
:104aa000affd0700e6cdbf00adfd0700886f8000b9
:104ab000c16d8000816f880000c1b300b0779f0096
:104ac000a7fd0700886f88003f7097000080fb00fb
:104ad0000080e800cf80de00026e8000136e800050
:104ae0000001410081814900026e8800136e880038
:104af00000c3b3009afd0700826f8000c26d88007a
:104b00000040eb0096fd070060c0b30094fd070075
:104b100090c0b300b0779f00a0c0b30090fd070025
:104b2000e0fb2f000f0440000200370038407800ff
:104b30008bfd07003f7097000040e900b0779f00b1
:104b4000e14f4000f9ff3a000040eb0084fd070010
:104b5000e3cdbf0021fb2f008f8040008101e800e2
:104b60007581400061fd2f008f8040001fff07000e
:104b7000000478000000e000b2003200ebcdbf007e
:104b80006fac97000804b200af0032008000eb0069
:104b90002fb19700bfb197003899020000000000c4
:104ba00060c0b3006efd0700ebcdbf0021fb2f00fe
:104bb0008f8040004696020000000000af7497000e
:104bc0000940780006003700ebcdbf0042fb2f0004
:104bd0008f00410046960200000000004f709700d1
:104be0005ffd0700af7097000140e900a0779f00cc
:104bf000e14f4000f4ff3a00886f8000c26d8000f2
:104c0000826f88006ec04400b0779f0054fd07009b
:104c1000886f88003f7097000080fb000080e800ec
:104c2000cf80de00026e8000136e80000001410024
:104c300081814900026e8800136e880002003700ef
:104c4000c06d8000806f880000c3b30044fd070082
:104c5000816f8000c16d88000040eb0040fd0700bf
:104c600048eb20001844780032fb2f008f004100f1
:104c7000e64f54004600320008407800e2fb07008f
:104c8000000478000000e0006e00320060c0b30055
:104c900033fd07003f7097000040e8000100370037
:104ca000384078002efd07003f7097000040e90073
:104cb000b0779f00e14f4000f9ff3a000040eb0061
:104cc00027fd0700e3cdbf0021fb2f008f804000b0
:104cd0008101e8007581400061fd2f008f80400058
:104ce000c2fe0700000478000000e000550032001a
:104cf000ebcdbf006fac97000804b2005200320049
:104d00008000eb002fb19700bfb1970038990200e7
:104d10000000000060c0b30011fd0700ebcdbf0034
:104d200021fb2f008f80400046960200000000000b
:104d3000af7497000940780006003700ebcdbf0044
:104d400042fb2f008f004100469602000000000049
:104d50004f70970002fd0700af7097000140e90017
:104d6000a0779f00e14f4000f4ff3a00886f800079
:104d7000c26d8000826f88006ec04400b0779f00d3
:104d8000f7fc07003f709700a0779f0056003700a0
:104d900072fc2f000f054100810178000a017800a4
:104da00061fd2f008f8040000b4078008ffe0700d0
:104db000800478000000e00008003a00ebcdbf005e
:104dc0002e96020000000000e5cdbf006eaf02008d
:104dd00000000000090078007b00370008407800e0
:104de000dffc07003f7097000040e800dcfc070094
:104df0003f709700a0779f000a04780002003700f8
:104e000038407800d6fc0700af7097000140e900f9
:104e1000a0779f00e14f4000f9ff3a000c40780076
:104e2000cffc070052fb2f008f0441007fa89700a2
:104e30008900780092fb0700000478000000e00081
:104e400008003a00ebcdbf002e96020000000000e3
:104e5000e5cdbf006eaf0200000000000800780042
:104e60005900370019407800bdfc07006f709700ab
:104e7000e14f400005003a0040c0b300e0779f00da
:104e80006000b80090bf9f00a1bf9f006f709700a7
:104e9000a0779f00050037000080fb0021fb2f005a
:104ea0008f8040000100400000c09000acfc070073
:104eb0002f7197000240e900a0779f00e14f40006a
:104ec000f5ff3a006f709700bf70970001404000f7
:104ed00065404000a0779f00886f8000c16d800012
:104ee000816f88009efc0700886f8800c86d88006d
:104ef0002f7197000280fb000080e800cf80de0069
:104f0000026e8000136e8000000141008181490023
:104f1000026e8800136e880020eb200011c0b300e1
:104f200090cf100004003a00ebcdbf002e96020097
:104f30000000000023003700d06d8000806f8800e3
:104f40000240780086fc0700c0cdbf006e404000e4
:104f5000a0779f00e16d8000816f880080fc0700d2
:104f6000e2cdbf002f719700004041006740400034
:104f7000a0779f00f16d8000816f880078fc0700aa
:104f8000b26d8000826f8800be2def00bc2def0057
:104f9000ba2def00b82def00b62def00c02def00b9
:104fa000c22def00ebcdbf002e96020000000000e6
:104fb0009eb0020000000000e5cdbf006eaf020011
:104fc00000000000100020004f0678004f05be00d2
:104fd0004f04be000080fa00000006002f0db00054
:104fe000889fbe008a9fbe008c9fbe008e1f7800e7
:104ff000decfbf00e14f40001a0632006ab1020066
:10500000000000000000e00016063200decfbf0006
:1050100048fc070080f32f000f04400008007800d0
:1050200007fd07000004e0003c00320008007800a3
:1050300017fd07000000e000380032000f789600ee
:1050400090d79e00e14f500034003e00cefc070098
:10505000e44f500031003a00cbfc070080f79f007e
:10506000e84f500030003e0001f42f000f84400054
:1050700002003700c4fc0700005c78000ff19700c5
:105080008280fb0003f42f000f80410001004000ec
:10509000800f5400f7ff3a00004ceb00bafc070009
:1050a0008040780002c6b30002404000e14f50004b
:1050b0000600360030cab30080cf50000300320033
:1050c00000c0e80080cf500017003a000184fb00c8
:1050d000c3f22f000f804100b8fc07000004e0007d
:1050e00011003200e8cf9e001fd096000004e000bf
:1050f00003003a0050cab300804f54000a00320047
:1051000001f42f000f804000ec810200000000003d
:10511000e34f500005003a00030037000004eb00a5
:1051200088f79f00010037000004eb00e8cf9e00e5
:105130000804e000c405320043f32f000f8441004f
:1051400008007800d2fc07000000e000be05320035
:105150002f189700bf189700c0279f00d1279f00e6
:105160001fd19600e14f51000d003e00efc89600a0
:1051700050cab30080cf5000090032000800780008
:10518000c3fc07000000e000af0532000800780013
:10519000bffc07000000e000ab0532001400370040
:1051a000e14f5100a8053a00efc8960050cab3007d
:1051b00080cf5000a4053a0041f32f000f84400037
:1051c00008007800b2fc07000000e0009e053200f5
:1051d0004f719600c2cf9e0008007800acfc07001b
:1051e0000000e00098053200cf719600d3cf9e00fa
:1051f000ec0da90000d32900bc97020000000000bc
:10520000ebedb700e14f400001003200ec0da800cb
:10521000d62def00d42def00d22def00d82def00ca
:105220009aaf9f0000f42f000f004000f0b79f00de
:105230008045eb00cbef9f00ebc79f00bbef9f00cb
:105240008bcf9f00abef9f00fbc79f008bef9f00b2
:10525000ebe79f008000eb0091b79f0081b79f00b4
:10526000f1af9f00e1af9f00d1af9f00c1af9f00a2
:10527000b1af9f00020037000040eb00f0c79f0075
:10528000806e800001002000eb0f5000e08f58007e
:105290003d053e000060010010003700330037007c
:1052a00049003700510037005b00370073003700ba
:1052b000930037009f003700c200370022013700fb
:1052c000b0013700000037008000eb00f1a79f001d
:1052d000280537000000eb00660037000006eb00f1
:1052e00000c3b3009efb070020c8b3009cfb07006f
:1052f000826f800092b79f000c40780098fb0700f7
:105300000c40780096fb070020c0b30094fb070018
:1053100010c0b30092fb07001fd0960090fb07005f
:1053200040c0b3008efb07000ff097008cfb070016
:105330007fb49700020037003840780088fb0700f0
:105340008ff197000380fb00ffb0970000804000c2
:10535000800f5400f8ff3a00d02dec00f8b79f0002
:10536000e3c79f0080c1eb0083f79f0020cab30012
:105370007bfb070020c8b30079fb0700806f80002b
:1053800080b79f000040eb0075fb07000040eb007a
:1053900073fb070020c0b30071fb070040c0b300df
:1053a0006ffb07003fc896006dfb07002fc89600f3
:1053b0006bfb07001fc8960069fb07000fc896002b
:1053c00067fb0700d02dec0020c0b30064fb070092
:1053d00010c0b30062fb0700816f8000f1af9f0037
:1053e0000040eb005efb0700d02dec0020c0b300b6
:1053f0005bfb070010c0b30059fb0700826f800001
:10540000e2af9f000040eb0055fb0700d02dec0001
:105410008041eb00c3ef9f0061f22f000f8040003e
:1054200007fc07000004e000fa0432003f14970074
:105430007a6f80008004eb000a003700c2f22f0070
:105440000f004100fefb07008904e8000004e000b3
:10545000a0ff32006f109700ee2db4000000540042
:105460000084e9000800e000f4ff3a007a6f880049
:105470000980fb00b0ef9f00d02dec001fd09600fc
:10548000e14f500010003a00efc8960050cab30038
:1054900080cf50000c003a00cfc99600f3c79f00a0
:1054a0003fe8970080cf510001003600f0c79f0011
:1054b0005fc9960082ef9f00bfe997007fc0970009
:1054c00080c1510005003700bfe89700f1c79f0079
:1054d0000041eb0082ef9f0082417800e3e79f00ec
:1054e0000fe99700efe197000390b9007fc19700a3
:1054f00000404100a0ef9f00d02dec0082cf9f0024
:1055000000c3b30016fb070020c8b30014fb07005c
:10551000806f8000d0af9f000040eb0010fb0700c1
:105520000040eb000efb0700d02dec008000eb00ec
:1055300091af9f007fc197000204e00009003a008c
:10554000736f8000b3af9f00b0002000806e8800b2
:10555000806f8000c0af9f0064004000806f8800b3
:105560008c043700cfe897008140e800c1ef9f002e
:1055700082f22f000f004100b1fb07008045780048
:105580000004e000a30432003f109700cf10970002
:10559000010050008b80fb0001005000b0179f00fd
:1055a000836f8000c3af9f00efc8960050cab3005e
:1055b00080cf500002003a0064804100806f880074
:1055c000d02dec0048f52f000f04440021f22f00ed
:1055d0008f80400008007800d9fb07000000e00041
:1055e0008c043200efc8960030cab30080cf500060
:1055f00003003200f0fb07000000e00085043200e9
:10560000efc8960050cab30080cf50000f003200a0
:1056100060c0b300d2fa07002f609600d0fa0700ee
:10562000af6496000200370038407800ccfa0700db
:105630008980fb0040f52f000f0040000100400072
:10564000800f5400f8ff3a0080c5eb0000f42f00f3
:105650000f004000ec8102000000000000417800d3
:10566000d02def00efc8960030cab30080cf5000b5
:1056700003003a00e24f510005003a0002003700f3
:10568000e34f51000200320090002000806e88003d
:1056900021f22f008f8040007a80400092d32900b1
:1056a00003000900325878004000b1000001eb000f
:1056b00080017800010278002403b000e340790003
:1056c0006440790080cf50001a003a00e30f510087
:1056d000600432000201e800e40f510015003200be
:1056e000f6ff370023f72f008f8141002f619600ce
:1056f0008400780080f42f000f004000b3f9070009
:105700004ff89600b5eeb7009fb097000180e90012
:10571000806f880008007800b3eeb70040c0b30087
:10572000b4eeb70010c0b300b6eeb700a8ef9f000c
:10573000f8c79f00886e80000800e0001204320065
:10574000e70f540010043200ffc197000304e0008b
:10575000030032008341e900f3c79f0002003a00d2
:10576000706f8000b0af9f00afe897008140e90004
:10577000a1ef9f0023f72f008f8141002f6196003a
:1057800041f52f008f80400080f42f000f00400073
:105790008ef9070080447800e14f50007800320015
:1057a000efc8960010cab30080cf500074003200da
:1057b0004fa99700826f880000c3b30068fa070002
:1057c00020c8b30066fa0700836f8000c3af9f0054
:1057d0000040eb0062fa07000040eb0060fa0700af
:1057e0002f65960060c0b3005dfa0700ea4de20045
:1057f00006003200af6096000140e80058fa07004a
:1058000048f52f000f044400040037002f60960075
:10581000faff37003840780051fa07008a80fb0011
:1058200040f52f000f00400001004000800f5400a1
:10583000f8ff3a00ea4de200070032000040eb00ba
:1058400047fa07002f6196000280fb000000460027
:105850006306400004003700af6196000380fb0040
:10586000000046000086e8001fd496000804e0000f
:105870000a003a00cfe9970022002000efa8970025
:105880007fa89700b1fa070050c0b30034fa0700b0
:105890000840780032fa07002b003700e14f54002f
:1058a00029003a00efc8960030cab30080cf5000fc
:1058b000250032006340500080cf500016003a00af
:1058c0000940780026fa07000040eb0024fa0700a0
:1058d00000c8b30080cf540006003a004fe897009c
:1058e0008080fb00100020000100dd00d22db700f9
:1058f0001500370010c8b30080cf540012003a00e2
:105900004fe997008280fb00100020000100dd00bd
:10591000d62db7000c00370050cab30080cf50001e
:1059200009003a0020c8b3000dfa07000040eb0060
:105930000bfa0700cfe997008380fb0010002000de
:105940000100dd00d82db7000c86e8001fa89700e5
:105950000c04400064044400896f8000cfa89700c5
:10596000816f88004860de00fdf907000c40780078
:10597000fbf90700896f88000006eb00330237004f
:10598000d02dec004fa99700826f880000c3b300b0
:10599000f3f9070020c8b300f1f90700836f800016
:1059a000d3a79f000040eb00edf907000040eb009b
:1059b000ebf9070060c0b300e9f90700efc89600f3
:1059c00030cab30080cf5000d7003a002f64960051
:1059d000ea4de200050032000840e800e0f9070067
:1059e00049f52f008f8444000400370008407800f8
:1059f000faff370039407800d9f907008880fb00aa
:105a000040f52f000f00400001004000808f54003f
:105a1000f8ff3a00ea4de200020032000040eb00dd
:105a2000cff907004f3897002003b2000102200091
:105a3000810f5000070032001fd096002a0020007e
:105a40000004e000040032001a012000e14f500081
:105a5000010032000005eb004bfa0700004478001b
:105a6000bff907005f389700e2f22f008f00410076
:105a700083f807000000e00008003a001fd09600fd
:105a80000004e00002003a003a0020000300370062
:105a9000e14f500001003a007a002000e3f22f00ad
