:020000040000FA
:0600000068EF9CF0120005
:020006001200E6
:060008007BEF74F0120012
:02000E000004EC
:04001000A300000049
:02001400FFFFEC
:02001600FEFEEC
:0600180055EF74F0120028
:02001E001E00C2
:10002000283A0100090A000001000000273A0100F7
:10003000080A000001000000253A0100FC09000048
:1000400002000000B7390100000500006E0000004A
:10005000B6390100070A000001000000AD390100B7
:10006000C909000009000000AB390100FA090000CD
:1000700002000000AA390100060A00000100000089
:10008000A8390100F809000002000000A5390100AC
:10009000F109000003000000A3390100F609000087
:1000A00002000000903901007509000013000000F3
:1000B0008F390100050A0000010000008B390100A2
:1000C000EA090000040000008A390100040A000067
:1000D0000100000088390100F4090000020000005E
:1000E00080390100D2090000080000007F390100BA
:1000F000030A0000010000007E390100020A00002E
:10010000010000007D390100010A0000010000002B
:100110007A390100EE0900000300000032390100C5
:10012000000700004800000028390100BF09000056
:100130000A00000027390100000A00000100000049
:1001400025390100FE050000020000001600000035
:10015000FE0400000200000063380100FF090000F7
:100160000100000021390100E60900000400000040
:1001700017390100B50900000A0000001400000052
:08018000FE0000000200000077
:08018800030145510501FE5D74
:1001900001E11200FE0EFE5D0CE01C0EE66EE66A4A
:1001A000290EE66E030EE66EFE5197EC18F022EC77
:1001B00019F045C3FEF5FE0E0301455D01E1120095
:1001C0001C0EE66EE66A455197EC18F0290EE66EB5
:1001D000030EE66E22EF19F00501FE51FF5D01E10D
:1001E0001200FE0EFF5D21E0270E0301C56FC66BF6
:1001F0000301010EC46F0301020EC26F030EC36F31
:1002000005010CEC19F01B0E79EC1AF0EFCFC1F3DD
:100210000CEC19F0EECFBFF3EFCFC0F30301270EC4
:10022000BF5F000EC05B0EEC16F0FEC5FFF5270E9B
:10023000FAEC18F029C3C2F32AC3C3F30301C25F67
:10024000000EC35B31EC1AF0020EBF6F030EC06FDD
:100250000EEF16F00D01EE0E1D6F050E1E6F030161
:10026000005101110FE1F2EC60F01EC000F31FC05D
:1002700001F3FF0E03010017070E0117000E002700
:10028000040E01233C0EE66EE66AE66A420EE66E56
:10029000080EE66EF2EC8AF0006E050EE15E00508C
:1002A0000D01156B146B1451EEEC17F001E38ED0B9
:1002B00014CD45F369DF20EC17F059EC17F0F62A5E
:1002C000000EF722F8220800F5CF1CFD20EC17F0F5
:1002D00059EC17F0020EF626000EF722F82209005C
:1002E000F5CF16FD0A00F5CF17FD20EC17F0FBEC5B
:1002F0001AF0040EF626000EF722F8220900F5CFB8
:1003000018FD0A00F5CF19FD0D011C5128E11DCD86
:100310001AFD1ECD1BFD270E036A1625026E17510E
:10032000032234EC1AF002501825006E03501921F4
:10033000A1EC1AF000501D2701501E231DCD00F026
:100340001ECD01F0026A036AD880EE0E0054450EFD
:100350000154000E0254000E035402E2EFD7FFD7FF
:100360001CCD44F3270E0D011A250301296F000E41
:100370000D011B2103012A6F29510D0116250301CF
:100380002B6F2A510D01172103012C6F010E2B2712
:10039000000E2C232B510D01182503012D6F2C511C
:1003A0000D01192103012E6F0D0E3F6F409714DFD1
:1003B00020EC17F01CC003F0FBEC1AF00800F5CF9E
:1003C00028F3A9EC0FF00D01142B6DD712000D01CD
:1003D0003B6B3B51EEEC17F001E390D03BCD45F386
:1003E000D3DE0D0E03013F5D01E085D0F5DE030194
:1003F0004D51285D01E07FD0180E256F020E266F4B
:100400004A510CE14BC312F34CC313F34087040E63
:100410003F6F4BC342F34CC343F36AD0000E005D01
:10042000040E015906E3880ED8800055130E0155BD
:1004300003E2006B040E016F00C312F301C313F358
:10044000002B000E01234BC310F34CC311F37DECC2
:100450001AF0030140894A51040A25E0070A11E015
:10046000020A02E0030A44E14DEC19F0020E4A5D73
:1004700002E0000E01D0010E2495E8B024853F6B08
:1004800037D048514625026E49514721A2EC18F059
:100490004DEC19F0276B260E026F036B046B056B96
:1004A000020E3F6F25D046C3E9FF47C3EAFF56EC73
:1004B00019F046C3E9FF47C3EAFF0450EE24026E79
:1004C0000550EE20A2EC18F00A0EE66EE66A46C36E
:1004D000E6FF47C3E6FFB7EC19F08DEC18F0030117
:1004E000050E3F6FB4EC1AF0020EAD6FDCEC0BF0B2
:1004F0000D013B5112000D013B2B6BD7FE0C4EC37F
:1005000045F342DE030141A902D04199010C000CE0
:100510004FC345F339DE070E03013F5D01E0000CD8
:10052000010C50C345F3E4EC19F003013F51080AF4
:1005300038E0010A36E0050A34E0020A2FE0050A35
:100540001FE00D0A0FE0010A0DE0070A31E0020A80
:100550002FE0010A2DE0060A2BE0040A22E1F8EC64
:100560006DF026D089EC18F003011451151106E046
:100570000E512F19F7E10F513019F4E1080E0FD089
:1005800089EC18F003011451151106E00E512F19D2
:10059000F7E10F513019F4E10C0E01D00D0E3F6F51
:1005A00012000301AE6B0301140EAD6FDCEC0BF017
:1005B000A9EF0FF051C345F3E7DD0301409751C3A5
:1005C00050F391EF02F052C345F339EC1AF00A0EE2
:1005D000E66EE66AB7EC19F0530EE66E030EE66EB1
:1005E0008DEC18F010C35DF311C35EF3530E006E73
:1005F000030E99EF17F05FC345F339EC1AF00301CE
:100600000E512F1902E10F51301902E052EC17F090
:10061000120060C345F3B8DD3FC345FD070E0D0171
:10062000455D06E00B0E455D03E0F36AF46A1200D7
:10063000030131512F5D3251305916E329512B5DA1
:10064000026E2C512A55036E0206000E035A3151D8
:100650002F5D046E30513255056E0450025C006E01
:100660000550035899EF17F02F51315D006E32514C
:100670003055016E0006000E015A00C0F3FF01C0A4
:10068000F4FF120061C345F37FDD61C360F3C1DF96
:10069000F3CF0FFDF4CF10FD0D01F350F41001E185
:1006A000000C010E0F1904E1105102E13DEC1AF0AB
:1006B00003014151010B0CE1EDEC1AF00D010F515A
:1006C000005C1051015804E33DEC1AF00301418134
:1006D000010E0301C56FC66B0301C46F0301620EF7
:1006E000C26F030EC36FCBEC1AF003012F2B000E69
:1006F00030232B512F5D2C51305902E33AEC19F085
:100700000D01010E0F1905E1105103E13DEC1AF046
:10071000010C030140BB02D056EC17F0010C0D0197
:10072000A56BA66B63C345F32FDD63C360F371DF75
:10073000F3CFA3FDF4CFA4FD0D01F350F41005E1B8
:1007400041EC1AF0F36AF46A1200A3CDA1FDA4CD26
:10075000A2FDC6EC19F004E266C3A1FD67C3A2FDC9
:100760004151010B0CE1EDEC1AF00D01A351005CBD
:10077000A451015804E341EC1AF003014181030143
:100780002F510D01A125006E030130510D01A22151
:10079000EBEC19F01EE32F512B5D0D01A56F03014A
:1007A00030512C590D01A66FA5CDC5F3E8CFC6F386
:1007B0001AEC18F00D01A551030164270D01A65193
:1007C000030165230D01A551A15FA651A25B3AEC7F
:1007D00019F0A1CDC5F3A2CDC6F31AEC18F00D01A6
:1007E000A15103012F270D01A251030130230D0157
:1007F000C6EC19F003E341EC1AF004D040BB02D080
:1008000056EC17F00D01A151A525006EA251A621AD
:1008100099EF17F00D012E6B2F6B68C345F3B4DC15
:1008200068C360F3F6DEF3CF2CFDF4CF2DFD0D0190
:10083000F350F41005E145EC1AF0F36AF46A120083
:1008400003014151010B0CE1EDEC1AF00D012C51AB
:10085000005C2D51015804E345EC1AF0030141817D
:100860002CCD2AFD2DCD2BFD5DEC19F004E26CC3DF
:100870002AFD6DC32BFD2F510D012A25006E0301AA
:1008800030510D012B21EBEC19F022E32F512B5DA0
:100890000D012E6F030130512C590D012F6F2ECDFC
:1008A000CDF3E8CFCEF351EC18F02ECD00F02FCDE4
:1008B00001F0026A00500301692701506A230250C7
:1008C0006B230D012E512A5F2F512B5B3AEC19F04F
:1008D0002ACDCDF32BCDCEF351EC18F00D012A51DA
:1008E00003012F270D012B51030130235DEC19F07B
:1008F00003E345EC1AF004D040BB02D056EC17F0ED
:100900000D012A512E25006E2B512F2199EF17F042
:100910006FC3E6FF70C3E6FF9AEC8BF0E552E55239
:10092000F3CF66F3F4CF67F36FC364F370C365F37B
:100930006EC363F3F4DE03016F51F324006E705154
:10094000F42099EF17F072C3E6FF73C3E6FF74C398
:10095000E6FFA8EC8BF0E552E552E5521FC06CF3C0
:1009600020C06DF372C369F373C36AF374C36BF38E
:1009700071C368F34FDF056A03017251F324006EFF
:100980007351F420016E74510520026E00C01FF0F7
:1009900001C020F0216E120075C345F3C4EC00F0D5
:1009A000030129512B5D0D01026F03012A512C59BE
:1009B0000D01036F010E025F000E035B75C360F350
:1009C00028DEF3CF00FDF4CF01FD0D01F350025DF1
:1009D000006E0351F45499EF17F076C377F30CD8F7
:1009E00022EC1BF0F350F41006E076C345F3E4EC80
:1009F00019F052EC17F0120077C345F3C4EC00F085
:100A000000EC19F006E33551335D006E3451365574
:100A100013D035512D5D026E2E513655036E34ECD8
:100A20001AF02B51335D046E34512C55056E025073
:100A30000424006E0350052099EF17F078C377F374
:100A4000DBDFF3CF39FDF4CF3AFD0D01F350F410A5
:100A500001E1000C78C345F3C4EC00F003017951C7
:100A60007A110FE0010EFAEC18F035C3C2F336C369
:100A7000C3F30301C16F79C3BFF37AC3C0F30EECB4
:100A800016F00301352B000E362335512D5D3651FE
:100A90002E5902E249EC1AF00D01010E391905E157
:100AA0003A5103E103014185010C030140BB02D02F
:100AB000B8EC17F0010C0D01636B646B7BC377F32B
:100AC0009BDFF3CF61FDF4CF62FD0D01F350F41015
:100AD00003E1F36AF46A12007BC345F3C4EC00F04F
:100AE00003017E510D01615D03017F510D016259CA
:100AF00004E261CD7EF362CD7FF3030135517E25A3
:100B0000006E36517F21B1EC19F029E235512D5D8F
:100B10000D01636F030136512E590D01646F010EF3
:100B20006327000E642303017C517D110EE063CD29
:100B3000C5F364CDC6F323EC18F00D016351030136
:100B40007C270D01645103017D230D0163510301D5
:100B50007E5F0D01645103017F5B49EC1AF07C510B
:100B60007D1106E07EC3C5F37FC3C6F323EC18F006
:100B700003017E5135277F5136230D016351030157
:100B80007E270D01645103017F237E510D01615DBC
:100B9000006E625103017F55016E00507E5D015071
:100BA0007F5902E3418504D040BB02D0B8EC17F076
:100BB0007EC3F3FF7FC3F4FF120080C345F3C4EC90
:100BC00000F003012B512D5D0D013B6F03012C51F2
:100BD0002E590D013C6F80C377F30EDF0D01F350EA
:100BE0003B5D006E3C51F45499EF17F003018451C2
:100BF000851103E1F36AF46A120081C345F3C4EC82
:100C000000F081C377F3F8DEF3CF02FDF4CF03FDEC
:100C1000030186518425006E87518521016E0D01E7
:100C20000050F35C0150F4580BE2030186510D01B2
:100C3000025D0301846F87510D0103590301856F24
:100C40000301355186250D01006F030136518721BF
:100C50000D01016F005103012D5D0D0101510301D3
:100C60002E5906E24AEC17F00D01005F0150015BBE
:100C70000D01005103012D5D0D01046F01510301B0
:100C80002E590D01056F010E0427000E05230301E7
:100C900084510D01045D030185510D01055907E3E0
:100CA00084C3C5F385C3C6F3A9EC18F022D004CDE4
:100CB000C5F305CDC6F3A9EC18F00EEC16F00D0146
:100CC00004510301845D0301C56F0D01055103014A
:100CD000855966EC19F03EEC1BF0030182510D01C1
:100CE00004250301BF6F030183510D010521030199
:100CF000C06F0EEC16F084C3F3FF85C3F4FF12003F
:100D000089C386F38AC387F3010E0301846F856B61
:100D10000301060E826F0D0E836F88C381F366DFB9
:100D20000D010651120003018E518F1103E1F36A88
:100D3000F46A12008BC345F3C4EC00F08BC377F365
:100D40005BDE03019051F35C0D013B6F0301915198
:100D5000F4580D013C6F6FEC19F001E205D103016D
:100D6000925193110DE00D013B510301925D0D0174
:100D70003C510301935904E292C33BFD93C33CFDF4
:100D8000355190250D013F6F0301365191210D0121
:100D9000406F3F5103012D5D0D01405103012E595C
:100DA00006E24AEC17F00D013F5F0150405B3FCD7A
:100DB00039FD40CD3AFD0D013F5103012D5D0D017F
:100DC0003D6F405103012E590D013E6F010E3D272D
:100DD000000E3E2390C33FFD91C340FD8EC341FDF5
:100DE0008FC342FD8CC343FD8DC344FD03018CC3FF
:100DF000E9FF8DC3EAFF8C2B8D23EFCF46FD0D015C
:100E0000486B0301945109E0610E0D01465D05E355
:100E100046517A0802E3E00E46270D01200E476F87
:100E2000E8503D5D000E3E5902E23DCD47FD475181
:100E30003B5D000E3C5902E23BCD47FD4751FAECC9
:100E400018F039CDC2F33ACDC3F331EC1AF0490EA4
:100E5000BF6F0D0EC06F0EEC16F00D01475149EC3F
:100E600019F0392701503A23475149EC19F03D5FF9
:100E700001503E5B3D513E1106E12BC339FD2CC3B1
:100E80003AFD3D693E69030194513EE00D01456B19
:100E90004751455D5FE2F5EC17F0EFCF00F0610ED2
:100EA000005C0BE3F5EC17F0EF507A0806E3E00E78
:100EB000006EF5EC17F00050EF26F5EC17F0EF5050
:100EC000465D0EE1F2EC19F02CE0B5EC18F0610E85
:100ED000465D18E346517A0815E3E00E462712D026
:100EE00041CD8EF342CD8FF348510CE05FEC18F00A
:100EF000610E0D01465D05E346517A0802E3E00EFE
:100F00004627486B452BC4D70D01456B4751455DBE
:100F100021E2F5EC17F0EF50465D10E1F2EC19F02C
:100F20000AE10D0141513F5D026E40514255036E91
:100F3000455130EF18F0B5EC18F00AD041CD8EF3E2
:100F400042CD8FF3485104E05FEC18F00D01486B7F
:100F5000452BDCD70D01475149EC19F03B5F01509F
:100F60003C5B6FEC19F003E2F368F4681200475140
:100F700049EC19F03F27015040234FD70301995105
:100F80009A1103E1F36AF46A120095C345F3C4ECC5
:100F900000F095C377F330DD03019B51F35C0D0145
:100FA000026F03019C51F4580D01036F78EC19F0A6
:100FB00001E205D103019D519E110DE00D01025189
:100FC00003019D5D0D01035103019E5904E29DC380
:100FD00002FD9EC303FD35519B250D01066F0301E4
:100FE00036519C210D01076F065103012D5D0D0146
:100FF000075103012E5906E24AEC17F00D01065F76
:101000000150075B06CD00FD07CD01FD0D01065126
:1010100003012D5D0D01046F075103012E590D01D0
:10102000056F010E0427000E05239BC306FD9CC31C
:1010300007FD99C308FD9AC309FD96C30AFD97C32E
:101040000BFD98C30CFD030196C3F6FF962B97C3C7
:10105000F7FFD3EC1AF0106B03019F5109E0610E0A
:101060000D010E5D05E30E517A0802E3E00E0E2736
:101070000D01200E0F6FE850045D000E055902E2CD
:1010800004CD0FFD0F51025D000E035902E202CDA7
:101090000FFD0F51FAEC18F000CDC2F301CDC3F3F0
:1010A00031EC1AF0110EBF6F0D0EC06F0EEC16F082
:1010B0000D010F5149EC19F00027015001230F5188
:1010C00049EC19F0045F0150055B0451051106E17C
:1010D0002BC300FD2CC301FD0469056903019F5169
:1010E0003EE00D010D6B0F510D5D5FE2FCEC17F062
:1010F000EFCF00F0610E005C0BE3FCEC17F0EF505B
:101100007A0806E3E00E006EFCEC17F00050EF26C4
:10111000FCEC17F0EF500E5D0EE1F9EC19F02CE04D
:1011200003EC18F0610E0E5D18E30E517A0815E31A
:10113000E00E0E2712D008CD99F309CD9AF3105185
:101140000CE0A3EC17F0610E0D010E5D05E30E51EE
:101150007A0802E3E00E0E27106B0D2BC4D70D01A9
:101160000D6B0F510D5D21E2FCEC17F0EF500E5DA1
:1011700010E1F9EC19F00AE10D010851065D026E6B
:1011800007510955036E0D5130EF18F003EC18F0BC
:101190000AD008CD99F309CD9AF3105104E0A3ECDD
:1011A00017F00D01106B0D2BDCD70D010F5149EC21
:1011B00019F0025F0150035B78EC19F003E2F36869
:1011C000F46812000F5149EC19F00627015007236B
:1011D0004FD7A6C394F3A4C392F3A5C393F3A2C3BA
:1011E00090F3A3C391F3010E03018E6F8F6B030184
:1011F000A10E8C6F030E8D6FA0C38BF393EF06F0DF
:101200000D01006B0051EEEC17F001E309D200CDA7
:1012100045F3C4EC00F00D01036B016B026B03019D
:101220004151020B03E14151040B0EE05EEC46F02C
:1012300000090AE00D01100E036F03014151040B78
:1012400001E0010E0D01016F030140AB11D0E0EC94
:101250009AF003011E503B5D006E1F503C59016E19
:10126000E83402E24EEC1AF003E30D01100E036FB6
:10127000030140AD09D017EC19F002E24EEC1AF070
:1012800003E30D01100E036F0B0E03013F5D0CE134
:1012900017EC19F002E24EEC1AF006E30D01110E04
:1012A000036F03010C0E3F6F040E3F5D53E10D0110
:1012B000046B056B030E045D000E05594BE273ECE5
:1012C0001AF027EC1BF046E073EC1AF094EC18F0DF
:1012D00015EC18F003014251001837E14351011891
:1012E00034E1ECEC00F00A0EE66EE66A73EC1AF0FC
:1012F00081EC19F0B7EC19F0A4EC8AF0060EE15E6F
:1013000073EC1AF053EC1AF0EECF10F3EDCF11F3AB
:1013100073EC1AF00C0E79EC1AF0EECF0AF3EECF64
:101320000BF3EECF0CF3EFCF0DF303010A2B0B23DE
:101330000C230D23CFEC17F00D01120E036F0301E8
:10134000060E3F6FD0EC16F005D00D01042B000EF9
:101350000523B0D70D0103510AE0015102E0000E50
:1013600001D0010E0301AE6F03CDADF325DA030109
:1013700040B92FD0070E3F5D01E04FD1DBEC17F0F5
:1013800001E04BD103014051070B060816E1405123
:10139000080B01E0010E0D01036F00CD50F391EC3D
:1013A00002F000CD50F391EC02F00D01035101E089
:1013B00034D103010E0E3F6F30D1ECEC00F003018D
:1013C000020EAE6F0301100EC8EC1AF015EC17F008
:1013D00024D1DBEC17F001E020D1ECEC00F00301AC
:1013E0003F510C0A01E1CDD0060A01E1C4D0030A45
:1013F00001E1D0D0010A01E1BAD00F0A01E1AED07B
:101400000C0A01E1ABD00D0A01E19DD0030A01E114
:1014100087D0060A5AE0010A48E0030A21E0010ADF
:1014200001E0BDD0F3EC6DF0000901E1B8D003019B
:10143000010E3F6F24A50BD00501EE6F18C3EBF52D
:1014400019C3ECF51AC3EDF525EC6EF0A8D0050133
:10145000EA6F18C3E8F519C3E9F505EC6EF09FD003
:101460000501060EEF6F0D0EF06F48EC6EF00009EF
:1014700001E195D0F8EC6DF0000913E006CD18F30A
:1014800007CD19F308CD1AF309CD1BF30301020EA2
:101490003F6FCFEC17F0276B260E026F036B046BC8
:1014A00050D015EC17F03F6B7AD0E0EC9AF01EC0EC
:1014B0003BF31FC03CF30901180E546F030E556F28
:1014C00089EC82F00301030E29D009011C0E586F2C
:1014D000030E596F0901180E566F030E576FB6ECC5
:1014E00082F0000915E1E0EC9AF003013B511E5C2B
:1014F000006E3C511F58016E0050025D01500359AF
:101500004EE2060E275D02E200EC1AF0020E06D053
:101510000D01020E036F016B0301050E3F6F3FD0FB
:101520000D01020E036F010E016F040E0301275D12
:1015300036E3040E276F700E026F890E036F090EDB
:10154000046F056B2CD0020E275D03E20D01120E15
:101550001DD040B71FD00D01020E07D0050E275D2C
:101560000DE3080E3F6F0D01110E036F18D0050E2D
:10157000275D10E209D0050E275D0CE20D01100E6B
:1015800005D0050E275D06E20D01110E036F010E59
:10159000016F05D00D01140E036F010E026F0D01D6
:1015A000035136E001512EE0030100EC1AF03151F5
:1015B0000E5D0D01046F030132510F590D01056FCE
:1015C0000301BCEC19F007E23FEC17F000500D01ED
:1015D00004270150052304CD00F005CD01F0026A77
:1015E000036A00500301D6EC18F00D010451030109
:1015F00014270D0105510301152356EC1AF00301C0
:10160000AE6B03D00301010EAE6F03CDADF3D4D8A2
:101610000D01025102E0A9EC0FF00D01002BF2D5F3
:10162000046B056B030E045D000E05592FE273EC8D
:101630001AF027EC1BF001E1120073EC1AF05BECDE
:101640001AF0DEEC18F002C0E6FF03C0E6FFE0ECA3
:101650009AF0E552E7CF03F0E552E7CF02F00250EF
:101660001E5C006E03501F58016EC90ED8800054D6
:10167000010E015406E2D0EC16F00D010407000E35
:10168000055B0D01042B000E0523CCD71200A7C368
:10169000E9FFA8C3EAFFEECF14FDEECF15FDEECFB4
:1016A00016FDEFCF17FDA9C3E9FFAAC3EAFFEECFEE
:1016B00018FDEECF19FDEECF1AFDEFCF1BFD0D018A
:1016C0001C6B060E1D6FABC31EFDACC31FFDABC371
:1016D00072F7ACC373F75AEC64F0F3CF1EFDF4CF8E
:1016E0001FFD0C0E07017A6F7B6B0701140E786FDC
:1016F0000D0E796F75EC64F0F3CF20FDF4CF21FD72
:101700000D01201F211FABC319FFACC31AFFB4EC9E
:1017100048F0F3CF22FDF4CF23FD0D01F350201943
:1017200048E12351211945E10901966B976B3CEC87
:1017300092F0140E0F01236F246B0F01000E216F26
:101740000D0E226F4FEC49F00301000EB36F0D0E2A
:10175000B46FBEDB0D010C51F2EC1AF0040DF35026
:1017600007EC1AF000C024FD0050006E016AE8503A
:101770000301AB5DAB6F0150AC59AC6F140EAB5FA6
:10178000000EAC5BA7C3B1F3A8C3B2F30301000E14
:10179000AF6F0D0EB06F61DA00090BE0ABC3B7F3AA
:1017A000ACC3B8F30301000EB56F0D0EB66F48EC75
:1017B00010F065EC46F0010CECEC00F00301ADA17B
:1017C00002D04187AD91409B409D409F4193419500
:1017D00041915EEC46F00009FCE0060E0301AD15F8
:1017E00004E00D016B6B6C6BB0D00E512F1907E14B
:1017F0000F51301904E10D016B6B6C6B8ED02F51C2
:101800000E5D30510F591FE20E512F5D0D016B6FB0
:1018100003010F5130593FEC19F004E214C36BFD82
:1018200015C36CFD8AEC19F005E225C36BFD26C3D8
:101830006CFD41856BCDC5F36CCDC6F36EEC18F035
:1018400093EC19F06AD00E512B5D0D01696F030105
:101850000F512C590D016A6F695103012F25006E3C
:101860000D016A5103013021016E2951005C0D0107
:101870006B6F03012A5101583FEC19F004E214C3C5
:101880006BFD15C36CFD8AEC19F005E225C36BFDF9
:1018900026C36CFD41850D0169516B5D6A516C5920
:1018A00004E26BCD69FD6CCD6AFD69CDC5F36ACDEF
:1018B000C6F36EEC18F00D0169516B5D696F6A51EA
:1018C0006C596A6F69516A111FE069CDC5F36ACD21
:1018D000C6F344C3C4F329C3C2F32AC3C3F3030149
:1018E000C16B03010E512B5D006E2C510F55016E23
:1018F000026A036A360E002652EC1BF000C0BFF3EA
:1019000001C0C0F30EEC16F093EC19F02B510E5DF4
:101910002C510F5902E301EC1BF0030141A715D034
:1019200014510D016B1904E1030115510D016C19DE
:101930000CE0030125510D016B1904E1030126514F
:101940000D016C1902E00301AD810D016B516C11A9
:1019500004E1030E0301AD151CE00D016B51030101
:10196000145F0D016C510301155B0D016B516C117E
:1019700002E00301AD870301AEA107D0276B970EEC
:10198000026F980E036F046B056B3BEC18F04089F7
:1019900029D0AEA319D0400EE96E030EEA6EEF50C7
:1019A000070BE82AE850070BF36EF46EF80EEF14FD
:1019B000F310EF6E0607000E075B085B095B010E74
:1019C0000D016B6F6C6B0ED040A90CD0AEB108D07E
:1019D000275106E02707D890053304330333023339
:1019E0003BEC18F012C347FD13C348FD10C349FD7B
:1019F00011C34AFD06C34BFD07C34CFD08C34DFD93
:101A000009C34EFD0AC34FFD0BC350FD0CC351FD6E
:101A10000DC352FD0D015391539353955397ADC38D
:101A200054FD596B5A6B6B51030106270D016C5124
:101A300003010723000E08230923ADA315D0ADB978
:101A400005D00D014F6B506B516B526B030124A3FA
:101A500006D00D014B074C5B4D5B4E5B05D0062B52
:101A600007230823092324830301ADA10DD024A15A
:101A700006D00D014B074C5B4D5B4E5B05D0062B32
:101A8000072308230923248100EC19F00AE3C2ECA0
:101A900018F00D010250005C556F03500158566F4D
:101AA0000DD03351355D0D01556F03013451365959
:101AB0000D01566F010E555F000E565B94EC46F01B
:101AC000F3CF45FDF4CF46FD0D01400EF35C000E53
:101AD000F45803E2456B466B04D0400E455F000EA0
:101AE000465B5551455D5651465904E245CD55FD7D
:101AF00046CD56FD0301470EB36F0D0EB46FE8D906
:101B0000140E0D016B27000E6C235389539B538DCC
:101B1000539F0301ADA323D0040E0D016B27000ECC
:101B20006C23020E5B6F040E5C6F020E5D6F180E6D
:101B30005E6F010E006E530EE96E0D0EEA6EEF50F1
:101B4000F2EC1AF000240F0BF36EF46EF346F3463A
:101B5000F346F3460F0EEF14F310EF6EF4508CC7FC
:101B60005FFD8DC760FD8EC761FD8FC762FD18C325
:101B700063FD19C364FD1AC365FD1BC366FD0D013A
:101B8000676B060E686F6BCD69FD6CCD6AFD6BCD22
:101B900072F76CCD73F75AEC64F0F3CF69FDF4CFB4
:101BA0006AFD0C0E07017A6F7B6B07015F0E786F81
:101BB0000D0E796F75EC64F0F3CF57FDF4CF58FD3F
:101BC0000D01571F581F0E0E0F01116F126B5BECAA
:101BD00048F06BCD94F96CCD95F90901060E936F21
:101BE0000901180E916F030E926FC9EC91F0140E5B
:101BF0005EEC1AF0470E266F0D0E276F86EC49F04B
:101C00000301ADA309D0040E5EEC1AF05B0E266F43
:101C10000D0E276F86EC49F0220E0F01136F146B27
:101C20006EEC48F06BCD19FF6CCD1AFFB4EC48F0A8
:101C3000F3CF45FDF4CF46FD320E0F01116F126B4D
:101C40005BEC48F0020E5EEC1AF0450E266F0D0EAE
:101C5000276F86EC49F011EF48F046EC17F0EE5094
:101C6000ED1001E1000C0D01FE0E266FC1EC19F024
:101C700056EC19F0C1EC19F00450EE24026E055038
:101C8000EE20036E97EC1AF00250EE24006E035023
:101C9000EE20016E46EC17F00050EE18276F015051
:101CA000EE18286F256B2551EEEC17F048E225CD94
:101CB00045F3C4EC00F00D0E03013F5D3DE0040E62
:101CC0003F5D0BE1F8EC1AF00050421935E101508C
:101CD000431932E125CD26FD2FD00D0127510301F7
:101CE00042192AE10D0128510301431925E1ECECC9
:101CF00000F0F8EC1AF00301125100181DE1135125
:101D000001181AE197EC1AF0DEEC18F010510218E5
:101D100013E11151031810E1C1EC19F0EE5018193C
:101D20000BE1EE50191908E1EE501A1905E1EE50D9
:101D30001B1902E101E1010C0D01252BB4D7FE0EA8
:101D4000265D21E026CD45F339EC1AF0FE0E0D019B
:101D5000265D19E027CD42F328CD43F3CEEC19F0F0
:101D6000B7EC19F08DEC18F097EC1AF0EECF10F3F9
:101D7000EDCF11F346EC17F0EECF12F3EDCF13F3E6
:101D800063EC1AF0010C97EC1AF00D0E79EC1AF0D6
:101D9000EF50020B01E1000C08017A517B1101E0C8
:101DA000000C0D01296B2A6B030E295D000E2A59C8
:101DB0003BE26DEC1AF027EC1BF036E06DEC1AF00C
:101DC00094EC18F015EC18F046EC17F0DEEC18F077
:101DD0000250001824E10350011821E16DEC1AF0C3
:101DE00053EC1AF015EC18F097EC1AF0DEEC18F042
:101DF0000250001814E10350011811E1C1EC19F070
:101E000042EC1BF0EE500001001808E1EE50011802
:101E100005E1EE50021802E1EE50031848E00D0112
:101E2000292B000E2A23C0D7256B2551EEEC17F085
:101E30004EE225CD45F3C4EC00F0030140A744D0A9
:101E4000ECEC00F0F8EC1AF00050030112193CE140
:101E50000150131939E1CEEC19F06DEC1AF081EC58
:101E600019F022EC19F097EC1AF015EC18F06DEC63
:101E70001AF053EC1AF000C0EEFF01C0EDFF97EC32
:101E80001AF0040E79EC1AF042EC1BF00C0E79EC0F
:101E90001AF000C0EEFF07EC1BF0F8EC1AF06DEC46
:101EA0001AF094EC18F000C0EEFF01C0EDFFE0EC7A
:101EB0009AF01FC001F06DEC1AF05BEC1AF01EC036
:101EC000EEFF01C0EDFF000C0D01252BAED7000C7D
:101ED0009CEC1AF036EC17F0F3CFEEFF01C0EDFFEB
:101EE0009CEC1AF0020E79EC1AF036EC17F0020EA8
:101EF000F3CFEBFF030E29EC19F0040E84EC17F07E
:101F0000040E4BEC18F0080E84EC17F0080E4BECA6
:101F100018F00E0E79EC1AF036EC17F00E0EF3CF27
:101F2000EBFF0F0E29EC19F094EC18F036EC17F0DB
:101F3000100EF3CFEBFF110E29EC19F05BEC1AF049
:101F400036EC17F0120EF3CFEBFF130E01C0EBFFD0
:101F50001200ECEC00F012C342F313C343F33AEC6B
:101F600019F029C331F32AC332F32BC333F32CC343
:101F700034F349EC1AF003014051080B02E0040E5F
:101F800001D00D0E3F6F4091409340954099409B8A
:101F9000409D409F419141934195419741892491B2
:101FA00024932497249963EC1AF0B6EC60F0F3CFF5
:101FB00006F3F4CF07F3B6EC60F0F3CF08F3F4CFF9
:101FC00009F3030122692369010E146F156B1200D6
:101FD0000C0E0901966F976B3CEC92F03FEC49F0C8
:101FE0000D01416FF00E4115E840E8403F0B07EC52
:101FF0001AF000C041FD005046E0070E9CEC19F0BD
:102000000D014151410700093EE068EC1AF0E8502B
:102010003AE04205F5E0020E425D26E1030E415D25
:1020200032E3436B446B68EC1AF0040E425D08E146
:102030003FEC49F00D01446F3FEC49F00D01436F57
:10204000180E435D020E44591EE3B40ED88043556A
:10205000050E445504E2B40EF36E050E17D043CDC1
:10206000F3FF44CDF4FF1200020E415D0CE368EC77
:102070001AF0E850415D07E342519CEC19F00D0164
:102080004251415FBDD7180EF36E020EF46E12007E
:10209000B9EC1AF00D0E79EC1AF0EFCF33FDB9EC74
:1020A0001AF0080E79EC1AF0EECF34FDEECF35FDC4
:1020B000EECF36FDEFCF37FDB9EC1AF0040E79EC18
:1020C0001AF0EECF38FDEECF39FDEECF3AFDEFCF6F
:1020D0003BFD030140914093409540B902D015EC7F
:1020E00017F03F51050A1FE0010A08E0B7C33CFDA5
:1020F000B8C33DFD0D0133A14AD046D00D0133B523
:1021000010D033A906D0E3EC18F0040EC8EC1AF096
:1021100008D033A306D07CEC18F00EEC1AF0CFEF09
:1021200018F0A9EF0FF00D0133B5120033A910D04C
:1021300006EC19F00301061908E1EE50071905E154
:10214000EE50081902E1EE50091902E067EF17F0AE
:102150000D0133A334EF15F07CEC18F0A4EC19F06A
:10216000EECF14F3EDCF15F30EEC1AF00D0133A9F9
:1021700009D052EC17F00301070E3F6F15EC17F072
:1021800040991200CFEF18F03C2B000E3D2333A3F3
:1021900003D03C2B000E3D2300EC19F00AE3C2EC07
:1021A00018F00D010250005C316F03500158326F7E
:1021B0000DD03351355D0D01316F03013451365966
:1021C0000D01326F010E315F000E325B0A0EE96EB7
:1021D000030EEA6EEE50385D2B6FEE5039592C6FBE
:1021E000EE503A592D6FEE503B592E6F2BCD2FFDEF
:1021F0002CCD30FD3E6B3C513D115FE03151321131
:1022000069E0800E2E1503E186EC18F03BE33CCD2F
:1022100000F03DCD01F0026A036A2B0EE96E0D0E4F
:10222000EA6EEE500026EE500122EE500222EE50F1
:1022300003220334000E031809E6D880000E005470
:10224000000E0154000E0254000E03541DE23C51D6
:10225000315D046E32513D55056E066A076A05AE62
:1022600002D00668076807502E19E8AE02D02E3556
:1022700008D02B51045C2C5105582D5106582E5175
:10228000075802E3010E3E6F0EEC1BF02E510318AF
:10229000E8AE02D0033402D0DCEC1AF01BE22F517E
:1022A0003C25046E30513D21056EE83413E20450A4
:1022B0000008000E05540EE20BD02B512C112D11ED
:1022C0002E1106E0800E2E1505E186EC18F002E2D4
:1022D000010E3E6F3E5104E133B5C6D352EF17F005
:1022E000060E331502E0A9EF0FF033A91200030127
:1022F0003F510C0A01E1B6D10B0A1CE00F0A1AE0AB
:10230000010A18E0020A16E0010A14E00C0A01E0D2
:10231000B9D106EC19F0061908E1EE50071905E1EC
:10232000EE50081902E1EE50091902E067EF17F0CC
:10233000070E3F6F0E512F5D0D01296F03010F51E5
:1023400030590D012A6F800E2A1508E003013FEC79
:1023500017F000500D01292701502A2329CD00F044
:102360002ACD01F0026A036A2BEC1BF0EE50002428
:10237000256FEE500120266FEE500220276FEE50A1
:102380000320286F06EC19F0255D006EEE502659EB
:10239000016EEE502759026EEE502859036E00016F
:1023A000800E031402E0D6EF19F00301A8EC19F037
:1023B00001AE02D0026803682BEC1BF00050EE5C0B
:1023C0000D01256F0150EE58266F0250EE58276F11
:1023D0000350EE58286F0301BCEC19F00BE230EC0F
:1023E0001BF000500D01255F0150265B0250275B5A
:1023F0000350285B250EE96E0D0EEA6EEE500D01BE
:10240000345D256FEE503559266FEE503659276FE3
:10241000EE503759286FE834000E281909E6D880A5
:10242000000E2555000E2655000E2755000E285586
:102430006CE2030130EC1BF00D012551005C2651CC
:10244000015827510258285103585FE3030124978C
:102450002499419131C329FD32C32AFD0D01255133
:10246000030131270D012651030132230D012951AA
:1024700003010E5D0D012A5103010F5909E3BCEC64
:1024800019F02FE20E51315D006E32510F551BD005
:102490003FEC17F00E5100240D01296F03010F517D
:1024A00001200D012A6F030131510D01295D030146
:1024B00032510D012A5915E229510301315D006E97
:1024C00032510D012A55016E00010050030106270B
:1024D0000001015003010723000E0823092356ECD5
:1024E0001AF003012B51315D2C51325906E33FECB8
:1024F00017F00050315F0150325B2B510E5D2C51B3
:102500000F5928E301EC1BF025D003010E513119BE
:1025100002E10F5132191EE024A71BD024A918D0C4
:10252000A8EC19F001AE02D0026803680050D6ECA6
:1025300018F0BCEC19F009E230EC1BF001AE02D04F
:10254000026803680050D6EC18F056EC1AF041858A
:10255000248924872F5131191CE13051321919E196
:1025600041B704D015EC17F0409913D09EEC17F04A
:1025700010E1EE5035190DE1EE5036190AE1EE503A
:10258000371907E106E103012451010B02E04099EC
:10259000419706EC19F00301065D006EEE500759F5
:1025A000016EEE500859026EEE500959036EA4EC0C
:1025B00019F00D010050EE5C3F6F0150EE58406F76
:1025C00003011451151106E10D013F51401102E0C4
:1025D000030141833FCD14F340CD15F3080E0301F1
:1025E0003F5D20E19EEC17F04DE1EE5035194AE1D8
:1025F000EE50361947E1EE50371944E143E103014B
:102600002451010B3FE07DEC1AF0F30E0301372754
:10261000FA0E3823020E3923000E3A234089090EA0
:102620003F6F30D0090E3F5D0AE10D0133B12AD072
:10263000E3EC18F0140EC8EC1AF0A9EF0FF00A0E34
:102640003F5D20E19EEC17F00CE1EE50351909E1F9
:10265000EE50361906E1EE50371903E101E004D2DD
:1026600078DC12009EEC17F00CE1EE50351909E110
:10267000EE50361906E1EE50371903E101E0F4D1CE
:1026800068DC12000D0133BB12000B0E03013F5D2D
:1026900001E112000A0E3F5D01E112000C0E3F5DE8
:1026A00001E11200B751B81101E166D10D013035D9
:1026B00004E22F510008000E305501E2A2D00DECCB
:1026C00018F0006E016A2F51F35C0901966F0D013D
:1026D000305101580901976F3CEC92F00D012F51D8
:1026E0000301B7270D0130510301B823B7510D0184
:1026F000315D0301B8510D01325904E231CDB7F318
:1027000032CDB8F30301B7510A27B8510B23000E9D
:102710000C230D233351B725006E3451B821B1EC91
:1027200019F024E233512D5D0D01296F030134515D
:102730002E590D012A6F010E2927000E2A2315ECB0
:102740001BF033C3BFF334C3C0F388EC1AF02DEC95
:1027500019F0006EB8510D012A55016E03012B517D
:102760000024336F2C510120346F0CD0AEEC1AF0E2
:1027700033C3BFF334C3C0F351DA0301B751332776
:10278000B8513423221D01E1231D01E1F5D0B751D9
:10279000225FB851235B165122250D01296F0301D9
:1027A000175123210D012A6F800E2A1502E0030123
:1027B00025D00301233504E222510008000E2355E1
:1027C00001E2DAD00D01295103010A270D012A5136
:1027D00003010B23000E0C230D230D0129510301CE
:1027E00033270D012A510301342333512D5D345118
:1027F0002E5904E24FDB335F0150345B22692369B9
:10280000BBD0303501E3B8D02F510008000E305551
:1028100001E3B2D00301B7510D012F25006E030172
:10282000B8510D013021016E0050315D0150325917
:1028300009E22F51315D0301B76F0D01305132595B
:102840000301B86FEADB0901966F976B3CEC92F0DD
:1028500034EC1BF0026E39EC1BF0036E02500301E6
:10286000B725006E0350B821B1EC19F031E23351B5
:102870002D5D006E2E513455A1EC1AF00D012F5133
:10288000005C296F305101582A6F800E2A1508E12B
:1028900015EC1BF0E8EC18F0C06F88EC1AF01DD0B6
:1028A000AEEC1AF034EC1BF0006E39EC1BF0016E4C
:1028B00003012B512D5D026E2E512C55036E34EC0D
:1028C0001AF003010250005CBF6F0350015804D09E
:1028D000AEEC1AF0E8EC18F0C06FA0D90301221D8D
:1028E0000BE1231D09E12FCD22F330CD23F3B7C334
:1028F00016F3B8C317F340D022510D012F5D030129
:1029000023510D0130591EE236DB06E30D01EEECDA
:1029100018F02351055805E2B7C316F3B8C317F3EF
:102920000CD033EC19F00D012F51005C0301166F30
:102930000D01305101580301176F2FCD22F330CD17
:1029400023F31AD018DB18E233EC19F00D012F51E4
:10295000005C3051015810E3EEEC18F0026E235188
:102960000558036E1651025C006E17510358016E34
:1029700000501627015017230D013C513D1119E05D
:10298000070E03013F5D04E033C335F334C336F370
:1029900040AF04D087DAECEC00F00BD0408F40BDA4
:1029A00008D0408D15EC1AF00F0E03013D27000EE4
:1029B0003E230D0133A158D00AC300F00BC301F030
:1029C0000CC302F00DC303F0002A52EC1BF03CCD07
:1029D00004F03DCD05F0066A076A380EE96E0D0E6B
:1029E000EA6EEE500426EE500522EE500622EE501E
:1029F00007220050041838E10150051835E1025053
:102A0000061832E1035007182FE12EE11BEC1BF0F2
:102A10003F51090A24E0010A12E00F0A06E0010A08
:102A200022E10C0E3F6F89EF18F00B0E3F6F15EC93
:102A30001AF01E0E03013D27000E3E2314D07EDA4D
:102A40000AE1EE50351907E1EE50361904E1EE5077
:102A5000371901E104E003010A0E3F6F04D0D6EC00
:102A600019F0A9EF0FF01EDA1200B9C345F3C4EC58
:102A700000F00301BA51BB1103E1010EBA6FBB6B49
:102A800029512D5D0D01006F03012A512E590D01B1
:102A9000016F010E005F000E015B03011CEC1AF0D8
:102AA0000D010050005D0150015901E2000CECECF9
:102AB00000F0030E0301BE1502E1030EBE13BCC3FA
:102AC00004FDBDC305FD1CEC1AF000500D01005FB4
:102AD0000150015B0301BEA313D0BEA10CD000CDF9
:102AE00000F001CD01F0D8900132003200500D010C
:102AF0000427015004D00D01005104270151052382
:102B0000030129510D010425006F03012A510D0114
:102B10000521016F010E0027000E012333C302FDC2
:102B200034C303FD0301221D01E1231D13E09BDBE0
:102B300000500D01022701500323025103012D5DB6
:102B40000D01035103012E5905E2A4D90D01025FC5
:102B50000150035B0D0102510301355D0D0103516D
:102B6000030136590CE20D0100510301355D0D01E1
:102B700001510301365918E2BEA50ED0000CDCEC61
:102B800019F00AE2005103012B5D0D01015103010F
:102B90002C590AE2BEB5000C00CD35F301CD36F359
:102BA00000CD33F301CD34F30301DCEC19F025E261
:102BB000040E0301BE1521E02B510D01025D03013E
:102BC000C56F03012C510D01035980DB44C3C1F3D0
:102BD00000CDBFF301CDC0F321D812DB0EE20D0111
:102BE000005103012B5D006E2C510D010155016E4A
:102BF00000500301335F0150345B00CD2BF301CD56
:102C00002CF363EC1AF029C331F32AC332F332DB1D
:102C1000070E03013F5D01E145D9010C0301C451D9
:102C20002AE0010A01E01200C15111E0010A01E0AD
:102C30001200C5C3E6FFC6C3E6FFC2C3E6FFC3C3B7
:102C4000E6FFBFC3E6FFC0C3E6FF8DEF18F0BF1D70
:102C500001E1C01D06E0BFC311FFC0C312FF5BEC62
:102C600048F0C5C328FFC6C329FFC2C326FFC3C39C
:102C700027FF86EF49F0C15117E0010A01E0120079
:102C8000C21D01E1C31D06E0C2C313FFC3C314FF8D
:102C90006EEC48F0C5C323FFC6C324FFBFC321FFAA
:102CA000C0C322FF4FEF49F0C5C31FFFC6C320FFBB
:102CB000C2C31DFFC3C31EFFBFC31BFFC0C31CFF96
:102CC000D7EC48F02EEC49F00009FCE012000301BB
:102CD000C9510EE0010A01E01200CDC3E6FFCEC3E8
:102CE000E6FFB1DBC7C3E6FFC8C3E6FF2AEF1AF071
:102CF000C71D01E1C81D06E0C7C311FFC8C312FF0D
:102D00005BEC48F0100E0D01286F296B0301CD51CB
:102D1000CE1137E00D0128510301CD5D0D01295180
:102D20000301CE5904E2CDC328FDCEC329FD28CD31
:102D3000E6FF29CDE6FF87DB180EE66E0D0EE66E88
:102D400089DB28CD28FF29CD29FF0F01180E266F1A
:102D50000D0E276F86EC49F028CD00F029CD01F04B
:102D6000026A00500301CA270150CB230250CC2332
:102D70000D0128510301CD5F0D0129510301CE5BE7
:102D8000C5D71200140EEA02F3CFEAFFE902F3CF2F
:102D9000E9FFF450EA26420EE926080EEA22120064
:102DA00004CDC5F305CDC6F30301020ED880C55787
:102DB000000EC657140EC603F3CFC6F3C503F3CFF8
:102DC000C5F3F450C6270301010EC46F0D0104259D
:102DD0000301C26F000E0D0105210301C36F140E24
:102DE000C303F3CFC3F3C203F3CFC2F3F450C3273B
:102DF000420EC227080EC3233EEC1BF0140E206EB9
:102E0000216A04CD25F005CD26F054EC9AF01EC0C1
:102E1000BFF31FC0C0F3420E0301BF27080EC0233B
:102E2000FDDE08017A6B7B6B120067DBE60E0301A7
:102E30003727F50E3823050E3923000E3A231200EA
:102E4000FA0E006E370E016E010E026E14CD03F005
:102E5000046A056A060E246E256A266A14CD1FF0E0
:102E600004C020F005C021F072EF9AF0EECF72F7A7
:102E7000EDCF73F75AEC64F0E5DB9CEF1AF02951C3
:102E80002B5D006E2C512A55016E120050DB020E94
:102E900079EF1AF02B512D5D006E2E512C5551DB20
:102EA0000050120061DB100EC8EF1AF067DB060E4F
:102EB0004ED300501C24F36E01501D20F46E0250BE
:102EC0001E20F86EF4CFF7FFF3CFF6FF120006C313
:102ED00038FD07C339FD08C33AFD09C33BFDD9DB03
:102EE00043DB040E55DB38CD06F339CD07F33ACD7D
:102EF00008F33BCD09F312000301C46B0301C2695F
:102F0000C36944C3C1F31200F4DAEECF74F7EECF15
:102F100075F7EECF76F7EFCF77F75FEC64F01EC072
:102F200000F01FC001F020C002F021C003F09CEFB0
:102F30001AF0016E00C0F3FFF46E12008CDBEE504D
:102F40000D01341912000ACD96F30BCD97F30CCD79
:102F500098F303010ACDF6FF962B0BCDF7FF000E79
:102F600097230CCDF8FF98230800F5CF0EFD120033
:102F700005DB1E0EECD22F510301B725006E0D01AB
:102F800030510301B821016E22511625026E2351E2
:102F90001721036E0050025C0150035812001A51B1
:102FA0001825026E1B511921036E02501025006E68
:102FB000035011210AD3D6EC9AF0030137511E5C5D
:102FC000006E38511F58016E39512058026E3A5127
:102FD0002158036E0001800E03141200006E016A76
:102FE000090E005C000E015812004551EA6A490FB3
:102FF000E96E0D0EEA2212000D51EA6A110FE96E18
:103000000D0EEA22120096C3F6FF962B97C3F7FF28
:10301000000EC9DA010E106F1200ABDA0C0E69DA7D
:10302000EF50E0DA040DF3501200EECF00F0EFCFD6
:1030300001F012000301010EC46F64C3C2F365C343
:10304000C3F3CBEF1AF044C3C4F335C3C2F336C3A2
:10305000C3F314DB7CC3BFF37DC3C0F30EEF16F0E4
:1030600000010224006E000E03206BDA00C0F3FFA3
:1030700001C0F4FF1200D6EC9AF01E5003010225A5
:10308000376F1F500321386F20500421396F2150B2
:1030900005213A6F12002DDA1EC0EEFFB8DA9CEF60
:1030A0001AF069C3CAF36AC3CBF36BC3CCF344C34E
:1030B000C9F32FC3C7F330C3C8F367EF16F043CD8E
:1030C0008CF344CD8DF3030143CDE9FF44CDEAFFFA
:1030D0008C2B000E8D23EFCF46FD120044C3C4F3AA
:1030E0000EC3C2F30FC3C3F30301C16B360E03015A
:1030F000BF6FC06B0EEF16F038CD0AF339CD0BF36E
:103100003ACD0CF33BCD0DF31BEF1BF087DADCEF70
:103110001AF02ADA110EC8EF1AF0A4EC8AF0006E49
:10312000060EE15E00501200100E79EF1AF01C0D31
:1031300089DA000E0026010E012200C0E6FF01C060
:10314000E6FF1200036E02504B25006E03504C2127
:103150003CD244C3C4F300CDC2F301CDC3F38EDA35
:1031600082C3BFF383C3C0F312008CC3E9FF8DC3D6
:10317000EAFF8C2B000E8D23EFCF46FD0D01010ED3
:10318000486F12002B512D5D006E2E512C55016E93
:103190003551335D026E34513655036E1200E4D959
:1031A000120EF6D90301060E3F6F1200065F0150A2
:1031B000075B0250085B0350095B1200EECF02F080
:1031C000EFCF03F0120065DA0301AE6B03011200CA
:1031D0004BDA0301BF6F4DDA030112002F510301D7
:1031E000B725046E0D0130510301B821056E22513F
:1031F000045C12000301C56FC66B44C3C4F3120024
:1032000003013551335D365134591200340EE96EE5
:103210000D0EEA6EEE501200FF511C0DF3CFE9FFC8
:10322000F4CFEAFF000EE926010EEA221200E0ECDC
:103230009AF003011E503D5D006E1F503E59016E15
:10324000E8341200A4EC8AF0026E060EE15E025031
:10325000120001C0EBFF9CEF1AF0E0DC0D012951D8
:103260000301B75D120022511625006E235117216C
:10327000016E120029C32FF32AC330F312000D018F
:103280006C6F6B510301145D0D016C5103011559F5
:103290001200006E016A0050120046C318F347C3C3
:1032A00019F348C31AF349C31BF31200020E21D9C4
:1032B000EECF04F0EFCF05F012000D012C51030109
:1032C0006C5D0D012D5103016D5912000301C66F94
:1032D00044C3C4F32BC3C2F32CC3C3F312000301D2
:1032E0008E510D013B5D03018F510D013C591200C0
:1032F000030199510D01025D03019A510D0103591A
:103300001200E9CF00F0EACF01F0E9CFE6FFEACF03
:10331000E6FF12000D016B510301255D0D016C519B
:103320000301265912000D016B5103010E270D01F7
:103330006C5103010F2312000F01236F246B0F0147
:10334000216B226B4FEF49F014D90E0E79EF1AF072
:1033500031510E5D006E0F513255016E026A036AE3
:103360001200016E00502D5D01502E591200180EF2
:10337000E66E030EE66E120031510E5D32510F59AA
:103380001200B1C3E9FFB2C3EAFF1200A351030167
:10339000665D0D01A4510301675912000A0EE66E25
:1033A000E66AB1C3E6FFB2C3E6FF12000301AE6BEB
:1033B0000301100EC8EF1AF035510D01025D030133
:1033C00036510D0103591200C4EC00F033C335F33C
:1033D00034C336F31200016E03012B51005C2C51F3
:1033E0000158120003018E07000E8F5B8E518F1162
:1033F000120003019907000E9A5B99519A1112006D
:10340000272BD89002370337043705371200006E98
:10341000016A140E005E000E015A1200E8EC0FF073
:10342000F3CF25F3F4CF26F31200E0EC9AF01EC0A0
:103430003DF31FC03EF31200BA51BC25006EBB51D4
:10344000BD21016E1200CAC3E6FFCBC3E6FFCCC3A9
:10345000E6FF1200CFEC8AF0006E070EE15E00502E
:1034600012000CD903011200010E0226000E0322E5
:103470001200C4EC00F0ECEF00F061C35FF3FBEF6F
:1034800002F063C35FF3FBEF02F068C35FF3FBEF8F
:1034900002F02BC335F32CC336F3120000500008A2
:1034A000000E015412000A0E79EF1AF031C30EF328
:1034B00032C30FF31200120E79EF1AF00F01286FCA
:1034C000296B0F01120029C30EF32AC30FF3120058
:1034D0003FEC49F00D01426F120029CDE9FF2ACDE2
:1034E000EAFFC2EF16F004CDE9FF05CDEAFFC2EF17
:1034F00016F0E926000EEA221200D6EC9AF01EC061
:1035000037F31FC038F320C039F321C03AF312005B
:10351000A4DE0301C56F0D012A510301B85903014F
:10352000C66FEADC2BC3BFF32CC3C0F31200AFC3DA
:10353000E9FFB0C3EAFF1200B3C3E9FFB4C3EAFF77
:103540001200016E010E0026000E0122120000265C
:10355000A9D800C03BF301C03CF31200B7C3C5F3C8
:10356000B8C3C6F37CEF17F00301010EAE6F030181
:103570001200B5C3E9FFB6C3EAFF1200408BE0ECCE
:103580009AF01EC000F01FC001F0026A036A120028
:10359000AD6FDCEF0BF044C3C1F32FC3BFF330C3F7
:1035A000C0F30EEF16F0972398C3F8FF9823080096
:1035B000F5CF0EFD0D01120000502B5D01502C596E
:1035C00002502D5903502E591200016E005012194D
:1035D000426F01501319436F120051DCD890013231
:1035E00000321200F00BE842E842E842E8421200E2
:1035F0004DDC15EF18F01DC004F01EC005F059EFAA
:1036000017F03DDC00500E5F01500F5B120001C04F
:10361000EEFF02C0EEFF03C0EEFF120031CD00F05E
:1036200032CD01F0026A036A120029CDC5F32ACD1A
:10363000C6F37CEF17F003010A2B000E0B230C23BB
:103640000D231200F3CF00F0F4CF01F012006CDD77
:10365000EE50ED101200060EE96E030EEA6E120037
:103660000EDC026A036A1200030133510D012F259B
:103670001200030134510D01302112000301010E2B
:10368000C16F1200EECF00F0EECF01F097DD6DEFCD
:103690001AF034CD06F335CD07F336CD08F337CD28
:0E36A00009F31200000E012202220322120082
:0236AE00490EC3
:1036B0000701CF1905E1D05103E1D15101E1D25108
:1036C00001E1E4D2480ECF1905E1D05103E1D15117
:1036D00001E1D25101E1D8D2470ECF1905E1D05115
:1036E00003E1D15101E1D25101E1C8D2460ECF1917
:1036F00005E1D05103E1D15101E1D25101E1BCD248
:10370000450ECF1905E1D05103E1D15101E1D2516C
:1037100001E1AFD2440ECF1905E1D05103E1D151FF
:1037200001E1D25101E19FD2430ECF1905E1D05101
:1037300003E1D15101E1D25101E193D2420ECF19FF
:1037400005E1D05103E1D15101E1D25101E186D22D
:10375000330ECF1905E1D05103E1D15101E1D2512E
:1037600001E173D2310ECF1905E1D05103E1D151FE
:1037700001E1D25101E163D2300ECF1905E1D05100
:1037800003E1D15101E1D25101E157D22F0ECF19FE
:1037900005E1D05103E1D15101E1D25101E14AD219
:1037A0002E0ECF1905E1D05103E1D15101E1D251E3
:1037B00001E13ED22D0ECF1905E1D05103E1D151E7
:1037C00001E1D25101E132D22C0ECF1905E1D051E5
:1037D00003E1D15101E1D25101E126D22B0ECF19E3
:1037E00005E1D05103E1D15101E1D25101E11AD2F9
:1037F0002A0ECF1905E1D05103E1D15101E1D25197
:1038000001E10ED2290ECF1905E1D05103E1D151CA
:1038100001E1D25101E102D2280ECF1905E1D051C8
:1038200003E1D15101E1D25101E1F6D1270ECF19C7
:1038300005E1D05103E1D15101E1D25101E1EAD1D9
:10384000260ECF1905E1D05103E1D15101E1D2514A
:1038500001E1DED1250ECF1905E1D05103E1D151AF
:1038600001E1D25101E1D2D1240ECF1905E1D051AD
:1038700003E1D15101E1D25101E1C6D1230ECF19AB
:1038800005E1D05103E1D15101E1D25101E1BAD1B9
:10389000220ECF1905E1D05103E1D15101E1D251FE
:1038A00001E1AED1210ECF1905E1D05103E1D15193
:1038B00001E1D25101E1A2D1200ECF1905E1D05191
:1038C00003E1D15101E1D25101E196D11F0ECF198F
:1038D00005E1D05103E1D15101E1D25101E18AD199
:1038E0001E0ECF1905E1D05103E1D15101E1D251B2
:1038F00001E17ED11D0ECF1905E1D05103E1D15177
:1039000001E1D25101E172D11C0ECF1905E1D05174
:1039100003E1D15101E1D25101E166D11B0ECF1972
:1039200005E1D05103E1D15101E1D25101E156D17C
:103930001A0ECF1905E1D05103E1D15101E1D25165
:1039400001E14AD1190ECF1905E1D05103E1D1515E
:1039500001E1D25101E13ED1180ECF1905E1D0515C
:1039600003E1D15101E1D25101E131D1170ECF195B
:1039700005E1D05103E1D15101E1D25101E122D160
:10398000160ECF1905E1D05103E1D15101E1D25119
:1039900001E116D1150ECF1905E1D05103E1D15146
:1039A00001E1D25101E103D1140ECF1905E1D0514B
:1039B00003E1D15101E1D25101E1F4D0130ECF194D
:1039C00005E1D05103E1D15101E1D25101E1E5D04E
:1039D000120ECF1905E1D05103E1D15101E1D251CD
:1039E00001E1D7D0110ECF1905E1D05103E1D1513A
:1039F00001E1D25101E1C8D0100ECF1905E1D0513B
:103A000003E1D15101E1D25101E1BAD00F0ECF193A
:103A100005E1D05103E1D15101E1D25101E1ABD037
:103A20000E0ECF1905E1D05103E1D15101E1D25180
:103A300001E19DD00D0ECF1905E1D05103E1D15127
:103A400001E1D25101E191D00C0ECF1905E1D05125
:103A500003E1D15101E1D25101E183D00B0ECF1925
:103A600005E1D05103E1D15101E1D25101E177D01B
:103A70000A0ECF1905E1D05103E1D15101E1D25134
:103A80006CE0090ECF1905E1D05103E1D15101E1FC
:103A9000D25161E0080ECF1905E1D05103E1D151B7
:103AA00001E1D25156E0070ECF1905E1D05103E1F3
:103AB000D15101E1D2514BE0060ECF1905E1D051B1
:103AC00003E1D15101E1D25140E0050ECF1905E1EA
:103AD000D05103E1D15101E1D25135E0040ECF19AB
:103AE00005E1D05103E1D15101E1D2512AE0030EA9
:103AF000CF1905E1D05103E1D15101E1D2511FE0CD
:103B0000020ECF1905E1D05103E1D15101E1D251AB
:103B10000FE0010ECF1901E0BBD0D05101E0B8D0C9
:103B2000D15101E0B5D0D25101E0B2D04CEF32F02A
:103B30000701570EED6F870EEE6F000E8CD061EF10
:103B400032F05AEF1EF006EF31F0070E0BD0060EE2
:103B500009D0050E07D0040E05D0030E03D0020EC7
:103B600001D0010E0401E96F2FD03BEF32F0010EBE
:103B70000401ED6F02D00401ED6BEE6B040E1BD05F
:103B8000010E0401ED6F02D00401ED6BEE6B030E2C
:103B900012D0010E0401ED6F02D00401ED6BEE6B4B
:103BA000020E09D0010E0401ED6FEE6B04D004018A
:103BB000ED6BEE6B010E0401EB6FEC6BC4EF31F0BB
:103BC00035EF31F00401E96BEA6B71EF31F004017C
:103BD000E76B07D0010E03D0020E01D0030E0401E3
:103BE000E76FE86B3DEF31F024EF32F077EF32F022
:103BF0005DEF33F03CEF33F044EF33F038EF33F068
:103C000039EF33F03AEF33F067EF33F012EF33F080
:103C1000D0EF32F0D5EF32F0E0EF32F0EAEF32F0F1
:103C2000F4EF32F0FEEF32F008EF33F031EF33F023
:103C300033EF33F00401F76B05D0010E01D0020E13
:103C40000401F76FF86B3BEF33F007014C0EED6F9B
:103C5000870EEE6F000EEF6FD1EF27F00401F36BCC
:103C600005D0010E01D0020E0401F36FF46B2FEFAB
:103C700033F00401F56B05D0010E01D0020E0401F2
:103C8000F56FF66B30EF33F057EF33F05AEF33F058
:103C9000040E03016C6F6D6B0301470E696F870E95
:103CA0006A6F000E6B6FF4EC29F0EE52EFCF68F301
:103CB0000AEF04F003017E0E626F0BEF2BF004019C
:103CC000836B020E835D30E255EC28F0EF6A03014E
:103CD000080E4D6F500E03014B6F4C6B03014A6B86
:103CE0000301466B476B486B496BE7EC01F0E66EEE
:103CF000F4EC29F0EE52E552E750EF6E14691569C5
:103D00008351BCEC28F0B6EC29F0F3CF00FDF4CFE2
:103D100001FD11EC29F000CD11FF01CD12FF5BEC8C
:103D200048F00401832BCDD7836B12000D01866B05
:103D3000020E865D36E2C6EC28F0EE52EF50FE0829
:103D40002DE0C6EC28F0EE52EFCF4EF37FEC02F000
:103D5000000914E086CDD3F725D8F4EC29F0EF6AFA
:103D6000FF0E145D02E044EC29F0FF0E155D02E049
:103D70004BEC29F00301040E89EC2AF00D01C6EC8E
:103D800028F0EF5007E1C6EC28F0B7EC28F0D9ECAA
:103D900028F004E086CDD3F705D83ED80D01862B58
:103DA000C7D71200040183510701D35D01E112005E
:103DB00004018351BCEC28F0B6EC29F0F3CF00FDF0
:103DC000F4CF01FD11EC29F000CD11FF01CD12FF60
:103DD0005BEC48F00701D351BCEC28F000C013FFA6
:103DE00001C014FF6EEC48F0F3CF00FDF4CF01FDED
:103DF0007F0E0F01236F246B0F01000E216F040E45
:103E0000226F4FEC49F000CD13FF01CD14FF6EEC93
:103E100048F0D3C783F412000D01010E736FF4EC68
:103E200029F0EF500B0A02E177EF23F0010A02E1DB
:103E300054EF23F0030A02E13DEF23F0010A01E110
:103E4000B9D30F0A01E11FD3010A01E102D3030A2A
:103E500001E17AD2010A01E16ED2070A01E147D2FB
:103E6000010A01E1A4D1030A27E0010A02E084EF7C
:103E700023F0B1EC2AF0F3CF6DFDF4CF6EFDF350DB
:103E8000F41002E184EF23F004011A0E106F040E07
:103E9000116F55EC28F0010EEF6E1769166B7DEC73
:103EA00028F00C690D690E690F69D1EC29F07E6B61
:103EB0000301050E89EC2AF07AEC28F00A0EDCECFE
:103EC0002AF003EC2AF00001F31C14E1011C12E1BA
:103ED000F4EC29F00DEC2AF004E114EC2AF00D01C9
:103EE000736BA4EC28F002E6EBEC28F002E384EF1D
:103EF00023F042D27DEC28F003EC2BF00D01050EEF
:103F0000D880F354000EF45403E2050E6D6F6E6B0F
:103F1000010E57EC29F01A0E7C6F040E7D6F86ECB3
:103F20002AF0030EE66EE66A750EE66E800EE66E09
:103F3000000E58EC2AF003E10401186B12D0040EB5
:103F4000E66EE66A700EE66E800EE66E000E58ECC7
:103F50002AF004E10401010E186F03D00401070EDA
:103F6000CAD103EC2BF00301A66BF3CFA4F3F4CF7B
:103F7000A5F30301A26BA36B03013F0EA16FF4EC49
:103F800029F061EC29F00D01F3506D5DF4506E598C
:103F900004E36FCD6DFD70CD6EFD590ED8806D556B
:103FA000000E6E5501E2ECD0F8EC2AF06FEC2AF02E
:103FB0001A0EF324E96E040EF420EA6E8BEC29F05D
:103FC0001A0EE66E040EE66E41EC2AF06FEC2AF053
:103FD0000B0EE66EE66A650EE66E800EE66E000E6D
:103FE000E66E1B0EE66E040EDDEC28F00CE164ECD0
:103FF00029F0185102E1080E01D0090E186F55EC96
:1040000028F0020E2ED209EC29F002E06EEC29F025
:10401000FF0E0401145D31E109EC29F00EE00D0101
:104020006FCDE9FF70CDEAFF6F2B000E70231A0EE3
:10403000E926040EEA222F0EEF6EBCEC29F01A0ED0
:104040000D016F25006E040E7021016E00C0E6FFA9
:10405000E66E81EC8BF0026E050EE15E0250BCEC68
:1040600029F0A8EC8BF0E552E552E5521F500D0106
:104070006F27205070236EEC29F01A0E0D016F256A
:10408000746F040E7021756F010E745F000E755B06
:104090001A0E741902E1040E751909E074CDE9FFD6
:1040A00075CDEAFFEF502E0802E07407EFD7742BAE
:1040B000000E75230401196B0B0EE76E1919E8AE9B
:1040C00002D0E73402D0E750195D23E2C70E006E3C
:1040D000360E016E010E026E19C403F0046A056A01
:1040E00003AE02D00468056825EC2AF0F5CF6FF71F
:1040F0000900F5CF70F70800F5CF71F774CD6DF7B3
:1041000075CD6EF71BEC64F0000903E00401192B78
:10411000D3D764EC29F0FF0E145D18E014C4F2F05C
:1041200044EC58F0F350020B11E014C4FDF03EECE7
:1041300059F0F3CFD4F0F4CFD5F0010E0001D4271D
:10414000000ED52396EC55F00401156F03EC2BF00F
:10415000F350F4101CE00401010E166F0301710E00
:10416000796F0D0E7A6FF4EC29F0A1EC29F00D01B6
:104170006D07000E6E5B620E6D5D000E6E5903E3FF
:104180000401050EB8D0F8EC2AF0F5EC28F007ECA5
:104190002BF0010EF32403017E6F000EF4207F6FDD
:1041A0000301F4EC2AF0F4EC29F0020EEF6E07ECB8
:1041B0002BF00D01F31C13E16E1D11E1F4EC29F05D
:1041C0000DEC2AF004E114EC2AF00D01736BA4EC61
:1041D00028F002E6EBEC28F001E396D2CDD07DEC9E
:1041E00028F00D01010E6D190BE16E5109E1020E6F
:1041F000D6EC29F0F4EC2AF0F4EC29F0030E31D1DE
:104200000301A66B6DCDA4F36ECDA5F30301A26BE4
:10421000A36B03013A0EA16FF4EC29F061EC29F0D5
:10422000020E0D016F27000E7023736B100ED880E5
:104230006F55000E705502E2010E54D06FCD7EF323
:1042400070CD7FF30301760E7C6F0D0E7D6F86ECD3
:104250002AF049EC2AF0760EE9260D0EEA22EF6AE2
:104260000D016F516D5F70516E5B726B7251006E1C
:10427000016A030E005C000E01582EE2390E006E3A
:10428000370E016E010E026E72CD03F0046A056AEC
:10429000ACEC29F072CD1FF05AEC28F0F5CFE6FF18
:1042A0000900F5CFE6FF0800F5CFE6FF760EE66ED3
:1042B0000D0EE66E6BEC8BF0066E050EE15E0650A1
:1042C000000907E172CDD4F7E8DA0D01010E736F32
:1042D00003D00D01722BCAD7735102E007EC2BF00B
:1042E000010E0D0157EC29F0F4EC2AF060D7800E96
:1042F000175D03E2030E186FB1D010C4E9FF11C4BB
:10430000EAFF8BEC29F0F3CF10F4F4CF11F4080E90
:104310000401185D01E1A2D055EC28F0040EEF6E07
:10432000165104E155EC28F0050EEF6E0D01736B8C
:104330000401166BE9D14DEC2BF0020801E1E4D148
:10434000F4EC29F0050EEF6EB1EC2AF0E0EC2AF067
:10435000F35004010C1914E101500D1911E1025040
:104360000E190EE103500F190BE10AE1A4EC28F03D
:1043700002E6EBEC28F004E2B7EC2AF00B0E71D069
:10438000180515E0090EE76E1819E8AE02D0E734FB
:1043900002D0E750185D59E30B0EE76E1819E8AE2E
:1043A00002D0183503D0E750D88018554EE3090ED7
:1043B000E76E1819E8AE02D0E73402D0E750185D76
:1043C00013E30B0EE76E1819E8AE02D0183503D0D0
:1043D000E750D880185508E3F2EC26F00D01716F14
:1043E000E85006E104013AD0F6EC2BF00D01716FB4
:1043F000020E715D0CE1B4EC2AF0DBEC29F0040153
:10440000010E0C5F000E0D5B0E6B0F6B7DD1710505
:104410001CE1B4EC2AF0DBEC29F004010E6B0F6B0D
:104420007DEC28F02FEC29F00C5DEE500D59EE508C
:104430000E59EE500F5906E255EC28F00DEC2AF01B
:1044400001E062D10401060E08D0F4EC29F0060E5A
:10445000EF6EFF0E145D07E1040E186F55EC28F0A7
:10446000070EEF6EA4D0D1EC29F0FF0E155D05E12B
:10447000046905690669076902D078EC29F0F4EC53
:1044800029F0070EEF6E0301020E89EC2AF00F0EE1
:10449000006E370E016E010E026E18C403F0046A3E
:1044A000056A03AE02D004680568A5EC2AF00C0E7C
:1044B0000401185D0DE1BFEC2AF0480E726F800E0A
:1044C000736F000EF0EC2AF0BFEC2AF074EC2AF0C7
:1044D0000401185106E0180504E055EC28F00B0E15
:1044E00004D10B0E195D1BE00301390E726F800EB3
:1044F000736F000EF0EC2AF0EB0E006E360E016EBC
:10450000010E026E19C403F0046A056A03AE02D0FC
:1045100004680568A5EC2AF0030174EC2AF014C4C1
:10452000F2F044EC58F0F350010B08E00301200EC8
:10453000726F800E736F000EF0EC2AF00301100E04
:10454000726F800E736F000EF0EC2AF004011805F4
:104550000CE0E868041908E1E868051905E1E86875
:10456000061902E1E868071907E00301070E726FF8
:10457000800E736F000E0DD00301FE0E726F7F0E62
:10458000736F000EEDEC2AF0FA0E726F7F0E736FF0
:10459000000EEDEC2AF074EC2AF00401165104E050
:1045A00055EC28F0080E02D00EEC2BF0EF6E0D014A
:1045B000736BAAD01A0E126F040E136F16515AE0C5
:1045C0000301ED0E726F7F0E736F000EF0EC2AF098
:1045D0001CEC29F022E0200E0D01715D03E10301C6
:1045E0002B0E14D0300E715D0FE37151390803E2C8
:1045F000410E715D09E371515A0803E2610E715D6C
:1046000003E371517A0804E294EC2AF0626F02D05D
:1046100071CD62F30BEC2BF0DBD703013D0E626F23
:104620000BEC2BF01CEC29F01FE0200E0D01715D4E
:1046300003E103012B0EF3D7300E715D0FE37151CF
:10464000390803E2410E715D09E371515A0803E232
:10465000610E715D03E371517A0803E294EC2AF074
:10466000DED771CD62F3DCD7030174EC2AF00401CC
:104670001607A4D70EEC2BF0EF6E0D01736B4AD822
:10468000000909E044EC29F055EC28F00B0EEF6E20
:104690000D01010E736FE4EC2AF0D9EC28F034E13F
:1046A0000D01010E736F30D00D01010E736FE4EC3C
:1046B0002AF003EC2AF0100EF35C000EF45824E309
:1046C00008C4CFF709C4D0F70AC4D1F70BC4D2F796
:1046D00057EC1BF004010C510D110E110F1114E1D8
:1046E0000D01736BF4EC29F0090EEF6E0DD0FF0E87
:1046F000145D02E044EC29F0FF0E155D02E04BEC86
:1047000029F0B7EC2AF0EF6A0D01735102E10CEFCA
:104710001FF01200E4EC2AF0F3CF02FDF4CF03FD0A
:10472000F3CF04F0F4CF05F0066A076A2FEC29F006
:104730000401045D086EEE500559096EEE500659ED
:104740000A6EEE5007590B6E0850F35C0950F4588E
:104750000A5006580B50075807E202CD00F003CD6F
:1047600001F0026A036A0DD02FEC29F0045D006E9F
:10477000EE500559016EEE500659026EEE50075983
:10478000036E00C000FD01C001FD0D0100500401D9
:1047900000270D01015004010123000E0223032311
:1047A0000D01000ED8800055000E015530E2400E7C
:1047B000005D000E015905E200CDDDF001CDDEF017
:1047C00004D00001400EDD6FDE6B0001050EDB6FD3
:1047D0000D0EDC6F14C4DAF046EC56F0F3CF02FD98
:1047E000F4CF03FD0D01F350F41001E1010C02CDF3
:1047F00066F303CD67F30301050E646F0D0ECEEC77
:104800002AF00D010251005F0351015BC9D72FEC63
:1048100029F00401041940E1EE5005193DE1EE5084
:1048200006193AE1EE50071937E136E155EC28F068
:104830000A0EEF6E0C6B0D6B0E6B0F6B0001D86BDD
:10484000D96B14C4D7F0E2EC55F00001040ED86F18
:104850000D0ED96F14C4D7F0E2EC55F0000906E054
:10486000CAEC29F07E0E0D01045DEFE1CAEC29F0DF
:104870000001080EE06F040EE16F15C4DFF09AEC42
:1048800056F078EC29F0000907E104010469056994
:10489000066907694BEC29F0000C0701D45102E1CD
:1048A000D4EF24F0D40502E15BEF24F0020ED45DD6
:1048B00001E1C9D81200040117BF1200060ED6ECA0
:1048C00029F0F4EC2AF07BEC2AF004EC29F0F3CF89
:1048D00031FD030E0D013127FC0E3117326B240E12
:1048E000315D000E325903E3240E316F326B330E0B
:1048F0005B6F0D0E5C6F000ED8803155000E325587
:1049000026E2040E03017E6F7F6B5BCD7CF35CCDF2
:104910007DF386EC2AF0030E07015B6F5C6B5BCDC9
:1049200059F75CCD5AF7040E0701576F586B5BCDF2
:1049300055F75CCD56F784EC62F0040E0D01315F43
:10494000000E325B030E5B27000E5C23D4D7E0EC35
:1049500029F0EF6A316B326B330E5B6F0D0E5C6FBB
:10496000280E315D000E32590BE2E0EC29F0EF50D9
:104970003A0806E0312B000E32235B2B5C23F0D784
:10498000E0EC29F05B2B000E5C23EF6A5BCD88F432
:104990005CCD89F40401330E866F0D0E876F2CEC0D
:1049A0002BF00401176F12007BEC2AF05EEC2AF06A
:1049B00010C400F011C401F07E0ED8800056040E21
:1049C0000156020E005E000E015A0D010050F35C0C
:1049D0000150F45802E314EF2AF00D013351341161
:1049E00031E088DB3B0EDCEC2AF0F3CF31FDF4CF75
:1049F00032FD0D013351F35C3451F45805E231CDF1
:104A00007EF332CD7FF304D033CD7EF334CD7FF30C
:104A100010C47CF311C47DF386EC2AF0E6DB0D01B3
:104A20003351315D3451325908E2E7EC2AF062DB50
:104A3000200EDCEC2AF0BDDBF8E07BEC2AF05EEC2B
:104A40002AF0CBD712007BEC2AF0DEDBF3CF31FD6E
:104A5000F4CF32FD0D010A0EF35C000EF45805E3AD
:104A60000401020E186FD1EF29F031CD7EF332CD63
:104A70007FF30301330E7C6F0D0E7D6F86EC2AF001
:104A8000F3CF31FDF4CF32FD330E0D01F324E96E87
:104A90000D0EF420EA6EEF6A330EE66E0D0EE66E32
:104AA000B4EC83F0E552E5521EC000F41FC001F4DF
:104AB00020C002F421C003F41200D5C7E6FFD6C718
:104AC000E6FF41EC2AF0F3CF3DFDF4CF3EFDD5C724
:104AD0003BFDD6C73CFDD5C739FDD6C73AFD0D0114
:104AE0003D513E1142E0A6EC29F0000E3A23EFCFF3
:104AF0003FFD3D073E5B3D0E3F5D03E0260E3F5D03
:104B000003E14FDBEF6AEBD72B0E3F5D03E149DB9F
:104B1000200E25D0250E3F5D24E1020E3D5D000EE6
:104B20003E5903E23D6B3E6BDAD7A6EC29F0000E4E
:104B30003A23EFCF41FDA6EC29F03A23EFCF40FD19
:104B40003D073E5B3D073E5B40CD69F741CD6AF7CF
:104B5000E3EC63F0E66E0D0124DBE552E750EF6E07
:104B6000BED71FDB3FCDEFFFBAD71BDBEF6A3BCDD4
:104B7000E9FF3CCDEAFFEF6A3BCDF3FF3CCDF4FF0C
:104B80001200D7C7E9FFD8C7EAFFEF5020E0E5ECF5
:104B900029F0D9C7E6FFDAC7E6FF4BEC8BF0E55208
:104BA000E552E552E55200090DE1D9C7E6FFDAC743
:104BB000E6FF41EC2AF00701D751F324006ED851EB
:104BC000F42058D32AEC2AF02AEC2AF0DAD7F36A38
:104BD000F46A1200DBC7E9FFDCC7EAFFEF5027E009
:104BE00037DB1FC000F020C001F021C002F0002A16
:104BF000000E0122022200C0E6FF01C0E6FF64ECC5
:104C00002AF0E8DB85EC8AF0036E070EE15E0350C4
:104C1000000908E11DDB0701DB511F24006EDC5198
:104C2000202028D331EC2AF031EC2AF0D3D7F36AD4
:104C3000F46A1200E2C7EBF7E3C7ECF7E0C7E9F765
:104C4000E1C7EAF707013D0EE86F46D80D016C6F2A
:104C50000701E051E1110BE0E0C7E9FFE1C7EAFF1E
:104C6000EF5005E0E0C7D5F7E1C7D6F726DF0D0125
:104C70006C51120046DB260EE86F2ED80D016C6FCA
:104C8000020E6C5D17E1B4EC2AF0E0EC2AF00401AE
:104C90000051F3180FE1015101180CE10251021803
:104CA00009E10351031806E105E12BDBE86B14D899
:104CB0000D016C6F0701E451E5110BE0E4C7E9FF5A
:104CC000E5C7EAFFEF5005E0E4C7D5F7E5C7D6F73B
:104CD000F4DE0D016C5112000701E85106E0C8DB5B
:104CE000E8C7A1F381DB94DB02D0B4EC2AF0F3CF68
:104CF0006AFDF4CF6BFD0D01F31C03E16B1D01E1B7
:104D0000020C0701020EEB5D000EEC5906E2E951C0
:104D1000EA1103E0C7EC2AF038D0E951EA1104E1C6
:104D2000C7EC2AF00D0143D0FEDA0D016A51005C98
:104D30006B5101582EE2EBC77EF3ECC77FF3030102
:104D4000020E7E5F000E7F5BD5EC2AF0EBC704F00D
:104D5000ECC705F0020E045E000E055A04500D016A
:104D60006A5D03017E6F05500D016B5903017F6F72
:104D70000301F4EC2AF03BDBD6DA0701E951002409
:104D8000E96EEA510120EA6EEF6A0D01010E696FCA
:104D90000FD025DBD5EC2AF00701E9510D016A257A
:104DA000E96E0701EA510D016B21EA6EEF6A696B4A
:104DB0000701E85114E0E7EC2AF0006E016A026A8C
:104DC000036A00AE03D00168026803680050040162
:104DD000005F0150015B0250025B0350035B0D0159
:104DE00069511200040118510A0A01E185D0010A33
:104DF00066E0020A01E0D4D0CBD9040E53DAE80E03
:104E0000966F7F0E976F000E986FEEDAFDD9A9DAD4
:104E10000D01F31C01E1421D44E041CD7EF342CD82
:104E20007FF303017C6B7D6BDFDA55DB9ADBEBDA1A
:104E30000A0EF35C000EF45805E20D01412B000E42
:104E40004223010C0A0EB2DA310E7C6F0D0E7D6F1B
:104E5000CBDA41DB0A0EE66EE66ADD0EE66E7F0E09
:104E6000E66E000EE66E310EE66E0D0EA6D915E169
:104E700004010A0E186F3DEC57F00401146F060E82
:104E80000001EB6FEC6B0001350EE96F0D0EEA6F60
:104E900014C4E8F081EC57F0020C04010B0E186FFB
:104EA000020C62DBF3CF7EF3F4CF7FF30301040E39
:104EB0007E5F000E7F5B030197DB99DA010C51DB0B
:104EC000F6D8F3D8EE52EFCF76F3EDEC04F0640EA3
:104ED0000401005D000E0159000E0259000E035935
:104EE0005BE3D880000E0055000E0155000E025500
:104EF000800E035555E250D034DB33DA61DBF350DA
:104F00000401005DF4500159025002590350035945
:104F100004E200C441FD01C442FD0D01000ED88031
:104F20004155000E42552CE2100E415D000E4259D3
:104F300005E241CD7EF342CD7FF304D00301100E94
:104F40007E6F7F6B0301310E7C6F0D0E7D6FDEDA9D
:104F5000F3CF43FDF4CF44FDAAD80D01F350415FD8
:104F6000F450425BF3CFEBF0F4CFECF00001310EE4
:104F7000E96F0D0EEA6F14C4E8F081EC57F0CDD75D
:104F8000040100510111021103110AE10001010E97
:104F9000ED6FC7EC57F0040188D8070EEF6E000CD8
:104FA000010C04010C510D110E110F1114E1EDC78C
:104FB000D1F0EEC7D2F0EFC7D3F0E4EC54F00D011E
:104FC000446FFF0E445D01E1120044CDFDF03EEC64
:104FD00059F0F1D91AD00CC4D4F00DC4D5F096EC28
:104FE00055F00D01446FFF0E445D01E11200000118
:104FF000020EE76F0EC4E3F00FC4E4F00001E56BAE
:10500000E66B44CDE2F0AEEC56F0DEDAF3CF00FD15
:10501000F4CF01FD0D01000ED8800055000E0155A2
:1050200038E2400E005D000E015905E200CDDDF0D2
:1050300001CDDEF004D00001400EDD6FDE6B00011B
:10504000040EDB6F0D0EDC6F44CDDAF046EC56F04B
:10505000F3CF02FDF4CF03FD0D01F350F4100AE18C
:1050600044CDD6F0D7EC55F004010C6B0D6B0E6BF4
:105070000F6B120002CD66F303CD67F30301040E3C
:10508000646F0D0E8BDA0D010251005F0351015B5D
:10509000C1D744CDFCF00DEC59F01EC00EF41FC07A
:1050A0000FF444CDD6F0D7EF55F08351C4D1ABD92E
:1050B000F7EF29F004C020F005C021F072EC9AF05F
:1050C0001CC003F01DC004F01EC005F000501C24DD
:1050D000F36E01501D20F46E02501E20F86EF4CFC6
:1050E000F7FFF3CFF6FF09001200EE52EFCF7BF38C
:1050F0005BEF05F0BDD903011200D6EC9AF01EC09B
:1051000008F41FC009F420C00AF421C00BF48B0E70
:1051100004010827D20E09231A0E0A23000E0B23BE
:105120001200EE52EFCF71F3A3EF04F071D9F3CF79
:105130006DFDF4CF6EFD1200A4D965D9010E0026D5
:10514000000E012200501200D6EC9AF00401085122
:105150001E5C006E09511F58016E0A512058026EE4
:105160000B512158036EE834000E03181200EE5262
:10517000EFCF77F3FCEF04F07F0D22DAEE0E00267E
:10518000450E0122000E022203221200865153D145
:1051900003019F6B03019D6B9E6B03019B6B9C6BDB
:1051A00012003BCDE9FF3CCDEAFF3B2B000E3C2338
:1051B000120029D9F350F4101200E66E85EC8AF043
:1051C000006E070EE15E005000091200EE52EFCFB4
:1051D00061F342EF03F0D880000E0054000E01543A
:1051E000000E0254000E03541200F3500401102765
:1051F000F450112310C4E9FF11C4EAFF102B000E74
:105200001123260EEF6E1200EE52EFCF95F3BEEF94
:1052100007F03FD91A0EE926040EEA22EF502F08B4
:1052200012007F0E0F01286F296B0F01000E266FF1
:10523000040E276F86EF49F0040112C4E9FF13C47E
:10524000EAFF122B000E1323EFCF71FDEF50120077
:105250003BD9A8EC8BF0E552E552E5521200000E66
:10526000E96E040EEA6EEE501200EE52EFCF60F3DC
:1052700009EF03F0016E010E0026000E012200C0AE
:10528000F3FF01C0F4FF120014C4D6F0D7EC55F0C0
:1052900004011469120015C4D6F0D7EC55F00401CE
:1052A000156912000301996F9A6B030112006D25B5
:1052B00003017E6F000E0D016E2103017F6F03015C
:1052C0001200A6D86FEF2AF004011B0E846F040EA3
:1052D000856F13EC2BF00401176F120000011B0EF9
:1052E000CF6F040ED06F31EC54F00401146F120034
:1052F0000001040EE06F040EE16F15C4DFF09AEFB9
:1053000056F0E6C7EBF7E7C7ECF7E4C7E9F7E5C700
:10531000EAF707011200EF6A07011A0ED56F040EB3
:10532000D66F5DEF25F0EBC700F0ECC701F0020E81
:10533000005E000E015A1200EE52EFCFB9F335EFC6
:1053400015F0EE52EFCF78F31EEF05F039CDE9FFFF
:105350003ACDEAFF392B1200030E246E256A266A25
:105360001200F3CF41FDF4CF42FD120000C011FF47
:1053700001C012FF5BEF48F05B0EE66E800EE66E3A
:10538000000EE66E1200EE52EFCF6EF388EC04F0E2
:10539000030112000401002B000E0123022303234A
:1053A0001200006B016B026B036B120003017E6F36
:1053B0007F6B03011200F3CF0CF4F4CF0DF4120055
:1053C0005BCDE9FF5CCDEAFF1200D7C7E6FFD8C787
:1053D000E6FF1200DBC7E6FFDCC7E6FF12006ACD7E
:1053E0007EF36BCD7FF31200040155EF28F0026AC3
:1053F000036AF3500401005FF450015B0250025B4A
:105400000350035B1200F3CF00F0F4CF01F0120061
:10541000EE52EFCFA0F3E9EF08F0EE52EFCF80F3BA
:10542000DDEC05F0D9EF28F00401050E186F3DDE24
:10543000070EEF6E1200E96EEA6AD890E936EA3696
:105440007F0EE926040EEA22120086DF03C01FF059
:105450005AEF28F0BADF70DE0701D7270150D823B2
:105460001200B8DF69DE0701DB270150DC231200E0
:105470000301A66B0301A46BA56B0301A26BA36BD5
:1054800012009AEC8BF0E552E55212002EDE57EF37
:1054900028F06FCDE9FF70CDEAFFE906000EEA5A69
:1054A000120094DE71CD6CF70EEC64F00301120073
:1054B000E66E1A0EE66E040EDDEF28F0A5DEF3CFE1
:1054C00033FDF4CF34FD1200DDC7E6FFDEC7E6FF93
:1054D000DFC7E6FF120009DE44DF57EF28F0F3CF05
:1054E0006FFDF4CF70FD1200C40E726F360E736F35
:1054F000010EF0EF2AF04CDE020ED4DEC40E966FE1
:10550000360E976F010E986FF4EF29F06DDF75EF8F
:1055100028F0BE6F0301BC6BBD6B010E0301BA6FB7
:10552000BB6B62DF9CEF29F00301250E626F73D81D
:1055300071CD6BF700EC64F00301626F55DF51EF42
:105540002AF0A16F51DF96EF28F07FDFF5CF72F3DD
:105550000900F5CF73F30800F5CF74F345DF91EF41
:1055600028F0A3DDB7EF28F03FDFB7EF28F09DDD8F
:10557000EE52EFCF50F391EC02F0F4EF29F003017B
:105580001A0E6F6F040E706F2FDFC3EF29F027DF45
:1055900003017C6B7D6B28DF46EF2AF0656F24DF0B
:1055A000EE52EFCF63F38FEF03F0E9C77CF3EAC766
:1055B0007DF31ADF46EF2AF0A16F16DF08EF2AF01D
:1055C00022DF026A036A12000FDF35EF29F00301C0
:1055D000796B7A6B09DFA1EF29F002D80301120081
:1055E000746F02DF91EF28F07C6B7D6B86EF2AF001
:1055F0006DCD7EF36ECD7FF303011A0E7C6F040E2A
:105600007D6F86EF2AF076DD200EA1EF2AF072DDA5
:105610000A0EA1EF2AF0E8DEE6EF28F0030164DFCE
:06562000E3DE090E12009A
:0A562600070EE66EE66A7A0EE66EE5
:105630007F0EE66E000E93EC34F001E1000C040ED8
:10564000E66EE66A750EE66E7F0EE66E000E93EC71
:1056500034F001E1000C800C6F0EE66E7F0EE66EFA
:10566000000EE66E86C4E6FF87C4E6FF9AEC34F0CF
:1056700013E1650EE66E7F0EE66E000EE66E88C4E0
:10568000E6FF89C4E6FF6BEC8BF0016E050EE15E70
:105690000150000901E1800C000C140E0001FA6FAA
:1056A000FB6B0001020EF86F0D0EF96F14C4F7F0DA
:1056B000E3EC58F0090EE66EE66A5B0EE66E7F0ECE
:1056C000E66E000E54EC34F04EE10701560EDD6F2D
:1056D0007F0EDE6F000E6FEC34F00AE0DBEC33F08F
:1056E00002E0000E01D0010EE8B08C88E8A08C9892
:1056F0000701510EDD6F7F0EDE6F000E6FEC34F090
:105700000AE0DBEC33F002E0000E01D0010EE8B05D
:105710008C86E8A08C9607014C0EDD6F7F0EDE6F45
:10572000000E6FEC34F00AE0DBEC33F002E0000E28
:1057300001D0010EE8B08C84E8A08C940701470EDC
:10574000DD6F7F0EDE6F000E6FEC34F04EE0DBECB1
:1057500033F002E0000E01D0010EE8B08C82E8B018
:1057600044D08C92000C0B0EE66EE66A3B0EE66EA1
:105770007F0EE66E000E54EC34F004E10401010EDD
:10578000166F000C080EE66EE66A320EE66E7F0EAD
:10579000E66E000E54EC34F028E107012E0EDD6FAA
:1057A0007F0EDE6F000E85EC33F0F3CFE9FFF4CF10
:1057B000EAFFEF50370A18E0010A14E0030A10E08C
:1057C000010A0CE0070A08E0010A04E0030A0DE1FF
:1057D0008C72000C8C74000C8C76000C8C78000C95
:1057E0008C7A000C8C7C000C8C7E000C140E00015A
:1057F000FA6FFB6B0001A10EF86F0D0EF96F14C468
:10580000F7F0E3EC58F00A0EE66EE66A230EE66E59
:105810007F0EE66E000EA2EC34F002E1E0EF2DF018
:10582000120EE66EE66A100EE66E7F0EE66E000E53
:10583000A2EC34F002E12CEF2CF0000EE66E7F0EAD
:10584000E66E000EE66EA10EE66E0D0E7EEC33F0F7
:1058500002E1A9EF2EF0000C74EC34F0F3CF04F069
:10586000F4CF05F0F3CFE6FFF4CFE6FF71EC33F0B1
:10587000EFCF80F3DDEC05F0E552E7CF05F0E55220
:10588000E7CF04F00450F324006E0550F420016EBD
:10589000026A036A04010051005C0151015802517F
:1058A00002580351035801E27DD174EC34F05BECF3
:1058B00034F0026A036A04010051F35C0151F458A8
:1058C000025102580351035801E2010C330E080142
:1058D000E96FEA6B0801000EE76F0D0EE86F080133
:1058E000060EE36FE46BE56BE66B20EC8FF00D01C9
:1058F0002C9D1CEC34F001E127D1060E0701E26F6C
:10590000E36B07011A0EE06F040EE16F1AEC26F04C
:10591000000901E047D15C0E0701E66FE76B070164
:10592000200EE46F040EE56F3AEC26F0000901E06A
:1059300039D1FD0EE66E7E0EE66E000E3AEC34F0C6
:1059400011E10701000E4E6F0D0E9AEC33F001E1EC
:1059500029D100CD14FD01CD15FD02CD16FD03CDDD
:1059600017FDC7D7FA0EE66E7E0EE66E000E3AEC15
:1059700034F008E10701080E4E6F0D0E9AEC33F07B
:10598000B8E110D1F60EE66E7E0EE66E000E3AEC31
:1059900034F011E10701040E4E6F0D0E9AEC33F056
:1059A00001E100D104CD18FD05CD19FD06CD1AFD8C
:1059B00007CD1BFD9ED7F10EE66E7E0EE66E000E45
:1059C0003AEC34F008E107010C0E4E6F0D0E9AEC24
:1059D00033F08FE1E7D0EC0EE66E7E0EE66E000E41
:1059E0003AEC34F009E10701100E4E6F0D0E9AECFF
:1059F00033F001E07ED7D6D0E80EE66E7E0EE66E7E
:105A0000000E3AEC34F073E10D01200E336F040EFA
:105A1000346F386B0C0E385D44E2AEEC34F025E0A8
:105A2000CAEC33F0EFCF00F0300E005C04E3AEECD4
:105A300034F039081AE2CAEC33F0EFCF01F0410E2E
:105A4000015C04E3AEEC34F046080FE2CAEC33F03C
:105A5000EFCF02F0610E025C04E3AEEC34F06608B6
:105A600004E2332B000E3423D8D7AEEC34F00AE135
:105A70000C0E385D16E23851AEEC33F0300EEF6E9E
:105A8000382BF6D7CAEC33F0332B000E3423EF500B
:105A9000E66E3851AEEC33F0E552E750EF6E382B3E
:105AA000B9D70D01386B060E385D01E322D73851A6
