:020000040000fa
:080000000002040000000000f2
:020000040000fa
:10040000efbd22000eaf24000e01880000000000a6
:100410000c00070020d82c00010020000f0007006e
:10042000000020000000e000020032000000020096
:1004300000000000fed50200000000000040da00cd
:100440000000fe0040a824000000e000020032008e
:10045000002020009001880000000600a102880012
:10046000800078000000eb001a003700e2804000b6
:1004700054a0b4009101ba00e280400054a0b4003e
:100480009102ba00e280400054a0b4000002eb00e8
:10049000472bde00f507b200a6018800602ce100c2
:1004a00008003a000049eb000201e80002003900b0
:1004b0003420ec0002f0a0008301e900f9ff3e00c7
:1004c000040037006128e100010032000082eb00e7
:1004d000040007001101ba000200e000e3ff3a0047
:1004e0000000060004d0a300e20f49001c00390000
:1004f000810278003549ba000201e80002003900a3
:100500003420ec0002f0a0008301e9000f0032006b
:100510002549ba000201e800020039003420ec004d
:1005200002f0a0008301e900080032000400e000ae
:100530000600320015c9ba000201e80002003900c5
:100540003420ec0002f0a0008301e9008180e80083
:1005500054a0b4000300e000e2ff3a0000000600ef
:100560009102ba00055978008301e900f7ff3200d3
:10057000c82ade00055978008301e900f3ff320044
:100580000400e000f1ff320011d9ba00eeff37009d
:100590006cc5040000000000b8c3040000000000a7
:1005a00094c3040000000000f0e304000000000019
:1005b00080e3040000000000cce304000000000021
:1005c000c6bf040000000000b2be0400000000002e
:1005d00016bf04000000000006be0400000000007a
:1005e0003ee204000000000018e1040000000000ea
:1005f000fee00400000000001af504000000000006
:10060000e8f40400000000001edc0400000000000c
:100610009aee04000000000068ee040000000000f4
:100620000040da000000fe00020ab900001bb90019
:100630000200b80081004200810043000000060073
:10064000889fbe008004780090c280000000e00017
:1006500003003a00470007000000e0000a003500f0
:1006600090c280000900e00002003a000004780017
:100670000600370000047800090040003d00070034
:100680000000e00001003d000084eb00080078005d
:100690004f04be00000006000a00fa008001780046
:1006a000e20f500028003e00a0c28000e10f500081
:1006b00008003200802320000000e0000500320026
:1006c00004232000252320004623200080017800f9
:1006d00004003700042220002522200046222000aa
:1006e00083222000144090000004e0000400350044
:1006f0008009eb00144090000074a00010429800a4
:10070000154090000028a30003003a001540900017
:100710000024a000904298008001eb000700370001
:10072000154090000008a300fdff320063c0780070
:100730000000fb00000b78008301e800828f51006d
:10074000f7ff3a000800370030002000b0bf9f00dc
:10075000c3bf9f00d1bf9f00e2bf9f006a805700c8
:1007600000c0da006fb99700020078000080fa003c
:1007700000000600800078000000e00004003a005d
:100780006085210090c288000101780006003700d2
:100790000081eb00e0bd2200808f500002003e008f
:1007a00091c288000001eb00020078000000060002
:1007b0006022b800060220000000d0008180d20034
:1007c0000482d2008582d2000000a0000202520002
:1007d00083825a00030031000202420083824a00f1
:1007e0000000a1000603e900f3ff3a000000060044
:1007f000839f68000100e00002003d0060001000df
:10080000e08018000300e00002003d0060011100dc
:10081000e0811900e6ff07004f00e00002003b0006
:1008200060001000e0801800000006002800fa00b8
:10083000889fbe008a9fbe008c9fbe0003866b000f
:10084000170307000028a30064003a000128a30052
:1008500067003a000008a30062003a000108a30004
:1008600065003a001e009000be089000810640001e
:10087000ed3fb100f4805700ee019000111ab8006e
:100880008e099000311bb8009e099000311cb80001
:10089000511db800f485570046000700fe01900086
:1008a0003a0007008b85e8003e0007008e099000a3
:1008b00040000700ee019000340007008b85e8003f
:1008c000380007008e099000400007009e09900044
:1008d0001b18b800890440000a854800fe019000fa
:1008e000340007008b85e80038000700ee01900017
:1008f000300007008e0990001b18b80089044000e2
:100900000a8548000a98a30008003a000402420041
:1009100085824a0006034b0087834b0008044c0085
:1009200089844c000a054d008d06e900848272001e
:10093000850273004c3add0085027200010032002e
:1009400015002000443ade001400b2004538de00f5
:10095000cb45dd000b007000c540de00cb4ddd0057
:100960008b8070004549de00cb55dd000b01710026
:10097000c551de000d037800e202070003f0a1007c
:100980000cf0a70003f0a000d90237001b18b80034
:100990008502400006834800e0834b0060044c0061
:1009a000070037001b18b800060340008783480083
:1009b000faff37001b18b80087034000088448007e
:1009c000e0844c0060054d00000006001b18b800d4
:1009d0000804400089844800faff37000108a3009a
:1009e000c0023a005800be005801be00e3ff3700c5
:1009f0000008a300bb023a0009047800f9ff3700a1
:100a000081037800eb0207000001be006000b8001f
:100a10000478a30013003a006220e10015003e00b4
:100a20000d0039008301d1000281d3008180d30001
:100a30008301d1000281d3008180d3008301d100e2
:100a40000281d3008180d3000538b000c42add00c4
:100a5000f300b2008381720007f0a70003f0a0004a
:100a600000000600f3ff2700f2ff2f006110b9001d
:100a7000fbff370003ff2700f7ff37008f1fd10070
:100a8000e10207008f87e9000000e0000000060097
:100a9000801feb00dc0207008f87e9000000e00008
:100aa000000006001400fa00889fbe008a9fbe0066
:100ab0008c9fbe000005be000206be006800470015
:100ac0000c90be000a90be00f80207006400e1002e
:100ad0001a00320016003e006100e1001a003200e8
:100ae0006e049000fe0490000e0b90009e0b900090
:100af0006011b8009e0590000b38b100d5012000b0
:100b000082817100610164008703d1000683d300f4
:100b10008984d3000884d3008502e900f8ff3a00f5
:100b2000090307000df0a70001f0a00070023700d4
:100b3000f1ff2700f0ff2f006d02370001f82700ba
:100b400000002000f7ff37006000b800f5ff370015
:100b5000230307000509780000000600809feb00d2
:100b6000a90207008f87e9000000e00000000600ee
:100b70002800fa00889fbe008a9fbe008c9fbe009e
:100b800007067800878669000c003b0003047800a4
:100b90008704780008f0a10009f0a100840f50003c
:100ba000858f5800860f5900890f5c0003003300c1
:100bb0000cf0a20001003a000cf0a100380207007e
:100bc0006400e1005f003200780147006408e10042
:100bd000610032006c014700748557003200be008e
:100be0001201be003a04be001a05be001e039000aa
:100bf000be0a90008503530006003d000004fd007e
:100c00008104fd000205fd008305fd008703ea0065
:100c1000050378000df8a3000400320060041400fe
:100c2000e0841c0060051d00e0851d006022b80006
:100c30007d0320000d38e1008006eb000b00390039
:100c40004433dd00f300b200830173003900370044
:100c5000848272000d027800e10664008b85d10069
:100c60000a85d3008984d3000884d3008703e90070
:100c7000f7ff3b0008004000898048000a01490056
:100c80008b81490004003b0060001000e0801800e8
:100c900060011900e08119000358a3000900320027
:100ca0008d82720084827200610260008301d10033
:100cb0000281d3008180d3000080d3000603e800c6
:100cc0001b0037000348a30017003a000600e000ad
:100cd000170034000603e9000d00a30000004800df
:100ce0008180480002014900838149000348a30034
:100cf0000f003a000600e000090034000603e90096
:100d000000004000818048000201490083814900c1
:100d100001003a000003eb000348a300f5ff320096
:100d20006022b8000200370084827200618266008f
:100d3000f401070003f0a1000cf0a70003f0a000ed
:100d4000eb013700640147006408e10002003a004b
:100d50000df8a300e3013a003200be001201be000c
:100d6000e30137001400fa00889fbe008a9fbe008e
:100d70008c9fbe000004be000205be006800470054
:100d80000a90be000890be00480207000070a7004d
:100d90000bf0a1000bf8a30020003a009e09900080
:100da0000e099000fe0090006e0090009e029000e0
:100db0003443200084825200cd0132000a003c00fe
:100dc000b4fc2f000428e100140034008301d1009a
:100dd0000281d3008180d3000080d3008502e80027
:100de000faff3a00c2013700b40020000428e100f5
:100df00007003c00000040008180480002014900db
:100e0000838149008502e900faff3a00b801370002
:100e10000300280002002000010037006011b80024
:100e20006000b800b20137002800fa00889fbe00b9
:100e30008a9fbe008c9fbe0003866b00980107004e
:100e40006400e100440032006408e1004a0032001e
:100e50006100e100460032006108e1004900320013
:100e6000ec0647006000b8003d02be003d03be0036
:100e7000f48657006011b8003d04be003d05be0079
:100e80007d0320000b0037000000a0008d06e90064
:100e9000130032000402420085824a0006034b0020
:100ea00087834b0000004000818048000201490018
:100eb000838149000802520089825a000a035b00bc
:100ec0008b835b00f0ff3b000802420089824a00ee
:100ed0000a034b008b834b008d06e900edff3a00bf
:100ee0008482720086827200f707b20087827200e5
:100ef00001003200150020001e0490003e0b9000ff
:100f000006035400e63fb0000368a3000700320068
:100f10000000a7000500a0008301d1000281d300da
:100f20008180d3000080d3000603e8008301d10054
:100f30000281d3008180d3000080d3000002eb0047
:100f40000482d2006f01070003f0a1000cf0a7009b
:100f500003f0a00066013700640247006408e10066
:100f6000600132003400be003401be00f6ff3700dd
:100f70006108e1005b0132006011b8006000b80058
:100f8000f1ff370003ff270002002000fbff3700be
:100f9000889fbe00830478000300e0002c00350029
:100fa00003003c0000827000040271002600320041
:100fb00036432000c50020008383cf000a0039009b
:100fc0000541b1008283cf00070039000541b1001f
:100fd0008183cf00040039000541b1008083cf0038
:100fe000010039000541b10085c353006022b800fb
:100ff000120032000a003b0084827200610260002d
:101000008301d1000281d3008180d3000080d3000e
:101010000603e8008743e800f7ff3a0007003700bf
:10102000000040008180480002014900838149009e
:101030000603e9008743e900f9ff3a0031010700a0
:1010400009f0a70003f0a0004f04be000000060056
:1010500060001000e080180060011900e0811900b4
:10106000d3ff3b00033e2c00f7ff370007f0a20040
:10107000bffe3700881f7800000478005001be00d2
:101080004000be0004004000858048000601490081
:1010900087814900009cbe000294be000400e1006c
:1010a0000588e1000690e1000798e10002003100a8
:1010b000680044001008e8004f04780000000600b3
:1010c000f4874700889fbe008a9fbe008c9fbe00a9
:1010d0008e1f78000205be000004be00d4b79f003a
:1010e000e5b79f00f6b79f0087bf9f000000eb00a9
:1010f000c0b79f00b0b79f00a0b79f0090b79f00f8
:1011000080b79f000d042000bfb097004fb097003c
:10111000000140000000e0000f003d004f08de002d
:1011200000007100c0b79f009e00070001003d0055
:1011300012002000a100070001003d001200200065
:10114000a6000700b1000700b60007000f0040002e
:10115000c8ff0700220037004f08de0000067100bc
:10116000ccb79f008f00070001003d001200200057
:101170009200070001003d001200200097000700c8
:10118000a20007000fb297009fb297002fb39700fd
:10119000bfb39700a90007000000520081805a00e9
:1011a00002015b0083815b0080b79f0091b79f00c5
:1011b000a2b79f00b3b79f000007eb009f00070096
:1011c0000020e10001a8e10002b0e10003b8e10065
:1011d000010031001e0020000e005600c0b79f0025
:1011e0004fb297000400e000070035001000200017
:1011f000010020006011b8000804700089847000ac
:101200000a0571008b8571008d06e900beff3a006a
:101210000400e00003003d00820007000f004000d2
:1012200094ff07004fa897000000e00004003a0078
:101230000fb497009fb497002fb59700bfb59700e4
:10124000940007004f0778004f06be004f05be0010
:101250004f04be004f01b10000000600881f780057
:1012600018002000881f780095ff07008f87e9008d
:101270004f04780000000600801feb0090ff07007d
:101280008f87e90000000600889fbe008a9fbe008d
:101290008c1f78006e00070007003d0073000700f8
:1012a000e00f5b00e08f5b0007003d0032000700ad
:1012b0000006eb00040037003400070002003d0088
:1012c0002a0007001c00200072000700e3ff07004f
:1012d0000203be000002be000c00e000010032006c
:1012e000220007000400be000601be004f06780081
:1012f0004f05be004f04be0000000600889fbe00e0
:101300008a9fbe008c1f78005100070005003d0039
:1013100056000700e00f5b00e08f5b0006003d0019
:10132000040037001900070003003d006000b8000a
:101330006011b8001000070056000700ceff07003c
:101340000203be000002be000c00e00001003200fb
:10135000060007000400be000601be004f0678002c
:101360004f05be004f04be00000006006000b8003c
:101370006011b80000003700040250008582580058
:101380000603590087835900000006000006eb00a1
:10139000e00f5200e08f5a00e00f5b00e08f5b002f
:1013a000000006000180400090b79f000001eb00a4
:1013b0008fb097000100e0000000060002007000fe
:1013c00090b79f000180400080b79f000001eb00b4
:1013d000ffa897000100e000000006000200700076
:1013e00080b79f00018040006faa9700cf20de00e9
:1013f00001007000f0af9f000402420025000700ca
:101400004f18de000002720000000600e4af9f00eb
:101410000804440089844c000a054d008b854d006a
:10142000000006003fb29700cfb297005fb397006d
:10143000efb3970000fe2f00000006003fb09700ba
:10144000cfb097005fb19700efb1970000000600a2
:101450000205be000004be00e00f5000e08f5800ff
:10146000e00f5900e08f5900000006006000b8004e
:101470006011b80008045000898458000a0559001a
:101480008b8559001c002000e00f5200e08f5a00ad
:10149000000006000800be000a01be0000000600b1
:1014a000680447000294be000094be00fc0447009c
:1014b0008694be008494be00090078007b0007007b
:1014c000080078007900070099007800814f7000cb
:1014d0000b003b000800be00ce0007004f00b1002b
:1014e00003003700f3ff2700f2ff2f006110b9005f
:1014f0004f06be004f05be004f04be000080fa003c
:1015000000000600180020005700200008045300c7
:101510000d003d000600200097fc2f000740e10071
:101520001e00340084827200610260008301d100d9
:101530000281d3008180d3000080d3000804e8003a
:10154000f8ff3a00470020006104600005047400c1
:10155000040464000d00320061004000e080480097
:1015600060014900e081490003b8a500070032008e
:101570000603e8006538e10004003a008301d10069
:101580000281d3008180d3000080d300f87f200047
:101590000830e10003003500080378006000b8005f
:1015a0006011b8004433dd00f300b2008301730022
:1015b00000000600c70ade00f107b200f50fb20016
:1015c00008003200e1cf4200020032000170a000aa
:1015d00024000500810f700001003200040805009e
:1015e00044000500810f700002003a00140005005d
:1015f0008502e9000000400081c04800fcff3b007c
:101600000170a00024000500889fbe008a9fbe00d4
:101610008c9fbe000404be000605be00809fbe0075
:10162000829fbe0089000700040678000800be0003
:101630000a01be0085000700840678004f03be0043
:101640004f02be008d4f76007fb09700130033002d
:10165000f0ff2f008b8f6b0006003b000d0666002d
:101660000c00a7000a00370007f0a60010002000b9
:101670000a003700880f5200898f5a008a0f5b00da
:101680008b8f5b00030039001000200001003e003a
:101690000000200007f0a7000000ea004f06be008f
:1016a0004f05be004f04be00000006008000780019
:1016b0005002be005003be004439de00f700b20005
:1016c000f37f200003016100090032000218e100ed
:1016d00016003a0085017200830173008381730054
:1016e0000008200015003a004000200013003700d9
:1016f00085017200830173008381730005003a0045
:1017000004a8be0006a8be00100020000b00370091
:101710000201e9000402420085824a0006034b00f0
:1017200087834b000748a300f9ff32000740a00061
:1017300004a8be0006a8be0020002000800098007b
:101740009200980000000600810020006180550092
:101750000b003d000b00200061fe2f000100e100a6
:101760001d00340082817100610164008904d10090
:101770000884d3000000e800faff3a00710020005e
:101780006100640003007000020060000900320084
:1017900061044400e0844c000988a5000500320083
:1017a0008b05e8006808e10002003a008904d100d6
:1017b0000884d300f20f20000258e10005003d002c
:1017c000c75ddd00f907b200898075000800780068
:1017d000000006000bf827008b00780000000500d1
:1017e0000003be0073ff07006220e1000200320028
:1017f0000600be0005000500e507b100f107b200d4
:1018000004f023008480700007f0a70001f0a0001e
:1018100024000500e48240001078a3000700320095
:10182000640240001178a3003400be001401be0021
:10183000040032000330a700000006003500be009f
:101840001501be000330a0000000060005ff2700c0
:1018500005826100070032000428e1000100320027
:10186000240005000600070001003a0044000500be
:101870000408050002000700f9ff3a001400050003
:101880006f82610081027000850271008502720022
:1018900000000600889fbe008a9fbe008c9fbe008d
:1018a00000017800017921001100e0000b003a00ee
:1018b0004079210080bc880060bc8800a1bc880001
:1018c00071bc8800214090000004a000a040980056
:1018d000614090000004a000e0409800e700410053
:1018e000c208de00c20cdd0074bc80006d852100e2
:1018f000e0bd22000d05500022002000811f78006d
:10190000110009000205d80000067800cf00780019
:10191000c308dd00e48540008001eb0066852100fe
:101920000579210001003700010278002440900071
:101930000008a300020032000a003700110a7800f4
:1019400094007800214090000008a300fbff3200c3
:1019500009014200828f500002003900840f5100bb
:101960004600310094007800848f5000eeff3e0066
:10197000868f500002003900858f5000eaff390041
:1019800060bc8000800f52004f003a00858f5000ed
:101990004d003a008301e800e18f5100e2ff36007c
:1019a0008c8f5400040036008a8f540002003100ee
:1019b0000b04780012003700614ab8006151b90089
:1019c000b0ff2f000100200002005000838058006b
:1019d000800f5200818f5a00020035000904780000
:1019e000070037000d80540012be220002004000a4
:1019f000110009000a80d8000a80b90000047800ac
:101a0000080078000efb070080017800e10f40001d
:101a10002d00320060bc80000308780062bc8000aa
:101a200064004100a2409000808f5100020032000b
:101a30000104a000010037000104a1002141980029
:101a400008804100640050008009780060bc880074
:101a5000027921000208780061bc800021409000da
:101a60000004a000a0409800234090000004a100c2
:101a7000a041980002027800a7ff370072bc8800de
:101a8000828f50000900360092007800a078210073
:101a9000a24190000348780041bc880014097800f6
:101aa0008040eb0070bc80002140980070bc80003a
:101ab000000a7800244090000004a0002042980012
:101ac00064004200010037000000eb004f06be003a
:101ad0004f05be004f04be00000006006400500029
:101ae00070bc8800a04090000104a1002140980033
:101af00000000600889fbe008a9fbe000005780097
:101b0000e401500013001000c285de002340900065
:101b10000008a3000400320073bc8800234090003a
:101b20000004a100a04198000100780059ff0700bf
:101b3000000478000000e000170032008a0f500017
:101b40001500320060b8970008005000c284de0023
:101b5000898f550001003600890578004259dd0063
:101b60008a007800080078000f0007008a0f5400f0
:101b7000090031004248dd00000044008a0f500097
:101b8000050036000a0050000000440042bc8000fe
:101b900053bc80000288be00080078004f05be00dc
:101ba0004f04be00000006008001eb000200370079
:101bb00061f079008301e800828f5100fcff3a0058
:101bc00000000600800178000001780031407800b4
:101bd000005978000004e000fcff3a0003007800a0
:101be00000000600000378008002780002027800fe
:101bf0008001eb00080037000402e90063c07800b0
:101c0000805a78008301e8000004e00002003a00f6
:101c10008000eb0006003700828f5100f6ff3a008b
:101c2000fbff37000040eb0080f07a008100e80005
:101c3000848f5000fbff3a00060078000000060089
:101c40000000fa00cfb897006881570000202100fb
:101c5000fa0007000080fa00000006000c00fa00fd
:101c6000889fbe0000047800cfb09700f0ff2700e7
:101c7000d0bf9f008004eb0099bf9f0088bf9f00ea
:101c8000a8bf9f00200c2000b0bf9f0078815700a4
:101c900070805700e90007000fb8970009487800e6
:101ca0000fb8970008045000080078004f04be00e9
:101cb0000080fa0000000600889fbe000001780046
:101cc00001047800b10090000118a3003d0032002b
:101cd0000198a30003003a00180090000000e00003
:101ce00038003a000190a000310498008204780086
:101cf000f90fb200180090000000e00002003a0066
:101d000028009000000c7800ea8f540006003a008a
:101d1000380090000078a30003003a0088007800a3
:101d2000d0002000e4ff07009800900058009000c9
:101d3000808f50000b0032000100e8001004980072
:101d40001800780009587800000c780011c0b30022
:101d50002084210001487800ea8f540006003200f8
:101d60001900370088007800094078001900070042
:101d70008004780014003700380090000088a30029
:101d80001100320018019000a80090004800900057
:101d900041fa070098009000810f500004003200c3
:101da000380090000003b300300498008084eb00fa
:101db0000000eb001004980028009000000c780050
:101dc000010037008084eb00090078004f04be005a
:101dd000000006000200fa00889fbe00a0ff9f00de
:101de00001047800b1009000810478000904b20079
:101df000020032000000fb00360037000118a3008b
:101e000005003a000103b30031049800190498005a
:101e10000080eb002f003700580090000000e00029
:101e200006003a004800900012002000e6805700ab
:101e300019fa0700190498002400370028009000c0
:101e40000000e00008003a00e08321002004980030
:101e5000000c780020002000500498001004980026
:101e60000130a0003104980018019000a8009000f3
:101e70004800900008fa070028009000000c780045
:101e80000080eb001004980018007800aff897006d
:101e900001587800000c78002ff89700ea4f5000a6
:101ea0000a003a00380090000088a30007003200c2
:101eb00018019000a800900048009000f6f9070073
:101ec00019049800a8009000010c7800aff8970062
:101ed0000100fb004f04be000080fa000000060075
:101ee000889fbe008a1f7800804078000004e000d0
:101ef00021003d008040ea00d0c6b30080cf5000f2
:101f0000090034008104fb00420620001100090092
:101f10008204d80000017800010078004311dd0040
:101f20008afc20001f0037000100fb0083fc20001a
:101f300039003700a2002000110009000200d8007b
:101f400000017800010078004311dd000301410029
:101f50004300dd00030040003002be002003be004d
:101f600042209000d2209000f22190006221900047
:101f70002efa07002e003700d0c6b30080cf5000e5
:101f8000230034008104fb004206200011000900f8
:101f90008204d80000017800010078004311dd00c0
:101fa0008a0721000a014100a80020001100090051
:101fb0000800d8004300dd000a00400040229000e5
:101fc000d022900060239000f023900002889000bf
:101fd00092889000b28990002289900013fa07003d
:101fe000801f780001027800110009008804d800e1
:101ff0000102fd004f0078000402fb004322dd00d7
:102000000a0242005403be004402be00d8ff37005b
:102010000100fb0083072100eacf5000c5ff3c0010
:102020004300dd00030040005001be004000be0040
:102030004f0578004f04be00000006008f03b0007b
:10204000889fbe008a9fbe008c9fbe008e1f7800b6
:10205000e0b79f00f1b79f0082bf9f000000eb0038
:10206000a0b79f00e60437008001eb0050c2b30028
:1020700080cf5000090032000100fb00efb0970054
:102080000dff0700e10f4000dd043200afb0970004
:102090008100e800a1b79f00d90437007fb1970005
:1020a00092407800d0c2b30080cf50000c003200c4
:1020b00007003c006d40500080cf50000d00320002
:1020c0006b40400080cf500019003a000e003700ee
:1020d00000c3b30080cf500015003a000f00370056
:1020e0000330a0007fb297000402e800f4b79f001d
:1020f000eaff37000300a000ffb297008502e80066
:10210000f5b79f00e5ff37000310a0007fb69700ea
:102110000c06e800fcb79f00e0ff37000320a0009a
:102120007fb097000000e800f0b79f00dbff3700aa
:102130000318a300010032000300a1000338a3002c
:10214000010032000320a1000100fb0002fd2f006e
:1021500002004000e90f500010003e008000eb003c
:10216000c1b79f00020278004fb197006a10b90012
:10217000ffb297001501fb0000014100040141007e
:10218000c2b79f005500fb00f5b79f000400400058
:10219000e90f50000d003e00f3ff37000006eb0092
:1021a000ccb79f00a0c2b30080cf500007003a0018
:1021b0000fb89700c000780080bf9f00c1b79f0094
:1021c0007fb197000201e800f2b79f00e0c2b300c0
:1021d0007fb29700944f100021003a0083067800e8
:1021e0000de0a0008400e80064405000914f100012
:1021f00004003200f1b79f008002eb00b5b79f00ea
:10220000100037000fbe97004c0078008cbf9f0075
:10221000b0b79f00ffb097008180e800f1b79f0042
:10222000130037003fb297006a20b9000000410058
:1022300003004000b0b79f00ffb297008502e8009e
:10224000f5b79f007fb697001c01fb0003fd2f0030
:1022500003004100e90f5000f2ff36000400370090
:10226000830678000dc0a0000000eb00b0b79f000f
:102270007fb19700b2407800f2b79f00c17f9f0006
:10228000c0c6b30080cf50002700320014003c00cd
:102290006840500080cf50009d00320009003c0093
:1022a0006c40500080cf5000290032006b4040004d
:1022b00080cf5000720032000104e000560432006a
:1022c0008e00370060c6b30080cf50001c00320083
:1022d0006340400080cf500088003a008c003700f7
:1022e00030c7b30080cf50001c00320007003c0014
:1022f0006440500080cf5000130032000040e800de
:1023000080cf50007d003a001100370050c7b30065
:1023100080cf50007d0032006340400080cf5000ed
:1023200076003a000b003700000028000d48a3009b
:1023300001003a000001200080867600ccff3700c3
:102340000da0a000720037000d60a00070003700e3
:102350000d50a0000d70a0006d0037008fb99700e0
:102360004300780083bf9f00000478000000e00075
:1023700001003a00881c21008004eb0001003700b6
:102380008104e80089007800088044001004e0001f
:10239000fbff3a003fb297000400e0000300320068
:1023a000890f520001003100840478000007eb001f
:1023b000cfb29700898f5200010036000987520082
:1023c0004368de00e106600019003a000d0678005f
:1023d00009003700efb097000002200036fe07002a
:1023e000e10f4000030032002fb097000000e8002a
:1023f000a0b79f000c06e8008e0f5600f5ff3a00cc
:102400000087eb000a003700880078003100fb00ed
:1024100001047800efb0970027fe0700e10f4000ad
:1024200003003200afb097008100e800a1b79f0021
:102430000900e90080047800e10f4000f2ff3a0053
:102440000006eb000d00e0000a003a00ec03370044
:10245000efb097000002200017fe0700e10f4000d8
:10246000030032002fb197000201e800a2b79f00dd
:102470000c06e8008e0f5600f5ff3a00e003370027
:102480008fb997004300780083bf9f00cf80de00a4
:1024900001017800820178000205be000004be0040
:1024a0000203be000002be004822de00482edd000e
:1024b00004027600c47f9f000d48a3000a0032008a
:1024c0000404e00008003200e14f42000600320040
:1024d000d1fb2f0001804700044878001840980085
:1024e0002900200002003700d07f9f001900200043
:1024f000d2fb2f0002844700a6ff3700c3fb2f004a
:102500000384470019002000a2ff37000d0cb30020
:102510000070200000826600270232000dc8a30070
:102520000200320064002000b4b79f000d48a300f1
:10253000050032000fba97004401be004400be00ff
:1025400084bf9f00040037008fba97004500be008b
:1025500085bf9f002af90700e0af9f00f1af9f0001
:1025600082b79f0093b79f006022b8006033b80025
:102570006fa89700ffa897000fb197009fb1970031
:102580003ef907000000e0000a003d006fa8970038
:10259000ffa897000fb197009fb1970003f0a2002a
:1025a000e0af9f00f1af9f0082b79f0093b79f00fd
:1025b0003d00b3000000eb0080a79f006022b80040
:1025c0006033b8006fa89700ffa897000fb197007d
:1025d0009fb197002ef907000000e00034003200a0
:1025e0006fa89700ffa897000fb197009fb19700c1
:1025f0002cf9070003fc2f000381470054f9070062
:102600000fa097000000e9006300b900a2002000bd
:10261000110009000200d8008000fd0081a79f0082
:102620000100e00002003d000100e90080a79f00da
:102630000fa497000840ea0029fe07006faa970040
:10264000ffaa97000fb397009fb3970077f8070092
:10265000a0af9f00b1af9f00c2af9f00d3af9f005c
:102660006022b8000600200007ff230003f90700de
:102670000000e00002003d000800e9000b00370008
:102680006022b80006002000470224002fa897000f
:10269000bfa897004fa99700dfa997002ff907005f
:1026a0000000e000020035000800e80080a79f005d
:1026b0003fb29700f80f520057003c00d0c6b3005d
:1026c000804f5200290036000485fb00420620009e
:1026d000110009000285d80000017800010478008b
:1026e0004311dd008bfc20000b0141006022b8008b
:1026f0000600200007fe23000288900092889000c8
:10270000b28990002289900048f80700a9002000b3
:10271000809fbe00110009000984d80000047800e1
:102720004f00be004344dd000b04440048229000eb
:10273000d822900068239000f82390003bf807000f
:10274000801f780001027800110009000985d80077
:102750000102fd004f0078004322dd000b02420021
:102760005403be004402be001f0037000480fb007b
:1027700089fc2000ea4f520014003600a20020001d
:10278000110009000280d8000001780001047800df
:102790004311dd00090141006022b800060020005d
:1027a00007fe230042209000d2209000f2219000ea
:1027b000622190001df807004344dd000904440035
:1027c0003802be002803be00070037004300dd00ca
:1027d000090040006022b8000600200007fe230028
:1027e0005001be004000be0010f807000002be000d
:1027f0000203be006fa89700ffa897000fb19700d3
:102800009fb19700daf80700e0af9f00f1af9f009b
:1028100082b79f0093b79f000fa49700e90f540061
:1028200015003c006022b8006033b8006fa8970024
:10283000ffa897000fb197009fb1970094f8070089
:102840000000e000320032006fa89700ffa8970058
:102850000fb197009fb1970042f90700e00f5000b9
:10286000e08f5800e00f5900e08f590028003a002f
:10287000e10f5400260034000400200005002e0063
:10288000b6e02200170124002fa89700bfa89700e8
:102890004fa99700dfa9970078f807000000e00033
:1028a00002003d0073005400010037007200540024
:1028b00080a79f000fc0970089fd0700a0af9f0071
:1028c000b1af9f00c2af9f00d3af9f000002be0018
:1028d0000203be006fa89700ffa897000fb19700f2
:1028e0009fb1970050f907001ef907000205be00ce
:1028f0000004be006000b8006011b800a0a79f00ef
:10290000b1a79f00c2a79f00d3a79f002e0037004a
:102910006fa89700ffa897000fb197009fb197008d
:1029200010f907000205be000004be00e00f5000d1
:10293000e08f5800e00f5900e08f59000200350089
:1029400093f9070013003700100020000100200059
:102950006011b80008006000898060000a01610011
:102960008b8161008b03d1000a83d3008982d3005d
:102970000882d3000000720081807200020173009f
:102980008381730082f907000002be000203be00cb
:1029900077f807000002be000203be006fa8970090
:1029a000ffa897000fb197009fb19700aff90700fc
:1029b000a0a79f00b1a79f00c2a79f00d3a79f0019
:1029c0000000eb0080a79f0014c0b3008512210017
:1029d0000b0037000400fb004300dd000500400051
:1029e0005001be004000be000040e10001c8e1000f
:1029f00002d0e10003d8e100030039000442e800fe
:102a0000f44f5200f3ff3a00c47f9f000400fb0024
:102a1000bfb09700008040008fa0970001004000e9
:102a20004fb1970000075100bfb197000300e000cd
:102a3000010032000e07e9006380660001003200e9
:102a40000e07e9000d28a30026003200e180660091
:102a50000d18a3000c003200d00220000100e0009d
:102a600001003a000080e900efb0970092fc0700f7
:102a7000e10f4000180032002fb297000402e80076
:102a8000a4b79f00140037000100e00012003200dc
:102a9000efb097000002200087fc0700e10f400024
:102aa0000d003200afb297008502e800a5b79f0085
:102ab00009003700efb09700000320007efc0700fc
:102ac000e10f4000030032002fb697000c06e8002b
:102ad000acb79f000e07e9000e00e000f5ff3c00d8
:102ae0003d0037000d38a3000a0032000b0037000c
:102af000efb09700000220006ffc0700e10f4000dc
:102b0000030032002fb097000000e800a0b79f003c
:102b10000e07e9000e00e000f5ff3c00e1806600d2
:102b20000d18a3000c003200d00220000100e000cc
:102b300001003a000080e900efb097005efc07005a
:102b4000e10f400024003200afb097008100e800a0
:102b5000a1b79f00200037000100e0001e003200f6
:102b6000efb097000002200053fc0700e10f400087
:102b7000190032002fb197000201e800a2b79f00b0
:102b8000150037000000fb004300dd00811221002a
:102b9000010040003002be002003be000800be005d
:102ba0000a01be00adf90700a400200005002000c6
:102bb0006033b800b0f907000003b000efb0970031
:102bc0003dfc0700e10f400003003200afb1970069
:102bd0008301e800a3b79f004f7a97000440e90003
:102be000c07f9f00e14f4000e6ff3a000b00370036
:102bf000efb09700000320002ffc0700e10f40001a
:102c000003003200afb297008502e800a5b79f002d
:102c10000fa097000000e90080a79f000fa0970079
:102c20000000e000f2ff3c003fb6970020c1b30077
:102c3000f20f560001003c006fe09700c07f9f003c
:102c4000cf7897000100fb003fb1970000005100d2
:102c5000e0a79f000104e00008003200efb09700f9
:102c6000e002200014fc0700e10f400003003200e6
:102c7000afb197008301e800a3b79f004f7897009a
:102c800097fc07000002be000203be002fa09700c1
:102c9000bfa097004fa19700dfa19700e3f60700c0
:102ca00030f807001e0037000000fb004300dd0085
:102cb0008c1221000c0040003002be002003be0038
:102cc0000800be000a01be0064f90700a40020004d
:102cd000050020006033b80067f907000003b0006a
:102ce000efb09700f4fb0700e10f40000300320053
:102cf0002fb297000402e800a4b79f00cf7a970094
:102d00000500fb004300dd000c0040003002be0067
:102d10002003be000800be000a01be0056f90700ed
:102d20000205be000004be004f7e97000c40e90083
:102d3000c07f9f00e14f4000dbff3a000006eb0040
:102d400009003700efb0970000032000dafb07000e
:102d5000e10f4000030032002fb097000000e800b0
:102d6000a0b79f000c06e800efa09700810f560067
:102d7000f4ff3a000d38a300a10132000e00e0007c
:102d80009f0134000006eb00efb097000002200026
:102d9000c9fb0700e10f4000030032002fb197008c
:102da0000201e800a2b79f000c06e8008e0f560053
:102db00093013200f4ff37000d007800000cb200e0
:102dc00028003a000d00e00005003d008fb9970093
:102dd0004305be004304be0083bf9f0014003700bc
:102de0000d48a3000b0032000fba97004400be004c
:102df00084bf9f004f89de00cf91de000002be003d
:102e000002037800820378000605be000404be00b9
:102e1000070037008fba97004500780085bf9f00f4
:102e200000047800cfc4de00090578008a05780028
:102e3000e00f5400e08f5c00e00f5d00e08f5d006c
:102e400020003d003d00b3006000b8006011b800f4
:102e500008045000898458000a0559008b855900e0
:102e6000180037000d00e00005003d000fbe970080
:102e70004c05be004c04be008cbf9f001100370003
:102e80000d48a300080032008fba97004500be002d
:102e900085bf9f0004017800840178000205be0010
:102ea0000004be00070037000fbe97004c007800fa
:102eb0008cbf9f0000047800090020000a00200059
:102ec0000b0020003fb097000000e00007003a0030
:102ed000e00f5400e08f5c00e00f5d00e08f5d00cc
:102ee00002003a0011002000b1b79f000d077800e2
:102ef0000e0cb20000042000800f57002f0032009b
:102f000003003c000e00e000070032003f003700e5
:102f100000082000800f570014003200000c200031
:102f2000800f570039003a0014c0b3008512210009
:102f30000b0037000400fb004300dd0005004000eb
:102f40005001be004000be000040e10001c8e100a9
:102f500002d0e10003d8e1002b0039000442e80070
:102f6000f44f5200f3ff3a00270037000001200021
:102f7000010020006011b80014c0b3000040e1005f
:102f800001c8e10002d0e10003d8e1001e003900d1
:102f9000450020000000d0008180d2000281d200d4
:102fa0008381d2008502e900faff3a000442e8007a
:102fb000f04f5200f1ff3a0013003700800020006c
:102fc000010020006011b80014c0b3000040e1000f
:102fd00001c8e10002d0e10003d8e1000a00390095
:102fe0003c0020000000d0008180d2000281d2008d
:102ff0008381d2000c06e900faff3a000442e8009f
:10300000f54f5200f1ff3a00c47f9f00cf78970040
:103010000100fb003fb19700820f500002003d000d
:10302000c27f9f0004003700bfb19700808f51001e
:1030300001003d00b0b79f004fb297000400e000d0
:103040000400320063806600020032000402e900de
:10305000c4b79f000de8a3000b003200cfb2970069
:103060003fb697008c8f520003003c000000eb003d
:10307000c0b79f0004003700cfb097003fb1970062
:1030800082805000c1b79f00cf7997000300fb00fa
:103090000002eb0094a79f00cfb29700808f5200f0
:1030a000020034000080520090a79f000d28a3006a
:1030b00037003200e18066000d18a3000c003200da
:1030c000d00220000100e00001003a000080e90089
:1030d000efb09700f8fa0700e10f40000e00320051
:1030e0002fb697000c06e800acb79f000a00370027
:1030f0000100e00008003200efb09700000220005d
:10310000edfa0700e10f4000030032002fb09700f6
:103110000000e800a0b79f009fa097000100e0001a
:103120000f0032000006eb00efb097000003200014
:10313000e1fa0700e10f4000030032002fb19700d1
:103140000201e800a2b79f000c06e8009fa19700cb
:10315000830f5600f4ff3a000002eb0094a79f0093
:10316000bfb29700c328dd0000122100808040001c
:1031700091af9f004228dd006400500080af9f00a7
:103180006328b900f0a79f00630650008200370053
:103190001fa697000c00e000110032006880660056
:1031a0000f003a0000067800efb097000002200000
:1031b000c1fa0700e10f4000030032002fb0970072
:1031c0000000e800a0b79f000c06e8009fa0970051
:1031d000810f5600f4ff3a000001eb0092a79f0018
:1031e000e18066000d18a3000c003200d002200020
:1031f0000100e00001003a000080e900efb0970014
:10320000adfa0700e10f4000d5ff3200afb19700e3
:103210008301e800a3b79f00d1ff37000100e00061
:10322000cfff3200efb0970000022000a2fa0700a3
:10323000e10f4000caff32002fb297000402e800fd
:10324000a4b79f00c6ff370000042000800f57007e
:103250003000320003003c000e00e00007003200a6
:103260003d00370000082000800f57001100320099
:10327000000c2000800f570037003a001fa897006d
:103280003002be002003be000800be000a01be00de
:10329000f2f70700a4002000050020006033b8000a
:1032a000f5f7070004c3b30004424000c47f9f0049
:1032b00029003700f51c2100d5b79f000d58a30049
:1032c00002003a00001e2100d0b79f001400200029
:1032d000050020006033b8008fa897008100e90046
:1032e000050033000402d0008582d2000683d2009c
:1032f0008783d200f9ff37000800be000a01be0034
:10330000d6f707006f0060005fb197006240780059
:103310001000370014002000050020006033b800c2
:103320008c0178008301e900050033000402d0001d
:103330008582d2000683d2008783d200f9ff37004e
:103340000800be000a01be00c4f707006740600025
:103350000043b000c07f9f004f7a97000400fb003d
:10336000efb0970054fa0700e10f4000030032006d
:10337000afb297008502e800a5b79f001fa897008d
:103380006800500090af9f008fa89700e480500025
:1033900081af9f0063065600d0ff2f003fb197001a
:1033a0000090b900ffa19700008041006300500029
:1033b000800f5600a4ff3a000d38a3001000320021
:1033c0001fa297000400e0000d0034000006eb008f
:1033d000efb097000002200037fa0700e10f40002d
:1033e00003003200afb297008502e800a5b79f0046
:1033f0000c06e8001fa09700800f5600f4ff3a006b
:103400007fb19700b2407800f2b79f00c17f9f0064
:103410000104e00014fb3a002fb097004f0778003a
:103420004f06be004f05be004f04be008f03b10023
:043430000000060092
:020000040000fa
:020000040005f5
:0457f400ffff0000b3
:020000040000fa
:020000040005f5
:0457f800ae1b0000e4
:020000040000fa
:020000040005f5
:0457fc007f3f0000eb
:020000040000fa
:10000800100300001003000010030000100300009c
:10001800100300001003000010030000100300008c
:1000280006d40000100300001003000010030000b5
:10003800100300001003000010030000100300006c
:10004800100300001003000010030000100300005c
:10005800100300001003000010030000100300004c
:10006800100300001003000010030000e6d3000096
:10007800100300001003000010030000100300002c
:1000880010030000100300001003000062d40000f9
:10009800100300001003000010030000100300000c
:1000a80010030000100300001003000010030000fc
:1000b80010030000100300001003000010030000ec
:1000c80010030000100300001003000010030000dc
:1000d80010030000100300001003000010030000cc
:1000e80010030000100300001003000010030000bc
:1000f80010030000100300001003000010030000ac
:10010800100300001003000010030000100300009b
:10011800100300001003000010030000100300008b
:10012800100300001003000010030000100300007b
:10013800100300001003000010030000100300006b
:10014800100300001003000010030000100300005b
:10015800100300001003000010030000100300004b
:10016800100300001003000010030000100300003b
:10017800100300001003000084a900001003000011
:10018800100300001003000010030000100300001b
:10019800100300001003000010030000100300000b
:1001a80010030000100300001003000010030000fb
:1001b8007a6d000010030000100300001003000017
:1001c80010030000100300001003000010030000db
:1001d80010030000100300001003000010030000cb
:1001e80010030000100300001003000010030000bb
:0801f8001003000010030000d9
:020000040000fa
:10020800100300001003000010030000100300009a
:10021800100300001003000010030000100300008a
:1002280006d40000100300001003000010030000b3
:10023800100300001003000010030000100300006a
:10024800100300001003000010030000100300005a
:10025800100300001003000010030000100300004a
:10026800100300001003000010030000e6d3000094
:10027800100300001003000010030000100300002a
:1002880010030000100300001003000062d40000f7
:10029800100300001003000010030000100300000a
:1002a80010030000100300001003000010030000fa
:1002b80010030000100300001003000010030000ea
:1002c80010030000100300001003000010030000da
:1002d80010030000100300001003000010030000ca
:1002e80010030000100300001003000010030000ba
:1002f80010030000100300001003000010030000aa
:100308001003000010030000100300001003000099
:100318001003000010030000100300001003000089
:100328001003000010030000100300001003000079
:100338001003000010030000100300001003000069
:100348001003000010030000100300001003000059
:100358001003000010030000100300001003000049
:100368001003000010030000100300001003000039
:10037800100300001003000084a90000100300000f
:100388001003000010030000100300001003000019
:100398001003000010030000100300001003000009
:1003a80010030000100300001003000010030000f9
:1003b8007a6d000010030000100300001003000015
:1003c80010030000100300001003000010030000d9
:1003d80010030000100300001003000010030000c9
:1003e80010030000100300001003000010030000b9
:0803f8001003000010030000d7
:020000040000fa
:103434000000000000000000200000000000000068
:1034440043000000000000004000000000000000f5
:10345400400800000000000083000000000000009d
:10346400610800000000000080100000000000005f
:103474008210000000000000840000000000000032
:10348400a210000000000000a208000000000000dc
:10349400a010000000000000a310000000000000c5
:1034a400a018000000000000c2100000000000008e
:1034b400e700000000000000c4100000000000004d
:1034c400e020000000000000e418000000000000fc
:1034d40003190000000000000321000000000000a8
:1034e4002419000000000000242100000000000056
:1034f4004a01000000000000c2500000000000006b
:103504002521000000000000403100000000000000
:10351400252900000000000082780000000000005f
:1035240048190000000000004229000000000000cb
:103534006529000000000000453100000000000083
:103544008d0100000000000083390000000000002d
:1035540085310000000000008431000000000000fc
:10356400a631000000000000a0410000000000009f
:10357400c241000000000000c63900000000000045
:10358400e8290000000000003102000000000000f3
:10359400300a000000000000073a000000000000ac
:1035a400e2c0000000000000083a00000000000033
:1035b400034a000000000000074200000000000071
:1035c4002152000000000000263a00000000000024
:1035d400015a000000000000284200000000000022
:1035e4006e1a0000000000009502000000000000b8
:1035f4004942000000000000406a00000000000092
:103604004652000000000000805a00000000000044
:103614008a4200000000000024e9000000000000cd
:103624008c4a000000000000894a000000000000ed
:10363400f702000000000000a36200000000000088
:103644008952000000000000ab520000000000009e
:10365400aa52000000000000cb520000000000004d
:103664000e3b000000000000eb5a000000000000c8
:10367400ca620000000000007b030000000000009c
:103684004d3b0000000000000b5b00000000000048
:103694000c5b0000000000000c6300000000000050
:1036a4000373000000000000008b00000000000015
:1036b4000a6b000000000000296300000000000005
:1036c40040730000000000002c63000000000000b4
:1036d4007623000000000000bf030000000000008b
:1036e40074330000000000002c7300000000000090
:1036f400df030000000000009f2300000000000022
:10370400409b000000000000ff03000000000000d8
:1037140082830000000000006c73000000000000c1
:103724001d04000000000000cb5300000000000056
:10373400897b0000000000008d6b00000000000089
:10374400ff1b0000000000008e6b00000000000062
:103754003f04000000000000ac6b0000000000000b
:1037640081a30000000000005c14000000000000c1
:10377400803c000000000000aaf2000000000000ed
:10378400c48b000000000000d173000000000000a2
:10379400c0ab000000000000e98b00000000000046
:1037a400ef7b000000000000029400000000000015
:1037b4005a3c0000000000000f84000000000000dc
:1037c400ee8b0000000000003174000000000000d7
:1037d4005164000000000000bf1c00000000000055
:1037e4003084000000000000984c0000000000003d
:1037f400517c000000000000609c000000000000fc
:103804002d9400000000000020bc00000000000017
:10381400b65400000000000062ac0000000000008c
:10382400926c00000000000064a40000000000008e
:103834007284000000000000689c0000000000008a
:10384400d554000000000000966c00000000000049
:10385400aa84000000000000709400000000000032
:103864006f9400000000000086a400000000000027
:10387400928c000000000000929400000000000000
:103884001f450000000000009394000000000000a9
:10389400a2bc000000000000d4940000000000005e
:1038a400c0d40000000000000995000000000000e2
:1038b4002f7d000000000000c0dc000000000000bc
:1038c40004bd000000000000736d00000000000053
:1038d400f49400000000000007bd00000000000098
:1038e40000cd00000000000013a50000000000004f
:1038f40022c500000000000051fc00000000000090
:1039040013a500000000000012a500000000000044
:1039140014a50000000000007f5d0000000000000e
:1039240040c5000000000000349d000000000000bd
:103934007c750000000000007a8500000000000093
:1039440051b50000000000004bc50000000000005d
:1039540055ad00000000000075a500000000000047
:103964007895000000000000999500000000000018
:103974006ebd000000000000ed9500000000000096
:10398400df6d00000000000081e500000000000081
:10399400e6b500000000000095b50000000000003e
:1039a400657e000000000000e0c50000000000008b
:1039b40097ad00000000000060fd00000000000062
:1039c400b6b5000000000000b4bd00000000000017
:1039d40080fd000000000000c7d5000000000000ca
:1039e4003496000000000000e3dd00000000000049
:1039f400d8b500000000000020e600000000000030
:103a0400edd5000000000000e0fd00000000000013
:103a140018be0000000000005f8e000000000000df
:103a24003ca600000000000022ee000000000000a0
:103a340096fd00000000000018c600000000000011
:103a44002bde0000000000006cbe0000000000003f
:103a540021fe0000000000003bb600000000000052
:103a640036c600000000000088be00000000000010
:103a740059c6000000000000a0e60000000000009d
:103a8400a5d600000000000051e600000000000080
:103a9400bfa600000000000074e600000000000063
:103aa40096de000000000000a2fe000000000000fe
:103ab400bbce000000000000bace000000000000f1
:103ac400f4c6000000000000f9be00000000000081
:103ad400bad6000000000000c3fe00000000000091
:103ae400b8de000000000000c6fe00000000000078
:103af400ffb600000000000000ff0000000000000e
:103b0400e8fe0000000000007afe00000000000053
:103b1400dbde0000000000000cff000000000000dd
:103b240040ff0000000000005acf00000000000029
:103b34003fc700000000000011ff0000000000006b
:103b440064ff0000000000001cdf00000000000013
:103b54005dcf00000000000018ef0000000000002e
:103b640080ff0000000000003aef000000000000a9
:103b74003ce70000000000007fcf000000000000d0
:103b84005def00000000000057ff0000000000008f
:103b9400aaff0000000000007fd700000000000022
:103ba40091ef00000000000055ff0000000000003d
:103bb40090ff000000000000adff000000000000c6
:103bc40093ff0000000000009eef000000000000d2
:103bd4009aff000000000000bdf700000000000094
:103be400d8f7000000000000d6ff0000000000002d
:103bf400dcff000000000000ffff000000000000e8
:103c0400657e000000000000803c00000000000011
:103c1400a2fe00000000000055ad000000000000fe
:103c2400c21000000000000000a00000000000001e
:103c3400000000003a9b0000000100001a9a0000f6
:103c4400000000002b0000003900000030000000dc
:103c5400164400000000000016d40000000000001c
:103c6400166400000100000016f4000001000000ca
:103c74001684000002000000161400000300000077
:103c840016a4000003000000163400000400000025
:103c940016c40000040000001654000005000000d3
:103ca40016e4000005000000167400000600000081
:103cb400160400000700000016940000070000002e
:103cc40016240000080000000000000000000000ae
:103cd40000000000000000000000000000000000e0
:103ce40000000000000000000000000000000000d0
:103cf40000000000000000000000000000000000c0
:103d040000000000000000000000000000000000af
:103d1400000000000000000000000000000000009f
:103d2400000000000000000000000000000000008f
:103d34000e000000000e0000000000000e00000055
:103d4400000e0000000000000e000000000e000045
:103d5400000000000e000000fcff000003fc000057
:103d6400ff030000fcff0000030000000e00000041
:103d7400000e0000000000000e000000000e000015
:103d8400000000000e000000000e00000000000013
:103d9400000000000000000000000000000000001f
:103da400000000000000000000000000000000000f
:103db40000000000000000000000000000000000ff
:103dc40000000000000000000000000000000000ef
:103dd40000000000000000000000000000000000df
:103de40000000000000000000000000000000000cf
:103df40000000000000000000000000000000000bf
:103e040000000000000000000000000000000000ae
:103e1400000000000000000000000000000000009e
:103e2400000000000000000000000000000000008e
:103e3400000000000000000000000000000000007e
:103e4400000000000000000000000000000000006e
:103e5400000000000000000000000000000000005e
:103e6400000000000000000000000000000000004e
:103e7400000000000000000000000000000000003e
:103e8400000000000000000000000000000000002e
:103e9400000000000000000000000000000000001e
:103ea400000000000000000000000000000000000e
:103eb4003c000000003c0000000000001e00000068
:103ec400001e0000000000001e000000000e0000a4
:103ed400000000000e000000000e000000000000c2
:103ee40007000000000700000000000000000000c0
:103ef40000000000000000000000000000000000be
:103f040000000000000000000000000000000000ad
:103f1400000000000000000000000000000000009d
:103f2400000000000000000000000000000000008d
:103f3400000000000000000000000000000000007d
:103f4400000000000000000000000000000000006d
:103f5400000000000000000000000000000000005d
:103f6400000000000000000000000000000000004d
:103f7400000000000000000000000000000000003d
:103f8400000000000000000000000000000000002d
:103f9400000000000000000000000000000000001d
:103fa400000000000000000000e00000ff0100002d
:103fb400e0ff000001e00000ff010000000000003d
:103fc40000000000000000000000000000000000ed
:103fd40000000000000000000000000000000000dd
:103fe40000000000000000000000000000000000cd
:103ff40000000000000000000000000000000000bd
:1040040000000000000000000000000000000000ac
:10401400000000000000000000000000000000009c
:10402400000000000000000000000000000000008c
:10403400000000000000000000000000000000007c
:10404400000000000000000000000000000000006c
:10405400000000000000000000000000000000005c
:10406400000000000000000000000000000000004c
:10407400000000000000000000000000000000003c
:10408400000000000000000000000000000000002c
:10409400000000000000000000000000000000001c
:1040a400000000000000000000000000000000000c
:1040b40000000000000000000000000000000000fc
:1040c40000000000000000000000000000000000ec
:1040d40000000000000000000000000000000000dc
:1040e40000000000000000000000000000000000cc
:1040f4000e000000001f0000000000001f00000070
:10410400001f0000000000001f000000000e00005f
:10411400000000000000000000000000000000009b
:10412400000000000000000000000000000000008b
:10413400000000000000000000000000000000007b
:10414400000000000000000000000000000000006b
:10415400000000000000000000000000000000005b
:10416400000000000000000000000000000000004b
:10417400000000000000000000000000000000003b
:10418400000000000000000000000000000000002b
:104194000080000003000000c001000000c0000017
:1041a40001000000e001000000e000000000000049
:1041b400e00000000070000000000000700000003b
:1041c400003800000000000038000000003c00003f
:1041d400000000001c000000001c000000000000a3
:1041e4000e000000000e0000000000000f000000a0
:1041f400000700000000000007000000800300002a
:104204000080000003000000c001000000c00000a6
:1042140001000000e001000000e0000000000000d8
:10422400e00000000070000000000000000000003a
:10423400000000000000000000000000000000007a
:10424400000000000000000000000000000000006a
:10425400000000000000000000000000000000005a
:10426400000000000000000000000000000000004a
:10427400000000000000000000000000000000003a
:10428400000000000000000000000000000000002a
:10429400000000000000000000000000000000001a
:1042a400000000000000000000000000000000000a
:1042b400003f000000c000007f000000c0ff0000bd
:1042c40000e00000e1010000f0c000000370000005
:1042d4008003000070800000037800008007000065
:1042e4007880000007380000000700003800000054
:1042f40007380000000700003800000007380000fd
:104304000007000038000000073800000007000024
:10431400380000000778000080070000708000006b
:1043240007700000800300007080000003f00000ac
:10433400c0030000e0e1000001c00000ff00000035
:10434400807f0000000000003f000000000000002b
:104354000000000000000000000000000000000059
:104364000000000000000000000000000000000049
:104374000000000000000000000000000000000039
:104384000000000000000000000000000000000029
:104394000000000000000000000000000000000019
:1043a4000000000000000000000000000000000009
:1043b40000000000000000000000000000000000f9
:1043c40000000000000000000000000000000000e9
:1043d400001c0000000000001f000000801f0000ff
:1043e40000c000001f000000e01d0000007000007d
:1043f4001c000000201c0000000000001c00000045
:10440400001c0000000000001c000000001c000054
:10441400000000001c000000001c00000000000060
:104424001c000000001c0000000000001c00000034
:10443400001c0000000000001c000000001c000024
:10444400000000001c000000001c00000000000030
:104454001c000000001c0000000000001c00000004
:10446400001c0000000000001c0000000000000010
:104474000000000000000000000000000000000038
:104484000000000000000000000000000000000028
:104494000000000000000000000000000000000018
:1044a4000000000000000000000000000000000008
:1044b40000000000000000000000000000000000f8
:1044c40000000000000000000000000000000000e8
:1044d40000000000000000000000000000000000d8
:1044e40000000000000000000000000000000000c8
:1044f400803f000000e00000ff000000f0ff00002b
:1045040001700000e001000020c000000300000072
:10451400800300000080000003000000800300000e
:104524000080000003000000c003000000c0000081
:1045340001000000e001000000e0000000000000b5
:104544007000000000780000000000003c00000043
:10455400001e0000000000000f00000080070000a3
:1045640000c0000003000000c001000000e00000e3
:10457400000000007000000000f80000ff070000c9
:10458400f8ff000007f80000ff070000000000002b
:104594000000000000000000000000000000000017
:1045a4000000000000000000000000000000000007
:1045b40000000000000000000000000000000000f7
:1045c40000000000000000000000000000000000e7
:1045d40000000000000000000000000000000000d7
:1045e40000000000000000000000000000000000c7
:1045f40000000000000000000000000000000000b7
:1046040000000000000000000000000000000000a6
:10461400c03f000000f00000ff000000fcff0000ad
:1046240001380000e001000000c0000003000000a9
:1046340080030000008000000300000080030000ed
:1046440000c0000003000000e001000000f00000d2
:1046540000c000003f000000c03f000000c0000098
:10466400ff00000000e000000300000080030000e1
:1046740000800000070000000007000000000000a8
:104684000700000000070000008000000700000091
:10469400800300000ce0000003fc0000ff010000a8
:1046a400fcff000000f000001f00000000000000fc
:1046b40000000000000000000000000000000000f6
:1046c40000000000000000000000000000000000e6
:1046d40000000000000000000000000000000000d6
:1046e40000000000000000000000000000000000c6
:1046f40000000000000000000000000000000000b6
:1047040000000000000000000000000000000000a5
:104714000000000000000000000000000000000095
:104724000000000000000000000000000000000085
:1047340000f0000000000000f000000000f800009d
:1047440000000000fc00000000ec0000000000007d
:10475400ee00000000e7000000000000e700000099
:1047640080e3000000c00000e1000000c0e10000a0
:1047740000e00000e000000070e0000000780000ad
:10478400e000000038e00000001c0000e000000031
:104794000ee0000000fe0000ff0f0000feff00001e
:1047a4000ffe0000ff0f000000e00000000000000a
:1047b400e000000000e0000000000000e000000055
:1047c40000e0000000000000e00000000000000025
:1047d40000000000000000000000000000000000d5
:1047e40000000000000000000000000000000000c5
:1047f40000000000000000000000000000000000b5
:1048040000000000000000000000000000000000a4
:104814000000000000000000000000000000000094
:104824000000000000000000000000000000000084
:104834000000000000000000000000000000000074
:104844000000000000000000000000000000000064
:10485400e0ff000001e00000ff010000e0ff0000b5
:1048640001e0000000000000e000000000e00000a3
:104874000000000070000000007000000000000054
:10488400700000000070000000000000f03f000015
:1048940000f00000ff000000e0ff00000100000045
:1048a400e003000000800000030000008007000017
:1048b40000000000070000000007000000000000e6
:1048c400070000000007000000800000070000004f
:1048d4008003000018e0000003f80000ff0100005e
:1048e400f8ff000000e000001f00000000000000ce
:1048f40000000000000000000000000000000000b4
:1049040000000000000000000000000000000000a3
:104914000000000000000000000000000000000093
:104924000000000000000000000000000000000083
:104934000000000000000000000000000000000073
:104944000000000000000000000000000000000063
:104954000000000000000000000000000000000053
:104964000000000000000000000000000000000043
:1049740000fc000001000000ff01000080ff0000b7
:1049840001c0000003000000e001000000e000009e
:1049940000000000f00000000070000000000000b3
:1049a400700000000078000000000000787e000025
:1049b40000380000ff010000b8ff000001f800000b
:1049c400c0030000788000000778000000070000a2
:1049d400380000000738000000070000380000001d
:1049e40007700000000700007080000007f000005e
:1049f40080030000e0c1000003c00000ff010000cc
:104a040080ff0000000000003f00000000000000e4
:104a14000000000000000000000000000000000092
:104a24000000000000000000000000000000000082
:104a34000000000000000000000000000000000072
:104a44000000000000000000000000000000000062
:104a54000000000000000000000000000000000052
:104a64000000000000000000000000000000000042
:104a74000000000000000000000000000000000032
:104a84000000000000000000000000000000000022
:104a9400f8ff000007f80000ff070000f8ff00001f
:104aa40007000000800700000080000003000000f1
:104ab4008003000000c0000001000000c0010000ed
:104ac40000e0000001000000e000000000e0000041
:104ad40000000000700000000070000000000000f2
:104ae4007800000000380000000000003c000000d6
:104af400001c0000000000001c000000000e00006c
:104b0400000000000e000000000f00000000000084
:104b14000700000080070000008000000300000080
:104b24008003000000c0000003000000000000003b
:104b34000000000000000000000000000000000071
:104b44000000000000000000000000000000000061
:104b54000000000000000000000000000000000051
:104b64000000000000000000000000000000000041
:104b74000000000000000000000000000000000031
:104b84000000000000000000000000000000000021
:104b94000000000000000000000000000000000011
:104ba4000000000000000000000000000000000001
:104bb400003f000000c00000ff000000e0ff000014
:104bc40001e00000c00100007080000003700000dc
:104bd4008003000070800000037000008003000068
:104be400f0c0000001e00000e1010000c0f300009b
:104bf400008000007f000000003f000000c00000b3
:104c0400ff000000e0f1000001f00000c00300001c
:104c14007080000003380000000700003800000026
:104c24000738000000070000380000000778000083
:104c340080070000f0c0000003f00000ff01000046
:104c4400e0ff0000000000003f0000000000000042
:104c54000000000000000000000000000000000050
:104c64000000000000000000000000000000000040
:104c74000000000000000000000000000000000030
:104c84000000000000000000000000000000000020
:104c94000000000000000000000000000000000010
:104ca4000000000000000000000000000000000000
:104cb40000000000000000000000000000000000f0
:104cc40000000000000000000000000000000000e0
:104cd400003f000000c000007f000000e0ff000073
:104ce40000f00000e001000070c000000378000044
:104cf4008003000038800000033800000007000033
:104d04003800000007380000000700003880000069
:104d14000778000080070000f0c0000007f00000e2
:104d24007f070000e03f0000078000009f070000ad
:104d340000800000070000008003000000800000e5
:104d440003000000c003000000c0000001000000d8
:104d5400e001000000f0000000e000007f0000001f
:104d6400e03f000000e000000f0000000000000031
:104d7400000000000000000000000000000000002f
:104d8400000000000000000000000000000000001f
:104d9400000000000000000000000000000000000f
:104da400000000000000000000000000229e00003f
:104db40000000000200000007e0000001100000040
:104dc40004840000010000000495000001000000bc
:104dd40007a600000100000009b700000100000060
:104de40008d90000010000000cea000001000000e6
:104df4000a0c000002000000042e00000200000063
:104e0400053f000002000000055000000200000001
:104e140008610000020000000872000002000000a7
:104e2400048300000200000005940000020000005a
:104e340004a500000200000006b600000200000005
:104e440008c700000200000008d8000002000000ab
:104e540008e900000200000008fa00000200000057
:104e6400080b000003000000081c00000300000001
:104e7400082d000003000000083e000003000000ad
:104e8400084f000003000000086000000300000059
:104e9400047100000300000004820000030000000d
:104ea400089300000300000008a4000003000000b1
:104eb40008b500000300000006c60000030000005f
:104ec4000cd700000300000009f9000003000000f3
:104ed400091b000004000000093d0000040000005c
:104ee4000a5f0000040000000881000004000000c4
:104ef40008920000040000000aa30000040000005f
:104f04000ac500000400000006e7000004000000d9
:104f140005f8000004000000090900000500000075
:104f2400082b0000050000000d3c000005000000f7
:104f34000a5e0000050000000b8000000500000070
:104f440009a20000050000000bc4000005000000d9
:104f540009e6000005000000070800000600000044
:104f640008190000060000000a2a000006000000dc
:104f7400094c0000060000000d6e00000600000051
:104f8400099000000600000008b2000006000000be
:104f940007c300000600000005d40000060000005e
:104fa40006e500000600000005f60000060000000b
:104fb40007070000070000000618000007000000b3
:104fc4000829000007000000083a0000070000005c
:104fd400094b000007000000076d000007000000f7
:104fe400097e00000700000008a000000700000080
:104ff40005b100000700000008c20000070000001f
:1050040009d300000700000004f5000007000000b9
:105014000406000008000000081700000800000053
:1050240004280000080000000e39000008000000f9
:10503400095b000008000000097d00000800000072
:10504400099f00000800000009c1000008000000da
:1050540006e300000800000007f400000800000058
:1050640007050000090000000916000009000000ff
:1050740008380000090000000b4900000900000086
:10508400086b000009000000087c00000900000013
:10509400078d000009000000059e000009000000c3
:1050a40008af00000900000005c00000090000006e
:1050b40008d100000900000000000000000000000a
:1050c40000000000000000000000000000000000dc
:1050d40000000000000000000000000000000000cc
:1050e4000606000006060000060600000600000092
:1050f40006060000000000000000000000000000a0
:1051040000360000363600003600000000000000c3
:10511400000000000000000000000000000000008b
:10512400000000000000000000780000006800009b
:1051340000ff000000ff0000002c0000003400000d
:1051440000ff000000ff000000160000001e000029
:10515400000000000000000000000000000000004b
:105164000000000000080000083e00003f0b0000a3
:105174001f7c0000687f00003f080000080000005a
:10518400000000000000000000000000000000001b
:105194000e0100009b000000db0000005b0000002b
:1051a400fb030000ee060000d0060000d806000055
:1051b400c806000084030000000000000000000096
:1051c40000000000000000000000000000000000db
:1051d40000000000380000007c0000006c000000ab
:1051e4006c000000380000003c030000f6010000e1
:1051f400e6010000fe010000fc03000000000000c6
:10520400000000000000000000000000000000009a
:105214000006000006060000060000000000000072
:10522400000000000000000000000000000000007a
:1052340000000000180c00000c0600000606000028
:1052440006060000060c00000c1800000000000018
:105254000000000000030000060400000c0c000025
:105264000c0c00000c0c00000406000003000000fd
:105274000000000000180000187e00007e3c0000c2
:105284003c240000000000000000000000000000ba
:1052940000000000000000000000000018180000da
:1052a400187f00007f1800001800000000000000b4
:1052b40000000000000000000000000000000000ea
:1052c40000000000000000000000000006020000d2
:1052d40003000000000000000000000000000000c7
:1052e40000000000000000000f0f0000000000009c
:1052f40000000000000000000000000000000000aa
:105304000000000000000000000000000000000099
:10531400060600000000000000000000000000007d
:105324000030000030180000180c00000c060000cb
:10533400060300000300000000000000000000005d
:10534400000000001c3e0000636300006363000073
:10535400636300003e1c0000000000000000000029
:1053640000000000001800001e1f00001a180000b2
:1053740018180000181800001800000000000000b1
:1053840000000000000000003e7f0000626000009a
:10539400303800001c0600007f7f00000000000081
:1053a4000000000000000000003e00007f600000dc
:1053b400601c000078600000607f00001f00000097
:1053c4000000000000000000000000003038000071
:1053d4003c3c0000363300007f7f0000303000008a
:1053e400000000000000000000000000003e00007b
:1053f4003e060000063e00007e600000607f000064
:105404001f00000000000000000000000000000079
:105414003c3e0000060300003f7f00006363000081
:105424007e3c0000000000000000000000000000be
:10543400007f00007f3000003038000018180000a2
:105444000c0c00000600000000000000000000003a
:10545400000000003e7f0000637700003e3e000035
:10546400736300007f3e00000000000000000000a5
:1054740000000000001e00003f630000637f000086
:105484007e600000303e00001e00000000000000ae
:1054940000000000000000000000000006060000fc
:1054a40000000000000000000606000000000000ec
:1054b40000000000000000000000000000060000e2
:1054c40006000000000000000006000002030000c7
:1054d4000000000000000000000000000040000088
:1054e400701c0000061c000070400000000000005a
:1054f40000000000000000000000000000000000a8
:10550400000000007e7e0000007e00007e0000009f
:105514000000000000000000000000000000000087
:10552400000200000e380000603800000e02000087
:105534000000000000000000000000000000000067
:10554400000e00001f180000180c000006060000e2
:10555400000600000600000000000000000000003b
:10556400000000000000000000f00000011800002e
:10557400030c000006e6000006b6000006b60000b4
:1055840006f6000006e6000003040000001c00000c
:1055940001f0000001000000000000000000000015
:1055a40000000000000000000000000000380000bf
:1055b40000280000006c0000006c0000006c00007b
:1055c40000c6000000fe000000fe00000083000092
:1055d4000183000001000000000000000000000042
:1055e40000000000000000000000000000000000b7
:1055f400007e000000fe000000c6000000c600009f
:10560400007e000000fe000000c6000000c600008e
:1056140000fe0000007e000000000000000000000a
:105624000000000000000000000000000000000076
:105634000000000000f8000000fc0000000c000066
:10564400000600000006000000060000000600003e
:10565400000e000000fc000000f800000000000044
:105664000000000000000000000000000000000036
:105674000000000000000000003e000000fe0000ea
:1056840000c60000018600000186000001860000bb
:105694000186000001c6000000fe0000003e00007c
:1056a40000000000000000000000000000000000f6
:1056b40000000000000000007e7e000006060000de
:1056c4007e7e0000060600007e7e000000000000d2
:1056d4000000000000000000007e00007e060000c4
:1056e400067e00007e06000006060000060000009c
:1056f40000000000000000000000000000000000a6
:1057040000f0000001fc0000010c00000006000095
:1057140000e6000001e6000001860000018e0000a2
:1057240001fc000001f8000001000000000000007e
:105734000000000000000000000000000000000065
:1057440000000000008600000186000001860000c1
:105754000186000001fe000001fe00000186000039
:10576400018600000186000001860000010000009f
:105774000000000000000000000000000000000025
:10578400000000001e1e00000c0c00000c0c0000a9
:105794000c0c00001e1e00000000000000000000b1
:1057a400000000000018000018180000181800007d
:1057b4001818000018180000181800001f0f000027
:1057c400000000000000000000000000008600004f
:1057d40001c600000066000000360000001e000044
:1057e400003e0000007600000066000000c60000d5
:1057f400008600000100000000000000000000001e
:105804000000000000000000000000000606000088
:105814000606000006060000060600007e7e000064
:105824000000000000000000000000000000000074
:10583400000000000e0e00000e0e00001e0f0000ff
:105844001e0f0000160d0000b60d0000b60d00007e
:10585400a60c0000e60c0000660c0000000000002e
:105864000000000000000000000000000000000034
:105874000000000000000000860100008e0100000e
:105884009e0100009e010000b6010000b601000068
:10589400e6010000c6010000c60100008601000008
:1058a40000000000000000000000000000000000f4
:1058b400000000000000000000000000f8000000ec
:1058c400fc0100008e030000060300000603000034
:1058d40006030000060300008e030000fc01000024
:1058e400f8000000000000000000000000000000bc
:1058f40000000000000000000000000000000000a4
:105904007e000000fe000000c6000000c60000008b
:10591400fe0000003e00000006000000060000003b
:105924000600000006000000000000000000000067
:105934000000000000000000000000000000000063
:1059440000000000f8000000fc0100008e030000cd
:10595400060300000603000006030000060300001f
:105964008e030000fc010000f8000000c0010000ec
:1059740080030000000000000000000000000000a0
:1059840000000000000000007e000000fe00000097
:10599400c6000000c60000007e0000003e000000bb
:1059a40066000000e6000000c6000000860100005a
:1059b40000000000000000000000000000000000e3
:1059c40000000000003c00003e060000061e00002f
:1059d4003c300000303e00001e00000000000000cb
:1059e4000000000000000000ffff00001818000085
:1059f4001818000018180000181800000000000013
:105a04000000000000000000000000000000000092
:105a14008601000086010000860100008601000066
:105a24008601000086010000860100008601000056
:105a3400fc000000780000000000000000000000ee
:105a44000000000000000000000000000000000052
:105a5400000000008301000083010000c600000074
:105a6400c6000000c60000006c0000006c000000ce
:105a74006c00000038000000380000000000000046
