:020000040000FA
:06000000C8EF16F012002B
:0600080004EF08F01200F5
:060018000CEF08F01200DD
:06100000C8EF16F012001B
:06100800CCEF13F0120012
:0610180017EF14F01200B6
:06102A000100AE2D0000E4
:08103000F200000002000000C4
:08103800D9CFE6FFE1CFD9FF9B
:10104000E652A09A6A6A686A706A010EE66EE66AFB
:10105000E66A710EE66E0F0EE66E71EC16F0106E1B
:10106000050EE15E1050160E6F6E9F0E6B6E7B0EBE
:10107000696EDF6ADF50106E116A080E105C000E98
:10108000115810E2DF50040DF3CFE9FFF4CFEAFF6F
:10109000000EE926040EEA22EE6AEE6AEE6AEE6AB5
:1010A000DF2AE8D76D8C6E6A6D986D9C68A607D0B4
:1010B00068960001BB6BC06BC16BC26BF7D70001B8
:1010C000010ED26FD36FD46BD56BC86BDF6A020E83
:1010D000DF5C26E2EA6ADF34FE0BEA36E96EB30E25
:1010E000E926000EEA22EE6AED6AEA6ADF34FE0BB8
:1010F000EA36E96EAF0EE926000EEA22EE6AED6AE4
:10110000DF50EA6ACC0FE96E000EEA22EF6ADF5088
:10111000EA6ACE0FE96E000EEA22EF6ADF2AD7D71D
:101120000001080EB36F040EB46F160E706E04014A
:10113000200E026F040E036F080E016F840E006F05
:101140000001A96BA86BE552E552E7CFD9FF120069
:10115000D9CFE6FFE1CFD9FFE6520001A80507E1AC
:101160006DBA05D0686A69806988020EA86F6850F8
:10117000040B06E06950040B03E06894C4EC0EF025
:101180006DA202D0A19A97D06850010B09E0695076
:10119000010B06E051DFA08A0001040EA86F6890E1
:1011A0006850100B06E06950100B03E0AFEC0EF036
:1011B000689868AC19D069AC0FD0010EE66EE66A8B
:1011C000000EE66EE66A730EE66EE66A7DEC14F0DB
:1011D000106E060EE15E1050689C0001D05101E0D7
:1011E000D007D05101E10BDA6850200B05E06950BF
:1011F000200B02E096EC0EF06850020B13E06950F1
:10120000020B10E0010EE66EE66A000EE66EE66A7C
:10121000E6687F0EE66E7DEC14F0106E060EE15E61
:1012200010506A6A040E0001E76EA819E8AE02D0F9
:10123000E73402D0E750A85D02E2A19A3CD069A64B
:1012400039D0DF6A040EDF5C35E268A632D06CCF9D
:10125000C9F00001C951780BE842E842E842CA6F80
:101260006896C9B508D0CA51EA6ACE0FE96E000E79
:10127000EA22EF7007D0CA51EA6ACC0FE96E000E7D
:10128000EA22EF70CA5103E1DBEC0EF010D0000E41
:10129000E66EE66AC90EE66E000EE66E720EE66E49
:1012A000E66A7DEC14F0106E060EE15E1050DF2A47
:1012B000C9D700D0A19AE552E552E7CFD9FF120075
:1012C000D9CFE6FFE1CFD9FF020EE126FD0EDBA468
:1012D00007D0E66AFE0EDBCFE6FF22DAE552E552E2
:1012E000FD0EDBA208D0010EE66EFE0EDBCFE6FFA0
:1012F00017DAE552E552FE0EDB50116A700F106EE0
:101300000F0E112210C0DEFF11C0DDFFDECFE9FF9E
:10131000DDCFEAFFFD0EDBCFEFFF020EE15C02E264
:10132000E16AE552E16EE552E7CFD9FF1200D9CF6D
:10133000E6FFE1CFD9FF020EE126FD0EDB500FE004
:10134000FE0EEA6ADB34FE0BEA36E96EB30EE926DE
:10135000000EEA22EECFDEFFEDCFDDFF0ED0FE0E57
:10136000EA6ADB34FE0BEA36E96EAF0EE926000EC0
:10137000EA22EECFDEFFEDCFDDFFD9CFE9FFDACFF6
:10138000EAFFEE50ED1003E1F36AF46A49D0DECFD4
:10139000E9FFDDCFEAFF020EE926000EEA22FB0E8E
:1013A000DBCFEEFFFC0EDBCFEDFFDECFE9FFDDCFC5
:1013B000EAFFEE52FA0EDBCFEFFF400E106EDECFEB
:1013C000E9FFDDCFEAFF1050EF16880E106EDECF7A
:1013D000E9FFDDCFEAFF1050EF12FD0EDB500CE00D
:1013E000FE0EEA6ADB34FE0BEA36E96EB30EE9263E
:1013F000000EEA22EF740BD0FE0EEA6ADB34FE0B1D
:10140000EA36E96EAF0EE926000EEA22EF74DECF6F
:1014100010F0DDCF11F010C0F3FF11C0F4FF00D0C9
:10142000020EE15C02E2E16AE552E16EE552E7CFCD
:10143000D9FF1200D9CFE6FFE1CFD9FF020EE12696
:10144000FE0EDB5020E1ADC0E9FFAEC0EAFFEE5278
:10145000080EEF6EADC0E9FFAEC0EAFF020EE9264E
:10146000000EEA22200EEE6E040EED6EADC0E9FF16
:10147000AEC0EAFF8C0EEF6EB3C0E9FFB4C0EAFF66
:10148000840EEF6E3DD0FD0EDB50E824126EFE0E92
:10149000DB50040DF3501224040DF3CF10F0F4CF01
:1014A00011F0000E1026040E112210C0DEFF11C034
:1014B000DDFF840E106EDECFE9FFDDCFEAFF1050B6
:1014C000EF12FD0EDB50E824126EFE0EDB50040D11
:1014D000F3501224010F040DF3CF10F0F4CF11F0EC
:1014E000000E1026040E112210C0DEFF11C0DDFF19
:1014F000840E106EDECFE9FFDDCFEAFF1050EF1251
:10150000020EE15C02E2E16AE552E16EE552E7CFEC
:10151000D9FF1200D9CFE6FFE1CFD9FF6DA84ED099
:10152000FE0EEA6ADB34FE0BEA36E96EB30EE926FC
:10153000000EEA22EE50EFCFEAFFE96E400EEE1603
:10154000EE6AEE6AEE6AFE0EEA6ADB34FE0BEA36FB
:10155000E96EB30EE926000EEA22EE50EFCFEAFF65
:10156000E96EEE7CFE0EEA6ADB34FE0BEA36E96ECB
:10157000B30EE926000EEA22EF74400E106EFE0E46
:10158000EA6ADB34FE0BEA36E96EB30EE926000E9A
:10159000EA22EE50EFCFEAFFE96E1050EF16FE0E92
:1015A000EA6ADB34FE0BEA36E96EB30EE926000E7A
:1015B000EA22EE50EFCFEAFFE96EEF7CE552E7CF8B
:1015C000D9FF12006D6A696A0001A86B00D0120091
:1015D0000001A85113E16D6A696A160E6F6E9F0EC5
:1015E0006B6E7B0E696ED08EA28AA08AF28E6DB66B
:1015F00002D06D86FCD70001010EA86F1200000119
:10160000D2514DE1010ED26FD35149E1010ED36F9A
:10161000020EB85D0DE1B3C0E9FFB4C0EAFFEE52BF
:10162000EF6AB3C0E9FFB4C0EAFFC80EEF6E37D06F
:10163000B80535E1CB6BABC0E9FFACC0EAFFEE52B9
:10164000080EEF6EABC0E9FFACC0EAFF020EE92660
:10165000000EEA22200EEE6E040EED6EABC0E9FF26
:10166000ACC0EAFF840EEF6E010ECB6FADC0E9FF98
:10167000AEC0EAFFEE52080EEF6EADC0E9FFAEC09D
:10168000EAFF020EE926000EEA22200EEE6E040E9C
:10169000ED6EADC0E9FFAEC0EAFF800EEF6E120046
:1016A0000001D46BD56B020EB85D1AE1ADC0E9FF45
:1016B000AEC0EAFFEE52080EEF6EADC0E9FFAEC05D
:1016C000EAFF020EE926000EEA22280EEE6E040E54
:1016D000ED6EADC0E9FFAEC0EAFFC80EEF6E1FD0E1
:1016E000BC510401265D0001BD510401275904E2EB
:1016F00026C4BCF027C4BDF0D1D8B3C0E9FFB4C044
:10170000EAFF020EE926000EEA22280EEE6E040E13
:10171000ED6EB3C0E9FFB4C0EAFFC80EEF6E120071
:10172000D9CFE6FFE1CFD9FF020EE126000EDE6E33
:10173000040EDD6EFD0EDB50E824126EFE0EDB5053
:10174000040DF3501224040DF3CF10F0F4CF11F078
:10175000D9CFE9FFDACFEAFF1050EE261150ED2283
:10176000DECFE9FFDDCFEAFFEF9EFD0EDB500FE19C
:10177000FE0EEA6ADB34FE0BEA36E96EAF0EE926AE
:10178000000EEA22DECFEEFFDDCFEDFF0ED0FE0E23
:10179000EA6ADB34FE0BEA36E96EB30EE926000E88
:1017A000EA22DECFEEFFDDCFEDFFDECFE9FFDDCFBA
:1017B000EAFFEF9CDECFE9FFDDCFEAFF040EE9266A
:1017C000000EEA22EF8C020EE15C02E2E16AE552D1
:1017D000E16EE552E7CFD9FF12006D980001BBBF63
:1017E0002BD0C0AF09D0020EB86FD55101E158DF40
:1017F0000001D36BD26B1FD0ADC0E9FFAEC0EAFFD2
:10180000EE52080EEF6EADC0E9FFAEC0EAFF020E69
:10181000E926000EEA22200EEE6E040EED6EADC03B
:10182000E9FFAEC0EAFF8C0EEF6EB3C0E9FFB4C0B3
:10183000EAFF840EEF6E31D0040120AF0DD000011D
:10184000010EB86FD45101E12BDF0001D36BD26BD5
:10185000D15101E1D4DE21D00001020EB86FADC03C
:10186000E9FFAEC0EAFFEE52080EEF6EADC0E9FF31
:10187000AEC0EAFF020EE926000EEA22200EEE6E4E
:10188000040EED6EADC0E9FFAEC0EAFF840EEF6E50
:10189000D36BD26BD15101E1B2DE1200D9CFE6FF9A
:1018A000E1CFD9FFE652080EDF6E0001BC5D000EED
:1018B000BD590BE2BCC0DFFFB75103E1010EB76FAA
:1018C00004D0B70502E1020EB76FDF50106E116A47
:1018D0001050BC5DBC6F1150BD59BD6FB3C0E9FF66
:1018E000B4C0EAFFEE52DFCFEFFF280EC56F040E43
:1018F000C66FBBB119D0DF5016E0B9C0F6FFBAC051
:10190000F7FFB92B000EBA230800F550E66EC5C0EC
:10191000E9FFC6C0EAFFC52B000EC623E552E7501B
:10192000EF6EDF06E8D717D0DF5015E0B9C0E9FF4A
:10193000BAC0EAFFB92B000EBA23EF50E66EC5C05D
:10194000E9FFC6C0EAFFC52B000EC623E552E750EB
:10195000EF6EDF06E9D7E552E552E7CFD9FF120077
:10196000D9CFE6FFE1CFD9FF020EE126ABC0E9FFF8
:10197000ACC0EAFFEE52EFCFDFFFDFCF10F0105028
:101980000001C15D000EC25902E2C1C0DFFFDF509D
:10199000106E116A1050C15DC16F1150C259C26FF3
:1019A000010EDB6ADF50F36E010EDBCFF4FFF35064
:1019B000F45C16E2010EDB50EA6A280FE96E040EB1
:1019C000EA22EF50E66EBEC0E9FFBFC0EAFFBE2BC1
:1019D000000EBF23E552E750EF6E010EDB2AE2D77F
:1019E000000ED880C155000EC25528E2ADC0E9FFF7
:1019F000AEC0EAFFEE52080EEF6EADC0E9FFAEC01A
:101A0000EAFF020EE926000EEA22280EEE6E040E10
:101A1000ED6EABC0E9FFACC0EAFFEF50400B07E151
:101A2000ADC0E9FFAEC0EAFFC80EEF6E06D0ADC094
:101A3000E9FFAEC0EAFF880EEF6E28D0ADC0E9FF27
:101A4000AEC0EAFFEE52080EEF6EADC0E9FFAEC0C9
:101A5000EAFF020EE926000EEA22200EEE6E040EC8
:101A6000ED6EADC0E9FFAEC0EAFF840EEF6EC3516C
:101A7000C41107E005D0C4C0FAFF0001C351F96EDC
:101A8000FADF0001C09FD15101E1B9DD020EE15C36
:101A900002E2E16AE552E16EE552E7CFD9FF1200BA
:101AA000D9CFE6FFE1CFD9FFE6520001BB8F010E8F
:101AB000E66EE66AE66A710EE66E0F0EE66E71EC91
:101AC00016F0106E050EE15E1050DF6ADF50106EEA
:101AD000116A080E105C000E115810E2DF50040D60
:101AE000F3CFE9FFF4CFEAFF000EE926040EEA2265
:101AF000EE6AEE6AEE6AEE6ADF2AE8D76D8CDF6A7C
:101B0000020EDF5C10E2DF50EA6ACC0FE96E000ED5
:101B1000EA22EF6ADF50EA6ACE0FE96E000EEA228F
:101B2000EF6ADF2AEDD7010EE66EE66AE66AAA0ED4
:101B3000E66E000EE66E71EC16F0106E050EE15EBC
:101B400010506D9C0001080EB36F040EB46F000EB0
:101B5000AB6F040EAC6FABC0ADF0ACC0AEF022C446
:101B6000A9F0A95103E1100EA86F13D0010EE66E83
:101B7000E66AA90EE66E000EE66E010EE66EE66AF5
:101B80007DEC14F0106E060EE15E10500001200E88
:101B9000A86FE552E552E7CFD9FF1200800E04018D
:101BA000205D5BE10001C00EBB6F04012351030AFD
:101BB00034E0010A0EE0030A03E00001BB6B4DD0E4
:101BC0000001360EB96F2B0EBA6F120EBC6FBD6BD3
:101BD00044D02251F66EF76AD890F636F736D80E12
:101BE000F6262B0EF7220900F5CFB9F00A00F5CF43
:101BF000BAF0020E0001F76AB925F66EBA51F72263
:101C00000800F5CFBCF0030EF76AB925F66EBA519D
:101C1000F7220800F5CFBDF020D0030E225D1AE2B6
:101C20002251F66EF76AD890F636F736DA0EF626B7
:101C30002B0EF7220900F5CFB9F00A00F5CFBAF064
:101C4000B9C0F6FFBAC0F7FF0800F5500001BC6F3D
:101C5000BD6B02D00001BB6B00D01200D9CFE6FFF4
:101C6000E1CFD9FF020EE1260401286B296B205138
:101C70001F0B020A12E0030A0DE0010A01E042D044
:101C80000001BB8F040128810001C70502E10401A6
:101C9000288338D00001BB8F35D00001BB8F0401F1
:101CA00024BF10D024510F0BE96EEA6AD890E936B0
:101CB000EA36AF0EE926000EEA22EECFDEFFEDCFC8
:101CC000DDFF0FD024510F0BE96EEA6AD890E93698
:101CD000EA36B30EE926000EEA22EECFDEFFEDCFA4
:101CE000DDFFDECFE9FFDDCFEAFFEF50800B09E03B
:101CF000DECFE9FFDDCFEAFFEF50040B02E0010E7B
:101D0000286F00D00001BBAF07D0280EB96F040EBA
:101D1000BA6FBB81020EBC6F020EE15C02E2E16AA7
:101D2000E552E16EE552E7CFD9FF120070A015D061
:101D3000ABC0E9FFACC0EAFFEF5080080DE1B3C0D3
:101D4000E9FFB4C0EAFFEF50840806E1ABC0E9FF49
:101D5000ACC0EAFF8C0EEF6E7090689A1200698436
:101D600068986D820001010EC86F000EE66EE66A8B
:101D7000E66EE66A750EE66EE66A7DEC14F0106EAD
:101D8000060EE15E105012000001C86B000EE66EF8
:101D9000E66AE66EE66A740EE66EE66A7DEC14F0BC
:101DA000106E060EE15E10506D92699468A402D028
:101DB0006894FCD71200D9CFE6FFE1CFD9FFE652F5
:101DC00000012D0ED06FFD0EC91553E17E0EC91511
:101DD000E8407F0B040DF3CFABF0F4CFACF0000E76
:101DE000AB27040EAC23ABC0ADF0ACC0AEF0AD750C
:101DF000ABC0E9FFACC0EAFFEF503C0BE842E84261
:101E00000D0835E1DF6A080EDF5C23E2ABC0E9FFB5
:101E1000ACC0EAFF020EE926000EEA22EE50EFCF38
:101E2000EAFFE96EEF50E66EDF50EA6A200FE96ED6
:101E3000040EEA22E552E750EF6EABC0E9FFACC0FA
:101E4000EAFF020EE926000EEA22EE2AEF22DF2A3E
:101E5000DAD7ABC0E9FFACC0EAFF020EE926000EFC
:101E6000EA22200EEE6E040EED6E0DD801D03AD8A7
:101E700005D0FD0EC915040801E159D8E552E55217
:101E8000E7CFD9FF12000001B76BD16BD46BD56BD4
:101E9000CB6BB86BB3C0E9FFB4C0EAFFEF9EB3757C
:101EA000B3C0E9FFB4C0EAFFEF9EB375ADC0E9FF70
:101EB000AEC0EAFFEF9EBB6BBC6BBD6BC06BC16B72
:101EC000C26B8FD8000EE66EE66AE66EE66A030E17
:101ED000E66EE66A7DEC14F0106E060EE15E1050C0
:101EE000EDEF0BF0020E0001B85D02E139DD1ED00E
:101EF000B86BCB511AE1ADC0E9FFAEC0EAFFEE52BC
:101F0000080EEF6EADC0E9FFAEC0EAFF020EE92693
:101F1000000EEA22200EEE6E040EED6EADC0E9FF5B
:101F2000AEC0EAFF8C0EEF6E01D0CB6B1200D9CFA2
:101F3000E6FFE1CFD9FFE652B3C0E9FFB4C0EAFF44
:101F4000EF50400B01E0010EDF6E0001B375080E8B
:101F5000A85D09E122C46EFF6E5003E0100EA86F69
:101F600002D0040EA86FB80528E1B3C0E9FFB4C0E1
:101F7000EAFF020EE926000EEA22280EEE6E040E9B
:101F8000ED6E8CDC020E0001B75D07E1B3C0E9FF26
:101F9000B4C0EAFF840EEF6E0FD0DF5007E1B3C08C
:101FA000E9FFB4C0EAFFC80EEF6E06D0B3C0E9FF88
:101FB000B4C0EAFF880EEF6E0FD0C0AF0CD0C35193
:101FC000C41107E005D0C4C0FAFF0001C351F96E87
:101FD000FADF0001C09FB86BE552E552E7CFD9FFA9
:101FE000120004012051600BE842E842E842E84256
:101FF000E842000901E058D021510C0A54E00B0AD4
:1020000043E00C0A35E0010A26E00B0A22E0020A4E
:1020100020E0030A1CE0080A10E0010A0CE00F0AA5
:1020200008E0030A01E03FD00001BB8F080EA86F53
:102030003BD0B4DD39D034DD37D00001A90EB96F03
:10204000000EBA6FBB81010EBC6FBB8F2DD006DEB8
:102050002BD02BD829D024510001B96FBA6BAA0E0E
:10206000B927000EBA23BB81010EBC6FBB8F1CD0F9
:102070000001BB8F04012451EA6AAA0FE96E000E29
:10208000EA2222C4EFFF10D0000EE66EE66AE66E8A
:10209000E66A020EE66EE66A7DEC14F0106E060E3D
:1020A000E15E105001D000D01200D9CFE6FFE1CFA1
:1020B000D9FF050EE1260401220510E120511F0B76
:1020C00000090CE10001BB8F030E0401215D04E156
:1020D0000001010EC76F02D00001C76B040122513D
:1020E00001E020D120511F0B020801E01BD1245137
:1020F0000F0B000901E116D124510F0B010801E279
:1021000011D1200E0001A85D01E00CD1BB8F0401AC
:1021100024BF1AD024510F0BE96EEA6AD890E93631
:10212000EA36AF0EE926000EEA22EECFDEFFEDCF53
:10213000DDFF24510F0BEA6ACE0FE96E000EEA2292
:10214000020EEFCFDBFF19D024510F0BE96EEA6AC4
:10215000D890E936EA36B30EE926000EEA22EECF31
:10216000DEFFEDCFDDFF24510F0BEA6ACC0FE96EE5
:10217000000EEA22020EEFCFDBFFD950020FE96E0C
:10218000DACFEAFFEF50010B03E1000EDF9401D03C
:10219000DF8424BF10D024510F0BE96EEA6AD89077
:1021A000E936EA36AF0EE926000EEA22DECFEEFF70
:1021B000DDCFEDFF0FD024510F0BE96EEA6AD89006
:1021C000E936EA36B30EE926000EEA22DECFEEFF4C
:1021D000DDCFEDFF030E215D23E1DECFE9FFDDCF93
:1021E000EAFFEF50800B13E024BF09D024510F0BFE
:1021F000EA6ACE0FE96E000EEA22EF8208D024517F
:102200000F0BEA6ACC0FE96E000EEA22EF82840E11
:10221000106EDECFE9FFDDCFEAFF1050EF1282D063
:10222000DF74DECFE9FFDDCFEAFFEF50800B1BE06C
:10223000DECFE9FFDDCFEAFFEF9EDECFE9FFDDCFA6
:10224000EAFFEF8C020EE66EE66ADECFE6FFDDCF38
:10225000E6FF050EE66EE66A7DEC14F0106E060EE3
:10226000E15E105005D0DECFE9FFDDCFEAFFEF8C55
:10227000DF74D950020FE96EDACFEAFFEF50020B9C
:1022800007E1DECFE9FFDDCFEAFFEF50800B2DE065
:10229000040124BF09D024510F0BEA6ACE0FE96E66
:1022A000000EEA22EF9208D024510F0BEA6ACC0FFD
:1022B000E96E000EEA22EF923B0E106EDECFE9FFD0
:1022C000DDCFEAFF1050EF16020EE66EE66ADECFB3
:1022D000E6FFDDCFE6FF050EE66EE66A7DEC14F064
:1022E000106E060EE15E105008D03B0E106EDECF71
:1022F000E9FFDDCFEAFF1050EF16040124510F0B68
:10230000116A700F106E0F0E1122030E10C0DBFF4A
:10231000040E11C0DBFF030EDBCFE9FF040EDBCFA1
:10232000EAFFEF90050EE15C02E2E16AE552E16E40
:08233000E552E7CFD9FF1200CE
:08233800F00E8C169516938837
:10234000938A8150100B01E0010E0001606F8150F3
:10235000200B01E0010E616FCCEC14F09280010EB5
:10236000C26E3C0EC06EC08E47D80001646B970EE3
:10237000D56EA56BA66BA36BA46B010EA76F1200A5
:102380000001A75101E08FD9200E0001E76EA819C6
:10239000E8AE02D0E73402D0E750A85D03E36D5009
:1023A000020B01E028D053D80001640524E1F2A417
:1023B00022D0F294480ED76EE50ED66EDFEC14F004
:1023C000000919E000016551E96EEA6AD890E93622
:1023D000EA36670EE926000EEA22DAC0EEFFDBC01D
:1023E000EDFF1E0E665D01E2662B1D0E655D02E1CE
:1023F000656B01D0652B12000001656B666B1200E6
:10240000D9CFE6FFE1CFD9FF020EE1269280010E7F
:10241000C26E3C0EC06EC08EC282C2B2FED7C35026
:10242000DF6E010EC4CFDBFFDECF10F0DDCF11F089
:1024300010C0F3FF11C0F4FF020EE15C03E200D014
:10244000E16AE552E16EE552E7CFD9FF1200D9CF3C
:10245000E6FFE1CFD9FF030EE1260001A351A4114D
:1024600002E1000E08D0A3C0E9FFA4C0EAFFEF50CC
:10247000800B01E0010E000901E00BD10001626B4D
:1024800040C500F541C501F505014051FF0A01E1D4
:10249000C2D0C80A01E1A8D0010A6DE0030A63E0D6
:1024A000010A55E0070A4CE0010A2EE0030A0CE09D
:1024B000310A01E0B2D00501026B0501010E036F84
:1024C0000001040E626FABD00001010E626F0501C6
:1024D000415103E18C948C9616D00501410503E12E
:1024E0008C948C8610D0020E0501415D03E18C8432
:1024F0008C9609D0030E0501415D03E18C848C8626
:1025000002D00001626B8BD0030E0501415D0AE130
:102510000501425102E08C8401D08C940001010E2F
:10252000626F0DD0040E0501415D09E105014251C4
:1025300002E08C8601D08C960001010E626F6FD094
:102540000001646B59DF0001010E626F68D0DFEC9F
:1025500014F0000907E0DAC001F5DBC002F5000164
:10256000030E626F5CD00001010E646F45DF000155
:10257000010E626F54D000016651E824020F000181
:10258000626F00016651E8240501016F66C0DFFF3C
:10259000DF50000827E20001655104E100011D0E33
:1025A000656F02D00001650700016551E96EEA6AB6
:1025B000D890E936EA36670EE926000EEA22EECF19
:1025C00010F0EFCF11F0EA6ADF34FE0BEA36E96E65
:1025D000000EE926050EEA2210C0EEFF11C0EDFF45
:1025E000DF06D6D709DF1BD09280010EC26E3C0EEB
:1025F000C06EC08E05DFDE52F3CFDEFFF4CFDDFF0D
:10260000DD52010EDBCF01F5020EDBCF02F500013A
:10261000030E626F04D0FF0002D0000000D0000162
:10262000625124E00001A551A61102E1000E08D07C
:10263000A5C0E9FFA6C0EAFFEF50800B01E0010E44
:10264000000914E162C0E6FF000EE66E050EE66EBC
:10265000010EE66E010EE66E97EC09F0106E050EA7
:10266000E15E1050F3CFA5F0F4CFA6F0400EE66E79
:10267000400EE66E050EE66EE66A010EE66E97EC1B
:1026800009F0106E050EE15E1050F3CFA3F0F4CF09
:10269000A4F0030EE15C02E2E16AE552E16EE5526C
:1026A000E7CFD9FF12000001F251F31104E1100E3F
:1026B000F26F270EF36FF207000EF35B6DA20AD0E4
:1026C000F251F31106E18C708CA002D08C8201D003
:1026D0008C922ED00001A85103E18C908C9228D0CE
:1026E000A80503E18C808C8223D0020EA85D03E153
:1026F0008C808C921DD0040EA85D03E18C908C829E
:1027000017D0100EA85D07E10001F251F31102E1AC
:102710008C708C920DD0200EA85D0AE10001F25160
:10272000F31106E18C708CA002D08C9201D08C82C7
:1027300012008150100B01E0010E0001605D09E004
:102740008150100B01E0010E606F81B802D0010EC4
:1027500002D0000E00D012008150200B01E0010ECB
:102760000001615D09E08150200B01E0010E616F05
:1027700081BA02D0010E02D0000E00D01200D9CFD3
:10278000E6FFE1CFD9FFACA2FED7FE0EDB50AD6E67
:08279000E552E7CFD9FF12006A
:08279800DACFE4FFE2CFDAFF23
:1027A000E9CFE4FFEACFE4FFF6CFE4FFF7CFE4FFA1
:1027B000F5CFE4FFF3CFE4FFF4CFE4FFFACFE4FF7B
:1027C00000EE00F0100EE80403E3EECFE4FFFBD7C9
:1027D00000EE10F0030EE80403E3EECFE4FFFBD7B6
:1027E000E652A8EC08F0E55200EE12F0030EE80401
:1027F00003E3E5CFEDFFFBD700EE0FF0100EE8048A
:1028000003E3E5CFEDFFFBD7E5CFFAFFE5CFF4FF1C
:10281000E5CFF3FFE5CFF5FFE5CFF7FFE5CFF6FF17
:10282000E5CFEAFFE5CFE9FFE5CFDAFF1100D8CF2A
:10283000E4FFE0CFE4FFE46EDACFE4FFE2CFDAFFBB
:10284000E652E552E5CFDAFFE550E5CFE0FFE5CF10
:10285000D8FF100006D8E8EC0AF0C0EC11F0FDD764
:1028600012000F0EC1129CEC11F01CEF08F01200C8
:10287000120012001200120012001E0EE66E010E6F
:10288000E66E60EC09F0E552E552400EE66E400E51
:10289000E66E050EE66EE66A010EE66E97EC09F04E
:1028A000106E050EE15E1050F3CFA3F0F4CFA4F04C
:1028B00012000001C70520E10001C8051DE1A09A32
:1028C000D7DF6D920001C86B0001100EF06F0E0E85
:1028D000F16FF007000EF15BF051F111FAE16D8438
:1028E000080EF06F070EF16FF007000EF15BF0516C
:1028F000F111FAE16D94A08A1200D9CFE6FFE1CF81
:10290000D9FFFD0EDBCF06F0FE0EDBCF07F0050E84
:10291000061801E1075039E0E868061802E17F0E69
:10292000071831E0030E061801E107502AE0020EF5
:10293000061801E1075023E0010E061801E10750D7
:102940001CE0740E061801E1075015E0750E06181C
:1029500001E107500EE0730E061801E1075007E091
:10296000720E061801E1075001E010D00FD081DF90
:102970000DD07DDF0BD07CDF09D07FDF07D07CDF7F
:1029800005D079DF03D076DF01D000D0010E00D072
:08299000E552E7CFD9FF120068
:082998008A849394E66A030EA1
:1029A000E66E020EE66E3FEC16F0E552E552E55299
:1029B0000001870EDA6F0C0EDB6FF0EF14F08A94D3
:1029C0008BEC16F00001DB6F8BEC16F00001DA6F78
:1029D0008A84DAB502D0000E02D0010E00D01200B7
:1029E000D9CFE6FFE1CFD9FF030EE126DAC010F020
:1029F000DBC011F0D89011321032E804FBE110C0B6
:102A0000DEFF11C0DDFFD9CFE9FFDACFEAFFEE52DA
:102A1000EF50100B08E1010EDB9ADB9CDB9E0001FE
:102A20002B0EDC6F16D0010EDB8ADB8CDB8E0001F7
:102A30002D0EDC6FDECF10F0DDCF11F0FF0E101A7F
:102A4000111A10C0DEFF11C0DDFFDF2A010E01E305
:102A5000DB2ADECF10F0DDCF11F00A0E1102F3CF2A
:102A600011F01002F3CF10F0F4501126040ED8909C
:102A700011321032E804FBE110C0DEFF11C0DDFFAF
:102A8000040EF36E020EF3CFDBFFDB50000833E2DF
:102A9000DECF10F0DDCF11F00A0E0B6E0C6A10C005
:102AA00006F011C007F0A2EC16F002C010F003C04F
:102AB00011F00F0E10143009E66E020EDB50EA6AB8
:102AC000DC0FE96E000EEA22E552E750EF6ED9CF37
:102AD000E9FFDACFEAFF0A0E0B6E0C6AEECF06F0C2
:102AE000EDCF07F0A2EC16F006C0EEFF07C0EDFF39
:102AF000020EDB06CAD7300E0001DD5D07E1200EB5
:102B0000DD6F300EDE5D02E1200EDE6FE0C0E1F031
:102B10002E0EE06FF80EE26F430EE36F0D0EE46FC2
:102B2000E56B030EE15C02E2E16AE552E16EE5521B
:062B3000E7CFD9FF1200FF
:0A2B36001201000200000008D8049C
:102B40000C0000000102000109022000010100C088
:102B5000320904000002FFFFFF00070501024000E8
:102B600001070581024000010403090434034D00FC
:102B70006900630072006F00630068006900700004
:102B8000200054006500630068006E006F006C0058
:102B90006F0067007900200049006E0063002E007E
:102BA00038034D006900630072006F006300680025
:102BB00069007000200043007500730074006F000E
:102BC0006D002000550053004200200044006500C5
:102BD0007600690063006500482B682B6C2BA02BE6
:102BE0002A0EF66E100EF76E000EF86E0001090048
:102BF000F550EB6F0900F550EC6F03E1EB6701D086
:102C00003DD00900F550E66F0900F550E76F090067
:102C1000F550E86F09000900F550E96E0900F5501C
:102C2000EA6E090009000900F550E96F0900F55046
:102C3000EA6F09000900F6CFEDF0F7CFEEF0F8CF1C
:102C4000EFF0E6C0F6FFE7C0F7FFE8C0F8FF0001CD
:102C5000E95302E1EA5307E00900F550EE6EE90797
:102C6000F8E2EA07F9D7EDC0F6FFEEC0F7FFEFC0D4
:0E2C7000F8FF0001EB07000EEC5BBFD712006F
:022C7E00D9CFAC
:102C8000E6FFDACFE6FFE1CFD9FFE2CFDAFF3F0E72
:102C9000C716C66AFD0EDB50C612FB0EDB50C7120C
:102CA000FC0EDB50030A09E0010A04E0020A06E117
:102CB000C78C04D0C78CC68801D0C688FD0EDB50F7
:102CC000050A03E0010A03E1928A938201D09392FC
:102CD0009380949EC68AE552E5CFDAFFE7CFD9FF0D
:022CE0001200E0
:0E2CE200FE0EE3CFE9FFFF0EE3CFEAFFE9CFDE
:102CF000F3FFEACFF4FFFB0EE35003E1FC0EE350D9
:102D000009E0FB0EE30602E2FC0EE306FD0EE350D3
:062D1000EE6EF1D7120087
:0A2D1600D9CFE6FFDACFE6FFE1CFE8
:102D2000D9FFE2CFDAFFE652C950DF6E9E96C96A3C
:102D30009EA6FED7C950E552E552E5CFDAFFE7CFB0
:042D4000D9FF1200A5
:0C2D4400036A026A100EE76ED890063693
:102D50000736023603360B50025C0C50035805E36D
:102D60000B50025E0C50035A062AE72EF0D71200D1
:102D7000000EF36E00EE00F0080E01D81200EA60BB
:102D800002D0EE6AFCD7F350E9601200EE6AFCD77D
:102D900013EE00F023EE00F0F86A0F9CF0EC15F053
:0C2DA000D6EC16F02AEC14F0FBD7120061
:022DAC00120013
:022DAE00000023
:020000040030CA
:0100000024DB
:010001000EF0
:010002003FBE
:010003001EDE
:010005008179
:010006008178
:010008000FE8
:01000900C036
:01000A000FE6
:01000B00E014
:01000C000FE4
:01000D0040B2
:00000001FF
