:020000040000fa
:080000000002040000000000f2
:020000040000fa
:100400000fa820000e7f24000e01880000000000cd
:100410000c000700807d2200010020001100070071
:10042000000020000000e000020032000000020096
:10043000000000009a220200000000000040da00e4
:100440000000fe004440a900602820000000e000f9
:100450000300320000002000a00188004440a800f2
:100460000000060091018800800078000000eb0089
:1004700015003700e280400032a0b4009101ba00bc
:10048000e280400032a0b4009102ba00e280400055
:1004900032a0b4000002eb00472bde00f507b200eb
:1004a000602ce10004003a000059eb008301e900f0
:1004b000fdff3e00040037006128e100010032002a
:1004c0000082eb00040007001101ba000200e00006
:1004d000e8ff3a00000006003159ba008301e90044
:1004e0000c0032002159ba008301e90008003200f3
:1004f0000400e00003003a00e280400032a0b400b3
:10050000f5ff370011d9ba008301e900faff3a007c
:100510008100e800e180400032a0b4000000060045
:100520003e1504000000000030260400000000001a
:100530000040da000000fe00103a80000010a00029
:100540007205200061042000237420008149780096
:1005500082497800804978002626ef002746e2008d
:1005600005003d0027c6bf000058a30001003a0067
:100570000300070027e6a90027a6a900000006003f
:1005800021042000914078008180fb00c508de0036
:1005900092028000ff3ffc0000ceb3004260b70033
:1005a0009202880050052000303b8800a00a2000fd
:1005b000303b880027a6a80092028000ff3ffc0085
:1005c000c508dd0042c0bf007f40600001407000f0
:1005d00042e0b7009202880000000600889fbe003b
:1005e0008a9fbe00000478000105780070409000ea
:1005f00091c5b300814f500059003e006840900003
:10060000814f500056003e0058409000e64f500089
:1006100053003e00c840900040c2b30080cf50005d
:100620004f003e0038409000f24f50004c003e001a
:100630000004e0004a003200a840900010c3b3005c
:1006400080cf500046003e000104e000440032002c
:1006500090c9b300984f100041003e000a00e0002e
:100660000800320042c0bf000080fb00c505de006c
:1006700091028000ff3ffc0000ceb3004260b70053
:100680009102880027c6bf004500de00e10460003b
:100690000904e00001003a00b9ff070027c6bf00c7
:1006a0000080fb004700de00804078000001eb0086
:1006b0000004e0000400320023c6bf000080fb00fd
:1006c0004701de0027e6a900f0cf2f002626b6005e
:1006d000003020002626b70018007800203188005e
:1006e00018009000203188002800900020318800f8
:1006f00038049000283188000104e000080032002e
:1007000027e6a8000200e0000100320023e6a8006e
:100710000904e0000500320099ff070003003700dc
:100720000904e00001003a0027a6a90010002000fb
:100730000a00e0000b00320092028000ff3ffc0044
:10074000c558dd0042c0bf007f406000014070001e
:1007500042e0b7009202880010002000010037003c
:100760000000eb004f05be004f04be000000060075
:1007700080007800f2cf2f000001fd002626b60091
:100780000001fd00003020002626b7002031800047
:10079000800878002031800090009800203180008f
:1007a000a000980020318000b00098000001fd00fa
:1007b0002626b6000001fd00003020002626b700e6
:1007c00024318000253180002631800027318000cf
:1007d00061409000874f5000e7ff3a00000006009c
:1007e0008001eb000200370061f079008301e8002e
:0c07f000828f5100fcff3a000000060060
:020000040000fa
:020000040005f5
:0457f8009e230000ec
:020000040000fa
:020000040005f5
:0457fc007f3e0000ec
:020000040000fa
:100008009802000098020000980200009802000080
:100018009802000098020000980200009802000070
:100028009802000098020000980200009802000060
:100038009802000098020000980200009802000050
:100048009802000098020000980200009802000040
:100058009802000098020000980200009802000030
:100068009802000098020000980200009802000020
:100078009802000098020000980200009802000010
:100088009802000098020000980200009802000000
:1000980098020000980200009802000098020000f0
:1000a80098020000980200009802000098020000e0
:1000b80098020000980200009802000098020000d0
:1000c80098020000980200009802000098020000c0
:1000d80098020000980200009802000098020000b0
:1000e80098020000980200009802000098020000a0
:1000f8009802000098020000980200009802000090
:10010800980200009802000098020000980200007f
:10011800980200009802000098020000980200006f
:10012800980200009802000098020000980200005f
:10013800980200009802000098020000980200004f
:10014800980200009802000098020000980200003f
:10015800980200009802000098020000980200002f
:10016800980200009802000098020000980200001f
:1001780098020000980200006e0700009802000034
:1001880098020000980200009802000098020000ff
:1001980098020000980200009802000098020000ef
:1001a80098020000980200009802000098020000df
:1001b80098020000980200009802000098020000cf
:1001c80098020000980200009802000098020000bf
:1001d80098020000980200009802000098020000af
:1001e800980200009802000098020000980200009f
:0801f8009802000098020000cb
:020000040000fa
:10020800980200009802000098020000980200007e
:10021800980200009802000098020000980200006e
:10022800980200009802000098020000980200005e
:10023800980200009802000098020000980200004e
:10024800980200009802000098020000980200003e
:10025800980200009802000098020000980200002e
:10026800980200009802000098020000980200001e
:10027800980200009802000098020000980200000e
:1002880098020000980200009802000098020000fe
:1002980098020000980200009802000098020000ee
:1002a80098020000980200009802000098020000de
:1002b80098020000980200009802000098020000ce
:1002c80098020000980200009802000098020000be
:1002d80098020000980200009802000098020000ae
:1002e800980200009802000098020000980200009e
:1002f800980200009802000098020000980200008e
:10030800980200009802000098020000980200007d
:10031800980200009802000098020000980200006d
:10032800980200009802000098020000980200005d
:10033800980200009802000098020000980200004d
:10034800980200009802000098020000980200003d
:10035800980200009802000098020000980200002d
:10036800980200009802000098020000980200001d
:1003780098020000980200006e0700009802000032
:1003880098020000980200009802000098020000fd
:1003980098020000980200009802000098020000ed
:1003a80098020000980200009802000098020000dd
:1003b80098020000980200009802000098020000cd
:1003c80098020000980200009802000098020000bd
:1003d80098020000980200009802000098020000ad
:1003e800980200009802000098020000980200009d
:0803f8009802000098020000c9
:020000040000fa
:1007fc00e200000000320000800000000000000059
:10080c0000010000002a00005079000000260000c2
:10081c008000000000000000a0000000800000002c
:10082c00000000000000000000000000008000003c
:10083c0000000000000800003132000033340000da
:10084c00353600003738000006a400000001000017
:10085c00010000000000000000000000e7000000a4
:10086c0000440000004200000003000001010000f1
:10087c00003c000000000000ffff0000ffff000034
:10088c000d1c00000032000006a400000001000056
:10089c00002c000000060000000100000004000015
:1008ac0000240000092f00000004000000020000da
:1008bc0071b800000a46000000020000f040000081
:1008cc000996000000020000085200000a550000c2
:1008dc00000c000000020000000800000a4c0000a0
:1008ec000002000009900000000800000000000059
:1008fc0000000000000000000000000000000000ec
:10090c0000000000000000000000000000000000db
:10091c0000000000000000000000000000000000cb
:10092c0000000000000000000000000000000000bb
:10093c0000000000000000000000000000000000ab
:10094c00000000000000000000000000000000009b
:10095c00000000000000000000000000000000008b
:10096c00000000000000000000000000000000007b
:10097c00000000000000000000000000000000006b
:10098c00000000000000000000000000e700000074
:10099c00009c0000009a000000050000020300000b
:1009ac00009400000000000000080000008e000011
:1009bc000a5a0000000800000001000000040000ba
:1009cc00101100000001000009280000001a0000ae
:1009dc00000a00004d690000637200006f630000a4
:1009ec006869000070200000000c0000476c0000db
:1009fc00756300006f730000654d000065740000a6
:100a0c006572000009840000000a00000008000064
:100a1c003132000033340000353600003738000026
:100a2c000a4400000002000006a40000092d00008a
:100a3c000012000000010000000e00000001000088
:100a4c0000000000000800004445000031320000a6
:100a5c0034350000363700000a4b00000016000049
:100a6c00000200000012000002010000000800005b
:100a7c000105000000010000000200002011000030
:100a8c000202000000020000000000000a45000005
:100a9c0000100000c02000001f000000ffff00003d
:100aac00ffff00000000000000000000000000003c
:100abc000000000009870000000800002011000061
:100acc00111800001439000000000000e7000000bd
:100adc0000280000002600000008000001010000b2
:100aec000020000000000000ffff0000ffff0000de
:100afc000d1d000000160000f000000000000000ba
:100b0c0000010000000e000000010000000a0000bf
:100b1c00f3520000200800000919000017300000f3
:100b2c0000000000120100000002000000000000a4
:100b3c0000080000d8040000420e00000001000074
:100b4c000102000000010000090200003c0000004e
:100b5c000101000000c00000320900000400000088
:100b6c00000200000f000000000000000420000044
:100b7c00020000000630000000010000111000000f
:100b8c000705000082020000400000000004000085
:100b9c0021010000080700000502000002400000cf
:100bac000000000004210000010800000403000004
:100bbc0009040000340300004d000000690000002f
:100bcc0063000000720000006f0000006300000072
:100bdc0068000000690000007000000020000000a8
:100bec005400000065000000630000006800000075
:100bfc006e0000006f0000006c0000006f00000031
:100c0c00670000007900000020000000490000008f
:100c1c006e000000630000002e0000002c0300009a
:100c2c005000000048000000440000004300000099
:100c3c0020000000470000006c0000007500000060
:100c4c00630000006f000000200000006d00000039
:100c5c0065000000740000006500000072000000d8
:100c6c002000000044000000650000006d00000042
:100c7c006f000000aa850000dc850000e085000004
:100c8c0014860000e3000000002c000000010000ae
:100c9c000000000000000000000000000000000048
:100cac000000000000000000000000000000000038
:100cbc000000000000000000000000000000000028
:100ccc000000000000000000000000000000000018
:100cdc000000000000000000000000000000000008
:100cec0000000000e4000000000200000000000012
:0c0cfc00e5000000000200000000000005
:020000040000fa
:100d08000200fa009ec0a9000080eb007024880051
:100d18000080eb00502488000000eb00502588007c
:100d28006000b80060258800712588000000eb008d
:100d38008025880020002000302588000000eb0076
:100d4800402588008644a900f009200080248800f6
:100d5800f0092000602488008804a8000080200092
:100d68004800de00c02488000040eb00004f7800f7
:100d7800070037001e80fb00c200dd000080200055
:100d8800008140006000b8000089be001e4fe800e6
:100d9800f0c0b3009e4f1000f6ff36009424a80060
:100da8000000eb00b024880094a4a9009424a900b2
:100db8000c00370080002000502488000040eb0021
:100dc80048e8b7000040eb0055e8b70056c8bf0038
:100dd8006040600056e8b70057c8bf006040600038
:100de80057e8b7008ac4bf00684060000004e0000c
:100df800f0ff3a0010002000104488001000200086
:100e0800204488000000eb00204288000000eb002e
:100e1800004288000000eb00704288000040eb00b0
:100e2800004f7800170037001e80fb002186200045
:100e380000004000810040000000eb0080087800be
:100e48001e80fb00a18520000000400081004000ba
:100e58000000eb00800878009e80fb00808720005f
:100e6800808040000040eb00804878009e80fb00b6
:100e7800c0872000808040000040eb008048780058
:100e88001e4fe80030c0b3009e4f1000e6ff36004a
:100e9800818020002086200001087800d0002000f2
:100ea80050258800608820001040880080c0b3006a
:100eb80000e8b70040c8b30001e8b7000040eb0005
:100ec80052e8b7000000eb00804288000080fa007a
:100ed800000006003600f800809fbe00829fbe001a
:100ee800849fbe00869fbe003400f80000002000ea
:100ef800a00188000200fa0080428000e10f500043
:100f08000a003a0094c4bf000044b2000004e000a4
:100f180006003a000080eb00502488008c04a800ea
:100f28008c84a800200020008042880080c4bf0074
:100f3800704060000004e0000700320082c4bf0077
:100f4800704060000004e00003003200000120004f
:100f5800002488007404070088c4bf006240600051
:100f68000004e000020032008ec0a900950037009e
:100f78008ac4bf00614060000004e0000a0032003b
:100f88008cc4bf00614060000004e000060032002d
:100f98005bff07009ec0a800400020008042880038
:100fa80010002000502488008ac4bf0070406000f0
:100fb8000004e000070032008cc4bf0070406000ed
:100fc8000004e000030032004b0407000001200089
:100fd800502488008ac4bf00644060000004e00018
:100fe800140032008cc4bf00644060000004e000bc
:100ff80004003200120020008000eb0030072000bf
:101008009c0e0700400020005024880080c8bf00c4
:101018000004e0000300320080c8bf000040e9007f
:1010280080e8b70080c8bf000004e00001003a0073
:10103800ac0107008ac4bf0001c8b30001406000ca
:101048000004e000060032008cc4bf0001c8b300f1
:10105800014060000004e000010032000e040700b7
:101068008ac4bf00624060000004e0000c00320047
:101078008cc4bf00624060000004e0000800320039
:10108800120020008000eb00f0ff2700790e070017
:101098000080eb0070248800200020005024880085
:1010a80080428000e30f500002003e008ec0a9007d
:1010b800440037008cc4bf00684060000004e000b2
:1010c8003f0032000040eb00004f78003900370045
:1010d8008ac4bf00684060000004e00038003200a5
:1010e8009024800074e8b70074c8bf000080fb003b
:1010f8004400de0075e8b700800020005024880016
:1011080074c8bf00684060000004e00010003a00a6
:1011180075c8bf000081fb008080fb00c0872000ed
:10112800008040009040780061c060000004a20088
:10113800e1406000c08720000000410061c16000fc
:10114800e1cfb30010c86000104871000f003700ed
:1011580075c8bf000081fb008080fb0080872000ed
:10116800008040009040780061c060000004a20048
:10117800e1406000808720000000410061c16000fc
:10118800e1cfb30010c860001048710075c8bf00f7
:101198000004e00002003a00ef03070004003700f3
:1011a800418720000001eb0020072000310e0700d6
:1011b8001e4fe80030c0b3009e4f1000c4ff360039
:1011c8008ec0a9000080fa003400f9004f03be0069
:1011d8004f02be004f01be004f00be003600f900ae
:1011e800004006000400fa002047980031479800a4
:1011f8003e4090000080fb004300de00610060007c
:101208000004e000030032008040eb002e40900014
:10121800940107003e4090000080fb004200de0081
:10122800610060000004e0000300320011c0b30058
:101238002e4090008b0107002e4090000080fb009c
:101248000000400080007800a04a20000080400094
:10125800000f78001e007800be409000014878001a
:101268000080fa00000006000a00fa0020479800f3
:101278003147980022079800634798003e40900045
:101288000004e000070032002e4090000080fb00c0
:10129800218620000000400001004000100f780067
:1012a800060037002e4090000080fb00a18520003a
:1012b8000000400001004000100f78001e00e00010
:1012c80003003a000000eb0040079800390037009f
:1012d8002e009000800078001e0078001100980011
:1012e8001e007800ee409000014878001e0078004b
:1012f8001040900002c4b300824060001e007800d5
:10130800114098001e0078009040900080c8b300fb
:1013180080c070001e007800114098003e40900088
:101328000004e000110032002e4090000080fb0015
:1013380000004000800078002086200000804000e7
:10134800000178002e4090000080fb000000400063
:10135800800078002086200000804000104078003f
:101368000024a20000497800100037002e409000a9
:101378000080fb000000400080007800a08520006d
:1013880000804000000178002e4090000080fb00a3
:101398000000400080007800a08520000080400008
:1013a800104078000024a200004978001e00780050
:1013b800400798004e0090000080fa0000000600e8
:1013c8000400fa0020479800314798002e4090000a
:1013d8000004e0000e003a007143800080c0b300b2
:1013e8008048780071438000608820009000980051
:1013f80071438000c0c8b300904098002086200048
:101408009000780040c8b30090409800230037004f
:101418002e4090000080fb00000040008000780013
:101428003e4090000080fb00008040004300dd004b
:10143800800078000080200000804000000f7800c5
:101448001e0078009040900040c8b30080c0700033
:101458001e007800114098002e4090000080fb008c
:1014680000004000800078003e4090000080fb00b3
:10147800008040004300dd008000780040802000ac
:10148800008f40001e0078009040900040c8b300d4
:1014980080c070001e007800114098000080fa009b
:1014a800000006000600fa00004f780094c4bf0050
:1014b8000042b2000004e0005f0032001e80fb0022
:1014c8002186200000004000010040001003780041
:1014d8001e80fb0021862000000040000100400023
:1014e800100078001000be00020420000300200055
:1014f80000027800810278000200780083007800fa
:1015080000016200018062006102b80014079800bf
:10151800250798001e009000ae009000c000dd0076
:101528000000200010079800210798001e00900076
:10153800ae0090006112b8001407980025079800c3
:101548001e019000ae0190000200700083807000c0
:10155800008bbe001e80fb0021862000000040009a
:1015680001004000100278001e80fb002186200048
:101578000000400001004000100078001001be008b
:10158800000420000100200000006900818069003b
:10159800008abe001e80fb0000004000800078002a
:1015a8002086200000804000000178001e80fb009b
:1015b8000000400080007800208620000080400065
:1015c800104078000024a200004978001e80fb002b
:1015d8002186200000004000010040001001780032
:1015e8001e80fb0021862000000040000100400012
:1015f80010007800104090000044b200104198009c
:101608001e80fb00218620000000400001004000f1
:10161800100178001e80fb00218620000000400099
:1016280001004000100078009040900000c4b30012
:1016380000c06800104198000080fa000000060011
:101648000000fa000000eb00a02488000000eb0076
:10165800602488000000eb00804288000080fa00c7
:10166800000006000000fa00804280000000e00050
:101678001a003a0084c4bf00684060000004e0001b
:10168800160032000000eb00a02488000000eb00e8
:101698006024880020002000302588000000eb002e
:1016a800402588008644a900f0092000802488008d
:1016b800f0092000602488009ec0a80001003700bf
:1016c8009404a80094c4bf00614060000004e000d6
:1016d800fbff320010002000804288000080fa00e2
:1016e800000006000000fa00104480000000e0003e
:1016f8002c003a001000200010448800204480008c
:101708000000e00027003a00100020002044880074
:1017180071c8bf00e24f500009003a00208620003f
:10172800900078000040eb00804878002086200078
:101738009000780080ccb3009040980019003700e2
:1017480071c8bf00e14f500016003a000000eb00de
:10175800b04388006143800080c0b30080487800af
:1017680061438000608820009000980061438000f9
:1017780040c8b3009040980010002000b043880093
:101788007143800080c0b3008048780071438000b6
:1017980060882000900098007143800000c8b30062
:1017a800904098000080fa00000006000000fa004f
:1017b8000000eb00204288000000eb000042880097
:1017c80071c8bf00e24f50000a003a007143800020
:1017d80080c0b3008048780071438000e088200012
:1017e800900098007143800080ccb300904098002e
:1017f8001a0037008cc8bf008080fb008dc8bf006e
:101808000080fb004800dd000100700080007800c7
:1018180050428000808f5000070031008cc8bf0004
:101828008080fb008dc8bf000080fb004800dd0001
:1018380001007000504288008700070020862000c1
:1018480090007800e0882000900098002086200012
:101858009000780080ccb300904098000080fa0097
:10186800000006000400fa0020479800314798005d
:1018780000802000000f78002e4090000080fb00c0
:1018880000004000800078003e4090000080fb008f
:10189800008040004300dd001e0f40009e007800dd
:1018a800114090000074a100904098003e409000c4
:1018b8000004e00007003a002e4090000080fb0082
:1018c800a185200000004000010040001e087800ab
:1018d800060037002e4090000080fb002186200083
:1018e80000004000010040001e0878001e0178003a
:1018f80092409000f0cbb30000c060001041980007
:101908001e007800640140009240900000c4b300bb
:1019180000c07000104198000080fa000000060026
:101928000000fa0094a4a90048c8bf0001c8b30089
:10193800014060000004e0001e003a0055c8bf00e6
:1019480001c8b300014060000004e0000b00320051
:1019580020c0b30071e8b700004280000000e0003a
:1019680001003a0091ff07000000eb0020448800c6
:101978000000eb00104488003500370071438000f8
:1019880080c0b300804878007143800060882000e0
:101998009000980071438000c0c8b3009040980040
:1019a800208620009000780040c8b300904098003e
:1019b8002700370086c8bf0001c8b3000140600097
:1019c8000004e0000f00320010c0b30071e8b70057
:1019d800204280000000e00001003a0073ff070089
:1019e8000000eb00204488000000eb001044880051
:1019f800104280000000e00015003a0039ff07009f
:101a08001300370020c0b30071e8b70071438000ad
:101a180080c0b3008048780071438000608820004f
:101a2800900098007143800040c8b300904098002f
:101a38000000eb00204488000000eb001044880000
:101a4800104280000000e00001003a0025ff070076
:101a58000080fa00000006000200fa0080c0b3000f
:101a6800004f780050428000e70f50000d003e0004
:101a780050428000004f780070c8bf000004e000aa
:101a880003003a0010c0b30070e8b7000500370043
:101a980070c8bf00e14f500002003a0020c0b300f8
:101aa80070e8b700514280001e80fb0000805000a3
:101ab8005042880020862000100078001e487800d8
:101ac800e08820009043880048c8bf00614060005b
:101ad8000004e00016003a00090037009143800036
:101ae8003242800012407800804878000100e80007
:101af800904388000200e800304288001e4fe90049
:101b08001e04e000f5ff3a000b0037009143800007
:101b18003242800012407800804878000100e800d6
:101b2800904388000200e800304288001e4fe90018
:101b38001e04e000f5ff3a000080fa0000000600ed
:101b48000200fa0060438000904078001147980036
:101b58001e4090000081fb0056c8bf008080fb003b
:101b680057c8bf000080fb004800dd00010070007e
:101b7800800f51000700360056c8bf008080fb0068
:101b880057c8bf000080fb004800dd00010070005e
:101b98001047980056c8bf008080fb0057c8bf0098
:101ba8000080fb004800dd00010070008000780024
:101bb8001e4090000080fb0000815000f00f2000c4
:101bc8008000610056c8bf0060406000014070009e
:101bd80056e8b700c810de0057c8bf006040600074
:101be8000140700057e8b7000040eb00004f780054
:101bf8001900370053c8bf008080fb0054c8bf00dd
:101c08000080fb004800dd00010070000001780042
:101c18009e80fb00e0882000008040001040780093
:101c2800004978000201e800f00f20008000610000
:101c380053c8bf00604060000140700053e8b7001f
:101c4800c810de0054c8bf0060406000014070004a
:101c580054e8b7001e4fe8001e4090009e4f100049
:101c6800e4ff390056c8bf008080fb0057c8bf009a
:101c78000080fb004800dd00010070000000e0006b
:101c8800130032007143800080c0b30080487800a0
:101c980071438000e0882000900098006043800035
:101ca800104090000044b2000004e00004003a0034
:101cb8007143800080ccb300904098002100370029
:101cc8007143800080c8b300904098001d00370021
:101cd8007143800080c0b300804878007143800061
:101ce80060882000900098007143800040c8b300cd
:101cf8009040980058c8bf008080fb0059c8bf00ba
:101d08000080fb004800dd00010070000000e000da
:101d18000700320058c8bf008080fb0059c8bf00c8
:101d28000080fb004800dd00010070000000010099
:101d380055e8a900104280000000e00001003a00c8
:101d480068fe07000080fa00000006000200fa00a2
:101d580048e8a8006000b800602588007125880060
:101d68000000eb00802588000040eb00004f780061
:101d7800070037001e80fb00c200dd000080200045
:101d8800008140006000b8000089be001e4fe800d6
:101d9800f0c0b3009e4f1000f6ff36009424a80050
:101da8000040eb00004f78000b0037009e80fb00de
:101db80080872000808040000040eb008048780049
:101dc8009e80fb00c0872000808040000040eb0020
:101dd800804878001e4fe80030c0b3009e4f1000c6
:101de800f2ff36000040eb006ae8b7009424a9002f
:101df80081802000208620000108780000802000d3
:101e080060438800604380007043880088c8bf0032
:101e180052e8b70052c8bf000004e00003003a00cf
:101e280000012000804288000600370012002000d0
:101e380021852000100020000e0b07000002200062
:101e4800804288000080fa00000006000200fa00c4
:101e5800618820009140780000c8b30080cf50000e
:101e68003a003a0000ccb30048e8b70089c8bf0080
:101e78000080fb00000f78001e007800e20f500081
:101e88000c0032001e007800e30f50001a003200e8
:101e98001e007800e10f50000100320029003700d1
:101ea80080592800304288002001200050428800d4
:101eb8002600370088c8bf000080fb0000004000f3
:101ec800800078000064280000804000100078003e
:101ed80030428800304280000080e80010407800de
:101ee8004ae8b700304280006300400010407800a4
:101ef8004be8b7001500370088c8bf00e24f500014
:101f08000d003e0088c8bf000080fb0000004000b4
:101f180080007800206428000080400010007800cd
:101f28003042880030428000104078000080fb007a
:101f380050428800050037000040eb0048e8b70031
:101f4800020037000040eb0048e8b7000080fa00c4
:101f5800000006000400fa000040eb008ee8b7001d
:101f68000040eb008fe8b70086c8bf007f406000e4
:101f78000080fb00100798001e009000e10f500041
:101f8800120032001e009000e20f500011003200d3
:101f98001e0090000000e00001003200320037000f
:101fa80048e8a8008ec8bf000004a0008ee8b7006b
:101fb80060428000e10f50002b003a008ec8bf003d
:101fc8000014a0008ee8b7002700370048e8a800f2
:101fd8002500370048e8a8008ac8bf0001c8b30038
:101fe800014060000004e00009003a008ac8bf0010
:101ff8006f4060000080fb00a185200000004000c9
:102008000100400010007800000f78000800370039
:102018008ac8bf006f4060000080fb002186200056
:10202800000040000100400010007800000f780018
:102038001e007800900078000000280000806000f2
:102048000000e000080032001e00780090007800d0
:1020580000402000008060000000e0000200320024
:1020680010c0b3008ee8b70048c8bf0001c8b3006d
:10207800014060000004e00005003200e088200014
:10208800304288004808a80020c0b3004ae8b700da
:102098000080fa00000006000000fa00aac4bf0091
:1020a800624060000004e0000f00320060438000de
:1020b8009040900000c8b30080cf500009003a005b
:1020c80020862000100078009040900040c8b3009f
:1020d80080cf500003003a0061438000c0c8b300bd
:1020e80090409800aa24a9000008200050248800e5
:1020f8000080fa00000006000000fa008284a800b0
:102108000001200050248800100020007042880040
:102118000001eb008000eb0050072000550a070083
:102128000080fa00000006000000fa000000eb0042
:10213800704288000001eb008000eb00400720009f
:102148004c0a07008284a9000001200000248800ae
:102158000080fa00000006000200fa00d0c2b300b6
:1021680080e8b70074c8bf008080fb00b0ff2f0074
:10217800008060000000e00032003a0074c8bf0030
:102188008080fb00c00f2000008060004280de00dd
:102198004200dd00800078000080200000804000c0
:1021a800604388006043800070438800e186200017
:1021b800e0862000104078000024a20080487800c3
:1021c8006043800010409000c2c3b30082406000aa
:1021d80040c3b30080cf500018003a000040eb0025
:1021e800004f78000d0037001e80fb00800078004b
:1021f80060882000808040006043800010009000cc
:1022080010407800804878006143800011009000f9
:102218000000e800900098001e4fe80070c0b3006e
:102228009e4f1000f0ff3600604380006188200058
:10223800110098000c000700090037004b00070048
:102248000700370074c8bf008080fb00b0ff2f0074
:1022580000806000e80f500001003a005c000700b1
:102268000080fa00000006000000fa000040eb00c1
:1022780070e8b7000000eb00104288000000eb0097
:10228800204288000000eb00004288000000eb00bc
:10229800b04388000040eb0071e8b70020862000ba
:1022a80010017800208620001000780090409000ef
:1022b800f0c7b30000c060001041980021862000dc
:1022c80020862000104078000024a2008048780072
:1022d8002086200010017800208620001000780059
:1022e80090409000f0c7b30000c060001041980013
:1022f8002186200020862000104078000024a200bb
:1023080080487800724380007043800090409000bd
:10231800f0c7b30000c06000104198000040eb0017
:1023280048e8b7000000eb00504288000040eb008e
:1023380055e8b70056c8bf006040600056e8b700cf
:1023480057c8bf006040600057e8b700700007003a
:102358000001eb008000eb0030002000c5090700f9
:102368006ffd07000080fa00000006000000fa0078
:1023780071c8bf00e24f500002003a00f0fd0700ac
:10238800110037000040eb0071e8b700b04380004f
:102398000000e0000a003a007143800080c0b300ea
:1023a8008048780071438000608820009000980081
:1023b80071438000c0c8b300904098000200370005
:1023c8000000eb00b04388000080fa00000006001f
:1023d8000200fa00208620001000780010409000cb
:1023e8000080fb004600de0061406000004f78007e
:1023f8002186200020862000104078000024a200ba
:102408008048780080428000e80f50000b003a00b6
:1024180088c8bf000080fb00b0248800b02480007a
:102428000000e00003003200000120008042880024
:1024380002003700400020008042880071c8bf00b9
:10244800e14f500019003a002086200090007800e3
:10245800e0882000900098007ffd070070c8bf004a
:10246800e24f500005003a002086200090007800d6
:1024780040c8b30090409800230037001e04e000d5
:1024880005003a00208620009000780080ccb30038
:10249800904098001c0037002086200090007800ab
:1024a80080c8b300904098001700370055c8bf0097
:1024b80001c8b300014060000004e00010003200d1
:1024c80058c8bf008080fb0059c8bf000080fb00cf
:1024d8004800dd00010070000000e0000700320045
:1024e80058c8bf008080fb0059c8bf000080fb00af
:1024f8004800dd00010070000000010055e8a90057
:102508000040eb0071e8b7000080fa000000060008
:102518000400fa0086c8bf000046b2000004e000cc
:1025280043003a0087c8bf000080fb006101b90082
:10253800028fbe00b0002000010020001e01be0076
:10254800800f5100818f590039003e001e00be00e7
:10255800006001001a0037001b0037003400370004
:10256800190037003200370006003700090037002d
:102578002b0037000b003700080037001400370025
:102588001e00370048e8a80080002000804288002c
:10259800270037002dfe070025003700ebfd070058
:1025a8002300370020852000304288004808a80012
:1025b80010c0b3004ae8b70048e8a8001c0037007c
:1025c80064fe07001a0037001b00070018003700d8
:1025d8008ac8bf000080fb0080007800a086200029
:1025e80000804000304288004808a80010c0b300ae
:1025f8004ae8b70048e8a8000d00370048e8a800f6
:102608008ac8bf008080fb008288200012417800c1
:10261800a0862000008040000248780004003700af
:102628000001eb008000eb002000200011090700ea
:102638000080fa00000006000600fa0088c8bf0003
:10264800e14f50000d003a0086c8bf007f4060008f
:102658000004e00009003a0048e8a80087c8bf0065
:10266800e34f500003003a00100020006042880049
:10267800020037000000eb006042880088c8bf00f5
:102688000004e000e4003a0086c8bf007f40600014
:10269800e24f5000e0003a008ac8bf006f40600077
:1026a8000004e000dc0032008ac8bf006f40600010
:1026b8000080fb00e30f5000d7003c0081428000ff
:1026c80000022000808f5000d3003a0048e8a8009c
:1026d8008ac8bf0001c8b300014060000004e000e0
:1026e80010003a008ac8bf006f4060000080fb00fd
:1026f800a185200000004000010040001000780083
:10270800100798008ac8bf006f4060008080fb00f7
:10271800c0872000008040001040780040479800a3
:102728000f0037008ac8bf006f4060000080fb00c0
:1027380021862000000040000100400010007800c1
:10274800100798008ac8bf006f4060008080fb00b7
:1027580080872000008040001040780040479800a3
:102768004e409000614060000004e00007003a001d
:102778000e81e8000e80e80090407800b0cfb300ea
:1027880000c0600000497800050037008e80e8002e
:102798000e80e800104078000024a00080487800ef
:1027a8008ac8bf0001c8b300014060000004e0000f
:1027b8000a003a008ac8bf006f4060000081fb0031
:1027c8001e00900080017800a185200002004100d1
:1027d8000100400003087800090037008ac8bf00dc
:1027e8006f4060000081fb001e00900080017800af
:1027f8002186200002004100010040000308780003
:1028080087c8bf00e34f50001f003a001e00900029
:102818009000780000002800008060000000e000c0
:10282800120032008ac8bf0001c8b300014060002e
:102838000004e00007003a008ac8bf006f4060004b
:102848008080fb00c0872000008040001014a0009a
:10285800060037008ac8bf006f4060008080fb0018
:1028680080872000008040001014a0001e01900006
:102878001e0090009040900040c8b30000c0700057
:1028880010419800640037008e80e8000e80e80050
:10289800104078000024a200804878001e009000b4
:1028a8009000780000002800008060000000e00030
:1028b800110032001e0190001e0090009040900010
:1028c800f0c7b30000c06000104198001e019000de
:1028d8001e0090009040900000c4b30000c070003b
:1028e800104198009e009000220020005000200017
:1028f80060080700060037001e0190001e009000c7
:102908009040900000c4b30000c0700010419800cf
:102918008e80e8000e80e800104078000024a200b5
:10292800804878004e409000624060000004e0005b
:1029380006003a001e009000900078000000280071
:10294800008060000000e0001f0032008ac8bf005d
:1029580001c8b300014060000004e00008003a002c
:102968008ac8bf006f4060008080fb00c0872000dd
:1029780080804000d0cfb300914860000700370046
:102988008ac8bf006f4060008080fb0080872000fd
:1029980080804000d0cfb300914860001e019000b5
:1029a8001e00900090409000b0c3b30000c06000cb
:1029b800104198009e009000220020005000200046
:1029c8002c080700060037001e0190001e0090002a
:1029d80090409000b0c3b30000c060001041980060
:1029e8008ac8bf006f4060000080fb000000400004
:1029f80080007800a04a200000804000000f780086
:102a08001e00780090407800d0cfb30080c06000ee
:102a18001e007800014878000080fa0000000600d7
:102a28000200fa00000f780010c0b300d4e8b70025
:102a38001e00780090468800e05321005f040700dc
:102a480010c0b300d4e8b700970307000000eb00fc
:102a5800404788000080fa00000006000200fa00e3
:102a6800000f78001e007800504788000080fa00a8
:102a7800000006000e00fa00004f98005107980069
:102a88000e4890000080fb00600798006e009000e0
:102a9800e20f5000110032006e009000e30f50006a
:102aa800150032006e009000e10f50000100320066
:102ab80030003700d4c8bf00e34f50002d003a0063
:102ac80040c0b300d4e8b70010002000e0468800fa
:102ad80000712200f0468800260037005147800028
:102ae8000001eb0080c0b300540407005047800089
:102af800220007001f0037005e0090003007980092
:102b080050478000200798002e0090009000900009
:102b180000f02f00008060004801de002e009000c9
:102b280090009000f00f2000008060004800dd0059
:102b380000007100100798002e00900090007800a7
:102b480000f02f00008060004801de002e00900099
:102b580090007800f00f2000008060004800dd0041
:102b6800000f71001e009000e40040003e0090003d
:102b7800010878000080fa00000006000800fa004a
:102b8800200798002e0090001040780030479800e9
:102b98002e0090000000e8001040780020479800c0
:102ba8002e0090000080e800104078001047980040
:102bb8002e0090006300400010407800004f78001d
:102bc8001e0090003007980000402e00be009000c4
:102bd800808f50002000320000402e00be00900080
:102be800808f500009003e0000202e00be0090009b
:102bf800808f50001200320000302e00be0090007e
:102c0800808f5000110032001f00370000602e0036
:102c1800be009000808f50001500320000702e001a
:102c2800be009000808f50001400320000502e002b
:102c3800be009000808f50000a003200120037005a
:102c48002e0090005b0007001d0037002e0090004a
:102c5800760007001a0037002e009000f2010700e6
:102c6800170037002e009000dd0107001400370020
:102c78002e00900014020700110037002e0090006b
:102c8800ac0007000e003700d4c8bf00e24f500068
:102c980009003200d4c8bf00e44f500006003200db
:102ca800d4c8bf00e54f500003003200d4c8bf00ad
:102cb800e64f500002003a000000eb000c0207004b
:102cc8000080fa00000006000000fa00d4c8bf0027
:102cd800e14f500011003a0020c0b300d4e8b7001b
:102ce8001300200062032000e13f280080c0b300e9
:102cf80013040700514780000001eb0080c0b300b7
:102d0800ce03070010002000b046880000712200a2
:102d1800c046880030c0b300dae8b7000080fa0087
:102d2800000006000000fa00d4c8bf00e24f5000bf
:102d38000d003200d4c8bf00e64f50000a00320030
:102d4800d4c8bf00e14f50000700320060c0b30094
:102d5800d4e8b70013002000620020008167280033
:102d680080c0b300f6030700cf0207000080fa0016
:102d7800000006000000fa00514780008001eb00c7
:102d8800c202200080c0b300ed0307005147800055
:102d98000001eb0080c0b300a8030700100020006a
:102da8002047880080bb2000304788000080fa0058
:102db800000006000200fa00000f7800d4c8bf0027
:102dc800e24f50000c003a0010c0b300d4e8b7003e
:102dd80013002000020320008164280080c0b30093
:102de800d7030700514780000001eb0080c0b30003
:102df800920307000b003700d4c8bf00e54f50000e
:102e080006003200d4c8bf00e44f5000030032006f
:102e1800d4c8bf00e64f500002003a000000eb00a3
:102e2800b30107000080fa00000006000a00fa005b
:102e3800400798000000eb00b04688004e00900064
:102e480010407800504798004e0090000000e800bd
:102e580010407800404798004e0090000080e8003d
:102e680010407800304798004e0090006300400002
:102e78001040780020479800d4c8bf00e54f5000a4
:102e880006003200d4c8bf00e44f500003003200ef
:102e9800d4c8bf00e64f500003003a000000eb0022
:102ea8009301070021003700d4c8bf00e24f50004b
:102eb8001e003a00ae00900000302e00808f5000b7
:102ec8001a003a004e009000640f40004e00900037
:102ed8006400400010407800704798004e00900051
:102ee8006500400010407800604798003e00900060
:102ef800e30f500008003a0030c0b300d4e8b70030
:102f080013002000820920004143280080c0b3003c
:102f18008b0307000500370050c0b300d4e8b700a2
:102f28009146800010c0b300010001000080fa0043
:102f3800000006001000fa00700798007e0090005c
:102f48000080e80010407800104f98007e00900044
:102f58006300400010407800004f98007e00900009
:102f68006800400010407800104798007e009000ec
:102f78006900400010407800004f78007e00900003
:102f88006600400010407800504798007e0090008e
:102f9800670040001040780040479800ce0090003d
:102fa800f00f2000808f5000030036002e009000a4
:102fb800710120009e010700d4c8bf00e64f5000f1
:102fc80009003a009e00780000302000808f5000f1
:102fd8000200320000402000000f78000000eb00e3
:102fe80043010700fc003700d4c8bf00e24f50007f
:102ff80003003a000000eb003d010700f60037002f
:10300800d4c8bf00e44f500003003200d4c8bf004a
:10301800e34f500050003a009e0078001020200036
:10302800808f50001b003a007e009000780040001e
:1030380010407800304798007e00900079004000ea
:1030480010407800204798001e0090000000e00023
:1030580008003a0050c0b300d4e8b7009146800099
:1030680010c0b300010001000000eb00e04688003a
:10307800d90037001e009000e10f5000d6003a003a
:1030880060c0b300d4e8b70010002000400107007a
:10309800d10037009e00780030102000808f50004b
:1030a80012003a007e0090006c004000104078004a
:1030b800704798007e0090006d0040001040780036
:1030c800604798003e0090000000e00003003a00ce
:1030d8007e009000ff010700bf0037002e0090001f
:1030e8001100200052010700bb0037009e00780045
:1030f80000102000808f5000100032009e007800e1
:1031080010102000808f50000c0032009e007800c4
:1031180040102000808f5000080032009e00780088
:1031280050102000808f5000040032009e0078006c
:1031380060102000808f500004003a002e0090009c
:10314800110020003a010700a30037000000eb003f
:10315800e7000700a0003700d4c8bf00e54f5000c3
:103168009d003a009e00780030102000808f5000ab
:1031780012003a007e0090006c0040001040780079
:10318800704798007e0090006d0040001040780065
:10319800604798003e0090000000e00003003a00fd
:1031a8007e009000cb0107008b0037002e009000b6
:1031b800110020001e010700870037009e007800dc
:1031c80010202000808f50000f003a007e009000f1
:1031d8007200400010407800304f98007e00900048
:1031e8007300400010407800204f9800de009000e7
:1031f800d0d12000808f500077003a000000eb000b
:1032080020478800740037009e0078007010200066
:10321800808f500062003a007e0090006e004000ef
:1032280010407800504f98007e0090006f004000da
:1032380010407800404f9800ee00900070c12000c8
:10324800808f500052003a007e0090001302070061
:1032580010002000404788005147800070ceb3001e
:1032680080487800504780008000e8000040eb006c
:1032780080487800504780008080e8000040eb00dc
:103288008048780050478000e3004000e0c0b30069
:103298008048780050478000e40040000040eb0080
:1032a8008048780050478000e5004000c0c0b30067
:1032b8008048780050478000e60040002e009000cb
:1032c8004800de008048780050478000e700400052
:1032d8002e0090008048780050478000e8004000a9
:1032e80020c0b3008048780050478000e9004000c3
:1032f80070c0b3008048780050478000ea00400062
:103308000040eb008048780050478000eb00400008
:1033180060c0b3008048780050478000ec0040004f
:103328000040eb008048780050478000ed004000e6
:103338000040eb008048780050478000ee004000d5
:10334800c0c0b3008048780050478000ef004000bc
:1033580070c1b3008048780050478000f0004000fa
:103368000040eb008048780050478000f1004000a2
:103378000040eb0080487800514780008001eb0056
:103388002201200080c0b3006d0207001200370040
:103398002e00900091002000a50007000e003700c5
:1033a8009e00780040102000808f500004003a00f2
:1033b8002e009000910020009d00070006003700b5
:1033c8009e00780030202000808f500002003a00d4
:1033d8000000eb00460007000080fa00000006002d
:1033e8000200fa00000f7800d4c8bf00e24f500076
:1033f80009003200d4c8bf00e44f50000600320074
:10340800d4c8bf00e64f500003003200d4c8bf0044
:10341800e54f500002003a000000eb0034000700be
:103428000080fa00000006000200fa00000f780091
:10343800d4c8bf00e24f500003003a000000eb0080
:103448002b0007001c003700d4c8bf00e64f50000f
:1034580006003a001300200062002000e1672800ff
:1034680080c0b3003602070013003700d4c8bf007d
:10347800e54f500006003200d4c8bf00e34f5000ab
:1034880003003200d4c8bf00e44f50000a003a00dd
:1034980010c0b300d4e8b700130020006200200079
:1034a800e167280080c0b30025020700914680002c
:1034b80030c0b300010001000000eb0000478800a5
:1034c8000080fa00000006000200fa00000f7800f1
:1034d80010c0b300d4e8b7009146800030c0b300f4
:1034e80001000100f00007000080fa00000006005b
:1034f8000200fa00000f78005147800060ceb30048
:1035080080487800504780008000e8000040eb00c9
:1035180080487800504780008080e8000040eb0039
:103528008048780050478000e300400020c0b30086
:103538008048780050478000e40040001e00780072
:103548000080fb004880de008048780050478000fb
:10355800e50040001e0078008048780010c0b300e5
:10356800d4e8b700514780008001eb0062002000da
:1035780080c0b300f20107009146800030c0b3005c
:1035880001000100c80007000080fa0000000600e2
:103598000200fa00000f78005147800040ceb300c7
:1035a80080487800504780008000e8000040eb0029
:1035b80080487800504780008080e8000040eb0099
:1035c8008048780050478000e300400020c0b300e6
:1035d8008048780050478000e40040001e007800d2
:1035e8000080fb004880de0080487800504780005b
:1035f800e50040001e0078008048780060c0b300f5
:10360800d4e8b700514780008001eb006200200039
:1036180080c0b300ca0107001000200000478800de
:1036280080bb2000104788000080fa0000000600d8
:103638000400fa00000f7800110798005147800035
:1036480070ceb30080487800504780008000e800c2
:103658000040eb0080487800504780008080e800f8
:103668000040eb008048780050478000e3004000ad
:10367800c0c0b3008048780050478000e400400094
:103688000040eb008048780050478000e50040008b
:10369800a0c0b3008048780050478000e600400092
:1036a8001e0078004800de008048780050478000ff
:1036b800e70040001e0078008048780050478000ee
:1036c800e800400030c0b3008048780050478000d0
:1036d800e90040000040eb00804878005047800037
:1036e800ea0040000040eb00804878005047800026
:1036f800eb00400040c0b30080487800504780008d
:10370800ec0040001e0090004800de008048780071
:1037180050478000ed0040001e009000804878006f
:1037280050478000ee0040000040eb0080487800e1
:1037380050478000ef0040000040eb0080487800d0
:10374800514780008001eb000201200080c0b300d7
:103758007b0107000080fa00000006000000fa0064
:10376800b0468000e10f500023003a00d4c8bf00e3
:10377800e24f500020003a00c04680000000e900f7
:10378800c0468800c04680000000e0001a003c00e7
:10379800dac8bf000004e00013003400dac8bf0034
:1037a8000040e900dae8b70020c0b300d4e8b70069
:1037b8001300200062032000e13f280080c0b3000e
:1037c8005f010700514780000001eb0080c0b30093
:1037d8001a01070010002000b0468800007122007e
:1037e800c0468800040037000000eb00b04688009f
:1037f800200020003eff0700e0468000e10f500057
:103808000d003a00d4c8bf00e44f50000a003a0047
:10381800f04680000000e900f0468800f04680008d
:103828000000e00004003c000000eb00e0468800d7
:10383800200020002eff070000478000e10f500005
:103848000a003a00104780000000e900104788008d
:10385800104780000000e00004003c000000eb007e
:10386800004788002000200021ff07002047800033
:10387800e10f50000a003a00304780000000e900dc
:1038880030478800304780000000e00004003c001a
:103898000000eb00204788002000200014ff0700ec
:1038a8000080fa00000006000000fa000000eb00ab
:1038b800b04688000000eb00e04688000000eb00fe
:1038c800004788000000eb00204788000080fa00cd
:1038d800000006001200fa00000f98000e08900081
:1038e8006600400010407800504798000e0890008d
:1038f8006700400010407800404798000e0890008c
:103908006e00400010407800304798000e08900084
:103918006f00400010407800204798001e0090007b
:103928000000e00058003a00c04c2800300798001a
:103938000000eb00000f78000900370051478000b5
:103948001e00780000814000be0090001140780001
:10395800004978000100e800300798001e0fe800d1
:10396800f00920009e0f1000f4ff36005047800039
:10397800e60040002e0090004800de0080487800f5
:1039880050478000e70040002e00900080487800f3
:103998006800470074f30700504780008109200041
:1039a8008080400000c2b300804878005047800003
:1039b80091092000808040000e48900080487800df
:1039c80050478000a1092000808040003e489000b8
:1039d8008048780050478000b1092000808040006e
:1039e8002e4890008048780050478000c109200088
:1039f800808040004e489000804878005047800002
:103a0800d1092000808040007e48900080487800de
:103a180050478000e1092000808040006e489000f7
:103a28008048780050478000f109200080804000dd
:103a38000040eb008048780040478000e10f5000cc
:103a480006003a005047800051082000808040005e
:103a580000cab3008048780005003700504780004e
:103a6800510820008080400000c2b30080487800e0
:103a7800514780008001eb00020a200080c0b3009b
:103a8800af000700030037002e00900081012000de
:103a9800e7fe07000080fa00000006000a00fa00ae
:103aa800400798004e0090007300400010407800d6
:103ab800004f78004e0090007400400010407800dd
:103ac800304798004e009000750040001040780084
:103ad800204798004e009000760040001040780083
:103ae800404798004e009000770040001040780052
:103af800704798004e009000780040001040780011
:103b080060479800110020000e007800b1f207000d
:103b18000080fa00000006000000fa0086c8bf0016
:103b28007f406000e14f500022003a0086c8bf0085
:103b380002c6b3008240600000c2b30080cf5000cc
:103b48001c003a008ac8bf000004e00019003a00cf
:103b580087c8bf000080fb000000e00001003200c1
:103b68001400370088c8bf008080fb0089c8bf00e8
:103b78000080fb004800dd00010070000000e0004c
:103b88000c003a00804680008ee8b700804680002e
:103b98000080fb004880de008fe8b700e088200046
:103ba80030428800200020005042880010c8b3002e
:103bb80048e8b7000080fa00000006000200fa009a
:103bc800000f780020c0b3009ee8b7000000eb00ab
:103bd8002045880080c0b300a2e8b7000000eb00d1
:103be800004588000000eb000045880000c4b300d1
:103bf800a6e8b70020c0b300ace8b7000000eb00af
:103c0800a045880080c0b300b2e8b7000000eb0010
:103c1800704588000000eb00b045880000c4b30080
:103c2800b8e8b7001e007800e04488000000eb0008
:103c3800804688000080fa00000006000c00fa00a8
:103c48004047980031079800420798000040eb0071
:103c5800004f78000040eb00104798000e00370036
:103c68001e4090000080fb006e00b900e400400098
:103c7800e089200000804000904078004e4090008d
:103c880000c060000004e00006003a001e409000fa
:103c98000040e800104798001e4090000004e00033
:103ca800efff32001e409000e14f500003003a0041
:103cb8000000eb00500798001e0037001e409000df
:103cc8000080fb006e00b90080007800e0892000c9
:103cd80000804000100798001e009000be00900071
:103ce800510098001e009000ce409000414098007e
:103cf8004e009000804078001e0090001148980007
:103d08001e0090008048900002a020001e00900035
:103d180010407800814178008040eb0052f50700a0
:103d2800800078001e009000610098001e80fb0053
:103d3800500798005e0090000080fa00000006001e
:103d48000c00fa0040479800310798004207980095
:103d5800530798000040eb00104798000e0037000a
:103d68001e4090000080fb007200b900e600400091
:103d7800c08a200000804000904078004e409000ab
:103d880000c060000004e00006003a001e409000f9
:103d98000040e800104798001e409000e14f500096
:103da800efff36001e409000e24f500067003200df
:103db8001e4090000080fb007200b900800078006f
:103dc800c08a200000804000100798001e00900064
:103dd800100090000000e0005c003a001e00900017
:103de800400090000000e00058003a001e009000db
:103df800ce009000110098001e009000de00900098
:103e0800210098001e009000900090001e00900075
:103e1800404890000080fb00808f5000060036006c
:103e28001e009000404890008080fb001e0090001b
:103e380051009800040037001e0090009000900088
:103e48001e009000510098009ec0a9001e0090001e
:103e5800be009000710098001e0090005000900075
:103e6800004f780000a42000c04488001e00900085
:103e780020009000e10f50000100320011003700cf
:103e88003e009000b04488000b003700c144800019
:103e9800b04480001040780080487800c04480001a
:103ea8000000e800c0448800b04480000000e8003a
:103eb800b04488001e4fe9001e04e000f3ff3a00fa
:103ec80010003700be009000b14488000b00370096
:103ed800c1448000b04480001040780080487800d9
:103ee800c04480000000e800c0448800b04480005e
:103ef8000000e800b04488001e4fe9001e04e000fe
:103f0800f3ff3a001e0090005000900080407800b7
:103f180002a420001e009000104078008141780023
:103f280011c0b300d0f40700800078001e00900094
:103f3800010898001e009000104078000080fb00e7
:103f480011002000610107009ec0a8000080fa004f
:103f5800000006000a00fa00400798004e00900092
:103f680010407800704798007e40900068406000dc
:103f78000004e000c20032000040eb00004f78006f
:103f88000e0037001e80fb007200b9008000780028
:103f9800c08a200000804000104078008080fb002c
:103fa8007e4090000080fb004400de000080fb00a3
:103fb800808f5000040032001e4fe80010c0b3008c
:103fc8009e4f1000efff36001e80fb007200b90004
:103fd80080007800c08a20000080400020079800f8
:103fe8002e009000104078000080fb008000eb005d
:103ff800360107002e009000c00090002e009000af
:1040080000089000104078000080fb00808040008d
:104018002e009000410098002e009000c0009000f3
:104028002e00900010009000808f50001e003a0073
:104038002e00900000089000104078000004e00076
:10404800190032002e009000900090002e00900081
:10405800404890000081fb00110009008280d800d0
:104068008000fd000000e0000f003a002e009000e4
:10407800104078008041eb000001eb0011c0b30054
:1040880079f40700800078002e009000010898005d
:104098002e009000104078000080fb0011002000e6
:1040a8000a010700070137002e009000c0009000a9
:1040b8002e00900010009000808f50000b003900f7
:1040c800ae0090000000eb0090009800ae00900059
:1040d8000000eb00c0009800e24480008000eb0084
:1040e80010c0b30002000100f60037002e00900057
:1040f800c00090002e00900010009000808f5000ab
:10410800130031002e009000900090002e009000c7
:1041180040009000808050002e00900051009800d0
:104128002e009000d00090002e0090004048900093
:104138000080fb00808f5000050036002e009000a4
:10414800404890008080fb002e00900051009800ad
:104158009ec0a9002e009000500090006047980073
:1041680000a42000c04488002e0090002000900089
:10417800e10f500018003a002e009000f000900067
:104188002e0090004000900000804000b04488005d
:104198000d003700c1448000b04480001040780012
:1041a80080487800c04480000000e800c0448800cf
:1041b800b04480000000e800b04488006e409000e1
:1041c8000040e900604798006e4090000004e0005d
:1041d800f0ff3a00170037002e009000f000900022
:1041e8002e0090004000900000804000b0448800fd
:1041f8000d003700c1448000b044800010407800b2
:1042080080487800c04480000000e800c04488006e
:10421800b04480000000e800b04488006e40900080
:104228000040e900604798006e4090000004e000fc
:10423800f0ff3a002e009000500090008040780077
:1042480002a420002e0090001040780081417800e0
:1042580011c0b30004f40700800078002e0090001d
:10426800010898002e009000104078000080fb00a4
:1042780011002000950007009ec0a800900037009c
:104288000040eb00004f78000e0037001e80fb0056
:104298006e00b90080007800e089200000804000ae
:1042a800104078008080fb007e4090000080fb007a
:1042b8004400de000080fb00808f500003003200c5
:1042c8001e4fe8001e04e000f0ff32001e80fb00d5
:1042d8006e00b90080007800e0892000008040006e
:1042e800100798001e009000600090009040780031
:1042f8001e009000114898001e0090001048900081
:104308000004e000290032001e0090001000900018
:104318000000e00012003a009e0090000000eb0050
:10432800b00098001e009000104890000081fb002b
:104338001e0090005000900001a0200026f1070008
:10434800e2448000a189200030c0b30002000100cf
:10435800d14480001e00900011009800130037001f
:104368001e0090009000900000102000808f5000e8
:10437800040036009e0090000000eb00b00098009a
:104388000a0037001e009000104890000081fb00d2
:104398001e009000d00090001e0090003000900099
:1043a8000080400001a020000bf107001e009000d3
:1043b800b00090001e009000104890000080fb00a4
:1043c800808040001e009000310098001e00900080
:1043d800b00090001e00900010009000808f5000e8
:1043e8000b0031001e009000104990001e00900044
:1043f800804890000280fb000181fb001100090049
:104408000280d8008000fd000004e0002000320097
:104418001e009000900090001e0090000048900040
:104428000081fb00110009008280d8008000fd0097
:104438000000e0000a003a001e00900010489000ba
:104448000004e000060032001e00900010407800d2
:104458008041eb000001eb008040eb0082f3070095
:104468009e0090000000eb00b00098009e009000b5
:104478000000eb0090009800e24480008000eb0010
:1044880020c0b300020001009ec0a8000d00370044
:104498001e00900010009000804078001e009000e0
:1044a8003000900080c0500002a020001e00900044
:1044b80010407800814178008040eb006af30700e3
:1044c8009ec0a8000080fa00000006000400fa0060
:1044d800000f7800110798001e009000e10f5000af
:1044e80008003a009e007800100020000100dd005e
:1044f8008000780080468000008070008046880038
:10450800080037009e007800100020000100dd0040
:104518000080ea008000780080468000008060000b
:10452800804688000080fa00000006000000fa00bb
:104538001100070084c4bf00684060000004e00068
:1045480002003a003ef407008601070084c4bf0059
:10455800684060000004e0000500320080428000ee
:104568000000e00002003a003ef407007d01070069
:104578003b000700efff37000000fa000080eb0067
:10458800601988008464a80003000700dcf10700b4
:104598000080fa00000006000800fa000040eb0066
:1045a800f0e8b7000000eb00604788000040eb002f
:1045b800f1e8b7000000eb0070478800a117800001
:1045c800f0e12f0000806000a017880081178000ac
:1045d800f0e12f00008060008017880061178000dc
:1045e800f0fc2f00008060006017880041178000f1
:1045f800f0fc2f000080600040178800d8c2a80097
:10460800d8e2a80057010700c9ef0700daef070052
:1046180010c1b3004047980010c2b300704798001b
:1046280060c5b3006047980000c1b30020479800f8
:1046380020c1b3003047980010c1b300004f780084
:1046480060c0b30050479800110020000e007800a9
:10465800e0ef070027e6a8000080fa000000060047
:104668000000fa000b00070080428000ff0f500096
:104678000600360088c4bf00624060000004e00005
:104688000100320001003700480107000080fa00ed
:10469800000006000000fa00e04780000000e0008b
:1046a80002003a0000712200e0478800e0478000dd
:1046b8000000e900e047880088c4bf00624060004d
:1046c8000004e00016003200e04780000000e0002f
:1046d8006b003a00811780000018200000806800f5
:1046e8008017880081178000f0e72f0000806000a5
:1046f8000000e0000500320080178000010620005d
:1047080001007000801788005d0037008017800066
:10471800f1f92f0001006000801788005800370069
:10472800804280000000e00009003a008117800004
:10473800f0e72f0000806000801788008117800054
:10474800f0f92f0000806000801788004c003700c7
:1047580080428000e10f500009003a008117800074
:1047680000182000008070008017880081178000e2
:104778000006200000807000801788004000370085
:1047880080428000e20f500009003a008117800043
:1047980000182000008070008017880081178000b2
:1047a800f0f92f000080600080178800340037007f
:1047b80080428000e40f500009003a008117800011
:1047c800f0e72f00008060008017880081178000c4
:1047d800000620000080700080178800280037003d
:1047e80080428000f00f50000c003a00e047800043
:1047f8000000e00022003a00811780000018200025
:10480800008068008017880081178000f0f92f0069
:1048180000806000801788001900370081428000fe
:1048280000022000808f500015003a00e047800009
:104838000000e00012003a008117800000182000f4
:10484800008068008017880081178000f0e72f003b
:10485800008060000000e000050032008017800042
:10486800f1f92f000100600080178800040037006c
:104878008017800001062000010070008017880062
:104888000080fa00000006000000fa009b01070003
:104898000080fa00000006000000fa000080fa001c
:1048a800000006000200fa006b010700dac2bf0030
:1048b8000080fb004600de00614060008080fb0055
:1048c80060478000808f500011003a00f0c8bf0098
:1048d8000004e00004003200f0c8bf000040e90016
:1048e800f0e8b70010003700dac2bf000080fb0014
:1048f8004600de000004a2000080fb0061006000aa
:104908006047880040c6b300f0e8b70006003700eb
:10491800f0c8bf000004e00003003200f0c8bf0088
:104928000040e900f0e8b700dac2bf000080fb00f1
:104938004700de008080fb0070478000808f5000b9
:1049480013003a00f1c8bf000004e0000400320080
:10495800f1c8bf000040e900f1e8b70012003700d5
:10496800dac2bf008000eb00010f78000004e0000d
:104978000200350010002000000f78009e0078002b
:104988007147880040c6b300f1e8b7000600370059
:10499800f1c8bf000004e00003003200f1c8bf0006
:1049a8000040e900f1e8b7000080fa0000000600c6
:1049b8000000fa000080fa00000006000000fa007b
:1049c80055fc07000080fa00000006000000fa000d
:1049d8000080fa00000006000000fa00d1c1b30010
:1049e80020c0b300fff107000080fa0000000600b5
:1049f8000000fa0060428000e10f50001b003a00fe
:104a080070428000e10f500018003a009ec0a900d3
:104a1800a1ff07008824a9000000eb00704288006d
:104a280000e12000f0478800f04780000000e9001e
:104a3800f0478800f04780000000e000faff3a00e5
:104a48009444a80080702000f0478800f047800058
:104a58000000e900f0478800f04780000000e0000f
:104a6800faff3a009444a9009ec0a8000080fa000a
:104a7800000006000800fa00000f780011079800ef
:104a8800220798001e0078003007980020072000b1
:104a9800be009000808f50002d00320020072000bb
:104aa800be009000808f50000a003e003e0090003b
:104ab800e20f50001a003200be009000e38f500051
:104ac800190032003e009000e10f50001200320041
:104ad8002100370040072000be009000808f500062
:104ae8001700320040072000be009000808f500061
:104af8000f00390050072000be009000808f500042
:104b08000d003200f0ff2700be009000808f50009b
:104b18000d00320010003700afff07000e0037000d
:104b2800aaff07000c003700a4ff07000a0037009f
:104b38005cff07000800370053ff07000600370036
:104b480055ff07000400370099ff070002003700ef
:104b58001e009000fffc0700100020000080fa00f3
:104b6800000006000000fa000040eb00f2e8b70081
:104b780000632200aaf7070000902000b7f707009b
:104b88000040eb00f6e8b7000000eb00a047880003
:104b98000080fa00000006000000fa00f2c8bf001a
:104ba8000080fb000080fa00000006000000fa0008
:104bb800604780000000e00013003200c04780001a
:104bc8000000e00012003a0010002000c0478800f2
:104bd800f2c8bf000004e00002003a003af80700fb
:104be80006003700f2c8bf00e14f500003003a004a
:104bf80040c0b300f2e8b7004af8070010002000f0
:104c0800c0478800020037000000eb00c04788005a
:104c1800704780000000e0000b003200d0478000a1
:104c28000000e0000a003a0010002000d047880089
:104c3800f2c8bf00e14f500005003a001e0007000f
:104c48004cf80700020037000000eb00d04788004e
:104c58000080fa00000006000400fa00004f780007
:104c68001e80fb00100798001e009000e20f500005
:104c78000a0032001e009000e30f50000a003200c4
:104c88001e009000e10f50000100320008003700bc
:104c980010c0b300f2e8b7000500370010c0b30039
:104ca800f2e8b700020037000040eb00f2e8b70076
:104cb8000080fa00000006000e00fa00c056280026
:104cc800600798000040eb00004f780008003700ac
:104cd8009e81fb006e0190009240780000902000b9
:104ce800817178000200e800600798001e4fe80014
:104cf800b0c2b3009e4f1000f5ff3600518f200060
:104d0800914078008091200001487800418f200070
:104d1800914078009091200001487800a0478000d9
:104d28000000e800a047880023000700100798004b
:104d3800be4090002092200001487800ae409000cc
:104d480030922000014878006400470086ee070092
:104d58004192200000c2b30080487800ce40900005
:104d68005092200001487800fe4090006092200098
:104d780001487800ee4090007092200001487800c9
:104d88008e4890008092200001487800be4890002c
:104d98009092200001487800ae489000a092200030
:104da80001487800b19220000040eb00804878006c
:104db8000080fa00000006000600fa002c03a90093
:104dc80023c3bf007f40600023e3b70000c0eb00af
:104dd80024e3b70020c3bf007f40600020e3b70092
:104de800513220009140780000ceb30000c060002e
:104df8000004a00025e3b70011322000914078009c
:104e0800c0cfb30000c0600021e3b700213220000a
:104e18009140780030ccb30000c0600022e3b700b6
:104e280021e3a800640047000f0007002e0090004f
:104e3800100798001e0090000000d1007e0040007e
:104e4800100798001e009000000f78001e007800e0
:104e58000080fa00000006000000fa003ffa070090
:104e68000080fa00000006000400fa00100798000d
:104e78000000eb00401988002023a8000000eb0088
:104e8800000f7800030037001e0078000000e800db
:104e9800000f78009e007800703e2000808f500040
:104ea800f9ff36002023a9000000eb00000f78006e
:104eb800030037001e0078000000e800000f7800ab
:104ec8009e007800703e2000808f5000f9ff360069
:104ed80020c3bf00614060000004e000fcff320016
:104ee80000188000000f78001e0090001e0878004f
:104ef8001e0090000080fa00000006000800fa007a
:104f080080248000300798006124800021079800e1
:104f180010248000100798009ec0bf000080fb008e
:104f28004600de0061406000004f78000000eb00a2
:104f3800802488000000eb00602488000000eb005b
:104f4800102488008ec0a9008284a80000012000d7
:104f5800002488009ec0a8000040fe009e40780003
:104f680061c06000614060004601dd00e109200089
:104f780091407800f0cbb30000c0600002407000a0
:104f88009ee0b7003e00900080248800ae009000ac
:104f9800612488001e009000102488001000200062
:084fa8000080fa000000060081
:020000040000fa
:104fb000fc080000040000000000000040080000a1
:104fc0005600000000000000000800004000000043
:104fd00000000000000a0000800000000000000047
:104fe000960800003c00000000000000d20800000d
:104ff0001a0000000000000000090000000100008d
:1050000000000000f608000006000000020000009a
:105010000000000000000000ec0800000a00000092
:08502000000000000000000088
:00000001FF
