:020000040000fa
:080000000002040000000000f2
:020000040000fa
:100400004f902000007f24000001880000000000c1
:100410000a00070011000700000020000000e000b3
:1004200002003200000002000000000058d8020064
:10043000000000000040da000000fe004440a90077
:10044000605f21000000e000030032000000200097
:10045000a00188004440a80000000600c0ca2d008a
:10046000010020001500370062004000e0804800d5
:10047000910188009001ba0062004000e0804800cd
:10048000910188009002ba0062004000e0804800bc
:100490000002eb006028e10004003a000059eb0084
:1004a0008301e900fdff3e00040037006128e10000
:1004b000010032000082eb00050007009101880076
:1004c0001001ba000200e000e7ff3a00000005005a
:1004d000910188008002780062004000e0804800be
:1004e0003559ba008301e900080032002559ba00e5
:1004f0008301e900050032000400e000f4ff32004f
:1005000015d9ba008301e900f1ff3a0000000600a6
:10051000dcdb0400000000007edc040000000000c2
:08052000a2dc04000000000051
:020000040000fa
:0200000401f009
:04000c00faff0000f7
:020000040000fa
:0200000401f009
:040010007dff000070
:020000040000fa
:0200000401f009
:040014007fff00006a
:020000040000fa
:10000800f0dc0000f0dc0000f0dc0000f0dc0000b8
:10001800f0dc0000f0dc0000f0dc0000f0dc0000a8
:10002800f0dc0000f0dc0000f0dc0000f0dc000098
:10003800f0dc0000f0dc0000f0dc0000f0dc000088
:020000040000fa
:020000040000fa
:10052800000000001c0000007f000000001c00000c
:10053800000b000098010000000b0000d001000033
:10054800000b000008020000000b00004002000041
:100558000005000078020000000700009402000077
:10056800000a0000b0020000000b0000e8020000d2
:10057800000b0000200300000011000058030000d9
:1005880000100000ac03000000060000e4030000b7
:100598000008000000040000000800001c0400001f
:1005a800000b000038040000000a0000700400007e
:1005b80000060000a804000000080000c4040000b1
:1005c80000060000e0040000000b0000fc0400002e
:1005d800000b000034050000000b00006c05000053
:1005e800000c0000a4050000000b0000dc05000062
:1005f800000c000014060000000b00004c06000070
:10060800000b000084060000000b0000bc06000080
:10061800000c0000f4060000000b00002c0700008e
:1006280000060000640700000006000080070000c4
:10063800000b00009c070000000b0000d40700001e
:10064800000b00000c080000000a0000440800002d
:10065800001400007c080000000e0000d008000014
:10066800000d000008090000000d0000400900000e
:10067800000e000078090000000c0000b00900001e
:10068800000b0000e8090000000e0000200a00002e
:1006980000100000580a000000070000900a00003f
:1006a80000070000ac0a0000000e0000c80a0000a5
:1006b800000b0000000b000000130000380b0000c6
:1006c800001000008c0b0000000e0000c40b00009e
:1006d800000d0000fc0b0000000e0000340c0000b0
:1006e800000d00006c0c0000000b0000a40c0000c2
:1006f800000d0000dc0c000000100000140d0000cc
:10070800001000004c0d000000140000840d0000d3
:10071800000f0000d80d0000000e0000100e0000b1
:10072800000d0000480e000000070000800e0000c9
:10073800000b00009c0e000000080000d40e000012
:10074800000c0000f00e0000000b0000280f000055
:1007580000080000600f0000000b00007c0f000084
:10076800000c0000b40f0000000a0000ec0f0000ad
:10077800000c000024100000000b00005c100000ba
:100788000007000094100000000c0000b0100000ea
:10079800000d0000e8100000000700002011000014
:1007a800000600003c110000000c00005811000079
:1007b800000700009011000000140000ac110000b8
:1007c800000d000000120000000c000038120000ac
:1007d800000d000070120000000c0000a8120000bc
:1007e800000a0000e01200000009000018130000d1
:1007f8000008000050130000000d00006c130000fa
:10080800000c0000a413000000110000dc1300001d
:10081800000c000030140000000c000068140000f8
:10082800000b0000a014000000080000d81400000d
:1008380000060000f4140000000800001015000075
:10084800000c00002c1500000005000064150000d5
:100858000000000000000000000000000000000090
:10086800000000000040000000c0000001c00000bf
:1008780003c0000007c000000fc000001fc0000038
:100888003fc000007fc000003fc000001fc0000044
:100898000fc0000007c0000003c0000001c0000036
:1008a80000c0000000400000000000000000000040
:1008b8000000000000000000000000000000000030
:1008c8000000000000000000000000000000000020
:1008d8000000000040000000600000007000000000
:1008e800780000007c0000007e0000007f0000000f
:1008f8007f8000007fc000007f8000007f00000034
:100908007e0000007c0000007800000070000000fd
:10091800600000004000000000000000000000002f
:1009280000000000000000000000000000000000bf
:1009380000000000000000000000000000000000af
:100948000000000000000000040000000400000097
:10095800040000000e0000000e0000000e00000061
:100968001f0000001f0000001f0000003f80000063
:100978003f8000003f8000007fc000007fc0000073
:100988007fc0000000000000000000000000000020
:10099800000000000000000000000000000000004f
:1009a800000000000000000000000000000000003f
:1009b80000000000000000007fc000007fc00000b1
:1009c8007fc000003f8000003f8000003f800000a3
:1009d8001f0000001f0000001f0000000e000000a4
:1009e8000e0000000e0000000400000004000000db
:1009f80004000000000000000000000000000000eb
:100a080000000000000000000000000000000000de
:100a180000000000000000000000000000000000ce
:100a280000000000000000000000000000000000be
:100a380000000000000000000000000000000000ae
:100a4800000000000000000000000000000000009e
:100a5800103000003030000030300000303000002e
:100a6800303000003010000010000000303000006e
:100a7800300000000000000000000000000000003e
:100a8800000000000000000000000000000000005e
:100a98003300000033000000330000003300000082
:100aa80033000000310000003100000000000000a9
:100ab800000000000000000000000000000000002e
:100ac800000000000000000000000000000000001e
:100ad800000000000000000000000000000000000e
:100ae80000000000000000000000000000000000fe
:100af80000000000000000000000000000000000ee
:100b08000000000000000000024000000640000055
:100b18000440000004c000003fe00000088000001e
:100b280009800000090000007fc0000013000000d9
:100b38001200000032000000220000002600000021
:100b4800000000000000000000000000000000009d
:100b5800000000000000000000000000000000008d
:100b6800000000000000000000000000000000007d
:100b78000000000006000000060000001fc0000082
:100b880036c00000664000006600000076000000e5
:100b98003e0000001f8000000780000006c0000023
:100ba80006c0000046c0000046c000006680000085
:100bb8003f000000060000000600000000000000e2
:100bc800000000000000000000000000000000001d
:100bd800000000000000000000000000000000000d
:100be80000000000000000000000000000000000fd
:100bf80000000000000c0000001c000008000000bd
:100c08002618000000630000300000006320000088
:100c1800006300006000000032c00000001d0000fa
:100c28009c00000001360000000300006300000083
:100c38000663000000040000630000000c6300006d
:100c48000018000032000000301c00000000000006
:100c5800000000000000000000000000000000008c
:100c6800000000000000000000000000000000007c
:100c7800000000000000000000000000000000006c
:100c88000000000000000000078000000cc0000009
:100c980018c0000018c0000018c00000198000002b
:100ca8001f0000000e0000001e7f00003638000004
:100cb800731800006198000060d8000060d0000040
:100cc80060700000305800001f8e00000000000017
:100cd800000000000000000000000000000000000c
:100ce80000000000000000000000000000000000fc
:100cf800303000003030000030300000300000009c
:100d080000000000000000000000000000000000db
:100d180000000000000000000000000000000000cb
:100d280000000000020c000008180000303000002d
:100d380030600000606000006060000060600000db
:100d4800606000003030000030180000180c00000f
:100d5800060000000000000000000000c060000065
:100d68003030000018180000180c00000c0c0000af
:100d78000c0c00000c0c00000c0c000018180000f3
:100d8800103000002060000080000000000000001b
:100d98000000000000000000000000000400000047
:100da800040000004480000075c000001e00000020
:100db8000e00000075c0000064c0000004000000c0
:100dc8000400000000000000000000000000000017
:100dd800000000000000000000000000000000000b
:100de80000000000000000000000000000000000fb
:100df80000000000000000000000000000000000eb
:100e080000000000000000000000000000000000da
:100e180000000000000000000000000000000000ca
:100e280000000000000000000c0000000c000000a2
:100e38000c0000000c0000007fc000008c000000c7
:100e48000c0000000c0000000c0000000000000076
:100e5800000000000000000000000000000000008a
:100e6800000000000000000000000000000000007a
:100e7800000000000000000000000000000000006a
:100e8800000000000000000000000000000000005a
:100e98000000000000380000581800001010000082
:100ea800200000000000000000000000000000001a
:100eb800000000000000000000000000000000002a
:100ec80000000000007e000000000000000000009c
:100ed800000000000000000000000000000000000a
:100ee80000000000000000000000000000000000fa
:100ef80000000000000000000000000000000000ea
:100f08000000000030300000300000000000000049
:100f180000000000000000000000000000000000c9
:100f28000060000000c0000000c000000080000059
:100f380001800000018000000100000003000000a3
:100f48000300000006000000060000000400000086
:100f58000c0000000c000000080000001800000051
:100f680018000000100000003000000030000000f1
:100f78006000000060000000400000000000000069
:100f88000000000000000000000000000000000059
:100f98000000000000000000000000000000000049
:100fa800000000000f0000001380000031800000e6
:100fb80021c0000060c0000060c0000060c00000e8
:100fc80060c0000060c0000060c0000060800000d9
:100fd80030800000310000000e000000000000001a
:100fe80000000000000000000000000000000000f9
:100ff80000000000000000000000000000000000e9
:1010080000000000000000000000000000000000d8
:10101800060000001e000000660000000600000038
:1010280006000000060000000600000006000000a0
:101038000600000006000000060000000600000090
:1010480006000000060000003fc00000000000008d
:101058000000000000000000000000000000000088
:101068000000000000000000000000000000000078
:101078000000000000000000000000000000000068
:10108800000000000f00000011c0000030c0000088
:1010980020c0000000c000000180000001800000a6
:1010a8000300000006000000040000000c0000001f
:1010b80018400000304000007fc000000000000021
:1010c8000000000000000000000000000000000018
:1010d8000000000000000000000000000000000008
:1010e80000000000000000000000000000000000f8
:1010f800000000001f000000238000006180000045
:101108000180000001000000020000000f00000044
:101118000180000000c0000000c0000000c0000006
:1011280000c00000418000003e00000000000000f8
:1011380000000000000000000000000000000000a7
:101148000000000000000000000000000000000097
:101158000000000000000000000000000000000087
:10116800018000000380000003800000058000006b
:101178000d80000009800000198000001180000027
:1011880021800000618000007fe0000001800000f5
:10119800018000000180000007e00000000000005e
:1011a8000000000000000000000000000000000037
:1011b8000000000000000000000000000000000027
:1011c8000000000000000000000000000000000017
:1011d800000000001fc000003000000030000000c8
:1011e80020000000200000003f00000021800000d7
:1011f80000c0000000c0000000c0000000c00000e7
:1012080000800000618000003e0000000000000037
:1012180000000000000000000000000000000000c6
:1012280000000000000000000000000000000000b6
:1012380000000000000000000000000000000000a6
:1012480001800000060000000c00000018000000eb
:1012580030000000200000006f00000071800000d6
:1012680060c0000060c0000060c0000060c00000f6
:1012780030800000318000000f00000000000000f6
:101288000000000000000000000000000000000056
:101298000000000000000000000000000000000046
:1012a8000000000000000000000000000000000036
:1012b800000000003fc0000040c000004080000067
:1012c8000080000001800000010000000300000011
:1012d8000200000006000000040000000c000000ee
:1012e8000c000000180000001000000000000000c2
:1012f80000000000000000000000000000000000e6
:1013080000000000000000000000000000000000d5
:1013180000000000000000000000000000000000c5
:10132800000000001f00000031c0000060c0000085
:1013380060c0000070800000390000000f800000cd
:1013480011c0000020e00000606000006060000044
:101358006060000030c000001f00000000000000b6
:101368000000000000000000000000000000000075
:101378000000000000000000000000000000000065
:101388000000000000000000000000000000000055
:10139800000000000f0000003180000021800000e4
:1013a80060c0000060c0000060c0000060c00000b5
:1013b80031c000001ec00000008000000180000055
:1013c80003000000060000000c00000030000000d0
:1013d8000000000000000000000000000000000005
:1013e80000000000000000000000000000000000f5
:1013f8000000000000000000003000003030000055
:101408000000000000000000000000003030000074
:101418003000000000000000000000000000000094
:1014280000000000000000000000000000000000b4
:101438000030000030300000000000000000000014
:1014480000000000003800005818000010100000cc
:101458002000000000000000000000000000000064
:101468000000000000000000000000000000000074
:101478000000000000000000000000000000000064
:1014880000c0000003c000001e000000780000003b
:10149800700000001c0000000780000000c0000071
:1014a8000000000000000000000000000000000034
:1014b8000000000000000000000000000000000024
:1014c8000000000000000000000000000000000014
:1014d8000000000000000000000000000000000004
:1014e80000000000000000000000000000000000f4
:1014f80000000000000000007fc0000000000000a5
:1015080000000000000000007fc000000000000094
:1015180000000000000000000000000000000000c3
:1015280000000000000000000000000000000000b3
:1015380000000000000000000000000000000000a3
:101548000000000000000000000000000000000093
:101558000000000000000000000000000000000083
:1015680060000000780000000f00000001c00000cb
:1015780003c000000e0000007800000040000000da
:101588000000000000000000000000000000000053
:101598000000000000000000000000000000000043
:1015a8000000000000000000000000000000000033
:1015b80000000000000000001f0000003380000051
:1015c800618000006180000001800000018000004f
:1015d8000300000003000000060000000e000000e9
:1015e8000c0000000c0000000c00000000000000cf
:1015f8000c0000000c0000000c00000000000000bf
:1016080000000000000000000000000000000000d2
:1016180000000000000000000000000000000000c2
:1016280000000000000000000000000000000000b2
:1016380000000000000000000000000000fc0000a6
:1016480000030000070000000c01000080180000e3
:1016580001c0000010f40000c03100001ce00000d0
:10166800230c0000606200000c600000660c0000a3
:10167800606600000c600000660c000060660000f8
:101688000c400000730c0000c03300003c800000d8
:1016980039c7000000180000000000000c0000001e
:1016a800800700000300000001fc000000000000ab
:1016b8000000000000000000000000000000000022
:1016c8000000000000000000000000000000000012
:1016d80000000000000000000100000003000000fe
:1016e80003000000078000000580000004c000001f
:1016f8000cc0000008c00000086000001fe00000e7
:101708001060000010300000303000002030000071
:10171800f87c00000000000000000000000000004d
:1017280000000000000000000000000000000000b1
:1017380000000000000000000000000000000000a1
:1017480000000000000000007f800000b0e0000002
:101758003060000030600000306000003080000021
:101768003fc0000030e00000307000003030000062
:1017780030300000303000003030000030600000b1
:10178800ff800000000000000000000000000000d2
:101798000000000000000000000000000000000041
:1017a8000000000000000000000000000000000031
:1017b800000000000000000003e000000c30000002
:1017c8001000000030000000200000006000000051
:1017d8006000000060000000600000006000000081
:1017e8006000000030000000381000001c200000dd
:1017f80007c000000000000000000000000000001a
:1018080000000000000000000000000000000000d0
:1018180000000000000000000000000000000000c0
:1018280000000000000000007f800000b0e0000021
:101838003070000030300000301800003018000010
:101848003018000030180000301800003018000070
:1018580030100000303000003060000030c0000060
:10186800ff800000000000000000000000000000f1
:101878000000000000000000000000000000000060
:101888000000000000000000000000000000000050
:101898000000000000000000ffc000003040000011
:1018a8003040000030000000300000003000000030
:1018b8003f800000310000003000000030000000d0
:1018c8003000000030000000302000003020000010
:1018d800ffe0000000000000000000000000000021
:1018e80000000000000000000000000000000000f0
:1018f80000000000000000000000000000000000e0
:101908000000000000000000ffc0000030400000a0
:1019180030400000300000003000000030000000bf
:101928003f8000003100000030000000300000005f
:1019380030000000300000003000000030000000df
:10194800fc00000000000000000000000000000093
:10195800000000000000000000000000000000007f
:10196800000000000000000000000000000000006f
:10197800000000000000000003e000000c30000040
:10198800100000003000000020000000600000008f
:10199800600000006000000060f800006030000097
:1019a8006030000030300000303000001830000097
:1019b80007c0000000000000000000000000000058
:1019c800000000000000000000000000000000000f
:1019d80000000000000000000000000000000000ff
:1019e8000000000000000000fc7e0000301800002d
:1019f80030180000301800003018000030180000bf
:101a0800301800003ff800003018000030180000bf
:101a1800301800003018000030180000301800009e
:101a2800fc7e000000000000000000000000000034
:101a3800000000000000000000000000000000009e
:101a4800000000000000000000000000fc30000062
:101a580030300000303000003030000030300000fe
:101a68003030000030300000fc00000000000000b2
:101a7800000000000000000000000000000000005e
:101a8800000000007e180000181800001818000058
:101a9800181800001818000018180000181800007e
:101aa8001818000010200000c0000000000000000e
:101ab800000000000000000000000000000000001e
:101ac8000000000000000000fcf80000306000008a
:101ad80030c00000318000003300000032000000f8
:101ae800340000003c000000360000003300000015
:101af8003180000030c0000030e00000307000008d
:101b0800fc3c000000000000000000000000000095
:101b180000000000000000000000000000000000bd
:101b280000000000000000000000000000000000ad
:101b38000000000000000000fc0000003000000071
:101b480030000000300000003000000030000000cd
:101b580030000000300000003000000030000000bd
:101b6800300000003000000030200000302000006d
:101b7800ffe000000000000000000000000000007e
:101b8800000000000000000000000000000000004d
:101b9800000000000000000000000000000000003d
:101ba800000000000000000000000000000000002d
:101bb8000000000078030000c01800000380000047
:101bc8001c070000803c0000058000003405000070
:101bd800803600000d8000003609000080330000c8
:101be800198000003311000080310000918000004e
:101bf80031b1000080300000a180000030e1000019
:101c080080300000c180000078470000c00000005c
:101c180000000000000000000000000000000000bc
:101c280000000000000000000000000000000000ac
:101c3800000000000000000000000000000000009c
:101c4800000000000000000000000000000000008c
:101c5800f03f0000300c0000380c00003c0c000085
:101c6800360c0000320c0000330c0000318c0000f0
:101c780030cc0000306c0000306c0000303c0000bc
:101c8800301c0000301c0000fc0c000000000000ac
:101c9800000000000000000000000000000000003c
:101ca800000000000000000000000000000000002c
:101cb800000000000000000000000000000000001c
:101cc80007c000000860000010300000303000003d
:101cd800201800006018000060180000601800005c
:101ce800601800006018000060100000303000002c
:101cf80030200000184000000f80000000000000a5
:101d080000000000000000000000000000000000cb
:101d180000000000000000000000000000000000bb
:101d280000000000000000000000000000000000ab
:101d38007f800000b0e0000030700000303000000c
:101d480030300000303000003060000030e000002b
:101d58003f8000003000000030000000300000002c
:101d68003000000030000000fc000000000000000f
:101d7800000000000000000000000000000000005b
:101d8800000000000000000000000000000000004b
:101d9800000000000000000000000000000000003b
:101da80007c000000860000010300000303000005c
:101db800201800006018000060180000601800007b
:101dc800601800006018000060100000303000004b
:101dd80030200000186000000780000000c00000ec
:101de80000600000001c000000000000000000006f
:101df80000000000000000000000000000000000db
:101e080000000000000000000000000000000000ca
:101e18007f800000b0c0000030600000306000002b
:101e2800306000003060000031c000003f0000005a
:101e380033000000330000003180000030c0000093
:101e480030c0000030600000fc38000000000000d6
:101e5800000000000000000000000000000000007a
:101e6800000000000000000000000000000000006a
:101e7800000000000000000000000000000000005a
:101e88001f000000318000006000000060000000ba
:101e9800700000007c0000003f0000000f80000080
:101ea80003c0000001c0000000c0000040c00000e6
:101eb80040800000618000003e000000000000003b
:101ec800000000000000000000000000000000000a
:101ed80000000000000000000000000000000000fa
:101ee80000000000000000000000000000000000ea
:101ef800fff00000861000008610000006000000b9
:101f080006000000060000000600000006000000b1
:101f180006000000060000000600000006000000a1
:101f280006000000060000001f80000000000000fe
:101f38000000000000000000000000000000000099
:101f48000000000000000000000000000000000089
:101f58000000000000000000000000000000000079
:101f6800fc3f0000300c0000300c0000300c00007a
:101f7800300c0000300c0000300c0000300c000069
:101f8800300c0000300c0000300c0000300c000059
:101f9800181800000c30000007e0000000000000e6
:101fa8000000000000000000000000000000000029
:101fb8000000000000000000000000000000000019
:101fc8000000000000000000000000000000000009
:101fd800f83e000030080000301800001818000013
:101fe80018100000183000000c2000000c20000021
:101ff80006600000064000000640000003c0000024
:1020080003800000038000000100000000000000c1
:1020180000000000000000000000000000000000b8
:1020280000000000000000000000000000000000a8
:102038000000000000000000000000000000000098
:10204800000000000000000000000000f82100006f
:10205800f0300000604000003060000040300000b8
:1020680070c0000030f00000801800009080000070
:1020780018980000801900009880000019090000d5
:10208800800900000d0000000f0d0000000e000088
:10209800070000000e07000000060000070000000f
:1020a8000402000000000000000000000000000022
:1020b8000000000000000000000000000000000018
:1020c8000000000000000000000000000000000008
:1020d80000000000000000000000000000000000f8
:1020e8000000000000000000fc7c00003030000010
:1020f800182000001c6000000cc0000006800000d2
:1021080003800000038000000780000004c0000076
:102118000ce00000086000001830000030180000d3
:10212800fc7c00000000000000000000000000002f
:102138000000000000000000000000000000000097
:102148000000000000000000000000000000000087
:102158000000000000000000e07c000030300000bb
:1021680018200000186000000c4000000cc000009f
:102178000780000007800000030000000300000043
:10218800030000000300000003000000030000003b
:102198000fc0000000000000000000000000000068
:1021a8000000000000000000000000000000000027
:1021b8000000000000000000000000000000000017
:1021c80000000000000000003fe000002070000058
:1021d80040c0000001c000000180000003000000b2
:1021e80003000000060000000e0000000c000000c4
:1021f80018000000180000003010000070300000c7
:102208007fe0000000000000000000000000000067
:1022180000000000000000000000000000000000b6
:10222800000000007e600000606000006060000048
:102238006060000060600000606000006060000096
:102248006060000060600000606000006060000086
:102258007e000000000000000000000000000000f8
:102268004000000060000000600000002000000046
:1022780030000000100000001800000018000000e6
:10228800080000000c0000000c0000000400000022
:102298000600000002000000030000000300000028
:1022a80001000000018000000180000000800000a3
:1022b80000c00000004000000060000000000000b6
:1022c800000000000000000000000000fc0c0000fe
:1022d8000c0c00000c0c00000c0c00000c0c000096
:1022e8000c0c00000c0c00000c0c00000c0c000086
:1022f8000c0c00000c0c0000fc00000000000000aa
:1023080000000000000000000000000002000000c3
:10231800060000000f0000000b0000000b0000008a
:10232800198000001180000030c0000020c00000ab
:1023380020c0000040600000000000000000000015
:102348000000000000000000000000000000000085
:102358000000000000000000000000000000000075
:102368000000000000000000000000000000000065
:102378000000000000000000000000000000000055
:102388000000000000000000000000000000000045
:102398000000000000000000000000000000000035
:1023a8000000000000000000000000000000000025
:1023b8000000000000000000000000000000000015
:1023c8000000000000000000000000007fe00000a6
:1023d80000000000000000000000000000000000f5
:1023e8000000000000000000e06000003010000065
:1023f80008000000000000000000000000000000cd
:1024080000000000000000000000000000000000c4
:1024180000000000000000000000000000000000b4
:1024280000000000000000000000000000000000a4
:102438000000000000000000000000000000000094
:102448000f00000031800000618000000180000062
:10245800038000001f8000003180000061800000c0
:1024680061800000638000003de000000000000083
:102478000000000000000000000000000000000054
:102488000000000000000000000000000000000044
:102498000000000030000000f000000030000000e4
:1024a8003000000030000000300000003000000064
:1024b8003380000034c0000038e0000030600000c5
:1024c80030600000306000003060000030600000c4
:1024d80030400000388000000f00000000000000bd
:1024e80000000000000000000000000000000000e4
:1024f80000000000000000000000000000000000d4
:1025080000000000000000000000000000000000c3
:1025180000000000000000000000000000000000b3
:1025280007c0000018c000003000000020000000b4
:102538006000000060000000600000006000000013
:1025480030000000384000000f800000000000004c
:102558000000000000000000000000000000000073
:102568000000000000000000000000000000000063
:102578000000000000c0000003c0000000c0000010
:1025880000c0000000c0000000c0000000c0000043
:102598000fc0000011c0000030c0000060c0000083
:1025a80060c0000060c0000060c0000060c00000a3
:1025b80030c0000033d000001ce000000000000024
:1025c8000000000000000000000000000000000003
:1025d80000000000000000000000000000000000f3
:1025e80000000000000000000000000000000000e3
:1025f80000000000000000000000000000000000d3
:102608000780000018c0000020c0000020c00000a3
:102618007fc0000060000000600000006000000053
:1026280030000000384000000f800000000000006b
:102638000000000000000000000000000000000092
:10264800000000000000000000000000000600007c
:102658000c1800003030000030300000fe30000060
:1026680030300000303000003030000030300000e2
:10267800fc00000000000000000000000000000056
:102688000000000000000000000000000000000042
:102698000000000000000000000000000000000032
:1026a80000000000000000001f30000031e00000c2
:1026b80060c0000060c0000060c000003180000001
:1026c8001f00000018000000300000003f0000005c
:1026d8001fe0000033f0000060300000c030000050
:1026e800c0200000604000003f80000000000000a3
:1026f80000000000000000000000000030000000a2
:10270800f000000030000000300000003000000041
:10271800300000003000000031c0000036600000ca
:102728003860000030600000306000003060000059
:102738003060000030600000306000003060000051
:10274800fdf800000000000000000000000000008c
:102758000000000000000000000000000000000071
:1027680000000000000000000030000030300000d1
:102778000000000030f00000303000003030000071
:102788003030000030300000fc0000000000000085
:102798000000000000000000000000000000000031
:1027a80000300000303000000000000030f0000071
:1027b8003030000030300000303000003030000091
:1027c8003030000030200000204000008000000071
:1027d80000000000000000000000000030000000c1
:1027e800f000000030000000300000003000000061
:1027f800300000003000000031f0000030800000a0
:1028080031000000360000003c00000036000000e7
:1028180036000000330000003180000030c00000a6
:10282800f870000000000000000000000000000038
:102838000000000000000000000000000000000090
:102848000000000000300000f030000030300000d0
:1028580030300000303000003030000030300000f0
:102868003030000030300000fc00000000000000a4
:102878000000000000000000000000000000000050
:102888000000000000000000000000000000000040
:102898000000000000000000000000000000000030
:1028a8000000000000000000000000000000000020
:1028b8000000000071c3000080b600006cc000007a
:1028c80038700000c030000060c0000030600000b8
:1028d800c030000060c0000030600000c030000060
:1028e80060c0000030600000c030000060c0000020
:1028f800fdfb0000f00000000000000000000000e8
:1029080000000000000000000000000000000000bf
:1029180000000000000000000000000000000000af
:10292800000000000000000000000000000000009f
:10293800000000000000000000000000000000008f
:10294800000000000000000071c00000b660000038
:102958003860000030600000306000003060000027
:10296800306000003060000030600000306000001f
:10297800fdf800000000000000000000000000005a
:10298800000000000000000000000000000000003f
:10299800000000000000000000000000000000002f
:1029a800000000000000000000000000000000001f
:1029b80000000000000000000f00000011c000002f
:1029c80020c00000606000006060000060600000df
:1029d8006060000060600000304000003880000047
:1029e8000f000000000000000000000000000000d0
:1029f80000000000000000000000000000000000cf
:102a080000000000000000000000000000000000be
:102a180000000000000000000000000000000000ae
:102a2800000000000000000071c00000b660000057
:102a380038700000303000003030000030300000c6
:102a48003030000030200000302000003840000006
:102a58003780000030000000300000003000000027
:102a68003000000030000000fc0000000000000002
:102a7800000000000000000000000000000000004e
:102a8800000000000000000000000000000000003e
:102a980000000000000000000f40000011c000000e
:102aa80030c0000060c0000060c0000060c00000ce
:102ab80060c0000060c0000030c0000031c00000ed
:102ac8001ec0000000c0000000c0000000c00000e0
:102ad80000c0000000c0000003f00000000000007b
:102ae80000000000000000000000000000000000de
:102af80000000000000000000000000000000000ce
:102b0800000000000000000033800000f780000093
:102b1800388000003800000030000000300000005d
:102b280030000000300000003000000030000000dd
:102b3800fc00000000000000000000000000000091
:102b4800000000000000000000000000000000007d
:102b5800000000000000000000000000000000006d
:102b6800000000000000000000000000000000005d
:102b780000000000000000003e00000066000000a9
:102b880060000000700000003c0000001e00000013
:102b9800070000000300000043000000420000009e
:102ba8007c000000000000000000000000000000a1
:102bb800000000000000000000000000000000000d
:102bc80000000000000000000000000010300000bd
:102bd800303000007fb0000030300000303000009e
:102be80030300000303100001e00000000000000fe
:102bf80000000000000000000000000000000000cd
:102c080000000000000000000000000000000000bc
:102c180000000000000000000000000000000000ac
:102c280030600000f1e0000030600000306000001b
:102c3800306000003060000030600000306000004c
:102c48003060000031e800001e7000000000000045
:102c5800000000000000000000000000000000006c
:102c6800000000000000000000000000000000005c
:102c7800000000000000000000000000000000004c
:102c8800000000000000000000000000000000003c
:102c9800f8f00000304000003040000030800000b4
:102ca8001880000019800000090000000d000000d5
:102cb8000f000000060000000600000000000000f1
:102cc80000000000000000000000000000000000fc
:102cd80000000000000000000000000000000000ec
:102ce80000000000000000000000000000000000dc
:102cf80000000000000000000000000000000000cc
:102d080000000000000000000000000000000000bb
:102d180000000000f887000080200000c2000000ca
:102d280030c20000003100004200000011660000bf
:102d380000110000640000001a340000001a0000ae
:102d4800340000000a380000000c000018000000e1
:102d58000c18000000000000000000000000000047
:102d6800000000000000000000000000000000005b
:102d7800000000000000000000000000000000004b
:102d8800000000000000000000000000000000003b
:102d9800000000000000000000000000000000002b
:102da8000000000000000000f9f0000030c0000042
:102db800188000000d0000000e0000000600000052
:102dc8000f0000001980000010c0000020e0000083
:102dd800f9f0000000000000000000000000000002
:102de80000000000000000000000000000000000db
:102df80000000000000000000000000000000000cb
:102e080000000000000000000000000000000000ba
:102e18000000000000000000f8f000003040000052
:102e2800304000003080000018800000188000004a
:102e3800090000000d0000000f000000060000005f
:102e48000600000006000000040000000c0000005e
:102e580008000000f0000000e00000000000000092
:102e6800000000000000000000000000000000005a
:102e7800000000000000000000000000000000004a
:102e880000000000000000003fc00000418000007a
:102e98004300000003000000060000000c000000d2
:102ea8000c00000018000000304000003040000016
:102eb8007fc00000000000000000000000000000cb
:102ec80000000000000000000000000000000000fa
:102ed8000000000001020000040c00000c0c0000bf
:102ee8000c0c00000c0c0000183000005c0c0000fa
:102ef8000c0c00000c0c00000c0c00000c06000070
:102f08000100000000000000003000003030000028
:102f18003030000030300000303000003030000029
:102f28003030000030300000303000003030000019
:102f38003030000030300000303000000000000069
:102f480000000000806000003030000030300000d9
:102f58003030000030300000381e0000183000000b
:102f680030300000303000003030000020400000d9
:102f780080000000000000000000000000000000c9
:102f88000000000000000000000000000000000039
:102f98000000000000000000000000000000000029
:102fa800000000001c2000003e20000047c0000078
:102fb8004380000000000000000000000000000046
:102fc80000000000000000000000000000000000f9
:102fd80000000000000000000000000000000000e9
:102fe80000000000000000000000000000000000d9
:102ff80000780000404000004040000040400000d1
:1030080040400000404000004040000040400000b8
:103018007800000000000000000000000000000030
:103028000000000094820000000100000810000069
:1030380009020000030a000011180000201900000e
:10304800120b0000040500000c1300001a210000f8
:1030580028300000292200001b1400000d06000083
:10306800070e0000151c0000232a0000313800005c
:10307800393200002b2400001d1600000f17000035
:103088001e2500002c3300003a3b0000342d0000c0
:10309800261f0000272e0000353c00003d360000aa
:1030a8002f3700003e3f00000004000020240000ed
:1030b80000000000080800000008000000080000e8
:1030c800494e000054450000524e0000414c00009b
:1030d800204600004c410000534800000045000015
:1030e80058540000455200004e4100004c2000009a
:1030f8004d4500004d4f00005259000000000000ef
:0c310800020000008a1800000000000017
:020000040000fa
:10311400ffd80000ffe00000001000004a46000055
:1031240049460000000100000101000000600000a9
:103134000060000000000000ffdb0000004300000e
:103144000001000001010000010100000101000074
:103154000101000001010000010100000101000063
:103164000101000001010000010100000101000053
:103174000101000001010000010100000101000043
:103184000101000001010000010100000101000033
:103194000101000001010000010100000101000023
:1031a4000101000001010000010100000101000013
:1031b4000101000001010000010100000101000003
:1031c40001ff0000db0000004301000001010000da
:1031d40001010000010100000101000001010000e3
:1031e40001010000010100000101000001010000d3
:1031f40001010000010100000101000001010000c3
:1032040001010000010100000101000001010000b2
:1032140001010000010100000101000001010000a2
:103224000101000001010000010100000101000092
:103234000101000001010000010100000101000082
:10324400010100000101000001010000ffc00000b5
:103254000011000008000000f0010000400300001d
:10326400012200000002000011010000031100000f
:1032740001ff0000c40000001f0000000001000066
:10328400050100000101000001010000010000002f
:103294000000000000000000000000000001000029
:1032a40002030000040500000607000008090000ee
:1032b4000a0b0000ffc4000000b50000100000006d
:1032c40002010000030300000204000003050000e3
:1032d4000504000004000000000100007d0100005e
:1032e4000203000000040000110500001221000088
:1032f4003141000006130000516100000722000064
:10330400711400003281000091a100000823000024
:1033140042b10000c115000052d10000f0240000a9
:103324003362000072820000090a000016170000d0
:10333400181900001a25000026270000282900007b
:103344002a3400003536000037380000393a0000ce
:10335400434400004546000047480000494a000035
:10336400535400005556000057580000595a0000a5
:10337400636400006566000067680000696a000015
:10338400737400007576000077780000797a000085
:10339400838400008586000087880000898a0000f5
:1033a400929300009495000096970000989900006d
:1033b4009aa20000a3a40000a5a60000a7a80000ec
:1033c400a9aa0000b2b30000b4b50000b6b700006b
:1033d400b8b90000bac20000c3c40000c5c60000ea
:1033e400c7c80000c9ca0000d2d30000d4d5000069
:1033f400d6d70000d8d90000dae10000e2e30000eb
:10340400e4e50000e6e70000e8e90000eaf1000076
:10341400f2f30000f4f50000f6f70000f8f90000fc
:10342400faff0000c40000001f01000000030000b8
:103434000101000001010000010100000101000080
:103444000100000000000000000000000001000076
:10345400020300000405000006070000080900003c
:103464000a0b0000ffc4000000b5000011000000ba
:10347400020100000204000004030000040700002d
:1034840005040000040000000102000077000000b1
:1034940001020000031100000405000021310000b6
:1034a4000612000041510000076100007113000082
:1034b40022320000810800001442000091a10000a3
:1034c400b1c100000923000033520000f0150000d0
:1034d40062720000d10a00001624000034e10000ea
:1034e40025f1000017180000191a00002627000013
:1034f400282900002a35000036370000383900003a
:103504003a43000044450000464700004849000093
:103514004a53000054550000565700005859000003
:103524005a63000064650000666700006869000073
:103534006a730000747500007677000078790000e3
:103544007a8200008384000085860000878800005a
:10355400898a0000929300009495000096970000d9
:10356400989900009aa20000a3a40000a5a6000058
:10357400a7a80000a9aa0000b2b30000b4b50000d7
:10358400b6b70000b8b90000bac20000c3c4000056
:10359400c5c60000c7c80000c9ca0000d2d30000d5
:1035a400d4d50000d6d70000d8d90000dae2000054
:1035b400e3e40000e5e60000e7e80000e9ea0000d3
:1035c400f2f30000f4f50000f6f70000f8f900004b
:1035d400faff0000da0000000c0300000100000004
:1035e4000211000003110000003f000000ff000072
:1035f400003f0000fa280000a28000000a28000012
:10360400a28000000a280000a28000000a2800000e
:10361400a28000000a280000a28000000a280000fe
:10362400a28000000a280000a28000000a280000ee
:10363400a28000000a280000a28000000a280000de
:10364400a28000000a280000a28000000a280000ce
:10365400a28000000a280000a28000000a280000be
:10366400a28000000a280000a28000000a280000ae
:10367400a28000000a280000a28000000a2800009e
:10368400a28000000a280000a28000000a2800008e
:10369400a28000000a280000a28000000a2800007e
:1036a400a28000000a280000a28000000a2800006e
:1036b400a28000000a280000a28000000a2800005e
:1036c400a28000000a280000a28000000a2800004e
:1036d400a28000000a280000a28000000a2800003e
:1036e400a28000000a280000a28000000a2800002e
:1036f400a28000000a280000a28000000a2800001e
:10370400a28000000a280000a28000000a2800000d
:10371400a28000000a280000a28000000a280000fd
:10372400a28000000a280000a28000000a280000ed
:10373400a28000000a280000a28000000a280000dd
:10374400a28000000a280000a28000000a280000cd
:10375400a28000000a280000a28000000a280000bd
:10376400a28000000a280000a28000000a280000ad
:10377400a28000000a280000ab9a0000769d000099
:10378400a86b00001a8500008e930000a458000066
:103794005eea00009aae0000a77900006da7000061
:1037a400e9ba0000669d00006b3d0000f6a1000030
:1037b400a85f0000de4c000096f60000963600007c
:1037c40036560000d1cb00007377000079750000f5
:1037d40071240000705b00005b5b0000c7240000e4
:1037e400d3cc0000e914000048ce0000caa40000b5
:1037f4006d240000db7600004b560000dec900009b
:103804007763000049b60000924d0000b6d2000074
:10381400492b0000b6de000089240000b56d0000cd
:10382400bd9100004e8a0000f7df00000f7e00000b
:10383400cbdf00001dfc00004ba6000045ac0000df
:10384400587c00003ed400006d2c000025d40000fc
:1038540026d3000087f60000f5fe00008be100008f
:10386400bd41000025b7000086ca0000796e000043
:103874005f430000d7f500002d3b00005efe000012
:10388400cdf20000b50800000dbe0000a89a0000ab
:1038940063e90000f7d20000477b00006f6100007d
:1038a4007175000073a700006a100000dafb0000c5
:1038b40015df0000ec130000f1620000da63000081
:1038c400143e00002ef80000657e0000a1200000d8
:1038d4006fb40000daea00005e3200004b760000ac
:1038e40069a10000499a0000341700009e070000f7
:1038f400b5ba0000dd6e000059ad0000ee0c00000a
:10390400b6b00000c62e00002290000040f3000074
:10391400c26100009e5f000099c60000719f000014
:1039240009e0000067ec0000f13c00004394000053
:1039340042a20000938c0000a94300001b46000033
:10394400bd5800004a29000036aa000053c30000f5
:10395400caac0000e93b0000495b0000da46000005
:1039640037be000097b300003f6c0000e1cf0000b9
:10397400a36700008fdc00005b4900006232000096
:103984001f0700007c430000c5e10000274500003c
:10399400d7a500008eaf0000c2f90000ae590000a8
:1039a40097e2000029aa0000bec200004f090000ef
:1039b4008fcd000030f800002c1e00002e71000096
:1039c400ab780000ce9e000016bd00005a900000a7
:1039d400e59c0000a50500001a73000071f80000c2
:1039e400828a0000fb6100007f600000ef8b000012
:1039f400ad240000687c000049f00000dd550000a3
:103a0400db6b000048da0000af8a0000b645000016
:103a1400df730000e3c10000a5ca0000e39c0000be
:103a2400c6b2000073f200009c36000016b8000015
:103a34000f140000fec800009f1c0000fc320000b0
:103a4400baf50000d45e000017b70000f13e000094
:103a540093a000002c520000bead0000e16d0000f8
:103a640056c60000fbfb00005ada000079ed0000a6
:103a74002d920000e3430000f0f50000f49a0000ea
:103a8400678d0000352d000093de0000c7f60000ae
:103a94009b440000f0c400007a8d0000adb4000027
:103aa400579a000085c50000947a0000758d0000c7
:103ab400e5dc000013850000e36e000011c6000081
:103ac400d4540000b0fc000045940000ba8d0000fe
:103ad400c2310000855c0000652c00003caa000097
:103ae4004aa3000071840000292c000044a90000ae
:103af4007b590000c9ab000072530000e696000039
:103b0400aae9000073460000fbf100000fd1000099
:103b14008fe900000bc20000d85f0000af6700000f
:103b24005e0d0000f885000043060000a9d60000e1
:103b3400ad57000015840000e1ac0000c33600005e
:103b4400c3e1000068e10000d465000056b600003f
:103b54003ab60000514b00001d4f0000014900001f
:103b640046490000c6a600003658000078540000fc
:103b7400519b0000a7290000fb3a00009cbf0000f5
:103b8400335100005aba0000d6830000ae7800001a
:103b94006f5200009f460000f11600008daa00003d
:103ba400e81a0000c5b4000076b300005ce9000028
:103bb4005ad600009d790000a56a000056f1000065
:103bc4005f590000c1a80000d8cb00003d8d000063
:103bd400f43000005d4500001de600009f75000004
:103be4006b7d00006af2000044ab000071670000c6
:103bf40073050000cc250000e09a0000376c00003b
:103c0400aafa000068ca0000338c000067090000ab
:103c14004670000094540000a3280000b52800005a
:103c2400ca320000578c0000a325000074e2000093
:103c3400d34d000034da000069dd0000687e000026
:103c44001f5600008d5c00003d5a0000b42b00009c
:103c5400d2a9000046b500001a930000a35a000040
:103c64008d5800004a9d00005a55000069c90000a3
:103c7400c2a500002ab40000e6a300003a750000c3
:103c840029cd000038ce0000124a000050920000f6
:103c9400719200004d34000014510000474e0000a2
:103ca400b5460000614500001450000001450000c5
:103cb40014500000014500001450000001450000ac
:103cc400145000000145000014500000014500009c
:103cd400145000000145000014500000014500008c
:103ce400145000000145000014500000014500007c
:103cf400145000000145000014500000014500006c
:103d0400145000000145000014500000014500005b
:103d14001450000001570000b4dd00002f510000d2
:103d2400d66f0000ec740000ad260000c6ef000062
:103d340052d40000f53b0000cb7d00003f4d000055
:103d4400d3ec00006de50000babd0000d4350000de
:103d54000bb90000161b00004b0b00002b68000081
:103d640055e60000babd0000bb9d0000e3820000e0
:103d7400d6d20000049200007b990000e48e00007b
:103d840018630000791d0000149a00006e9b000067
:103d94007bab0000dfda0000699a00006dad000023
:103da400c5ee0000a17f00003c56000096360000de
:103db40056960000f3dd00005dde00005e5c00004e
:103dc4003ac300006b670000696b00006d140000cb
:103dd400d717000037770000970f000015ad0000db
:103de400a5bc0000313c0000b717000033450000bb
:103df4000c6a00005e45000015fb000005fb000096
:103e0400337e0000cdf600001f080000f4ff000020
:103e140000f800004a3c00005b650000a66a000050
:103e2400bf12000075040000b76800005ee20000e5
:103e3400dedb000055b50000f0550000ac77000053
:103e440002e10000ac7400006fb6000040f1000015
:103e54005beb0000d77200005bd900004faa0000a2
:103e640078920000d6350000bbfb0000183e00002d
:103e74001ed10000ae210000d0ee000035db0000b2
:103e8400cf170000fc8f000017f100008e570000d0
:103e9400c1f900007fd60000b1ad0000d6c5000016
:103ea40056e600008e0700002fa5000028aa000097
:103eb400f8a90000ab7300004b5f0000e161000053
:103ec400e95d00003ad50000e49c00006178000040
:103ed400c22a0000756700004e9c0000ff0000002d
:103ee400a0be00008f3f0000470e00003efa000015
:103ef40046710000554c00008f85000028d3000057
:103f0400cbf200004caf0000d8560000e28e000057
:103f14002dcc000069d60000793e000043850000e6
:103f2400af360000a953000093a50000173c000021
:103f3400766d00008c500000aab20000dca70000df
:103f44000ed500006c4b0000a7560000bd7a00009f
:103f5400984c0000bf0d00008cc7000061be00003b
:103f640070f8000031fb000012ea00001afd0000a6
:103f7400a0d60000be3100005cea00007e14000000
:103f8400b0b900008ec20000e34d0000f0ce000086
:103f940086d600000de20000abeb00001d530000cc
:103fa40048b90000bc170000b7da0000acf3000009
:103fb4006a5a00006f8400006eb40000bbd9000090
:103fc400346400009f410000d53c00003dac00007b
:103fd400eb3700006afa0000f6910000aa5a0000cc
:103fe400f84b000051b30000b3be00007fd00000c6
:103ff400ef040000fc3c0000f0570000c33b00004d
:104004000d4b000046f00000068500000787000005
:10401400347d000052fa00000d460000f2d6000084
:10402400da6b0000e9e60000bbb90000b37d0000d4
:1040340048690000cf7b00007fa80000df6a000011
:104044003a950000f7f6000065ae0000ab7d000075
:1040540065a700009bdb0000fb970000b5b50000de
:10406400bcbe000086370000d97d00007626000023
:10407400ec490000c9270000d79a00002bf9000082
:104084003b89000078ef000089380000a2a50000f9
:1040940058e30000f1d30000a3810000a8e300006e
:1040a400cb950000e0dc0000e860000020a10000e7
:1040b400252800007353000052940000f1130000ff
:1040c400535c0000fed30000133a0000d2530000fa
:1040d4007ee30000846300004e100000ff00000037
:1040e400a01f0000043e000089de00000cf8000060
:1040f4000f870000c2620000385b000086e8000001
:10410400e69c0000554200009b550000f8df0000cb
:1041140088e90000e1f300004e250000ab5a0000de
:10412400a41400002b4f0000058800009d18000017
:10413400e1f200003a330000873500002fab0000a5
:1041440064b800007c0c000027450000f2e2000087
:10415400a58a0000aae700005a680000aa1100001e
:104164005554000061540000055000003a0000005e
:1041740006000000fc000000c52d000014570000dc
:10418400c71f0000d2a10000402400001047000017
:10419400504100001e9900000723000023a10000e5
:1041a400c101000086410000c3000000c30c0000f0
:1041b400a08200008a000000e6bc000057e0000076
:1041c400bf060000f8f700004d5d00001bc70000ab
:1041d4003e160000d1bc00005ba40000f9d0000032
:1041e400c8d60000dabc0000338b0000b8d500004c
:1041f400752d00003f520000b8fe0000cfd700002c
:1042040034eb00008b0f000012680000d35d000047
:10421400be9d00000db50000ddde000083ad000092
:10422400693a000085d600009b250000ee9000004e
:10423400f7c90000a6ea000057f000004ff800009c
:1042440069f1000067e100007eab0000f09300001c
:10425400c75a0000a7830000355b000085d5000025
:1042640022b40000861b0000cd2f00005db50000c5
:10427400b2d400006c6c0000b5cd000036fa00002a
:10428400012d0000a5ed0000aa5f0000db46000040
:10429400c64b00005ba7000093450000d5e3000077
:1042a400b4920000f74f0000b4d70000f4dd000022
:1042b400574c0000b4d5000075180000ad1700007d
:1042c400509b0000f7c20000be550000fda900008d
:1042d400fe08000045f100004bc2000033eb000073
:1042e400ba2500008e950000178e00007c31000076
:1042f4006e970000761a000094d100005e9d0000c5
:104304004b5a0000d1ac00006db5000026bb000084
:10431400f07200001b360000304900002ea100009e
:104324003dcd0000add600008b3d0000fda5000092
:10433400f3db00006ab6000071e90000f6d3000068
:10434400e8f600005ade0000b1a8000057eb0000b8
:104354003e150000f1ac0000f87f00003686000036
:104364005598000062aa00002c930000316a0000f6
:104374008a85000049ce00007470000038d900001e
:10438400cdba0000388a000054db00006a8c0000bb
:104394002b5400009ca90000e29d000038c50000d9
:1043a4004d4e000015ab0000737b000008b8000000
:1043b400ff0000009f9f00004eff000000a20000cd
:1043c400ee0f0000c5de000000c6000071e700002b
:1043d40005f00000f61200005e290000f07d0000e8
:1043e40037980000ba9900007e1f00000b86000079
:1043f400cc780000bf870000a8d30000a50c000003
:10440400cf270000c75500008c29000054cd0000c0
:1044140031d90000760e0000843300000c810000c6
:10442400622a0000d6c40000d396000013130000d3
:1044340094e50000d4dc0000f377000007fd0000e1
:1044440045f8000097c500005fb00000ed8e000045
:1044540089e000006ff80000275500008f800000fd
:10446400fe070000dafc0000269f000056d1000081
:10447400753f0000107c000031f00000f7c200001e
:104484007f090000c7e100002d7f0000f60b00004b
:10449400bcff000000820000997c00005df8000071
:1044a400357d0000fb750000f8ef0000f686000083
:1044b400f17f0000ed340000da140000f36800001e
:1044c4003ff000004c3f000005f8000043f60000f8
:1044d4009ad700003e3b0000fc330000fd9c000026
:1044e400ec3f00006a6b00004f0b000078fb0000fb
:1044f400e11f0000edcb0000e1cf0000da52000024
:10450400ff000000f62e0000d17e00003b5a0000a0
:10451400fc3e0000ff0000003e19000071e60000b0
:10452400498600002e370000be180000a08c000051
:10453400b0dc000070c5000001210000091c00006f
:10454400ec04000085ce000033c500007d020000ad
:104554009fb50000b7ed0000570f0000c0c6000073
:10456400fd97000063fd0000a67f000068080000be
:10457400ff000000668200008f110000fd9d000016
:10458400d3e300002fc4000041f000002b630000bf
:10459400f8bc0000fc40000091470000c255000038
:1045a400f11f0000fc2b0000fdb2000078f00000b9
:1045b400b78d0000a4db0000e1fc00004be200002a
:1045c400d77f000011b900006d5e000047bc0000f9
:1045d4006f9e0000faf50000afeb000073fe0000d0
:1045e4007a8200008a280000a00200008a280000c5
:1045f400a00200008a280000a00200008a2800000f
:10460400a00200008a280000a00200008a280000fe
:10461400a00200008a280000a00200008a280000ee
:10462400a00200008a280000a00200008a280000de
:10463400a00200008a280000a00200008a280000ce
:10464400a00200008a280000a00200008a2b0000bb
:10465400d27e00000f780000222f000088df0000c7
:10466400137c000019e00000cb940000b97b00002b
:104674000d6b00005a8000006ae20000caf60000d8
:10468400df4f0000bd5d000006c1000064d50000de
:104694003c420000f65700009756000097f60000d1
:1046a400f05f00002685000063a80000b58b0000c1
:1046b400c96300007aa20000ec4000007ec700003d
:1046c400787100006b36000018ac00004d1c00002f
:1046d40016170000138c0000c44d000053c30000e3
:1046e400e128000056c40000d7a80000da4a000000
:1046f40014680000539500005ab300006db4000024
:10470400928c00002129000036da0000492d0000b7
:104714005a470000ab910000e4b900009712000072
:10472400677900003f0e0000e4d800005a980000aa
:10473400ece300003ecd000072fc0000972a00006c
:10474400c15100008b9500005c660000659a000072
:1047540062e80000e0700000385a0000518a00004e
:1047640094a50000531100008aaf00004a94000091
:1047740023140000db940000d2490000b76300005a
:10478400f4430000f63e0000f8030000ff000000c0
:104794000886000091a50000fc5e0000f12c0000da
:1047a400f2af0000897c000059e10000dd4a0000fe
:1047b4001f0e0000f87a00006d220000fb4e00007e
:1047c4009fc300009e160000d76300008e080000ff
:1047d40035f90000750b0000f4b30000bb9f000026
:1047e40053f100009687000035cb0000d8b60000d6
:1047f400936e0000fa2b0000f80700005cb2000082
:104804009d750000cd6c0000f8aa0000ff000000b8
:1048140049f00000efdc0000f5520000c6c60000bd
:10482400d34c0000b3b50000d3f40000fb5b0000e0
:104834006b2b00001b28000023b50000b3b300005d
:10484400b2b50000b6b10000b3b40000b5810000f9
:10485400447000005b5a000059d90000c36f000087
:10486400696900006d0400006ab10000416d000038
:104874006d04000030410000122400007146000065
:1048840088aa0000a2dd00007f0b0000f1470000b1
:104894001163000078a3000039c50000e6b80000e9
:1048a400c9c90000fb490000ca9e0000128b000029
:1048b4006b9300000982000084e60000f0f8000019
:1048c4006a69000024920000a7190000373900002b
:1048d4005af500002aca0000a5590000de75000040
:1048e40024df0000fd500000780f0000e0cf00003e
:1048f4000df800000fe10000a6430000e1ff0000f6
:10490400000f000053a5000052a600000e8c00000a
:10491400719c0000459b0000c2970000b3ad0000ed
:10492400c45c00004f8a0000a146000039be0000ac
:1049340077890000bdea00007fb4000054a30000a2
:104944000c3e0000068d000059d4000096070000bc
:104954002ac3000060320000e8d400009d3c00003f
:1049640024240000cca00000e5e400008e25000013
:104974001d5e000057090000183f0000c219000026
:10498400db0a00009b9b00000a190000caa2000079
:10499400920b0000b22000002c3f0000baef000090
:1049a400f8240000ff000000fc110000bbe0000040
:1049b40047c10000bf8000001e130000f8970000ec
:1049c400fb5100007c160000f02f0000c51f000002
:1049d400da070000e2860000831f00008a35000029
:1049e4007d0b0000e29f000083260000f11e000002
:1049f40099f00000a3c300009e2800008f4c000023
:104a0400d57400007f0100001f010000fc4200007b
:104a1400d25300004ed20000bc7f0000a55a000013
:104a2400d9da000049e300009d520000f7c20000fb
:104a3400d6be000022d00000bc4f000077e2000088
:104a44001f070000e9da000094fa00001da400002a
:104a5400f7fa0000f7e6000047fc00001bd3000053
:104a6400ff00000004ea00003f120000fc77000091
:104a74002fed0000c3f100008fc200005732000088
:104a84007c3d0000f8690000a8c90000a7fe0000f2
:104a9400cffa000067890000bc350000693e0000c1
:104aa40087e30000af89000076d30000ddd9000061
:104ab400eb1f000012b40000b93500006ba6000023
:104ac40092e60000c3e1000015cd000099b000009b
:104ad400f0fe0000a76d0000e1eb00009d3e000029
:104ae400e3e200003ea00000352d000007c50000f1
:104af4003a7f000089be0000146a00009a79000021
:104b0400fed00000470000000c93000081d4000098
:104b1400e3270000dce0000001930000ec0000004b
:104b2400f4020000bf690000f093000080680000f8
:104b3400ce84000038a300003bc20000c2b70000ce
:104b4400b75300008e51000083c50000525200008c
:104b5400a6a900005b920000598d00004a55000090
:104b64001f2c00009d560000ea430000091a0000b3
:104b7400b49c000055350000f5ba00007cca000062
:104b8400ae1a0000ac7f0000cc8f0000da190000e0
:104b9400f4b10000cc16000073570000c09f000061
:104ba4000d330000dc7600005b1c00008f11000058
:104bb40046b70000887c000043910000e6750000c1
:104bc40070950000b13900009fb2000073a5000089
:104bd400c1d4000031380000354e0000ac6800003c
:104be40065910000a94f0000119f0000ca8e0000cb
:104bf400324a0000a665000028640000d88a00003c
:104c0400542a0000e55900008d1a0000ff0000003e
:104c1400c51f0000fc1700004bfe0000093900000e
:104c2400e14f0000d9d200005ff800006c3f0000a3
:104c3400d9a70000c3160000be1c0000f83700000e
:104c4400e24d00005e0d000023e300001fc30000de
:104c54006d0e0000c75100001a570000c33f00004a
:104c6400186b0000da950000c9d000007c6b0000ce
:104c7400e1a400008bed00007a5e000081f00000ea
:104c8400d7c500003a950000f41e0000159f0000ef
:104c9400c30900001e850000a2f8000017c500002b
:104ca4001278000063480000f0a40000577a000066
:104cb4003f8c0000acf400003f060000ff00000041
:104cc40034750000feb100001f1000007c070000d6
:104cd400e14f00008a3e000004f100009fc3000081
:104ce4006f1d0000e91f0000dbfe00000af1000058
:104cf400ff000000857c000041e00000cf160000aa
:104d0400687f00006dbf0000d34e0000ade10000dd
:104d1400cf130000e95700007a2e0000b5a7000069
:104d240026a50000a4de000069da0000ae9d0000a4
:104d34002dde00009d7b0000730400003a86000015
:104d440099a80000586a000036320000ba5e0000dc
:104d5400585e0000da5e000041050000c45f0000f8
:104d6400e66d0000fb7800007ec900005e300000a4
:104d7400fd890000ff0000006a2f000089ff000089
:104d840000010000fc4d00006ba90000368b000000
:104d9400a3eb0000b7da0000cfc300003f1200000d
:104da4005fd90000dec50000178e00007e150000ec
:104db400eb97000006fb0000c0fe000028b30000d3
:104dc400d42e000074fd00002ecf000057bb00005d
:104dd4001a6c00008fa00000f8be0000e34300003e
:104de40082ef000046d300007c7d0000a2f80000a2
:104df400abc3000076f70000f2dc00006817000087
:104e04005bbe00006bc50000be0a0000a791000055
:104e140063e90000e7990000650500004b2a0000e3
:104e2400cca60000e9d70000a14a000032540000db
:104e3400b0380000f51e00006e580000ad6300009d
:104e44004e860000320a000075280000d38d000051
:104e5400a14a0000a52a0000d4e20000a9d2000063
:104e6400742900009fb70000fecf00003fa400009b
:104e7400e63f0000c52e000018c60000f8530000ed
:104e8400c7790000b57c0000c78e000078270000b9
:104e9400050c0000664b00009be6000038950000fe
:104ea4005b1f0000c4bc0000211a000094f0000045
:104eb400d186000026ad000046eb0000e2f30000be
:104ec4004e1c0000af520000860f0000158a00003f
:104ed400ace500005b17000097620000f2da000006
:104ee400d52500005f13000087cc0000715300003b
:104ef400f9020000bf4400007fe00000993f000079
:104f0400b06e0000bffb00007ffe0000d2da00009c
:104f140027c3000009240000d7b400002f85000037
:104f24001e1a0000b47f000017fc000069f10000a5
:104f3400d687000015a80000bbf00000df83000046
:104f44006ca4000058a00000d27400007bbd0000d7
:104f54004e39000074c50000f16f00008d7500002b
:104f640057b60000f0df000087a300009ad70000c6
:104f7400589700004f8e0000eb540000f16c0000c5
:104f8400de1d0000d77400007f0a0000eaf600006e
:104f9400327c000031e000005f030000f8af000045
:104fa400e25f00008d3c000025f00000f3c000002b
:104fb400ba2d0000cf880000fc670000e3af0000ba
:104fc40012e800003e0f0000f0a600008366000017
:104fd400f6f100005cea0000fe230000f13e000050
:104fe400ad670000a1e800007a6c0000535d00008a
:104ff400cd6d0000676e0000d7ba0000a5fd00006b
:10500400a5b70000daaf00006e6d0000acad000083
:1050140084a60000e2f20000e6de0000da390000b7
:10502400664f0000f4880000ff000000826e00005c
:10503400fec00000be050000ff000000827e0000ec
:10504400fc010000b1f8000071a40000ae83000070
:10505400affc000050f1000034e300005df80000f4
:10506400c7f100003b4c0000d2660000b0bc000059
:10507400f1be0000bc9700003a8c0000ba2e00007c
:1050840095140000f7f7000057da0000a0f00000c4
:105094008f800000f4cd00004a5d000003c20000d0
:1050a4005a6c000097160000b65b0000a4d70000fd
:1050b4003c570000fd8b0000a578000083c600006b
:1050c4005e250000173f00003be10000cf06000012
:1050d400d4e20000dcea00002f110000092c0000db
:1050e4009b2d0000953a0000f99500004d540000f6
:1050f4006b3e00006e6a0000397c00001a6a0000f2
:105104005cf80000b7170000ed5c00005c5d000077
:105114002c3400006acd00004e1500005d0500002f
:105124003fd70000fe9a00009f4900006c37000042
:10513400801e00001b550000c1e4000078c8000078
:105144002f13000078db00000f8c0000cb38000028
:105154003b0f00004e310000ab57000027a30000b6
:1051640018c2000096670000c5b80000a84d0000f2
:105174004a9500003a590000453a0000f18e0000bb
:10518400570a0000f1a80000b1b90000d55c000086
:10519400243e0000a98b0000c0610000735700008a
:1051a40086e00000fc6d0000ff000000046a0000bf
:1051b400ff0000008273000078c70000e08c00004c
:1051c4005f0300006dbf000066ef00000778000079
:1051d4002b4b0000b1b70000bafe0000c5f8000078
:1051e40089e000009846000093f10000a74a0000ff
:1051f400d52e00002df5000068620000d6ae000038
:105204007e2b0000df470000ab780000b3c5000030
:10521400d3d90000cbac0000dcdd00005b680000eb
:10522400df100000af3c000063e10000169a0000ac
:10523400db4800008eef0000c3570000767a0000c0
:10524400168d000069630000fc0600007ed5000096
:105254009fb30000bf8b00003f640000dfda000052
:1052640023e20000cfec0000efe30000363300003f
:105274006bbf00000b7c000055710000a2450000cc
:10528400ab050000b28900003c450000a05d0000b1
:10529400dada0000eb7e00000cf1000095b50000a6
:1052a4009d8e0000a1ab0000c3a600005b78000047
:1052b400c3c200001aa6000083e20000cb3d000038
:1052c4001ee3000050bb0000d474000068350000e9
:1052d40078740000bd630000cad500002d2f0000c3
:1052e4006d610000ff000000535a0000fc04000040
:1052f400ff00000082f200007fc100003b6e00004e
:105304007f6a00007f820000569f0000b44f0000b7
:10531400c2cd0000124d000047e300009fec0000e6
:10532400f7a10000ea9300005fe9000036030000e3
:105334004e8e0000f7e200000fc10000d46b0000a5
:10534400ad670000c43a00001ab40000b683000040
:1053540051d4000075df0000015d0000b5ef0000ce
:105364008c7c00001da600005b6a00006ab7000088
:10537400567a00008fc400001d1700004dd00000b5
:1053840035ff000000160000789f0000c391000064
:10539400da7e0000cbe2000087000000e0b10000ec
:1053a400b91a0000ccf200003cbb00000d850000df
:1053b400c7e40000d4d40000e743000005860000e1
:1053c400852500008bcb0000a9530000e5a900004f
:1053d40047d9000050840000554a0000b858000026
:1053e4004615000030ed0000a9350000469d000080
:1053f4005a3100004dce00000a3f0000e6c700000d
:10540400d0770000e96f0000c49c00001fe2000098
:105414008be00000ef140000f8cb00003acf00004e
:1054240078330000c45c00004fd500007fb4000056
:10543400f8a300003cc60000664b0000873800005b
:10544400c317000089530000c0e7000013c6000022
:10545400e6950000b1320000c3e00000738a00004a
:10546400f56b000065d90000dfef00002851000053
:10547400788c0000660b000037c6000057850000da
:105484002cb7000011ed0000bfcb000073f6000044
:10549400cbf800002c7c00001be20000b93e0000a9
:1054a40026e80000ada70000af8700003c7b0000a9
:1054b400ab5d0000cba80000e9960000afab000094
:1054c4003dc600008be20000a92300004bbd000094
:1054d40046690000e5d4000062960000d64b000047
:1054e4007f130000dc3d0000f6af0000676f000092
:1054f40063aa00005c4b0000697d00006faf0000f0
:10550400da2e000093a30000e87600003a29000098
:10551400bcf8000096bf0000a1df00001b7800006b
:105524003f480000f1e70000857c000041e00000f6
:105534003f1300003ea90000178700007c490000cb
:105544000db5000096b70000069f0000a8cd00002e
:10555400a35e0000347600001a9d000096ad0000a2
:1055640066e60000e3ec0000d76900001cda0000e6
:1055740076ab0000a6d900006a300000477f000027
:10558400a6ea00005649000079670000049700006d
:105594009a5d0000f47100001b670000fc0c000021
:1055a400f1c7000083f500004f00000078c300003d
:1055b400c49e00000bd600009a190000751f00005d
:1055c4000d6b000017da000044f7000076b100000c
:1055d4006a300000d86a00004969000033250000e1
:1055e400b6af0000a5ae0000af610000a56a0000e0
:1055f4006fa30000eb360000860d00005347000047
:10560400b9be0000d36c000027bb0000d2ef00003d
:105614002d2e00009ed60000132f000096be000021
:1056240087840000fc620000f88b000026fe000066
:10563400cbc7000055730000cdb200006a740000af
:10564400e94a000075250000cd3c0000665f0000bb
:10565400650c000036290000c9a5000029d500000a
:10566400a4d70000d5b10000329700003ce400004c
:10567400d51a0000f56a0000ceae000026560000e0
:10568400f95f0000a7df0000d1be00001e0d00007e
:10569400788f00001e360000e16c000002c3000099
:1056a400f8770000e24600002b1900008ec10000cc
:1056b400d0c300005294000070bc000039c5000043
:1056c40029fd00006b390000c8940000610500004a
:1056d40087c2000060b10000bed6000059be0000c1
:1056e400438700008ba5000008e10000a598000096
:1056f400e5b800003c34000030b90000273c00004d
:10570400b95a000028a20000bf5800003f810000e1
:10571400028a000028a00000028a000028a00000dd
:10572400028a000028a00000028a000028a00000cd
:10573400028a000028a00000028a000028a00000bd
:10574400028a000028a00000028a000028a00000ad
:10575400028a000028a00000028a000028a000009d
:10576400028a000028a00000028a000028a000008d
:1057740002bf0000443f0000607f0000075c00009f
:105784004baa000078f30000c7d300003eab000032
:10579400696d000069a60000d8f80000334d0000d0
:1057a40009600000f1e900001acc00009a9500009d
:1057b400e47a0000f6b80000bfda0000fe7c0000c6
:1057c4004b2e0000a1e10000c6d10000bc33000054
:1057d4002cda000054560000f798000087c400003b
:1057e4005637000097d2000058850000d3630000ac
:1057f400d43f00003beb0000f5ab0000f60f0000c7
:10580400b8990000be0f0000f8820000d9a700007c
:1058140091ad0000e2f8000093ad0000cd0d000052
:10582400b1040000c70c0000b378000063c100009d
:10583400893c0000cad80000c06b000085860000c7
:10584400dd1900007712000045b000006007000079
:1058540025bf000038f100005f1d00005b0300005d
:10586400c1190000a7b00000d2780000c9e100000f
:10587400703200009a76000070a500005f110000ed
:1058840007590000a5cb0000252e00007a50000027
:105894009d1600009b8d0000a3510000cd4900001f
:1058a4004a2900003fec0000efa00000170a0000a6
:1058b40060b80000abe9000043c000006f1f0000a7
:1058c40024e8000070d500000cf700008b210000d4
:1058d40045c10000cbeb000018dc0000a32a000047
:1058e400c42c0000b1290000a9470000d93c0000e5
:1058f4003665000089c20000660a00006d4d000094
:105904004bea00007ec70000957b00005e78000033
:105914007dad00004848000018f500002700000095
:10592400753c000002490000c0e4000028c60000e5
:105934000b1c000028250000573b00009941000083
:10594400ed7e00001cfc00003af10000c7c5000019
:10595400df1e0000f83f0000e1770000c34f0000a5
:105964000edd000078b70000e20700008ffc0000a5
:1059740043a50000f8530000c1fe00001bb3000063
:105984009ad60000d67d0000635f0000d66e00004a
:10599400a3b30000d3ec0000cdf50000fcd600005a
:1059a400da66000099030000cd2000006bbd000002
:1059b40057570000bcb00000d1f40000bb540000f5
:1059c4009b500000d5b500000b0d00003ada000032
:1059d400e6ee00001fee0000565f0000f821000014
:1059e400f7c30000183f0000e0990000daaf0000a0
:1059f400ec910000a5470000e14b00006fda0000c5
:105a0400275900004d130000e2de0000abf1000056
:105a1400867b00008d720000e34b0000d47f000001
:105a2400693d00000b420000bbb00000b2920000d0
:105a34005d4200000b1d00002afc00007c2f0000ca
:105a4400d3f40000ad5f0000c45f00000cbc000094
:105a54003f6400003c270000141a00002785000062
:105a64003c450000abfc0000404f000004cf0000a8
:105a7400f147000053d50000b54b0000ff000000c3
:105a8400e63e000018e00000cce700008ae10000d8
:105a940099d50000cb690000274f00002dc20000fb
:105aa40054af0000294d0000f2ac00004625000070
:105ab40045cb00000f970000d0e80000f13800004b
:105ac4009e59000072390000b8520000a6a20000de
:105ad400dd5a000091e60000829f0000fb83000075
:105ae400e3bf0000d26b0000c3af0000a3f60000c8
:105af40027820000303c000065890000a95700009f
:105b04001bc60000b9f60000132e00008617000023
:105b14000756000094ab0000e49900000cb10000ab
:105b240034e8000066bc00005f9a0000d1f7000072
:105b3400f1100000c9b200009f6b000015cb0000fb
:105b4400468d00004c560000635d000054c3000005
:105b5400e0290000557800007c640000f0de0000bd
:105b64007dff000000060000f1fe0000dc7600006e
:105b74003f1a00003f670000fd470000f64900009f
:105b8400f1950000e5a400005f1400003f670000e9
:105b94004b460000bef000006ac10000a65b000096
:105ba400e9a30000c55f0000033500001bcb000023
:105bb40028340000fbc700009a3d00006af600008c
:105bc4005d5b0000c43e000000f1000066a7000019
:105bd40071e100007f1100005dae000087e100006c
:105be400db0800007c350000acfc0000312800001c
:105bf40075dd000076ef0000c4da00008a7f000043
:105c040046150000fe5a0000ff0000000d7e000053
:105c1400227c00006ffd000083bf000069fb0000d0
:105c24004f1a0000786a00003b5f0000077c000008
:105c340076fd00009d7e000020f80000abc300004c
:105c44005a8e000099ab0000c5610000e25d0000bf
:105c54003acb0000c49e00001f9b00005cf00000d3
:105c6400178e0000bc210000ae0d000032ee0000d3
:105c7400eecf000059d200002fe0000097c40000ce
:105c84005e130000d6e60000d0f500006592000027
:105c9400e74f0000bcbd00009f420000d76c00002d
:105ca400ee9a0000cf56000083fd000029bf0000db
:105cb400657f0000da4b0000e1ef0000ed750000a5
:105cc400f0070000e1af0000ed0d0000f0be0000a1
:105cd4005bc30000e12f000088fa000017f6000003
:105ce400847a000076a700006d71000069ab0000a3
:105cf400f87300005cd30000eeee0000746f000047
:105d040015f800004b59000082e20000dedc0000c0
:105d14001d570000c27e000027d30000b57f00009d
:105d24000f5e0000ddd900008b8d00001f540000c1
:105d3400974e00003aae0000837f0000a9e80000ff
:105d440077da000076a3000077fd000007e1000089
:105d540027160000acd700002bff000000570000fe
:105d640031df0000bacd0000321a000030a100007b
:105d7400461300005ece0000788c0000ba8f00004d
:105d84002d1a00006fd90000bb380000d5c00000f8
:105d9400c94700000b880000872a0000e583000043
:105da400c3cb0000594e0000a2870000f901000097
:105db400fb4100003e8f00002bc30000ae3b0000ff
:105dc400a7e20000ff000000094200009e2f00002f
:105dd400c3af000015b10000b53300000a95000000
:105de400f049000054c10000e4dc0000638d0000b1
:105df400a33c0000c71b0000848d00007a2a000029
:105e040058590000e0380000968a0000afc4000032
:105e1400192d00005a7500007f7d000038e700004e
:105e2400586a00007429000061720000ec3500001b
