:020000040000fa
:080000000002040000000000f2
:020000040000fa
:100400004f0522000eff27000e01880000000000ab
:100410000c00070020752000110020000f000700cd
:10042000000020000000e000020032000000020096
:10043000000000000cb90200000000000040da00db
:100440000000fe00401a23000000e000020032001d
:10045000002020009001880000000600a102880012
:10046000800078000000eb001a003700e2804000b6
:1004700054a0b4009101ba00e280400054a0b4003e
:100480009102ba00e280400054a0b4000002eb00e8
:10049000472bde00f507b200a6018800602ce100c2
:1004a00008003a000049eb000201e80002003900b0
:1004b0003420ec0002f0a0008301e900f9ff3e00c7
:1004c000040037006128e100010032000082eb00e7
:1004d000040007001101ba000200e000e3ff3a0047
:1004e0000000060004d0a300e20f49001c00390000
:1004f000810278003549ba000201e80002003900a3
:100500003420ec0002f0a0008301e9000f0032006b
:100510002549ba000201e800020039003420ec004d
:1005200002f0a0008301e900080032000400e000ae
:100530000600320015c9ba000201e80002003900c5
:100540003420ec0002f0a0008301e9008180e80083
:1005500054a0b4000300e000e2ff3a0000000600ef
:100560009102ba00055978008301e900f7ff3200d3
:10057000c82ade00055978008301e900f3ff320044
:100580000400e000f1ff320011d9ba00eeff37009d
:1005900042f404000000000070f3040000000000ba
:1005a0004cf30400000000009af704000000000073
:1005b00068f7040000000000eee104000000000005
:1005c00058e10400000000008ae10400000000007f
:1005d000ace00400000000003abb04000000000092
:1005e00018bb04000000000000bb04000000000075
:1005f0004c020400010000001a0204000100000087
:1006000062b70400000000009ab704000000000078
:100610007eb7040000000000140004000100000088
:10062000e2ff0400000000000040da000000fe00cd
:10063000020ab900001bb9000200b80081004200a4
:100640008100430000000600889fbe0080047800ff
:10065000d0a480000000e00003003a001000070072
:100660000000e0000a003500d0a480000900e0008e
:1006700002003a0000047800060037000004780009
:1006800009004000060007000000e00001003d00f6
:100690000084eb00080078004f04be000000060054
:1006a000800078000000e00004003a00c04921000a
:1006b000d0a4880001017800060037000081eb001b
:1006c00040052200808f500002003e00d1a4880027
:1006d0000001eb00020078000000060002000700a5
:1006e0000400be00000006006022b80006022000e0
:1006f0000000d0008180d2000482d2008582d20026
:100700000000a0000202520083825a000300310060
:100710000202420083824a000000a1000603e900b1
:10072000f3ff3a0000000600889fbe008a9fbe00cb
:10073000010578000100e0000400350008003c00dd
:100740000000e000200032000500370060001000cb
:10075000e080180002003b0001f02c001a00370076
:100760000004be006011b8006b0920000982cf00b0
:10077000020039000882cf000441b00069425200f3
:100780000e00320008003b008281710061016400ac
:100790008904d1000884d3008b05e8000442e800f6
:1007a000f9ff3a00050037000804440089844c0032
:1007b0008b05e9000442e900fbff3a00af000700a7
:1007c0000af0a70001f0a0004f05be004f04be00d4
:1007d00000000600889fbe008a9fbe008c1f780024
:1007e000cc000700d300330003866c006450e100a6
:1007f000240032006420e100270032006150e10053
:10080000220032006120e100210032008b8542008d
:10081000eb07b1000134b800003ab8000804420008
:1008200089844a00013ab8000030b800888040004e
:1008300009014a00040033000000400081804800a4
:10084000020149008b05e900c909dd008301700040
:100850000100320013002000c814de004814dd003f
:100860004709de001200b200c808de0008847000ec
:100870008200070001f0a1000cf0a70001f0a00029
:10088000b50037006120e100b70032000801be006a
:100890000200be00f7ff37006150e100fcff3a00a4
:1008a000b10037000081eb00b20037000001be004c
:1008b000190107000470a70003f0a1006509b10049
:1008c000160032000d0035006828e10006003500f2
:1008d000f0ff2f00f1ff27000300e00013003b00b2
:1008e0000100280000000500000040008180480051
:1008f0008502e900fcff3a0008003700f88f42004b
:1009000002003c008000eb00000005008100d100e7
:100910000080d3008502e800fcff3a000300e000fd
:1009200002003b0060001000e0801800000006009c
:100930000001eb008f003700889fbe008a9fbe0039
:100940008c1f7800730007007a00330003866c0068
:100950006450e1002e0032006420e10033003200d8
:100960006150e1002f0032006120e10031003200cf
:1009700085855500eb07b000090020000804200021
:10098000050037000804440089844c000a00310047
:100990000603430087834b000001530081815b0005
:1009a000f8ff33000203be000800a0000804440062
:1009b00089844c00f6ff3900c639dd0083017300dd
:1009c00001003200130020008904d1000884d30004
:1009d0000998a300050032000800a7000300a0004a
:1009e0008904d1000884d3008b05e8008904d10074
:1009f0000884d3000001eb000281d2001f00070031
:100a000001f0a1000cf0a70001f0a0005200370097
:100a10006420e100540032000801be000200be0064
:100a2000f7ff37006120e1004f0032006000b8009e
:100a3000f3ff37000000200001f82700f0ff370027
:100a4000839f68000100e00002003d00600010008c
:100a5000e08018000300e00002003d00600111008a
:100a6000e081190020ff07004f00e00002003b007a
:100a700060001000e08018000000060081002000e7
:100a8000618055000b003d000b00200061fe2f002f
:100a90000100e1001d0034008281710061016400e9
:100aa0008904d1000884d3000000e800faff3a006e
:100ab000710020006100640003007000020060000b
:100ac0000900320061044400e0844c000988a5005c
:100ad000050032008b05e8006808e10002003a00da
:100ae0008904d1000884d300f20f20000258e100ed
:100af00005003d00c75ddd00f907b2008980750083
:100b000008007800000006000bf827008b00780032
:100b1000000005000004be007f0007000003be00c7
:100b20000405be000200be007b000700844f750074
:100b3000000006000200be006450e100050036001f
:100b40006420e100020036000968a30001003a00b9
:100b50000800be000160a0004f0678004f05be00ef
:100b60004f04be0000000600f0ff2f00f1ff270039
:100b7000f9ff3700889fbe008a9fbe008c9fbe0091
:100b8000820578000004be00630007000800be0074
:100b90006420e1000700390002003a00f1ff27005d
:100ba000f0ff2f000160a000120220000240880028
:100bb000550037006120e10003003a000b00a70058
:100bc00001f823005000370001f0a10002002100cd
:100bd00093642400650007000800be00040035008f
:100be000b2fd2000930c2400620007000004be0048
:100bf0000005eb000b00a6004f0dde0001f0a10088
:100c00000004be0032982f0023ea2300f1fe070003
:100c10000001eb0003f023000b00a70003f8230002
:100c20005700070021ff07000000a7000a00a200ec
:100c3000bdfe07000b00e0000300320002002000b0
:100c400003f023004d00070001f0a2000006be00e3
:100c50000200200093042400defe07000801be000d
:100c600047000700809fbe000c00be0022a22a00a1
:100c7000d3a72300d7fe07004f01be0040000700a6
:100c80000004be0001f0a100020020000398230030
:100c9000360007000800be00190035000001be0044
:100ca000ccfe07000006be00b2c52900e3622300a7
:100cb000c8fe070022222b00f3942b00300007000f
:100cc0000c01be00c3fe0700e273280083c02300ae
:100cd0002b0007000c01be00befe070042aa2a003e
:100ce000a3e22b00260007000c01be00b9fe07009e
:100cf0000801be00b7fe07000801be002000070083
:100d00000a00a70001f0a2004f06be004f05be007a
:100d10004f04be0000000600c70ade00f107b20063
:100d2000f50fb20008003200e1cf420002003200ad
:100d30000170a00024000500810f70000100320046
:100d40000408050044000500810f700002003a000d
:100d5000140005008502e9000000400081c0480041
:100d6000fcff3b000170a0002400050014002000df
:100d700060003700040020007900370003f0a20073
:100d8000889fbe008a9fbe008c1f780061ff07000d
:100d900068ff33006450e1004f0032006420e1003e
:100da0005200320003826c0007003b000905d000ae
:100db0000306d000820f54000c065d0002003900cb
:100dc0000200320089017800030678008582550010
:100dd00004003d000003fd008103fd008502ea00e0
:100de0008b854200840f720002003b0060001000ff
:100df000e08018006011b8000005eb007a28e100df
:100e00000a00390006007800c75ddd00f707b20070
:100e1000878075002d003700828171000a017800fb
:100e2000610560008180d1000080d3008502e90067
:100e3000f9ff3b00060440008784480002003b00a5
:100e400060041400e0841c000988a300070032003d
:100e50008a81710082817100610164008904d1007e
:100e60000884d3008b05e800170037000978a30039
:100e700013003a000b00e000130034008b05e9007a
:100e80000804440089844c000a4474000978a300d3
:100e90000d003a000b00e000070034008b05e9006c
:100ea0000804440089844c0001003a000b00200033
:100eb0000978a300f7ff32000001eb0002003700c1
:100ec000828171000a017800ecfe07000cf0a70097
:100ed00001f0a00020ff37006420e10002003a008a
:100ee000838f6c0020ff33000801be000200be00ab
:100ef00019ff3700889fbe008a9fbe00841f7800bc
:100f000004ff07004f00780011003300f0ff2f00ae
:100f1000838f6c0006003b00040565000a00a700f3
:100f20000800370009f0a600100020000800370074
:100f3000820f5400838f5c000300390010002000f2
:100f400001003e000000200009f0a7000000ea00b8
:100f50004f05be004f04be000000e0000000060088
:100f6000889fbe008a9fbe008c1f78004f26dd0040
:100f7000e8fe0700effe33006120e100430032008d
:100f80006250e10041003e003e0039006420e10073
:100f90003c003200058255000f003b000402e800cf
:100fa00038003a00800f5300818f5b003500340019
:100fb0000800be0003f0a10001f0a60003f0a000ad
:100fc0000cf0a7006eff0700e3fe370006034300a6
:100fd00087834b000c4646000005530081855b006b
:100fe000020033000a03be000c00a0000402e90066
:100ff000f6ff3b00850578000602430087824b0020
:1010000004003a006000b80009f0a70001f0a00059
:10101000d1fe37000002520081825a000704e0002e
:10102000040033000603430087834b008b05e9006f
:10103000faff3700090578000604be000203be006f
:101040006011b8008dfe0700e00f5200e08f5a00db
:101050000700350002003c000c08a3000400320029
:101060000601be0003f0a0000cf0a70044ff07003b
:101070000a85680001f0a1000af0a70001f0a000b5
:10108000b5fe37000800be00b3fe37001002200096
:101090000cf0a60000408800b3fe3700889fbe0019
:1010a0008a9fbe008c9fbe00000178006144210031
:1010b0001100e0000b003a00a044210030a288009b
:1010c00010a2880051a2880021a28800214090002f
:1010d0000004a000a0409800614090000004a0001f
:1010e000e0409800e7004100c208de00c20cdd00cd
:1010f00024a28000cd492100400522000d055000aa
:1011000022002000811f7800110009000205d8008c
:1011100000067800cf007800c308dd00e4854000b9
:101120008001eb00c6492100654421000100370021
:1011300001027800244090000008a3000200320061
:101140000a003700110a78009400780021409000ce
:101150000008a300fbff320009014200828f50000b
:1011600002003900840f51004600310094007800dd
:10117000848f5000eeff3e00868f50000200390041
:10118000858f5000eaff390010a28000800f5200c6
:101190004f003a00858f50004d003a008301e8006f
:1011a000e18f5100e2ff36008c8f540004003600be
:1011b0008a8f5400020031000b04780012003700bf
:1011c000614ab8006151b900b0ff2f000100200052
:1011d0000200500083805800800f5200818f5a0017
:1011e0000200350009047800070037000d80540024
:1011f0007205220002004000110009000a80d80098
:101200000a80b90000047800080078000efd07008d
:1012100080017800e10f40002d00320010a2800014
:101220000308780012a2800064004100a2409000f0
:10123000808f5100020032000104a000010037003d
:101240000104a10021419800088041006400500081
:101250008009780010a2880062442100020878000a
:1012600011a28000214090000004a000a04098003e
:10127000234090000004a100a041980002027800e1
:10128000a7ff370022a28800828f50000900360095
:101290009200780000442100a241900003487800a9
:1012a000f1a18800140978008040eb0020a28000a2
:1012b0002140980020a28000000a7800244090007d
:1012c0000004a000204298006400420001003700a2
:1012d0000000eb004f06be004f05be004f04be00ed
:1012e000000006006400500020a28800a04090008a
:1012f0000104a1002140980000000600889fbe0064
:101300008a9fbe0000057800e40150001300100021
:10131000c285de00234090000008a30004003200d4
:1013200023a28800234090000004a100a04198005f
:101330000100780059ff0700000478000000e00079
:10134000170032008a0f50001500320060b8970075
:1013500008005000c284de00898f5500010036006d
:10136000890578004259dd008a007800080078007d
:101370000f0007008a0f5400090031004248dd00c9
:10138000000044008a0f5000050036000a0050009b
:1013900000004400f2a1800003a280000288be0089
:1013a000080078004f05be004f04be000000060094
:1013b0008001eb000200370061f079008301e80052
:1013c000828f5100fcff3a0000000600010020005f
:1013d000a0a48800b1a4880011c0b3002049210056
:1013e0000148780000000600224921001204e000b4
:1013f00006003a001000200001002000a0a4880090
:10140000b1a4880010c0b30000497800d2e62400df
:10141000631c2400a0a48000b1a4800084fc070009
:101420000001be00900323000100200002004000e4
:1014300083804800a0a48800b1a488004088de0012
:0c144000cf80de0000f0a10000000600dc
:020000040000fa
:020000040005f5
:0457f400ffef0000c3
:020000040000fa
:020000040005f5
:0457f800ad1b0000e5
:020000040000fa
:020000040005f5
:0457fc007f3e0000ec
:020000040000fa
:10000800140300001403000014030000140300008c
:10001800140300001403000014030000140300007c
:10002800140300001403000014030000140300006c
:10003800140300001403000014030000140300005c
:1000480036b7000014030000140300001403000076
:10005800140300001403000014030000140300003c
:10006800140300001403000014030000140300002c
:10007800140300001403000014030000140300001c
:10008800140300001403000014030000140300000c
:1000980014030000140300001403000014030000fc
:1000a80014030000140300001403000014030000ec
:1000b80014030000140300001403000014030000dc
:1000c80014030000140300001403000014030000cc
:1000d80014030000140300001403000014030000bc
:1000e80014030000140300001403000014030000ac
:1000f800140300001403000014030000140300009c
:10010800140300001403000014030000140300008b
:10011800140300001403000014030000140300007b
:10012800140300001403000014030000140300006b
:10013800140300001403000014030000140300005b
:10014800140300001403000014030000140300004b
:10015800140300001403000014030000140300003b
:10016800140300001403000014030000140300002b
:100178001403000014030000dca9000014030000ad
:10018800140300001403000014030000140300000b
:1001980014030000140300001403000014030000fb
:1001a80014030000140300001403000014030000eb
:1001b800705d000014030000140300001403000025
:1001c80014030000140300001403000014030000cb
:1001d80014030000140300001403000014030000bb
:1001e80014030000140300001403000014030000ab
:0801f8001403000014030000d1
:020000040000fa
:10020800140300001403000014030000140300008a
:10021800140300001403000014030000140300007a
:10022800140300001403000014030000140300006a
:10023800140300001403000014030000140300005a
:1002480036b7000014030000140300001403000074
:10025800140300001403000014030000140300003a
:10026800140300001403000014030000140300002a
:10027800140300001403000014030000140300001a
:10028800140300001403000014030000140300000a
:1002980014030000140300001403000014030000fa
:1002a80014030000140300001403000014030000ea
:1002b80014030000140300001403000014030000da
:1002c80014030000140300001403000014030000ca
:1002d80014030000140300001403000014030000ba
:1002e80014030000140300001403000014030000aa
:1002f800140300001403000014030000140300009a
:100308001403000014030000140300001403000089
:100318001403000014030000140300001403000079
:100328001403000014030000140300001403000069
:100338001403000014030000140300001403000059
:100348001403000014030000140300001403000049
:100358001403000014030000140300001403000039
:100368001403000014030000140300001403000029
:100378001403000014030000dca9000014030000ab
:100388001403000014030000140300001403000009
:1003980014030000140300001403000014030000f9
:1003a80014030000140300001403000014030000e9
:1003b800705d000014030000140300001403000023
:1003c80014030000140300001403000014030000c9
:1003d80014030000140300001403000014030000b9
:1003e80014030000140300001403000014030000a9
:0803f8001403000014030000cf
:020000040000fa
:10144c000020000000000000bcc7000000010000ec
:10145c0049000000370000000106000000000000f9
:10146c00190800000000000004000000002000002b
:10147c0000000000b6c1000000010000490000009f
:10148c0037000000050600000000000019080000ed
:10149c00000000000400000000200000000000001c
:1014ac00b2d300000001000049000000370000002a
:1014bc00e805000000000000190800000000000012
:1014cc00040000000020000000000000becd000061
:1014dc00000100004900000037000000f405000086
:1014ec0000000000190800000000000004000000cb
:1014fc000000000028920000000100000000000025
:10150c005a7d000000010000000000002e000000c9
:10151c0039000000140000000a3800000000000030
:10152c000a600000000000000a88000000000000b3
:10153c000ab00000000000000ad800000000000003
:10154c000a000000010000000a2800000100000051
:10155c000a500000010000000a78000001000000a1
:10156c000aa00000010000000ac8000001000000f1
:10157c000af0000001000000000000000000000064
:10158c00000000000000000000000000000000004f
:10159c00000000000000000000000000000000003f
:1015ac0000000000000000000000000030000000ff
:1015bc0030000000300000000000000000000000bf
:1015cc00000000000000000000000000000000000f
:1015dc00000000000000000000030000800100007b
:1015ec0080010000c0000000c0000000600000008e
:1015fc006000000030000000300000001800000007
:10160c00180000000c0000000c0000000600000098
:10161c0000000000000000000000000000000000be
:10162c00000000000000000078000000cc0000006a
:10163c00840000008601000086010000b601000055
:10164c00b601000086010000860100008400000045
:10165c00cc0000007800000000000000000000003a
:10166c00000000000000000000000000000000006e
:10167c000000000000000000700000006c00000082
:10168c0060000000600000006000000060000000ce
:10169c0060000000600000006000000060000000be
:1016ac0060000000fc0300000000000000000000cf
:1016bc00000000000000000000000000000000001e
:1016cc0000000000000000007c000000c6000000cc
:1016dc00820100008001000080010000c0010000b8
:1016ec00e000000070000000380000001c0000004a
:1016fc000e000000fe0100000000000000000000d1
:10170c0000000000000000000000000000000000cd
:10171c0000000000000000007c000000c20000007f
:10172c008001000080010000c000000038000000b3
:10173c00c00000008001000080010000800100005a
:10174c00c20000007c00000000000000000000004f
:10175c00000000000000000000000000000000007d
:10176c000000000000000000c0000000e0000000cd
:10177c00f0000000d0000000c8000000cc00000009
:10178c00c4000000c2000000fe030000c000000006
:10179c00c0000000c00000000000000000000000bd
:1017ac00000000000000000000000000000000002d
:1017bc000000000000000000fc0000000c00000015
:1017cc000c0000000c0000007c000000c4000000b5
:1017dc0080010000800100008001000080010000f9
:1017ec00c20000007c0000000000000000000000af
:1017fc0000000000000000000000000000000000dd
:10180c000000000000000000780000008c000000c8
:10181c000c0000000600000076000000ce00000066
:10182c008601000086010000860100008601000090
:10183c00cc00000078000000000000000000000058
:10184c00000000000000000000000000000000008c
:10185c000000000000000000fe01000080010000fc
:10186c00c0000000c0000000c000000060000000cc
:10187c00600000006000000030000000300000003c
:10188c003000000018000000000000000000000004
:10189c00000000000000000000000000000000003c
:1018ac00000000000000000078000000ce010000e5
:1018bc008601000086010000cc00000078000000ca
:1018cc00cc000000860100008601000086010000ab
:1018dc00cc000000780000000000000000000000b8
:1018ec0000000000000000000000000000000000ec
:1018fc00000000000000000078000000cc00000098
:10190c0086010000860100008601000086010000af
:10191c00cc010000b801000080010000c0000000f4
:10192c00c40000007800000000000000000000006f
:10193c000000000000000000000000008a8a000087
:10194c00000000002e000000390000002100000003
:10195c001138000000000000119b00000000000086
:10196c0011fe0000000000001161000001000000e9
:10197c0011c400000100000011270000020000004b
:10198c00118a00000200000011ed000002000000ae
:10199c00115000000300000011b300000300000010
:1019ac001116000004000000117900000400000072
:1019bc00000000000000000000000000000000001b
:1019cc00000000000000000000000000000000000b
:1019dc0000000000000000000000000000000000fb
:1019ec0000000000000000000000000000000000eb
:1019fc0000000000000000000000000000000000db
:101a0c0000000000000000000000000000000000ca
:101a1c0000000000000000000000000000000000ba
:101a2c0000000000000000000000000000000000aa
:101a3c000000000080030000008000000300000094
:101a4c008003000000800000030000000000000084
:101a5c00000000000000000000000000000000007a
:101a6c00000000000000000000000000000000006a
:101a7c00000000000000000000000000000000005a
:101a8c00000000000000000000000000000000004a
:101a9c0000000000000000000000000070000000ca
:101aac00003800000000000038000000001c00009e
:101abc00000000001c000000000e000000000000f0
:101acc000e000000000700000000000007000000ee
:101adc00800300000080000003000000c003000031
:101aec0000c0000001000000c001000000e0000088
:101afc0000000000e000000000700000000000008a
:101b0c0070000000003800000000000038000000e9
:101b1c00001c0000000000001c000000000e000073
:101b2c0000000000000000000000000000000000a9
:101b3c000000000000000000000000000000000099
:101b4c000000000000000000000000000000000089
:101b5c000000000000000000000000000000000079
:101b6c00c007000000f000001f000000701c000007
:101b7c00003800003800000038380000001c00005d
:101b8c00700000001c700000001c000070000000c1
:101b9c009c730000009c0000730000009c7300000c
:101bac00001c0000700000001c700000001c0000f5
:101bbc00700000001c7000000038000038000000ad
:101bcc0038380000007000001c000000f01f0000fe
:101bdc0000c0000007000000000000000000000032
:101bec0000000000000000000000000000000000e9
:101bfc0000000000000000000000000000000000d9
:101c0c0000000000000000000000000000000000c8
:101c1c0000000000000000000000000000000000b8
:101c2c000000000000e0000007000000f8070000c2
:101c3c000038000007000000000700000000000052
:101c4c000700000000070000000000000700000073
:101c5c000007000000000000070000000007000063
:101c6c00000000000700000000070000000000005a
:101c7c000700000000070000000000000700000043
:101c8c000007000000000000070000000007000033
:101c9c0000f000007f000000f07f0000000000005a
:101cac000000000000000000000000000000000028
:101cbc000000000000000000000000000000000018
:101ccc000000000000000000000000000000000008
:101cdc0000000000000000000000000000000000f8
:101cec00000000000000000000000000f0070000f1
:101cfc0000fc00001f0000001c3c00000004000061
:101d0c00780000000070000000000000700000006f
:101d1c00007000000000000070000000007800005f
:101d2c00000000003c000000003e0000000000002d
:101d3c001f000000000f00000080000007000000e2
:101d4c00c003000000e00000000000007000000074
:101d5c000038000000000000fc7f000000fc0000c8
:101d6c007f000000000000000000000000000000e8
:101d7c000000000000000000000000000000000057
:101d8c000000000000000000000000000000000047
:101d9c000000000000000000000000000000000037
:101dac000000000000000000000000000000000027
:101dbc0000e0000007000000f81f00000018000001
:101dcc0038000000007000000000000070000000ef
:101ddc00007000000000000070000000003c0000db
:101dec0000c000001f000000c00f00000000000039
:101dfc003c000000003800000000000070000000f3
:101e0c000070000000000000700000000070000076
:101e1c0000000000780000000c3c000000fc0000fa
:101e2c001f000000f0070000000000000000000090
:101e3c000000000000000000000000000000000096
:101e4c000000000000000000000000000000000086
:101e5c000000000000000000000000000000000076
:101e6c000000000000000000000000000000000066
:101e7c000000000000000000000e00000000000048
:101e8c000f000000800f0000008000000f00000019
:101e9c00c00e000000e000000e000000600e00000c
:101eac00003000000e000000300e00000018000092
:101ebc000e0000001c0e0000000c00000e000000c4
:101ecc00060e000000fe00007f000000fe7f0000f8
:101edc00000000000e000000000e000000000000da
:101eec000e000000000e0000000000000e000000bc
:101efc0000000000000000000000000000000000d6
:101f0c0000000000000000000000000000000000c5
:101f1c0000000000000000000000000000000000b5
:101f2c0000000000000000000000000000000000a5
:101f3c0000000000000000000000000000f800009d
:101f4c003f000000f83f00000038000000000000d7
:101f5c0038000000003800000000000038000000cd
:101f6c0000f8000007000000f81f00000008000047
:101f7c003c00000000380000000000007800000069
:101f8c0000700000000000007000000000700000f5
:101f9c000000000070000000007000000000000055
:101fac00380000000c3c000000fc00001f0000008a
:101fbc00f807000000000000000000000000000016
:101fcc000000000000000000000000000000000005
:101fdc0000000000000000000000000000000000f5
:101fec0000000000000000000000000000000000e5
:101ffc0000000000000000000000000000000000d5
:10200c0000000000800f000000e000001f00000036
:10201c00f010000000380000000000003800000044
:10202c0000380000000000001c000000009c0000b4
:10203c000f000000dc1f0000007c00003c000000d2
:10204c003c780000001c0000700000001c700000b8
:10205c00001c0000700000001c7000000018000044
:10206c007000000038380000007000003c000000d8
:10207c00f01f000000c000000f0000000000000076
:10208c000000000000000000000000000000000044
:10209c000000000000000000000000000000000034
:1020ac000000000000000000000000000000000024
:1020bc000000000000000000000000000000000014
:1020cc00000000000000000000fc00007f00000089
:1020dc00fc7f0000000000007800000000380000c9
:1020ec000000000038000000001c00000000000090
:1020fc001c000000001c0000000000000e0000008e
:10210c00000e0000000000000f000000000700009f
:10211c0000000000070000008007000000800000a5
:10212c00030000008003000000c00000010000005c
:10213c00c001000000c0000001000000e000000031
:10214c000000000000000000000000000000000083
:10215c000000000000000000000000000000000073
:10216c000000000000000000000000000000000063
:10217c000000000000000000000000000000000053
:10218c000000000000000000000000000000000043
:10219c00e00f000000f800003f000000383800009d
:1021ac00001c0000700000001c700000001c0000ef
:1021bc00700000001c7000000038000038000000a7
:1021cc00e00f000000e000001f000000783c000061
:1021dc0000380000380000001c700000001c0000db
:1021ec00700000001c700000001c0000700000005b
:1021fc003c780000007800003c000000f01f00005c
:10220c0000e000000f0000000000000000000000d3
:10221c0000000000000000000000000000000000b2
:10222c0000000000000000000000000000000000a2
:10223c000000000000000000000000000000000092
:10224c000000000000000000000000000000000082
:10225c000000000000e0000007000000f01f00007c
:10226c00007800001c00000038380000001c000042
:10227c00300000001c700000001c0000700000000a
:10228c001c700000001c0000700000003c78000076
:10229c00007800007c000000f077000000e00000f7
:1022ac00730000000070000000000000300000000f
:1022bc00003800000000000038000000101e000074
:1022cc0000f000000f000000e00300000000000020
:1022dc0000000000000000000000000000000000f2
:1022ec0000000000000000000000000000000000e2
:1022fc00000000000000000000000000a68c0000a0
:10230c0000000000200000007e0000001300000010
:10231c00048400000100000004970000010000008c
:10232c0007aa00000100000008bd00000100000029
:10233c0008d00000010000000be3000001000000c9
:10234c000b09000002000000042f00000200000036
:10235c0005420000020000000555000002000000cc
:10236c000768000002000000077b0000020000006c
:10237c00048e00000200000005a100000200000015
:10238c0004b400000200000008c7000002000000b6
:10239c0008da00000200000008ed00000200000056
:1023ac0007000000030000000813000003000000f9
:1023bc00082600000300000008390000030000009c
:1023cc00084c000003000000085f00000300000040
:1023dc0007720000030000000885000003000000e5
:1023ec00049800000300000004ab00000300000090
:1023fc0007be00000300000007d10000030000002e
:10240c0007e400000300000007f7000003000000d1
:10241c000d0a0000040000000a3000000400000057
:10242c000956000004000000097c000004000000b4
:10243c0009a200000400000008c80000040000000d
:10244c0008db00000400000009ee0000040000009e
:10245c000a14000005000000053a00000500000009
:10246c00054d00000500000009600000050000009b
:10247c0008860000050000000d9900000500000012
:10248c000abf0000050000000ae50000050000007e
:10249c00080b0000060000000a1e000006000000e9
:1024ac000944000006000000086a00000600000055
:1024bc00097d0000060000000aa3000006000000d1
:1024cc000ac90000060000000eef00000600000024
:1024dc000a150000070000000a3b0000070000007e
:1024ec0008610000070000000574000007000000f0
:1024fc000887000007000000059a00000700000094
:10250c0008ad00000700000008c000000700000034
:10251c0005d300000700000007e6000007000000dc
:10252c0008f9000007000000070c0000080000007c
:10253c00081f00000800000007320000080000001f
:10254c0007450000080000000758000008000000c4
:10255c00096b000008000000049100000800000056
:10256c0004a400000800000008b7000008000000e8
:10257c0004ca0000080000000cdd00000800000088
:10258c0009030000090000000829000009000000f0
:10259c00083c000009000000084f00000900000082
:1025ac00066200000900000006750000090000002a
:1025bc000688000009000000089b000009000000cc
:1025cc0008ae0000090000000bc10000090000006b
:1025dc0008e700000900000008fa000009000000ec
:1025ec00070d00000a000000042000000a00000093
:1025fc00043300000a000000044600000a0000003a
:10260c00085900000a000000000000000000000053
:10261c0000000000000000000000000000000000ae
:10262c00000000000000000000000000000000009e
:10263c00000400000606000004040000040400006e
:10264c00040400000004000004000000000000006e
:10265c0000000000000000003616000016160000f6
:10266c00121200000000000000000000000000003a
:10267c00000000000000000000000000000000004e
:10268c000050000048280000fc2400007e140000cc
:10269c00121200000000000000000000000000000a
:1026ac0000000000000800003c2a00000a0e000098
:1026bc001c380000484a00004a3c0000080000009a
:1026cc0000000000000000000000000000000000fe
:1026dc0000000000000c00000392000001920000ba
:1026ec0000520000002a000000ac00000150000065
:1026fc0002480000024c00000284000001000000af
:10270c0000000000000000000000000000000000bd
:10271c000000000000000000000000000038000075
:10272c00004400000044000000440000003400009d
:10273c00009c000007120000012200000162000052
:10274c0001c20000003c0000070000000000000077
:10275c00000000000000000000000000000000006d
:10276c000006000006060000060200000200000041
:10277c00000000000000000000000000000000004d
:10278c000000000000080000040400000202000029
:10279c00020200000202000002020000020400001b
:1027ac00040800000000000000000000020400000b
:1027bc0004080000080800000808000008080000d1
:1027cc0008080000040400000200000000000000e3
:1027dc0000000000082a00005c1c00002a08000011
:1027ec0000000000000000000000000000000000dd
:1027fc0000000000000000000000000000000000cd
:10280c0000000000080800003e080000080000005e
:10281c0000000000000000000000000000000000ac
:10282c00000000000000000000000000000000009c
:10283c00000000000604000004020000000000007c
:10284c00000000000000000000000000000000007c
:10285c00000000001f00000000000000000000004d
:10286c00000000000000000000000000000000005c
:10287c00000000000000000000000000000000004c
:10288c000202000000000000000000000000000038
:10289c0040600000202000003010000010180000e4
:1028ac0008080000040400000402000002030000f9
:1028bc0000000000000000000000000038240000b0
:1028cc004242000042420000424200002418000034
:1028dc0000000000000000000000000000000000ec
:1028ec00001000001c100000101000001010000060
:1028fc00101000007c000000000000000000000030
:10290c00000000000000000038240000222000001d
:10291c001008000008040000223e00000000000027
:10292c000000000000000000000000000038000063
:10293c00242200001018000020400000404200003b
:10294c003c0000000000000000000000000000003f
:10295c000000000020300000282800002422000085
:10296c007e20000020780000000000000000000025
:10297c000000000000000000002000003c020000ed
:10298c00021e000022200000202200001c0000007b
:10299c00000000000000000000000000000000002b
:1029ac0030080000040200003e42000042420000d9
:1029bc0024380000000000000000000000000000af
:1029cc0000000000000000007e220000201000002b
:1029dc0010100000080800000400000000000000b7
:1029ec000000000000000000000000001c2200009d
:1029fc00221200001c32000022220000221c0000c7
:102a0c0000000000000000000000000000000000ba
:102a1c00003800006642000042420000467c000084
:102a2c00201000000c00000000000000000000005e
:102a3c000000000000000000000000000202000086
:102a4c000000000000000000020200000000000076
:102a5c00000000000000000000000000000000006a
:102a6c000002000002000000000000000006000050
:102a7c000404000002000000000000000000000040
:102a8c000000000000000000006000001c020000bc
:102a9c001d600000000000000000000000000000ad
:102aac00000000000000000000000000000000001a
:102abc00007e0000017f000000000000000000000c
:102acc0000000000000000000000000000000000fa
:102adc0000000000000300001c6000001c0300004c
:102aec0000000000000000000000000000000000da
:102afc00001c000022220000202000001008000012
:102b0c000808000000080000080000000000000099
:102b1c0000000000000000000000000000000000a9
:102b2c0000000000e0010000180600000404000092
:102b3c00c20900003209000012090000120900004d
:102b4c001209000012050000e4030000040000005c
:102b5c0018060000f001000000000000000000005a
:102b6c000000000000000000000000000000000059
:102b7c0010000000300000002800000028000000b9
:102b8c0068000000440000007c000000c40000004d
:102b9c0082000000c70100000000000000000000df
:102bac000000000000000000000000000000000019
:102bbc000000000000000000000000003e000000cb
:102bcc004400000044000000440000007c000000b1
:102bdc00c400000084000000840000008400000099
:102bec007e0000000000000000000000000000005b
:102bfc0000000000000000000000000000000000c9
:102c0c00000000000000000078000000c40000007c
:102c1c0002000000020000000200000002000000a0
:102c2c000200000002000000840000007800000098
:102c3c000000000000000000000000000000000088
:102c4c000000000000000000000000000000000078
:102c5c00000000003e000000440000008400000062
:102c6c008400000084000000840000008400000048
:102c7c0084000000440000003e0000000000000042
:102c8c000000000000000000000000000000000038
:102c9c0000000000000000007e440000040400005e
:102cac003c04000004040000847e000000000000ce
:102cbc00000000000000000000000000007e00008a
:102ccc0044040000043c0000040400000404000060
:102cdc000e000000000000000000000000000000da
:102cec00000000000000000000000000f0000000e8
:102cfc004c00000002000000020000000200000076
:102d0c00e20100008200000082000000840000004c
:102d1c00780000000000000000000000000000002f
:102d2c000000000000000000000000000000000097
:102d3c000000000000000000ce0100008400000034
:102d4c008400000084000000fc00000084000000ef
:102d5c00840000008400000084000000ce0100000c
:102d6c000000000000000000000000000000000057
:102d7c000000000000000000000000000e04000035
:102d8c00040400000404000004040000040e00000d
:102d9c000000000000000000000000000000000027
:102dac00001e0000080800000808000008080000c9
:102dbc0008080000080800000403000000000000e0
:102dcc0000000000000000000000000000000000f7
:102ddc00ee0100004400000024000000140000007c
:102dec000c0000001c000000340000002400000057
:102dfc00440000008e0100000000000000000000f4
:102e0c0000000000000000000000000000000000b6
:102e1c00000000000e040000040400000404000084
:102e2c0004040000847e000000000000000000008c
:102e3c000000000000000000000000000000000086
:102e4c00000600000e0c0000060c0000061c000022
:102e5c00051400000594000004a4000004620000a6
:102e6c0004620000044f00000e000000000000008f
:102e7c000000000000000000000000000000000046
:102e8c0000000000000000000000000000c6000070
:102e9c00018c0000008c00000094000000940000e5
:102eac0000a4000000a4000000c4000000c4000046
:102ebc00008e000000000000000000000000000078
:102ecc0000000000000000000000000000000000f6
:102edc0000000000000000000078000000840000ea
:102eec0000020000010200000102000001020000cb
:102efc000102000001820000008400000078000044
:102f0c0000000000000000000000000000000000b5
:102f1c00000000000000000000000000003e000067
:102f2c0044440000444400003c040000040400003d
:102f3c000e00000000000000000000000000000077
:102f4c0000000000000000000000000078000000fd
:102f5c0084000000020100000201000002010000d8
:102f6c000201000002010000820000008400000049
:102f7c0078000000c0020000800300000000000088
:102f8c000000000000000000000000000000000035
:102f9c0000000000000000003e00000044000000a3
:102fac0044000000440000003c000000140000003d
:102fbc00240000002400000044000000ce010000aa
:102fcc0000000000000000000000000000000000f5
:102fdc000000000000000000000000003c62000047
:102fec00020600001c20000040420000423e00008f
:102ffc0000000000000000000000000000000000c5
:10300c00000000000000000000fe00000191000024
:10301c000010000000100000001000000010000064
:10302c00001000000010000000100000003800002c
:10303c000000000000000000000000000000000084
:10304c000000000000000000000000000000000074
:10305c000000000000ce000001840000008400008d
:10306c000084000000840000008400000084000044
:10307c0000840000004c00000078000000000000fc
:10308c000000000000000000000000000000000034
:10309c000000000000000000000000000000000024
:1030ac00008f00000304000001840000008c00006d
:1030bc00008800000048000000580000005000008c
:1030cc0000300000002000000000000000000000a4
:1030dc0000000000000000000000000000000000e4
:1030ec00000000000000000000000000004f000085
:1030fc001c42000008c6000008a4000008a4000040
:10310c0005240000051c000005180000071800002d
:10311c000208000002000000000000000000000097
:10312c000000000000000000000000000000000093
:10313c00000000000000000000cf0000018600002d
:10314c00004c00000038000000300000003000008f
:10315c000068000000c400000084000000cf0000e4
:10316c000300000000000000000000000000000050
:10317c000000000000000000000000000000000043
:10318c000000000000c3000001440000004c0000df
:10319c0000280000003800000010000000100000a3
:1031ac0000100000001000000038000000000000bb
:1031bc000000000000000000000000000000000003
:1031cc00000000000000000000fe00004221000092
:1031dc0030100000080c000084820000ff0000008a
:1031ec000000000000000000000e000002020000c1
:1031fc0002020000020200000202000002020000b3
:10320c0002020000020200000e000000000000009c
:10321c00030200000204000004040000080800007f
:10322c00081000001030000020200000404000007a
:10323c0000000000000e0000080800000808000054
:10324c000808000008080000080800000808000032
:10325c00080800000e000000000000000010000034
:10326c001818000034240000226200004200000004
:10327c000000000000000000000000000000000042
:10328c000000000000000000000000000000000032
:10329c00000000000000000000000000007f0000a3
:1032ac00000000000000000000000000030400000b
:1032bc0004000000000000000000000000000000fe
:1032cc0000000000000000000000000000000000f2
:1032dc000000000000000000003800002620000064
:1032ec003c220000326e00000000000000000000d4
:1032fc0000000000000300000202000002020000b7
:10330c003a66000042420000422200001c0000000d
:10331c0000000000000000000000000000000000a1
:10332c00000000000038000026020000020200002d
:10333c00661c0000000000000000000000000000ff
:10334c000060000040400000404000007846000053
:10335c004242000042660000dc0000000000000059
:10336c000000000000000000000000000000000051
:10337c00003c0000427e000002020000463c0000bf
:10338c000000000000000000000000000030000001
:10339c0068040000040400001e0400000404000083
:1033ac00040400001e0000000000000000000000eb
:1033bc00000000000000000000000000007e000083
:1033cc0021210000231e0000021e000061410000ac
:1033dc00611e00000000000000000000000600005c
:1033ec0000040000000400000004000000040000c1
:1033fc0000e40000009c0000008400000084000039
:10340c00008400000084000000ce000001000000d9
:10341c0000000000000000000000000000000000a0
:10342c000000000000000000040400000000000088
:10343c000604000004040000040400000e00000058
:10344c000000000000000000000000000008000068
:10345c0008000000000c000008080000080800002c
:10346c000808000008080000040300000000000029
:10347c00000600000404000004040000e424000022
:10348c001c14000034640000ce000000000000009a
:10349c00000000000000000006040000040400000e
:1034ac00040400000404000004040000040e0000e6
:1034bc000000000000000000000000000000000000
:1034cc0000000000000000000000000000000000f0
:1034dc00000000000076000007cc0000044400004f
:1034ec0004440000044400000444000004ee000006
:1034fc000e000000000000000000000000000000b2
:10350c0000000000000000000000000000000000af
:10351c00000000000000000000000000000000009f
:10352c0000e40000009e0000008400000084000005
:10353c00008400000084000000ce000001000000a8
:10354c00000000000000000000000000000000006f
:10355c00000000000000000000000000000000005f
:10356c003866000042420000422600001c000000a9
:10357c00000000000000000000000000000000003f
:10358c0000000000003600004c44000044440000e1
:10359c00243c000004040000040e000000000000a5
:1035ac000000000000000000000000007844000053
:1035bc0042420000426600005c40000040400000b7
:1035cc00e00000000000000000000000000000000f
:1035dc00003600002c04000004040000040e00005f
:1035ec0000000000000000000000000000000000cf
:1035fc0000000000000000000c120000020c000093
:10360c00121200000e00000000000000000000007c
:10361c00000000000000000002020000021f000079
:10362c000202000002020000021e00000000000066
:10363c00000000000000000000000000000000007e
:10364c0000000000634200004242000042620000a1
:10365c00dc00000000000000000000000000000082
:10366c00000000000000000000e7000046240000fd
:10367c0024180000181800000000000000000000d2
:10368c00000000000000000000000000000000002e
:10369c0000000000000000000000000000270000f7
:1036ac000662000002640000025400000294000054
:1036bc00018c0000018800000100000000000000e7
:1036cc0000000000000000000000000000000000ee
:1036dc00000000000000000000000000ef240000cb
:1036ec001818000034620000e70000000000000021
:1036fc0000000000000000000000000000000000be
:10370c0000e7000046240000242c000018180000dc
:10371c000808000004030000000000000000000086
:10372c0000000000000000003e2200001008000015
:10373c00042200003e000000000000000000000019
:10374c00000800000404000004040000040400004d
:10375c00030400000404000004040000040800003a
:10376c000000000000000000020200000202000045
:10377c00020200000202000002020000020200002d
:10378c000202000002020000000000000001000024
:10379c000202000002020000020200000c02000003
:1037ac000202000002020000020100000000000002
:1037bc0000000000000000000000000000000000fd
:1037cc00004c00003300000000000000000000006e
:1037dc0000000000000000000000000086910000c6
:1037ec0000000000200000007e0000000f00000020
:1037fc00038400000100000003930000010000009e
:10380c0005a200000100000006b10000010000004c
:10381c0006c000000100000009cf000001000000fc
:10382c0009ed000001000000030b00000200000085
:10383c00041a00000200000004290000020000002d
:10384c0005380000020000000547000002000000df
:10385c000356000002000000046500000200000096
:10386c000374000002000000068300000200000048
:10387c00069200000200000006a1000002000000f9
:10388c0006b000000200000006bf000002000000ad
:10389c0005ce00000200000006dd00000200000062
:1038ac0006ec00000200000006fb00000200000015
:1038bc00060a0000030000000619000003000000c7
:1038cc000328000003000000033700000300000081
:1038dc000546000003000000055500000300000031
:1038ec0005640000030000000673000003000000e4
:1038fc000a8200000300000007a000000300000083
:10390c0007af00000300000006be0000030000002b
:10391c0007cd00000300000006dc000003000000df
:10392c0006eb00000300000007fa00000300000093
:10393c000809000004000000041800000400000046
:10394c0005270000040000000736000004000000fa
:10395c0006450000040000000a54000004000000aa
:10396c000872000004000000078100000400000041
:10397c000690000004000000079f000004000000f7
:10398c0007ae00000400000006bd000004000000ab
:10399c0007cc00000400000008db0000040000005d
:1039ac0008ea0000040000000af90000040000000e
:1039bc0007170000050000000726000005000000a6
:1039cc00063500000500000004440000050000005e
:1039dc000653000005000000046200000500000012
:1039ec0006710000050000000680000005000000c4
:1039fc00048f000005000000069e0000050000007a
:103a0c0006ad00000500000005bc0000050000002c
:103a1c0006cb00000500000006da000005000000df
:103a2c0005e900000500000006f800000500000094
:103a3c000707000006000000031600000600000047
:103a4c0003250000060000000634000006000000fc
:103a5c0003430000060000000952000006000000ad
:103a6c000770000006000000067f00000600000042
:103a7c00068e000006000000069d000006000000f7
:103a8c0005ac00000600000005bb000006000000ad
:103a9c0004ca00000600000006d900000600000061
:103aac0006e800000600000008f700000600000011
:103abc0006060000070000000615000007000000c5
:103acc00052400000700000004330000070000007c
:103adc000342000007000000045100000700000032
:103aec00066000000700000000000000000000005d
:103afc0000000000000000000000000000000000ba
:103b0c0000000000000000000002000002020000a3
:103b1c00020200000202000002020000000000008d
:103b2c0000000000000000000a0a00000a0a000061
:103b3c000000000000000000000000000000000079
:103b4c00000000000000000000140000143e000003
:103b5c001e0a00000600000000000000000000002b
:103b6c0000000000000400001e050000050e00000f
:103b7c00141500000e0400000000000000000000fe
:103b8c0000000000000000000000000000460000e3
:103b9c0000290000001900000076000000980000c9
:103bac000094000000620000000000000000000013
:103bbc0000000000000000000000000000000000f9
:103bcc00001800000014000000140000000c00009d
:103bdc0000e40000004f000000590000003100001c
:103bec0000de0000000000000000000000000000eb
:103bfc0000000000000000000002000002020000b3
:103c0c0002000000000000000000000000000000a6
:103c1c0000000000000000000c0400000202000084
:103c2c000202000002020000020400000c0000006e
:103c3c000000000000010000020400000404000069
:103c4c000404000004040000020100000000000055
:103c5c0000000000041600000c1f0000040000000f
:103c6c000000000000000000000000000000000048
:103c7c000000000000000000000400001f04000011
:103c8c000400000000000000000000000000000024
:103c9c000000000000000000000000000000000018
:103cac000302000001000000000000000000000002
:103cbc0000000000000000000f00000000000000e9
:103ccc0000000000000000000000000000000000e8
:103cdc0000000000000000000002000002000000d4
:103cec0000000000000000000010000010080000a0
:103cfc000808000004040000020200000201000099
:103d0c000000000000000000000000000e19000080
:103d1c0011110000111100000e0000000000000045
:103d2c000000000000000000000800000e08000069
:103d3c0008080000081e0000000000000000000041
:103d4c0000000000000000001c120000120800001f
:103d5c00041200001e000000000000000000000023
:103d6c0000000000001c00001210000018200000d1
:103d7c00221c0000000000000000000000000000f9
:103d8c0000000000080c00000a0900001f080000d9
:103d9c001c000000000000000000000000000000fb
:103dac00001c0000020e000010100000120e00009b
:103dbc0000000000000000000000000000000000f7
:103dcc00180400000e120000121200000c0000007b
:103ddc00000000000000000000000000001e0000b9
:103dec001208000008040000040600000000000097
:103dfc000000000000000000000000001e12000087
:103e0c00121e0000121200000c0000000000000046
:103e1c000000000000000000000c00001212000066
:103e2c00121c00000806000000000000000000004a
:103e3c000000000000000000000200000200000072
:103e4c000002000002000000000000000000000062
:103e5c000000000000000000020200000000000052
:103e6c000003000002010000000000000000000040
:103e7c000000000000000000180700001c000000fb
:103e8c000000000000000000000000000000000026
:103e9c0000000000001f0000001f000000000000d8
:103eac000000000000000000000000000000000006
:103ebc0000000000071800000f00000000000000c8
:103ecc000000000000000000000e000011110000b6
:103edc0010080000040400000404000000000000ae
:103eec0000000000000000000000000000000000c6
:103efc007800000084000000020100007101000045
:103f0c00490100004901000049010000f2000000d5
:103f1c00860000007c000000000000000000000093
:103f2c000000000000000000080c00001414000049
:103f3c003c220000630000000000000000000000b4
:103f4c0000000000001f0000121e000022220000d2
:103f5c00221f000000000000000000000000000014
:103f6c00000000001c130000010100000113000000
:103f7c000e00000000000000000000000000000027
:103f8c00001f00003222000022220000121f00003d
:103f9c000000000000000000000000000000000015
:103fac001f1200000e020000023200001f00000071
:103fbc00000000000000000000000000001f0000d6
:103fcc00120e0000020200000207000000000000b8
:103fdc000000000000000000000000003c12000087
:103fec0001710000212300001c00000000000000f3
:103ffc00000000000000000000e70000424200004a
:10400c007e42000042e700000000000000000000bb
:10401c000000000000000000070200000202000087
:10402c000202000007000000000000000000000079
:10403c0000000000001c0000080800000808000038
:10404c000808000008070000000000000000000045
:10405c0000000000771200000a0600000a1200009f
:10406c0067000000000000000000000000000000dd
:10407c00000700000202000002020000121f0000f4
:10408c000000000000000000000000000000000024
:10409c00000000000000000083010000860000000a
:1040ac00c6000000aa000000aa0000009200000058
:1040bc00970100000000000000000000000000005c
:1040cc00000000000000000000000000e3460000bb
:1040dc004a5200005262000047000000000000003d
:1040ec000000000000000000001c00003321000054
:1040fc0021210000130e0000000000000000000051
:10410c0000000000000000000f120000120e000062
:10411c000202000007000000000000000000000088
:10412c0000000000001c00003321000021210000d1
:10413c00130e0000106000000000000000000000e2
:10414c00000000001f220000221e00000a120000c6
:10415c0067000000000000000000000000000000ec
:10416c00000c00000a0200000c100000120e0000ef
:10417c000000000000000000000000000000000033
:10418c007f49000008080000080800001c0000001f
:10419c0000000000000000000000000000e700002c
:1041ac004242000042420000663c00000000000059
:1041bc00000000000000000000000000e7220000ea
:1041cc002424000014180000080000000000000067
:1041dc0000000000000000000000000000000000d3
:1041ec0000970000033200000132000001ca0000f9
:1041fc0000cc000000cc0000008400000000000097
:10420c0000000000000000000000000000000000a2
:10421c0000000000007700002214000008140000c9
:10422c0022670000000000000000000000000000f9
:10423c0000000000631400001408000008080000cf
:10424c001c00000000000000000000000000000046
:10425c00003e00001108000004040000223f000092
:10426c000000000000000000000e00000202000030
:10427c000202000002020000020200000202000022
:10428c000e0000000000000000010000020200000f
:10429c0002040000040800000808000010100000d0
:1042ac0000000000000700000404000004040000eb
:1042bc0004040000040400000404000007000000d3
:1042cc0000000000000400000c0a000012120000a4
:1042dc0012000000000000000000000000000000c0
:1042ec0000000000000000000000000000000000c2
:1042fc0000000000000000001f0000000000000093
:10430c000001000002060000000000000000000098
:10431c000000000000000000000000000000000091
:10432c0000000000000000001c1200001e11000024
:10433c003f0000000000000000000000000300002f
:10434c0002020000020e000012120000120e000009
:10435c000000000000000000000000000000000051
:10436c00000000000e09000001090000060000001a
:10437c0000000000000000000018000010100000f9
:10438c00101e000011110000113e00000000000082
:10439c000000000000000000000000000000000011
:1043ac000e0f0000010900000e00000000000000cc
:1043bc0000000000001c000002020000020f0000c0
:1043cc0002020000020700000000000000000000d4
:1043dc000000000000000000000000003e11000082
:1043ec000e0200001e210000211e00000000000033
:1043fc000003000002020000023a00002622000026
:10440c002277000000000000000000000000000007
:10441c000002000000000000030200000202000085
:10442c000700000000000000000000000000000079
:10443c000400000000060000040400000404000056
:10444c000404000003000000000000000302000050
:10445c0002020000320a0000060a000037000000c9
:10446c000000000000000000000300000202000039
:10447c00020200000202000002070000000000001f
:10448c000000000000000000000000000000000020
:10449c00000000000000000000000000da00000036
:1044ac00b70000009200000092000000ff01000025
:1044bc0000000000000000000000000000000000f0
:1044cc000000000000000000000000003a2700007f
:1044dc002222000077000000000000000000000015
:1044ec000000000000000000000e00001111000090
:1044fc00110e000000000000000000000000000091
:10450c0000000000000000000b160000121200005a
:10451c000e02000002070000000000000000000076
:10452c0000000000001e000011110000111e000010
:10453c001010000038000000000000000000000017
:10454c00000000001b060000020200000700000033
:10455c00000000000000000000000000000000004f
:10456c00000600000e0400000a0e0000000000000f
:10457c00000000000000000000000000020200002b
:10458c000f020000020200000e00000000000000fc
:10459c00000000000000000000000000001b0000f4
:1045ac0012120000123e000000000000000000008b
:1045bc0000000000000000000000000033120000aa
:1045cc000c0c00000c0000000000000000000000bb
:1045dc00000000000000000000d30000526a000040
:1045ec006624000000000000000000000000000035
:1045fc000000000000000000370e0000081600004c
:10460c00330000000000000000000000000000006b
:10461c000000000000330000120a00000c0c000027
:10462c000404000003000000000000000000000073
:10463c00000000001e090000041200001f00000012
:10464c00000000000000000000080000040400004e
:10465c00040400000204000004040000040800002c
:10466c000000000000020000020200000202000034
:10467c000202000002020000020200000200000020
:10468c000000000000010000020200000202000015
:10469c000402000002020000020100000000000001
:1046ac0000000000000000000000000036190000af
:1046bc0000000000000000000000000000000000ee
:1046cc0000000000f69b0000000000001c00000031
:1046dc007e0000001b000000109400000100000090
:1046ec0010ca0000010000001100000002000000d0
:1046fc00115100000200000005a2000002000000a1
:10470c0006bd0000020000000ad8000002000000f4
:10471c000b0e0000030000000b440000030000001f
:10472c00107a00000300000010b00000030000002d
:10473c0006e6000003000000070100000400000072
:10474c00071c0000040000000a37000004000000f1
:10475c00096d00000400000005a300000400000027
:10476c0008be00000400000005d900000400000091
:10477c000bf40000040000000b2a000005000000f0
:10478c000b600000050000000b9600000500000007
:10479c000bcc0000050000000b020000060000001e
:1047ac000b380000060000000b6e00000600000035
:1047bc000ba40000060000000bda0000060000004d
:1047cc000b10000007000000054600000700000069
:1047dc0005610000070000000a7c000007000000d3
:1047ec000ab20000070000000ae800000700000001
:1047fc000a1e00000800000013540000080000000e
:10480c000ea50000080000000cdb000008000000f2
:10481c000c110000090000000e4700000900000008
:10482c000b7d0000090000000bb300000900000024
:10483c000de90000090000000f1f00000a00000035
:10484c00075500000a000000077000000a00000075
:10485c000d8b00000a0000000bc100000a000000d4
:10486c0013f700000a0000000f4800000b000000c6
:10487c000e7e00000b0000000cb400000b000000ca
:10488c000eea00000b0000000d2000000c000000e0
:10489c000b5600000c0000000d8c00000c000000fa
:1048ac000fc200000c0000000ff800000c0000000c
:1048bc00142e00000d0000000e7f00000d00000003
:1048cc000eb500000d0000000ceb00000d00000008
:1048dc00072100000e0000000b3c00000e00000041
:1048ec00087200000e0000000b8d00000e0000008e
:1048fc000bc300000e00000007f900000e000000c2
:10490c000b1400000f0000000c4a00000f00000008
:10491c000a8000000f0000000cb600000f00000021
:10492c000bec00000f00000007220000100000003c
:10493c000c3d0000100000000d7300001000000082
:10494c0006a900001000000006c4000010000000c2
:10495c000cdf000010000000061500001100000024
:10496c0014300000110000000d8100001100000047
:10497c000cb70000110000000ced0000110000004d
:10498c000c23000012000000095900001200000066
:10499c00098f00001200000008c500001200000082
:1049ac000ce00000120000000b16000013000000c9
:1049bc00104c0000130000000c82000013000000db
:1049cc000bb80000130000000aee000013000000fa
:1049dc000824000014000000053f00001400000033
:1049ec00085a0000140000000b75000014000000b1
:1049fc00000000000000000000000000003000007b
:104a0c0000380000003c0000003e0000003f0000a9
:104a1c00803f0000c03f0000e03f0000f03f00007e
:104a2c00f83f0000fc3f0000f83f0000f03f0000a2
:104a3c00e03f0000c03f0000803f0000003f00004e
:104a4c00003e0000003c0000003800000030000078
:104a5c00000000000000000000000000000000004a
:104a6c0000000000000000000c0000001c00000012
:104a7c003c0000007c000000fc000000fc01000079
:104a8c00fc030000fc070000fc0f0000fc1f0000f2
:104a9c00fc3f0000fc1f0000fc0f0000fc070000a6
:104aac00fc030000fc010000fc0000007c00000086
:104abc003c0000001c0000000c0000000000000086
:104acc0000000000000000000000000000000000da
:104adc0000000000000000000000000001000000c9
:104aec008003000000800000030000008003000031
:104afc0000c0000007000000c007000000e000003c
:104b0c000f000000e00f000000e000000f000000ac
:104b1c00f01f000000f000001f000000f01f00005c
:104b2c0000f800003f000000f83f000000f8000013
:104b3c003f000000fc7f000000fc00007f00000034
:104b4c00fc7f000000fe0000ff000000feff0000e4
:104b5c0000fe0000ff00000000000000000000004c
:104b6c000000000000000000000000000000000039
:104b7c00000000000000000000000000feff00002c
:104b8c0000fe0000ff000000feff000000fc000023
:104b9c007f000000fc7f000000fc00007f00000094
:104bac00f83f000000f800003f000000f83f000054
:104bbc0000f000001f000000f01f000000f00000db
:104bcc001f000000e00f000000e000000f000000dc
:104bdc00e00f000000c0000007000000c00700004c
:104bec000080000003000000800300000080000033
:104bfc0003000000000100000000000000000000a5
:104c0c000000000000000000000000000000000098
:104c1c000000000000000000000000000000000088
:104c2c000000000000000000000000000000000078
:104c3c000000000000000000000000000000000068
:104c4c000000000000000000080c00000c0c00002c
:104c5c000c0c00000c0c00000c0c00000c0c0000e8
:104c6c00040000000c0c00000c0000000000000010
:104c7c000000000000000000000000000000000028
:104c8c0000000000cc000000cc000000cc000000b4
:104c9c00cc000000cc000000cc000000cc000000d8
:104cac00c400000000000000000000000000000034
:104cbc0000000000000000000000000000000000e8
:104ccc0000000000000000000000000000000000d8
:104cdc0000000000000000000000000000000000c8
:104cec0000000000000000000000000000000000b8
:104cfc000000000000000000000000006002000046
:104d0c00200300002001000020010000fc0700002f
:104d1c00900100009000000098000000fe030000cd
:104d2c00480000004c00000044000000640000003b
:104d3c000000000000000000000000000000000067
:104d4c000000000000000000000000000000000057
:104d5c000000000000000000000000000000000047
:104d6c006000000060000000f80100006c0300000f
:104d7c0066010000660000006e0000007c00000070
:104d8c00f8010000e0010000e003000060030000f7
:104d9c00620300006203000066010000fc000000da
:104dac006000000060000000000000000000000037
:104dbc0000000000000000000000000000000000e7
:104dcc0000000000000000000000000000000000d7
:104ddc00000000003830000024180000660c0000b1
:104dec00660400006606000066030000a4010000d3
:104dfc009c380000c0640000606600002066000063
:104e0c0010660000182400000c1c000000000000bc
:104e1c000000000000000000000000000000000086
:104e2c000000000000000000000000000000000076
:104e3c000000000000000000e00100003003000052
:104e4c00180300001803000018010000980100006e
:104e5c0078000000787e00007c1c0000cc1800005c
:104e6c00c6190000861b0000060f0000060e00008d
:104e7c000c1a0000f8710000000000000000000097
:104e8c000000000000000000000000000000000016
:104e9c000000000000000000000c00000c0c0000e2
:104eac000c0c00000c0c00000400000000000000c2
:104ebc0000000000000000000000000000000000e6
:104ecc000000000000000000000000000060000076
:104edc0030100000080c00000c0400000606000056
:104eec00060600000606000006060000040c000082
:104efc000c080000183000006000000000000000ea
:104f0c0000000000030600000c0800001818000048
:104f1c001030000030300000303000003030000025
:104f2c0030100000181800000804000006030000f0
:104f3c000000000000000000000000000030000035
:104f4c00003000000022000001ae000003780000d9
:104f5c000078000000ae00000122000001300000cb
:104f6c000030000000000000000000000000000005
:104f7c000000000000000000000000000000000025
:104f8c000000000000000000000000000000000015
:104f9c000000000000000000000000000000000005
:104fac0000000000000000000000000000000000f5
:104fbc0000000000000000000000000000000000e5
:104fcc000000000000000000003000000030000075
:104fdc000030000000fe0000013000000030000036
:104fec000030000000300000000000000000000055
:104ffc0000000000000000000000000000000000a5
:10500c000000000000000000000000000000000094
:10501c000000000000000000000000000000000084
:10502c000000000000000000000000000000000074
:10503c000e0f00000c0c0000040200000000000029
:10504c000000000000000000000000000000000054
:10505c000000000000000000000000000000000044
:10506c007e000000000000000000000000000000b6
:10507c000000000000000000000000000000000024
:10508c000000000000000000000000000000000014
:10509c000000000000000000000000000c0c0000ec
:1050ac000c000000000000000000000000000000e8
:1050bc0000000000000000000002000000030000df
:1050cc000001000080010000800100008000000051
:1050dc00c0000000c0000000600000006000000084
:1050ec002000000030000000300000001000000024
:1050fc0018000000180000000c0000000c0000005c
:10510c000400000006000000060000000200000081
:10511c000000000000000000000000000000000083
:10512c000000000000000000000000000000000073
:10513c0000000000f0000000c80100008c0100001d
:10514c0084030000060300000603000006030000b1
:10515c000603000006030000060300000601000021
:10516c000c0100008c00000070000000000000002a
:10517c000000000000000000000000000000000023
:10518c000000000000000000000000000000000013
:10519c000000000000000000000000000000000003
:1051ac006000000078000000640000006000000057
:1051bc006000000060000000600000006000000063
:1051cc006000000060000000600000006000000053
:1051dc0060000000fc030000000000000000000064
:1051ec0000000000000000000000000000000000b3
:1051fc0000000000000000000000000000000000a3
:10520c00000000000000000000000000780000001a
:10521c00c401000086010000820100008001000032
:10522c00c0000000c0000000600000003000000062
:10523c0030000000180000000c0100000601000006
:10524c00fe01000000000000000000000000000053
:10525c000000000000000000000000000000000042
:10526c000000000000000000000000000000000032
:10527c000000000000000000f8000000cc0100005d
:10528c008601000080010000800100004000000049
:10529c00f00000008001000000030000000300008b
:1052ac0000030000000300008601000078000000ed
:1052bc0000000000000000000000000000000000e2
:1052cc0000000000000000000000000000000000d2
:1052dc0000000000000000000000000000000000c2
:1052ec0000000000c0000000e0000000e000000032
:1052fc00d0000000d8000000c8000000c40000006e
:10530c00c6000000c2000000ff030000c000000047
:10531c00c0000000c0000000f0030000000000000e
:10532c000000000000000000000000000000000071
:10533c000000000000000000000000000000000061
:10534c000000000000000000000000000000000051
:10535c0000010000fc00000004000000040000003c
:10536c00060000007e000000c2000000800100006a
:10537c00800100008001000080010000800000001e
:10538c00c30000003c000000000000000000000012
:10539c000000000000000000000000000000000001
:1053ac0000000000000000000000000000000000f1
:1053bc000000000000000000000000008001000060
:1053cc006000000018000000080000000c00000045
:1053dc00f60000008e01000006030000060300002a
:1053ec0006030000060300000c0100008c01000005
:1053fc00f0000000000000000000000000000000b1
:10540c000000000000000000000000000000000090
:10541c000000000000000000000000000000000080
:10542c00000000000000000000000000fc03000071
:10543c000201000002010000800100008000000059
:10544c00c0000000400000006000000020000000d0
:10545c0030000000300000001800000008000000c0
:10546c000000000000000000000000000000000030
:10547c000000000000000000000000000000000020
:10548c000000000000000000000000000000000010
:10549c0000000000f8000000cc01000086010000b4
:1054ac00860100008e010000dc000000f00000000e
:1054bc00c80100008c030000060300000603000076
:1054cc00060300008c0100007800000000000000c2
:1054dc0000000000000000000000000000000000c0
:1054ec0000000000000000000000000000000000b0
:1054fc0000000000000000000000000000000000a0
:10550c00f00000008c010000840100000603000084
:10551c000603000006030000060300008c030000d5
:10552c00780300000001000080010000c0000000b2
:10553c00200000001c000000000000000000000023
:10554c00000000000000000000000000000000004f
:10555c00000000000000000000000000000000003f
:10556c0000000000000c00000c0c0000000000000b
:10557c0000000000000c00000c0c000000000000fb
:10558c00000000000000000000000000000000000f
:10559c000000000000000000000000000c0c0000e7
:1055ac000c00000000000000000000000e0f0000c6
:1055bc000c0c0000040200000000000000000000c1
:1055cc0000000000000000000000000000000000cf
:1055dc0000000000000000000000000000000000bf
:1055ec00000000000000000000010000e0010000cd
:1055fc003c000000060000001c000000f000000051
:10560c00800100000000000000000000000000000d
:10561c00000000000000000000000000000000007e
:10562c00000000000000000000000000000000006e
:10563c00000000000000000000000000000000005e
:10564c00000000000000000000000000000000004e
:10565c00000000000000000000000000fe0100003f
:10566c000000000000000000fe010000000000002f
:10567c00000000000000000000000000000000001e
:10568c00000000000000000000000000000000000e
:10569c0000000000000000000000000000000000fe
:1056ac0000000000000000000000000000000000ee
:1056bc0000000000000000000000000000000000de
:1056cc00060000003c000000e0010000800100002a
:1056dc00f00000001e0000000200000000000000ae
:1056ec0000000000000000000000000000000000ae
:1056fc00000000000000000000000000000000009e
:10570c00000000000000000000000000000000008d
:10571c00f8000000cc0100008601000086010000aa
:10572c008001000080010000c0000000600000004b
:10573c00600000003000000030000000300000006d
:10574c0010000000000000003000000030000000dd
:10575c00300000000000000000000000000000000d
:10576c00000000000000000000000000000000002d
:10577c00000000000000000000000000000000001d
:10578c00000000000000000000000000000000000d
:10579c003f000000c070000000300000c00000009e
:1057ac001880000001080000800100000c97000028
:1057bc000384000018030000461800000366000074
:1057cc0018030000661800000366000018030000b0
:1057dc0066180000016e000098010000cc9c0000cf
:1057ec00008c00007300000018000000003800005e
:1057fc0080000000e0e00000018000001f000000bd
:10580c00000000000000000000000000000000008c
:10581c00000000000000000000000000000000007c
:10582c0000000000000000000040000000c000006c
:10583c0000a0000000a0000001a00000011000006a
:10584c00011000000310000003f800000308000022
:10585c0006080000060400000c0400000c1f0000e9
:10586c001e0000000000000000000000000000000e
:10587c00000000000000000000000000000000001c
:10588c00000000000000000000000000000000000c
:10589c000000000000fe0000008d0000030c000062
:1058ac00030c0000030c0000038c000001fc000042
:1058bc00018c0000030c0000070c0000060c00001b
:1058cc00060c0000060c000003ff000001000000a5
:1058dc0000000000000000000000000000000000bc
:1058ec0000000000000000000000000000000000ac
:1058fc00000000000000000000000000000000009c
:10590c0000c00000073000000c080000000c000074
:10591c000004000000060000000600000006000065
:10592c000006000000060000000c0000000c000047
:10593c000838000004e00000030000000000000034
:10594c00000000000000000000000000000000004b
:10595c00000000000000000000000000000000003b
:10596c0000000000000000000000000000fe00002d
:10597c00010d0000070c00000e0c00000c0c0000c8
:10598c00180c0000180c0000180c0000180c00007b
:10599c00180c0000180c00000c0c00000e0c000081
:1059ac0007ff0000010000000000000000000000e4
:1059bc0000000000000000000000000000000000db
:1059cc0000000000000000000000000000000000cb
:1059dc00000000000000000000ff0000030c0000ad
:1059ec00020c0000020c0000000c0000000c000077
:1059fc0000fc0000018c0000000c0000000c0000fa
:105a0c00000c0000000c0000040c000006ff00005d
:105a1c000300000000000000000000000000000077
:105a2c00000000000000000000000000000000006a
:105a3c00000000000000000000000000000000005a
:105a4c000000000000ff0000030c0000020c00002e
:105a5c00020c0000000c0000000c000000fc000018
:105a6c00018c0000000c0000000c0000000c000079
:105a7c00000c0000000c0000003f000000000000c3
