:020000040000fa
:080000000002040000000000f2
:020000040000fa
:100400000f7c2100007f2400000188000000000014
:100410000c000700a074200001002000110007005c
:10042000000020000000e000020032000000020096
:100430000000000074060200000000000040da0026
:100440000000fe004440a900000020000000e00081
:100450000300320000002000a00188004440a800f2
:100460000000060091018800800078000000eb0089
:1004700015003700e280400032a0b4009101ba00bc
:10048000e280400032a0b4009102ba00e280400055
:1004900032a0b4000002eb00472bde00f507b200eb
:1004a000602ce10004003a000059eb008301e900f0
:1004b000fdff3e00040037006128e100010032002a
:1004c0000082eb00040007001101ba000200e00006
:1004d000e8ff3a00000006003159ba008301e90044
:1004e0000c0032002159ba008301e90008003200f3
:1004f0000400e00003003a00e280400032a0b400b3
:10050000f5ff370011d9ba008301e900faff3a007c
:100510008100e800e180400032a0b4000000060045
:020000040000fa
:020000040005f5
:0457f800ae7b000084
:020000040000fa
:020000040005f5
:0457fc007f3e0000ec
:020000040000fa
:10000800580700005807000058070000580700006c
:10001800580700005807000058070000580700005c
:10002800580700005807000058070000580700004c
:10003800580700005807000058070000ee060000a7
:10004800580700005807000058070000580700002c
:10005800580700005807000058070000580700001c
:10006800580700005807000058070000580700000c
:1000780058070000580700005807000058070000fc
:1000880058070000580700005807000058070000ec
:1000980058070000580700005807000058070000dc
:1000a80058070000580700005807000058070000cc
:1000b80058070000580700005807000058070000bc
:1000c80058070000580700005807000058070000ac
:1000d800580700005807000058070000580700009c
:1000e800580700005807000058070000580700008c
:1000f800580700005807000058070000580700007c
:10010800580700005807000058070000580700006b
:10011800580700005807000058070000580700005b
:10012800580700005807000058070000580700004b
:10013800580700005807000058070000580700003b
:10014800580700005807000058070000580700002b
:10015800580700005807000058070000580700001b
:10016800580700005807000058070000580700000b
:1001780058070000580700005807000058070000fb
:1001880058070000580700005807000058070000eb
:1001980058070000580700005807000058070000db
:1001a80058070000580700005807000058070000cb
:1001b80058070000580700005807000058070000bb
:1001c80058070000580700005807000058070000ab
:1001d800580700005807000058070000580700009b
:1001e800580700005807000058070000580700008b
:0801f800580700005807000041
:020000040000fa
:10020800580700005807000058070000580700006a
:10021800580700005807000058070000580700005a
:10022800580700005807000058070000580700004a
:10023800580700005807000058070000ee060000a5
:10024800580700005807000058070000580700002a
:10025800580700005807000058070000580700001a
:10026800580700005807000058070000580700000a
:1002780058070000580700005807000058070000fa
:1002880058070000580700005807000058070000ea
:1002980058070000580700005807000058070000da
:1002a80058070000580700005807000058070000ca
:1002b80058070000580700005807000058070000ba
:1002c80058070000580700005807000058070000aa
:1002d800580700005807000058070000580700009a
:1002e800580700005807000058070000580700008a
:1002f800580700005807000058070000580700007a
:100308005807000058070000580700005807000069
:100318005807000058070000580700005807000059
:100328005807000058070000580700005807000049
:100338005807000058070000580700005807000039
:100348005807000058070000580700005807000029
:100358005807000058070000580700005807000019
:100368005807000058070000580700005807000009
:1003780058070000580700005807000058070000f9
:1003880058070000580700005807000058070000e9
:1003980058070000580700005807000058070000d9
:1003a80058070000580700005807000058070000c9
:1003b80058070000580700005807000058070000b9
:1003c80058070000580700005807000058070000a9
:1003d8005807000058070000580700005807000099
:1003e8005807000058070000580700005807000089
:0803f80058070000580700003f
:020000040000fa
:100520008040780060c2bf000018a300fdff3a00c1
:100530000180fb004013880060c2bf000008a300d8
:10054000fdff320000000600dc22a90000c5b30058
:10055000f3ff070040138000dc22a800dc22a90082
:1005600010c0b300eeff0700401380000040eb0016
:10057000ebff070040138000dc22a800000006000b
:10058000dd82a800d982a9008000eb000113880059
:10059000b00120001013880062a2a8002113880077
:1005a0006342a9006302a90062c2a8006322a800f6
:1005b00061e2a800dc22a800d822a900f0c2a900ac
:1005c000f102a900f0e2a800103a8000f00bb2009e
:1005d0006304200072052000217420008348780005
:1005e0008248780080487800d5c6bf0001ccb300af
:1005f00001406000b040b300d5e6b700d3c6bf00ed
:1006000001406000a040b300d3e6b700acc6bf0015
:1006100001406000a041b300ace6b700103a800092
:100620000060a00021742000834878008248780090
:1006300080487800c4ff3700dc22a90060c0b30006
:10064000b7ff070040138000dc22a800000006006e
:10065000dc22a90050c0b300b1ff070040138000a6
:100660000040eb00aeff070040138000dc22a80032
:100670006100600000000600889fbe008a1f7800ad
:10068000004578000204be00ebff0700dc22a90051
:1006900020c0b300a2ff070040138000094078008b
:1006a0009fff0700401380004840de009cff0700ca
:1006b000401380000840780099ff07004013800035
:1006c0000a40780096ff070040138000dc22a80053
:1006d000dfff07000004e000fdff3a004f0578004f
:1006e0004f04be0000000600889fbe000004be004c
:1006f000dc22a90030c0b30089ff0700401380004e
:100700000940780086ff0700401380004840de0063
:1007100083ff0700401380000840780080ff070037
:10072000401380000040eb007dff07004013800075
:10073000dc22a8000080fb004f04be000000060081
:10074000889fbe008a1f7800000578000204be0062
:10075000c9ff070061044400e0844c004850de00fb
:100760000801be00c4ff07004f0578004f04be001b
:1007700000000600889fbe008a1f78000004be00ab
:10078000d9ff07000080fb0001f02f000105650084
:100790000005750061044400e0844c000800be00c0
:1007a000d1ff07004800dd000a85fb000005750049
:1007b0000a0078004f0578004f04be0000000600d4
:1007c000889fbe008a9fbe008c9fbe008e1f78004f
:1007d0000005be0002067800030778000001be0095
:1007e0008c0678000500370061044100e084490070
:1007f0003d407800a0ff07000801be008a04780091
:100800000a0051008e0f5000f7ff39000a00370030
:100810001c4478000a00be00b3ff0700804f54005c
:10082000020032000000eb00070037000c06e80071
:1008300061054500e0854d00090055008e0f500010
:10084000f3ff3900100020004f0778004f06be006c
:100850004f05be004f04be0000000600889fbe008a
:100860008a9fbe000004be00820578000305780060
:10087000dc22a90030c0b30029ff0700401380002c
:100880000940780026ff0700401380004840de0042
:1008900023ff0700401380000840780020ff070076
:1008a000401380000004eb00050037000040eb001f
:1008b0001bff07004013800080757c000804e800df
:1008c0008a0f5400f9ff3a00dc22a8004f05be0051
:1008d0004f04be000000060057ff0700dc22a900fd
:1008e00000c6b3000eff070040138000dc22a80002
:1008f00057ff07000004e000fdff3a00000006007b
:10090000889fbe000004be004bff0700dc22a90048
:1009100000c2b30002ff07004013800009407800c6
:10092000fffe0700401380004840de00fcfe070089
:100930004013800008407800f9fe07004013800053
:10094000dc22a80040062000d205020000000000c2
:100950003fff07000004e000fdff3a004f04be0027
:1009600000000600e8a2a900e882a800103a800072
:10097000f00bb200630420007205200021742000f7
:10098000834878008248780080487800a6c6bf0077
:1009900001ccb30001406000a040b300a6e6b70060
:1009a000d1c6bf00014060005040b300d1e6b7009f
:1009b000103a80000060a000217420008348780075
:1009c000824878008048780020022000c01188000a
:1009d0000000eb00801188009011880031e2a8002f
:1009e0003002a9003342a8003062a8003222a900d8
:1009f000000006008040780033c2bf000018a3004a
:100a0000fdff3a000180fb00a011880000000600f5
:100a10006f406000e94f5000030036007043b000a3
:100a20000080fb00000006000043b0000080fb00d7
:100a300000000600b01180003222a9000080fb00f7
:100a4000000006008040780060c6b30080cf5000f0
:100a500017003e006640500080cf50000200360074
:100a600090cab3000f00370060c4b30080cf5000bd
:100a70000f003e006640500080cf5000020036005c
:100a800090ccb3000700370090c3b30080cf500074
:100a900007003e006a40500080cf5000040036003e
:100aa00000cdb30000c040000080fb000000060045
:100ab00000000500881f7800004478000080fb00db
:100ac0004400de00d2ff07008040780033c2bf0040
:100ad0000018a300fdff3a000180fb00a011880070
:100ae0006f406400caff07008040780033c2bf0037
:100af0000018a300fdff3a000180fb00a011880050
:100b00004f04780000000600881f78000004780079
:100b10004800de00e7ff070008407800e5ff070017
:100b20004f04780000000600889fbe000004be004d
:100b300009007800f4ff070008007800f2ff0700c2
:100b40004f04be0000000600800078000600370059
:100b50008100e80033c2bf000018a300fdff3a0087
:100b60000280fb00a0118800114178000204e0001f
:100b7000f7ff3a000000060032c2bf000018a300d1
:100b8000010032003222a90032c2bf000008a300d7
:100b9000fdff3200b01180003222a9000080fb006e
:100ba000000006000001eb000400370001c820002f
:100bb0008100e900feff3a000201e800800f5100c9
:100bc000faff3a0000000600889fbe008a9fbe0020
:100bd0008005eb001a8020008a0478000b003700a3
:100be00022050200000000004404dd0019409000ce
:100bf0008984e800220502000000000080407400a3
:100c00000180fb0080854500015d78001940780077
:100c10000004e000f2ff3a000b04e00001003200a3
:100c200010c0b3000004a2000080fb004f05be000e
:100c30004f04be000000060012802000b240900069
:100c4000e4cf500013003200e5cf5000180032000e
:100c5000100020000104e00022003a0030c0200013
:100c6000924090000148780020c02000a2409000ef
:100c7000014878009281fb005280200010608000c3
:100c800021608000e0030200000000000080fb0003
:100c9000000006005180200050c02000114878005c
:100ca0006180200040c0200011487800100005003d
:100cb0005180200050c02000114878006180200041
:100cc00040c02000114878007180200030c0200012
:100cd000114878008180200020c020001148780051
:100ce0001000200000000600881f7800cde2a90057
:100cf000c9e2a900c002020000000000b204020024
:100d000000000000dac2bf000068a30002003a0041
:100d10006c04020000000000008020000048eb008e
:100d20006000b80010608800216088000004eb00bb
:100d3000bc05020000000000804078000280200016
:100d4000124078000004e00003003200e14f500040
:100d5000f7ff3a0007003700a0c3b30080cf500070
:100d6000f3ff3a0010c0b30000497800188020005b
:100d7000efff3700edcf500016003a000040eb00c7
:100d8000004c7800104498000884e800004978007e
:100d90008dff07000004e00002003a00e0c4b30049
:100da00007003700a4ff07000004e00007003a0036
:100db000e0c4b300fa0402000000000000c5b30064
:100dc000fa04020000000000d9ff370090c5b3000c
:100dd000fbff3700015c7800d5ff370000a0fe0064
:100de0003400f800881f780008002000a80188005f
:100df0004f047800c12d200091407800e1c06000d0
:100e00000104a200dcc2bf000004a1000140700088
:100e1000dce2b700316080000100e800306088004b
:100e2000421f2000828f5000060036000000eb00b9
:100e30003060880011e1a90030088800620888004d
:100e4000dc02a9000c21ec0084e0a9003400f900c8
:100e50000080fe00004006000000eb0030608800cb
:100e600030088800401f20006008880010c1bf00c3
:100e7000f1ccb300014060000044a00010e1b700d5
:100e800084e0a90094e0a800dc02a900d802a9002f
:040e90000000060058
:020000040000fa
:100e9400060c000002000000000000000008000032
:0c0ea40006040000000000000000000038
:020000040000fa
:040eb0000000fe0040
:00000001FF
