:020000040000fa
:080000000002040000000000f2
:020000040000fa
:10040000cfd6200000ff2700000188000000000078
:100410000c00070040072800010020000f00070023
:10042000000020000000e000020032000000020096
:1004300000000000aa460200000000000040da00b0
:100440000000fe0080b220000000e0000200320048
:10045000002020009001880000000600a102880012
:10046000800078000000eb001a003700e2804000b6
:1004700054a0b4009101ba00e280400054a0b4003e
:100480009102ba00e280400054a0b4000002eb00e8
:10049000472bde00f507b200a6018800602ce100c2
:1004a00008003a000049eb000201e80002003900b0
:1004b0003420ec0002f0a0008301e900f9ff3e00c7
:1004c000040037006128e100010032000082eb00e7
:1004d000040007001101ba000200e000e3ff3a0047
:1004e0000000060004d0a300e20f49001c00390000
:1004f000810278003549ba000201e80002003900a3
:100500003420ec0002f0a0008301e9000f0032006b
:100510002549ba000201e800020039003420ec004d
:1005200002f0a0008301e900080032000400e000ae
:100530000600320015c9ba000201e80002003900c5
:100540003420ec0002f0a0008301e9008180e80083
:1005500054a0b4000300e000e2ff3a0000000600ef
:100560009102ba00055978008301e900f7ff3200d3
:10057000c82ade00055978008301e900f3ff320044
:100580000400e000f1ff320011d9ba00eeff37009d
:10059000020ab900001bb9000200b8008100420045
:1005a0008100430000000600881f7800206b800057
:1005b0000000e0000100320000000100f06a80004d
:1005c0000000e000010032000000010090648000a3
:1005d0000000e000010032000000010060648000c3
:1005e0000000e000010032000000010060d62000a1
:1005f0001004e00026003a00006b8000116b8000c0
:100600000004eb00d260260093012000e0ff070009
:10061000f2352f00e3c6230000004100818049002d
:100620000804e800e80f5400f6ff3a00006b880069
:10063000116b880048c92000d26026009301200079
:10064000006b8000116b8000d1ff0700f2352f0096
:10065000e3c623000000410081804900006b880050
:10066000116b8800009cbe0040d12000800f540018
:10067000f1ff3a0080688000916880007064880013
:100680008164880011c0b30060d620000148780062
:10069000d260260093012000006b8000116b800067
:1006a000bbff0700f2352f00e3c623000000410026
:1006b00081804900006b8800116b8800e2c820002f
:1006c000120178007f0161004211dd0043c9200062
:1006d000030141001202be00746488008564880032
:1006e0000089be0070648000816480004008de00e4
:1006f00000f0a1004f047800000006008001eb002c
:1007000002003700817178008301e800828f510078
:10071000fcff3a0000000600881f78000004780003
:10072000206b80000000e0000100320000000100aa
:1007300060d620000048eb00f06a80000000e00076
:1007400001003200000001006140b800006b880029
:10075000116b88004f0478000000060080007800cc
:10076000010037000000e8001004e000fdff3a003f
:100770000100500000000600040037000204e00001
:100780000a0032000000e8008100e8001041780013
:10079000914f5100f9ff32000081eb0010407800ca
:1007a000914f500004003900020037000001eb00b7
:1007b000010037001200200002007800000006004f
:1007c0008001eb0008003700e342780063c2780044
:1007d0008301e80084cf5200030032000080eb0068
:1007e0000400390010000500828f5100f6ff3a0026
:1007f0000000eb0000000600800178000001780096
:1008000031407800005978000004e000fcff3a0015
:100810000300780000000600ec874700889fbe00b8
:100820008a9fbe008c9fbe008e1f7800f0b79f008d
:1008300081bf9f0082047800000478000100370027
:100840000804e800184778000e00fb008d00070040
:100850000000e000faff3a00d0c2b300804f57001a
:100860000500320000c0e900804f5700020032004e
:1008700000477800010037000804e8000900e000a4
:1008800045003500e18f5400430032004002200053
:10089000808f540040003c000900e0000e0034004e
:1008a000f08f54001a003a0000c3b300984f1000b4
:1008b00016003a009840900080c7b30080cf5000e7
:1008c0000300320080c5b30080cf50000f003a0013
:1008d0000884e8000e003700a900200000c3b30020
:1008e000984f10000a003a009840900080c7b3006b
:1008f00080cf5000040032008900200080c5b30082
:1009000080cf500002003a000884e800090120006e
:100910000805780000c3b300010037000a05e800ad
:100920009a4f1000fdff32008a0578006066b8001b
:100930000e00370090d3200000425200c4ef9f0009
:100940006149b9000c00be0011ff07004fea970093
:100950000401fb00cf91de008b05e800ccb79f00bf
:10096000ddb79f0000064100818649001b00fb00a7
:100970004c000700800078000901780090d3200027
:100980004f000700000278000000e000e9ff3a0095
:100990008b0f540006003a000fb897000000e000eb
:1009a00029003200ffb097000108780026003700c8
:1009b0008a80550040d1200060c07c000000fb0010
:1009c00000805000160033004240a9000f003c0098
:1009d0004fe997000200fb00cf80de0000005600c8
:1009e00081805e00800f5600818f5e000700390015
:1009f0006149b9007e0107004fb19700dfb1970050
:100a0000820f5000838f5800050032002002200022
:100a1000506b88000086eb008086eb0005003700f5
:100a2000d0c2b300804f570002003a0060061600a3
:100a3000e0861e008fb997000300e000030032003b
:100a40008b097800010037006066b8000c00be001a
:100a50004f0778004f06be004f05be004f04be0092
:100a6000cf00b100000006008001eb00020037005b
:100a700061f079008301e800828f5100fcff3a00a9
:100a8000000006006900e100040035006d00e1008f
:100a9000030034000002b100010032000000050034
:100aa00010000500800078001104b100030035003b
:100ab0009101b10001003c000050a00000000600c0
:100ac0008001eb00040037008301e80090cf1000a4
:100ad000040032000000e800828f5100faff3a0063
:100ae0000000eb0000000600406b80000000e0000a
:100af0000100320000000100a0d620000000060026
:100b00003b0107000400be0000000600889fbe00f5
:100b10008a9fbe008c1f78000205be000004be0044
:100b20000006eb00e00f5000e08f5800e00f590086
:100b3000e08f590007003d006000b8006011b80068
:100b400008045000898458000a0559008b85590013
:100b50001c002000e00f5200e08f5a00e00f5b0005
:100b6000e08f5b0002003d000f0007000c00a200b8
:100b70000800be000a01be002d0107000203be00ee
:100b80000002be000c00e000010032000600070079
:100b90000400be000601be004f0678004f05be00ef
:100ba0004f04be00000006006000b8006011b800ed
:100bb00004025000858258000603590087835900bb
:100bc00000000600881f7800000478005001be0075
:100bd0004000be0004004000858048000601490036
:100be00087814900009cbe000294be000400e10021
:100bf0000588e1000690e1000798e100020031005d
:100c0000680044001008e8004f0478000000060067
:100c1000f4874700889fbe008a9fbe008c9fbe005d
:100c20008e1f78000205be000004be00d4b79f00ee
:100c3000e5b79f00f6b79f0087bf9f000000eb005d
:100c4000c0b79f00b0b79f00a0b79f0090b79f00ac
:100c500080b79f000d042000bfb097004fb09700f1
:100c6000000140000000e0000f003d004f08de00e2
:100c700000007100c0b79f009e00070001003d000a
:100c800012002000a100070001003d00120020001a
:100c9000a6000700b1000700b60007000f004000e3
:100ca000c8ff0700220037004f08de000006710071
:100cb000ccb79f008f00070001003d00120020000c
:100cc0009200070001003d0012002000970007007d
:100cd000a20007000fb297009fb297002fb39700b2
:100ce000bfb39700a90007000000520081805a009e
:100cf00002015b0083815b0080b79f0091b79f007a
:100d0000a2b79f00b3b79f000007eb009f0007004a
:100d10000020e10001a8e10002b0e10003b8e10019
:100d2000010031001e0020000e005600c0b79f00d9
:100d30004fb297000400e0000700350010002000cb
:100d4000010020006011b800080470008984700060
:100d50000a0571008b8571008d06e900beff3a001f
:100d60000400e00003003d00820007000f00400087
:100d700094ff07004fa897000000e00004003a002d
:100d80000fb497009fb497002fb59700bfb5970099
:100d9000940007004f0778004f06be004f05be00c5
:100da0004f04be004f01b10000000600881f78000c
:100db00018002000881f780095ff07008f87e90042
:100dc0004f04780000000600801feb0090ff070032
:100dd0008f87e90000000600889fbe008a9fbe0042
:100de0008c1f78006e00070007003d0073000700ad
:100df000e00f5b00e08f5b0007003d003200070062
:100e00000006eb00040037003400070002003d003c
:100e10002a0007001c00200072000700e3ff070003
:100e20000203be000002be000c00e0000100320020
:100e3000220007000400be000601be004f06780035
:100e40004f05be004f04be0000000600889fbe0094
:100e50008a9fbe008c1f78005100070005003d00ee
:100e600056000700e00f5b00e08f5b0006003d00ce
:100e7000040037001900070003003d006000b800bf
:100e80006011b8001000070056000700ceff0700f1
:100e90000203be000002be000c00e00001003200b0
:100ea000060007000400be000601be004f067800e1
:100eb0004f05be004f04be00000006006000b800f1
:100ec0006011b8000000370004025000858258000d
:100ed0000603590087835900000006000006eb0056
:100ee000e00f5200e08f5a00e00f5b00e08f5b00e4
:100ef000000006000180400090b79f000001eb0059
:100f00008fb097000100e0000000060002007000b2
:100f100090b79f000180400080b79f000001eb0068
:100f2000ffa897000100e00000000600020070002a
:100f300080b79f00018040006faa9700cf20de009d
:100f400001007000f0af9f0004024200250007007e
:100f50004f18de000002720000000600e4af9f00a0
:100f60000804440089844c000a054d008b854d001f
:100f7000000006003fb29700cfb297005fb3970022
:100f8000efb3970000fe2f00000006003fb097006f
:100f9000cfb097005fb19700efb197000000060057
:100fa0000205be000004be00e00f5000e08f5800b4
:100fb000e00f5900e08f5900000006006000b80003
:100fc0006011b80008045000898458000a055900cf
:100fd0008b8559001c002000e00f5200e08f5a0062
:100fe000000006000800be000a01be000000060066
:100ff0006022b800060220000000d0008180d200ec
:101000000482d2008582d2000000a00002025200b9
:1010100083825a00030031000202420083824a00a8
:101020000000a1000603e900f3ff3a0000000600fb
:10103000889fbe008a9fbe008c9fbe000404b8003b
:101040000506b8008904460060854e000606b80013
:101050000a054600e0854e000706b8008b054600ed
:10106000040eb800890446000a854e00e0854d0054
:10107000050eb8000a0546008b854e00060eb80026
:101080008b0546000416b8000a0546008b854e0005
:101090000516b8008b054600041eb8008b054600f7
:1010a0000800be000a01be004f06be004f05be008c
:0810b0004f04be000000060021
:020000040000fa
:020000040005f5
:0457f400fffc0000b6
:020000040000fa
:020000040005f5
:0457f800ed9b000025
:020000040000fa
:020000040005f5
:0457fc007f3e0000ec
:020000040000fa
:10000800b4840000b48400002c4400003244000092
:10001800b4840000b4840000b4840000b4840000f8
:10002800b4840000b4840000b4840000f8820000a6
:10003800b4840000b4840000b4840000b4840000d8
:10004800b4840000b4840000b4840000b4840000c8
:10005800b4840000b4840000b4840000b4840000b8
:10006800b4840000b4840000b4840000b4840000a8
:10007800b4840000b4840000b4840000b484000098
:10008800b4840000b4840000b4840000b484000088
:10009800b4840000b4840000b4840000b484000078
:1000a800b4840000b4840000b4840000b484000068
:1000b800b4840000b4840000b4840000b484000058
:1000c800b4840000b4840000b4840000b484000048
:1000d800b4840000b4840000b4840000b484000038
:1000e800b4840000b4840000b4840000b484000028
:1000f800b4840000b4840000b4840000b484000018
:10010800b4840000b4840000b4840000b484000007
:10011800b4840000b4840000b4840000b4840000f7
:10012800b4840000b4840000b4840000b4840000e7
:10013800b4840000b4840000b4840000b4840000d7
:10014800b4840000b4840000b4840000b4840000c7
:10015800b4840000b4840000b4840000b4840000b7
:10016800b4840000b4840000b4840000b4840000a7
:10017800b4840000b4840000b4840000b484000097
:10018800b4840000b4840000b4840000b484000087
:10019800b4840000b4840000b4840000b484000077
:1001a800b4840000b4840000b4840000b484000067
:1001b800b4840000b4840000b4840000b484000057
:1001c800b4840000b4840000b4840000b484000047
:1001d800b4840000b4840000b4840000b484000037
:1001e800b4840000b4840000b4840000b484000027
:0801f800b4840000b48400008f
:020000040000fa
:10020800b4840000b48400002c4400003244000090
:10021800b4840000b4840000b4840000b4840000f6
:10022800b4840000b4840000b4840000f8820000a4
:10023800b4840000b4840000b4840000b4840000d6
:10024800b4840000b4840000b4840000b4840000c6
:10025800b4840000b4840000b4840000b4840000b6
:10026800b4840000b4840000b4840000b4840000a6
:10027800b4840000b4840000b4840000b484000096
:10028800b4840000b4840000b4840000b484000086
:10029800b4840000b4840000b4840000b484000076
:1002a800b4840000b4840000b4840000b484000066
:1002b800b4840000b4840000b4840000b484000056
:1002c800b4840000b4840000b4840000b484000046
:1002d800b4840000b4840000b4840000b484000036
:1002e800b4840000b4840000b4840000b484000026
:1002f800b4840000b4840000b4840000b484000016
:10030800b4840000b4840000b4840000b484000005
:10031800b4840000b4840000b4840000b4840000f5
:10032800b4840000b4840000b4840000b4840000e5
:10033800b4840000b4840000b4840000b4840000d5
:10034800b4840000b4840000b4840000b4840000c5
:10035800b4840000b4840000b4840000b4840000b5
:10036800b4840000b4840000b4840000b4840000a5
:10037800b4840000b4840000b4840000b484000095
:10038800b4840000b4840000b4840000b484000085
:10039800b4840000b4840000b4840000b484000075
:1003a800b4840000b4840000b4840000b484000065
:1003b800b4840000b4840000b4840000b484000055
:1003c800b4840000b4840000b4840000b484000045
:1003d800b4840000b4840000b4840000b484000035
:1003e800b4840000b4840000b4840000b484000025
:0803f800b4840000b48400008d
:020000040000fa
:1010b80074650000787400002f7000006c610000f7
:1010c800696e00000074000065780000742f00004d
:1010d800687400006d6c0000007400006578000002
:1010e800742f0000786d00006c000000746500002b
:1010f800787400002f63000073730000006900001b
:101108006d610000676500002f67000069660000d8
:10111800006900006d610000676500002f70000025
:101128006e670000006900006d61000067650000df
:101138002f6a000070650000670000006170000001
:10114800706c00006963000061740000696f000042
:101158006e2f00006a610000766100002d760000a5
:101168006d00000061750000646900006f2f0000c9
:10117800782d00007761000076650000000000000f
:101188005c880000678800006788000067880000a6
:10119800718800007a880000838800008d8800002c
:1011a80097880000a2880000b6880000c388000065
:1011b8000d0a00000048000054540000502f0000a1
:1011c800312e0000312000003230000030200000b5
:1011d8004f4b00000d0a0000436f00006e6e0000c8
:1011e80065630000746900006f6e00003a2000001b
:1011f800636c00006f730000650d00000a000000ba
:1012080048540000545000002f3100002e310000d7
:1012180020340000303000002042000061640000eb
:1012280020520000657100007565000073740000ad
:101238000d0a0000436f00006e6e00006563000039
:10124800746900006f6e00003a200000636c0000b3
:101258006f730000650d00000a0d00000a340000dd
:10126800303000002042000061640000205200007d
:101278006571000075650000737400003a20000075
:10128800636100006e2700007420000068610000a0
:101298006e6400006c650000204300006f6e000063
:1012a800746500006e7400002d4c0000656e00002f
:1012b80067740000680d00000a0000004854000030
:1012c800545000002f3100002e310000203400005f
:1012d80030310000205500006e6100007574000078
:1012e800686f0000726900007a650000640d0000f4
:1012f8000a570000575700002d4100007574000080
:10130800686500006e740000696300006174000085
:10131800653a000020420000617300006963000024
:1013280020720000656100006c6d00003d22000025
:10133800507200006f74000065630000746500005f
:10134800642200000d0a0000436f00006e6e00006a
:1013580065630000746900006f6e00003a200000a9
:10136800636c00006f730000650d00000a0d00003b
:101378000a34000030310000205500006e61000082
:1013880075740000686f0000726900007a650000db
:10139800643a000020500000617300007377000079
:1013a8006f72000064200000726500007175000013
:1013b80069720000656400000d0a00000048000022
:1013c80054540000502f0000312e0000312000003e
:1013d80034300000342000004e6f000074200000fc
:1013e800666f0000756e0000640d00000a4300007f
:1013f8006f6e00006e65000063740000696f000086
:101408006e3a0000206300006c6f000073650000f6
:101418000d0a0000436f00006e740000656e000046
:10142800742d000054790000706500003a20000017
:1014380074650000787400002f680000746d000067
:101448006c0d00000a0d00000a3400003034000062
:101458003a200000466900006c650000206e00001c
:101468006f740000206600006f7500006e64000055
:101478003c620000723e00005573000065200000c9
:101488003c6100002068000072650000663d0000b5
:10149800222f00006d700000667300007570000058
:1014a8006c6f000061640000223e00004d50000097
:1014b8004653000020550000706c00006f6100006a
:1014c800643c00002f6100003e200000746f0000a3
:1014d80020700000726f000067720000616d0000ec
:1014e800207700006562000020700000616700003e
:1014f800657300000d0a0000004800005454000005
:10150800502f0000312e000031200000343100003f
:1015180034200000526500007175000065730000fa
:10152800742d00005552000049200000546f00003f
:101538006f2000004c6f00006e6700000d0a00006d
:10154800436f00006e6e0000656300007469000060
:101558006f6e00003a200000636c00006f7300009b
:10156800650d00000a0d00000a3400003134000047
:10157800205200006571000075650000737400005a
:101588002d55000052490000205400006f6f0000e4
:10159800204c00006f6e0000673a000020420000f7
:1015a8007566000066650000722000006f76000016
:1015b80065720000666c00006f7700002064000010
:1015c800657400006563000074650000640d000028
:1015d8000a00000048540000545000002f31000059
:1015e8002e31000020350000303000002049000076
:1015f8006e740000657200006e6100006c200000cf
:1016080053650000727600006572000020450000f6
:10161800727200006f7200000d0a0000436f000034
:101628006e6e000065630000746900006f6e000054
:101638003a200000636c00006f730000650d000025
:101648000a0d00000a350000303000002049000073
:101658006e740000657200006e6100006c2000006e
:101668005365000072760000657200002045000096
:10167800727200006f7200003a2000004578000086
:101688007065000063740000656400002064000059
:1016980061740000612000006e6f0000742000007b
:1016a8007072000065730000656e0000740d000024
:1016b8000a00000048540000545000002f31000078
:1016c8002e3100002035000030310000204e00008f
:1016d8006f740000204900006d7000006c65000008
:1016e8006d6500006e740000656400000d0a00005e
:1016f800436f00006e6e00006563000074690000af
:101708006f6e00003a200000636c00006f730000e9
:10171800650d00000a0d00000a3500003031000098
:10172800204e00006f740000204900006d7000001a
:101738006c6500006d6500006e7400006564000053
:101748003a2000004f6e00006c790000204700002e
:1017580045540000206100006e6400002050000025
:101768004f53000054200000737500007070000093
:101778006f72000074650000640d00000a0000002c
:1017880048540000545000002f3100002e31000052
:101798002032000030300000204f00004b0d0000c8
:1017a8000a4300006f6e00006e650000637400005d
:1017b800696f00006e3a0000206300006c6f000043
:1017c800736500000d0a0000436f00006e7400008e
:1017d800656e0000742d00005479000070650000eb
:1017e8003a20000074650000787400002f6800003b
:1017f800746d00006c0d00000a0d00000a3c00002a
:10180800687400006d6c00003e3c0000626f0000d0
:101818006479000020730000747900006c65000092
:101828003d2200006d61000072670000696e0000d3
:101838003a3100003030000070780000223e00008d
:101848003c6600006f7200006d2000006d650000ae
:10185800746800006f6400003d7000006f73000042
:101868007420000061630000746900006f6e00005e
:101878003d2200002f6d00007066000073750000a7
:10188800706c00006f610000642200002065000099
:101898006e63000074790000706500003d2200004e
:1018a8006d7500006c7400006970000061720000c2
:1018b800742f0000666f0000726d00002d64000038
:1018c80061740000612200003e3c0000623e00009e
:1018d8004d50000046530000204900006d61000093
:1018e8006765000020550000706c00006f61000003
:1018f800643c00002f6200003e3c0000703e000087
:101908003c6900006e7000007574000020740000cf
:1019180079700000653d0000666900006c65000094
:10192800206e0000616d0000653d00006920000028
:10193800736900007a6500003d340000303e000005
:10194800202600006e620000737000003b2000003b
:101958003c6900006e70000075740000207400007f
:1019680079700000653d000073750000626d00002d
:101978006974000020760000616c00007565000045
:101988003d220000557000006c6f0000616400008b
:10199800223e00003c2f0000666f0000726d0000c0
:1019a8003e3c00002f6200006f640000793e00009a
:1019b8003c2f0000687400006d6c00003e000000c1
:1019c80048540000545000002f3100002e31000010
:1019d8002032000030300000204f00004b0d000086
:1019e8000a4300006f6e00006e650000637400001b
:1019f800696f00006e3a0000206300006c6f000001
:101a0800736500000d0a0000436f00006e7400004b
:101a1800656e0000742d00005479000070650000a8
:101a28003a20000074650000787400002f680000f8
:101a3800746d00006c0d00000a0d00000a3c0000e7
:101a4800687400006d6c00003e3c0000626f00008e
:101a58006479000020730000747900006c65000050
:101a68003d2200006d61000072670000696e000091
:101a78003a3100003030000070780000223e00004b
:101a88003c6200003e4d000050460000532000001c
:101a98005570000064610000746500002053000068
:101aa80075630000636500007373000066750000cd
:101ab8006c3c00002f6200003e3c0000703e0000bd
:101ac8003c6100002068000072650000663d00006f
:101ad800222f0000223e00005369000074650000b8
:101ae800206d0000616900006e2000007061000038
:101af800676500003c2f0000613e00003c2f00009d
:101b0800626f0000647900003e3c00002f6800000e
:101b1800746d00006c3e0000004800005454000042
:101b2800502f0000312e0000312000003530000019
:101b380030200000496e000074650000726e0000dd
:101b4800616c00002053000065720000766500009b
:101b58007220000045720000726f0000720d0000d4
:101b68000a4300006f6e00006e6500006374000099
:101b7800696f00006e3a0000206300006c6f00007f
:101b8800736500000d0a0000436f00006e740000ca
:101b9800656e0000742d0000547900007065000027
:101ba8003a20000074650000787400002f68000077
:101bb800746d00006c0d00000a0d00000a3c000066
:101bc800687400006d6c00003e3c0000626f00000d
:101bd8006479000020730000747900006c650000cf
:101be8003d2200006d61000072670000696e000010
:101bf8003a3100003030000070780000223e0000ca
:101c08003c6200003e4d000050460000532000009a
:101c1800496d00006167000065200000436f000007
:101c28007272000075700000742000006f7200006e
:101c380020570000726f00006e67000020560000f9
:101c480065720000736900006f6e00003c2f000091
:101c5800623e00003c7000003e3c00006120000035
:101c680068720000656600003d2200002f6d0000cc
:101c78007066000073750000706c00006f610000f2
:101c8800642200003e5400007279000020610000c8
:101c980067610000696e00003f3c00002f61000092
:101ca8003e3c00002f6200006f640000793e000097
:101cb8003c2f0000687400006d6c00003e000000be
:101cc80048540000545000002f3100002e3100000d
:101cd8002033000030320000204600006f750000fd
:101ce8006e6400000d0a0000436f00006e6e000075
:101cf80065630000746900006f6e00003a20000000
:101d0800636c00006f730000650d00000a4c000052
:101d18006f63000061740000696f00006e3a000094
:101d28002000000048540000545000002f310000eb
:101d38002e3100002034000030330000204600001f
:101d48006f7200006269000064640000656e000044
:101d58000d0a0000436f00006e6e0000656300000e
:101d6800746900006f6e00003a200000636c000088
:101d78006f730000650d00000a0d00000a340000b2
:101d880030330000204600006f72000062690000d6
:101d980064640000656e00003a20000053530000a0
:101da8004c20000052650000717500006972000047
:101db80065640000202d0000207500007365000098
:101dc8002048000054540000505300000d0a000041
:101dd80000000000df880000df88000004890000a0
:101de80062890000e3890000818a0000ee8a000011
:101df8005e8b0000c48b0000c3880000e48c0000e8
:101e0800918d0000648e0000968e0000436f0000e4
:101e18006f6b0000696500003a0000004175000022
:101e2800746800006f720000697a00006174000035
:101e3800696f00006e3a0000004300006f6e0000fa
:101e4800746500006e7400002d4c0000656e000083
:101e580067740000683a0000000000000a8f000064
:101e6800128f0000218f00007478000074000000b9
:101e7800687400006d000000687400006d6c00005c
:101e88000063000067690000007800006d6c0000c6
:101e980000630000737300000067000069660000bb
:101ea800007000006e670000006a000070670000a4
:101eb800006300006c61000000770000617600009c
:101ec800000000000000000000000000388f000043
:101ed8003c8f0000408f0000458f0000498f0000b4
:101ee8004d8f0000518f0000558f0000598f000062
:101ef8005d8f0000618f0000658f0000686500003d
:101f080061640000657200002e6900006e630000c5
:101f1800006600006f6f000074650000722e0000fc
:101f2800696e00006300000021440000454600007f
:101f38000047000045540000005000004f530000c7
:101f4800540000006d70000066730000757000009a
:101f58006c6f000061640000006900006e6400009e
:101f6800657800002e680000746d0000000d000008
:101f78000a0d00000a0000000d0a00000d0a00000a
:101f88004d5000004653000002010000000d000003
:101f98000a0d00000a33000030340000205200000f
:101fa800656400006972000065630000743a00000f
:101fb80020000000436f00006e740000656e000092
:101fc800742d000054790000706500003a2000006c
:101fd800004300006f6e0000746500006e7400001e
:101fe8002d4500006e6300006f640000696e0000fc
:101ff800673a0000206700007a690000700d000051
:102008000a0000004361000063680000652d0000bd
:10201800436f00006e740000726f00006c3a00009d
:10202800200000006e6f00002d6300006163000057
:1020380068650000006d0000617800002d610000f7
:10204800676500003d0000003630000030000000e9
:1020580000040000a3000000000000002020000091
:102068002020000020200000202000002020000068
:102078002020000020200000202000002020000058
:102088002020000020200000202000002020000048
:102098002020000020200000202000000053000025
:1020a8004f4c000044000000566500006e640000bc
:1020b800002d00002d0000003c3c0000003e000008
:1020c8003e0000005765000062560000656e000083
:1020d80064200000446500006d6f0000204100008e
:1020e8007070000020200000202000002020000048
:1020f80020200000202000002020000020200000d8
:1021080020200000004300006f6c00006100000008
:102118004469000065740000204300006f6c0000f3
:1021280061000000526f00006f7400002042000040
:1021380065650000720000004f720000616e0000cb
:1021480067650000004c0000656d00006f6e0000c0
:1021580061640000650000004963000065640000d8
:102168002054000065610000005700006174000001
:102178006572000000420000756900006c64000090
:10218800696e00006720000043340000202d000025
:10219800203200006e640000204600006c6f0000d2
:1021a8006f720000204e00005700000057450000e5
:1021b80042560000454e0000440000000d0a000091
:1021c8000d0a000042550000545400004f4e000014
:1021d80030200000686500006c6400002066000084
:1021e8006f720000206d00006f7200006520000013
:1021f80074680000616e0000203400002073000045
:10220800656300006f6e0000647300002e200000fc
:102218002044000065660000617500006c740000d1
:102228002073000065740000746900006e67000088
:102238007320000072650000737400006f72000064
:10224800656400002e0d00000a0d00000a00000061
:10225800204300006f6900006e20000052650000f6
:1022680074750000726e0000656400002120000093
:102278004d61000078200000637200006564000072
:1022880069740000206900007320000024350000f4
:102298000020000020200000205300004f4c0000c8
:1022a800442000004f55000054200000202000006a
:1022b8002020000020200000202000002020000016
:1022c8002020000020200000202000002020000006
:1022d800200000005072000069630000653a0000a9
:1022e80020200000242000002020000020200000e2
:1022f800202000004372000065640000697400003b
:102308003a200000242000002020000020200000a7
:10231800202000000020000020200000766500003a
:102328006e640000696e0000672e00002e2e00000b
:102338002020000020200000202000002020000095
:102348002020000020200000202000002020000085
:1023580020200000200000000d0a00004e6500004b
:10236800772000004950000020410000646400000c
:1023780072650000737300003a20000000570000e7
:1023880065620000566500006e640000204400008d
:10239800656d00006f2000004170000070000000b3
:1023a8000d0a000000000000070c000011160000d4
:1023b800070c000011160000070c000011160000a1
:1023c800070c000011160000050900000e1400009b
:1023d800050900000e140000050900000e14000095
:1023e800050900000e140000040b0000101700007f
:1023f800040b000010170000040b00001017000069
:10240800040b000010170000060a00000f1500005a
:10241800060a00000f150000060a00000f1500004c
:10242800060a00000f15000078a400006ad7000013
:1024380056b70000c7e80000db7000002024000049
:10244800eece0000bdc10000af0f00007cf500001b
:102458002ac60000874700001346000030a8000085
:102468000195000046fd0000d89800008069000032
:10247800aff70000448b0000b15b0000ffff0000d5
:10248800bed700005c89000022110000906b00009c
:102498009371000098fd00008e43000079a60000ab
:1024a80021080000b4490000622500001ef6000063
:1024b80040b3000040c00000515a00005e260000f2
:1024c800aac70000b6e900005d1000002fd6000082
:1024d800531400004402000081e60000a1d8000067
:1024e800c8fb0000d3e70000e6cd0000e1210000b2
:1024f800d607000037c30000870d0000d5f40000a0
:10250800ed1400005a45000005e90000e3a90000a9
:10251800f8a30000effc0000d90200006f6700007c
:102528008a4c00002a8d000042390000faff0000a2
:1025380081f6000071870000226100009d6d000097
:102548000c380000e5fd000044ea0000bea40000cd
:10255800a9cf0000de4b0000604b0000bbf6000076
:1025680070bc0000bfbe0000c67e00009b280000b3
:10257800fa270000a1ea000085300000efd400002f
:10258800051d00008804000039d00000d4d90000df
:10259800e5990000dbe60000f87c0000a21f0000bf
:1025a80065560000acc400004422000029f4000075
:1025b80097ff00002a430000a723000094ab000007
:1025c80039a0000093fc0000c35900005b650000bf
:1025d80092cc00000c8f00007df40000efff00009b
:1025e800d15d0000848500004f7e0000a86f0000c8
:1025f800e0e600002cfe00001443000001a30000e8
:10260800a1110000084e0000827e000053f7000070
:1026180035f200003abd0000bbd20000d72a000006
:1026280091d3000086eb00000d0a0000444800002a
:10263800435000002f5000006f77000065720000c3
:1026480020650000766500006e740000206f0000b1
:10265800636300007572000072650000640000008a
:10266800763500002e320000350000004d61000074
:1026780079200000203400002032000030310000b2
:1026880030200000313700003a310000383a0000ad
:102698003138000000000000426f00006f74000035
:1026a8006c6f000061640000657200002052000039
:1026b800657300006574000000000000706f000082
:1026c8006f6c00002e6e0000747000002e6f00000a
:1026d800726700000000000008000000c800000049
:1026e800c800000008000000c8000000c800000082
:1026f8004d50000046530000020100000000000099
:020000040000fa
:102708008040780084ccbf00814f50001700320011
:10271800e24f400008003200e2c1b3000440bc00b0
:10272800e088200000014100c08020001d00090051
:1027380030597800e201b1000100780084ecb7005c
:10274800e2cf40000900320001407800e2c1b30046
:102758000440bc00e088200002004000c180200046
:102768000e000900b0187800e001b1000000060072
:10277800e3ff070021418000000021000080600085
:10278800020032002588a900100020000000060081
:10279800dbff07008000eb0010418000e70f5000ce
:1027a80001003a0011002000010078000000060036
:1027b800d3ff07002182200091407800e7cf500026
:1027c800030032000000eb00ebcf50000b003a0092
:1027d80091408000a040800001015000808f50008f
:1027e80005003900604080000e08b5000200400076
:1027f8000000e900000006000200e90000000600f1
:10280800889fbe0000447800bdff0700604080003c
:102818000e08b5008004e90008407800e4ff0700ce
:10282800008054004f04be0000000600b4ff0700fb
:10283800b2408000c1408000810f51000200390081
:102848000100510000000600804080008100500017
:102858007040800000005100808040000100e800c6
:1028680000000600889fbe0000447800a4ff07000f
:10287800794080008040800089045000084078003a
:10288800eaff070080845400090078004f04be0066
:1028980000000600881f7800000478001000780007
:1028a8000465020000000000000c78001800900089
:1028b8000465020000000000100498002800900041
:1028c800b80090001665020000000000200498007f
:1028d8003104980048009000d80090001665020066
:1028e800000000004004980051049800780090000f
:1028f80004650200000000007004980008089000b9
:102908000465020000000000000c98001808900000
:102918000465020000000000100c98004f047800c5
:10292800000006000200fa00889fbe00c0002000d8
:102938000e7e020000000000443902000000000082
:10294800000fb2004280de00f44450003300320031
:10295800710020000000eb006a390200000000004e
:102968002b00370044390200000000000004e0009a
:102978002a003200e14f500025003200e24f50009b
:1029880017003a00e2cf5400240036000000eb00a4
:10299800d0bf9f004439020000000000e44f5000ff
:1029a80006003a004439020000000000b0ff9f0012
:1029b8004439020000000000a0ff9f00dfb8970024
:1029c80070212000808f500014003600d039b000ec
:1029d800808f500012003e00010078001000370080
:1029e800e1cf54000d003600443902000000000019
:1029f8000044780080cf5400080039008080fb0034
:102a08000000eb006a3902000000000088c454008e
:102a18008944e900e1cf4400d2ff3a008021200038
:102a28004f04be000080fa0000000600889fbe0028
:102a38008a1f780000057800020478008404780072
:102a48000304e00015003200e1cf51002a003a00eb
:102a58000104e00008003200e1cf500026003a00ef
:102a680082007800040178000a007800340502002a
:102a78000000000020003700e10f4500030032008d
:102a88000a0078005c400200000000000800be0058
:102a98002a3a020000000000170037000104e00095
:102aa8000c003200e1cf500013003a00e10f410062
:102ab80003003200020078002240020000000000fb
:102ac800890078000a0078006a39020000000000d6
:102ad8000900370004017800880078000a007800af
:102ae800be3d020000000000a83d020000000000fa
:102af8000000e000fcff32004f0578004f04be00e4
:102b08000000060085ccbf0041c820009140780035
:102b18000104e10018003200e24f40000b003200cf
:102b2800e2c1b3000440bc00fc004100e088200082
:102b3800e1407800620078008002b1008402200041
:102b480013c0b30062862000b8ff070084ccbf0022
:102b580085ecb70082fd2f00614080000101410033
:102b680084022000838220009341780011c0b300c2
:102b780060862000adff070000000600e1ff0700a7
:102b8800b043800030418800604080009040880059
:102b9800a040880070408000b0408800c040880095
:102ba800400020002468ab0001003a00d00020005b
:102bb800104188002408a9002428a9002448a90055
:102bc8002488a90024a8a90024c8a90024e8a900e9
:102bd8002508a9002528a9002548a9002568a900d5
:102be8002588a8008808a9008828a9008868a9005d
:102bf8008888a9006040800090438800d4020200c1
:102c08000000000050438800d402020000000000c9
:102c18006043880086a8ef0010002000c0438800a9
:102c280000000600b6fe0700b6ff0700008020007f
:102c3800c18720000900090031587800a0438000ae
:102c4800504088000080200000000600889fbe00d9
:102c58008a9fbe00860ce20007003a005a61020013
:102c680000000000f27f2000020060000240200007
:102c78000200400030648800c20320008000eb009e
:102c8800a08220007e0302000000000049b7210056
:102c98000005eb00183729000a40780098fe070065
:102ca8000800e800900078006300440010017800f4
:102cb8001804e00008003a00028040000080440048
:102cc800ab0220008085450080ef2100808f5500f1
:102cd80002003600fdff3700ffff37002868ef00cd
:102ce8008002200009004000604088000100400088
:102cf8000000e80070408800020040008040880022
:102d0800d0002000104188002468a9007dff07003a
:102d180078f897008de8b70098ff07000a05e800e3
:102d280066044400e20f5500020032008b0478006c
:102d3800d9ff37004f05be004f04be000000060053
:102d48002600fa00889fbe008a9fbe008c1f78006c
:102d580000447800014578006aff07000808a300ce
:102d6800020032002568a8000804a10024a8a900d0
:102d780024c8a90024e8a9002528a9002548a900f5
:102d88002508a900d8420200000000000000e00069
:102d9800fcff3200e600640071003a0090408000b9
:102da80092438000820f500007003a002568ab006c
:102db8006b0032007808e200690032000804a000c5
:102dc8008104780067003700c4438000a140800078
:102dd800820f50002200360082045000810f5100fb
:102de80002003900010051000400370060408000f3
:102df8000e08b5008280500001005000800052008b
:102e0800818f54000100360081047800504480000e
:102e1800808f5400020036002548a80080047800fe
:102e28002568ab0005003200818f54000300320092
:102e3800808f5400010032000804a00009027800c5
:102e480083822000934178008040eb00905b210052
:102e5800f6fe0700090078007228b4003d0037002c
:102e6800754080000283520086b79f00634080004f
:102e78000000430083045000810f51000200390014
:102e88000100510003003700038052008280500087
:102e98000100500000005200808f540001003600ed
:102ea8008004780053448000838f54000200360069
:102eb8002548a800830478002568ab000500320087
:102ec800808f540003003200838f540001003200c9
:102ed8000804a000890f53000100360089b79f003d
:102ee8000fb2970083822000934178008040eb0066
:102ef800905b2100cdfe07000fb0970000825400c0
:102f080084b79f000900320062408000904380002f
:102f18000e08b500915b210001004000838220006b
:102f2800934178008040eb00c0fe0700904380008a
:102f3800808044009143880072408000828f500056
:102f480004003900604080000000510000805000fb
:102f5800904388000900e00005003a0001003700ae
:102f68008004eb006300640002003a00110037009f
:102f78000834a0000a08a300040032008c68ef009f
:102f880041422f00314388006828ef00a4820200e4
:102f980000000000324380004343800000014100ec
:102fa80081814900d2408800e34088002488a80035
:102fb8002b003700224180008a80fb000118a30003
:102fc8000e0032008240e800e780600080ff2f009a
:102fd800000061000100700020418800504380001b
:102fe8006143800061005000e08058005043880031
:102ff8006143880019002000190037007000610043
:1030080002003a0080047800150037000108a30088
:103018000a003a008cc8bf00080032000040e900ee
:103028008ce8b70030438000414380008100d10024
:103038000080d3003043880041438800a482020006
:10304800000000003243800043438000000141003b
:1030580081814900d2408800e34088008004eb0069
:10306800b143800091b79f00a2438000a2b79f00a0
:103078005243800063438000b2b79f00c3b79f00ec
:103088007043800081438000d0b79f00e1b79f0064
:1030980000ff2300ffb0970000806000f0b79f009a
:1030a800f8ef9f000000eb00a0bf9f00090141005e
:1030b800e081490052438800634388008880fb0010
:1030c8000100d10061006000804578000004e00044
:1030d800130032000148a30003003a006000b80062
:1030e800d0b79f00e1b79f008828ab0007003200e7
:1030f8003fb09700cfb0970061005000e0805800c3
:10310800b0b79f00c1b79f000500370061014100bb
:10311800e081490052438800634388008828a8005a
:103128000808a300100032008808ab00070032002e
:103138003fb09700cfb0970061005000e080580082
:10314800b0b79f00c1b79f00070037005043800009
:103158006143800061004000e080480050438800df
:10316800614388008808a800b2408000c140800000
:10317800810f510005003900704080001008b5002b
:103188008100510001005000020037000280500009
:103198000000e90080bf9f005642020000000000c6
:1031a8000004b10080af9f0002003b008000eb00ec
:1031b80081af9f008fa897007e8657000fb89700b1
:1031c800810f50000100360081bf9f000c0078007d
:1031d800b0fd070074854400ffb097000140a000cf
:1031e8000150a1000160a0000170a100f1b79f008b
:1031f8000b04e0000b0032007885440020c0b300c7
:10320800a0d79f0040c0b300b0d79f002040210046
:10321800a0af9f00010078000040a1000006b300a5
:10322800f0b79f00e1952000914078008180fb0075
:103238005fc9bf004800dd00010170000196200051
:10324800914078008180fb0061c9bf004800dd0023
:103258008101700060fd2f000f044000028cbe0049
:10326800e0438000f1438000d0af9f00e1af9f00b2
:103278000040eb00e0df9f0069c0b300f9df9f006a
:103288008ab79f000a007800046502000000000069
:1032980080b79f00c1002000080078004465020044
:1032a80000000000000178000281ea008381ea0042
:1032b80092bf9f00105921005c40020000000000ee
:1032c8000a01780089407800c08720003a7e020011
:1032d80000000000410120000c0078002a3a02009a
:1032e800000000000b04e00005003200410020004f
:1032f80022fd2f000f0041002a3a020000000000c2
:10330800505a210022400200000000000a00780004
:10331800363f02000000000080af9f00505b210094
:103328005c400200000000002100200000fd2f008a
:103338000f0040002a3a02000000000096400200f8
:10334800000000004f0678004f05be004f04be0085
:103358000080fa0000000600889fbe008a9fbe0019
:10336800010478000205780083447800e4fc070033
:103378000800e00001003a001800200060408000ca
:103388001008b5008005e9000a0444008b0f5400ba
:103398004a003e00dbfd07006380640001003a003c
:1033a8003940b300088055008981fb000318a30049
:1033b80002003a000a017800040037000308a3005d
:1033c800010032000000d10000014500604080008b
:1033d800000041000004e800b14080003244800051
:1033e800e10f410009003200d04380000000410095
:1033f8008080400080408000808f500003003600ad
:103408000e08b500008040008000e900c040800040
:10341800810f50000200390005003600704080001e
:10342800800f5400040036000328a30023003a004c
:10343800c8408800b8408800c0408000808f500095
:10344800110031000328a3000f00320072408000f1
:1034580002825000838220009341780083407800e4
:103468000800780071fd0700b1408000c04080006e
:10347800808f500004003100080078000e08b50065
:1034880000805000b040880078408800604080008c
:1034980090438800a04088009040880011002000d8
:1034a80010418000e70f500005003a0000c1b3004a
:1034b80023fe070011002000010037008000eb0008
:1034c800010078004f05be004f04be000000060052
:1034d800881f780000447800d4fc07000000e00052
:1034e800070032000840780085fc0700b0408000e3
:1034f800c040880011c0b30000c1b30010fe07002f
:103508004f047800000006007dfc07007dfd0700e1
:103518009140800090438000808f5000030032006b
:1035280011c0b30000c1b30005fe0700000006008b
:1035380073fc0700b0408000c04088001041800044
:10354800e50f50002f00320006003e00e10f50004a
:103558000d0032002b003900e30f500026003e001a
:1035680028003700eb0f50001500320003003e0022
:10357800e70f500020003e0006003700ee0f500015
:103588001d003a00190037009c5702000000000097
:103598001c00370011c0b30010c1b300e8fd0700dc
:1035a8007808e200040032009140800090438000d7
:1035b800808f5000f7ff3a00800020000c00370091
:1035c80011c0b30010c1b300ddfd07007808e200a8
:1035d800040032009140800090438000808f5000aa
:1035e800f7ff3a00c000200001003700d00020009b
:1035f80010418800000006008040eb0040c1b30085
:10360800cffd07005dfd3700881f78000044780073
:103618003bfc07002468a90008407800c4ff0700a5
:103628004f047800000006000400fa00889fbe00de
:103638008a9fbe008c1f780090bf9f00a1bf9f008b
:103648000244780003057800844578008004eb0084
:10365800094678000940780029fc070010418000dd
:10366800ed0f500063003a0026fd07000b4078007c
:103678008d48e3005f003a00802120005044880014
:103688000804e00006003a00ba4388002468a8004d
:1036980040002000104188003a418800530037005c
:1036a80000c02f00860cb40081f82000810f500064
:1036b800020036000040200030648800306480003a
:1036c800b04388000000e80030648800aa438800fe
:1036d800a482020000000000d0408800e140880079
:1036e8002488a800e34f54001600320003003e006f
:1036f800e14f54003d00390003003700e44f540007
:103708003a003a00210037001fb89700afb8970079
:10371800e0438800f14388000814a2000880fb00f9
:103728000000e9004f00de004200dd004144800057
:103738000120a10080807000414488002228ef0009
:103748002a0037002fb897009fb897000100400063
:103758000a004000b1438000010068003041880041
:103768001fb89700afb89700e0438800f14388007e
:103778008c68ef00d1032000314388006828ef00ef
:103788002000200010418800180037001fb997005a
:10379800224090000080fb00b2409000c808dd0085
:1037a800808070009281fb00124090004800dd008c
:1037b80003007000808040008a804000b043800091
:1037c8008080680031418800c08720000900090016
:1037d80032587800a200b100500020001041880043
:1037e80011c0b30020c0b30055fd07000c80fb00da
:1037f800040037008904e800e28f540094ff3a007f
:10380800e00f20004f0678004f05be004f04be00b1
:103818000080fa00000006000f03b000889fbe0079
:103828008a9fbe008c9fbe008e1f7800800578009e
:10383800820478001082fb00104090004800dd00f0
:10384800040170002b4290000482fb003b40900072
:103858004800dd0084017000a2a79f00b3a79f0065
:103868001101be00c2a79f00d3a79f000040eb0034
:10387800c0cf9f0060c0b300d0cf9f00f9a79f00c2
:10388800090078000465020000000000f0a79f000e
:10389800c100200040fc2f000f00400044650200da
:1038a800000000000004780009007800363f02009c
:1038b80000000000080178000281ea008381ea0024
:1038c800820f500024033a000000eb000e7e020035
:1038d8000000000003fd2f000f844100410120007b
:1038e800080078006a39020000000000080078002b
:1038f800e8fb07006fa897004400de006f406000f7
:103908004200dd00744050000080fb0080845400b9
:1039180089bf9f00748754009fa997000300e000a7
:103928000d0332002b4090000080fb00bb4090004c
:10393800c808dd00808070001b81fb001b409000e0
:103948004800dd0002007000808040009880400040
:1039580003856800e9cfb3000004eb000840780055
:1039680067fb070010418000ed0f50002200320075
:1039780031418000e40f500005003a001fa897006d
:10398800808f50001c003a00884478001a003700e5
:103998008a8f500018003a005afc07009fa8970029
:1039a800b0438000808f500013003a0004fd2f00c0
:1039b8008f004200a0438000910f10000e003a00d3
:1039c8009b80fb001b4090004800dd000101700057
:1039d800ab4090008180fb003b4090004800dd0038
:1039e80081017000e0438000f1438000800f5100a6
:1039f800818f5900cb0232000804e800e20f54001e
:103a0800d6ff3a0005fd2f000f844200e2cf4400a4
:103a18000f0032000940780039fb070039fc070025
:103a28003a418800c6872000090009003b5b7800fe
:103a3800ab00b10018047800a84388001fac9700b9
:103a4800b84388006940800099438800b502370070
:103a58006fa897000098a300bf0232006208e20036
:103a6800bd023a001fab9700980278008004eb0073
:103a7800a4832000140078000000e0001700320042
:103a8800860f500011003a0054b89700850f500077
:103a98000e003a009b80fb001b4090004800dd00b0
:103aa80001017000ab4090008180fb003b4090001a
:103ab8004800dd008101700004b8970094b89700b1
:103ac800820f5000838f5800760232008904e80084
:103ad80074024200e38f5400e6ff3a000004eb0052
:103ae8000840780006fb07002468ab000500320098
:103af80004fc0700b24380001fa89700800f510004
:103b08006f0232000804e800e20f5400920232000b
:103b1800f3ff3700a482020000000000829628000c
:103b2800930020000001410081814900d2408800b3
:103b3800e340880014418000e40f52000300320083
:103b4800e50f520047003a00160037000880fb00d6
:103b5800e400600006003a000048a30006003200b6
:103b68005c4388006d4388000440780074fc0700bb
:103b780002fc0700780237000018a300fcff32009f
:103b88003fb09700cfb0970061004000e080480048
:103b9800704388008143880062fb07005044880016
:103ba8002a0037008880fb000128a3006a023a0037
:103bb8004408de0061006000004578000004e00071
:103bc800050032005843800069438000880f560082
:103bd800898f5e008d003a000118a3005e02320052
:103be8003fb19700cfb1970061014100e0814900e2
:103bf8007243880083438800ffa99700c343880065
:103c080048fb0700504488000a04e0000f00320017
:103c180011c0b30000c1b30049fc070070002000c8
:103c280010418800a482020000000000829628004b
:103c3800930020000001410081814900d2408800a2
:103c4800e34088002488a9004302370011c0b3006c
:103c580020c1b3003afc0700600020001041880032
:103c68003d0237000883fb00e1026300e5b79f00cf
:103c7800a5ef9f004fe897000004e00002003a001b
:103c8800aeb79f00030037000fb9970073015100ca
:103c9800a2b79f000884fb00f8b79f000818a3008c
:103ca80003003200afb197008301e800a3b79f007b
:103cb800b2408000c1408000810f510005003900ea
:103cc800704080001008b5008100510001055000c7
:103cd80002003700028050000005e90070438000b0
:103ce800814380003fb49700cfb49700000154008f
:103cf80081815c0082057800afb497000900e0007c
:103d08001f0032000a00e00028003200e00f5100d6
:103d1800e08f5900040035006150b800820f500050
:103d2800838f58000a003e00afb29700050041009b
:103d3800e08049004240a900070034000500550012
:103d4800cf80de00800f5100818f590002003c00b7
:103d580015002000010037008002eb006150b80018
:103d6800800f5100818f59000e003d002fb497003d
:103d7800088045004240a90010003c0009003700b7
:103d8800e00f5100e08f59000c00320007003500a9
:103d98006150b800820f5000838f580007003e0022
:103da800020037000500e00004003a00ffb4970065
:103db8000928a300e8013a00d6013700660063002d
:103dc8006bff3a007fb097000048a300e201320081
:103dd800eb0f520005003e00e70f520015003100be
:103de800e60f5200c0003a0003003700ec0f520003
:103df800bd003a00b6003700584380006943800090
:103e0800880f5600898f5e00080032005c438800e6
:103e18006d43880011c0b30040c0b300c8fb070061
:103e28005843880069438800cb01370070002000a0
:103e3800104188009743800092408000870051001d
:103e480003003b00604080000e08b5008080400001
:103e5800524380006343800001004100e080490034
:103e68000c0050008d80580002003b008040eb00a1
:103e7800a9013700a640800006805300cf80de00ed
:103e88000002510081825900868f530002003900d8
:103e98000400be0004003700604080000e08b50032
:103ea80000005200e0805a000001560081815e0047
:103eb8004240a9002f003400614080007940800012
:103ec800018454006140b800800f5100818f59006f
:103ed80028003e008868a9008888a9002508a9004c
:103ee800a040800002024000a44088009143800066
:103ef800808f500004003900848f50000d0031007d
:103f0800010052000400370008804000840f500070
:103f180008003100000052005243800063438000d3
:103f280000004100e0804900504388006143880058
:103f38009443880071408000810f520004003900ca
:103f4800604080000080500000005200a0408800bf
:103f58009243800071408000810f51001c0039009d
:103f680060408000008050000000510090438800ad
:103f780017003700870f53001500320040448000b7
:103f88000038a300110032000048a3000e003200e0
:103f9800544388006543880090438000860f500092
:103fa80007003100604080000e08b500cf80de00b9
:103fb8000000520081805a00504388006143880005
:103fc800964388002548a8008888a8008868a80023
:103fd800a140800090408000808f500014003a007b
:103fe8002568ab000a003a00a48202000000000025
:103ff8008296280093002000000141008181490039
:10400800d2408800e34088002488a90008003700cf
:1040180050438000614380008c0f50008d8f580002
:1040280003003a002488a9002568a9008808a90087
:104038007808e20004003a007fa897000000e0003a
:10404800010032002528a8007fa89700c0438800f7
:1040580010418000e80f500011003a0050438000e2
:10406800614380008c0f50008d8f58001e003a006d
:10407800a482020000000000424b2c0043002000f4
:104088000001410081814900d2408800e340880056
:104098002488a800900020001041880012003700f2
:1040a800e90f500008003a00efb097000100e00067
:1040b8000d003a005c4388006d438800cfe8970004
:1040c80040c1b300a9fe3700ea0f500006003a00cd
:1040d80050438000614380008c0f50008d8f580042
:1040e8001d013a00a2fe3700ffb497000902b20092
:1040f80019013a0010418000eb0f50001601320000
:10410800ea0f500014013200ec0f50001201320087
:104118000e00e000980032000b0447000b00e0009e
:104128004c003c006fa897004200de00c003b200bc
:104138000b0050000e7e0200000000008a0f5400a1
:1041480001003e000805780070438000814380002c
:104158000a004000e08048007043880081438800de
:10416800b5408000824080000a80420081822000a1
:1041780091407800820f500013003600050451006a
:104188000804e80008027800894178000081eb0003
:104198000500780025fa07000804550081822000f0
:1041a80091407800704080000802780089417800ca
:1041b8000081eb001dfa07007040800000044400f5
:1041c800b8408800070037000a0278008941780063
:1041d8000081eb000500780014fa07000a00780057
:1041e8001628b40030448000e10f4000620032001d
:1041f8008a00500031448800d0438000008140008c
:10420800120033000100e0005b003c0070438000b6
:104218008143800002004000e0804800704388002d
:1042280081438800b040800080004100b140880090
:1042380080408000808f5000040036000e08b500d2
:10424800008040000000e900b040880086a8ef0028
:10425800490037008a0f5400010036000b0755004b
:104268006fa897004200de00c003b2000e7e020075
:1042780000000000b34080008b8241008240800033
:104288000e804200820f5000180036008182200004
:1042980091407800030051000b0050000004e80032
:1042a8000a00330008027800894178000081eb0099
:1042b80005007800ddf90700818220009140780030
:1042c800704080000802570005003700020078009f
:1042d8000e08b500008042000000e9000e027800d8
:1042e800894178000081eb000600370081822000b8
:1042f800914078000e027800894178000081eb0037
:1043080005007800c9f9070030448000e10f40003b
:1043180003003a003b448800de438800160037005b
:104328000b044700d1438000808f55000b003100fb
:1043380081004000810f540002003e00800f5400ad
:1043480002003100de438800020037000b80500075
:10435800d04388003b4488000700370081004000b4
:10436800810f540004003600818f550002003e0082
:1043780000005400d0438800afb097000100e0006f
:104388001400320010418000e70f50000200320094
:10439800b2408000c240880024e8ab00050032002b
:1043a80011c0b30000c1b30065fa0700d5f90700d2
:1043b8000800370024e8a80024c8ab0005003a002c
:1043c80024c8a800ac820200000000007800400069
:1043d80000418800afe997000304e0005e00320066
:1043e800744380008543800061014200e0814a00f7
:1043f8002fb297003fb49700cfb497000400440051
:10440800e0804c00800f5100818f590052003a0023
:10441800724388008343880010418000e70f5000f2
:104428000e00320003003e00e60f500039003a004b
:1044380005003700e80f50000f003200e90f500068
:1044480034003a0014003700c000200010418800f2
:1044580011c0b30010c1b30030003700b000200015
:1044680010418800ac820200000000000003b00088
:1044780000418800270037005043800061438000d6
:104488008c0f50008d8f580003003200a0002000d0
:10449800104188001f0037008040eb0000c1b300c6
:1044a800b2fd3700ac820200000000007449b90078
:1044b80072014100a482200000317a0026003700f2
:1044c800744cb900aa8220008a004400090009003f
:1044d800bb587800a100b100ab00b1006a004400ed
:1044e8008faa970005307d002faa9700bfaa9700d2
:1044f800e4009800f50098007000440002307d0048
:10450800ac820200000000007204440000347d0008
:104518001100370011c0b30000c1b30008fa07004a
:104528000d0037005fdc97004fae9700dfae9700b5
:104538002fa89700bfa89700b0b79f00c1b79f00ea
:104548002408a9002428a9002448a9002488ab002d
:1045580078fd3a006ffd3700e23b020000000000e2
:10456800100020004f0778004f06be004f05be0020
:104578004f04be000f03b100000006000400fa005b
:10458800889fbe008a9fbe008c1f78000006eb0043
:104598008c4578000c40780059f8070020418000cd
:1045a800016020000100600032003200d8420200a1
:1045b800000000000000e0002e00320020418000d2
:1045c8004a00de006105600009c1b3002b00370016
:1045d8004cf907007440b90000037800a08220005d
:1045e80000004300c187200009000900b058780086
:1045f800a000b1006a004300a38220006080790017
:10460800a04388006c004300030140001000200014
:104618000100200032024000a28248007443880052
:1046280085438800e04380007e08b400a1438000f1
:1046380001004000b143800001006800304188005b
:104648006000200010418800620214007422b90042
:10465800e2832000020143000300430013c0b300bb
:1046680083407800f1f807006228ef0029c1b30001
:10467800310037008044eb000005eb0024a8ab00b4
:1046880007003200f8408000ac8202000000000001
:10469800000454004240a90001003c0009c1b300d5
:1046a80024c8ab000700320008418000ac82020039
:1046b80000000000000454004240a90001003c0032
:1046c80009c1b30010418000eb0f500009003a0007
:1046d80008418000ac820200000000000004540081
:1046e8004240a90003003c00c0002000104188009f
:1046f80019c1b30010418000e40f50000c003a00cb
:10470800324180000004eb00a183200011007800f2
:104718000000e00006003200820f5000acff3200bb
:104728000804e800f4804000e30f5400f7ff3a0063
:104738000904e0000400320011c0b3008ac0500030
:10474800094078007ef907002488ab0026003a006b
:1047580010418000e70f5000e6003a00a4820200f2
:1047680000000000d2408000e340800002005000ba
:1047780083805800df00330021418000678060009b
:10478800e60f50000b003a00430cde006144640061
:104798000b40780066fb07000b40780064fb0700bd
:1047a8000804e000d3003a00e0002000104188002f
:1047b800d0003700d3f8070021c0b30000c1b30010
:1047c8005ff90700a482020000000000829628001a
:1047d800930020000001410081814900d2408800f7
:1047e800e3408800c3003700a482020000000000f4
:1047f800d2408000e34080000200500083805800cf
:10480800bc003300bff80700104180000100200001
:10481800ec0f5000e08f58008b003e000060010054
:104828000e003700170037003c0037004300370000
:104838008500370007003700600037006a0037003e
:1048480072003700840037007500370066003700b3
:104858007800370029c0b300ca003700905702001b
:10486800000000000000e000770032001100200086
:1048780011418800e0438000b657020000000000a4
:10488800710037006e8057007e580200000000005b
:104898000000e0006c0032009c570200000000009d
:1048a800000478000000e000120032001fba9700f0
:1048b800afba9700e4438800f54388002000200041
:1048c80010418800e04380007e08b400a1438000c6
:1048d80001004000b14380000100680030418800b9
:1048e8008c68ef00d5032000354388006828ef0066
:1048f80055003700a48202000000000082962800bc
:10490800930020000001410081814900d2408800c5
:10491800e3408800184188004b003700ac82020051
:1049280000000000f0408800c08720005472020098
:104938000000000030002000190037000188200026
:10494800c08720002e710200000000000000e00077
:1049580015003a00ac82020000000000f24080001e
:104968000200500032438000820f500036003600ab
:104978008cc8bf00e54f500008003e000040e8002a
:104988008ce8b700304380004143800000004000bd
:10499800818048003043880041438800200020007f
:1049a800104188002800370050002000104188007e
:1049b8000004eb0029c0b3004800370029c1b30048
:1049c800c088200011c0b30090cf10006d003600e1
:1049d80020418000680060001f003a0029c0b30031
:1049e800000478001e003700c088200044c0b300cf
:1049f800904f1200600036008000200010418800af
:104a080019c1b3000004eb0015003700c08820006e
:104a180045c0b30090cf1200590036000e00370091
:104a2800c088200041c0b30090cf1000520036006b
:104a380009003700c088200044c0b300904f12001e
:104a48004f003600040037000004eb000904e000c2
:104a580003003a002700370049c1b30018002000be
:104a68000a00e0001d0032008c68ec003043800032
:104a780041438000000040008180480030438800a6
:104a880041438800a54080009443800005005200ff
:104a9800cf80de0052438000634380000001510054
:104aa800818159005243880063438800850f520072
:104ab80007003100604080000e08b500cf80de009e
:104ac80000005100818059005043880061438800ec
:104ad800954388008040eb000100370011c0b30007
:104ae8000940780096f807000800e000010032004d
:104af80022f807000c06e800e20f5600a4fe3a0070
:104b08008004eb007448b90000047800700040008d
:104b1800aa82200060007d000000e0001b00320037
:104b2800ac820200000000007201440062017d00b6
:104b380002005000c22d2000820f50000a003600eb
:104b4800628214007422b900e2832000020144004a
:104b58000a00440013c0b30083407800b3f707008d
:104b68006228ef008904e9008904e800e28f540014
:104b780006003e00e3ff370009c1b300010037001b
:104b880019c1b3000004eb00b7ff37004f067800e7
:104b98004f05be004f04be000080fa00000006006a
:104ba8002f03b000889fbe008a9fbe008c9fbe0066
:104bb8008e1f780080447800c1b79f008205780076
:104bc8000305780004047800d5b79f000000eb00c7
:104bd8000200e000a400320009407800c8f607008f
:104be8000940780011f707000a0650008b0f56009d
:104bf8009c0039000800e00003003200880f5600ce
:104c08000100360008067800c04080000001450019
:104c180081408000810f51000400360001007800b7
:104c28000e08b500000041000001e90002805000b4
:104c38000003e800cfb29700354478005fb09700d2
:104c48000000e00006003200f0c9b3000040440054
:104c5800f94f500002003e0000ceb300004444006b
:104c68008b0478009ab79f00b2b79f0005057800bb
:104c78008006eb0001c2b300c1e79f00ff0f53009d
:104c880001003e00c6e79f00cfe197000380fb00cc
:104c98008c0f500001003600cce79f00cfe0970052
:104ca8000187fb000e027800838220009341780080
:104cb8003fb1970011c0b30020fc2f000f00400047
:104cc800e5b79f00f6b79f0058f707003fb1970078
:104cd8000e014100b2b79f007fb397000e03530047
:104ce800efb2970003003a0073408000b3b79f000b
:104cf8000083eb008003eb0004ceb3005fb09700a5
:104d08000000e0002a003a00000178004200370065
:104d18008080fb0023fc2f008181410063c17f005c
:104d2800f3c9b30003404100f94f500004003e00ae
:104d38000441410020fc2f000100400002f07f00e8
:104d480022fc2f000101410062c07f00804f540007
:104d580009003a008904e9003a0032003a44780030
:104d6800034044001d002000f94f50000f003e0092
:104d7800044444000d0037000d00e00002003a0032
:104d88008b047800090037004fb097001044780072
:104d980003404400f94f500001003e000444440021
:104da8008b047800050578008006eb008703e8008f
:104db80007407800cfe0970081cf5300d4ff390037
:104dc800190037008080fb0023fc2f0081814100ff
:104dd80063c07f00804f540005003a008904e90051
:104de8001b0032003a4478001d00200009003700fb
:104df8000d00e00002003a008b047800050037003f
:104e08004fb09700104478008b04780005057800af
:104e18008006eb000201e80002407800cfe097002e
:104e2800814f5100e7ff39000e065600890f5600e2
:104e38000c0039001fb197000e01410092b79f0086
:104e48008cff37009fb197000b805100020037009c
:104e58001fb197000b005100010040000000e8005e
:104e6800010037000080eb004f0778004f06be00b6
:104e78004f05be004f04be002f03b100000006001e
:104e88000200fa00e1ff9f00840278000302780024
:104e980082017800120020008f80e90040ff07009f
:104ea8000080fa0000000600889fbe008a9fbe00ae
:104eb80000457800810578008204780003047800b2
:104ec8000200e000270032000df607000a407800d3
:104ed80056f607008000780009004400810f500052
:104ee8000100360088845000c04080000001440062
:104ef80081408000810f51000400360001007800d5
:104f08000e08b500000041000001e90002805000d1
:104f18000004e80028c8bf00888f540005003e0040
:104f2800090278008041780011c0b3000b007800b6
:104f38000b003700080278008041780011c0b300e8
:104f48000b007800b9f60700724080000880450021
:104f580008825400838220009341780011c0b30076
:104f6800b2f60700090078004f05be004f04be00e6
:104f7800000006000200fa008101780012002000fb
:104f88008f80e900c8ff0700eff897000180fb0059
:104f98000080fa0000000600889fbe008a9fbe00bd
:104fa8000045780081047800020478001ff60700a5
:104fb800800578000000e000320032000a407800e6
:104fc800cff507008b0f5400010036000b04780062
:104fd800c240800081408000080041000005eb00cd
:104fe800810f50000e003600028050000005e800d6
:104ff8000900e000070032000a02780083822000de
:105008009341780011c0b3000900780087f60700c3
:105018008a8444000a04540070408000c04088001c
:105028000900e00007003200c24080000802780052
:10503800838220009341780011c0b30009007800f2
:105048007af60700080078001828b4000a0444001b
:1050580008805500880f500002003e002548a8002f
:105068000700370024a8ab0005003a0024a8a800d0
:10507800ac820200000000000003b000f04088008d
:10508800080078004f05be004f04be00000006006f
:10509800889fbe008a1f7800804478000105780048
:1050a800e2f50700000478000000e0001600320076
:1050b8000940780092f507000a00e0000700320076
:1050c800c2408000140020008382200093417800b1
:1050d800844078000a00780054f60700c140800038
:1050e8008100e800c140880080408000808f500027
:1050f8000200360070408000c0408800e10f540074
:1051080003003a002548a800080078000900370085
:105118001000200024a8ab0006003a0024a8a8002c
:10512800ac820200000000000003b000f0408800dc
:10513800100020004f0578004f04be000000060054
:10514800889fbe008a9fbe008c9fbe0000457800e5
:10515800810578008206780069f507000a40780022
:1051680093f50700800478000000e00004003a008e
:105178000a407800e4f80700090078003700370093
:105188008d0f5000020036000d0478000100370032
:10519800000478002508ab0008003a006040800051
:1051a8000e08b5000000d100808f540003003e00b7
:1051b8000a407800d4f807002508a8009540800028
:1051c80071408000088042000006eb00810f50000b
:1051d8000c0039000586500081822000914078003b
:1051e8000c02780013c0b3000b01780005007800aa
:1051f8000ef607008c8545000c04540060408000c2
:105208009040880081822000914078009040800082
:105218000802780013c0b3000b01780003f60700fa
:10522800080078001228b4008d8f540003003e0057
:105238000a407800b4f807000700370024a8ab003c
:1052480005003a0024a8a800ac8202000000000073
:1052580069004000f04088000c0044004f06be0082
:105268004f05be004f04be0000000600889fbe0028
:10527800804478000104780001007800ae03020041
:1052880000000000000178008800780009407800dc
:10529800abff0700000044004f04be0000000600fa
:1052a8000200fa00889fbe0080447800a1ff9f009a
:1052b80013f50700094078003df507000004780061
:1052c8000000e00021003200e10f500002003a0027
:1052d800094078008cf807002508ab0008003a0060
:1052e800604080000e08b5000000d100800f540017
:1052f80003003e000940780083f807002508a8004d
:1053080081822000914078009040800014002000a5
:105318008441780066815700c4f5070091408000f9
:105328008100e8009140880070408000808f500024
:10533800020039006040800090408800e10f54006e
:1053480004003a00094078006ff807000800780068
:10535800090037001000200024a8ab0006003a001e
:1053680024a8a800ac8202000000000069004000e8
:10537800f0408800100020004f04be000080fa00b2
:105388000000060092c9bf000080fb004200dd005b
:105398000080e8004199200060c07800e1c7b300b0
:1053a8005429040000000000889fbe00b0e9ef0007
:1053b800b1e9ef009269ef001e0037000084fb009e
:1053c800499920004244dd000001eb0002b47c0052
:1053d80084c0b300030520006000b800181b020059
:1053e800000000000884e80000f47c0022992000f6
:1053f800124178000281fb00290820000991b900b8
:1054080080ef2100020040005c4002000000000024
:105418000004780089007800c09920002a3a020028
:1054280000000000080078005c4002000000000056
:105438009269ec0092c9bf00e14f5000dfff3600cf
:105448009269ef004f04be0000000600889fbe006e
:105458008a9fbe000045780092c9bf00804f550062
:105468001e0032000080fb00280820000880b900d8
:105478008bef2100008045005c4002000000000026
:105488008004780088007800c09920002a3a020039
:1054980000000000090078005c40020000000000e5
:1054a8000a80fb000880b900008045002240020005
:1054b800000000008004780088007800c09920006f
:1054c8006a3902000000000009007800224002004a
:1054d800000000000a00780092e9b7004f05be00fe
:1054e8004f04be00000006000200fa00889fbe00bc
:1054f8008a1f780000047800ae0302000000000054
:1055080080017800080178002300370082047800c1
:10551800b94078000305e900d0c3b30080cf50003c
:10552800030032007740500080cf500002003a005c
:10553800005ceb0016003700b0c2b30080cf50000b
:1055480002003a006b4050000e00370050c2b30012
:1055580080cf50000d003a00e10f550010003600d2
:105568009944780099ff9f002240900080ff9f0097
:10557800e3044100638551004fb897003c64020082
:1055880000000000005c780001003700015c780032
:105598008a017800090178000300e000dbff3a0087
:1055a800005ceb0008007800004ceb004f05780029
:1055b8004f04be000080fa0000000600889fbe006d
:1055c8000004be0016003700880078000900780043
:1055d800bc030200000000000000e00006003a00e2
:1055e80009007800ae03020000000000000044003b
:1055f8000000e8000d00370008007800ae03020044
:1056080000000000000044000004e80008007800e2
:10561800ae03020000000000000044000004e8009f
:105628001804e000e8ff3a000000eb004f04be0059
:1056380000000600889fbe008a9fbe008c9fbe00a7
:105648008e1f780023992000934178004b99200001
:105658000047780001067800820678000004e00020
:105668000b0032000380fb004200dd000080e800f0
:1056780060c07d000002eb0084017800040178001e
:105688008e40780044270200000000000600370022
:105698000380fb004200dd000080e80060c07d0060
:1056a8001a14020000000000000578002b002000fa
:1056b800e10f40006e003200e18f560013003e00fb
:1056c8000c00e00013003200e84c8000f94c800028
:1056d80092c9bf000080fb004200dd000080e800a6
:1056e8004199200060c078000a0178008000eb0032
:1056f800d02702000000000000045400e0845c0091
:10570800e84c8800f94c8800370037000c00e000ae
:1057180011003a00e84c8000f94c800092c9bf00a3
:105728000080fb004200dd000080e8004199200075
:1057380060c078000a0178008000eb00d0270200e2
:105748000000000000045400e0845c00e84c88007d
:10575800f94c8800340037000d81e9004b9920008e
:105768002399200093417800e84c8000f94c800090
:10577800820f50001e0036000380fb004200dd004f
:105788000080e80060c07d008c007800d02702000f
:105798000000000000045400e0845c00e84c88002d
:1057a800f94c88000d0155000281e80092c9bf003c
:1057b8000080fb004200dd000080e80060c07d0042
:1057c8008000eb00d0270200000000000000540019
:1057d800e0805c00e04c8800f14c88008d004600b9
:1057e8000040eb00e0f89f001b0020000f0037008e
:1057f8000380fb004200dd000080e80060c07d00ff
:105808000a0178008c007800d02702000000000010
:1058180000005400e0805c00e04c8800f14c8800f7
:105828000040eb0000757e008005eb000e04e000f0
:105838000f003200e84c8000f94c800092c9bf008c
:105848000080fb004200dd000080e8004199200054
:1058580060c078008000eb004c28020000000000c7
:1058680000045400e0845c00e84c8800f94c88008f
:105878000b0078004f0778004f06be004f05be00aa
:105888004f04be0000000600889fbe000004780098
:105898000101780080007800d0c3b30065ff0700dd
:1058a800800478000800e000040032001804e000da
:1058b80002003200080078000bff0700090078009a
:1058c8004f04be0000000600889fbe008a9fbe00ed
:1058d8008c1f780000057800010678000101780027
:1058e8008000780060c2b30052ff0700800578008e
:1058f800e20f500013003a00e84c8000f94c800099
:1059080092c9bf000080fb004200dd000080e80073
:105918004199200060c078001a14020000000000bd
:1059280001002000800f5400818f5c0005003a00c0
:105938000c0178008a0078000040eb003dff07006a
:10594800800578000a00e000040032001a04e00034
:10595800020032000a007800e3fe07000b0078001e
:105968004f0678004f05be004f04be000000060039
:105978004000fa00889fbe008a1f78000001780066
:10598800404d8000514d8000e00f5000e08f5800de
:1059980010003a0002007800565302000000000090
:1059a80080447800e14f400041003200b8560200c0
:1059b80000000000404d88001100370009407800c1
:1059c800c851020000000000a829ef00aa29ef0032
:1059d80037003700404d8000fc52020000000000f4
:1059e80080447800e14f400031003200524d800081
:1059f8000300200021002000d25402000000000013
:105a080092c9bf000080fb004200dd000080e80072
:105a18004199200060c07800dc13020000000000fb
:105a280000057800190037000a01780000042000fa
:105a3800800f55000100360000017800a1fb2f00ff
:105a48008f804000094078005e520200000000008c
:105a5800000478000000e000d8ff320092c9bf00bf
:105a68000080fb004200dd000080e8004199200032
:105a780060c0780008017800a1fb2f008f804000eb
