:020000040000fa
:080000000002040000000000f2
:020000040000fa
:10040000ef6e2100007f2400000188000000000042
:100410000c00070040a22d00010020001100070081
:10042000000020000000e000020032000000020096
:100430000000000082d30200000000000040da004b
:100440000000fe004440a900c04124000000e0007c
:100450000300320000002000a00188004440a800f2
:100460000000060091018800800078000000eb0089
:1004700015003700e280400032a0b4009101ba00bc
:10048000e280400032a0b4009102ba00e280400055
:1004900032a0b4000002eb00472bde00f507b200eb
:1004a000602ce10004003a000059eb008301e900f0
:1004b000fdff3e00040037006128e100010032002a
:1004c0000082eb00040007001101ba000200e00006
:1004d000e8ff3a00000006003159ba008301e90044
:1004e0000c0032002159ba008301e90008003200f3
:1004f0000400e00003003a00e280400032a0b400b3
:10050000f5ff370011d9ba008301e900faff3a007c
:100510008100e800e180400032a0b4000000060045
:1005200088cd04000000000062cc04000000000040
:1005300048cc040000000000fec0040000000000e1
:10054000d6bf0400000000009cbf040000000000b3
:100550004cb6040000000000ceb50400000000000e
:1005600006b50400000000008cd404000000000068
:100570005ad404000000000018a704000000000086
:1005800058aa04000000000090ab04000000000026
:100590006cac040000000000020ab900001bb900a6
:1005a0000200b80081004200810043000000060004
:1005b000881f780000047800605780000000e00089
:1005c0000100320000000100e0ae20000048eb0016
:1005d000305780000000e000010032000000010000
:1005e0006140b80040578800515788004f04780098
:1005f00000000600881f7800605780000000e000bf
:100600000100320000000100305780000000e000cf
:100610000100320000000100004880000000e000fe
:100620000100320000000100d04780000000e0001f
:100630000100320000000100e0ae20001004e000e4
:1006400026003a0040578000515780000004eb001c
:10065000d260260093012000cfff0700f2352f0063
:10066000e3c6230000004100818049000804e8003f
:10067000e80f5400f6ff3a004057880051578800b1
:1006800028902000d260260093012000405780006f
:1006900051578000c0ff0700f2352f00e3c623004a
:1006a0000000410081804900405788005157880070
:1006b000009cbe0020982000800f5400f1ff3a00fb
:1006c000f04b8000014c8000e0478800f147880033
:1006d00011c0b300e0ae200001487800d2602600cf
:1006e000930120004057800051578000aaff070067
:1006f000f2352f00e3c6230000004100818049004d
:100700004057880051578800c28f2000120178009e
:100710007f0161004211dd002390200003014100b0
:100720001202be00e4478800f54788000089be0039
:10073000e0478000f14780004008de0000f0a100a3
:100740004f04780000000600889fbe00e3044000cc
:100750000900a100808f54004a003600e38f540046
:1007600001003e0049002000c25880000200e00065
:1007700002003200820078000c003700a1b1200096
:1007800003003700908f5400230036008080e8007b
:10079000110078000000e000faff3a000f00370077
:1007a000908f54001c0036008080e8001100780013
:1007b0000000e000faff3a0012017800a1b1200029
:1007c00003003700908f5400130036008080e8004b
:1007d00011007800820f5000faff3a00b8588000ec
:1007e000890f5400010031000904780008007800e6
:1007f0005b0007000000e00004003a00890f54008d
:10080000200032000804d100f5ff370008187800f6
:100810001f000700d4ff3700110178009201780013
:1008200064805100890f50000300310012009000d5
:100830008008780007003700090041008008780030
:1008400092019000130098001100780012881400a3
:1008500009097800910078000100e00005003200ed
:10086000110090000000e000020032000180e8006a
:10087000010037000000eb00c05888000280e8004b
:10088000010037000000eb004f04be00000006002e
:100890000000e000310032008080e9009102780021
:1008a000e38f52002d0036000508a3002b003a000c
:1008b000d25880000200e00002003200828f500017
:1008c0000400310002087800d15888001600370073
:1008d00003017800920190000300e0000200320062
:1008e000818f5100faff39001202780004004100a4
:1008f000808f500019003900810f500003003a002a
:100900000509420082007800070037000300e0007c
:100910000300320005804000808f51000f00390035
:100920009300980011019800110190000200e0006e
:100930000a00320011804000820f500007003a0088
:1009400080b120000008eb00110090001101780038
:1009500090084100100090009000980000000600f0
:100960000000e0000300340004000700e10f400035
:1009700001003a000000eb0000000600889fbe0066
:1009800080047800a05980000000e00003003a00d5
:10099000100007000000e0000a003500a0598000a8
:1009a0000900e00002003a00000478000600370069
:1009b0000004780009004000060007000000e00085
:1009c00001003d000084eb00080078004f04be00e9
:1009d00000000600800078000000e00004003a00fb
:1009e00060b32000a059880001017800060037009c
:1009f0000081eb00e06e2100808f500002003e007d
:100a0000a15988000001eb000200780000000600f8
:100a10006022b800060220000000d0008180d200d1
:100a20000482d2008582d2000000a000020252009f
:100a300083825a00030031000202420083824a008e
:100a40000000a1000603e900f3ff3a0000000600e1
:100a5000839f68000100e00002003d00600010007c
:100a6000e08018000300e00002003d00600111007a
:100a7000e0811900e6ff07004f00e00002003b00a4
:0c0a800060001000e0801800000006007c
:020000040000fa
:020000040005f5
:0457f800ae7b000084
:020000040000fa
:020000040005f5
:0457fc007f3e0000ec
:020000040000fa
:10000800a6df0000a6df0000a6df0000a6df0000d4
:10001800a6df0000a6df0000a6df0000a6df0000c4
:10002800a6df0000a6df0000a6df0000a6df0000b4
:10003800a6df0000a6df0000a6df0000a6df0000a4
:10004800e8d20000a6df0000a6df0000a6df00005f
:10005800a6df0000a6df0000a6df0000a6df000084
:10006800a6df0000a6df0000a6df0000a6df000074
:10007800a6df0000a6df0000a6df0000a6df000064
:10008800a6df0000a6df0000a6df0000a6df000054
:10009800a6df0000a6df0000a6df0000a6df000044
:1000a800a6df0000a6df0000a6df0000a6df000034
:1000b800a6df0000a6df0000a6df0000a6df000024
:1000c800a6df0000a6df0000a6df0000a6df000014
:1000d800a6df0000a6df0000a6df0000a6df000004
:1000e800a6df0000a6df0000a6df0000a6df0000f4
:1000f800a6df0000a6df0000a6df0000a6df0000e4
:10010800a6df0000a6df0000a6df0000a6df0000d3
:10011800a6df0000a6df0000a6df0000a6df0000c3
:10012800a6df0000a6df0000a6df0000a6df0000b3
:10013800a6df0000a6df0000a6df0000a6df0000a3
:10014800a6df0000a6df0000a6df0000a6df000093
:10015800a6df0000a6df0000a6df0000a6df000083
:10016800a6df0000a6df0000a6df0000a6df000073
:10017800a6df0000a6df0000a6df0000a6df000063
:10018800a6df0000a6df0000a6df0000a6df000053
:10019800a6df0000a6df0000a6df0000a6df000043
:1001a800a6df0000a6df0000a6df0000a6df000033
:1001b800a6df0000a6df0000a6df0000a6df000023
:1001c800a6df0000a6df0000a6df0000a6df000013
:1001d800a6df0000a6df0000a6df0000a6df000003
:1001e800a6df0000a6df0000a6df0000a6df0000f3
:0801f800a6df0000a6df0000f5
:020000040000fa
:10020800a6df0000a6df0000a6df0000a6df0000d2
:10021800a6df0000a6df0000a6df0000a6df0000c2
:10022800a6df0000a6df0000a6df0000a6df0000b2
:10023800a6df0000a6df0000a6df0000a6df0000a2
:10024800e8d20000a6df0000a6df0000a6df00005d
:10025800a6df0000a6df0000a6df0000a6df000082
:10026800a6df0000a6df0000a6df0000a6df000072
:10027800a6df0000a6df0000a6df0000a6df000062
:10028800a6df0000a6df0000a6df0000a6df000052
:10029800a6df0000a6df0000a6df0000a6df000042
:1002a800a6df0000a6df0000a6df0000a6df000032
:1002b800a6df0000a6df0000a6df0000a6df000022
:1002c800a6df0000a6df0000a6df0000a6df000012
:1002d800a6df0000a6df0000a6df0000a6df000002
:1002e800a6df0000a6df0000a6df0000a6df0000f2
:1002f800a6df0000a6df0000a6df0000a6df0000e2
:10030800a6df0000a6df0000a6df0000a6df0000d1
:10031800a6df0000a6df0000a6df0000a6df0000c1
:10032800a6df0000a6df0000a6df0000a6df0000b1
:10033800a6df0000a6df0000a6df0000a6df0000a1
:10034800a6df0000a6df0000a6df0000a6df000091
:10035800a6df0000a6df0000a6df0000a6df000081
:10036800a6df0000a6df0000a6df0000a6df000071
:10037800a6df0000a6df0000a6df0000a6df000061
:10038800a6df0000a6df0000a6df0000a6df000051
:10039800a6df0000a6df0000a6df0000a6df000041
:1003a800a6df0000a6df0000a6df0000a6df000031
:1003b800a6df0000a6df0000a6df0000a6df000021
:1003c800a6df0000a6df0000a6df0000a6df000011
:1003d800a6df0000a6df0000a6df0000a6df000001
:1003e800a6df0000a6df0000a6df0000a6df0000f1
:0803f800a6df0000a6df0000f3
:020000040000fa
:100a8c00000400002d0000007e000000201000007b
:100a9c0082280000823000006150000000980000a5
:100aac0000c00000e749000000e8000000f800006a
:100abc007194000079ce00005def0000def70000bd
:100acc00bfff0000feff0000ffff0000ffff000063
:100adc00ffff0000ffff0000ffff0000ffff000012
:100aec00ffff0000ffff0000ffff0000ffff000002
:100afc00ffff0000ffff0000ffff0000ffff0000f2
:100b0c00ffff0000ffff0000ffff0000ffff0000e1
:100e9c00ffff0000ffff0000ffff0000bccb0000c5
:100eac00fcff0000ffff0000ffff0000ffff000041
:100ebc00ffff0000ffff0000ffff0000ffff00002e
:100ecc00ffff0000ffff0000ffff0000ffff00001e
:100edc00ffff0000ffff0000ffff0000ffff00000e
:100eec00ffff0000ffff0000ffff0000ffff0000fe
:100efc00ffff0000ffff0000ffff0000ffff0000ee
:100f0c00ffff0000ffff0000ffff0000ffff0000dd
:100f1c00ffff0000ffff0000ffcf0000fcff000000
:100f2c00ffff0000ffff0000ffff0000ffff0000bd
:100f3c00ffff0000ffff0000ffff0000ffff0000ad
:100f4c00ffff0000ffff0000ffff0000ffff00009d
:100f5c00ffff0000ffff0000ffff0000ffff00008d
:100f6c00ffff0000ffff0000ffff0000ffff00007d
:100f7c00ffff0000ffff0000ffff0000ffff00006d
:100f8c00ffff0000ffff0000ffff0000ffff00005d
:100f9c00ffff0000ffff0000ffff0000ffff00004d
:100fac00ffff0000ffff0000ffff0000ffff00003d
:100fbc00ffff0000ffff0000ffff0000ffff00002d
:100fcc00ffff0000ffff0000ffff0000ffff00001d
:100fdc00ffff0000ffff0000ffff0000ffff00000d
:100fec00ffff0000ffff0000ffff0000ffff0000fd
:100ffc00ffff0000ffff0000ffff0000ffff0000ed
:10100c00ffff0000ffaa0000ffff0000ffff000031
:10101c00ffff0000ffff0000faff0000ffff0000d1
:10102c00ffff0000ffff0000ffff0000ffff0000bc
:10103c00ffff0000ffff0000ffff0000ffff0000ac
:10104c00ffff0000ffff0000ffff0000ffff00009c
:10105c00ffff0000ffff0000ffff0000ffff00008c
:10106c00ffff0000ffff0000ffff0000ffff00007c
:10107c00ffff0000ffff0000ffff0000ffff00006c
:10108c00ffff000006910000f9ff0000ffff0000c9
:10109c00ffff0000ff160000f9ff0000ffff00003b
:1010ac00ffff0000ffff0000ffff0000ffff00003c
:1010bc00ffff0000ffff0000ffff0000ffff00002c
:1010cc00ffff0000ffff0000ffff0000ffff00001c
:1010dc00ffff0000ffff0000ffff0000ffff00000c
:1010ec00ffff0000ffff0000ffff0000ffff0000fc
:1010fc00ffff0000ffff0000ffff0000ffff0000ec
:10110c00ff6c00004403000096fa0000ffff000093
:10111c00ffff00000a630000faff0000ffff000061
:10112c00ffff0000ffff0000ffff0000ffff0000bb
:10113c00ffff0000ffff0000ffff0000ffff0000ab
:10114c00ffff0000ffff0000ffff0000ffff00009b
:10115c00ffff0000ffff0000ffff0000ffff00008b
:10116c00ffff0000ffff0000ffff0000ffff00007b
:10117c00ffff0000ffff0000ffff0000ffff00006b
:10118c00af7200007834000010990000ffff0000df
:10119c00ff6f000054610000fbff0000ffff000028
:1011ac00ffff0000ffff0000ffff0000ffff00003b
:1011bc00ffff0000ffff0000ffff0000ffff00002b
:1011cc00ffff0000ffff0000ffff0000ffff00001b
:1011dc00ffff0000ffff0000ffff0000ffff00000b
:1011ec00ffff0000ffff0000ffff0000ffff0000fb
:1011fc00ffff0000ffff0000ffff0000ffff0000eb
:10120c00398800008878000034600000a9ff0000d5
:10121c00af82000048900000ffff0000ffff0000bd
:10122c00ffff0000ffff0000ffff0000ffff0000ba
:10123c00ffff0000ffff0000ffff0000ffff0000aa
:10124c00ffff0000ffff0000ffff0000ffff00009a
:10125c00ffff0000ffff0000ffff0000ffff00008a
:10126c00ffff0000ffff0000ffff0000ffff00007a
:10127c00ffff0000ffff0000ffff0000ff6f0000fa
:10128c0084880000888800004703000091f9000062
:10129c004688000037910000ffff0000ffff0000b0
:1012ac00ffff0000ffff0000ffff0000ffff00003a
:1012bc00ffff0000ffff0000ffff0000ffff00002a
:1012cc00ffff0000ffff0000ffff0000ffff00001a
:1012dc00ffff0000ffff0000ffff0000ffff00000a
:1012ec00ffff0000ffff0000ffff0000ffff0000fa
:1012fc00ffff0000ffff0000ffff0000cf760000a3
:10130c0088880000888800008847000003260000b9
:10131c008888000037a60000ffff0000ffff0000d8
:10132c00ffff0000ffff0000ffff0000ffff0000b9
:10133c00ffff0000ffff0000ffff0000ffff0000a9
:10134c00ffff0000ffff0000ffff0000ffff000099
:10135c00ffff0000ffff0000ffff0000ffff000089
:10136c00ffff0000ffff0000ffff0000ffff000079
:10137c00ffff0000ffff0000ffff00002a870000b6
:10138c008888000088880000887800004487000066
:10139c008888000015b60000ffff0000ffff00006a
:1013ac00ffff0000ffff0000ffff0000ffff000039
:1013bc00ffff0000ffff0000ffff0000ffff000029
:1013cc00ffff0000ffff0000ffff0000ffff000019
:1013dc00ffff0000ffff0000ffff0000ffff000009
:1013ec00ffff0000ffff0000ffff0000ffff0000f9
:1013fc00ffff0000ffff0000ff9f0000838800003c
:10140c008888000088880000888800008888000090
:10141c008888000004f90000ffff0000ffff0000b7
:10142c00ffff0000ffff0000ffff0000ffff0000b8
:10143c00ffff0000ffff0000ffff0000ffff0000a8
:10144c00ffff0000ffff0000ffff0000ffff000098
:10145c00ffff0000ffff0000ffff0000ffff000088
:10146c00ffff0000ffff0000ffff0000ffff000078
:10147c00ffff0000ffff0000ff460000888800000f
:10148c008888000088880000888800008888000010
:10149c008878000013f90000ffff0000ffff000038
:1014ac00ffff0000ffff0000ffff0000ffff000038
:1014bc00ffff0000ffff0000ffff0000ffff000028
:1014cc00ffff0000ffff0000ffff0000ffff000018
:1014dc00ffff0000ffff0000ffff0000ffff000008
:1014ec00ffff0000ffff0000ffff0000ffff0000f8
:1014fc00ffff0000ffff00006c87000088880000e1
:10150c00888800008888000088880000888800008f
:10151c008878000063fa0000ffff0000ffff000066
:10152c00ffff0000ffff0000ffff0000ffff0000b7
:10153c00ffff0000ffff0000ffff0000ffff0000a7
:10154c00ffff0000ffff0000ffff0000ffff000097
:10155c00ffff0000ffff0000ffff0000ffff000087
:10156c00ffff0000ffff0000ffff0000ffff000077
:10157c00ffff0000ffaf00007288000088880000a9
:10158c00888800008888000088880000888800000f
:10159c008858000061fb0000ffff0000ffff000007
:1015ac00ffff0000ffff0000ffff0000ffff000037
:1015bc00ffff0000ffff0000ffff0000ffff000027
:1015cc00ffff0000ffff0000ffff0000ffff000017
:1015dc00ffff0000ffff0000ffff0000ffff000007
:1015ec00ffff0000ffff0000ffff0000ffff0000f7
:1015fc00ffff0000ff390000888800008888000089
:10160c00888800008888000088880000888800008e
:10161c008848000090ff0000ffff0000ffff000063
:10162c00ffff0000ffff0000ffff0000ffff0000b6
:10163c00ffff0000ffff0000ffff0000ffff0000a6
:10164c00ffff0000ffff0000ffff0000ffff000096
:10165c00ffff0000ffff0000ffff0000ffff000086
:10166c00ffff0000ffff0000ffff0000ffff000076
:10167c00ffff00003a87000088880000888800007f
:10168c00888800008888000088880000888800000e
:10169c0058630000fcff0000ffff0000ffff00008c
:1016ac00ffff0000ffff0000ffff0000ffff000036
:1016bc00ffff0000ffff0000ffff0000ffff000026
:1016cc00ffff0000ffff0000ffff0000ffff000016
:1016dc00ffff0000ffff0000ffff0000ffff000006
:1016ec00ffff0000ffff0000ffff0000ffff0000f6
:1016fc00bf7200008888000088880000888800007d
:10170c0088880000888800008888000078630000c2
:10171c00faff0000ffff0000ffff0000ffff0000ca
:10172c00ffff0000ffff0000ffff0000ffff0000b5
:10173c00ffff0000ffff0000ffff0000ffff0000a5
:10174c00ffff0000ffff0000ffff0000ffff000095
:10175c00ffff0000ffff0000ffff0000ffff000085
:10176c00ffff0000ffff0000ffff0000ff6f000005
:10177c008488000088880000888800008888000021
:10178c00888800008888000078140000f9ff0000a9
:10179c00ffff0000ffff0000ffff0000ffff000045
:1017ac00ffff0000ffff0000ffff0000ffff000035
:1017bc00ffff0000ffff0000ffff0000ffff000025
:1017cc00ffff0000ffff0000ffff0000ffff000015
:1017dc00ffff0000ffff0000ffff0000ffff000005
:1017ec00ffff0000ffff0000ffff00003988000032
:1017fc00888800008888000088880000888800009d
:10180c008888000088140000b9ff0000ffff00006a
:10181c00ffff0000ffff0000ffff0000ffff0000c4
:10182c00ffff0000ffff0000ffff0000ffff0000b4
:10183c00ffff0000ffff0000ffff0000ffff0000a4
:10184c00ffff0000ffff0000ffff0000ffff000094
:10185c00ffff0000ffff0000ffff0000ffff000084
:10186c00ffff0000ffff0000af730000888800003e
:10187c00888800008888000088880000888800001c
:10188c0088350000a6ff0000ffff0000ffff0000ee
:10189c00ffff0000ffff0000ffff0000ffff000044
:1018ac00ffff0000ffff0000ffff0000ffff000034
:1018bc00ffff0000ffff0000ffff0000ffff000024
:1018cc00ffff0000ffff0000ffff0000ffff000014
:1018dc00ffff0000ffff0000ffff0000ffff000004
:1018ec00ffff0000ff2b00008788000088880000a5
:1018fc00888800008857000088880000883700001e
:10190c00a6ff0000ffff0000ffff0000ffff00002c
:10191c00ffff0000ffff0000ffff0000ffff0000c3
:10192c00ffff0000ffff0000ffff0000ffff0000b3
:10193c00ffff0000ffff0000ffff0000ffff0000a3
:10194c00ffff0000ffff0000ffff0000ffff000093
:10195c00ffff0000ffff0000ffff0000ffff000083
:10196c00ffff00004688000088880000888800007f
:10197c0058340000008700008847000091ff0000e9
:10198c00ffff0000ffff0000ffff0000ffff000053
:10199c00ffff0000ffff0000ffff0000ffff000043
:1019ac00ffff0000ffff0000ffff0000ffff000033
:1019bc00ffff0000ffff0000ffff0000ffff000023
:1019cc00ffff0000ffff0000ffff0000ffff000013
:1019dc00ffff0000ffff0000ffff0000ffff000003
:1019ec009f83000088880000887800003460000025
:1019fc00a94600008848000091fb0000ffff000092
:101a0c00ffff0000ffff0000ffff0000ffff0000d2
:101a1c00ffff0000ffff0000ffff0000ffff0000c2
:101a2c00ffff0000ffff0000ffff0000ffff0000b2
:101a3c00ffff0000ffff0000ffff0000ffff0000a2
:101a4c00ffff0000ffff0000ffff0000ffff000092
:101a5c00ffff0000ffff0000ffff0000ff3a000047
:101a6c00878800008845000003960000fbbf00003b
:101a7c007058000063fa0000ffff0000ffff000039
:101a8c00ffff0000ffff0000ffff0000ffff000052
:101a9c00ffff0000ffff0000ffff0000ffff000042
:101aac00ffff0000ffff0000ffff0000ffff000032
:101abc00ffff0000ffff0000ffff0000ffff000022
:101acc00ffff0000ffff0000ffff0000ffff000012
:101adc00ffff0000ffff0000ffbf00007288000046
:101aec004703000096fa0000ffff00006f7400002f
:101afc0063fa0000ffff0000ffff0000ffff000083
:101b0c00ffff0000ffff0000ffff0000ffff0000d1
:101b1c00ffff0000ffff0000ffff0000ffff0000c1
:101b2c00ffff0000ffff0000ffff0000ffff0000b1
:101b3c00ffff0000ffff0000ffff0000ffff0000a1
:101b4c00ffff0000ffff0000ffff0000ffff000091
:101b5c00ffff0000ffff00006f5400003460000026
:101b6c00b9ff0000ffff0000ff0b000014f900009c
:101b7c00ffff0000ffff0000ffff0000ffff000061
:101b8c00ffff0000ffff0000ffff0000ffff000051
:101b9c00ffff0000ffff0000ffff0000ffff000041
:101bac00ffff0000ffff0000ffff0000ffff000031
:101bbc00ffff0000ffff0000ffff0000ffff000021
:101bcc00ffff0000ffff0000ffff0000ffff000011
:101bdc00ffff0000ff09000060a90000ffff0000ec
:101bec00ffff0000ffff000006b90000ffff000030
:101bfc00ffff0000ffff0000ffff0000ffff0000e1
:101c0c00ffff0000ffff0000ffff0000ffff0000d0
:101c1c00ffff0000ffff0000ffff0000ffff0000c0
:101c2c00ffff0000ffff0000ffff0000ffff0000b0
:101c3c00ffff0000ffff0000ffff0000ffff0000a0
:101c4c00ffff0000ffff0000ffff0000ffff000090
:101c5c00ffff000099fb0000ffff0000ffff0000ea
:101c6c00ffff0000ffa90000ffff0000ffff0000c6
:101c7c00ffff0000ffff0000ffff0000ffff000060
:101c8c00ffff0000ffff0000ffff0000ffff000050
:101c9c00ffff0000ffff0000ffff0000ffff000040
:101cac00ffff0000ffff0000ffff0000ffff000030
:101cbc00ffff0000ffff0000ffff0000ffff000020
:101ccc00ffff0000ffff0000ffff0000ffff000010
:101cdc00ffff0000ffff0000ffff0000ffff000000
:101cec00ffff0000ffff0000ffff0000ffff0000f0
:101cfc00ffff0000ffff0000ffff0000ffff0000e0
:101d0c00ffff0000ffff0000ffff0000ffff0000cf
:101d1c00ffff0000ffff0000ffff0000ffff0000bf
:101d2c00ffff0000ffff0000ffff0000ffff0000af
:101d3c00ffff0000ffff0000ffff0000ffff00009f
:101d4c00ffff0000ffff0000ffff0000ffff00008f
:101d5c00ffff0000ffff0000ffff0000ffff00007f
:101d6c00ffff0000ffff0000ffff0000ffff00006f
:101d7c00ffff0000ffff0000ffff0000ffff00005f
:101d8c00ffff0000ffff0000ffff0000ffff00004f
:101d9c00ffff0000ffff0000ffff0000ffff00003f
:101dac00ffff0000ffff0000ffff0000ffff00002f
:101dbc00ffff0000ffff0000ffff0000ffff00001f
:101dcc00ffff0000ffff0000ffff0000ffff00000f
:101ddc00ffff0000ffff0000ffff0000ffff0000ff
:101dec00ffff0000ffff0000ffff0000ffff0000ef
:101dfc00ffff0000ffff0000ffff0000ffff0000df
:101e0c00ffff0000ffff0000ffff0000ffff0000ce
:101e1c00ffff0000ffff0000ffff0000ffff0000be
:101e2c00ffff0000ffff0000ffff0000ffff0000ae
:101e3c00ffff0000ffff0000ffff0000ffff00009e
:101e4c00ffff0000ffff0000ffff0000ffff00008e
:101e5c00ffff0000cccc0000dfff0000fcff000007
:101e6c00ffff0000ffff0000ffff0000ffff00006e
:101e7c00ffff0000ffff0000ffff0000ffff00005e
:101e8c00ffff0000ffff0000ffff0000ffff00004e
:101e9c00ffff0000ffff0000ffff0000ffff00003e
:101eac00ffff0000ffff0000ffff0000ffff00002e
:101ebc00ffff0000ffff0000ffff0000ffff00001e
:101ecc00ffff0000ffff0000ffff0000ffff00000e
:101edc00ffff0000dffc0000ceff0000fdff000054
:101eec00ffff0000ffff0000ffff0000ffff0000ee
:101efc00ffff0000ffff0000ffff0000ffff0000de
:101f0c00ffff0000ffff0000ffff0000ffff0000cd
:101f1c00ffff0000ffff0000ffff0000ffff0000bd
:101f2c00ffff0000ffff0000ffff0000ffff0000ad
:101f3c00ffff0000ffff0000ffff0000ffff00009d
:101f4c00ffff0000ffff0000ffff0000ffff00008d
:101f5c00ffff0000ffff0000ffff0000ffff00007d
:101f6c00ffff0000ffff0000ffff0000ffff00006d
:101f7c00ffff0000ffff0000ffff0000ffff00005d
:101f8c00ffff0000ffff0000ffff0000ffff00004d
:101f9c00ffff0000ffff0000ffff0000ffff00003d
:101fac00ffff0000ffff0000ffff0000ffff00002d
:101fbc00ffff0000ffff0000ffff0000ffff00001d
:101fcc00ffff0000ffff0000ffff0000ffff00000d
:101fdc00ffff0000ffff0000ffff0000ffff0000fd
:101fec00ffff0000ffff0000ffff0000ffff0000ed
:101ffc00ffff0000ffff0000ffff0000ffff0000dd
:10200c00ffff0000ffff0000ffff0000ffff0000cc
:10201c00ffff0000ffff0000ffff0000ffff0000bc
:10202c00ffff0000ffff0000ffff0000ffff0000ac
:10203c00ffff0000ffff0000ffff0000ffff00009c
:10204c00ffff0000ffff0000ffff0000ffff00008c
:10205c00ffff0000ffff0000ffff0000ffff00007c
:10206c00ffff0000ffff0000ffff0000ffff00006c
:10207c00ffff0000ffff0000ffff0000ffff00005c
:10208c00ffff0000ffff0000ffff0000ffff00004c
:10209c00ffff0000ffff0000ffff0000ffff00003c
:1020ac00ffff0000ffff0000ffff0000ffff00002c
:1020bc00ffff0000ffff0000ffff0000ffff00001c
:1020cc00ffff0000ffff0000ffff0000ffff00000c
:1020dc00ffff0000ffff0000cfdf0000ceec000090
:1020ec00edfe0000ccff0000eccd0000ecff00008a
:1020fc00ff0000000000000046050000000000008a
:10210c00000400002d0000007e00000041180000bb
:10211c00a23000006150000000880000653900000a
:10212c0000b8000000e0000000f80000cb620000e6
:10213c00b29c000079ce00003ce70000def7000006
:10214c00bfff0000feff0000ffff0000ffff0000cc
:10215c00efcc0000edfc0000cffc0000eeed000029
:10216c00ccde0000cfff0000ffff0000ffff0000ef
:10217c00ffff0000ffff0000ffff0000ffff00005b
:10218c00ffff0000ffff0000ffff0000ffff00004b
:10219c00ffff0000ffff0000ffff0000ffff00003b
:1021ac00ffff0000ffff0000ffff0000ffff00002b
:1021bc00ffff0000ffff0000ffff0000ffff00001b
:1021cc00ffff0000ffff0000ffff0000ffff00000b
:1021dc00ffff0000ffff0000ffff0000ffff0000fb
:1021ec00ffff0000ffff0000ffff0000ffff0000eb
:1021fc00ffff0000ffff0000ffff0000ffff0000db
:10220c00ffff0000ffff0000ffff0000ffff0000ca
:10221c00ffff0000ffff0000ffff0000ffff0000ba
:10222c00ffff0000ffff0000ffff0000ffff0000aa
:10223c00ffff0000ffff0000ffff0000ffff00009a
:10224c00ffff0000ffff0000ffff0000ffff00008a
:10225c00ffff0000ffff0000ffff0000ffff00007a
:10226c00ffff0000ffff0000ffff0000ffff00006a
:10227c00ffff0000ffff0000ffff0000ffff00005a
:10228c00ffff0000ffff0000ffff0000ffff00004a
:10229c00ffff0000ffff0000ffff0000ffff00003a
:1022ac00ffff0000ffff0000ffff0000ffff00002a
:1022bc00ffff0000ffff0000ffff0000ffff00001a
:1022cc00ffff0000fffc0000ffff0000ffff00000d
:1022dc00ffff0000ffff0000ffff0000ffff0000fa
:1022ec00ffff0000ffff0000ffff0000ffff0000ea
:1022fc00ffff0000ffff0000ffff0000ffff0000da
:10230c00ffff0000ffff0000ffff0000ffff0000c9
:10231c00ffff0000ffff0000ffff0000ffff0000b9
:10232c00ffff0000ffff0000ffff0000ffff0000a9
:10233c00ffff0000ffff0000ffff0000ffff000099
:10234c00ffff0000feff0000ffff0000ffff00008a
:10235c00ffff0000ffff0000ffff0000ffff000079
:10236c00fffd0000cffe0000dcff0000ffff0000bf
:10237c00ffff0000ffff0000ffff0000ffff000059
:10238c00ffff0000ffff0000ffff0000ffff000049
:10239c00ffff0000ffff0000ffff0000ffff000039
:1023ac00ffff0000ffff0000ffff0000ffff000029
:1023bc00ffff0000ffff0000ffff0000ffff000019
:1023cc00ffff0000ffff0000ffff0000ffff000009
:1023dc00ffff0000ffff0000ffff0000ffff0000f9
:1023ec00fffc0000dfcf0000ccfc0000ffff000072
:1023fc00ffff0000ffff0000ffff0000ffff0000d9
:10240c00ffff0000ffff0000ffff0000ffff0000c8
:10241c00ffff0000ffff0000ffff0000ffff0000b8
:10242c00ffff0000ffff0000ffff0000ffff0000a8
:10243c00ffff0000ffff0000ffff0000ffff000098
:10244c00fdff0000ffff0000ffff0000ffff00008a
:10245c00ffff0000ffff0000ffff0000ffff000078
:10246c00ffff0000ffff0000ffff0000ffff000068
:10247c00ffff0000ffff0000ffff0000ffff000058
:10248c00ffff0000ffff0000ffff0000ffff000048
:10249c00ffff0000ffff0000ffff0000ffff000038
:1024ac00ffff0000ffff0000ffff0000ffff000028
:1024bc00ffff0000ffff0000ffff0000ffff000018
:1024cc00ffff0000ffff0000ffff0000ffff000008
:1024dc00ffff0000ffff0000ffff0000ffff0000f8
:1024ec00ffff0000ffff0000ffff0000ffff0000e8
:1024fc00ffff0000ffff0000ffff0000ffff0000d8
:10250c00ffff0000ffff0000ffff0000ffff0000c7
:10251c00ffff0000ffff0000ffff0000ffff0000b7
:10252c00ffff0000ffff0000ffff0000ffff0000a7
:10253c00ffff0000ffff0000ffff0000ffff000097
:10254c00ffff0000ffff0000ffff0000ffff000087
:10255c00ffff0000ffff0000ffff0000ffff000077
:10256c00ffff0000ffff0000ffff0000ffff000067
:10257c00ffff0000ffff0000ffff0000ffff000057
:10258c00ffff0000ffff0000ffff0000ffff000047
:10259c00ffff0000ffff0000ffff0000ffff000037
:1025ac00ffff0000ffff0000ffff0000ffff000027
:1025bc00ffff0000ffff0000ffff0000ffff000017
:1025cc00ffff0000ffff0000ffff0000ffff000007
:1025dc00ffff0000ffff0000ffff0000ffff0000f7
:1025ec00ffff0000ffff0000ffff0000ffff0000e7
:1025fc00ffff0000ffff0000ffff0000ffff0000d7
:10260c00ffff0000ffff0000ffff0000ffff0000c6
:10261c00ffff0000ffff0000ffff0000ffff0000b6
:10262c00ffff0000ffff0000ffff0000ffff0000a6
:10263c00ffff0000ffff0000ffff0000ffff000096
:10264c00ffff0000ffff0000ffff0000ffff000086
:10265c00ffff0000fffa0000ffff0000ffff00007b
:10266c00ffff0000ffbf0000faff0000ffff0000ab
:10267c00ffff0000ffff0000ffff0000ffff000056
:10268c00ffff0000ffff0000ffff0000ffff000046
:10269c00ffff0000ffff0000ffff0000ffff000036
:1026ac00ffff0000ffff0000ffff0000ffff000026
:1026bc00ffff0000ffff0000ffff0000ffff000016
:1026cc00ffff0000ffff0000ffff0000ffff000006
:1026dc00ff4a0000f4ff0000ffff0000ffff0000b6
:1026ec00ff9a000001f40000ffff0000ffff000054
:1026fc00ffff0000ffff0000ffff0000ffff0000d6
:10270c00ffff0000ffff0000ffff0000ffff0000c5
:10271c00ffff0000ffff0000ffff0000ffff0000b5
:10272c00ffff0000ffff0000ffff0000ffff0000a5
:10273c00ffff0000ffff0000ffff0000ffff000095
:10274c00ffff0000ffff0000ffff0000ff8b0000f9
:10275c0002f90000ffff0000ffff00009b080000d3
:10276c0032150000fbff0000ffff0000ffff000020
:10277c00ffff0000ffff0000ffff0000ffff000055
:10278c00ffff0000ffff0000ffff0000ffff000045
:10279c00ffff0000ffff0000ffff0000ffff000035
:1027ac00ffff0000ffff0000ffff0000ffff000025
:1027bc00ffff0000ffff0000ffff0000ffff000015
:1027cc00ffff0000ffff0000ff9c00003016000020
:1027dc00ffff0000ffaf000019200000637700002e
:1027ec0092ff0000ffff0000ffff0000ffff000052
:1027fc00ffff0000ffff0000ffff0000ffff0000d5
:10280c00ffff0000ffff0000ffff0000ffff0000c4
:10281c00ffff0000ffff0000ffff0000ffff0000b4
:10282c00ffff0000ffff0000ffff0000ffff0000a4
:10283c00fdff0000ffff0000ffff0000ffff000096
:10284c00ffff0000ff9f00003076000092ff0000a9
:10285c00bf890000206300007777000037f8000084
:10286c00ffff0000ffff0000ffff0000ffff000064
:10287c00ffff0000ffff0000ffff0000ffff000054
:10288c00ffff0000ffff0000ffff0000ffff000044
:10289c00ffff0000ffff0000ffff0000ffff000034
:1028ac00ffff0000ffff0000ffff0000ffff000024
:1028bc00ffff0000ffff0000ffff0000ffff000014
:1028cc00ffaf00002476000067f100009a010000c1
:1028dc00327600007777000077450000ffff00009c
:1028ec00ffff0000ffff0000ffff0000ffff0000e4
:1028fc00ffff0000ffff0000ffff0000ffff0000d4
:10290c00ffff0000ffff0000ffff0000ffff0000c3
:10291c00ffff0000ffff0000ffff0000ffff0000b3
:10292c00ffff0000ffff0000ffff0000ffff0000a3
:10293c00ffff0000ffff0000ffff0000ffbf0000d3
:10294c002875000077270000003200007677000021
:10295c007777000077670000b1ff0000ffff0000f1
:10296c00ffff0000ffff0000ffff0000ffff000063
:10297c00ffff0000ffff0000ffff0000ffff000053
:10298c00ffff0000ffff0000ffff0000ffff000043
:10299c00ffff0000ffff0000ffff0000ffff000033
:1029ac00ffff0000ffff0000ffff0000ffff000023
:1029bc00ffff0000ffff0000ffcf000009730000c5
:1029cc007777000037630000777700007777000097
:1029dc007777000027f90000ffff0000ffff0000e1
:1029ec00ffff0000ffff0000ffff0000ffff0000e3
:1029fc00ffff0000ffff0000ffff0000ffff0000d3
:102a0c00ffff0000ffff0000ffff0000ffff0000c2
:102a1c00ffff0000ffff0000ffff0000ffff0000b2
:102a2c00ffff0000ffff0000ffff0000ffff0000a2
:102a3c00ffff0000ffff0000096300007777000034
:102a4c0077770000777700007777000077770000c2
:102a5c0077830000ffff0000ffff0000ffff000076
:102a6c00ffff0000ffff0000ffff0000ffff000062
:102a7c00ffff0000ffff0000ffff0000ffff000052
:102a8c00ffff0000ffff0000ffff0000ffff000042
:102a9c00ffff0000ffff0000ffff0000ffff000032
:102aac00ffff0000ffff0000ffff0000ffff000022
:102abc00ffff00004a620000777700007777000084
:102acc007777000077770000777700007757000062
:102adc00f4ff0000ffff0000ffff0000ffff0000fd
:102aec00ffff0000ffff0000ffff0000ffff0000e2
:102afc00ffff0000ffff0000ffff0000ffff0000d2
:102b0c00ffff0000ffff0000ffff0000ffff0000c1
:102b1c00ffff0000ffff0000ffff0000ffff0000b1
:102b2c00ffff0000ffff0000ffff0000ffff0000a1
:102b3c008b520000777700007777000077770000e2
:102b4c0077770000777700007777000016fb00009e
:102b5c00ffff0000ffff0000ffff0000ffff000071
:102b6c00ffff0000ffff0000ffff0000ffff000061
:102b7c00ffff0000ffff0000ffff0000ffff000051
:102b8c00ffff0000ffff0000ffff0000ffff000041
:102b9c00ffff0000ffff0000ffff0000ffff000031
:102bac00ffff0000ffff0000ffff00009c30000053
:102bbc007777000077770000777700007777000051
:102bcc00777700007777000077920000ffff000016
:102bdc00ffff0000ffff0000ffff0000ffff0000f1
:102bec00ffff0000ffff0000ffff0000ffff0000e1
:102bfc00ffff0000ffff0000ffff0000ffff0000d1
:102c0c00ffff0000ffff0000ffff0000ffff0000c0
:102c1c00ffff0000ffff0000ffff0000ffff0000b0
:102c2c00ffff0000ffff00009f30000076770000e0
:102c3c0077770000777700007777000077770000d0
:102c4c007777000077370000f8ff0000ffff0000e7
:102c5c00ffff0000ffff0000ffff0000ffff000070
:102c6c00ffff0000ffff0000ffff0000ffff000060
:102c7c00ffff0000ffff0000ffff0000ffff000050
:102c8c00ffff0000ffff0000ffff0000ffff000040
:102c9c00ffff0000ffff0000ffff0000ffff000030
:102cac00ffff0000ff8f00005177000077770000d6
:102cbc007777000077770000777700007777000050
:102ccc007777000027f90000ffff0000ffff0000ee
:102cdc00ffff0000ffff0000ffff0000ffff0000f0
:102cec00ffff0000ffff0000ffff0000ffff0000e0
:102cfc00ffff0000ffff0000ffff0000ffff0000d0
:102d0c00ffff0000ffff0000ffff0000ffff0000bf
:102d1c00ffff0000ffff0000ffff0000ffff0000af
:102d2c00ffff0000ff4a0000627700007777000089
:102d3c0077770000777700007777000077770000cf
:102d4c0077670000a1ff0000ffff0000ffff0000fd
:102d5c00ffff0000ffff0000ffff0000ffff00006f
:102d6c00ffff0000ffff0000ffff0000ffff00005f
:102d7c00ffff0000ffff0000ffff0000ffff00004f
:102d8c00ffff0000ffff0000ffff0000ffff00003f
:102d9c00ffff0000ffff0000ffff0000ffff00002f
:102dac00ffff0000ff09000062770000777700004a
:102dbc00777700007777000077770000777700004f
:102dcc0077450000fcff0000ffff0000ffff000044
:102ddc00ffff0000ffff0000ffff0000ffff0000ef
:102dec00ffff0000ffff0000ffff0000ffff0000df
:102dfc00ffff0000ffff0000ffff0000ffff0000cf
:102e0c00ffff0000ffff0000ffff0000ffff0000be
:102e1c00ffff0000ffff0000ffff0000ffff0000ae
:102e2c00ffff0000cf0900007377000077770000e8
:102e3c0077770000777700007777000077770000ce
:102e4c0037f80000ffff0000ffff0000ffff00004d
:102e5c00ffff0000ffff0000ffff0000ffff00006e
:102e6c00ffff0000ffff0000ffff0000ffff00005e
:102e7c00ffff0000ffff0000ffff0000ffff00004e
:102e8c00ffff0000ffff0000ffff0000ffff00003e
:102e9c00ffff0000ffff0000ffff0000ffff00002e
:102eac00ffff0000bf180000757700007777000067
:102ebc00777700007777000077770000777700004e
:102ecc0092ff0000ffff0000ffff0000ffff00006b
:102edc00ffff0000ffff0000ffff0000ffff0000ee
:102eec00ffff0000ffff0000ffff0000ffff0000de
:102efc00ffff0000ffff0000ffff0000ffff0000ce
:102f0c00ffff0000ffff0000ffff0000ffff0000bd
:102f1c00ffff0000ffff0000ffff0000ffff0000ad
:102f2c00ffff0000af2400007677000077670000f9
:102f3c00767700007777000077770000771600002f
:102f4c00faff0000ffff0000ffff0000ffff000082
:102f5c00ffff0000ffff0000ffff0000ffff00006d
:102f6c00ffff0000ffff0000ffff0000ffff00005d
:102f7c00ffff0000ffff0000ffff0000ffff00004d
:102f8c00ffff0000ffff0000ffff0000ffff00003d
:102f9c00ffff0000ffff0000ffff0000ffff00002d
:102fac00ffff00009f200000767700001710000044
:102fbc0052770000777700007777000057c4000045
:102fcc00ffff0000ffff0000ffff0000ffff0000fd
:102fdc00ffff0000ffff0000ffff0000ffff0000ed
:102fec00ffff0000ffff0000ffff0000ffff0000dd
:102ffc00ffff0000ffff0000ffff0000ffff0000cd
:10300c00ffff0000ffff0000ffff0000ffff0000bc
:10301c00ffff0000ffff0000ffff0000ffff0000ac
:10302c00ffff00009c30000077570000a44900000f
:10303c0020630000777700007777000083ff0000a3
:10304c00ffff0000ffff0000ffff0000ffff00007c
:10305c00ffff0000ffff0000ffff0000ffff00006c
:10306c00ffff0000ffff0000ffff0000ffff00005c
:10307c00ffff0000ffff0000ffff0000ffff00004c
:10308c00ffff0000ffff0000ffff0000fffe00003d
:10309c00ffff0000ffff0000ffff0000ffff00002c
:1030ac00ffff00008b51000077a10000ff9b000088
:1030bc00082100007577000077270000f9ff000059
:1030cc00ffff0000ffff0000ffff0000ffff0000fc
:1030dc00ffff0000ffff0000ffff0000ffff0000ec
:1030ec00ffff0000ffff0000ffff0000ffff0000dc
:1030fc00ffff0000ffff0000ffff0000ffff0000cc
:10310c00ffff0000ffff0000ffff0000ffff0000bb
:10311c00ffff0000ffff0000ffff0000ffff0000ab
:10312c00ffff00004a62000045ff0000ffff0000a7
:10313c009a0400003276000067a10000ffff000037
:10314c00ffff0000ffff0000ffff0000ffff00007b
:10315c00ffff0000ffff0000ffff0000ffff00006b
:10316c00ffff0000ffff0000ffff0000ffff00005b
:10317c00ffff0000ffff0000ffff0000ffff00004b
:10318c00ffff0000ffff0000fffd0000ffff00003d
:10319c00ffff0000ffff0000ffff0000ffff00002b
:1031ac00ffff000009020000faff0000ffff000013
:1031bc00bf8900001052000045fc0000ffff00001a
:1031cc00ffff0000ffff0000ffff0000ffff0000fb
:1031dc00ffff0000ffff0000ffff0000ffff0000eb
:1031ec00ffff0000ffff0000ffff0000ffff0000db
:1031fc00ffff0000ffff0000ffff0000ffff0000cb
:10320c00ffff0000ffff0000ffff0000ffff0000ba
:10321c00ffff0000ffff0000ffff0000ffff0000aa
:10322c00ffcf000009f40000ffff0000ffff0000cb
:10323c00ffaf000049000000f8ff0000ffff000096
:10324c00ffff0000ffff0000ffff0000ffff00007a
:10325c00ffff0000ffff0000ffff0000ffff00006a
:10326c00ffff0000ffff0000ffff0000ffff00005a
:10327c00ffff0000ffff0000ffff0000ffff00004a
:10328c00ffff0000ffff0000ffff0000ffff00003a
:10329c00ffff0000ffff0000ffff0000ffff00002a
:1032ac00ffbf0000f9ff0000ffff0000ffff000060
:1032bc00ffff00009bf90000ffff0000ffff000074
:1032cc00ffff0000ffff0000ffff0000ffff0000fa
:1032dc00ffff0000ffff0000ffff0000ffff0000ea
:1032ec00ffff0000ffff0000ffff0000ffff0000da
:1032fc00ffff0000ffff0000ffff0000ffff0000ca
:10330c00ffff0000ffff0000ffff0000ffff0000b9
:10331c00ffff0000ffff0000ffff0000ffff0000a9
:10332c00ffcc0000ffff0000ffff0000ffff0000cc
:10333c00ffff0000ffff0000ffff0000ffff000089
:10334c00ffff0000ffff0000ffff0000ffff000079
:10335c00ffff0000ffff0000ffff0000ffff000069
:10336c00ffff0000ffff0000ffff0000ffff000059
:10337c00ffff0000ffff0000ffff0000ffff000049
:10338c00ffff0000ffff0000ffff0000ffff000039
:10339c00ffff0000ffff0000ffff0000ffcc00005c
:1033ac00bbfc0000ffff0000ffff0000ffff000060
:1033bc00ffff0000ffff0000ffff0000ffff000009
:1033cc00ffff0000ffff0000ffff0000ffff0000f9
:1033dc00ffff0000ffff0000ffff0000ffff0000e9
:1033ec00ffff0000ffff0000ffff0000ffff0000d9
:10377c00ff000000000000008610000000000000a8
:10378c00000000001c0000007e0000001b00000078
:10379c00109400000100000010ca0000010000009d
:1037ac001100000002000000115100000200000096
:1037bc0005a200000200000006bd0000020000008f
:1037cc000ad80000020000000b0e000003000000ed
:1037dc000b44000003000000107a000003000000fe
:1037ec0010b000000300000006e60000030000001b
:1037fc000701000004000000071c0000040000008a
:10380c000a37000004000000096d000004000000ed
:10381c0005a300000400000008be00000400000026
:10382c0005d90000040000000bf4000004000000a7
:10383c000b2a0000050000000b60000005000000d2
:10384c000b960000050000000bcc000005000000ea
:10385c000b020000060000000b3800000600000000
:10386c000b6e0000060000000ba400000600000018
:10387c000bda0000060000000b100000070000002f
:10388c00054600000700000005610000070000006d
:10389c000a7c0000070000000ab2000007000000cc
:1038ac000ae80000070000000a1e000008000000e3
:1038bc0013540000080000000ea5000008000000d2
:1038cc000cdb0000080000000c11000009000000d7
:1038dc000e470000090000000b7d000009000000ed
:1038ec000bb30000090000000de900000900000006
:1038fc000f1f00000a000000075500000a0000001e
:10390c00077000000a0000000d8b00000a00000088
:10391c000bc100000a00000013f700000a000000b1
:10392c000f4800000b0000000e7e00000b00000092
:10393c000cb400000b0000000eea00000b000000ad
:10394c000d2000000c0000000b5600000c000000c5
:10395c000d8c00000c0000000fc200000c000000d9
:10396c000ff800000c000000142e00000d000000e9
:10397c000e7f00000d0000000eb500000d000000d1
:10398c000ceb00000d000000072100000e000000f1
:10399c000b3c00000e000000087200000e0000003e
:1039ac000b8d00000e0000000bc300000e00000089
:1039bc0007f900000e0000000b1400000f000000bf
:1039cc000c4a00000f0000000a8000000f000000ed
:1039dc000cb600000f0000000bec00000f00000004
:1039ec0007220000100000000c3d00001000000039
:1039fc000d7300001000000006a90000100000006c
:103a0c0006c40000100000000cdf000010000000d5
:103a1c000615000011000000143000001100000019
:103a2c000d810000110000000cb700001100000017
:103a3c000ced0000110000000c230000120000002f
:103a4c000959000012000000098f0000120000004c
:103a5c0008c50000120000000ce00000120000007d
:103a6c000b16000013000000104c000013000000a7
:103a7c000c820000130000000bb8000013000000c3
:103a8c000aee0000130000000824000014000000df
:103a9c00053f000014000000085a0000140000004c
:103aac000b75000014000000000000000000000076
:103abc00000000000030000000380000003c000056
:103acc00003e0000003f0000803f0000c03f0000af
:103adc00e03f0000f03f0000f83f0000fc3f00001a
:103aec00f83f0000f03f0000e03f0000c03f000046
:103afc00803f0000003f0000003e0000003c000042
:103b0c000038000000300000000000000000000041
:103b1c000000000000000000000000000000000099
:103b2c000c0000001c0000003c0000007c000000a9
:103b3c00fc000000fc010000fc030000fc0700007e
:103b4c00fc0f0000fc1f0000fc3f0000fc1f0000ed
:103b5c00fc0f0000fc070000fc030000fc0100004f
:103b6c00fc0000007c0000003c0000001c00000079
:103b7c000c0000000000000000000000000000002d
:103b8c000000000000000000000000000000000029
:103b9c000000000001000000800300000080000015
:103bac00030000008003000000c0000007000000bc
:103bbc00c007000000e000000f000000e00f000054
:103bcc0000e000000f000000f01f000000f00000fb
:103bdc001f000000f01f000000f800003f00000074
:103bec00f83f000000f800003f000000fc7f0000e0
:103bfc0000fc00007f000000fc7f000000fe0000c5
:103c0c00ff000000feff000000fe0000ff000000af
:103c1c000000000000000000000000000000000098
:103c2c000000000000000000000000000000000088
:103c3c0000000000feff000000fe0000ff0000007e
:103c4c00feff000000fc00007f000000fc7f000075
:103c5c0000fc00007f000000f83f000000f80000ae
:103c6c003f000000f83f000000f000001f000000c3
:103c7c00f01f000000f000001f000000e00f00002b
:103c8c0000e000000f000000e00f000000c000008a
:103c9c0007000000c00700000080000003000000c7
:103cac008003000000800000030000000001000001
:103cbc0000000000000000000000000000000000f8
:103ccc0000000000000000000000000000000000e8
:103cdc0000000000000000000000000000000000d8
:103cec0000000000000000000000000000000000c8
:103cfc0000000000000000000000000000000000b8
:103d0c00080c00000c0c00000c0c00000c0c00004b
:103d1c000c0c00000c0c0000040000000c0c00004b
:103d2c000c0000000000000000000000000000007b
:103d3c00000000000000000000000000cc000000ab
:103d4c00cc000000cc000000cc000000cc00000037
:103d5c00cc000000cc000000c400000000000000fb
:103d6c000000000000000000000000000000000047
:103d7c000000000000000000000000000000000037
:103d8c000000000000000000000000000000000027
:103d9c000000000000000000000000000000000017
:103dac000000000000000000000000000000000007
:103dbc000000000060020000200300002001000051
:103dcc0020010000fc0700009001000090000000a2
:103ddc0098000000fe030000480000004c000000aa
:103dec00440000006400000000000000000000001f
:103dfc0000000000000000000000000000000000b7
:103e0c0000000000000000000000000000000000a6
:103e1c0000000000000000006000000060000000d6
:103e2c00f80100006c030000660100006600000051
:103e3c006e0000007c000000f8010000e0010000b2
:103e4c00e003000060030000620300006203000056
:103e5c0066010000fc000000600000006000000033
:103e6c000000000000000000000000000000000046
:103e7c000000000000000000000000000000000036
:103e8c0000000000000000000000000038300000be
:103e9c0024180000660c0000660400006606000092
:103eac0066030000a40100009c380000c064000000
:103ebc0060660000206600001066000018240000f8
:103ecc000c1c0000000000000000000000000000be
:103edc0000000000000000000000000000000000d6
:103eec0000000000000000000000000000000000c6
:103efc00e00100003003000018030000180300006c
:103f0c00180100009801000078000000787e000085
:103f1c007c1c0000cc180000c6190000861b000099
:103f2c00060f0000060e00000c1a0000f8710000cd
:103f3c000000000000000000000000000000000075
:103f4c000000000000000000000000000000000065
:103f5c00000c00000c0c00000c0c00000c0c000001
:103f6c000400000000000000000000000000000041
:103f7c000000000000000000000000000000000035
:103f8c00000000000060000030100000080c000071
:103f9c000c040000060600000606000006060000e1
:103fac0006060000040c00000c080000183000008d
:103fbc00600000000000000000000000030600008c
:103fcc000c08000018180000103000003030000001
:103fdc0030300000303000003010000018180000a5
:103fec0008040000060300000000000000000000b0
:103ffc000000000000300000003000000022000033
:10400c0001ae0000037800000078000000ae000054
:10401c000122000001300000003000000000000010
:10402c000000000000000000000000000000000084
:10403c000000000000000000000000000000000074
:10404c000000000000000000000000000000000064
:10405c000000000000000000000000000000000054
:10406c000000000000000000000000000000000044
:10407c000000000000000000000000000000000034
:10408c0000300000003000000030000000fe000096
:10409c000130000000300000003000000030000053
:1040ac000000000000000000000000000000000004
:1040bc0000000000000000000000000000000000f4
:1040cc0000000000000000000000000000000000e4
:1040dc0000000000000000000000000000000000d4
:1040ec0000000000000000000e0f00000c0c00008f
:1040fc0004020000000000000000000000000000ae
:10410c0000000000000000000000000000000000a3
:10411c0000000000000000007e0000000000000015
:10412c000000000000000000000000000000000083
:10413c000000000000000000000000000000000073
:10414c000000000000000000000000000000000063
:10415c00000000000c0c00000c000000000000002f
:10416c000000000000000000000000000000000043
:10417c0000020000000300000001000080010000ac
:10418c008001000080000000c0000000c0000000a2
:10419c006000000060000000200000003000000003
:1041ac003000000010000000180000001800000093
:1041bc000c0000000c0000000400000006000000d1
:1041cc0006000000020000000000000000000000db
:1041dc0000000000000000000000000000000000d3
:1041ec00000000000000000000000000f0000000d3
:1041fc00c80100008c0100008403000006030000cd
:10420c00060300000603000006030000060300007e
:10421c0006030000060100000c0100008c000000e9
:10422c007000000000000000000000000000000012
:10423c000000000000000000000000000000000072
:10424c000000000000000000000000000000000062
:10425c00000000000000000060000000780000007a
:10426c0064000000600000006000000060000000be
:10427c0060000000600000006000000060000000b2
:10428c00600000006000000060000000fc03000003
:10429c000000000000000000000000000000000012
:1042ac000000000000000000000000000000000002
:1042bc0000000000000000000000000000000000f2
:1042cc000000000078000000c4010000860100001e
:1042dc008201000080010000c0000000c00000004e
:1042ec0060000000300000003000000018000000ea
:1042fc000c01000006010000fe010000000000009f
:10430c0000000000000000000000000000000000a1
:10431c000000000000000000000000000000000091
:10432c000000000000000000000000000000000081
:10433c00f8000000cc0100008601000080010000a4
:10434c008001000040000000f0000000800100002f
:10435c000003000000030000000300000003000045
:10436c008601000078000000000000000000000042
:10437c000000000000000000000000000000000031
:10438c000000000000000000000000000000000021
:10439c00000000000000000000000000c000000051
:1043ac00e0000000e0000000d0000000d800000099
:1043bc00c8000000c4000000c6000000c2000000dd
:1043cc00ff030000c0000000c0000000c00000009f
:1043dc00f0030000000000000000000000000000de
:1043ec0000000000000000000000000000000000c1
:1043fc0000000000000000000000000000000000b1
:10440c00000000000000000000010000fc000000a3
:10441c000400000004000000060000007e00000004
:10442c00c20000008001000080010000800100003b
:10443c008001000080000000c30000003c00000070
:10444c000000000000000000000000000000000060
:10445c000000000000000000000000000000000050
:10446c000000000000000000000000000000000040
:10447c000000000080010000600000001800000037
:10448c00080000000c000000f60000008e01000087
:10449c0006030000060300000603000006030000ec
:1044ac000c0100008c010000f00000000000000076
:1044bc0000000000000000000000000000000000f0
:1044cc0000000000000000000000000000000000e0
:1044dc0000000000000000000000000000000000d0
:1044ec0000000000fc0300000201000002010000bb
:1044fc008001000080000000c000000040000000af
:10450c0060000000200000003000000030000000bf
:10451c00180000000800000000000000000000006f
:10452c00000000000000000000000000000000007f
:10453c00000000000000000000000000000000006f
:10454c00000000000000000000000000f800000067
:10455c00cc01000086010000860100008e010000e5
:10456c00dc000000f0000000c80100008c0300001b
:10457c000603000006030000060300008c01000087
:10458c0078000000000000000000000000000000a7
:10459c00000000000000000000000000000000000f
:1045ac0000000000000000000000000000000000ff
:1045bc000000000000000000f00000008c01000072
:1045cc00840100000603000006030000060300003f
:1045dc00060300008c0300007803000000010000bb
:1045ec0080010000c0000000200000001c00000042
:1045fc0000000000000000000000000000000000af
:10460c00000000000000000000000000000000009e
:10461c00000000000000000000000000000c000082
:10462c000c0c00000000000000000000000c00005a
:10463c000c0c000000000000000000000000000056
:10464c00000000000000000000000000000000005e
:10465c00000000000c0c00000c000000000000002a
:10466c00000000000e0f00000c0c00000402000003
:10467c00000000000000000000000000000000002e
:10468c00000000000000000000000000000000001e
:10469c00000000000000000000000000000000000e
:1046ac0000010000e00100003c00000006000000da
:1046bc001c000000f0000000800100000000000061
:1046cc0000000000000000000000000000000000de
:1046dc0000000000000000000000000000000000ce
:1046ec0000000000000000000000000000000000be
:1046fc0000000000000000000000000000000000ae
:10470c00000000000000000000000000000000009d
:10471c0000000000fe01000000000000000000008e
:10472c00fe0100000000000000000000000000007e
:10473c00000000000000000000000000000000006d
:10474c00000000000000000000000000000000005d
:10475c00000000000000000000000000000000004d
:10476c00000000000000000000000000000000003d
:10477c000000000000000000060000003c000000eb
:10478c00e001000080010000f00000001e000000ad
:10479c00020000000000000000000000000000000b
:1047ac0000000000000000000000000000000000fd
:1047bc0000000000000000000000000000000000ed
:1047cc000000000000000000f8000000cc01000018
:1047dc0086010000860100008001000080010000bd
:1047ec00c00000006000000060000000300000000d
:1047fc00300000003000000010000000000000003d
:10480c00300000003000000030000000000000000c
:10481c00000000000000000000000000000000008c
:10482c00000000000000000000000000000000007c
:10483c00000000000000000000000000000000006c
:10484c0000000000000000003f000000c0700000ed
:10485c0000300000c00000001880000001080000bb
:10486c00800100000c970000038400001803000076
:10487c0046180000036600001803000066180000cc
:10488c00036600001803000066180000016e0000ab
:10489c0098010000cc9c0000008c0000730000000c
:1048ac00180000000038000080000000e0e000006c
:1048bc00018000001f00000000000000000000004c
:1048cc0000000000000000000000000000000000dc
:1048dc0000000000000000000000000000000000cc
:1048ec000040000000c0000000a0000000a000007c
:1048fc0001a00000011000000110000003100000d6
:10490c0003f800000308000006080000060400007d
:10491c000c0400000c1f00001e0000000000000032
:10492c00000000000000000000000000000000007b
:10493c00000000000000000000000000000000006b
:10494c0000000000000000000000000000fe00005d
:10495c00008d0000030c0000030c0000030c000091
:10496c00038c000001fc0000018c0000030c000013
:10497c00070c0000060c0000060c0000060c0000e2
:10498c0003ff000001000000000000000000000018
:10499c00000000000000000000000000000000000b
:1049ac0000000000000000000000000000000000fb
:1049bc00000000000000000000c0000007300000f4
:1049cc000c080000000c00000004000000060000b1
:1049dc0000060000000600000006000000060000b3
:1049ec00000c0000000c00000838000004e000007f
:1049fc0003000000000000000000000000000000a8
:104a0c00000000000000000000000000000000009a
:104a1c00000000000000000000000000000000008a
:104a2c000000000000fe0000010d0000070c00005b
:104a3c000e0c00000c0c0000180c0000180c0000f0
:104a4c00180c0000180c0000180c0000180c0000ca
:104a5c000c0c00000e0c000007ff00000100000011
:104a6c00000000000000000000000000000000003a
:104a7c00000000000000000000000000000000002a
:104a8c00000000000000000000000000000000001a
:104a9c0000ff0000030c0000020c0000020c0000e0
:104aac00000c0000000c000000fc0000018c000059
:104abc00000c0000000c0000000c0000000c0000ba
:104acc00040c000006ff00000300000000000000c2
:104adc0000000000000000000000000000000000ca
:104aec0000000000000000000000000000000000ba
:104afc0000000000000000000000000000ff0000ab
:104b0c00030c0000020c0000020c0000000c000062
:104b1c00000c000000fc0000018c0000000c0000e8
:104b2c00000c0000000c0000000c0000000c000049
:104b3c00003f00000000000000000000000000002a
:104b4c000000000000000000000000000000000059
:104b5c000000000000000000000000000000000049
:104b6c00000000000000000000e000000310000046
:104b7c0006080000000c0000000600000006000003
:104b8c0000060000008600000f060000060600006c
:104b9c00060c0000060c00000618000006f00000d1
:104bac0001000000000000000000000000000000f8
:104bbc0000000000000000000000000000000000e9
:104bcc0000000000000000000000000000000000d9
:104bdc0000000000003f00007e0c0000180c0000dc
:104bec00180c0000180c0000180c000018fc000039
:104bfc001f0c0000180c0000180c0000180c000012
:104c0c00180c0000180c0000183f00007e0000007b
:104c1c000000000000000000000000000000000088
:104c2c000000000000000000000000000000000078
:104c3c0000000000003f00000c0c00000c0c0000f9
:104c4c000c0c00000c0c00000c0c00000c0c0000f8
:104c5c003f00000000000000000000000000000009
:104c6c000000000000000000000000007e180000a2
:104c7c001818000018180000181800001818000068
:104c8c001818000018180000180800000403000091
:104c9c000000000000000000000000000000000008
:104cac00000000000000000000000000003f0000b9
:104cbc000f0c0000020c0000018c0000004c0000e6
:104ccc00006c0000003c0000006c000000ec0000d8
:104cdc0000cc0000008c0000010c0000030c000054
:104cec00063f00001c000000000000000000000057
:104cfc0000000000000000000000000000000000a8
:104d0c000000000000000000000000000000000097
:104d1c000000000000000000003f0000000c00003c
:104d2c00000c0000000c0000000c0000000c000047
:104d3c00000c0000000c0000000c0000000c000037
:104d4c00000c0000000c0000040c000002ff00002e
:104d5c000300000000000000000000000000000044
:104d6c000000000000000000000000000000000037
:104d7c000000000000000000000000000000000027
:104d8c000000000000000000000000000000000017
:104d9c00001e0000c00100001ce00000001c000010
:104dac00e00000003cf00000002c0000d0000000ef
:104dbc006cd00000006c0000c8000000ccc80000e3
:104dcc0000cc0000cc0000008cc50000008c000062
:104ddc00c70000000cc30000000c0000c300000062
:104dec001ee10000030000000000000000000000b5
:104dfc0000000000000000000000000000000000a7
:104e0c000000000000000000000000000000000096
:104e1c000000000000000000000000000000000086
:104e2c0000000000000000000f7e00000c180000c5
:104e3c001c1800003c1800002c1800004c18000036
:104e4c00cc1800008c1900000c1900000c1b000081
:104e5c000c1e00000c1c00000c1c00003f18000075
:104e6c000000000000000000000000000000000036
:104e7c000000000000000000000000000000000026
:104e8c000000000000000000000000000000000016
:104e9c0000000000e003000018060000080c0000f1
:104eac000c0c000006180000061800000618000084
:104ebc000618000006180000061800000c0c000074
:104ecc000c04000018020000f001000000000000bb
:104edc0000000000000000000000000000000000c6
:104eec0000000000000000000000000000000000b6
:104efc0000000000000000000000000000000000a6
:104f0c00fe0100000d0300000c0600000c06000062
:104f1c000c0600000c0600000c030000fc00000056
:104f2c000c0000000c0000000c0000000c00000045
:104f3c000c0000003f00000000000000000000001a
:104f4c000000000000000000000000000000000055
:104f5c000000000000000000000000000000000045
:104f6c00000000000000000000000000e003000052
:104f7c0018060000080c00000c0c000006180000bd
:104f8c00061800000618000006180000061800009d
:104f9c00061800000c0c00000c0c00001806000099
:104fac00f0010000000300000006000000380000c3
:104fbc0000000000000000000000000000000000e5
:104fcc0000000000000000000000000000000000d5
:104fdc000000000000000000fe0100000d030000b6
:104fec000c0600000c0600000c0600000c03000070
:104ffc00fc000000cc000000cc0000008c01000084
:10500c000c0300000c0300000c0600003f1c000009
:10501c000000000000000000000000000000000084
:10502c000000000000000000000000000000000074
:10503c000000000000000000000000000000000064
:10504c0000000000f80000008c01000006000000c9
:10505c00060000000e0000003c000000f8000000fc
:10506c00e0010000800300000003000002030000c8
:10507c0002010000860100007c000000000000001e
:10508c000000000000000000000000000000000014
:10509c000000000000000000000000000000000004
:1050ac0000000000000000000000000000000000f4
:1050bc00ff0f0000610800006108000060000000a4
:1050cc006000000060000000600000006000000054
:1050dc006000000060000000600000006000000044
:1050ec0060000000f801000000000000000000005b
:1050fc0000000000000000000000000000000000a4
:10510c000000000000000000000000000000000093
:10511c000000000000000000000000003f7e0000c6
:10512c000c1800000c1800000c1800000c180000e3
:10513c000c1800000c1800000c1800000c180000d3
:10514c000c1800000c180000180c000038060000a9
:10515c00e003000000000000000000000000000060
:10516c000000000000000000000000000000000033
:10517c000000000000000000000000000000000023
:10518c0000000000000000001f3c00000c18000094
:10519c000c08000018080000180c0000180400008f
:1051ac003006000030020000200200006003000006
:1051bc0060010000c0010000c00100008000000080
:1051cc0000000000000000000000000000000000d3
:1051dc0000000000000000000000000000000000c3
:1051ec0000000000000000000000000000000000b3
:1051fc0000000000000000000000000000000000a3
:10520c001fc20000070c0000060100000c06000085
:10521c00010c0000070100000c8d000001080000cb
:10522c008d00000098890000009800009800000094
:10523c009898000000d00000d000000070700000b2
:10524c000070000070000000706000000020000082
:10525c0060000000000000000000000000000000e2
:10526c000000000000000000000000000000000032
:10527c000000000000000000000000000000000022
:10528c000000000000000000000000000000000012
:10529c0000000000003f00001f0c00000c18000074
:1052ac00063800000330000001e0000001c00000df
:1052bc0000c0000001a00000013000000318000035
:1052cc00060800000e0c00000c1f00003e00000041
:1052dc0000000000000000000000000000000000c2
:1052ec0000000000000000000000000000000000b2
:1052fc0000000000000000000000000000000000a2
:10530c00000700003e0c00000c1800000418000000
:10531c00023000000360000001e0000001c000004a
:10532c0000c0000000c0000000c0000000c0000071
:10533c0000c0000000f000000300000000000000ae
:10534c000000000000000000000000000000000051
:10535c000000000000000000000000000000000041
:10536c0000000000000000000000000000fc000035
:10537c0007040000030200000380000001c00000cd
:10538c0000c0000000600000007000000030000051
:10539c000018000000180000000c000004060000bb
:1053ac0004fe0000070000000000000000000000e8
:1053bc0000000000000000000000000000000000e1
:1053cc0000000000003e000006060000060600007b
:1053dc000606000006060000060600000606000091
:1053ec000606000006060000060600000606000081
:1053fc003e00000000000000000000000000000063
:10540c00020000000600000006000000040000007e
:10541c000c0000000800000018000000180000003c
:10542c0010000000300000003000000020000000e0
:10543c00600000004000000040000000c0000000c0
:10544c0080000000800100008001000000010000cd
:10545c00000300000002000000000000000000003b
:10546c0000000000000000003e3000003030000062
:10547c0030300000303000003030000030300000a0
:10548c003030000030300000303000003030000090
:10549c00303e000000000000000000000000000092
:1054ac000000000000200000006000000070000000
:1054bc0000d0000000d80000008800000088000028
:1054cc00018c000001040000030400000302000032
:1054dc0003000000000000000000000000000000bd
:1054ec0000000000000000000000000000000000b0
:1054fc0000000000000000000000000000000000a0
:10550c00000000000000000000000000000000008f
:10551c00000000000000000000000000000000007f
:10552c00000000000000000000000000000000006f
:10553c00000000000000000000000000000000005f
:10554c00000000000000000000000000000000004f
:10555c0000000000000000000000000000fe000041
:10556c00030000000000000000000000000000002c
:10557c000000000000000000030600000c08000002
:10558c0010000000000000000000000000000000ff
:10559c0000000000000000000000000000000000ff
:1055ac0000000000000000000000000000000000ef
:1055bc0000000000000000000000000000000000df
:1055cc0000000000000000000000000000000000cf
:1055dc00f00000008c01000086010000800100003a
:1055ec00f00100008c010000860100008601000023
:1055fc00c6010000bc070000000000000000000015
:10560c00000000000000000000000000000000008e
:10561c00000000000000000000000000000000007e
:10562c000c0000000e0000000c0000000c0000003c
:10563c000c0000000c0000000c000000cc0100006d
:10564c003c0300001c0700000c0600000c060000c8
:10565c000c0600000c0600000c0200001c010000ef
:10566c00f00000000000000000000000000000003e
:10567c00000000000000000000000000000000001e
:10568c00000000000000000000000000000000000e
:10569c0000000000000000000000000000000000fe
:1056ac000000000000000000e001000018030000f2
:1056bc000c000000060000000600000006000000c0
:1056cc00060000000c0000001c030000f0000000ad
:1056dc0000000000000000000000000000000000be
:1056ec0000000000000000000000000000000000ae
:1056fc00000000000000000000030000c0030000d8
:10570c000003000000030000000300000003000081
:10571c0000030000f00300008803000004030000f5
:10572c000603000006030000060300000603000049
:10573c000e030000cc0b0000380700000000000036
:10574c00000000000000000000000000000000004d
:10575c00000000000000000000000000000000003d
:10576c00000000000000000000000000000000002d
:10577c00000000000000000000000000000000001d
:10578c00f00000000803000004030000fe0300000a
:10579c000600000006000000060000000c000000df
:1057ac001c030000f00000000000000000000000de
:1057bc0000000000000000000000000000000000dd
:1057cc000000000000000000006000005018000005
:1057dc000c0c00000c0c00007e0d00000c0c0000ea
:1057ec000c0c00000c0c00000c3f00000000000032
:1057fc00000000000000000000000000000000009d
:10580c00000000000000000000000000000000008c
:10581c00000000000000000000000000000000007c
:10582c0000f800000c8c00000306000003060000ca
:10583c0003060000038c000001f8000000180000b3
:10584c00001c000000f80000030600000e0300001e
:10585c000c0300000c06000006fc00000100000018
:10586c00000000000000000000000000000000002c
:10587c00000c0000000f0000000c0000000c0000e9
:10588c00000c0000000c0000000c000000cc00001c
:10589c00032c0000061c0000060c0000060c000087
:1058ac00060c0000060c0000060c0000060c0000a4
:1058bc0006bf00001f0000000000000000000000f8
:1058cc0000000000000000000000000000000000cc
:1058dc000000000000000000000000000c0c0000a4
:1058ec0000000000000c00000f0c00000c0c00006d
:1058fc000c0c00000c0c00003f000000000000002d
:10590c00000000000000000000000000000000008b
:10591c00000c00000c000000000000000c0f000048
:10592c000c0c00000c0c00000c0c00000c0c00000b
:10593c000c0c00000402000001000000000000003c
:10594c000000000000000000000c0000000f000030
:10595c00000c0000000c0000000c0000000c00000b
:10596c00000c0000008c0000078c000001cc000033
:10597c00002c0000003c0000006c000000cc00007b
:10598c00008c0000010c0000031f00000f00000041
:10599c0000000000000000000000000000000000fb
:1059ac0000000000000000000000000000000000eb
:1059bc000c0f00000c0c00000c0c00000c0c000078
:1059cc000c0c00000c0c00000c0c00000c0c00006b
:1059dc003f0000000000000000000000000000007c
:1059ec0000000000000000000000000000000000ab
:1059fc00000000000000000000000000000000009b
:105a0c00000000000000000000000000000000008a
:105a1c000000000000000000000000008ee3000009
:105a2c00016d0000160300001c0e0000030c0000aa
:105a3c00060300000c060000030c00000603000027
:105a4c000c060000030c0000060300000c0600000e
:105a5c0003bf0000df0f000000000000000000008a
:105a6c00000000000000000000000000000000002a
:105a7c00000000000000000000000000000000001a
:105a8c00000000000000000000000000000000000a
:105a9c0000000000000000000000000000000000fa
:105aac000000000000000000008e0000036d0000ec
:105abc00061c0000060c0000060c0000060c000082
:105acc00060c0000060c0000060c000006bf0000cf
:105adc001f0000000000000000000000000000009b
:105aec0000000000000000000000000000000000aa
:105afc00000000000000000000000000000000009a
:105b0c000000000000000000000000000000000089
:105b1c000000000000f000000088000003040000fa
:105b2c00030600000606000006060000060600003c
:105b3c00060c0000021c000001f000000000000038
:105b4c000000000000000000000000000000000049
:105b5c000000000000000000000000000000000039
:105b6c000000000000000000000000000000000029
:105b7c000000000000000000000000000000000019
:105b8c0000ce0000013d0000031c0000070c0000cb
:105b9c00060c0000060c0000060c0000060c0000b1
:105bac00021c000003ec0000000c0000000c0000c4
:105bbc00000c0000000c0000003f00000000000082
:105bcc0000000000000000000000000000000000c9
:105bdc0000000000000000000000000000000000b9
:105bec0000000000000000000000000000f00000b9
:105bfc0002880000030c00000306000003060000ee
:105c0c000306000003060000030e0000038c0000d6
:105c1c0003780000030000000300000003000000f4
:105c2c000300000003c000000f0000000000000093
:105c3c000000000000000000000000000000000058
:105c4c000000000000000000000000000000000048
:105c5c00000000000000000000cc000001af0000bc
:105c6c00019c0000001c0000000c0000000c000057
:105c7c00000c0000000c0000000c0000003f0000b5
:105c8c000000000000000000000000000000000008
:105c9c0000000000000000000000000000000000f8
:105cac0000000000000000000000000000000000e8
:105cbc0000000000000000000000000000000000d8
:105ccc0000000000007c00000066000000060000e0
:105cdc00000e0000003c000000f0000000c00000be
:105cec0000c2000000c20000003e000000000000e6
:105cfc000000000000000000000000000000000098
:105d0c000000000000000000000000000000000087
:105d1c0000000000000800000c0c00000cfe00004d
:105d2c000d0c00000c0c00000c0c00000c8c000086
:105d3c0078000000000000000000000000000000df
:105d4c000000000000000000000000000000000047
:105d5c000000000000000000000000000000000037
:105d6c0000000000000000000c030000ce03000047
:105d7c000c0300000c0300000c0300000c030000db
:105d8c000c0300000c030000cc0b000038070000d3
:105d9c0000000000000000000000000000000000f7
:105dac0000000000000000000000000000000000e7
:105dbc0000000000000000000000000000000000d7
:105dcc0000000000000000000000000000000000c7
:105ddc00000000009f070000040200000c010000fe
:105dec000c010000980100009800000090000000d9
:105dfc0070000000600000002000000000000000a7
:105e0c000000000000000000000000000000000086
:105e1c000000000000000000000000000000000076
:105e2c000000000000000000000000000000000066
:105e3c000000000000000000000000000000000056
:105e4c001ff1000004410000842300008c2300009b
:105e5c00882600004836000058140000301c000052
:105e6c00301c0000300800000000000000000000a2
:105e7c000000000000000000000000000000000016
:105e8c000000000000000000000000000000000006
:105e9c0000000000000000000000000000000000f6
:105eac000000000000000000000000009f07000040
:105ebc000c01000098000000f000000060000000e1
:105ecc0070000000d00000008801000004030000f6
:105edc008f07000000000000000000000000000020
:105eec0000000000000000000000000000000000a6
:105efc000000000000000000000000000000000096
:105f0c000000000000000000000000000000000085
:105f1c0000000000000000009f07000004020000c9
:105f2c000c0100000c01000098010000980000001a
:105f3c009000000070000000600000006000000095
:105f4c002000000030000000100000000f000000d6
:105f5c00070000000000000000000000000000002e
:105f6c000000000000000000000000000000000025
:105f7c000000000000000000000000000000000015
:105f8c0000000000fe01000082010000c2000000c1
:105f9c00600000002000000030000000180000002d
:105fac000c01000004010000fe01000000000000d4
:105fbc0000000000000000000000000000000000d5
:105fcc000000000000000000000000004030000055
:105fdc0010180000181800003830000030100000b5
:105fec00081e00003030000030300000181800008f
:105ffc0018180000304000000000000000000000f5
:10600c000c0c00000c0c00000c0c00000c0c000024
:10601c000c0c00000c0c00000c0c00000c0c000014
:10602c000c0c00000c0c00000c0c00000c0c000004
:10603c000000000000000000020c00001818000016
:10604c00181800000c0c00000c0c0000781000005c
:10605c00080c00000c1c00001818000018080000a8
:10606c000c02000000000000000000000000000016
:10607c000000000000000000000000000000000014
:10608c000000000000000000000000000000000004
:10609c000000000000180000047c000002f2000068
:1060ac0001c2000001000000000000000000000020
:1060bc0000000000000000000000000000000000d4
:1060cc0000000000000000000000000000000000c4
:1060dc00000000000000000000000000c69b000053
:1060ec0000000000e871000000000000000000004b
:1060fc0062490000000000000000000020000000c9
:10610c007e00000013000000048400000100000069
:10611c00049700000100000007aa00000100000025
:10612c0008bd00000100000008d0000001000000c4
:10613c000be30000010000000b090000020000004e
:10614c00042f0000020000000542000002000000c5
:10615c000555000002000000076800000200000066
:10616c00077b000002000000048e0000020000000b
:10617c0005a100000200000004b4000002000000b1
:10618c0008c700000200000008da0000020000004e
