:020000040000fa
:080000000002040000000000f2
:020000040000fa
:10040000efd82200007f24000001880000000000d7
:100410000a00070011000700000020000000e000b3
:10042000020032000000020000000000fe8b02000b
:10043000010000000040da000000fe004440a90076
:10044000807125000000e000030032000000200061
:10045000a00188004440a80000000600e0432b00f3
:10046000110020001500370062004000e0804800c5
:10047000910188009001ba0062004000e0804800cd
:10048000910188009002ba0062004000e0804800bc
:100490000002eb006028e10004003a000059eb0084
:1004a0008301e900fdff3e00040037006128e10000
:1004b000010032000082eb00050007009101880076
:1004c0001001ba000200e000e7ff3a00000005005a
:1004d000910188008002780062004000e0804800be
:1004e0003559ba008301e900080032002559ba00e5
:1004f0008301e900050032000400e000f4ff32004f
:1005000015d9ba008301e900f1ff3a0000000600a6
:1005100048240400010000000c2404000100000035
:100520001a78040001000000d878040001000000df
:100530008ad90400010000009ad9040001000000db
:10054000881f780000047800800a81000000e00025
:100550000100320000000100201522000048eb00dd
:10056000500a81000000e00001003200000001009c
:100570006140b800600a8900710a89004f04780060
:1005800000000600881f7800800a81000000e0005b
:100590000100320000000100500a81000000e0006c
:1005a000010032000000010040d280000000e000a5
:1005b000010032000000010010d280000000e000c5
:1005c0000100320000000100201522001004e000ac
:1005d00026003a00600a8100710a81000004eb00e5
:1005e000d260260093012000c1010700f2352f00e0
:1005f000e3c6230000004100818049000804e800b0
:10060000e80f5400f6ff3a00600a8900710a890079
:10061000a8a42100d260260093012000600a810076
:10062000710a8100b2010700f2352f00e3c62300f2
:100630000000410081804900600a8900710a890038
:10064000009cbe00a0ac2100800f5400f1ff3a00d6
:1006500030d6800041d6800020d2880031d2880078
:1006600011c0b3002015220001487800d260260096
:1006700093012000600a8100710a81009c0107003b
:10068000f2352f00e3c623000000410081804900bd
:10069000600a8900710a890042a4210012017800d1
:1006a0007f0161004211dd00a3a42100030141008c
:1006b0001202be0024d2880035d288000089be0014
:1006c00020d2800031d280004008de0000f0a1007e
:1006d0004f047800000006000000e0003100320006
:1006e0008080e90091027800e38f52002d003600ef
:1006f0000508a3002b003a00620d81000200e00013
:1007000002003200828f500004003100020878009d
:10071000610d8900160037000301780092019000f6
:100720000300e00002003200818f5100faff39001f
:100730001202780004004100808f50001900390037
:10074000810f500003003a00050942008200780042
:10075000070037000300e00003003200058040007e
:10076000808f51000f00390093009800110198000c
:10077000110190000200e0000a00320011804000e8
:10078000820f500007003a00a01a22000008eb0078
:1007900011009000110178009008410010009000b5
:1007a0009000980000000600889fbe00e30440000f
:1007b0000900a100808f54004a003600e38f5400e6
:1007c00001003e0049002000520d81000200e000bf
:1007d00002003200820078000c003700c11a2200ab
:1007e00003003700908f5400230036008080e8001b
:1007f000110078000000e000faff3a000f00370017
:10080000908f54001c0036008080e80011007800b2
:100810000000e000faff3a0012017800c11a22003d
:1008200003003700908f5400130036008080e800ea
:1008300011007800820f5000faff3a00480d810045
:10084000890f540001003100090478000800780085
:10085000670007000000e00004003a00890f540020
:10086000200032000804d100f5ff37000818780096
:1008700099ff0700d4ff370011017800920178003a
:1008800064805100890f5000030031001200900075
:1008900080087800070037000900410080087800d0
:1008a0009201900013009800110078001288140043
:1008b00009097800910078000100e000050032008d
:1008c000110090000000e000020032000180e8000a
:1008d000010037000000eb00500d89000280e800a5
:1008e000010037000000eb004f04be0000000600ce
:1008f00080017800000178003140780000597800cc
:100900000004e000fcff3a0003007800000006004d
:100910008001eb0002003700817178008301e8005c
:10092000828f5100fcff3a000000060000037800af
:10093000800178000002eb00010037008059780048
:1009400084025100820f52000900320064c0780016
:100950000402e8000004e000f8ff3a008300780099
:100960008058eb0005804100808f5000fcff3a006a
:1009700006007800000006008000780001003700c3
:100980000000e8001004e000fdff3a000100500004
:1009900000000600040037000204e00001003a00f5
:1009a000000005000000e80010417800814f510070
:1009b000f9ff3a0000000600800078001106b1003f
:1009c000030035009101b10001003c000050a1007e
:1009d00000000600800078001104b100030035001b
:1009e0009101b10001003c000050a0000000060091
:1009f0000000e0000300340004000700e10f4000a5
:100a000001003a000000eb0000000600889fbe00d5
:100a1000800478000208e20004003a000000eb00c5
:100a2000100007000000e0000a00350010408000c0
:100a30000900e00002003a000004780006003700d8
:100a40000004780009004000060007000000e000f4
:100a500001003d000084eb00080078004f04be0058
:100a600000000600800078000000e00004003a006a
:100a7000601d220010408800010178000600370048
:100a80000081eb00e0d82200808f500002003e0081
:100a9000114088000001eb00020078000000060011
:100aa000889fbe008a9fbe00010578000100e0001b
:100ab0000400350008003c000000e0002000320087
:100ac0000500370060001000e080180002003b00c5
:100ad00001f02c001a0037000004be006011b800bd
:100ae0006b0920000982cf00020039000882cf0084
:100af0000441b000694252000e00320008003b0081
:100b000082817100610164008904d1000884d300ee
:100b10008b05e8000442e800f9ff3a0005003700c1
:100b20000804440089844c008b05e9000442e90074
:100b3000fbff3a00d70007000af0a70001f0a00071
:100b40004f05be004f04be0000000600889fbe0097
:100b50008a9fbe008c1f7800f4000700fb00330062
:100b600003866c006450e100240032006420e10040
:100b7000270032006150e100220032006120e100d4
:100b8000210032008b854200eb07b1000134b80030
:100b9000003ab8000804420089844a00013ab800cb
:100ba0000030b8008880400009014a00040033008a
:100bb0000000400081804800020149008b05e900e7
:100bc000c909dd008301700001003200130020001c
:100bd000c814de004814dd004709de001200b20030
:100be000c808de0008847000aa00070001f0a10018
:100bf0000cf0a70001f0a000dd0037006120e1004b
:100c0000df0032000801be000200be00f7ff37001f
:100c10006150e100fcff3a00d90037000081eb0091
:100c2000da0037000001be00410107000470a70090
:100c300003f0a1006509b100160032000d00350077
:100c40006828e10006003500f0ff2f00f1ff2700c3
:100c50000300e00013003b00010028000000050035
:100c600000004000818048008502e900fcff3a0056
:100c700008003700f88f420002003c008000eb00c3
:100c8000000005008100d1000080d3008502e8004b
:100c9000fcff3a000300e00002003b00600010008f
:100ca000e0801800000006000001eb00b7003700ec
:100cb0006022b800060220000000d0008180d2002f
:100cc0000482d2008582d2000000a00002025200fd
:100cd00083825a00030031000202420083824a00ec
:100ce0000000a1000603e900f3ff3a00000006003f
:100cf000020ab900001bb9000200b80081004200de
:100d00008100430000000600889fbe008a9fbe004d
:100d10008c1f7800850007008c00330003866c0070
:100d20006450e1002e0032006420e1003300320004
:100d30006150e1002f0032006120e10031003200fb
:100d400085855500eb07b00009002000080420004d
:100d5000050037000804440089844c000a00310073
:100d60000603430087834b000001530081815b0031
:100d7000f8ff33000203be000800a000080444008e
:100d800089844c00f6ff3900c639dd008301730009
:100d900001003200130020008904d1000884d30030
:100da0000998a300050032000800a7000300a00076
:100db0008904d1000884d3008b05e8008904d100a0
:100dc0000884d3000001eb000281d200310007004b
:100dd00001f0a1000cf0a70001f0a00064003700b2
:100de0006420e100660032000801be000200be007f
:100df000f7ff37006120e100610032006000b800b9
:100e0000f3ff37000000200001f82700f0ff370053
:100e1000a7ff07000400be0000000600811f780045
:100e20000100e00002003d0060001000e0801800ba
:100e30000300e00002003d0060011100e0811900a4
:100e4000f3ff07004f00e00002003b0060001000cd
:100e5000e080180000000600839f68000100e000a9
:100e600002003d0060001000e08018000300e00078
:100e700002003d0060011100e08119008cff0700b5
:100e80004f00e00002003b0060001000e08018000e
:100e90000000060081002000618055000b003d002d
:100ea0000b00200061fe2f000100e1001d00340056
:100eb00082817100610164008904d1000884d3003b
:100ec0000000e800faff3a007100200061006400b1
:100ed0000300700002006000090032006104440059
:100ee000e0844c000988a500050032008b05e8006d
:100ef0006808e10002003a008904d1000884d300a8
:100f0000f20f20000258e10005003d00c75ddd0042
:100f1000f907b2008980750008007800000006001b
:100f20000bf827008b007800000005000004be00cd
:100f30007f0007000003be000405be000200be00e3
:100f40007b000700844f7500000006000200be0011
:100f50006450e100050036006420e1000200360024
:100f60000968a30001003a000800be000160a0006b
:100f70004f0678004f05be004f04be00000006007b
:100f8000f0ff2f00f1ff2700f9ff3700889fbe0018
:100f90008a9fbe008c9fbe00820578000004be00c0
:100fa000630007000800be006420e100070039006c
:100fb00002003a00f1ff2700f0ff2f000160a000bf
:100fc0001202200002408800550037006120e10035
:100fd00003003a000b00a70001f82300500037007f
:100fe00001f0a100020021009364240065000700c5
:100ff0000800be0004003500b2fd2000930c240060
:10100000620007000004be000005eb000b00a60014
:101010004f0dde0001f0a1000004be0032982f0049
:1010200023ea2300c9fe07000001eb0003f02300c0
:101030000b00a70003f8230057000700f9fe070084
:101040000000a7000a00a20095fe07000b00e000c8
:10105000030032000200200003f023004d000700cf
:1010600001f0a2000006be0002002000930424004c
:10107000b6fe07000801be0047000700809fbe00c3
:101080000c00be0022a22a00d3a72300affe070057
:101090004f01be00400007000004be0001f0a100a7
:1010a0000200200003982300360007000800be005d
:1010b000190035000001be00a4fe07000006be00b6
:1010c000b2c52900e3622300a0fe070022222b0004
:1010d000f3942b00300007000c01be009bfe0700bc
:1010e000e273280083c023002b0007000c01be0020
:1010f00096fe070042aa2a00a3e22b002600070062
:101100000c01be0091fe07000801be008ffe070023
:101110000801be00200007000a00a70001f0a2009d
:101120004f06be004f05be004f04be000000060083
:10113000c70ade00f107b200f50fb2000800320066
:10114000e1cf4200020032000170a000240005003f
:10115000810f700001003200040805004400050002
:10116000810f700002003a00140005008502e900ba
:101170000000400081c04800fcff3b000170a0005f
:101180002400050014002000600037000400200047
:101190007900370003f0a200889fbe008a9fbe003e
:1011a0008c1f780061ff070068ff33006450e10086
:1011b0004f0032006420e1005200320003826c00d4
:1011c00007003b000905d0000306d000820f540041
:1011d0000c065d000200390002003200890178002f
:1011e000030678008582550004003d000003fd00e1
:1011f0008103fd008502ea008b854200840f7200a6
:1012000002003b0060001000e08018006011b80090
:101210000005eb007a28e1000a003900060078009a
:10122000c75ddd00f707b200878075002d0037002d
:10123000828171000a017800610560008180d1001f
:101240000080d3008502e900f9ff3b00060440005e
:101250008784480002003b0060041400e0841c0006
:101260000988a300070032008a8171008281710021
:10127000610164008904d1000884d3008b05e80073
:10128000170037000978a30013003a000b00e000b4
:10129000130034008b05e9000804440089844c00e5
:1012a0000a4474000978a3000d003a000b00e00026
:1012b000070034008b05e9000804440089844c00d1
:1012c00001003a000b0020000978a300f7ff32006c
:1012d0000001eb0002003700828171000a017800f2
:1012e000ecfe07000cf0a70001f0a00020ff370083
:1012f0006420e10002003a00838f6c0020ff33007d
:101300000801be000200be0019ff3700889fbe0022
:101310008a9fbe00841f780004ff07004f007800fa
:1013200011003300f0ff2f00838f6c0006003b009c
:10133000040565000a00a7000800370009f0a600b0
:101340001000200008003700820f5400838f5c00db
:10135000030039001000200001003e0000002000c2
:1013600009f0a7000000ea004f05be004f04be00d0
:101370000000e00000000600889fbe008a9fbe00bb
:101380008c1f78004f26dd00e8fe0700effe3300db
:101390006120e100430032006250e10041003e0064
:1013a0003e0039006420e1003c0032000582550017
:1013b0000f003b000402e80038003a00800f5300a1
:1013c000818f5b00350034000800be0003f0a100ef
:1013d00001f0a60003f0a0000cf0a7006eff0700cc
:1013e000e3fe37000603430087834b000c464600ac
:1013f0000005530081855b00020033000a03be0034
:101400000c00a0000402e900f6ff3b00850578000f
:101410000602430087824b0004003a006000b800d7
:1014200009f0a70001f0a000d1fe37000002520031
:1014300081825a000704e0000400330006034300e1
:1014400087834b008b05e900faff37000905780018
:101450000604be000203be006011b8008dfe070046
:10146000e00f5200e08f5a000700350002003c00f8
:101470000c08a300040032000601be0003f0a00027
:101480000cf0a70044ff07000a85680001f0a100e6
:101490000af0a70001f0a000b5fe37000800be006a
:1014a000b3fe3700100220000cf0a60000408800b8
:0414b000b3fe370050
:020000040000fa
:020000040005f5
:0457f800ae130000ec
:020000040000fa
:020000040005f5
:0457fc007f3e0000ec
:020000040000fa
:100008007ef501007ef501007ef501007ef5010018
:100018007ef501007ef501007ef501007ef5010008
:100028007ef501007ef501007ef501007ef50100f8
:100038007ef501007ef501007ef50100f8f401006f
:10004800ac6c01007ef501007ef501007ef5010033
:100058007ef501007ef501007ef501007ef50100c8
:100068007ef501007ef501007ef501007ef50100b8
:100078007ef501007ef501007ef501007ef50100a8
:100088007ef501007ef501007ef50100bc8b0100c4
:100098007ef501007ef501007ef501007ef5010088
:1000a8007ef501007ef501007ef501007ef5010078
:1000b8007ef501007ef501007ef501007ef5010068
:1000c8007ef501007ef501007ef501007ef5010058
:1000d8007ef501007ef501007ef501007ef5010048
:1000e8007ef501007ef501007ef501007ef5010038
:1000f8007ef501007ef501007ef501007ef5010028
:100108007ef501007ef501007ef501007ef5010017
:100118007ef501007ef501007ef501007ef5010007
:100128007ef501007ef501007ef501007ef50100f7
:100138007ef501007ef501007ef501007ef50100e7
:100148007ef501007ef501007ef501007ef50100d7
:100158007ef501007ef501007ef501007ef50100c7
:100168007ef501007ef501007ef501007ef50100b7
:100178007ef501007ef5010062c800007ef50100f1
:100188007ef501007ef501007ef501007ef5010097
:100198007ef501007ef501007ef501007ef5010087
:1001a8007ef501007ef501007ef501007ef5010077
:1001b8007ef501007ef501007ef501007ef5010067
:1001c8007ef501007ef501007ef501007ef5010057
:1001d8007ef501007ef501007ef501007ef5010047
:1001e8007ef501007ef501007ef501007ef5010037
:0801f8007ef501007ef5010017
:020000040000fa
:100208007ef501007ef501007ef501007ef5010016
:100218007ef501007ef501007ef501007ef5010006
:100228007ef501007ef501007ef501007ef50100f6
:100238007ef501007ef501007ef50100f8f401006d
:10024800ac6c01007ef501007ef501007ef5010031
:100258007ef501007ef501007ef501007ef50100c6
:100268007ef501007ef501007ef501007ef50100b6
:100278007ef501007ef501007ef501007ef50100a6
:100288007ef501007ef501007ef50100bc8b0100c2
:100298007ef501007ef501007ef501007ef5010086
:1002a8007ef501007ef501007ef501007ef5010076
:1002b8007ef501007ef501007ef501007ef5010066
:1002c8007ef501007ef501007ef501007ef5010056
:1002d8007ef501007ef501007ef501007ef5010046
:1002e8007ef501007ef501007ef501007ef5010036
:1002f8007ef501007ef501007ef501007ef5010026
:100308007ef501007ef501007ef501007ef5010015
:100318007ef501007ef501007ef501007ef5010005
:100328007ef501007ef501007ef501007ef50100f5
:100338007ef501007ef501007ef501007ef50100e5
:100348007ef501007ef501007ef501007ef50100d5
:100358007ef501007ef501007ef501007ef50100c5
:100368007ef501007ef501007ef501007ef50100b5
:100378007ef501007ef5010062c800007ef50100ef
:100388007ef501007ef501007ef501007ef5010095
:100398007ef501007ef501007ef501007ef5010085
:1003a8007ef501007ef501007ef501007ef5010075
:1003b8007ef501007ef501007ef501007ef5010065
:1003c8007ef501007ef501007ef501007ef5010055
:1003d8007ef501007ef501007ef501007ef5010045
:1003e8007ef501007ef501007ef501007ef5010035
:0803f8007ef501007ef5010015
:020000040000fa
:1014b40000000000200000006000000086370000eb
:1014c4000009000078000000000c0000e6000000a5
:1014d400001200005401000000140000f901000093
:1014e400001400009e020000001e000043030000e0
:1014f400001c00001f040000000b0000fb0400009f
:10150400000e000069050000000e0000d705000071
:10151400001300004506000000120000ea06000067
:10152400000a00008f070000000e0000fd07000005
:10153400000a00006b08000000140000d908000035
:10154400001400007e09000000140000230a0000bb
:1015540000140000c80a0000001400006d0b000015
:1015640000140000120c000000140000b70c00006e
:10157400001400005c0d000000140000010e0000c7
:1015840000140000a60e0000001400004b0f000021
:10159400000a0000f00f0000000e00005e100000c2
:1015a4000000000000000000000000000000000037
:1015b4000000000000000000000000000000000027
:1015c4000000000000000000000000000000000017
:1015d4000000000000000000000000000000000007
:1015e40000000000000000000000000000000000f7
:1015f40000000000000000000000000000000000e7
:1016040000000000000000000000000000000000d6
:1016140000000000000000000000000000000000c6
:1016240000000000000000000000000000000000b6
:1016340000000000000000000000000000000000a6
:101644000000000000000000000000000000000096
:101654000000000000000000000000000000000086
:101664000000000000000000000000000000000076
:101674000000000000000000000000000000000066
:101684000000000000000000000000000000000056
:101694000000000000000000000000000000000046
:1016a4000000000000000000000000000300000033
:1016b4000f0000000f0000000f0000000f000000ea
:1016c4000f0000000f0000000f0000000f000000da
:1016d4000e0000000e0000000e0000000e000000ce
:1016e4000e0000000e0000000e0000000e000000be
:1016f4000e0000000e0000000600000006000000be
:1017040006000000060000000400000000000000c5
:10171400000000000e0000000f0000001f00000089
:101724001f0000001e0000000e000000000000006a
:1017340000000000000000000000000000000000a5
:101744000000000000000000000000000000000095
:101754000000000000000000000000000000000085
:101764000000000000000000000000000000000075
:101774000000000000000000000000000000000065
:101784000000000000000000000000000000000055
:101794000000000000000000000000000000000045
:1017a400060e0000001e00001e0000001e1e0000a9
:1017b400000e00001e0000000e1e0000000e0000bf
:1017c4001e0000000e1e0000000e00001c000000a1
:1017d4000e0c0000000e00000c0000000e0c0000b7
:1017e400000e00000c0000000e0c0000000c0000b5
:1017f4000c000000000000000000000000000000d9
:1018040000000000000000000000000000000000d4
:1018140000000000000000000000000000000000c4
:1018240000000000000000000000000000000000b4
:1018340000000000000000000000000000000000a4
:101844000000000000000000000000000000000094
:101854000000000000000000000000000000000084
:101864000000000000000000000000000000000074
:101874000000000000000000000000000000000064
:101884000000000000000000000000000000000054
:101894000000000000000000000000000000000044
:1018a4000000000000000000000000000000000034
:1018b4000000000000000000000000000000000024
:1018c4000000000000000000000000000000000014
:1018d4000000000000000000000000000000000004
:1018e40000000000000000000000000000000000f4
:1018f40000000000000000000000000000000000e4
:10190400000000000000000000380000600000003b
:1019140030c0000000700000c000000061c0000082
:101924000061000080000000e18000000fff000063
:10193400f00f0000fff0000001c3000000010000f0
:10194400c7000000018700000001000086000000bd
:1019540003860000000300008e0000003fff00002b
:10196400c03f0000ffc00000070c0000000600009c
:101974001c00000006180000000e00001800000003
:101984000c380000000c000030000000183000008b
:101994000000000000000000000000000000000043
:1019a4000000000000000000000000000000000033
:1019b4000000000000000000000000000000000023
:1019c4000000000000000000000000000000000013
:1019d4000000000000000000000000000000000003
:1019e40000000000000000000000000000000000f3
:1019f40000000000000000000000000000000000e3
:101a040000000000000000000000000000000000d2
:101a140000000000000000000000000000000000c2
:101a240000000000000000000000000000000000b2
:101a340000000000000000000000000000000000a2
:101a44000060000000000000600000000060000072
:101a5400000000006000000001fe0000000700001c
:101a6400ff8000001e6f0000801c00006300000067
:101a7400386000000038000060000000386000009a
:101a8400003c0000600000003e600000001f0000f9
:101a9400e00000000ff8000000030000fe0000005a
:101aa40000ff0000000000007f80000000670000cd
:101ab4008000000063c0000000610000c00000005e
:101ac40061c0000020610000c030000061c000005f
:101ad4003061000080380000638000003e67000031
:101ae400001f0000fe00000007f8000000000000d6
:101af40060000000006000000000000060000000c2
:101b04000060000000000000000000000000000071
:101b140000000000000000000000000000000000c1
:101b240000000000000000000000000000000000b1
:101b340000000000000000000000000000000000a1
:101b44000000000000000000000000000000000091
:101b54000000000000000000000000000000000081
:101b64000000000000000000000000000000000071
:101b74000000000000000000000000000000000061
:101b84000000000000000000000000000000000051
:101b94000000000000000000000000000000000041
:101ba4000000000000000000000000000000000031
:101bb400000000000000000000000000000300001e
:101bc400c0010000800f0000e0030000c01c000002
:101bd40070070000001c0000700f000000380000b7
:101be400380e000000380000381c000000380000e7
:101bf4003838000000380000383800000038000091
:101c0400387000000038000038e00000001c0000bc
:101c140071e00000001c000071c00000000f000013
:101c2400e38f000000070000871f0000c0000000d1
:101c340007310000e00000000e700000e00000002a
:101c44001c600000f00000003ce000007000000098
:101c540038e000007000000070e000007000000038
:101c6400e0e0000070000000e0e00000700100000f
:101c7400c0e000006003000080700000e007000086
:101c840080780000c0070000003f0000800c0000c6
:101c9400000f000000000000000000000000000031
:101ca4000000000000000000000000000000000030
:101cb4000000000000000000000000000000000020
:101cc4000000000000000000000000000000000010
:101cd4000000000000000000000000000000000000
:101ce40000000000000000000000000000000000f0
:101cf40000000000000000000000000000000000e0
:101d040000000000000000000000000000000000cf
:101d140000000000000000000000000000000000bf
:101d240000000000000000000000000000000000af
:101d3400000000000000000000000000000000009f
:101d4400000000000000000000000000000000008f
:101d540000000000000000001f0000000000000060
:101d64007f80000000000000e3c0000000010000cc
:101d7400c1c000000001000081c000000003000099
:101d840081c000000003000081c0000000030000c7
:101d94008180000000030000838000000003000035
:101da4008700000000030000ce00000000010000d6
:101db400dc00000000010000f00000000001000051
:101dc400f07f0000f0030000f0ff0000e0070000d7
:101dd400783e0000400e0000381e0000001c000089
:101de4003c0e0000001c00001e0e00000038000025
:101df4000f0e0000003800000f0e00000038000035
:101e0400078c00000038000003dc000000380000ec
:101e140001f80000003c000000f80000001c000075
:101e2400007c0000001e000000fe0000000f000007
:101e340083df000000070000ff0f0000e001000046
:101e4400fc0700000000000000000000000000008b
:101e5400000000000000000000000000000000007e
:101e6400000000000000000000000000000000006e
:101e7400000000000000000000000000000000005e
:101e8400000000000000000000000000000000004e
:101e9400000000000000000000000000000000003e
:101ea400000000000000000000000000000000002e
:101eb400000000000000000000000000000000001e
:101ec400000000000000000000000000000000000e
:101ed4000000000000060000001e0000001e0000bc
:101ee400000e0000000e0000000e0000000e0000b6
:101ef400000e0000000e0000000e0000000e0000a6
:101f0400000e0000000e0000000c000000000000a5
:101f140000000000000000000000000000000000bd
:101f240000000000000000000000000000000000ad
:101f3400000000000000000000000000000000009d
:101f4400000000000000000000000000000000008d
:101f5400000000000000000000000000000000007d
:101f6400000000000000000000000000000000006d
:101f7400000000000000000000000000000000005d
:101f8400000000000000000000000000000000004d
:101f9400000000000000000000000000000000003d
:101fa40000000000000000001000000038000000e5
:101fb40060000000c0010000c003000080030000b6
:101fc400800700000007000000070000000e00006a
:101fd400000e0000000e0000000e0000000c0000c7
:101fe400001c0000001c0000001c0000001c00007d
:101ff400001c0000001c0000001c0000001c00006d
:10200400001c0000001c0000001c0000001c00005c
:10201400000e0000000e0000000e0000000e000084
:10202400000f00000007000000070000000300008c
:102034008003000080010000c0000000c000000018
:10204400e000000030000000180000000000000064
:10205400000000000000000000000000000000007c
:10206400000000000000000000000000000000006c
:10207400000000000000000000000000000000005c
:102084000020000000700000001c0000000c000094
:10209400000e00000007000000070000000300001d
:1020a4008003000080030000c0010000c0010000a4
:1020b400c0010000c0010000c0000000e0000000fa
:1020c400e0000000e0000000e0000000e00000008c
:1020d400e0000000e0000000e0000000e00000007c
:1020e400e0000000e0000000e0000000c00100008b
:1020f400c0010000c0010000c0010000c0030000d6
:102104008003000080030000800700000006000038
:10211400000e0000000c0000001800000030000059
:10212400006000000000000000000000000000004b
:10213400000000000000000000000000000000009b
:10214400000000000000000000000000000000008b
:10215400000000000000000000000000000000007b
:10216400000000000000000000000000000000006b
:1021740000000000000000006000000000e000001b
:1021840000000000e000000020e00000003000003b
:10219400618000003c670000c03e00004f800000ea
:1021a400075c000000010000f000000001f00000e6
:1021b40000070000dc0000001e4f0000807c0000cf
:1021c400678000003861000080000000e10000002a
:1021d40000e0000000000000e000000000c000007b
:1021e40000000000000000000000000000000000eb
:1021f40000000000000000000000000000000000db
:1022040000000000000000000000000000000000ca
:1022140000000000000000000000000000000000ba
:1022240000000000000000000000000000000000aa
:10223400000000000000000000000000000000009a
:10224400000000000000000000000000000000008a
:10225400000000000000000000000000000000007a
:10226400000000000000000000000000000000006a
:10227400000000000000000000000000000000005a
:10228400000000000000000000000000000000004a
:10229400000000000000000000000000000000003a
:1022a400000000000000000000000000000000002a
:1022b400000000000000000000000000000000001a
:1022c400000000000000000000000000000000000a
:1022d40000000000000000000000000000000000fa
:1022e40000000000000000000000000000000000ea
:1022f40000000000000000000000000000000000da
:1023040000000000000000000000000000000000c9
:102314000000000001c0000000010000c000000037
:1023240001c0000000010000c000000001c0000066
:1023340000010000c00000007fff0000007f0000db
:10234400ff00000001c0000000010000c000000008
:1023540001c0000000010000c000000001c0000036
:1023640000010000c0000000018000000000000027
:102374000000000000000000000000000000000059
:102384000000000000000000000000000000000049
:102394000000000000000000000000000000000039
:1023a4000000000000000000000000000000000029
:1023b4000000000000000000000000000000000019
:1023c4000000000000000000000000000000000009
:1023d40000000000000000000000000000000000f9
:1023e40000000000000000000000000000000000e9
:1023f40000000000000000000000000000000000d9
:1024040000000000000000000000000000000000c8
:1024140000000000000000000000000000000000b8
:1024240000000000000000000000000000000000a8
:102434000000000000000000000000000000000098
:102444000000000000000000000000000000000088
:102454000000000000000000000000000000000078
:1024640000000000000e0000003f0000003f0000dc
:10247400000700000007000000070000000600003d
:1024840000060000000c000000180000001000000e
:102494000000000000000000000000000000000038
:1024a4000000000000000000000000000000000028
:1024b4000000000000000000000000000000000018
:1024c4000000000000000000000000000000000008
:1024d40000000000000000000000000000000000f8
:1024e40000000000000000000000000000000000e8
:1024f40000000000000000000000000000000000d8
:1025040000000000000000000000000000000000c7
:1025140000000000000000000000000000000000b7
:1025240000000000003f0000f87f0000f8000000f9
:102534000000000000000000000000000000000097
:102544000000000000000000000000000000000087
:102554000000000000000000000000000000000077
:102564000000000000000000000000000000000067
:102574000000000000000000000000000000000057
:102584000000000000000000000000000000000047
:102594000000000000000000000000000000000037
:1025a4000000000000000000000000000000000027
:1025b4000000000000000000000000000000000017
:1025c4000000000000000000000000000000000007
:1025d40000000000000000000000000000000000f7
:1025e40000000000000000000000000000000000e7
:1025f40000000000000000000000000000000000d7
:1026040000000000000000000000000000000000c6
:10261400000000000000000000000000000e0000a8
:10262400000f0000001f0000001f0000001e00003b
:10263400000e000000000000000000000000000088
:102644000000000000000000000000000000000086
:102654000000000000000000000000000000000076
:102664000000000000000000000000000000000066
:102674000000000000000000000000000000000056
:102684000000000000000000000000000000000046
:1026940000000000000000000000000060000000d6
:1026a40000e0000000010000c000000001c00000c4
:1026b40000030000c00000000380000000030000cd
:1026c4008000000007000000000700000000000078
:1026d40007000000000e0000000000000e000000d3
:1026e400001e0000000000001c000000001c000090
:1026f400000000003c000000003800000000000062
:1027040038000000007000000000000070000000ad
:1027140000f0000000000000e000000000e0000005
:1027240000010000e000000001c000000001000002
:10273400c0000000038000000003000080000000cf
:1027440007800000000700000000000007000000f0
:10275400000f0000000000000e000000000e00004a
:10276400000000001c000000001c0000000000002d
:102774001c000000003800000000000038000000c9
:10278400007800000000000060000000000000006d
:102794000000000000000000000000000000000035
:1027a4000000000000000000000000000000000025
:1027b4000000000000000000000000000000000015
:1027c4000000000000000000000000000000000005
:1027d40000000000000000000000000000000000f5
:1027e40000000000000000000000000000000000e5
:1027f40000000000000000000000000000000000d5
:1028040000000000000000000000000000000000c4
:1028140000000000f800000003fc000000070000b6
:102824001e000000060f0000000c0000070000005e
:102834001c030000801c000003800000180300003b
:102844008038000001c0000038010000c0380000da
:1028540001c0000038010000c038000001c00000c1
:1028640038010000c038000001c000003801000039
:10287400c038000001c0000038010000c01c000086
:10288400018000001c030000801c00000380000085
:102894000e030000000f000006000000078e000079
:1028a40000030000fc00000001f000000000000034
:1028b4000000000000000000000000000000000014
:1028c4000000000000000000000000000000000004
:1028d40000000000000000000000000000000000f4
:1028e40000000000000000000000000000000000e4
:1028f40000000000000000000000000000000000d4
:1029040000000000000000000000000000000000c3
:1029140000000000000000000000000000000000b3
:1029240000000000000000000000000000000000a3
:102934000000000000000000000000000000000093
:102944000000000000000000000000000000000083
:102954000000000000000000000000000030000043
:1029640000000000f000000003f00000001f000061
:10297400f000000010700000000000007000000073
:1029840000700000000000007000000000700000f3
:102994000000000070000000007000000000000053
:1029a40070000000007000000000000070000000d3
:1029b40000700000000000007000000000700000c3
:1029c4000000000070000000007000000000000023
:1029d40070000000007000000000000070000000a3
:1029e40000700000000000007000000003fe000002
:1029f400001f0000ff800000000000000000000035
:102a040000000000000000000000000000000000c2
:102a140000000000000000000000000000000000b2
:102a240000000000000000000000000000000000a2
:102a34000000000000000000000000000000000092
:102a44000000000000000000000000000000000082
:102a54000000000000000000000000000000000072
:102a64000000000000000000000000000000000062
:102a74000000000000000000000000000000000052
:102a84000000000000000000000000000000000042
:102a94000000000000000000000000000000000032
:102aa4000000000000000000fc00000003fe000025
:102ab400000700000f0000000e070000801c00004b
:102ac400038000001c030000801c00000380000041
:102ad40000030000800000000380000000070000e5
:102ae4000000000007000000000e000000000000cd
:102af4000c000000001c0000000000003800000072
:102b040000700000000000006000000000e0000011
:102b140000010000c0000000038000000007000066
:102b24000080000006000000800e0000008000000d
:102b34001c010000803f0000ff8000003fff0000f8
:102b44008000000000000000000000000000000001
:102b54000000000000000000000000000000000071
:102b64000000000000000000000000000000000061
:102b74000000000000000000000000000000000051
:102b84000000000000000000000000000000000041
:102b94000000000000000000000000000000000031
:102ba4000000000000000000000000000000000021
:102bb4000000000000000000000000000000000011
:102bc4000000000000000000000000000000000001
:102bd40000000000000000000000000000000000f1
:102be40000000000000000000000000000000000e1
:102bf40000f8000000070000fc0000000e1e0000aa
:102c0400001c00000f0000001c070000003c000036
:102c1400070000000007000000000000070000009b
:102c2400000e0000000000001c000000003800003e
:102c340000010000f800000001fe00000000000098
:102c44000f000000000700000000000003800000e7
:102c54000003000080000000038000000003000067
:102c640080000000038000000003000080000000da
:102c740007000000200f0000007800001e00000084
:102c84001ffc000000070000f0000000000000002e
:102c94000000000000000000000000000000000030
:102ca4000000000000000000000000000000000020
:102cb4000000000000000000000000000000000010
:102cc4000000000000000000000000000000000000
:102cd40000000000000000000000000000000000f0
:102ce40000000000000000000000000000000000e0
:102cf40000000000000000000000000000000000d0
:102d040000000000000000000000000000000000bf
:102d140000000000000000000000000000000000af
:102d2400000000000000000000000000000000009f
:102d34000000000000000000000000000600000089
:102d4400001e0000000000001e000000003e000005
:102d5400000000007e000000006e00000000000083
:102d6400ee00000001ce0000000100008e00000013
:102d7400038e0000000700000e000000060e000095
:102d8400000e00000e0000001c0e000000180000e1
:102d94000e000000380e0000007f0000ffc000009d
:102da4007fff0000800000000e000000000e000005
:102db400000000000e000000000e000000000000f3
:102dc4000e000000000e0000000000003f000000a4
:102dd40000ff0000c0000000000000000000000030
:102de40000000000000000000000000000000000df
:102df40000000000000000000000000000000000cf
:102e040000000000000000000000000000000000be
:102e140000000000000000000000000000000000ae
:102e2400000000000000000000000000000000009e
:102e3400000000000000000000000000000000008e
:102e4400000000000000000000000000000000007e
:102e5400000000000000000000000000000000006e
:102e6400000000000000000000000000000000005e
:102e7400000000000000000000000000000000004e
:102e84000000000000010000000f0000ff0000002f
:102e94000ffe0000000c0000000000000c00000009
:102ea400000c0000000000000c000000000c0000fa
:102eb400000000001c000000001c000000000000d6
:102ec4001ff80000001f0000fc0000001c1e000092
:102ed400001000000f000000000700008000000048
:102ee4000380000000030000800000000380000055
:102ef40000030000800000000380000000030000c5
:102f04008000000007000000300f0000007c00007b
:102f14001e0000001ffc000000030000f000000081
:102f2400000000000000000000000000000000009d
:102f3400000000000000000000000000000000008d
:102f4400000000000000000000000000000000007d
:102f5400000000000000000000000000000000006d
:102f6400000000000000000000000000000000005d
:102f7400000000000000000000000000000000004d
:102f8400000000000000000000000000000000003d
:102f9400000000000000000000000000000000002d
:102fa400000000000000000000000000000000001d
:102fb400000000000000000000000000000000000d
:102fc40000000000000000000000000000000000fd
:102fd40007000000003e000000000000f0000000b8
:102fe40001e0000000030000800000000700000072
:102ff400000e0000000000000e000000001c000095
:10300400000000001c00000000180000fc0000008c
:103014003bff0000003f00000f8000003c03000065
:103024008038000003c0000038010000c0380000f0
:1030340001c0000038010000c038000001c00000d9
:103044003c010000c01c0000018000001c030000c3
:10305400800e00000300000007870000000300004a
:10306400fe00000000f80000000000000000000066
:10307400000000000000000000000000000000004c
:10308400000000000000000000000000000000003c
:10309400000000000000000000000000000000002c
:1030a400000000000000000000000000000000001c
:1030b400000000000000000000000000000000000c
:1030c40000000000000000000000000000000000fc
:1030d40000000000000000000000000000000000ec
:1030e40000000000000000000000000000000000dc
:1030f40000000000000000000000000000000000cc
:1031040000000000000000000000000000000000bb
:10311400000000000000000000000000001f00008c
:10312400ffc000001fff0000e010000001c000000d
:103134003001000080200000038000000003000034
:10314400000000000700000000070000000000006d
:1031540006000000000e0000000000000c0000004b
:10316400001c0000000000001800000000380000ef
:1031740000000000380000000070000000000000a3
:103184007000000000e0000000000000e00000000b
:1031940001e0000000010000c000000003c00000c6
:1031a400000300008000000007800000000600000b
:1031b400000000000000000000000000000000000b
:1031c40000000000000000000000000000000000fb
:1031d40000000000000000000000000000000000eb
:1031e40000000000000000000000000000000000db
:1031f40000000000000000000000000000000000cb
:1032040000000000000000000000000000000000ba
:1032140000000000000000000000000000000000aa
:10322400000000000000000000000000000000009a
:10323400000000000000000000000000000000008a
:10324400000000000000000000000000000000007a
:10325400000000000000000000000000000000006a
:1032640000010000f800000007fe0000000e00004e
:103274000f0000001c0700008038000003800000dd
:103284003803000080380000038000003803000089
:10329400803c0000070000001f0e0000000f00002b
:1032a400dc00000003f8000000010000fe00000044
:1032b400071f0000000e0000078000001c03000030
:1032c4008018000003c0000038010000c03800006e
:1032d40001c0000038010000c038000001c0000037
:1032e4003c030000801c0000038000001f07000056
:1032f400000f0000fc00000003f0000000000000cc
:1033040000000000000000000000000000000000b9
:1033140000000000000000000000000000000000a9
:103324000000000000000000000000000000000099
:103334000000000000000000000000000000000089
:103344000000000000000000000000000000000079
:103354000000000000000000000000000000000069
:103364000000000000000000000000000000000059
:103374000000000000000000000000000000000049
:103384000000000000000000000000000000000039
:103394000000000000000000000000000000000029
:1033a40000000000000000000000000000f8000021
:1033b40000030000fe000000070f0000000c0000e6
:1033c400070000001c0700008018000003800000b4
:1033d40038030000c038000001c0000038010000bc
:1033e400c038000001c0000038010000c0380000ef
:1033f40001c000001c010000c01e000003c000004a
:103404000f0f0000c0070000fdc0000003f1000022
:103414008000000003800000000300008000000022
:103424000700000000070000000000000e0000007c
:10343400001c0000000000007800000000f0000004
:1034440000070000c00000000e00000000000000a3
:103454000000000000000000000000000000000068
:103464000000000000000000000000000000000058
:103474000000000000000000000000000000000048
:103484000000000000000000000000000000000038
:103494000000000000000000000000000000000028
:1034a4000000000000000000000000000000000018
:1034b4000000000000000000000000000000000008
:1034c40000000000000000000000000000000000f8
:1034d40000000000000000000000000000000000e8
:1034e4000000000000000000000000000e000000ca
:1034f4000f0000001f0000001f0000001e0000005d
:103504000e000000000000000000000000000000a9
:1035140000000000000000000000000000000000a7
:1035240000000000000000000e0000000f0000007a
:103534001f0000001f0000001e0000000e0000001d
:103544000000000000000000000000000000000077
:103554000000000000000000000000000000000067
:103564000000000000000000000000000000000057
:103574000000000000000000000000000000000047
:103584000000000000000000000000000000000037
:1035940000000000000000000000000078000000af
:1035a400780000003c0000001c0000000e00000039
:1035b40007000000030000000180000000800000fc
:1035c40000000000000000000000000000000000f7
:1035d40000000000000000000000000000000000e7
:1035e40000000000000000000000000000000000d7
:1035f40000000000000000000000000000000000c7
:1036040000000000000000000000000000000000b6
:1036140000000000000000000000000000000000a6
:103624000000000000000000000000000000000096
:103634000000000000000000000000000000000086
:103644000000000000000000000000005a8a000092
:1036540000000000200000007f00000000130000b4
:103664000004000088010000000400009b01000029
:1036740000070000ae01000000080000c1010000c6
:1036840000080000d4010000000b0000e701000066
:10369400000b00000d0200000004000033020000d3
:1036a4000005000046020000000500005902000069
:1036b400000700006c020000000700007f02000009
:1036c400000400009202000000050000a5020000b2
:1036d40000040000b802000000080000cb02000053
:1036e40000080000de02000000080000f1020000f3
:1036f4000007000004030000000800001703000096
:10370400000800002a030000000800003d03000038
:1037140000080000500300000008000063030000dc
:103724000007000076030000000800008903000081
:10373400000400009c03000000040000af0300002c
:1037440000070000c203000000070000d5030000ca
:1037540000070000e803000000070000fb0300006e
:10376400000d00000e040000000a000034040000f4
:10377400000900005a040000000900008004000051
:1037840000090000a604000000080000cc040000aa
:1037940000080000df04000000090000f20400003b
:1037a400000a000018050000000500003e050000a6
:1037b4000005000051050000000900006405000038
:1037c400000800008a050000000d00009d050000af
:1037d400000a0000c3050000000a0000e90500001b
:1037e400000800000f060000000a00002206000086
:1037f4000009000048060000000800006e060000f2
:103804000009000081060000000a0000a70600006d
:10381400000a0000cd060000000e0000f3060000c0
:10382400000a000019070000000a00003f0700001a
:10383400000800006507000000050000780700008c
:10384400000800008b070000000500009e07000030
:1038540000080000b107000000080000c4070000d1
:1038640000050000d707000000070000ea07000079
:1038740000080000fd070000000700001008000019
:1038840000080000230800000007000036080000bc
:103894000005000049080000000700005c08000063
:1038a400000900006f0800000004000095080000f3
:1038b40000040000a808000000080000bb08000085
:1038c40000040000ce080000000c0000e108000025
:1038d4000009000007090000000800002d0900008d
:1038e400000800004009000000080000530900001f
:1038f40000060000660900000006000079090000c7
:10390400000600008c090000000800009f09000068
:1039140000080000b2090000000b0000c509000007
:1039240000080000eb09000000080000fe09000088
:1039340000070000110a000000040000240a00002f
:1039440000040000370a0000000400004a0a0000d6
:10395400000800005d0a000000040000700a000076
:103964000000000000000000000000000000000053
:103974000000000000000000000000000000000043
:103984000000000000000000002000006060000053
:103994002020000020200000202000000020000043
:1039a40020000000000000000000000000000000f3
:1039b4006c680000686800004848000000000000cf
:1039c40000000000000000000000000000000000f3
:1039d4000000000000000000000a000012140000b3
:1039e4003f2400007e28000048480000000000003a
:1039f40000000000000000000000000000100000b3
:103a04003c54000050700000381c000012520000aa
:103a1400523c000010000000000000000000000004
:103a24000000000000000000000000000030000062
:103a3400c049000080490000004a00000054000012
:103a440000350000800a00004012000040320000ef
:103a54004021000080000000000000000000000081
:103a64000000000000000000000000000000000052
:103a740000000000001c00000022000000220000e2
:103a840000220000002c000000390000e048000083
:103a9400804400008046000080430000003c000099
:103aa400e000000000000000000000000000000032
:103ab40000000000000000000060000060600000e2
:103ac4006040000040000000000000000000000012
:103ad40000000000000000000000000000100000d2
:103ae4002020000040400000404000004040000012
:103af40040400000402000002010000000000000b2
:103b04000000000040200000201000001010000001
:103b14001010000010100000101000002020000001
:103b240040000000000000000000000010540000ed
:103b34003a380000541000000000000000000000ab
:103b44000000000000000000000000000000000071
:103b54000000000000000000000000001010000041
:103b64007c100000100000000000000000000000b5
:103b74000000000000000000000000000000000041
:103b840000000000000000000000000060200000b1
:103b940020400000000000000000000000000000c1
:103ba400000000000000000000000000f800000019
:103bb4000000000000000000000000000000000001
:103bc40000000000000000000000000000000000f1
:103bd4000000000000000000404000000000000061
:103be40000000000000000000206000004040000c1
:103bf4000c0800000818000010100000202000002d
:103c04002040000040c00000000000000000000050
:103c1400000000001c240000424200004242000058
:103c240042420000241800000000000000000000d0
:103c34000000000000000000000800003808000038
:103c44000808000008080000080800003e00000002
:103c54000000000000000000000000000000000060
:103c64001c24000044040000081000001020000080
:103c7400447c000000000000000000000000000080
:103c840000000000001c000024440000081800008c
:103c940004020000024200003c000000000000009a
:103ca400000000000000000000000000040c000000
:103cb40014140000244400007e040000041e0000cc
:103cc40000000000000000000000000000000000f0
:103cd400000400003c400000407800004404000060
:103ce4000444000038000000000000000000000050
:103cf40000000000000000000c1000002040000044
:103d04007c42000042420000241c0000000000002d
:103d1400000000000000000000000000000000009f
:103d24007e44000004080000080800001010000091
:103d3400200000000000000000000000000000005f
:103d4400000000003844000044480000384c0000e3
:103d5400444400004438000000000000000000005b
:103d64000000000000000000001c0000664200008b
:103d740042420000623e00000408000030000000df
:103d8400000000000000000000000000000000002f
:103d9400000000004040000000000000000000009f
:103da400404000000000000000000000000000008f
:103db400000000000000000000400000400000007f
:103dc400000000000060000020200000400000000f
:103dd40000000000000000000000000000000000df
:103de4000006000038400000b80600000000000093
:103df40000000000000000000000000000000000bf
:103e04000000000000000000007e000080fe0000b2
:103e1400000000000000000000000000000000009e
:103e240000000000000000000000000000c00000ce
:103e34003806000038c00000000000000000000048
:103e440000000000000000000038000044440000ae
:103e5400040400000810000010100000001000000e
:103e6400100000000000000000000000000000003e
:103e740000000000000000000000000007800000b7
:103e84001860000020200000439000004c900000c7
:103e940048900000489000004890000048a00000ae
:103ea40027c0000020000000186000000f80000000
:103eb40000000000000000000000000000000000fe
:103ec4000000000000000000080000000c000000da
:103ed400140000001400000016000000220000007e
:103ee4003e0000002300000041000000e3800000c9
:103ef40000000000000000000000000000000000be
:103f040000000000000000000000000000000000ad
:103f1400000000007c0000002200000022000000dd
:103f2400220000003e0000002300000021000000e9
:103f340021000000210000007e00000000000000bd
:103f4400000000000000000000000000000000006d
:103f5400000000000000000000000000000000005d
:103f64001e0000002300000040000000400000008c
:103f7400400000004000000040000000400000003d
:103f8400210000001e0000000000000000000000ee
:103f9400000000000000000000000000000000001d
:103fa4000000000000000000000000007c00000091
:103fb4002200000021000000210000002100000078
:103fc4002100000021000000210000002200000068
:103fd4007c00000000000000000000000000000061
:103fe40000000000000000000000000000000000cd
:103ff4007e220000202000003c2000002020000041
:10400400217e00000000000000000000000000000d
:1040140000000000007e000022200000203c000080
:10402400202000002020000070000000000000009c
:10403400000000000000000000000000000000007c
:10404400000000000f0000003200000040000000eb
:1040540040000000400000004780000041000000d4
:1040640041000000210000001e00000000000000cc
:10407400000000000000000000000000000000003c
:10408400000000000000000000000000000000002c
:1040940073800000210000002100000021000000c6
:1040a4003f0000002100000021000000210000006a
:1040b40021000000738000000000000000000000e8
:1040c40000000000000000000000000000000000ec
:1040d40000000000702000002020000020200000cc
:1040e40020200000207000000000000000000000fc
:1040f400000000000000000000f00000202000008c
:1041040020200000202000002020000020200000ab
:1041140040800000000000000000000000000000db
:104124000000000000000000778000002200000072
:1041340024000000280000003000000038000000c7
:104144002c00000024000000220000007180000008
:10415400000000000000000000000000000000005b
:1041640000000000000000000000000070200000bb
:10417400202000002020000020200000217e0000dc
:10418400000000000000000000000000000000002b
:10419400000000000000000000600000703000001b
:1041a4006030000060380000a0280000a029000052
:1041b40020250000204600002046000020f20000d8
:1041c400700000000000000000000000000000007b
:1041d40000000000000000000000000000000000db
:1041e4000000000000630000803100000031000086
:1041f400002900000029000000250000002500001f
:1042040000230000002300000071000000000000f3
:10421400000000000000000000000000000000009a
:10422400000000000000000000000000000000008a
:10423400001e00000021000000400000804000003b
:104244008040000080400000804000008041000069
:1042540000210000001e000000000000000000001b
:10426400000000000000000000000000000000004a
:1042740000000000007c0000222200002222000036
:104284003c2000002020000070000000000000001e
:10429400000000000000000000000000000000001a
:1042a400000000001e00000021000000408000000b
:1042b40040800000408000004080000040800000fa
:1042c40041000000210000001e0000000340000027
:1042d40001c0000000000000000000000000000019
:1042e40000000000000000000000000000000000ca
:1042f4007c000000220000002200000022000000d8
:104304003c000000280000002400000024000000fd
:104314002200000073800000000000000000000084
:104324000000000000000000000000000000000089
:10433400000000003c46000040600000380400001b
:1043440002420000427c0000000000000000000067
:104354000000000000000000000000000000000059
:10436400007f0000808900000008000000080000b1
:104374000008000000080000000800000008000019
:1043840000080000001c0000000000000000000005
:104394000000000000000000000000000000000019
:1043a4000000000000000000000000000073000096
:1043b40080210000002100000021000000210000f5
:1043c4000021000000210000002100000032000054
:1043d400001e0000000000000000000000000000bb
:1043e40000000000000000000000000000000000c9
:1043f400000000000000000000f10000c0200000e8
:1044040080210000003100000011000000120000b3
:10441400001a0000000a0000000c00000004000064
:104424000000000000000000000000000000000088
:104434000000000000000000000000000000000078
:104444000000000000f20000384200001063000089
:104454001025000010250000a0240000a038000052
:10446400a0180000e0180000401000004000000008
:104474000000000000000000000000000000000038
:104484000000000000000000000000000000000028
:1044940000f300008061000000320000001c0000f6
:1044a400000c0000000c00000016000000230000b7
:1044b4000021000000f30000c00000000000000024
:1044c40000000000000000000000000000000000e8
:1044d40000000000000000000000000000c3000015
:1044e400802200000032000000140000001c0000c4
:1044f4000008000000080000000800000008000098
:10450400001c00000000000000000000000000008b
:104514000000000000000000000000000000000097
:10452400007f0000428400000c08000010300000ee
:1045340021410000ff000000000000000000000016
:104544000070000040400000404000004040000077
:104554004040000040400000404000004040000057
:104564007000000000000000c04000004020000077
:10457400202000001010000010080000080c0000ab
:1045840004040000020200000000000000700000ab
:104594001010000010100000101000001010000097
:1045a4001010000010100000101000007000000037
:1045b4000000000000080000181800002c2400006f
:1045c400444600004200000000000000000000001b
:1045d40000000000000000000000000000000000d7
:1045e40000000000000000000000000000000000c7
:1045f4000000000000fe00000000000000000000b9
:1046040000000000c02000002000000000000000a6
:104614000000000000000000000000000000000096
:104624000000000000000000000000000000000086
:10463400001c0000640400003c4400004c760000b0
:1046440000000000000000000000000000c00000a6
:1046540040400000404000005c6200004242000014
:104664004244000038000000000000000000000088
:10467400000000000000000000000000001c00001a
:104684006440000040400000663800000000000064
:10469400000000000000000000060000020200000c
:1046a400020200001e620000424200004266000056
:1046b4003b000000000000000000000000000000bb
:1046c4000000000000000000003c0000427e0000ea
:1046d40040400000623c00000000000000000000b8
:1046e400000000000008000010200000202000004e
:1046f4007820000020200000202000007800000026
:1047040000000000000000000000000000000000a5
:1047140000000000007e000084840000c4780000d3
:1047240040780000868200008678000000000000c7
:1047340000000000006000000020000000200000d5
:1047440000200000002000000027000000390000c5
:1047540000210000002100000021000000210000d1
:104764000073000080000000000000000000000052
:104774000000000000000000000000000000000035
:104784002020000000000000602000002020000025
:104794002020000070000000000000000000000065
:1047a4000000000000200000200000000060000065
:1047b40020200000202000002020000020200000f5
:1047c4004080000000000000006000002020000085
:1047d4002020000027240000382800002c26000098
:1047e4007300000000000000000000000000000052
:1047f4006020000020200000202000002020000075
:1048040020200000207000000000000000000000d4
:104814000000000000000000000000000000000094
:10482400000000000000000000000000006e000016
:10483400e03300002022000020220000202200009b
:10484400202200002077000070000000000000001b
:104854000000000000000000000000000000000054
:104864000000000000000000000000000000000044
:104874000000000000000000002700000079000094
:1048840000210000002100000021000000210000a0
:104894000073000080000000000000000000000021
:1048a4000000000000000000000000000000000004
:1048b40000000000000000001c66000042420000ee
:1048c4004264000038000000000000000000000006
:1048d400000000000000000000000000006c000068
:1048e4003222000022220000243c0000202000008c
:1048f4002070000000000000000000000000000024
:10490400000000001e220000424200004266000037
:104914003a0200000202000007000000000000004c
:104924000000000000000000006c000034200000c3
:1049340020200000207000000000000000000000a3
:104944000000000000000000000000000000000063
:10495400304800004030000048480000700000006b
:104964000000000000000000000000000000000043
:104974004040000040f8000040400000404000007b
:10498400407800000000000000000000000000006b
:10499400000000000000000000000000c64200000b
:1049a40042420000424600003b00000000000000bc
:1049b40000000000000000000000000000000000f3
:1049c40000e700006224000024180000181800000a
:1049d40000000000000000000000000000000000d3
:1049e40000000000000000000000000000000000c3
:1049f4000000000000e400006046000040260000c3
:104a0400402a00004029000080310000801100008d
:104a14008000000000000000000000000000000012
:104a24000000000000000000000000000000000082
:104a340000000000f7240000181800002c460000b5
:104a4400e70000000000000000000000000000007b
:104a5400000000000000000000e7000062240000e5
:104a640024340000181800001010000020c00000ba
:104a74000000000000000000000000000000000032
:104a84007c44000008100000204400007c0000006a
:104a940000000000000000000010000020200000c2
:104aa4002020000020200000c02000002020000062
:104ab4002020000020100000000000000000000082
:104ac40040400000404000004040000040400000e2
:104ad40040400000404000004040000040400000d2
:104ae4000000000000800000404000004040000042
:104af40040400000304000004040000040400000c2
:104b040040800000000000000000000000000000e1
:104b1400000000000000000000320000cc00000093
:104b24000000000000000000000000000000000081
:104b34000000000000000000704000004040000041
:104b44004040000040400000404000007000000071
:104b54000000000000000000000000002a9b00008c
:104b640000000000200000007f0000000010000092
:104b74000003000088010000000400009801000008
:104b840000060000a801000000060000b8010000b3
:104b940000070000c8010000000a0000d80100005e
:104ba40000090000f80100000003000018020000e2
:104bb4000004000028020000000400003802000085
:104bc4000006000048020000000500005802000032
:104bd40000030000680200000004000078020000e6
:104be4000003000088020000000600009802000094
:104bf40000060000a802000000060000b802000041
:104c040000060000c802000000060000d8020000f0
:104c140000060000e802000000060000f8020000a0
:104c2400000600000803000000060000180300004e
:104c340000060000280300000006000038030000fe
:104c440000030000480300000003000058030000b4
:104c5400000600006803000000060000780300005e
:104c6400000600008803000000060000980300000e
:104c7400000b0000a803000000080000c8030000a7
:104c840000080000d803000000070000e80300004b
:104c940000080000f80300000006000008040000fb
:104ca40000060000180400000008000028040000aa
:104cb400000900003804000000040000580400004b
:104cc40000040000680400000008000078040000ec
:104cd4000006000088040000000a00009804000098
:104ce40000080000b804000000080000c804000028
:104cf40000070000d804000000080000e8040000d9
:104d040000070000f8040000000600000805000089
:104d14000007000018050000000900002805000035
:104d24000008000048050000000b000058050000c2
:104d34000008000078050000000800008805000055
:104d4400000700009805000000040000a80500000a
:104d540000060000b805000000040000c8050000bb
:104d640000060000d805000000060000e805000069
:104d740000040000f805000000060000080600001a
:104d840000070000180600000006000028060000c6
:104d94000007000038060000000600004806000076
:104da4000004000058060000000600006806000029
:104db40000070000780600000004000088060000d8
:104dc400000300009806000000070000a806000089
:104dd40000040000b8060000000b0000c806000034
:104de40000070000e806000000070000f8060000c5
:104df4000007000008070000000700001807000073
:104e04000005000028070000000500003807000026
:104e140000040000480700000007000058070000d5
:104e24000006000068070000000900007807000081
:104e3400000700009807000000060000a807000013
:104e440000060000b807000000040000c8070000c6
:104e540000030000d807000000050000e807000078
:104e640000060000f8070000000300000808000026
:104e7400000000000000000000000000000000002e
:104e8400000000000000000000000000000000001e
:104e940000000000004000004040000040400000ce
:104ea400400000004040000000000000000000003e
:104eb40000000000005800005050000050000000a6
:104ec40000000000000000000000000000000000de
:104ed4000000000000000000142800007c280000ee
:104ee4007c500000500000000000000000000000a2
:104ef40000000000001000003c5800005038000082
:104f040014140000543800001000000000000000d9
:104f1400000000000000000000000000000000008d
:104f2400610000009200000094000000980000005e
:104f34006b00000014800000248000004300000087
:104f4400000000000000000000000000000000005d
:104f54000000000000000000000000001c00000031
:104f64002400000024000000280000003780000016
:104f74004a0000004a000000440000003b0000001a
:104f8400000000000000000000000000000000001d
:104f9400000000000040000040400000400000000d
:104fa40000000000000000000000000000000000fd
:104fb40000000000102000004040000040400000bd
:104fc40040400000404000002010000000000000ad
:104fd400000000008040000020200000202000008d
:104fe400202000002040000040800000000000005d
:104ff400000000002068000030e8000020000000ed
:10500400000000000000000000000000000000009c
:10501400000000000000000000000000202000004c
:10502400f820000020000000000000000000000044
:10503400000000000000000000000000000000006c
:105044000000000000c000004080000000000000dc
:10505400000000000000000000000000000000004c
:10506400f00000000000000000000000000000004c
:10507400000000000000000000000000000000002c
:10508400000000004040000000000000000000009c
:1050940000000000040800000810000010100000c8
:1050a400202000002040000040800000000000009c
:1050b40000000000000000007098000088880000d4
:1050c40088880000907000000000000000000000cc
:1050d400000000000000000010700000101000002c
:1050e40010100000107c0000000000000000000010
:1050f40000000000000000003848000048100000d4
:1051040010200000487800000000000000000000ab
:1051140000000000000000003848000008100000f3
:105124002c040000443800000000000000000000cf
:1051340000000000000000000818000028280000fb
:10514400487c0000081c0000000000000000000073
:1051540000000000000000007840000040700000e3
:1051640088080000887000000000000000000000b3
:105174000000000000000000083000004070000043
:105184004848000048300000000000000000000013
:1051940000000000000000007c480000081000002f
:1051a400102000002060000000000000000000004b
:1051b40000000000000000007848000048300000b3
:1051c40048480000483000000000000000000000d3
:1051d40000000000000000003048000048480000c3
:1051e400380800001060000000000000000000000b
:1051f400000000000000000000400000400000002b
:10520400000000004040000000000000000000001a
:10521400000000000000000000400000400000000a
:105224000000000000c000004080000000000000fa
:1052340000000000000000000000000008700000f2
:10524400e018000000000000000000000000000062
:1052540000000000000000000000000000f8000052
:1052640000f8000000000000000000000000000042
:10527400000000000000000000000000c038000032
:1052840018e0000000000000000000000000000022
:105294000000000030480000480800001020000012
:1052a400202000002020000000000000000000007a
:1052b4000000000000000000000000001f000000cb
:1052c4002180000040c000008e4000009240000099
:1052d4009240000092400000928000004f000000c5
:1052e400608000001f0000000000000000000000bb
:1052f4000000000000000000102800002828000022
:105304003c44000044e700000000000000000000ee
:105314000000000000000000f8440000447c00008d
:105324004642000042fc00000000000000000000b3
:105334000000000000000000384c000080800000e5
:1053440080800000c478000000000000000000001d
:105354000000000000000000f84400004242000089
:105364004242000044f80000000000000000000079
:105374000000000000000000f84800004078000031
:105384004040000044fc0000000000000000000059
:105394000000000000000000f84800004078000011
:1053a4004040000040e00000000000000000000059
:1053b40000000000000000003e4400008080000067
:1053c40087820000423c0000000000000000000052
:1053d40000000000000000000000000000000000c9
:1053e400e380000041000000410000007f00000055
:1053f400410000004100000041000000e380000083
:105404000000000000000000000000000000000098
:105414000000000000000000e040000040400000e8
:105424004040000040e000000000000000000000d8
:105434000000000000000000702000002020000098
:10544400202000002020000020200000c0000000d8
:105454000000000000000000ee4800005060000062
:10546400504800004ce6000000000000000000006e
:105474000000000000000000e04000004040000088
:105484004040000044fc0000000000000000000058
:105494000000000000000000000000000000000008
:1054a400e0c00000618000005180000052800000d4
:1054b400528000004c8000004c800000e9c00000d5
:1054c40000000000000000000000000000000000d8
:1054d4000000000000000000c762000062520000eb
:1054e4004a46000046e20000000000000000000000
:1054f4000000000000000000384400008282000028
:105504008282000044380000000000000000000017
:105514000000000000000000f844000044440000c3
:105524007840000040e0000000000000000000009f
:1055340000000000000000003844000082820000e7
:1055440082820000443800000d06000000000000c4
:105554000000000000000000f8440000447800004f
:10556400504800004ce6000000000000000000006d
:10557400000000000000000030580000402000003f
:10558400180800004870000000000000000000003f
:105594000000000000000000fe9200001010000057
:1055a400101000001038000000000000000000008f
:1055b40000000000000000000000000000000000e7
:1055c400e3800000410000004100000041000000b1
:1055d4004100000041000000630000003e000000a4
:1055e40000000000000000000000000000000000b7
:1055f4000000000000000000e3420000222400003c
:10560400341800001808000000000000000000002a
:105614000000000000000000000000000000000086
:10562400e4e00000444000004a8000002a800000ba
:105634002a80000031800000318000001100000049
:105644000000000000000000000000000000000056
:105654000000000000000000e664000024180000c0
:105664001824000042e700000000000000000000d1
:105674000000000000000000c644000028380000bc
:1056840010100000103800000000000000000000ae
:1056940000000000000000007c88000008100000ea
:1056a4002020000044fc0000000000000000000076
:1056b4000000000070400000404000004040000036
:1056c4004040000040400000407000000000000026
:1056d4000000000080400000402000002020000066
:1056e4001010000010080000080400000000000072
:1056f40000000000e0200000202000002020000026
:10570400202000002020000020e000000000000015
:105714000000000010300000384800004844000039
:105724000000000000000000000000000000000075
:105734000000000000000000000000000000000065
:10574400000000000000000000fc00000000000059
:105754000000000080400000200000000000000065
:105764000000000000000000000000000000000035
:1057740000000000000000000000000038480000a5
:1057840008780000487c00000000000000000000d1
:1057940000000000c04000004040000058640000c9
:1057a40044440000443800000000000000000000f1
:1057b40000000000000000000000000070980000dd
:1057c40080800000887000000000000000000000dd
:1057d400000000000c040000040400003c4400002d
:1057e40044440000443e00000000000000000000ab
:1057f40000000000000000000000000070880000ad
:10580400f880000088700000000000000000000024
:10581400000000003040000040400000f040000064
:105824004040000040e000000000000000000000d4
:105834000000000000000000000000007c88000060
:105844008870000040780000848400007800000024
:1058540000000000c0400000404000005c64000004
:105864004444000044ee000000000000000000007a
:10587400000000000040000040000000c0400000a4
:105884004040000040e00000000000000000000074
:10589400000000000040000040000000c040000084
:1058a40040400000404000004040000080000000f4
:1058b40000000000c0400000404000004c500000c8
:1058c4006050000048ec00000000000000000000f0
:1058d40000000000c04000004040000040400000c4
:1058e4004040000040e00000000000000000000014
:1058f40000000000000000000000000000000000a4
:1059040000000000000000005dc00000e640000050
:10591400444000004440000044400000eee0000029
:105924000000000000000000000000000000000073
:105934000000000000000000000000005ce4000023
:105944004444000044ee0000000000000000000099
:1059540000000000000000000000000038440000c7
:10596400444400004438000000000000000000002f
:10597400000000000000000000000000d8640000e7
:10598400444400004478000040400000e00000006f
:105994000000000000000000000000003c44000083
:1059a40044440000443c0000040400000e000000d5
:1059b400000000000000000000000000d8680000a3
:1059c4004040000040e00000000000000000000033
:1059d40000000000000000000000000060700000f3
:1059e4006010000050700000000000000000000083
:1059f400000000000000000040400000f0400000f3
:105a04004040000040700000000000000000000062
:105a1400000000000000000000000000cc44000072
:105a240044440000447e0000000000000000000028
:105a3400000000000000000000000000ec4800002e
:105a440028280000301000000000000000000000c2
:105a54000000000000000000000000000000000042
:105a64000000000000000000e98000004d0000007c
:105a74005500000055000000320000002200000024
:105a84000000000000000000000000000000000012
:105a9400000000000000000000000000ec680000ae
