:020000040000fa
:080000000002040000000000f2
:020000040000fa
:100400000fd420000e7f24000e01880000000000a1
:100410000c000700807f2100010020001100070070
:10042000000020000000e000020032000000020096
:10043000000000003a160200000000000040da0050
:100440000000fe004440a900a00a20000000e000d7
:100450000300320000002000a00188004440a800f2
:100460000000060091018800800078000000eb0089
:1004700015003700e280400032a0b4009101ba00bc
:10048000e280400032a0b4009102ba00e280400055
:1004900032a0b4000002eb00472bde00f507b200eb
:1004a000602ce10004003a000059eb008301e900f0
:1004b000fdff3e00040037006128e100010032002a
:1004c0000082eb00040007001101ba000200e00006
:1004d000e8ff3a00000006003159ba008301e90044
:1004e0000c0032002159ba008301e90008003200f3
:1004f0000400e00003003a00e280400032a0b400b3
:10050000f5ff370011d9ba008301e900faff3a007c
:100510008100e800e180400032a0b4000000060045
:080520000040da000000fe00bb
:020000040000fa
:020000040005f5
:0457f8009e230000ec
:020000040000fa
:020000040005f5
:0457fc007f3e0000ec
:020000040000fa
:1000080090020000900200009002000090020000a0
:100018009002000090020000900200009002000090
:100028009002000090020000900200009002000080
:100038009002000090020000900200009002000070
:100048009002000090020000900200009002000060
:100058009002000090020000900200009002000050
:100068009002000090020000900200009002000040
:100078009002000090020000900200009002000030
:100088009002000090020000900200009002000020
:100098009002000090020000900200009002000010
:1000a8009002000090020000900200009002000000
:1000b80090020000900200009002000090020000f0
:1000c80090020000900200009002000090020000e0
:1000d80090020000900200009002000090020000d0
:1000e80090020000900200009002000090020000c0
:1000f80090020000900200009002000090020000b0
:10010800900200009002000090020000900200009f
:10011800900200009002000090020000900200008f
:10012800900200009002000090020000900200007f
:10013800900200009002000090020000900200006f
:10014800900200009002000090020000900200005f
:10015800900200009002000090020000900200004f
:10016800900200009002000090020000900200003f
:10017800900200009002000020040000900200009d
:10018800900200009002000090020000900200001f
:10019800900200009002000090020000900200000f
:1001a80090020000900200009002000090020000ff
:1001b80090020000900200009002000090020000ef
:1001c80090020000900200009002000090020000df
:1001d80090020000900200009002000090020000cf
:1001e80090020000900200009002000090020000bf
:0801f8009002000090020000db
:020000040000fa
:10020800900200009002000090020000900200009e
:10021800900200009002000090020000900200008e
:10022800900200009002000090020000900200007e
:10023800900200009002000090020000900200006e
:10024800900200009002000090020000900200005e
:10025800900200009002000090020000900200004e
:10026800900200009002000090020000900200003e
:10027800900200009002000090020000900200002e
:10028800900200009002000090020000900200001e
:10029800900200009002000090020000900200000e
:1002a80090020000900200009002000090020000fe
:1002b80090020000900200009002000090020000ee
:1002c80090020000900200009002000090020000de
:1002d80090020000900200009002000090020000ce
:1002e80090020000900200009002000090020000be
:1002f80090020000900200009002000090020000ae
:10030800900200009002000090020000900200009d
:10031800900200009002000090020000900200008d
:10032800900200009002000090020000900200007d
:10033800900200009002000090020000900200006d
:10034800900200009002000090020000900200005d
:10035800900200009002000090020000900200004d
:10036800900200009002000090020000900200003d
:10037800900200009002000020040000900200009b
:10038800900200009002000090020000900200001d
:10039800900200009002000090020000900200000d
:1003a80090020000900200009002000090020000fd
:1003b80090020000900200009002000090020000ed
:1003c80090020000900200009002000090020000dd
:1003d80090020000900200009002000090020000cd
:1003e80090020000900200009002000090020000bd
:0803f8009002000090020000d9
:020000040000fa
:1005280012010000000200000000000000080000a6
:10053800d80400000c0000000000000001020000c8
:100548000001000009020000200000000101000075
:1005580000c0000032090000040000000002000092
:10056800ffff0000ff000000070500000102000077
:100578004000000001070000058100000240000063
:100588000001000004030000090400003403000017
:100598004d000000690000006300000072000000c8
:1005a8006f000000630000006800000069000000a0
:1005b80070000000200000005400000065000000ea
:1005c80063000000680000006e0000006f0000007b
:1005d8006c0000006f000000670000007900000058
:1005e80020000000490000006e00000063000000c9
:1005f8002e000000380300004d00000069000000d4
:1006080063000000720000006f000000630000003b
:100618006800000069000000700000002000000071
:100628004300000075000000730000007400000023
:100638006f0000006d000000200000005500000061
:1006480053000000420000002000000044000000a9
:1006580065000000760000006900000063000000eb
:1006680065000000a6820000c6820000ca82000061
:04067800fe820000fe
:020000040000fa
:10067c000200fa009ec0a9000080eb0070248800e4
:10068c000080eb00502488000000eb00502588000f
:10069c000000eb0060258800200020003025880039
:1006ac000000eb00402588008644a900f0092000da
:1006bc0080248800f0092000602488008804a800a9
:1006cc0000a020004800de00c02488000040eb00a1
:1006dc00004f7800070037001e80fb00c200dd00d1
:1006ec0000a02000008140006000b8000089be001e
:1006fc001e4fe80070c0b3009e4f1000f6ff36008e
:10070c009424a8000000eb00b024880094a4a90055
:10071c009424a9000c00370080002000502488008d
:10072c000040eb00d4e8b7000040eb00e1e8b70074
:10073c00e2c8bf0060406000e2e8b700e3c8bf0059
:10074c0060406000e3e8b7008ac4bf006840600006
:10075c000004e000f0ff3a00100020001048880070
:10076c0010002000204888000000eb008046880024
:10077c000000eb00604688000000eb00d0468800cb
:10078c000040eb00004f7800170037001e80fb0084
:10079c0080004000a08e2000808040000000eb0014
:1007ac00800878001e80fb0080004000608e2000d6
:1007bc00808040000000eb00800878009e80fb00e9
:1007cc00c08f2000808040000040eb008048780003
:1007dc009e80fb00e08f2000808040000040eb00fa
:1007ec00804878001e4fe80010c0b3009e4f1000e8
:1007fc00e6ff360080a0200050478800d000200083
:10080c0050258800609020001050880080c0b300f4
:10081c0000eab70040c8b30001eab7000040eb00a3
:10082c00dee8b7000000eb00e04688000080fa002c
:10083c00000006003600f800809fbe00829fbe00bc
:10084c00849fbe00869fbe003400f800000020008c
:10085c00a00188000200fa00e0468000e10f500081
:10086c000a003a0094c4bf000044b2000004e00047
:10087c0006003a000080eb00502488008c04a8008d
:10088c008c84a80020002000e046880080c4bf00b3
:10089c00704060000004e0000700320082c4bf001a
:1008ac00704060000004e0000300320000012000f2
:1008bc00002488006404070088c4bf006240600004
:1008cc000004e000020032008ec0a9009500370041
:1008dc008ac4bf00614060000004e0000a003200de
:1008ec008cc4bf00614060000004e00006003200d0
:1008fc005fff07009ec0a80040002000e046880073
:10090c0010002000502488008ac4bf007040600092
:10091c000004e000070032008cc4bf00704060008f
:10092c000004e000030032003b040700000120003b
:10093c00502488008ac4bf00644060000004e000ba
:10094c00140032008cc4bf00644060000004e0005e
:10095c0004003200120020008000eb003007200061
:10096c000c090700400020005024880000c9bf007b
:10097c000004e0000300320000c9bf000040e900a1
:10098c0000e9b70000c9bf000004e00001003a0014
:10099c00a70107008ac4bf0001c8b3000140600072
:1009ac000004e000060032008cc4bf0001c8b30094
:1009bc00014060000004e00001003200ff0307006a
:1009cc008ac4bf00624060000004e0000c003200ea
:1009dc008cc4bf00624060000004e00008003200dc
:1009ec00120020008000eb00f0ff2700e908070050
:1009fc000080eb0070248800200020005024880028
:100a0c00e0468000e30f500002003e008ec0a900bb
:100a1c00440037008cc4bf00684060000004e00054
:100a2c003f0032000040eb00004f780039003700e7
:100a3c008ac4bf00684060000004e0003800320047
:100a4c0090248000f8e8b700f8c8bf000080fb00d5
:100a5c004400de00f9e8b700800020005024880034
:100a6c00f8c8bf00684060000004e00010003a00c5
:100a7c00f9c8bf000081fb008080fb00e08f2000e4
:100a8c00008040009040780061c060000004a2002b
:100a9c00e1406000e08f20000000410061c1600077
:100aac00e1cfb30010c86000104871000f00370090
:100abc00f9c8bf000081fb008080fb00c08f2000c4
:100acc00008040009040780061c060000004a200eb
:100adc00e1406000c08f20000000410061c1600057
:100aec00e1cfb30010c8600010487100f9c8bf0016
:100afc000004e00002003a00df03070004003700a6
:100b0c00818f20000001eb0020072000a1080700c6
:100b1c001e4fe80030c0b3009e4f1000c4ff3600db
:100b2c008ec0a9000080fa003400f9004f03be000b
:100b3c004f02be004f01be004f00be003600f90050
:100b4c00004006000400fa00204798003147980046
:100b5c003e4090000080fb004300de00610060001e
:100b6c000004e000030032008040eb002e409000b7
:100b7c008b0107003e4090000080fb004200de002d
:100b8c00610060000004e0000300320011c0b300fb
:100b9c002e409000820107002e4090000080fb0048
:100bac000000400080007800a04a20000080400037
:100bbc00000f78001e007800be40900001487800bd
:100bcc000080fa00000006000a00fa002047980096
:100bdc003147980022079800634798003e409000e8
:100bec000004e000070032002e4090000080fb0063
:100bfc0080004000a08e200000804000100f780084
:100c0c00060037002e4090000080fb008000400062
:100c1c00608e200000804000100f78001e00e00065
:100c2c0003003a000000eb00400798003900370041
:100c3c002e009000800078001e00780011009800b3
:100c4c001e007800ee409000014878001e007800ed
:100c5c001040900002c4b300824060001e00780077
:100c6c00114098001e0078009040900080c8b3009e
:100c7c0080c070001e007800114098003e4090002b
:100c8c000004e000110032002e4090000080fb00b8
:100c9c000000400080007800a08e20000080400002
:100cac00000178002e4090000080fb000000400006
:100cbc0080007800a08e200000804000104078005a
:100ccc000024a20000497800100037002e4090004c
:100cdc000080fb000000400080007800608e200047
:100cec0000804000000178002e4090000080fb0046
:100cfc000000400080007800608e200000804000e2
:100d0c00104078000024a200004978001e007800f2
:100d1c00400798004e0090000080fa00000006008a
:100d2c000400fa0020479800314798002e409000ac
:100d3c000004e0000d003a009147800080c0b30031
:100d4c0080487800914780006090200090009800c7
:100d5c0091478000c0c8b300904098005147800074
:100d6c0040c8b30090409800230037002e409000fc
:100d7c000080fb0000004000800078003e409000a6
:100d8c000080fb00008040004300dd008000780004
:100d9c0000a0200000804000000f78001e007800aa
:100dac009040900040c8b30080c070001e007800d6
:100dbc00114098002e4090000080fb000000400085
:100dcc00800078003e4090000080fb0000804000d6
:100ddc004300dd008000780040a02000008f400020
:100dec001e0078009040900040c8b30080c0700096
:100dfc001e007800114098000080fa0000000600e8
:100e0c000600fa00004f780094c4bf000042b20004
:100e1c000004e0005f0032001e80fb0080004000f8
:100e2c00a08e200000804000100378001e80fb0084
:100e3c0080004000a08e2000008040001000780050
:100e4c001000be0002042000030020000002780005
:100e5c0081027800020078008300780000016200b3
:100e6c00018062006102b800140798002507980001
:100e7c001e009000ae009000c000dd0000002000bd
:100e8c0010079800210798001e009000ae009000fb
:100e9c006112b80014079800250798001e019000f5
:100eac00ae0190000200700083807000008bbe00c9
:100ebc001e80fb0080004000a08e200000804000bf
:100ecc00100278001e80fb0080004000a08e2000e5
:100edc0000804000100078001001be0000042000cb
:100eec00010020000000690081806900008abe00ba
:100efc001e80fb000000400080007800a08e2000c7
:100f0c0000804000000178001e80fb0000004000c3
:100f1c0080007800a08e20000080400010407800f7
:100f2c000024a200004978001e80fb0080004000d5
:100f3c00a08e200000804000100178001e80fb0075
:100f4c0080004000a08e200000804000100078003f
:100f5c00104090000044b200104198001e80fb002d
:100f6c0080004000a08e200000804000100178001e
:100f7c001e80fb0080004000a08e200000804000fe
:100f8c00100078009040900000c4b30000c06800ce
:100f9c00104198000080fa00000006000000fa00e2
:100fac000000eb00a02488000000eb006024880007
:100fbc000000eb00e04688000080fa00000006000c
:100fcc000000fa00e04680000000e00016003a0045
:100fdc000000eb00a02488000000eb0060248800d7
:100fec0020002000302588000000eb004025880000
:100ffc008644a900f009200080248800f009200014
:10100c00602488009ec0a800010037009404a8004a
:10101c0094c4bf00614060000004e000fbff32009c
:10102c0010002000e04688000080fa000000060056
:10103c000000fa00104880000000e0002a003a008e
:10104c001000200010488800204880000000e000bc
:10105c0025003a001000200020488800f5c8bf0089
:10106c00e24f500007003a00514780000040eb006f
:10107c00804878005147800080ccb30090409800a5
:10108c0019003700f5c8bf00e14f500016003a00b8
:10109c000000eb00d04788008147800080c0b3007f
:1010ac008048780081478000609020009000980074
:1010bc008147800040c8b300904098001000200089
:1010cc00d04788009147800080c0b30080487800ea
:1010dc00914780006090200090009800914780001c
:1010ec0000c8b300904098000080fa000000060091
:1010fc000000fa000000eb00804688000000eb00c6
:10110c0060468800f5c8bf00e24f50000a003a0064
:10111c009147800080c0b3008048780091478000e0
:10112c00e0902000900098009147800080ccb300a4
:10113c0090409800180037000cc9bf008080fb005d
:10114c000dc9bf000080fb004800dd0001007000ed
:10115c0080007800b0468000808f5000070031007e
:10116c000cc9bf008080fb000dc9bf000080fb00d4
:10117c004800dd0001007000b046880084000700c4
:10118c0051478000e090200090009800514780006b
:10119c0080ccb300904098000080fa00000006005c
:1011ac000400fa00204798003147980000a0200066
:1011bc00000f78002e4090000080fb0000004000e3
:1011cc00800078003e4090000080fb0000804000d2
:1011dc004300dd001e0f40009e007800114090007f
:1011ec000074a100904098003e4090000004e00084
:1011fc0007003a002e4090000080fb008000400069
:10120c00608e2000008040001e0878000600370029
:10121c002e4090000080fb0080004000a08e20003b
:10122c00008040001e0878001e017800924090005b
:10123c00f0cbb30000c06000104198001e00780095
:10124c00640140009240900000c4b30000c07000e4
:10125c00104198000080fa00000006000000fa001f
:10126c0094a4a900d4c8bf0001c8b3000140600019
:10127c000004e0001d003a00e1c8bf0001c8b30043
:10128c00014060000004e0000b00320020c0b300fd
:10129c00f5e8b700604680000000e00001003a006d
:1012ac0093ff07000000eb00204888000000eb00d3
:1012bc0010488800340037009147800080c0b3008c
:1012cc008048780091478000609020009000980042
:1012dc0091478000c0c8b3009040980051478000ef
:1012ec0040c8b300904098002700370006c9bf00e3
:1012fc0001c8b300014060000004e0000f003200a0
:10130c0010c0b300f5e8b700804680000000e00094
:10131c0001003a0076ff07000000eb00204888002f
:10132c000000eb0010488800704680000000e000d0
:10133c0015003a003eff07001300370020c0b30031
:10134c00f5e8b7009147800080c0b3008048780072
:10135c009147800060902000900098009147800099
:10136c0040c8b300904098000000eb002048880073
:10137c000000eb0010488800704680000000e00080
:10138c0001003a002aff07000080fa000000060066
:10139c000200fa0080c0b300004f7800b046800015
:1013ac00e70f50000d003e00b0468000004f780063
:1013bc00f4c8bf000004e00003003a0010c0b30002
:1013cc00f4e8b70005003700f4c8bf00e14f500047
:1013dc0002003a0020c0b300f4e8b700b146800028
:1013ec001e80fb0000805000b046880050478000f3
:1013fc001e487800e0902000b0478800d4c8bf0099
:10140c00614060000004e00016003a00090037005b
:10141c00b1478000924680001240780080487800e6
:10142c000100e800b04788000200e8009046880000
:10143c001e4fe9001e04e000f5ff3a000b003700d8
:10144c00b1478000924680001240780080487800b6
:10145c000100e800b04788000200e80090468800d0
:10146c001e4fe9001e04e000f5ff3a000080fa0070
:10147c00000006000200fa008047800090407800cf
:10148c00114798001e4090000081fb00e2c8bf008d
:10149c008080fb00e3c8bf000080fb004800dd003b
:1014ac0001007000800f510007003600e2c8bf0039
:1014bc008080fb00e3c8bf000080fb004800dd001b
:1014cc000100700010479800e2c8bf008080fb004c
:1014dc00e3c8bf000080fb004800dd000100700085
:1014ec00800078001e4090000080fb0000815000be
:1014fc00f00f200080006100e2c8bf006040600077
:10150c0001407000e2e8b700c810de00e3c8bf007d
:10151c006040600001407000e3e8b7000040eb0061
:10152c00004f780019003700dfc8bf008080fb0037
:10153c00e0c8bf000080fb004800dd000100700027
:10154c00000178009e80fb00e090200000804000ad
:10155c0010407800004978000201e800f00f2000ec
:10156c0080006100dfc8bf00604060000140700077
:10157c00dfe8b700c810de00e0c8bf0060406000c4
:10158c0001407000e0e8b7001e4fe8001e409000dc
:10159c009e4f1000e4ff3900e2c8bf008080fb00c2
:1015ac00e3c8bf000080fb004800dd0001007000b4
:1015bc000000e000130032009147800080c0b300af
:1015cc008048780091478000e090200090009800bf
:1015dc0080478000104090000044b2000004e000fe
:1015ec0004003a009147800080ccb30090409800f2
:1015fc00210037009147800080c8b30090409800cc
:10160c001d0037009147800080c0b30080487800ef
:10161c0091478000609020009000980091478000d6
:10162c0040c8b30090409800e4c8bf008080fb0025
:10163c00e5c8bf000080fb004800dd000100700021
:10164c000000e00007003200e4c8bf008080fb000f
:10165c00e5c8bf000080fb004800dd000100700001
:10166c0000000100e1e8a900704680000000e000e5
:10167c0001003a006efe07000080fa000000060030
:10168c000200fa00d4e8a8000000eb0060258800f6
:10169c000040eb00004f7800070037001e80fb0075
:1016ac00c200dd0000a02000008140006000b800f6
:1016bc000089be001e4fe80070c0b3009e4f1000a2
:1016cc00f6ff36009424a8000040eb00004f780091
:1016dc000b0037009e80fb00c08f200080804000f4
:1016ec000040eb00804878009e80fb00e08f2000db
:1016fc00808040000040eb00804878001e4fe800de
:10170c0010c0b3009e4f1000f2ff36000040eb00fb
:10171c00eee8b7009424a90080a020005047880070
:10172c0000a02000804788008047800090478800f8
:10173c0008c9bf00dee8b700dec8bf000004e00047
:10174c0003003a0000012000e04688000600370044
:10175c0012002000e18d2000100020008d050700f4
:10176c0000022000e04688000080fa00000006001d
:10177c000200fa00619020009140780000c8b3008c
:10178c0080cf50003a003a0000ccb300d4e8b70048
:10179c0009c9bf000080fb00000f78001e00780014
:1017ac00e20f50000c0032001e007800e30f5000d6
:1017bc001a0032001e007800e10f500001003200c8
:1017cc00290037004029280090468800200120007d
:1017dc00b04688002600370008c9bf000080fb0017
:1017ec00000040008000780060332800008040003a
:1017fc001000780090468800904680000080e80039
:10180c0010407800d6e8b700904680006300400096
:10181c0010407800d7e8b7001500370008c9bf00a2
:10182c00e24f50000d003e0008c9bf000080fb00d5
:10183c0000004000800078008033280000804000c9
:10184c001000780090468800904680001040780088
:10185c000080fb00b0468800050037000040eb001c
:10186c00d4e8b700020037000040eb00d4e8b70022
:10187c000080fa00000006000400fa000040eb00b3
:10188c000ee9b7000040eb000fe9b70006c9bf0036
:10189c007f4060000080fb00100798001e00900045
:1018ac00e10f5000120032001e009000e20f5000b9
:1018bc00110032001e0090000000e0000100320018
:1018cc0032003700d4e8a8000ec9bf000004a00005
:1018dc000ee9b700c0468000e10f50002b003a0023
:1018ec000ec9bf000014a0000ee9b7002700370096
:1018fc00d4e8a80025003700d4e8a8000ac9bf0026
:10190c0001c8b300014060000004e00009003a0087
:10191c000ac9bf006f4060000080fb0080004000df
:10192c00608e20000080400010007800000f7800ce
:10193c00080037000ac9bf006f4060000080fb0040
:10194c0080004000a08e2000008040001000780035
:10195c00000f78001e00780090007800000028002e
:10196c00008060000000e000080032001e007800db
:10197c009000780000402000008060000000e00033
:10198c000200320010c0b3000ee9b700d4c8bf008b
:10199c0001c8b300014060000004e0000500320003
:1019ac00e090200090468800d408a80020c0b30026
:1019bc00d6e8b7000080fa00000006000000fa002c
:1019cc00aac4bf00624060000004e0000e003200b8
:1019dc00804780009040900000c8b30080cf50003a
:1019ec0008003a00504780009040900040c8b30077
:1019fc0080cf500003003a0081478000c0c8b3007c
:101a0c0090409800aa24a9000008200050248800c7
:101a1c000080fa00000006000000fa008284a80092
:101a2c00000120005024880010002000d0468800bf
:101a3c000001eb008000eb0050072000d5040700ec
:101a4c000080fa00000006000000fa000000eb0025
:101a5c00d04688000001eb008000eb00400720001e
:101a6c00cc0407008284a900000120000024880017
:101a7c000080fa00000006000200fa00d0c2b30099
:101a8c0000e9b700f8c8bf008080fb00b0ff2f0052
:101a9c00008060000000e00032003a00f8c8bf008f
:101aac008080fb00c00f2000008060004280de00c0
:101abc004200dd008000780000a020000080400083
:101acc00804788008047800090478800218f200045
:101adc00208f2000104078000024a200804878005d
:101aec008047800010409000c2c3b3008240600069
:101afc0040c3b30080cf500018003a000040eb0008
:101b0c00004f78000d0037001e80fb00800078002d
:101b1c006090200080804000804780001000900082
:101b2c0010407800804878008147800011009000b8
:101b3c000000e800900098001e4fe80070c0b30051
:101b4c009e4f1000f0ff360080478000619020000f
:101b5c00110098000c00070009003700470007002f
:101b6c0007003700f8c8bf008080fb00b0ff2f00d3
:101b7c0000806000e80f500001003a005800070098
:101b8c000080fa00000006000000fa000040eb00a4
:101b9c00f4e8b7000000eb00704688000000eb0092
:101bac00804688000000eb00604688000000eb00d7
:101bbc00d04788000040eb00f5e8b70052478000a2
:101bcc005047800090409000f0c7b30000c0600008
:101bdc0010419800a18e2000a08e200010407800ab
:101bec000024a200804878005247800050478000b3
:101bfc0090409000f0c7b30000c060001041980006
:101c0c00a18e2000a08e2000104078000024a2009d
:101c1c008048780092478000904780009040900068
:101c2c00f0c7b30000c06000104198000040eb000a
:101c3c00d4e8b7000000eb00b04688000040eb0091
:101c4c00e1e8b700e2c8bf0060406000e2e8b7001e
:101c5c00e3c8bf0060406000e3e8b7006b0007001a
:101c6c000001eb008000eb0030002000490407006d
:101c7c007afd07000080fa00000006000000fa0060
:101c8c00f5c8bf00e24f500002003a00f9fd070012
:101c9c00110037000040eb00f5e8b700d04780009a
:101cac000000e0000a003a009147800080c0b300b9
:101cbc008048780091478000609020009000980048
:101ccc0091478000c0c8b3009040980002003700d4
:101cdc000000eb00d04788000080fa0000000600ee
:101cec000200fa0050478000104090000080fb007a
:101cfc004600de0061406000004f7800a18e20009d
:101d0c00a08e2000104078000024a20080487800ab
:101d1c00e0468000e80f50000b003a0008c9bf00f5
:101d2c000080fb00b0248800b02480000000e0009c
:101d3c000300320000012000e0468800020037005a
:101d4c0040002000e0468800f5c8bf00e14f50007d
:101d5c0015003a0051478000e09020009000980058
:101d6c008bfd0700f4c8bf00e24f500004003a009e
:101d7c005147800040c8b3009040980021003700c4
:101d8c001e04e00004003a005147800080ccb300f0
:101d9c00904098001b0037005147800080c8b3006a
:101dac009040980017003700e1c8bf0001c8b3008d
:101dbc00014060000004e00010003200e4c8bf00e5
:101dcc008080fb00e5c8bf000080fb004800dd0000
:101ddc00010070000000e00007003200e4c8bf0002
:101dec008080fb00e5c8bf000080fb004800dd00e0
:101dfc000100700000000100e1e8a9000040eb00c8
:101e0c00f5e8b7000080fa00000006000400fa00b4
:101e1c0006c9bf000046b2000004e00043003a00cf
:101e2c0007c9bf000080fb006101b900028fbe0032
:101e3c00b0002000010020001e01be00800f5100e8
:101e4c00818f590039003e001e00be000060010069
:101e5c001a0037001b003700340037001900370018
:101e6c003200370006003700090037002b0037001e
:101e7c000b00370008003700140037001e00370035
:101e8c00d4e8a80080002000e04688002700370036
:101e9c0037fe070025003700f9fd07002300370047
:101eac00e08d200090468800d408a80010c0b30034
:101ebc00d6e8b700d4e8a8001c0037006efe070077
:101ecc001a0037001b000700180037000ac9bf00b2
:101edc000080fb0080007800e08e20000080400035
:101eec0090468800d408a80010c0b300d6e8b7000c
:101efc00d4e8a8000d003700d4e8a8000ac9bf0038
:101f0c008080fb008290200012417800e08e20003f
:101f1c000080400002487800040037000001eb000c
:101f2c008000eb00200020009a0307000080fa00dc
:101f3c00000006000600fa0008c9bf00e14f50007f
:101f4c000d003a0006c9bf007f4060000004e000ad
:101f5c0009003a00d4e8a80007c9bf00e34f5000bd
:101f6c0003003a0010002000c04688000200370031
:101f7c000000eb00c046880008c9bf000004e00068
:101f8c00e4003a0006c9bf007f406000e24f5000f9
:101f9c00e0003a000ac9bf006f4060000004e00096
:101fac00dc0032000ac9bf006f4060000080fb00fb
:101fbc00e10f5000d7003c00e146800000022000f9
:101fcc00808f5000d3003a00d4e8a8000ac9bf00a3
:101fdc0001c8b300014060000004e00010003a00aa
:101fec000ac9bf006f4060000080fb008000400009
:101ffc00608e2000008040001000780010079800d0
:10200c000ac9bf006f4060008080fb00e08f200099
:10201c000080400010407800404798000f003700c7
:10202c000ac9bf006f4060000080fb0080004000c8
:10203c00a08e20000080400010007800100798004f
:10204c000ac9bf006f4060008080fb00c08f200079
:10205c000080400010407800404798004e409000af
:10206c00614060000004e00007003a000e81e800c7
:10207c000e80e80090407800b0cfb30000c0600044
:10208c0000497800050037008e80e8000e80e800db
:10209c00104078000024a000804878000ac9bf00d6
:1020ac0001c8b300014060000004e0000a003a00df
:1020bc000ac9bf006f4060008080fb001e009000ca
:1020cc000001780081804000608e2000008040007c
:1020dc0002087800090037000ac9bf006f40600091
:1020ec008080fb001e009000000178008180400081
:1020fc00a08e2000008040000208780007c9bf00b5
:10210c00e34f50001f003a001e0090009000780032
:10211c0000002800008060000000e0001200320087
:10212c000ac9bf0001c8b300014060000004e00010
:10213c0007003a000ac9bf006f4060008080fb00b6
:10214c00e08f2000008040001014a0000600370033
:10215c000ac9bf006f4060008080fb00c08f200068
:10216c00008040001014a0001e0190001e00900082
:10217c009040900040c8b30000c07000104198001f
:10218c00640037008e80e8000e80e8001040780074
:10219c000024a200804878001e0090009000780077
:1021ac0000002800008060000000e00011003200f8
:1021bc001e0190001e00900090409000f0c7b300ec
:1021cc0000c06000104198001e0190001e0090009d
:1021dc009040900000c4b30000c070001041980003
:1021ec009e0090002200200050002000e902070011
:1021fc00060037001e0190001e00900090409000d9
:10220c0000c4b30000c07000104198008e80e8003c
:10221c000e80e800104078000024a200804878006e
:10222c004e409000624060000004e00006003a005e
:10223c001e009000900078000000280000806000d4
:10224c000000e0001f0032000ac9bf0001c8b30043
:10225c00014060000004e00008003a000ac9bf0019
:10226c006f4060008080fb00e08f20008080400089
:10227c00d0cfb30091486000070037000ac9bf00f7
:10228c006f4060008080fb00c08f20008080400089
:10229c00d0cfb300914860001e0190001e0090004a
:1022ac0090409000b0c3b30000c060001041980093
:1022bc009e0090002200200050002000b502070074
:1022cc00060037001e0190001e0090009040900008
:1022dc00b0c3b30000c06000104198000ac9bf0031
:1022ec006f4060000080fb00000040008000780020
:1022fc00a04a200000804000000f78001e007800eb
:10230c0090407800d0cfb30080c060001e007800f1
:10231c00014878000080fa00000006000000fa0076
:10232c00a1178000f0e12f0000806000a01788004a
:10233c0081178000f0e12f0000806000801788007a
:10234c0061178000f0fc2f0000806000601788008f
:10235c0041178000f0fc2f000080600040178800bf
:10236c00d8c2a800d8e2a800dac2bf000080fb00e7
:10237c004600de006140600002e8b700dac2bf0030
:10238c000080fb004700de0003e8b700ba0207003c
:10239c002c03a90023c3bf007f40600023e3b700d8
:1023ac0000c0eb0024e3b70020c3bf007f406000f7
:1023bc0020e3b700513220009140780000ceb300ea
:1023cc0000c060000004a00025e3b700113220001b
:1023dc0091407800c0cfb30000c0600021e3b7008b
:1023ec00213220009140780030ccb30000c0600056
:1023fc0022e3b70021e3a800360007000040eb0001
:10240c0006e8b7000000eb00404688000000eb0037
:10241c003046880010002000504688000080fa00ea
:10242c00000006000000fa00504680000000e000aa
:10243c000100320055010700e0468000ff0f5000fc
:10244c002200360088c4bf00624060000004e00037
:10245c00010032001d0037004a00070006c8bf000b
:10246c00e14f500019003a00860207000000e0001e
:10247c001600320088c8bf000080fb00b248800004
:10248c0080004000a08820000080400002087800f6
:10249c0089c8bf00fd4f500003003e0089c8bf0033
:1024ac000040e80089e8b70088c8bf00fd4f500025
:1024bc0003003a000040eb0088e8b7000300370047
:1024cc0088c8bf000040e80088e8b7000080fa0028
:1024dc00000006000000fa000040eb0088e8b7009e
:1024ec000040eb0089e8b7000080fa00000006000d
:1024fc000400fa00100798000000eb004019880057
:10250c002023a8000000eb00000f78000300370028
:10251c001e0078000000e800000f78009e00780094
:10252c00703e2000808f5000f9ff36002023a90058
:10253c000000eb00000f7800030037001e0078004d
:10254c000000e800000f78009e007800703e20002c
:10255c00808f5000f9ff360020c3bf00614060003f
:10256c000004e000fcff320000188000000f78002f
:10257c001e0090001e0878001e0090000080fa00db
:10258c00000006000800fa00304680000000e00061
:10259c0006003200304680009040900000c8b30026
:1025ac0000c060000004e000f6003a000040eb00c0
:1025bc0004e8b70048c8bf0008e8b70049c8bf0026
:1025cc0009e8b70048c8bf000080fb00300798003e
:1025dc0040032000be009000808f50007400320039
:1025ec0040032000be009000808f500015003c007e
:1025fc0010032000be009000808f50002900320094
:10260c0010032000be009000808f500004003c009e
:10261c003e0090000000e0001b003200bf003700bd
:10262c0020032000be009000808f5000420032003a
:10263c0030032000be009000808f50005600320006
:10264c00b600370060032000be009000808f500061
:10265c006700320060032000be009000808f5000a5
:10266c005d00350070032000be009000808f50008c
:10267c0083003200f00f2000be009000808f5000cd
:10268c00a4003200a50037000040eb000ae8b700b8
:10269c0010c0b3000be8b70040c0b30004e8b700ab
:1026ac009f00370010c0b30004e8b70049c8bf0052
:1026bc000004e00005003a0040178000f1fc2f00f8
:1026cc0001006000401788009500370049c8bf0022
:1026dc00e14f500005003a0040178000f1fc2f003c
:1026ec0001006000401788008d00370049c8bf000a
:1026fc00e24f500005003a00401780000103200013
:10270c0001007000401788008500370049c8bf00e1
:10271c00e34f500005003a004017800001032000f1
:10272c0001007000401788007d0037000040eb006e
:10273c0004e8b7007a00370049c8bf00e34f5000e7
:10274c000f003a004ac8bf000004e0000500320048
:10275c004017800001032000010070004017880022
:10276c000400370040178000f1fc2f0001006000ce
:10277c004017880010c0b30004e8b70068003700a9
:10278c0049c8bf00e44f500065003a0010c0b300c8
:10279c0004e8b700620037000040eb0006e8b70021
:1027ac004cff070010c0b30004e8b7005c00370012
:1027bc00b40107000000e0005900320016c9bf0048
:1027cc0009e8b70017c9bf000ae8b70030c0b3006a
:1027dc0004e8b7005200370010c0b30006e8b70099
:1027ec003cff070010c0b30004e8b7004c003700f2
:1027fc0089c8bf000080fb000000400000c0e8005a
:10280c0004e8b70089c8bf000040400009e8b700e1
:10281c0089c8bf00004f78001500370088c8bf007a
:10282c000004e00003003a00d0c1b30088e8b70010
:10283c000300370088c8bf000040e90088e8b700f3
:10284c001e81fb0088c8bf000080fb008000400098
:10285c00a088200000804000900178008200410098
:10286c008080200000804000030878001e4fe900a3
:10287c001e04e000e9ff3a0016ff070028003700ad
:10288c002c03a90023c3bf007f40600023e3b700e3
:10289c0000c0eb0024e3b70020c3bf007f40600002
:1028ac0020e3b700513220009140780000ceb300f5
:1028bc0000c060000004a00025e3b7001132200026
:1028cc0091407800c0cfb30000c0600021e3b70096
:1028dc00213220009140780030ccb30000c0600061
:1028ec0022e3b70021e3a8006400470000ff0700c3
:1028fc002e009000100798002e40900009e8b700b9
:10290c003e4090000ae8b70030c0b30004e8b700be
:10291c00030037000000fe0001003700000000003b
:10292c0004c8bf000004e0001000320040468000e4
:10293c000000e0000600320040468000904090000d
:10294c0000c8b30000c060000004e00007003a00bb
:10295c0004c8bf00828020008041780011c0b30001
:10296c0010c0b30098f8070040468800828420000d
:10297c0003c4b3008040eb0010c0b30092f8070012
:10298c00304688000080fa00000006000000fa00c3
:10299c00004080000000e00002003a0000712200bc
:1029ac0000408800004080000000e90000408800e2
:1029bc0088c4bf00624060000004e00016003200d2
:1029cc00004080000000e0006b003a00811780009e
:1029dc000018200000806800801788008117800094
:1029ec00f0e72f00008060000000e00005003200de
:1029fc0080178000010620000100700080178800fd
:102a0c005d00370080178000f1f92f000100600095
:102a1c008017880058003700e04680000000e00076
:102a2c0009003a0081178000f0e72f000080600059
:102a3c008017880081178000f0f92f00008060005b
:102a4c00801788004c003700e0468000e10f5000f2
:102a5c0009003a00811780000018200000807000e7
:102a6c00801788008117800000062000008070000d
:102a7c008017880040003700e0468000e20f5000cd
:102a8c0009003a00811780000018200000807000b7
:102a9c008017880081178000f0f92f0000806000fb
:102aac008017880034003700e0468000e40f5000a7
:102abc0009003a0081178000f0e72f0000806000c9
:102acc0080178800811780000006200000807000ad
:102adc008017880028003700e0468000f00f500077
:102aec000c003a00004080000000e00022003a0098
:102afc008117800000182000008068008017880073
:102b0c0081178000f0f92f0000806000801788008a
:102b1c0019003700e146800000022000808f500031
:102b2c0015003a00004080000000e00012003a005e
:102b3c008117800000182000008068008017880032
:102b4c0081178000f0e72f00008060000000e0009b
:102b5c000500320080178000f1f92f0001006000a1
:102b6c0080178800040037008017800001062000c1
:102b7c0001007000801788000080fa000000060039
:102b8c000200fa00dac2bf000080fb004600de0043
:102b9c00614060008080fb0002c8bf000080fb0029
:102bac00808f50000c003200dac2bf000080fb00a6
:102bbc004600de006140600002e8b700dac2bf00e8
:102bcc000044b2000004e00003003a0010002000b2
:102bdc00000f7800020037000000eb00000f7800b7
:102bec001e0078000080fa00000006000200fa00c7
:102bfc00dac2bf000080fb004700de008080fb00d3
:102c0c0003c8bf000080fb00808f50000d00320015
:102c1c00dac2bf000080fb004700de0003e8b7000b
:102c2c00a12d20009140780000c8b30000c06000c6
:102c3c000004e00003003a0010002000000f7800b0
:102c4c00020037000000eb00000f78001e00780037
:102c5c000080fa00000006000200fa00004f780025
:102c6c000080fa00000006000000fa0003000700d4
:102c7c00d3f80700ebfd0700feff37000000fa0059
:102c8c000080eb0060198800a4fd070078f60700af
:102c9c000080fa00000006000000fa000080fa0034
:102cac00000006000000fa000080fa000000060098
:102cbc000000fa000080fa00000006000000fa0094
:102ccc000080fa00000006000000fa000080fa0004
:102cdc00000006000000fa000080fa000000060068
:102cec000000fa00d1c1b30010c0b30095f7070083
:102cfc008284200003c4b3008040eb0010c0b300fa
:102d0c00b1f70700304688000080fa00000006008a
:102d1c000000fa00c0468000e10f50001b003a0092
:102d2c00d0468000e10f500018003a009ec0a90068
:102d3c00dcff07008824a9000000eb00d0468800c7
:102d4c0000e1200030498800304980000000e90093
:102d5c0030498800304980000000e000faff3a005a
:102d6c009444a800807020003049880030498000cd
:102d7c000000e90030498800304980000000e00084
:102d8c00faff3a009444a9009ec0a8000080fa0003
:102d9c00000006000800fa00000f780011079800e8
:102dac00220798001e0078003007980020072000aa
:102dbc00be009000808f50002c00320020072000b5
:102dcc00be009000808f50000a003c003e00900036
:102ddc00e20f500020003200be009000e38f500044
:102dec001f0032003e009000e10f5000180032002e
:102dfc001e00370040072000be009000808f50005e
:102e0c001100320040072000be009000808f50005f
:102e1c000900350050072000be009000808f500044
:102e2c0007003200f0ff2700be009000808f50009a
:102e3c000d0032000d0037009dff07000b0037001e
:102e4c0095ff07000900370096ff070007003700c1
:102e5c00a3ff0700050037009eff070003003700a3
:102e6c0099ff07000100370094ff070010002000b5
:102e7c000080fa00000006000000fa000080fa0052
:102e8c00000006000600fa000000eb00b0488800c5
:102e9c00100020000080fa00000006000400fa0078
:102eac00b04880004300de00100798009e009000a0
:102ebc0000002100008060000000e00006003a00e5
:102ecc003e4090007f40600030479800b0c2b30095
:102edc0018e9b7000c003700be40900000ceb300dc
:102eec0000c0700030479800d0c2b30018e9b7009a
:102efc001e0090000080ea00100798001e00900051
:102f0c000000e800100798001e0090006a00b9004d
:102f1c004400de001007980040c0b300004f78005a
:102f2c00120037009e81fb001e009000a2002000c2
:102f3c00110009000280d8008000fd00ef40600005
:102f4c0000c3b30080c0700080912000008041005d
:102f5c00014878001e009000a2002000110009001a
:102f6c000280d800100798001e4fe9001e04e000f4
:102f7c00ecff3a00919120009140780000c3b3001f
:102f8c0080cf500009003a0000c2b30019e9b70025
:102f9c00a19120009140780000c3b30080cf500075
:102fac0002003a0000c2b3001ae9b7001cc9bf0006
:102fbc001de9b700e0c2b3001ce9b70080cfb30035
:102fcc001ee9b70030c4b3001fe9b700d0c0b3008e
:102fdc0020e9b7000040eb0021e9b7000080fa00bf
:042fec0000000600db
:020000040000fa
:102ff0002609000002000000000000001609000081
:103000001000000000000000cc0800004a00000092
:1030100000000000000a0000200000000000000086
:1030200000080000cc0000000000000000000000cc
:00000001FF
