:020000040000fa
:080000000002040000000000f2
:020000040000fa
:10040000cf9120000e7f24000e0188000000000024
:100410000c00070060c72000010020001100070049
:10042000000020000000e000020032000000020096
:10043000000000009a050200000000000040da0001
:100440000000fe004440a900000020000000e00081
:100450000300320000002000a00188004440a800f2
:100460000000060091018800800078000000eb0089
:1004700015003700e280400032a0b4009101ba00bc
:10048000e280400032a0b4009102ba00e280400055
:1004900032a0b4000002eb00472bde00f507b200eb
:1004a000602ce10004003a000059eb008301e900f0
:1004b000fdff3e00040037006128e100010032002a
:1004c0000082eb00040007001101ba000200e00006
:1004d000e8ff3a00000006003159ba008301e90044
:1004e0000c0032002159ba008301e90008003200f3
:1004f0000400e00003003a00e280400032a0b400b3
:10050000f5ff370011d9ba008301e900faff3a007c
:100510008100e800e180400032a0b4000000060045
:020000040000fa
:020000040002f8
:04aff800a61300009c
:020000040000fa
:020000040002f8
:04affc00673e0000ac
:020000040000fa
:100008002c0a00003e0a0000500a0000620a0000a4
:10001800740a00002c0a00002c0a00002c0a0000b8
:100028002c0a00002c0a00002c0a00002c0a0000f0
:100038002c0a00002c0a00002c0a00000c0a000000
:100048002c0a00002c0a00002c0a00002c0a0000d0
:100058002c0a00002c0a00002c0a00002c0a0000c0
:100068002c0a00002c0a00002c0a00002c0a0000b0
:100078002c0a00002c0a00002c0a00002c0a0000a0
:100088002c0a00002c0a00002c0a00002c0a000090
:100098002c0a00002c0a00002c0a00002c0a000080
:1000a8002c0a00002c0a00002c0a00002c0a000070
:1000b8002c0a00002c0a00002c0a00002c0a000060
:1000c8002c0a00002c0a00002c0a00002c0a000050
:1000d8002c0a00002c0a00002c0a00002c0a000040
:1000e8002c0a00002c0a00002c0a00002c0a000030
:1000f8002c0a00002c0a00002c0a00002c0a000020
:100108002c0a00002c0a00002c0a00002c0a00000f
:100118002c0a00002c0a00002c0a00002c0a0000ff
:100128002c0a00002c0a00002c0a00002c0a0000ef
:100138002c0a00002c0a00002c0a00002c0a0000df
:100148002c0a00002c0a00002c0a00002c0a0000cf
:100158002c0a00002c0a00002c0a00002c0a0000bf
:100168002c0a00002c0a00002c0a00002c0a0000af
:100178002c0a00002c0a00002c0a00002c0a00009f
:100188002c0a00002c0a00002c0a00002c0a00008f
:100198002c0a00002c0a00002c0a00002c0a00007f
:1001a8002c0a00002c0a00002c0a00002c0a00006f
:1001b8002c0a00002c0a00002c0a00002c0a00005f
:1001c8002c0a00002c0a00002c0a00002c0a00004f
:1001d8002c0a00002c0a00002c0a00002c0a00003f
:1001e8002c0a00002c0a00002c0a00002c0a00002f
:0801f8002c0a00002c0a000093
:020000040000fa
:100208002c0a00003e0a0000500a0000620a0000a2
:10021800740a00002c0a00002c0a00002c0a0000b6
:100228002c0a00002c0a00002c0a00002c0a0000ee
:100238002c0a00002c0a00002c0a00000c0a0000fe
:100248002c0a00002c0a00002c0a00002c0a0000ce
:100258002c0a00002c0a00002c0a00002c0a0000be
:100268002c0a00002c0a00002c0a00002c0a0000ae
:100278002c0a00002c0a00002c0a00002c0a00009e
:100288002c0a00002c0a00002c0a00002c0a00008e
:100298002c0a00002c0a00002c0a00002c0a00007e
:1002a8002c0a00002c0a00002c0a00002c0a00006e
:1002b8002c0a00002c0a00002c0a00002c0a00005e
:1002c8002c0a00002c0a00002c0a00002c0a00004e
:1002d8002c0a00002c0a00002c0a00002c0a00003e
:1002e8002c0a00002c0a00002c0a00002c0a00002e
:1002f8002c0a00002c0a00002c0a00002c0a00001e
:100308002c0a00002c0a00002c0a00002c0a00000d
:100318002c0a00002c0a00002c0a00002c0a0000fd
:100328002c0a00002c0a00002c0a00002c0a0000ed
:100338002c0a00002c0a00002c0a00002c0a0000dd
:100348002c0a00002c0a00002c0a00002c0a0000cd
:100358002c0a00002c0a00002c0a00002c0a0000bd
:100368002c0a00002c0a00002c0a00002c0a0000ad
:100378002c0a00002c0a00002c0a00002c0a00009d
:100388002c0a00002c0a00002c0a00002c0a00008d
:100398002c0a00002c0a00002c0a00002c0a00007d
:1003a8002c0a00002c0a00002c0a00002c0a00006d
:1003b8002c0a00002c0a00002c0a00002c0a00005d
:1003c8002c0a00002c0a00002c0a00002c0a00004d
:1003d8002c0a00002c0a00002c0a00002c0a00003d
:1003e8002c0a00002c0a00002c0a00002c0a00002d
:0803f8002c0a00002c0a000091
:020000040000fa
:10052000881f7800a1912000914078001ec8bf006c
:10053000e24f500001003a001a69ef0040c8bf00c6
:10054000e24f500002003a0010c0b3001ae9b700b1
:1005500062c8bf00e24f500001003a001ae9b7003c
:1005600084c8bf00e24f500002003a0030c0b30020
:100570001ae9b700a6c8bf00e24f500002003a00d7
:1005800040c0b3001ae9b700c8c8bf00e24f50002e
:1005900002003a0050c0b3001ae9b700eac8bf0031
:1005a000e24f500002003a0060c0b3001ae9b70001
:1005b0000cc9bf00e24f500002003a0070c0b30007
:1005c0001ae9b7001ac9bf0080cf500057013200a6
:1005d0000004e00003003a00e1cf5000b2003a000e
:1005e00018003700e14f500003003a00e2cf5000fe
:1005f00056003a0013003700e24f500003003a0063
:10060000e3cf500054003a000e003700e44f500092
:1006100003003a00e5cf5000f0003a00090037002f
:10062000e54f500003003a00e6cf500052003a0078
:1006300004003700e64f50004a003a00e7cf500070
:1006400050003a00dc02a80040012000e40207004c
:1006500008f02f000004fd00dc22b6000004fd00bd
:100660000004fd00e422b6000004fd00dc22a80026
:1006700040012000da0207000004fd00dc22b60081
:100680000004fd000004fd00e422b6000004fd00ab
:10069000dc42a80040012000d10207000004fd0058
:1006a000dc22b6000004fd000004fd00e422b600d8
:1006b0000004fd00dc62a80040012000c802070021
:1006c0000004fd00dc22b6000004fd000004fd0073
:1006d000e422b6000004fd00dc82a80040012000f6
:1006e000bf0207000004fd00dc22b6000004fd008c
:1006f0000004fd00e422b6000004fd00dca2a80016
:1007000040012000b60207000004fd00dc22b60014
:100710000004fd000004fd00e422b6000004fd001a
:10072000dcc2a80040012000ad0207000004fd006b
:10073000dc22b6000004fd000004fd00e422b60047
:100740000004fd00dce2a800f00037000104e00036
:100750001300320057003700e1cf500058003a0034
:100760000f003700e34f500009003a00e2cf50007d
:1007700056003a000a003700e4cf50009a003a00d1
:1007800007003700e5cf50009a003a000400370018
:10079000e74f5000e5003a00e6cf500098003a00dd
:1007a000dce2a800400120008d02070008f02f00c5
:1007b0000004fd00dc22b6000004fd000004fd0082
:1007c000e422b6000004fd00dcc2a80040012000c5
:1007d000830207000004fd00dc22b6000004fd00d7
:1007e0000004fd00e422b6000004fd00dca2a80025
:1007f000400120007a0207000004fd00dc22b60060
:100800000004fd000004fd00e422b6000004fd0029
:10081000dc82a80040012000710207000004fd00f6
:10082000dc22b6000004fd000004fd00e422b60056
:100830000004fd00dc62a8004001200068020700ff
:100840000004fd00dc22b6000004fd000004fd00f1
:10085000e422b6000004fd00dc42a80040012000b4
:100860005f0207000004fd00dc22b6000004fd006a
:100870000004fd00e422b6000004fd00dc22a80014
:1008800040012000560207000004fd00dc22b600f3
:100890000004fd000004fd00e422b6000004fd0099
:1008a000dc02a80099003700e4cf50009f003a0016
:1008b00008003700e5cf50009c003a0005003700e3
:1008c000e6cf500099003a0002003700e7cf500011
:1008d00096003a00e402a800400120004002070010
:1008e00008f02f000004fd00dc22b6000004fd002b
:1008f0000004fd00e422b6000004fd00e422a8008c
:1009000040012000360207000004fd00dc22b60092
:100910000004fd000004fd00e422b6000004fd0018
:10092000e442a800400120002d0207000004fd0061
:10093000dc22b6000004fd000004fd00e422b60045
:100940000004fd00e462a80040012000240207002a
:100950000004fd00dc22b6000004fd000004fd00e0
:10096000e422b6000004fd00e482a800400120005b
:100970001b0207000004fd00dc22b6000004fd009d
:100980000004fd00e422b6000004fd00e4a2a8007b
:1009900040012000120207000004fd00dc22b60026
:1009a0000004fd000004fd00e422b6000004fd0088
:1009b000e4c2a80040012000090207000004fd0075
:1009c000dc22b6000004fd000004fd00e422b600b5
:1009d0000004fd00e4e2a8004c0037000104e00040
:1009e0000900320051003700e1cf50004f003a00bb
:1009f00005003700e2cf50004c003a0002003700fb
:100a0000e3cf500049003a00e4e2a8004001200092
:100a1000f301070008f02f000004fd00dc22b600ff
:100a20000004fd000004fd00e422b6000004fd0007
:100a3000e4c2a80040012000e90107000004fd0015
:100a4000dc22b6000004fd000004fd00e422b60034
:100a50000004fd00e4a2a80040012000e00107001e
:100a60000004fd00dc22b6000004fd000004fd00cf
:100a7000e422b6000004fd00e482a800400120004a
:100a8000d70107000004fd00dc22b6000004fd00d1
:100a90000004fd00e422b6000004fd00e462a800aa
:100aa00040012000ce0107000004fd00dc22b6005a
:100ab0000004fd000004fd00e422b6000004fd0077
:100ac000e442a80040012000c50107000004fd0029
:100ad000dc22b6000004fd000004fd00e422b600a4
:100ae0000004fd00e422a80040012000bc01070032
:100af0000004fd00dc22b6000004fd000004fd003f
:100b0000e422b6000004fd00e402a8004001200039
:100b1000b30107000004fd00dc22b6000004fd0064
:100b20000004fd00e422b6000004fd004f0478003c
:100b300000000600b2010700a902070080c3eb0015
:100b40000083eb00860278000042eb0084417800cd
:100b5000c22c2000812c2000044078006b0207008a
:100b600080c3eb000083eb008602780014c0b30062
:100b700084417800c22c2000812c200004407800a1
:100b80006202070080c3eb000083eb00860278005e
:100b900024c0b30084417800c22c2000812c2000a6
:100ba000044078005902070080c3eb000083eb008b
:100bb0008602780034c0b30084417800c22c200043
:100bc000812c2000044078005002070080c3eb0015
:100bd0000083eb008602780044c0b30084417800b3
:100be000c22c2000812c200004407800470207001e
:100bf00080c3eb000083eb008602780054c0b30092
:100c000084417800c22c2000812c20000440780010
:100c10003e02070080c3eb000083eb0086027800f1
:100c200064c0b30084417800c22c2000812c2000d5
:100c3000044078003502070080c3eb000083eb001e
:100c40008602780074c0b30084417800c22c200072
:100c5000812c2000044078002c0207003a01070094
:100c60000040eb00630007002040900023e8b7003d
:100c700010c0b3005f0007002040900045e8b700b7
:100c800020c0b3005b0007002040900067e8b70079
:100c900030c0b300570007002040900089e8b7003b
:100ca00040c0b3005300070020409000abe8b700fd
:100cb00050c0b3004f00070020409000cde8b700bf
:100cc00060c0b3004b00070020409000efe8b70081
:100cd00070c0b300470007002040900011e9b70042
:100ce00000fa20006008880094e0a80011e1a80044
:100cf0000bfe0700ca000700fdff37009f02370008
:100d0000881f7800000478000000eb00f2702200d9
:100d1000018f2d0002003700010444000000e800ac
:100d2000820f5400fcff3e000043b0002301070087
:100d30000000eb00723e200081c12f00020037004e
:100d4000010444000000e800820f5400fcff3e0054
:100d50000043b000190107000000eb00320620003c
:100d6000c1f92f0002003700010444000000e80030
:100d7000820f5400fcff3e000043b0000f0107004b
:100d80000000eb00020037006a0454000000e80095
:100d9000e90f5400fcff3e000043b00007010700cc
:100da0000000eb00010037000000e800880f500051
:100db000fdff3a000043b00000010700b0c3b300dc
:100dc000fe0007004f04780000000600881f78002e
:100dd0000004780002003700f80007000804e8006b
:100de000184078000004e000fbff3a004f04780050
:100df00000000600889fbe008a9fbe008c1f7800fe
:100e00008080fb00200220000089b90020802000a3
:100e1000020540000046eb008004eb000b002100bf
:100e2000090478000d003700186598000a00780062
:100e30008b0207005015b1008000780001003b00d4
:100e40008000ea008b8f500003003c0008467800c9
:100e500081047800810578000804e800000820007b
:100e6000800f5400f0ff3a000c00780014e9b7003e
:100e700099488800209120004f0678004f05be0059
:100e80004f04be0000000600e4874700889fbe00b4
:100e90008a9fbe008c9fbe008e1f7800004678009f
:100ea0000e0021000040eb0080f79f008006eb0061
:100eb0001a0020008a45780019fe2f00424cdd0000
:100ec000080075004800dd00f01988000c4078002b
:100ed000c8ff0700204090000000fb0068005000a1
:100ee0008e0f500004003c0008c4750088f79f0076
:100ef00000077800800678000000e000070034005a
:100f00008904e80000022000808f5400ebff3a00c3
:100f10000a05e800e40f5500e6ff3a000ff09700dd
:100f200018e9b700bd488800609120004f0778009d
:100f30004f06be004f05be004f04be004f00b1007b
:100f400000000600889fbe008a9fbe008c1f7800ac
:100f50000086fb002202200002e1b900700341007c
:100f60002580200066807a006300b900720241008b
:100f700000b27a0066807a006300b9000000d100f8
:100f80007401410000b17a000085eb008085eb0020
:100f900018362e006901200010003700f701070005
:100fa0002002200000e0b900800078007c004000b2
:100fb0002280200060407900e24f500007003a0094
:100fc000788040006000790001002000800f55000b
:100fd000818f5d0004003c000005be0061045400e8
:100fe000e0845c00edff3a000a00be00e00f55000f
:100ff000e08f5d0002003d0067004500e0804d008d
:101000004d09dd004300de0000007100c388de00f2
:101010004f0678004f05be004f04be0000000600da
:10102000889fbe00e28120000000eb00110020003c
:1010300088c0b30023c0b30092cf110001003a0072
:1010400001007000818040000844e9002202b000e5
:101050000804e000f7ff3a0029ff0700a9812000fb
:101060001900780026ff07000844e8002902b000b4
:10107000e84f5400faff3a00d0c0b3004f00070019
:10108000a0c0b3004d0007004f04be0000000600e2
:10109000889fbe00e28120000000eb0011002000cc
:1010a00088c0b30023c0b30092cf110001003a0002
:1010b00001007000818040000844e9002202b00075
:1010c0000804e000f7ff3a000dff07002980200028
:1010d000190078000aff07002902b0000844e80060
:1010e000e84f5400faff3a00d0c0b30033000700c5
:1010f000a0c0b300310007004f04be00000006008e
:10110000e38120000000eb001100200082c0b3004a
:1011100024c0b300934f120001003a000100700098
:10112000818040000241e9002302b0000204e00097
:10113000f7ff3a00f2fe0700d0c0b3001f0007001f
:10114000a0c0b3001d003700103a8000f00bb200c1
:101150006304200072052000217420008348780079
:101160008248780080487800d0c6bf0001ccb30028
:10117000014060005040b300d0e6b700103a800054
:101180000060a00021742000834878008248780025
:101190008048780020022000c01188000000eb0089
:1011a000801188003062a8009011880031e2a80008
:1011b0003342a80087c0a9000000060080407800e4
:1011c00033c2bf000008a300fdff32000000000092
:1011d000000000000100fb00a011880000000600d4
:1011e0008000eb0003003700803e09000000000093
:1011f0008100e800808f5000fbff3a0000000600ed
:1012000000f02f00dc22b600e422b600d822b6009f
:10121000e022b600dc02a80040012000f0ff070039
:10122000dc02a900dc22a80040012000ecff07003e
:10123000dc22a900dc42a80040012000e8ff0700f2
:10124000dc42a900dc62a80040012000e4ff0700a6
:10125000dc62a900dc82a80040012000e0ff07005a
:10126000dc82a900dca2a80040012000dcff07000e
:10127000dca2a900dcc2a80040012000d8ff0700c2
:10128000dcc2a900dce2a80040012000d4ff070076
:10129000dce2a900e402a80040012000d0ff070022
:1012a000e402a900e422a80040012000ccff0700ce
:1012b000e422a900e442a80040012000c8ff070082
:1012c000e442a900e462a80040012000c4ff070036
:1012d000e462a900e482a80040012000c0ff0700ea
:1012e000e482a900e4a2a80040012000bcff07009e
:1012f000e4a2a900e4c2a80040012000b8ff070052
:10130000e4c2a900e4e2a80040012000b4ff070005
:10131000e4e2a900e4e2a80040012000b0ff0700d9
:10132000e4e2a900e4c2a80040012000acff0700ed
:10133000e4c2a900e4a2a80040012000a8ff070021
:10134000e4a2a900e482a80040012000a4ff070055
:10135000e482a900e462a80040012000a0ff070089
:10136000e462a900e442a800400120009cff0700bd
:10137000e442a900e422a8004001200098ff0700f1
:10138000e422a900e402a8004001200094ff070025
:10139000e402a900dce2a8004001200090ff070061
:1013a000dce2a900dcc2a800400120008cff07009d
:1013b000dcc2a900dca2a8004001200088ff0700d1
:1013c000dca2a900dc82a8004001200084ff070005
:1013d000dc82a900dc62a8004001200080ff070039
:1013e000dc62a900dc42a800400120007cff07006d
:1013f000dc42a900dc22a8004001200078ff0700a1
:10140000dc22a900dc02a8004001200074ff0700d4
:10141000dc02a9000000060000a0fe003600f80073
:10142000849fbe00869fbe003400f80004002000a8
:10143000a401880031fe07000621ef0084e0a90026
:101440003400f9004f03be004f02be003600f90021
:101450000080fe00004006003400f800881f78007d
:1014600008002000a80188004f0478000000000058
:101470000000000000000000fcff37003400f8000e
:10148000881f780008002000a80188004f04780019
:10149000000000000000000000000000fcff37001a
:1014a0003400f800881f780008002000a801880098
:1014b0004f04780000000000000000000000000061
:1014c000fcff37003400f800881f78000800200077
:1014d000a80188004f047800000000000000000010
:1014e00000000000fcff37003400f800881f78007f
:1014f00008002000a80188004f04780000000000c8
:101500000000000000000000fcff3700889fbe00c4
:101510008a1f78000104780082047800034578006f
:101520008080fb00200220000089b900208020007c
:10153000820140000500e000030034009509980096
:101540000580d10003003700803e200090099800fc
:10155000401f2000a0099800c8019800d9019800f8
:101560008a80fb00100020000100dd00f0099800d7
:10157000846198000040eb00c059980040032000af
:10158000d00998000600e0000200340086099800a7
:101590000200370000022000800998000308900034
:1015a000f00198000704e000020035009761980000
:1015b0000200370070c0b300906198000001eb009a
:1015c000c20998006000b800a0019800b10198001d
:1015d000e20198004f0578004f04be0000000600ad
:1015e0000001eb00021988001219880022198800f6
:1015f0002043a80025c3bf0001ceb3000140600016
:101600000004a00025e3b70020c0b30024e3b70026
:1016100021e3a800e219880000302000f0198800ba
:101620003de3a800000006000002780030099000a9
:101630000200e800300a9800810f510011003900c3
:101640000000eb00300a98001401be00cd1add0046
:101650004310de0000807200c398de0000015100dc
:101660008181590024009000b4009000cd0add0073
:101670004300de0000807200c388de00001a4100d3
:101680000192490000000600881f780000047800dd
:10169000200090009800500001003b008000eb000b
:1016a000410c980048589000e14f50001100320062
:1016b00003003900e24f50002b003a001b003700b6
:1016c000580890000000e900500c9800e10f40001d
:1016d00004003a0010c0b300405c980020002000d5
:1016e000500c980028009000b8009000008cbe00bc
:1016f0001d00370018089000808f5000070036004a
:10170000580890000000e900500c9800e10f4000dc
:1017100004003a0020c0b300405c98002000200084
:10172000500c9800410020000d0037002808900060
:10173000808f500007003100580890000000e90039
:10174000500c9800e10f400004003a0010c0b300b4
:10175000405c980020002000500c980001192000e7
:1017600008007800b0ff07006000b800200498006f
:10177000310498004f04780000000600889fbe00e6
:101780008a9fbe0000c8bf000080fb00220220002c
:101790000280b90022802000800441000b8f2000cd
:1017a0008ac0b3006e844400684890000004e000e2
:1017b000190035000900780029000700f8b89700e3
:1017c000810f5000020034000100e80001003700e2
:1017d0000100e90070bc9f0078b89700cf80de0060
:1017e00038b99700c8b997000000410081804900ce
:1017f00030bc9f0041bc9f001800e900000c78003d
:10180000e10f400004003a00090078009eff070045
:1018100018009000000c78008b8f540003003a00f1
:101820002980200008812000020037002902b00032
:101830002802b0000a45e900dbff3a000048ec004e
:1018400000e8b700e74f5000020036000a007800b9
:1018500000e8b7004f05be004f04be0000000600c0
:10186000c002900050019000f0099000806090004c
:1018700010629000c0ff2f003c23b6008180fb0067
:10188000411988008380ea0012896000958a60000f
:101890001400090000000000958a71003c03a800b4
:1018a0000442e9004240a900fdff3c003c23a8009f
:1018b0002023a9000000000000000000000000003c
:1018c00000000000000000000000000020c3bf0076
:1018d0000008a300fdff3200958a60000118800017
:0c18e00000402000010050000000060045
:020000040000fa
:1018ec0000080000120100000000000012090000b6
:1018fc0008000000000000001a09000002000000af
:08190c000000000000000000d3
:00000001FF
